S0130000666C6173686C6F616465722E737265638C
S3152025000060D82720612526207B0825207B082520CA
S315202500106B0926207F0926208F092620000000002F
S315202500200000000000000000000000007B082520BD
S315202500307B082520000000007B0825207B0825201D
S31520250040913726209137262091372620913726202D
S31520250050913726209137262091372620913726201D
S31520250060913726209137262091372620913726200D
S3152025007091372620913726209137262091372620FD
S3152025008091372620913726209137262091372620ED
S315202500903F1F262091372620913726209137262047
S315202500A091372620913726209137262091372620CD
S315202500B091372620913726209137262091372620BD
S315202500C091372620913726209137262091372620AD
S315202500D0913726209137262091372620913726209D
S315202500E0913726209137262091372620913726208D
S315202500F0913726209137262091372620913726207D
S31520250100913726209137262091372620913726206C
S31520250110913726209137262091372620913726205C
S31520250120913726209137262091372620913726204C
S31520250130913726209137262091372620913726203C
S31520250140913726209137262091372620913726202C
S31520250150913726209137262091372620913726201C
S315202501609137262091372620913726208925262026
S3152025017091372620913726209137262091372620FC
S3152025018091372620913726209137262091372620EC
S3152025019091372620913726209137262091372620DC
S315202501A091372620913726209137262091372620CC
S315202501B091372620913726209137262091372620BC
S315202501C091372620913726209137262091372620AC
S315202501D0913726209137262091372620913726209C
S315202501E0913726207D1925209137262091372620BF
S315202501F0913726209137262091372620913726207C
S31520250200913726209137262091372620913726206B
S31520250210913726209137262091372620913726205B
S31520250220913726209137262091372620913726204B
S31520250230913726209137262091372620913726203B
S31520250240913726209137262091372620913726202B
S31520250250913726209137262091372620913726201B
S31520250260FF3626209137262091372620913726209E
S3152025027091372620913726209137262091372620FB
S3152025028091372620913726209137262091372620EB
S3152025029091372620913726209137262091372620DB
S315202502A091372620913726209137262091372620CB
S315202502B091372620913726209137262091372620BB
S315202502C091372620913726209137262091372620AB
S315202502D0913726209137262091372620913726209B
S315202502E0913726209137262091372620913726208B
S315202502F0913726209137262091372620913726207B
S31520250300913726209137262091372620913726206A
S31520250310913726209137262091372620913726205A
S31520250320913726209137262091372620913726204A
S31520250330913726209137262091372620913726203A
S31520250340913726209137262091372620913726202A
S31520250350913726209137262091372620913726201A
S31520250360913726209137262091372620913726200A
S3152025037091372620913726209137262091372620FA
S315202503809137262091372620912526209925262006
S31520250390A1252620A92526209137262091372620D6
S315202503A091372620913726209137262091372620CA
S315202503B091372620913726209137262091372620BA
S315202503C091372620913726209137262091372620AA
S315202503D0913726209137262091372620913726209A
S315202503E0913726209137262091372620913726208A
S315202503F0913726209137262091372620913726207A
S3152025040060D82720612526207B0825207B082520C6
S315202504106B0926207F0926208F092620000000002B
S315202504200000000000000000000000007B082520B9
S315202504307B082520000000007B0825207B08252019
S315202504409137262091372620913726209137262029
S315202504509137262091372620913726209137262019
S315202504609137262091372620913726209137262009
S3152025047091372620913726209137262091372620F9
S3152025048091372620913726209137262091372620E9
S315202504903F1F262091372620913726209137262043
S315202504A091372620913726209137262091372620C9
S315202504B091372620913726209137262091372620B9
S315202504C091372620913726209137262091372620A9
S315202504D09137262091372620913726209137262099
S315202504E09137262091372620913726209137262089
S315202504F09137262091372620913726209137262079
S315202505009137262091372620913726209137262068
S315202505109137262091372620913726209137262058
S315202505209137262091372620913726209137262048
S315202505309137262091372620913726209137262038
S315202505409137262091372620913726209137262028
S315202505509137262091372620913726209137262018
S315202505609137262091372620913726208925262022
S3152025057091372620913726209137262091372620F8
S3152025058091372620913726209137262091372620E8
S3152025059091372620913726209137262091372620D8
S315202505A091372620913726209137262091372620C8
S315202505B091372620913726209137262091372620B8
S315202505C091372620913726209137262091372620A8
S315202505D09137262091372620913726209137262098
S315202505E0913726207D1925209137262091372620BB
S315202505F09137262091372620913726209137262078
S315202506009137262091372620913726209137262067
S315202506109137262091372620913726209137262057
S315202506209137262091372620913726209137262047
S315202506309137262091372620913726209137262037
S315202506409137262091372620913726209137262027
S315202506509137262091372620913726209137262017
S31520250660FF3626209137262091372620913726209A
S3152025067091372620913726209137262091372620F7
S3152025068091372620913726209137262091372620E7
S3152025069091372620913726209137262091372620D7
S315202506A091372620913726209137262091372620C7
S315202506B091372620913726209137262091372620B7
S315202506C091372620913726209137262091372620A7
S315202506D09137262091372620913726209137262097
S315202506E09137262091372620913726209137262087
S315202506F09137262091372620913726209137262077
S315202507009137262091372620913726209137262066
S315202507109137262091372620913726209137262056
S315202507209137262091372620913726209137262046
S315202507309137262091372620913726209137262036
S315202507409137262091372620913726209137262026
S315202507509137262091372620913726209137262016
S315202507609137262091372620913726209137262006
S3152025077091372620913726209137262091372620F6
S315202507809137262091372620912526209925262002
S31520250790A1252620A92526209137262091372620D2
S315202507A091372620913726209137262091372620C6
S315202507B091372620913726209137262091372620B6
S315202507C091372620913726209137262091372620A6
S315202507D09137262091372620913726209137262096
S315202507E09137262091372620913726209137262086
S315202507F09137262091372620913726209137262076
S31520250800002A01D101207047F0B41F460346032450
S315202508102340002B09D00424E31A01700130082433
S31520250820E141521E26D05B1EF7D1042A1ADB13D0AE
S31520250830002F11D00C460D460E46102A02DB72C01B
S31520250840103AFAE70C2A02DB32C00C3AFAE7082AD4
S3152025085002DB12C0083AFAE7042A03DB01600430DA
S31520250860121FF9E7002A05D0017001300824E1413D
S31520250870521EF7D1F0BC00207047FEE77541252092
S3152025088000000000BD412520000000003143252021
S31520250890114525208B4225201B442520FD45252035
S315202508A0000000000000000000000000FB4125207C
S315202508B000000000D34125201B442520174625204E
S315202508C00000000071462520000000002B41252030
S315202508D0000000002B42252000000000000000001B
S315202508E0000000009546252000000000E34625202F
S315202508F0000000000F4725201145252047422520A9
S315202509000000000000000000000000009D42252078
S31520250910F743252000000000000000002948252057
S31520250920F743252000000000B71DC1046E3B820930
S31520250930D926430DDC7604136B6BC517B24D861A63
S315202509400550471EB8ED08260FF0C922D6D68A2F80
S3152025095061CB4B2B649B0C35D386CD310AA08E3C9F
S31520250960BDBD4F3870DB114CC7C6D0481EE0934518
S31520250970A9FD5241ACAD155F1BB0D45BC2969756E7
S31520250980758B5652C836196A7F2BD86EA60D9B6352
S3152025099011105A6714401D79A35DDC7D7A7B9F70E3
S315202509A0CD665E74E0B6239857ABE29C8E8DA191D9
S315202509B0399060953CC0278B8BDDE68F52FBA5822F
S315202509C0E5E66486585B2BBEEF46EABA3660A9B7BC
S315202509D0817D68B3842D2FAD3330EEA9EA16ADA4DB
S315202509E05D0B6CA0906D32D42770F3D0FE56B0DD0A
S315202509F0494B71D94C1B36C7FB06F7C32220B4CEEB
S31520250A00953D75CA28803AF29F9DFBF646BBB8FBD5
S31520250A10F1A679FFF4F63EE143EBFFE59ACDBCE856
S31520250A202DD07DEC77708634C06D4730194B043D2B
S31520250A30AE56C539AB0682271C1B4323C53D002E42
S31520250A407220C12ACF9D8E1278804F16A1A60C1B07
S31520250A5016BBCD1F13EB8A01A4F64B057DD00808BE
S31520250A60CACDC90C07AB9778B0B6567C6990157157
S31520250A70DE8DD475DBDD936B6CC0526FB5E61162C6
S31520250A8002FBD066BF469F5E085B5E5AD17D1D5709
S31520250A906660DC5363309B4DD42D5A490D0B194482
S31520250AA0BA16D84097C6A5AC20DB64A8F9FD27A59C
S31520250AB04EE0E6A14BB0A1BFFCAD60BB258B23B68E
S31520250AC09296E2B22F2BAD8A98366C8E41102F83C3
S31520250AD0F60DEE87F35DA9994440689D9D662B907A
S31520250AE02A7BEA94E71DB4E0500075E4892636E989
S31520250AF03E3BF7ED3B6BB0F38C7671F7555032FACA
S31520250B00E24DF3FE5FF0BCC6E8ED7DC231CB3ECF8C
S31520250B1086D6FFCB8386B8D5349B79D1EDBD3ADCF5
S31520250B205AA0FBD8EEE00C6959FDCD6D80DB8E6091
S31520250B3037C64F643296087A858BC97E5CAD8A7313
S31520250B40EBB04B77560D044FE110C54B383686460C
S31520250B508F2B47428A7B005C3D66C158E4408255EF
S31520250B60535D43519E3B1D252926DC21F0009F2CD4
S31520250B70471D5E28424D1936F550D8322C769B3F97
S31520250B809B6B5A3B26D6150391CBD40748ED970A5E
S31520250B90FFF0560EFAA011104DBDD014949B931933
S31520250BA02386521D0E562FF1B94BEEF5606DADF805
S31520250BB0D7706CFCD2202BE2653DEAE6BC1BA9EB5F
S31520250BC00B0668EFB6BB27D701A6E6D3D880A5DEC8
S31520250BD06F9D64DA6ACD23C4DDD0E2C004F6A1CDAB
S31520250BE0B3EB60C97E8D3EBDC990FFB910B6BCB4A6
S31520250BF0A7AB7DB0A2FB3AAE15E6FBAACCC0B8A71B
S31520250C007BDD79A3C660369B717DF79FA85BB49261
S31520250C101F4675961A163288AD0BF38C742DB08126
S31520250C20C330718599908A5D2E8D4B59F7AB085423
S31520250C3040B6C95045E68E4EF2FB4F4A2BDD0C4772
S31520250C409CC0CD43217D827B9660437F4F46007293
S31520250C50F85BC176FD0B86684A16476C933004618E
S31520250C60242DC565E94B9B115E565A158770191893
S31520250C70306DD81C353D9F0282205E065B061D0BF6
S31520250C80EC1BDC0F51A69337E6BB52333F9D113E15
S31520250C908880D03A8DD097243ACD5620E3EB152D52
S31520250CA054F6D4297926A9C5CE3B68C1171D2BCC48
S31520250CB0A000EAC8A550ADD6124D6CD2CB6B2FDF3E
S31520250CC07C76EEDBC1CBA1E376D660E7AFF023EACF
S31520250CD018EDE2EE1DBDA5F0AAA064F4738627F9CA
S31520250CE0C49BE6FD09FDB889BEE0798D67C63A80A5
S31520250CF0D0DBFB84D58BBC9A62967D9EBBB03E937A
S31520250D000CADFF97B110B0AF060D71ABDF2B32A618
S31520250D106836F3A26D66B4BCDA7B75B8035D36B545
S31520250D20B440F7B109000000094A25200101000039
S31520250D30A3572520000100009361252010010000DE
S31520250D406D682520200100006173252021010000E2
S31520250D50756D252000000000000000006F010000B1
S31520250D6065090000700137016D0138016E012E02DB
S31520250D7071012F0172013001730131017401320194
S31520250D806C0133016B0134016A0135016901360194
S31520250D9067080000660900006D0138010000000083
S31520250DA0680800006C0133016B0134016A013501A5
S31520250DB06901360100000000000000000000000047
S31520250DC0000000000C0000000C0000000C000000B4
S31520250DD008000000510300000000000052033700E0
S31520250DE04F03380050032E0153032F0054033000A0
S31520250DF055033100560332004E0333004D0334008C
S31520250E004C0335004B03360000000000000000008F
S31520250E100000000000000000000000000000000087
S31520250E200000000000000000000000000000000077
S31520250E300000000000000000000000000300000064
S31520250E400300000003000000070000003504000011
S31520250E500000000034043D00330400003604000061
S31520250E603704390038043A0039043B003A043C005B
S31520250E703B0400003C0400003D0400003E04000025
S31520250E8032040000000000003304000000000000AA
S31520250E9031040000300400002F0400002E04000039
S31520250EA02D0400002C0400002B0400002A04000039
S31520250EB0290400000C0000000C0000000C00000096
S31520250EC008000000630600000000000064063D01BE
S31520250ED000000000000000006506390166063A017B
S31520250EE067063B0168063C01000000000000000063
S31520250EF000000000000000000000000000000000A7
S31520250F000000000000000000000000000000000096
S31520250F100000000000000000000000000000000086
S31520250F200000000000000000000000000C0000006A
S31520250F300C0000000C00000008000000000007102F
S31520250F400608050807060604070405040404060200
S31520250F500000020D0208020602050204020302030E
S31520250F6002030202000007080604050407030602F9
S31520250F7007020502040206010000020602040203F6
S31520250F800203020202020202020202015A04180880
S31520250F900830FF2400000000000000005A0518092B
S31520250FA00831FF2500000000000000005A06180A17
S31520250FB00832FF2600000000000000000000000087
S31520250FC00000000000000000000000009F0403240C
S31520250FD00000000000000000000000009F076007B9
S31520250FE0200B042700000000000000009F87608753
S31520250FF0208B04A700000000000000005A041808D2
S315202510000830FF2400000000000000005A06180AB8
S31520251010FF26000000000000000000005A07180BDC
S31520251020FF27000000000000000000005A06188A4D
S31520251030FFA6000000000000000000005A07208BB4
S31520251040FFA700000000000000000000934A25208D
S31520251050B94C252000000000CF4C25204F4D2520BA
S31520251060974D2520234E252000000000CD4E2520F6
S31520251070B94C252000000000D14E2520DF4E252005
S31520251080974D2520F74E25200000000000400042E0
S315202510900080004200C0004200000142004001427B
S315202510A00080014200C0124000001340004013403A
S315202510B00080134000C013400000144000C0C540E6
S315202510C00000C6400040C6400080C64000C0C6403D
S315202510D00000C7400000CA400000000000C00740AD
S315202510E000000840004008400080084000C0084015
S315202510F000000940004009400080094000C0094001
S3152025110000000A400040C2400080C2400000000086
S315202511100A0000000C0000000D0000000F00000052
S31520251120140000001A0000001E0000002300000005
S31520251130280000002D0000003400000037000000A4
S315202511403C00000046000000500000000001000180
S3152025115000004001C0000000800180000000C00181
S3152025116040000000000200000000C00040010000F1
S315202511708000800100004000C00100000000000220
S3152025118000000001C0004000400180004000800191
S3152025119040004000C00100004000C0000001400082
S315202511A08000400140004000800140000000C00131
S315202511B04000C000C000800000018000800048015A
S315202511C04000800080010000800080000001800012
S315202511D0400040018000000080018000C000800082
S315202511E0C00000014000C00040010000C000800072
S315202511F0C000C00040000001C00000004001C00022
S31520251200800080000001C000400000010001000090
S3152025121000014000C00000010000000100018000FF
S3152025122040004001C00000004001400080004001F0
S315202512300000C000400140004000800180000000E1
S31520251240800100008000800140000000C0010000D0
S315202512504000C0010000000000020000090080B007
S31520251260080CC0146655100000000000100000F080
S3152025127000000000400000F80000000008000D874F
S31520251280090080B00800A0120403020108070605FC
S3152025129004045082010000A20400881001000000E9
S315202512A000105082651E2620E11E2620FB1E2620A4
S315202512B000000000000000002D1F26202D7C252063
S315202512C02979252089792520C3792520A57A2520C0
S315202512D0E57A2520F57A25203D7A25208968252039
S315202512E0836B25201D6C2520ED6C2520E168252086
S315202512F0CF6C2520E16C2520396D252000555603F8
S31520251300590C0F5A5A0F0C5903565500653033661A
S315202513103C696A3F3F6A693C66333065663330658A
S315202513203F6A693C3C696A3F6530336603565500FA
S315202513305A0F0C59590C0F5A00555603693C3F6ACA
S3152025134030656633336665306A3F3C690C595A0FDA
S3152025135055000356560300550F5A590C0F5A590C4A
S3152025136056030055550003560C595A0F6A3F3C69BA
S315202513703366653030656633693C3F6A6A3F3C692A
S315202513803366653030656633693C3F6A0F5A590C9A
S3152025139056030055550003560C595A0F0C595A0F0A
S315202513A055000356560300550F5A590C693C3F6A7A
S315202513B030656633336665306A3F3C69035655008A
S315202513C05A0F0C59590C0F5A00555603663330655A
S315202513D03F6A693C3C696A3F6530336665303366CA
S315202513E03C696A3F3F6A693C66333065005556033A
S315202513F0590C0F5A5A0F0C59035655008937262052
S3152025140071A42520000000007DA425208DA425205B
S315202514100000000000000000000000000100000080
S31520251420010000001B192520A4122520B4122520F1
S31520251430D81525201000000000000000000000001F
S31520251440A816252000000000B8162520000000003B
S315202514500000000000000000000000000000000041
S3152025146000000000691F2620831F262043202620D2
S315202514700D212620283C27200E480F49006B88421F
S3152025148002D10020C04370470C480D49C0698842C7
S3152025149007D10C48008CC00501D5032070470220B2
S315202514A0704709480949006B884201D101207047B8
S315202514B000207047006121000020287340B72200B4
S315202514C0024A10680049C840C08F210005E01378DC
S315202514D0096F2520817125201B722520EB72252059
S315202514E03F6F2520CD722520DF72252027732520C5
S315202514F0000000000000000000000000000000049D
S3152025150008040800012106212121000002040204E5
S3152025151000011003211021000002040202000110FF
S3152025152003211021000001030102000110032110CF
S3152025153021000001020101000110032110210000D4
S3152025154001020101000110032110210000000000E5
S3152025155000000000000000004D4943524F4E202038
S31520251560202020205350414E53494F4E20202020C5
S3152025157053414D53554E47202020202057494E4232
S315202515804F4E44202020202048594E49582020209F
S3152025159020202020544F53484942412020202020D6
S315202515A04D4143524F4E495820202020000000000F
S315202515B00000000000000000B55B2520735E252075
S315202515C0655F25206F602520395C25205D612520D6
S315202515D06F612520000000000122262007222620D3
S315202515E007232620A723262005222620B3232620A7
S315202515F0E121262000000800000010000000200020
S3152025160000004000000080000000000100000002CC
S315202516100000000400000008000000100000002043
S3152025162000000040008000000000010000000200AC
S315202516300000040059662520696625208566252013
S3152025164063672520236825201167252000000000B3
S3152025165095672520594F2520A9532520E154252056
S31520251660BB562520395025207D5625208F562520C9
S3152025167000000000D118262055192620000000003C
S315202516805519262000000000ED192620351A26207A
S3152025169000000000DF1A2620151B26205F1B26208A
S315202516A0971B2620CB1B2620713326207D342620EA
S315202516B0293526208335262091352620B535262001
S315202516C045362620E3362620F5362620F9362620C9
S315202516D00000000038B504463F4D0020C5E900002E
S315202516E0C5E90200C5E90400286268623B4800F086
S315202516F0B4F8C5E906012046BDE834400FF2590164
S3152025170000F04AB900F05EB970B5334E0C46316A01
S31520251710072904BF716A88421BD100F07DFDD6E9D1
S3152025172000230546D6E90201C5EB05158218B5FB2A
S31520251730F2F00A2568434FF49662B0FBF2F2521D69
S315202517400A21B2FBF1F14FF4966041432160002036
S3152025175070BD012070BD00002DE9F843064600F036
S3152025176072F8044688461C4F3A6AD7E90459D7E9C0
S315202517700601521C651B68EB090949453A6205D8BD
S3152025178028BFA84202D20120386208E0012A06D0C5
S31520251790042A08D0052A0ED0072A0FD018E0C7E933
S315202517A000487E6214E0D7E90001201A68EB010182
S315202517B0C7E900010CE0C7E9024809E0D7E902019B
S315202517C0201A68EB0101C7E90201304600F0FAF834
S315202517D0C7E90448BDE8F183002427208038010085
S315202517E080B53649364B01200860002235481A60D7
S315202517F04FF0FF31016182610123C361826942F085
S3152025180004028261826942F0010282610160C3601D
S31520251810836000F001FD2C49B0FBF1F000B90120D1
S315202518202A49886001BD10B50320264900230201D7
S315202518308C18401EA3608B50F9D52148016841F0AC
S315202518400201016010BD224881B0016840680090E0
S31520251850C9430098C04301B070471C498A68A2FB3A
S315202518600001704770B50646FFF7EDFF0446174879
S315202518700D468168E1FB0645FFF7E5FFA942FBD327
S3152025188001D8A042F8D370BD10B50446FFF7DBFF7B
S315202518900E4A9368E3FB0401C2E9000110BD38B561
S315202518A0FFF7D1FF094AD2E90045A94204D301D839
S315202518B0A04201D3012032BD002032BDC067CC40D5
S315202518C000800D4000810D4040420F00282427200E
S315202518D0E0800D404901020002D4454881547047D5
S315202518E0444A00F00F00131803F8041C704710B55E
S315202518F0039C240101F00F0104F01004214301600B
S3152025190002B1136010BD7CB5069C00940025019577
S31520251910FFF7EDFF0E26266073BD3EB5364C3748BC
S31520251920374A19B102291BD008D337BD354801605E
S315202519300222226000230360226037BD0092002503
S315202519400195002300220521FFF7D1FF606840F08D
S315202519500C0060602C48016821F08071016037BD3C
S3152025196000920023294A0021FFF7CDFF009400236A
S31520251970002200212348FFF7C6FF37BD10B5244C8A
S315202519802068C00107D52349496821B10120884708
S315202519904FF08071216010BD10B51E481E4C416048
S315202519A004221821204600F0E9FC606940F0807069
S315202519B0606101216920FFF78DFF18494FF40070DA
S315202519C0086010BD80B516494FF400700860BFF336
S315202519D04F8FBFF36F8F00216920FFF77BFF0022F2
S315202519E018210D4800F0CAFC0A490020486001BD8F
S315202519F000E400E018ED00E0B0830E4070810E4033
S31520251A00B4830E406C810E40044013401C860E4044
S31520251A1018401340203C2720004013400CE100E0CD
S31520251A208CE100E010B5DFF8F8070168480ACA05F9
S31520251A3000F001004CBF4FF48062002288B1DFF808
S31520251A40E4472020206042EA0162226101202168A4
S31520251A5041F48071216000F096F8216821F4807187
S31520251A60216010BD81B003200090DFF8BC070168F6
S31520251A70C1F3405040B30098DFF8B027DFF8B01700
S31520251A8090B914231362106A4300FCD5086840F4E4
S31520251A9080700860136843F004031360086B0A6896
S31520251AA022F480720A600FE0009801280CD10B6879
S31520251AB043F480730B60106840F0040010600A6BB5
S31520251AC0086820F48070086001B0704710B5DFF8EB
S31520251AD06447DFF864072168014041F0080100F0DA
S31520251AE043F821F4F05141F4002141F4A05100F0AE
S31520251AF03BF8C82000F047F8216841F0200100F086
S31520251B0033F8642000F03FF8206840F0040027E0F1
S31520251B1010B5DFF82847DFF828072168014041F06E
S31520251B20040100F021F841F0010100F01DF84FF4E1
S31520251B30967000F028F8216841F4003100F014F859
S31520251B404FF4C87000F01FF8206840F480202060EC
S31520251B50BFF36F8F322000F016F8206820F004009E
S31520251B602060BFF36F8F10BD2160BFF36F8F704745
S31520251B70DFF8D016DFF8D0060A68C2F3800109B14E
S31520251B80DFF8C8067047002800D1704710B5DFF862
S31520251B90C026DFF8C0461368DFF8BC16B3FBF4F47D
S31520251BA0604348600522002088600A600868C203D1
S31520251BB0FCD500200860886010BDDFF8A0060168E6
S31520251BC0490849000160026942F00102026129E7BC
S31520251BD070B5DFF8741688421CD1DFF88456DFF8F5
S31520251BE084462560BFF34F8FBFF36F8F00F079F8BA
S31520251BF0DFF85C26DFF85C661368B3FBF6F21E2059
S31520251C0000214243236898000DD4491C8A42F9D2E3
S31520251C10052070BDDFF83416884208BFDFF8485600
S31520251C20DDD0042070BD45F480452560002025F0B3
S31520251C308045256070BDF8B5DFF80C16884224D17D
S31520251C40DFF82856DFF82846DFF80866216A61F08E
S31520251C50C031216200F044F845F4001545F40065AD
S31520251C6000F03EF825F40065DFF8E42525601E20E2
S31520251C701368B3FBF6F3002143432768BE000DD432
S31520251C80491C8B42F9D20520F2BDDFF8C0158842C2
S31520251C9008BFDFF8E055D5D00420F2BD45F4005520
S31520251CA045F00805256025F080452560DFF8C8150F
S31520251CB0DFF8A0552162236A216981F01E01216161
S31520251CC023F0BF331268B2FBF5F500216843226A5B
S31520251CD01A4203D0491C8842F9D2D4E70020F2BD06
S31520251CE025601E204FE770B50021DFF85C25904240
S31520251CF02CD11620DFF88445DFF85855226B62F063
S31520251D007F3222634FF0FF332366216420651E2010
S31520251D10DFF86C152160FFF736FFDFF8681521609F
S31520251D20FA20FFF730FFDFF860052060FA21DFF87B
S31520251D3020050368B3FBF5F300224B432668B5003F
S31520251D400ED4521C9342F9D2052070BDDFF8FC141F
S31520251D50884203D14FF000411B20CBE7042070BDDC
S31520251D60DFF82825DFF82835DFF828552260236077
S31520251D702563236B2269DFF8DC5482F01E0222615B
S31520251D8023F0BF330068B0FBF5F500226943206BAD
S31520251D90184203D0521C9142F9D2D5E7DFF8F81420
S31520251DA0DFF8F82440F2014008601060002070BD5D
S31520251DB038B50446DFF8E80414210160026851008D
S31520251DC0FCD5FFF7D5FE054614B1FFF701FF48B927
S31520251DD000F018F92846FFF72EFF18B92846BDE842
S31520251DE0324080E732BD2DE9F84FDFF858542A686E
S31520251DF000F0FAF828BF012400286DD1DFF8A4B415
S31520251E00DFF8A464DFF8A474CBF800000021316044
S31520251E103860DFF89C84DFF89CA4C8F80010FFF70B
S31520251E20CCFEFFF71FFE601E00F0FF092868DFF8AD
S31520251E308814A2006300C0F3C00000BB4FF0021037
S31520251E400860086A0028FCD400F0C8F8CBF8000002
S31520251E5043F40073521E336002F0FF023B6042F4C6
S31520251E600072C8F800200020FFF7A2FF4FF401706A
S31520251E70DFF84814CAF80000B1FBF4F128E0521E19
S31520251E8002F00F00120402F47F0202431D4604EBE2
S31520251E9044040A60086A0028FCD40120FFF788FF3D
S31520251EA06D1E49F4806005F0FF05641ECBF8000001
S31520251EB045F4007504F0FF04356044F480643C60E5
S31520251EC0C8F8004040F20240CAF80000DFF8F013B7
S31520251ED0DFF87C2311608EE0BDE8F18F2DE9F84FE0
S31520251EE0DFF86063326800F07FF828BF01240028D8
S31520251EF072D1FFF762FEFFF7B5FDFFF7E7FDFFF786
S31520251F0007FE601E00F0FF093068DFF8A453DFF8CE
S31520251F109CA3DFF894B3DFF88C83DFF89C2304EBAE
S31520251F204407A1006300C0F3C00048BB7F1E07F00D
S31520251F300F003F0407F47F0707431760106A002820
S31520251F40FCD400F04BF8C8F8000043F40073491E72
S31520251F50CBF8003001F0FF01CAF8003041F40071BA
S31520251F6029600020FFF724FFDFF84813DFF84C23EC
S31520251F70B74B4FF401700860B2FBF4F21A602AE0E1
S31520251F800C467F1E390407F00F0001F47F01084314
S31520251F901E461060106A0028FCD40020FFF708FF93
S31520251FA0761E49F4C06006F0FF06C8F8000046F400
S31520251FB0A06607F0FF07641ECBF8006047F480670C
S31520251FC004F0FF04CAF8007044F4A064B9492C60D3
S31520251FD040F2024008600EE0BDE8F18F5B1E49F411
S31520251FE0007003F0FF0370470121C2F3011401FAA3
S31520251FF004F4092C704700F075FCBDE8F44F042144
S3152025200000F0AABB38B5AF4CAF4D0020206040F27A
S315202520100511216164202A6882F480322A60FFF71F
S31520252020B2FD4FF4803121604FF480722868A7498C
S3152025203080F4803028600A600120FFF7A4FD286FF0
S3152025204040F01000286731BD2DE9F84395480168F1
S3152025205000291ABF0068002800202FD0794F7C4DF3
S3152025206039680120C1F3011400FA04F4092C28BF8C
S31520252070012400F02AFE4FF401788E4E40F20249C3
S3152025208060B138686400C0F3C000002807BF8B48BC
S31520252090C6F800808E48C6F800900BE03868C0F355
S315202520A0C00068B18B48C6F800900168C1F380004E
S315202520B050B98348B0FBF4F028600120BDE8F283AF
S315202520C0C6F800807D48F5E78349B1FBF4F1296000
S315202520D0F3E710B5040005D15D495B480860FFF795
S315202520E0B3FF50B900F0F1FD0028204602D0BDE807
S315202520F01040F3E6BDE8104075E610BDF8B5774CDF
S31520252100774D2068774E40F0020020604FF0004141
S31520252110A963286B20F080402863286B40F4404033
S315202521202863286B40F4C0102863306840F40010DB
S3152025213030603768FFF71CFD434927F0E077884252
S315202521400CBF47F4400747F0A0773760306840F446
S31520252150405030606420FFF785FB306840F0400012
S3152025216030604FF48031B1600021286B20F080400B
S315202521702863296020684008400020600120F2BDA0
S3152025218007284FF4A0614FF4E0624FF4C06316D8B8
S31520252190DFE800F0040609150D0C0F120F200FE0BD
S315202521A019460E200CE019460B2009E0114604207D
S315202521B006E01146032003E01946022000E0072009
S315202521C00143494801607047484901200860704706
S315202521D046490020086070473448016801F0FF0011
S315202521E0090A01F00701891E052904D8DFE801F02F
S315202521F00507090B0D0F14490AE0304908E03C492B
S3152025220006E0334904E03B4902E03B4900E03B49EF
S31520252210401CB1FBF0F07047DEE7394870470000D7
S315202522201041C8402049C84010CACA400040C8406D
S31520252230C040C8401045C840DAFFF7FF3045C840A2
S31520252240FEFFF9FFA0C9CA4000366E0100F8240119
S315202522508407272040420F0010E000E05040C84068
S31520252260742000400042C8409120004013000040C1
S315202522701042C840150000400D1120184042C84084
S31520252280080000400808804008008040082080403B
S31520252290082080001B101820001DCC40801DCC4016
S315202522A02040C8400000CC408000CC400001CC40D6
S315202522B08001CC40800CCC400040CC400084D717F0
S315202522C0001E7C292048C8400045C8408045C84076
S315202522D000389C1C70C8CA400065CD1D400143406E
S315202522E000404340A04043400002CC402064CC40DF
S315202522F00024F40000C2EB0B00A4781F40DCB311A8
S3152025230000B4C404F8B506460C46154600201449E3
S3152025231051F82020B24202D0401C1328F8D300BF02
S3152025232030A3104A185640010121115001FA04F70D
S315202523307269F9430A407261287818B97068014094
S31520252340716007E06A782146304600F00DF87068FE
S31520252350074377602146AA783046BDE8F8400DE048
S315202523608C1025200060CC40012303FA01F184300E
S315202523700AB941607047016070470000F0B5012415
S31520252380C36904FA01F5AB43C361102932BF00F1B5
S315202523900C0300F110031039490003268E40F7431C
S315202523A0521E042A1DD8DFE802F003070D15190051
S315202523B0186807401F60F0BD1A6817408C403C43BB
S315202523C01C60F0BD18680224074004FA01F1394340
S315202523D01960F0BD19680E431E60F0BDC26915430C
S315202523E0C561F0BDFF3333333333000038B514468A
S315202523F000252CB1042903DA012818BF022801D08B
S31520252400042032BD11B1022906D042E0002000F079
S31520252410BFFC2060284632BD0021012808BFDFF8F1
S31520252420D41403D0022808BFDFF8CC14086809681D
S3152025243001F0FF01000A491C00F007000728DFF8F4
S31520252440BC2424D8DFE800F004071114171A1D2010
S31520252450B2FBF1F0DDE7DFF8A8040368C3F38000BB
S315202524600028F5D0DFF89C24F2E7DFF89C24EFE757
S31520252470DFF89824ECE7DFF89824E9E7DFF89424B9
S31520252480E6E7DFF89424E3E7DFF89024E0E7032561
S31520252490C0E70425BEE72DE9F84F012884B014D1DD
S315202524A000220091096CC80548BF521C7820DFF808
S315202524B0701442438C18009901F1500604F1440505
S315202524C03069002808BF686A04E0022840F0E180C8
S315202524D00222E6E70390D6F81C807069B8F1000F32
S315202524E008BFD5F8308000B9A86A0290B06900B92E
S315202524F0E86A019004F124073068DFF82894DFF88C
S3152025250028A4DFF828B410B9706820B96BE02078A4
S31520252510617800F0E5F8706800281CBF207900282E
S3152025252002D0617900F0DCF8207A10B1617A00F0CA
S31520252530DDF80023019900F0C9F892F800E04AF861
S315202525402E1000F0BCF8042BF5D30098019190F8B5
S31520252550451008290ED1387860B10199042300F059
S31520252560B5F892F800E04AF82E1000F0A8F8082BC6
S31520252570F5D301910098007B032818BF012821D186
S315202525800098016C880509D5D6F81C800FF2B8303D
S31520252590B8F1000F04D14FF0080801E004F110002E
S315202525A000281CBF017800290CD0427842F0100261
S315202525B04BF8212001784AF82180817811B1C078FD
S315202525C049F82100009800F07AFC00281CBF207BC2
S315202525D0002808D0617B00F089F8A07B18B1E07B24
S315202525E0A17B49F82100B06810B9F06828B950E0D8
S315202525F0387C10B1797C00F073F8F06800281CBF70
S31520252600387D002802D0797D00F06AF8387C0028AC
S3152025261004BF387D00283CD0387E10B1797E00F065
S3152025262065F80022019900F037F8042AFBD3009893
S3152025263090F84520082A06D1287D20B1042200F0CD
S315202526402BF8082AFBD30098007B032818BF0128DE
S315202526500ED1287860B1697841F010014BF8201009
S315202526604AF82080A87818B1E878A97849F8210071
S31520252670009800F024FC00281CBF387F002808D0AD
S31520252680797F00F033F8B87F18B1F87FB97F49F8FC
S31520252690210005B0BDE8F08F04EB820000F1480348
S315202526A05E7818784BF8206093F800C04AF82C10ED
S315202526B0987810B1DB7849F82030521C70479078ED
S315202526C010B1D27849F820205B1C704704EB830093
S315202526D000F1140292F801C010784BF820C07047FB
S315202526E04BF82010039A4AF82020704741F0100114
S315202526F04BF8201002994AF82010704738B5044621
S315202527000D46002000F044FB8A49B0FBF1F1224614
S315202527102B46541E63F10005002B08BF002A08D03E
S315202527208A08521C1046421E002818BF00BFF9D120
S31520252730EDE731BD7E490860002070477C490A684F
S31520252740026000207047042011B17B4808600020D4
S315202527507047002070470000FEB5044604206CB360
S31520252760022C2BD8082929D20025012C08BF614DFA
S3152025277002D0022C08BF604D2E6861F30A2600BFC1
S3152025278072A191E88C00684680E88C0028688642EC
S3152025279013D0204600F08FF808B92E600DE05DF89D
S315202527A0240000F068F82E60204600F06AF85DF8CF
S315202527B02400016821F0020101600020FEBD0000F1
S315202527C0F8B5012A84B004464DD800294BD0012CD2
S315202527D008BF484D02D0022C45D1474D2B681B0AF0
S315202527E00026002003F00703032B03D8DFE803F098
S315202527F0143F3D41514B1E18012A04BF181800F1DC
S3152025280028060A2928BF012116F8110006EB4101C1
S315202528104E78761E06F0FF064FA292E8881001A96B
S31520252820000200F4E06081E888100643204600F087
S3152025283042F801AF18B157F8240000F01CF8296892
S315202528408E4218BF2E60204600F01BF857F824002C
S31520252850016821F0020101606A4600210091204687
S315202528600221FFF7C3FD05B0F0BD1420C2E70120E4
S31520252870D2E70320D0E7016841F002010160204616
S315202528800CE001282E4902D0022806D1203101202C
S315202528900860BFF34F8FBFF36F8F704701282849F4
S315202528A002D0022806D1203100200860BFF34F8FA1
S315202528B0BFF36F8F7047014600200129204A02D099
S315202528C0022903D12032116801B10120704741B177
S315202528D0C90001F0380141F001020266C16642664F
S315202528E08266704700E0000016480068C0F3C020C5
S315202528F0401C7047000ACC40800ACC4000366E0129
S31520252900A0C9CA4000B0710B0084D7170024F40053
S31520252910E04B9D2700A4781F007B9A1700389C1C26
S315202529205C0D252098840E4054820E4010800E4042
S315202529301C40C04040420F0080F5E4093C0F25206D
S315202529408063CC400840C04012062E0000000000BF
S3152025295000C00C4000000D400000000000C00C40C7
S3152025296000000D4040010329DFF8782302D10121FB
S31520252970115070470023135070470000F0B5DFF83B
S315202529806823DFF86833002111600C241C6000259C
S3152025299055605C6095609C60D560DC6015611C6126
S315202529A055615C6195619C61D56100F10806DC6104
S315202529B03178DFF83C43DFF83C5321B1012904BFA8
S315202529C0717E102912D1002696670C219967D66724
S315202529D0D9672E600C2727606E606760AE60A7607A
S315202529E0EE60E7602E6127616E6167610021D16403
S315202529F00C26DE6411651E6591659E652962042671
S31520252A00266291640C269E6490F83000BA49BB4E06
S31520252A10401E032817D8DFE800F0110C07020021F5
S31520252A2051640C205864F0BD0222B2600C208860C7
S31520252A30F0BD022272600C204860F0BD0222326071
S31520252A400C200860F0BD002169620C206062F0BD73
S31520252A50401E0328AA494FF0805311D8DFE800F0FD
S31520252A600208030BA74901F1840042B14360704750
S31520252A704FF40033F7E74FF48033A349F3E7036098
S31520252A80704748B1052807D2A04A02EBC01000F5A9
S31520252A90A85340F20921196070470000F0B5401E61
S31520252AA003289B4B9B499C4A954C9C4D9C4E60D814
S31520252AB0DFE800F0021A3047002010600B240C6056
S31520252AC00025D5600B20C86001241C609560886090
S31520252AD00523536048608B48416841F08051416009
S31520252AE0026842F0805243E0062050650C254D654C
S31520252AF010660D66012058610623D365CD6505230D
S31520252B0093658D65616841F400316160206840F4E4
S31520252B10003014E0092797670C208867D767C86790
S31520252B200121196337600C222A60052171606A60AC
S31520252B30616841F080516160206840F080502060B6
S31520252B40F0BD0921B1640C20A864F164E864012153
S31520252B501964092030650C2129650520706569656C
S31520252B606948416841F480314160026842F48032E7
S31520252B700260F0BD30B587B00446FFF782FF2046B8
S31520252B80FFF78CFF052C88BF012011D879A050F896
S31520252B902450684600F024FF62480090002214B194
S31520252BA0052C38BF604A6946284600F0BBFE002022
S31520252BB007B030BD002070475C490A68FF201209FE
S31520252BC012F00F0209D0921E052A08D9921F032A30
S31520252BD007D9121F032A06D97047012070470820D6
S31520252BE07047402070470220704770475048C1687B
S31520252BF0086950490A6882640969C164704738B5ED
S31520252C000020FFF766FA4C484C4B0168C1F3054175
S31520252C102D290BD3BFF34F8FD968494801F4E0619D
S31520252C200143D960BFF34F8F00BFFDE70620454AF4
S31520252C30414354184448A1881B68C3F30B1340F617
S31520252C40244500EB8120AB424049414A0FD0002341
S31520252C5013604FF0005365885361AD026D1E556094
S31520252C606FF06043248803EB8423936105E0394B79
S31520252C70394C13605460536194619162D06203216B
S31520252C80BDE8344000E0002173206BE610B5334AB9
S31520252C9033481168C1F3031109B1324810BD324BAF
S31520252CA011691C68C1F3400104F00204214301295E
S31520252CB001D12E4810BD11691A68C1F3400102F0D1
S31520252CC00202114308BF2A4810BD1C480068C0F3DC
S31520252CD00B1040F62441884201D10120704700205F
S31520252CE0704700000060CC4010800E4054820E4074
S31520252CF0D4820E4090800E40B8830E4074810E40BB
S31520252D00008013400040134000C013400000CC40F3
S31520252D10D4850E40C0830E407C810E4040840E40D3
S31520252D20FC810E4080969800005A62020840C040D9
S31520252D301000272000C9CA4070CCCA4000ED00E00B
S31520252D400400FA054C112520FFFF372000002020FE
S31520252D50640627200000FE1FFFFF0120D0C8CA4099
S31520252D60CC4241403342414860C9CA40F04241489D
S31520252D7000424148000000000040114000801140DB
S31520252D8000C011400000124000C0C2400000C340D0
S31520252D9010B511283FD8DFE800F0093E3E3E3E1FFC
S31520252DA0222426282A2C3E303436383AFFF78DFF22
S31520252DB0002819BF304800683049086800F0FF040C
S31520252DC0641CC0F3022002280EBF2D48002000F0E7
S31520252DD024F8B0FBF4F010BD4FF4004010BD0020C0
S31520252DE00CE003200AE0002004E0012002E0022076
S31520252DF000E00320BDE810402EE00220BDE810406B
S31520252E000BE0002004E0012002E0022000E0032060
S31520252E10BDE8104010E0002010BD20B1022804D0C6
S31520252E20032804D005E017487047174870471748E8
S31520252E3070470020704700000146002003290AD844
S31520252E40DFE801F00204060811487047114870474B
S31520252E5011487047114870470146002003290AD892
S31520252E60DFE801F0020406080D4870470D48704733
S31520252E700D4870470D4870478000CC400000CC4057
S31520252E800084D7178083902F00A4781F00389C1C98
S31520252E900018FB1480B86723007B9A1740DCB311F2
S31520252EA0D9399D27A5104B1E80DF1710002A7515A9
S31520252EB090F8400010F0040018BF0120704790F8C4
S31520252EC0400010F0010018BF012070472DE9FF476B
S31520252ED081460D4600F0B1F80426040018BF002DC2
S31520252EE000F08680287B042880F28280032801AE84
S31520252EF013D195F8400081070FD46A46022148460A
S31520252F00FFF774FA0098DFF80C1688420AD395F84D
S31520252F104000010606D4792001E04FF48070019007
S31520252F20706044E000274FF47A7805EB4700783027
S31520252F30417879BB00786421484323D1286C8009C0
S31520252F4000F0010A524603A94846FFF7FCFBBAF1D1
S31520252F50000F0BD10399DFF8C005B0FBF1F1490825
S31520252F6008FB01F14B20B1FBF0F112E00398DFF8C5
S31520252F70A815B1FBF0F0800808FB00F04B21B0FB2B
S31520252F80F1F106E04B22B0FBF2F14B234B43834272
S31520252F9000D2491C402928BF3F21490201F4FC4182
S31520252FA041F4807146F827107F1C022FBDD3206857
S31520252FB0400800F0010090F0010003D0216841F07F
S31520252FC00201216004F1C002296D002907BF696D20
S31520252FD00029019B1360A96D002907BFE96D0029EA
S31520252FE07168516018B1206820F002002060002603
S31520252FF0304604B0BDE8F08710B504460420002CE1
S3152025300018BF002A0FD073B1DFF80C05B0FBF2F0FC
S315202530104343B1FBF3F000E0401C00FB03F28A4258
S31520253020FAD32060002010BDD0F8E010CA07FBD5C2
S31520253030D0F8E0108A07FBD57047014600200329E2
S315202530403CBF0FF62C0050F8210070472DE9FE4F86
S315202530500E46002100918146FFF7EFFF04245FEA03
S31520253060000B18BF002E4BD006F15008002506F57B
S31520253070C87458F8040B0BEB850A800ACAF8600039
S31520253080707BB77B400107F01F0700F47870074354
S31520253090F07BC00200F4F040074396F84000010774
S315202530A0706F48BF47F4806768B101AA0221484658
S315202530B0FFF79CF9019A716F01236846FFF79CFF5C
S315202530C0009847EA0047CAF8707096F84700002806
S315202530D01EBF21784A0112F0E00F09D06078491EDB
S315202530E00002490300F4706001F46041084301E0C1
S315202530F04FF410606D1C042DCAF88000B9D3002426
S315202531002046BDE8FE8F042210B5002818BF0029C9
S315202531101ED040310A79012A0AD1C2680978520877
S31520253120520042F040024B0748BF42F00102C260DE
S31520253130C168DFF8E84341F02001C160002100EB9A
S315202531408102491C136A234007291362F7D30022DB
S31520253150104610BD78B5044689B0042031B3002524
S315202531608DF8005001260325039602958DF810200B
S31520253170019391F8470000281EBF01F5C4721078E7
S31520253180002803D053780293127803922046029D75
S31520253190039B01EB051606F18002012100F088F933
S315202531A0012202926946204600F0BEF90AB070BD7A
S315202531B02DE9F84F8EB080460D46FFF73EFF0424B5
S315202531C0060018BF002D00F06A81287C002804BF40
S315202531D0287F00281DBF296C090901F0010100213E
S315202531E08DF800102868CE49884240F058814046FF
S315202531F0FFF754FB29464046FFF74DF99DF8000079
S3152025320010B10022012106E02A6C05F1450092091C
S31520253210417802F001024046FFF7D2FA4046FFF7F1
S3152025322030FB306820F002003060316841F0010122
S3152025323031603068C107FCD44DF60F70326842F0F4
S3152025324002023260316895F845200140082A287BFC
S3152025325008BF41F40051000100F03000014341F040
S315202532607F4141F47F013160B06820F40040B06091
S3152025327095F84000C10703D5B06840F40020B0601A
S3152025328029463046FFF73FFF29464046FFF7DEFE13
S3152025329029464046FFF71AFE306820F002003060A6
S315202532A0B146316841F001013160D9F80000C107E6
S315202532B0FBD405F180020392287C00285FD005F1F6
S315202532C0500B2F460420464600255BF804ABBAF161
S315202532D0000F4DD03046FFF7B0FE00284FF00408EA
S315202532E042D0D0F80002C0F3012028B1787C0228EC
S315202532F008BF4FF0000837D001218DF8101005950D
S315202533000022787D06902B46397D07918DF8202041
S3152025331007F118010991CDF8288039463046FFF75F
S3152025332019FF03980699079B00EB011201213046C8
S3152025333000F0BEF80120069004A9304600F0F4F8E6
S315202533405FEA000810D1788A60B9797C022918BFEE
S31520253350032907D02B4600223946304600F0DDF9D1
S31520253360804601E000F09FF85FEA080002D1554427
S31520253370641EAAD10400B0463D4640F09080287FA1
S3152025338000286ED0042405F15001002704910194CC
S315202533900498001D049050F8041D029100295BD045
S315202533A04046FFF74AFE0424002852D001228DF8F4
S315202533B014202E46002206978DF824200B9482462B
S315202533C0002506EB850101F12002507800283CD006
S315202533D0DAF8000206EB050BC0F3012018B19BF89D
S315202533E01D00022831D05078079030311278089266
S315202533F00A913B46002231464046FFF7ABFE0400A4
S3152025340026D103980799089B00EB011201214046F6
S3152025341000F04EF80120079005A9404600F084F8D3
S31520253420040015D1708A28B99BF81D10022918BFCA
S31520253430032902D100F037F807E03B460022314622
S31520253440404600F06AF9040002D16D1C022DB8D938
S31520253450354624BB0298C7190199491E019197D152
S31520253460ECB99DF80000C8B1D9F8001041F0020149
S31520253470C9F8001005F145002A6C4178920902F019
S3152025348001024046FFF79CF929464046FFF71EFDD7
S31520253490D9F8000020F00200C9F8000000242046B3
S315202534A00FB0BDE8F08F642148430021FFF726B9E8
S315202534B02DE9F8430E4691461D46FFF7BEFD04002D
S315202534C018BFB9F1000F4FF0040821D0002700219D
S315202534D07019794100291BD8112819D22046FFF7C2
S315202534E0A3FD1048A0610221E161B10004EB810210
S315202534F0AE1902F5007204E059F8043B42F8043B64
S31520253500491CB1EB860FF7D3A061B8460120E061AF
S31520253510EBE0000000E1F50500CA9A3B00FEF0F835
S3152025352046434642F05AF05A2DE9F84307460D46BA
S31520253530FFF783FD040018BF002D4FF0040800F087
S31520253540D4802878042880F2D08095F810902046BB
S31520253550FFF76AFD384600F066F9606940F01E00DF
S31520253560606104F1A007686838600026287802285B
S3152025357008BFAE6902D0032801D12E6AB6B2A86843
S31520253580000400F470200643E868401E000600F07B
S31520253590E060064346EAC9767E602878032834D13A
S315202535A0EA69286A12F0030138D11C23BB61B9695F
S315202535B041F00101B961B969CB07FCD4396941F0DC
S315202535C00101396108B3402804F5807314D3616954
S315202535D089064FF0100C04D414E053F8041B42F846
S315202535E0041B5FEA0C01ACF1010CF6D1616941F0AF
S315202535F020014038616105E0396DC90001F4FF617C
S31520253600814227D261690B07DCD52878022818BF85
S31520253610012844D16A69A96912F0030065D11C23C2
S31520253620FB61F86940F00100F861F869C307FCD40D
S315202536300026002933DD6069400604F5C0732BD5A5
S3152025364040294FF0100C42D316E053F8041B42F8BC
S31520253650041B001F0428F8D240B119680091694639
S3152025366011F8013B02F8013B401EF9D16069CCE7F0
S3152025367052F8040B43F8040B5FEA0C00ACF1010C5D
S31520253680F6D1403926B9386940F00100386101263E
S31520253690606940F04000606160690307C9D52878D4
S315202536A018B9386940F0010038612046FFF7BCFC7F
S315202536B06069010717D5786CC0F303600E280CBF07
S315202536C041F6583841F659380FE043F8040B5FEA9E
S315202536D00C00ACF1010CD5D00029D2BF0020091F42
S315202536E052F8040BF1E74FF000084046BDE8F28377
S315202536F080B5FFF7A2FC18B1D0F8E0108A07FBD5D4
S3152025370001BD80B5FFF799FC30B1016841F0010173
S3152025371001600268D107FCD401BD2DE9F84F0029A7
S315202537208EB04FF0040979D001F170049246E689CE
S31520253730A5890693012203238DF8143002FA05F86C
S31520253740BAF1000F0892079202AD14BF082304236D
S315202537500C950D938DF824A091F84720002A1EBF9D
S3152025376001F5C2731A78002A03D05A7807921B7856
S31520253770089304900798089B01EB001501460498A9
S3152025378005F18002FFF794FE24685FEA040B18BF33
S315202537904FF0010B0025049805A9FFF7C5FE5FEA22
S315202537A000093BD1BAF1000F1AD001A96A4602AB0E
S315202537B0042013F8017B01F8017B401E13F8017BB9
S315202537C002F8017BF5D1002E0199009803D00140FE
S315202537D038EA010102E0014311EA08010F4608E013
S315202537E0002E029802D038EA000001E018EA0000EF
S315202537F0074618BF0127F8B210EA0B0F0BD0002D6C
S3152025380008BF002C0CD04FF47A700021FEF776FFE6
S31520253810641E65F10005FFB2002FBCD148463FE660
S3152025382041F65A39FAE780B5FFF707FC58B100214A
S3152025383000EB8102491CD2F8803043F0004304294D
S31520253840C2F88030F4D301BD38B50D46FFF7F5FB18
S3152025385004000BD0FFF7E8FB25B1206840F4006073
S31520253860206031BD216821F40061216031BD000031
S315202538700000000000C00C4000000D404001032937
S31520253880DFF86C2502D101211150704700231350F2
S3152025389070470321F2E70029016912BF41F0010192
S315202538A04908490001617047426A520801F0010121
S315202538B041EA4201416270470369520242EA0122E6
S315202538C01A4302617047120401F00F0102F4702297
S315202538D0114381657047000010B50146002000BFC1
S315202538E005A2C3B252F823308B4203D0401CC4B262
S315202538F0072CF6D3C0B210BD0000000000401140B1
S315202539000080114000C011400000124000C0C24076
S315202539100000C34010B50C46FFF7DEFFDFF8D414B0
S315202539200C5410BD7CB50D46002100910446164643
S31520253930FFF7D2FF00F084F801212046FFF7B4FFD8
S315202539406A7E297E204600F083F8616AEA7EDFF8C2
S31520253950A80492060140A87E02F080620006114343
S3152025396000F04070014361626B4629683246204645
S3152025397000F079F800F060F8697A287A00F056F890
S31520253980A87AC00500F4000001436868401EC0F3EC
S315202539900B0001430098C00600F060500143287EA5
S315202539A0000600F040700143216620460121FFF7DD
S315202539B072FFE96833460122204600F0A9F82969D5
S315202539C033460222204600F0A3F8696933460322AE
S315202539D0204600F09DF800212046FFF79BFF73BD6A
S315202539E010B504461C2100F07BFADFF8102422604E
S315202539F008230020636020726072A0722268DFF897
S31520253A000014B1FBF2F25200E26008462168B0FBB1
S31520253A10F1F1490021612168B0FBF1F1490000202F
S31520253A20616120766076A076E07610BD890701F063
S31520253A30804141EAC071704700220021204642E795
S31520253A4001A1085625E70000FF68696A6B0000007A
S31520253A5010B50831436A01248C40A34302FA01F1AB
S31520253A601943416210BD2DE9F04705468A46686A05
S31520253A70C00794461C4602D52969C80701D50020CA
S31520253A802EE04FF0FF300722FF234FF0000E0021B6
S31520253A900FF24448002618F80190B71C07FB09F9B0
S31520253AA0BCFBF9F9CA4507D3AAEB0907874203D2F6
S31520253AB038460A463346CE46761CFF2E02D800289F
S31520253AC0E9D104E0491C072901D80028E2D1286C30
S31520253AD0000A03F0FF0343EA00232B642260704685
S31520253AE0BDE8F087012A04D011D3032A0BD004D3AD
S31520253AF07047026C61F3174208E0026C22F07F4280
S31520253B0042EA016202E0026C61F30F2202647047E9
S31520253B102DE9FD4783B00E4603990FF2BC300A6E78
S31520253B20C2F3C261445C9DF81020B3FBF4F000215A
S31520253B300125CDE90001032A4FF0FF384FF0FF0A72
S31520253B400AD1DFF8844300F042F8DFF880033B21D1
S31520253B5000F0E6F9022508E0DFF8A44200F037F860
S31520253B60DFF86C033B2100F0DBF9C94501D8B442C7
S31520253B7007D39DF8102003980021FFF7B3FF204691
S31520253B8022E04446002702968046DDE9002378195F
S31520253B90DFF86C12A1FB000100F0C2F9494501D8D6
S31520253BA0B04205D3821BA24202D21446BA4680468B
S31520253BB07F1CFF2F01D8002CE7D19DF810200398D4
S31520253BC05146FFF78FFF404606B0BDE8F087DDE971
S31520253BD00023B4FBF0F4894670478368E3B1016876
S31520253BE0002904BF4168002916D0052A07D28068F6
S31520253BF0B0FBF2F102FB110272B90120704712F0D7
S31520253C00030F806802D09042F7D005E0B0FBF2F191
S31520253C1002FB1102002AF0D0002070472DE9F84F2B
S31520253C20054684B02C6EC4F30B040F46641CE11D97
S31520253C30C9080191FFF750FEDFF8B81111F8008069
S31520253C40019A21463846FFF7C8FF00285CD06869C7
S31520253C50C10148BF4FF4C87057D43C687868009096
S31520253C600122BE68B868029048EA082040EA084042
S31520253C70696840EA086B0120090A884003904FF0BD
S31520253C800009F8680709010D800D01F0010800F0EB
S31520253C90010A01212846FFF70FFEDFF83812696150
S31520253CA0009808B94FF4002900212846FFF7F3FD8F
S31520253CB0686A20F008006862686A00F094F818BFE0
S31520253CC0B0F1007F04D1E4B9686A40F0806068626B
S31520253CD001212846FFF7DFFD286E20F04E7040EAA9
S31520253CE048503F0649EA000007F0407707432F66EC
S31520253CF0019805280AD201A991F80090CDF80490BB
S31520253D000BE000980028E3D004204CE00421019103
S31520253D10894602E00097CDF808808EB30198864221
S31520253D203CBFF0B201900398E96D01F01F01814255
S31520253D30FAD003903CB101995246204600F062F80C
S31520253D40834601980444C5F864B001990098761AEB
S31520253D500028E2D0DDF808800746E86DC0F3044048
S31520253D600028D7D0C845696F38BF5FFA88F95346EA
S31520253D704A46384600F07EF84F44A8EB0908ECE77A
S31520253D80E86D039900F01F008842F9D0286E20F4AB
S31520253D9080102866009860B968694105FCD5686950
S31520253DA0C101FCD4002005B0BDE8F08F0094029611
S31520253DB0C14602980028F2D0009C0646C846E86DE2
S31520253DC0C0F304400028F1D04645696F38BF5FFA15
S31520253DD086F853464246204600F04CF84444A6EB46
S31520253DE00806ECE7606A00F04070B0F1807F7047E6
S31520253DF00060CC40F82D2720F7FFFFF820A10700EB
S31520253E0000CA9A3B30B50024491E032903462ED8DD
S31520253E10DFE801F002050E1A13F8014B27E05C783E
S31520253E201978002A14BF44EA012441EA04241EE015
S31520253E305C789D78197824021AB90C4344EA0544FE
S31520253E4015E044EA014411E0DD78997858781C7804
S31520253E5032B944EA002444EA014444EA056406E0EA
S31520253E602246040444EA026444EA01242C432046DB
S31520253E7030BD000030B50C0C0D0A521E032A21D860
S31520253E80DFE802F002050C1500F8011B30BD13B939
S31520253E900170457030BD0570417030BD1BB901706C
S31520253EA04570847030BD04704570817030BD0A0E12
S31520253EB023B9017045708470C27030BD027044707C
S31520253EC08570C17030BD00000094357700CA64D650
S31520253ED00000CA9A033F00010102040810204080F1
S31520253EE0002200F0A5B830B4002513E050F8042BA5
S31520253EF0D30744BFA9F101039A18091F042942F8BB
S31520253F00045BFAD213468C0744BF15809B1CC90730
S31520253F1048BF1D7050F8041B0029E7D130BC7047D7
S31520253F20D3BBD9B1B2F5803F5BD2022A1ED98C46A6
S31520253F30B1FBF2F102FB11C31B0443EA1043B3FB89
S31520253F40F2FC02FB1C3380B240EA0343B3FBF2F0BA
S31520253F5002FB103240EA0C4000237047022A05D97D
S31520253F608446B0FBF2F002FB10C270474AB105D158
S31520253F7000F0010249085FEA30007047002200233D
S31520253F80704700F06FB80B00020000210020704713
S31520253F90F7D3002200237047904271EB030CF2D30E
S31520253FA070B5B1FA81F4B3FA83F52C1BA340C4F17D
S31520253FB0200532FA05F63343A2405FF00046E64057
S31520253FC002E05B085FEA3202841A71EB030524BFFF
S31520253FD0204629467641F4D302000B0030000021E5
S31520253FE070BD70B5B1FA81F4B2FA82F5C4F1200418
S31520253FF06419B4F12006DAD3B2405FF00044F440C8
S31520254000002502E052085FEA3303C61A71EB020E39
S3152025401024BF3046714664416D41F3D302000B001F
S315202540202000290070BD000062F30F2262F31F4293
S3152025403000B500BF130096469446103928BFA0E840
S315202540400C50FAD85FEA417C28BF0CC048BF40F8FF
S31520254050042BC90728BF20F8022B48BF00F8012BBF
S3152025406000BD000070470000DFF8A0180A69D16856
S315202540700020086070477CB5DFF89068F069002439
S315202540808DF800404569002D4DD03169C9680A68EB
S31520254090012A37D001F108026C680DF10203091DAA
S315202540A0A04704001FBF42F21270844242F21371C8
S315202540B08C4238D1BDF802004FF2F001884232D128
S315202540C03069C268916800292DD0546823781D004F
S315202540D007D0162B05DA806800EBC305A5F1080065
S315202540E000E00020106300281CBF0268002A03D0A8
S315202540F020469047002412E042F21074194600F01B
S31520254100EEFA10E0086B58B1416811B16846884728
S3152025411004460CB1002003E09DF8000000B10120E3
S315202541203169CA681060204676BD80B501780020A1
S3152025413000F004FBDFF8D417C86941690A6990475E
S31520254140022000F0FFFBBFF34F8FDFF8C417DFF8FF
S31520254150C4070A6802F4E06202430A60BFF34F8F60
S3152025416000BFFDE7DFF8A4070269D06824210C30BB
S31520254170FFF7B6BE10B50446606809380AD0F73869
S315202541800ED0401E09D00F380DD0103811D0401E24
S315202541900CD011E000F071FE0FE001F0DDFA0CE005
S315202541A001F0B1FF09E002F0F5FA06E002F0C4FDC0
S315202541B003E003F0B8F800E0042040E070B5DFF80E
S315202541C04C371D68EE690446E268A1686068B047E9
S315202541D01DE210B500F0C7F8DFF830070169C86879
S315202541E061680161082280F820200020217800F0CE
S315202541F0A5FABDE8104003F0FBBA7CB5DFF80C47DD
S31520254200E5680022019200926B4681684068AE6877
S3152025421001AAC0B2B0472269D36800211961009A44
S315202542200199920800F094FA73BD10B5DFF8DC26C3
S31520254230D368DA6804466068A168C0B290472178B9
S31520254240BDE810407AE21CB5044604206168092998
S3152025425003D1A06800F01FFC13E0C1F30321012937
S315202542600FD16068694603F0ACFC50B9DFF89C167F
S315202542708A68009BA06814214B43D1180A691169C5
S315202542808847217800F05AFA13BD10B500F06BF84F
S3152025429000F060F8042200F057F8D0E77CB5DFF867
S315202542A06C66DFF874460546FFF75CFF3169CA68F8
S315202542B0132082F8200000203169CA6882F821005F
S315202542C0E868A8B9A86821280DD2206069686160A8
S315202542D03269D168086104F108004861012281F814
S315202542E02120002000E00420297800F027FA73BD3C
S315202542F0012818D101A90020009101906268216822
S3152025430004F1280304F1080003F03BFE48B931697E
S31520254310C968019A0A6104F1280302224B6181F8B2
S315202543202120019901E00021042000F02CFA73BDFB
S3152025433010B500F018F800F00DF8032200F004F867
S31520254340A168BDE8104031E26168416180F82020EE
S3152025435000207047DFF8B4050169C868E1688161E6
S31520254360A268026170470446FCE638B5DFF89C55FD
S3152025437004462869C06800214161016190F8200022
S31520254380042804D129684869804704B90446002CA5
S3152025439001BF2869C16891F82000152811D14A6ADC
S315202543A0DFF87805012A04D18A6AC96A03F0FBFF5A
S315202543B006E0052A05D14FF49E61103004F0A4F8B5
S315202543C0044628688169884704B904462869C1684E
S315202543D091F8201000F083F942F21270844201BF31
S315202543E02969C86890F82010082903D1BDE83140ED
S315202543F003F041BA31BDDFF814150A69D16891F861
S315202544002110012908BF00F008B8022908BF00F0AD
S315202544107FB800210170002070472DE9FE4300F06A
S31520254420E7F820B900213170FFF79FFF6DE00120C5
S315202544303070D1F818900D69D1F81480002000909D
S3152025444002ABF8694469D4F804C06A4601A9E04755
S31520254450040002BFBDF808004AF6AA21884205D0E5
S31520254460F8694169CA689047204603E0009830B923
S3152025447042F21270FFF779FF0020307046E0A842FD
S3152025448088BF284639690090C86890F820100829E1
S3152025449012D10199C160009AC2610099019803F051
S315202544A0B1F9044642F27D7084421CBF42F27471F2
S315202544B08C4217D1002415E0132918BF152940460B
S315202544C006D1009A019904F06DF80098804409E0F8
S315202544D03C68019A0099D4F80CC04B46E0470099D0
S315202544E00446884400982D1A04D04CB1F8694169B0
S315202544F0CA6890472046FFF738FF0020307004E031
S315202545003969C9680D61C1F814800020BDE8FE838C
S315202545102DE9FE4F00F06CF820B900213170FFF708
S3152025452024FF62E0012030704AF6AA298A69DFF83D
S31520254530F0A301920D694C69C8680090F86991F835
S3152025454020B041694A6990478046A845009888BF8A
S31520254550A846B0B142460146504604F023F8F869EC
S31520254560D0F814C0A5EB08054246DCF808804B4652
S315202545705146C04705B1A0B3FFF7F7FE002030709E
S3152025458033E0BBF1030F19D1D7F800C0019BDCF826
S3152025459004B0524641462046D8475FEA000B44449C
S315202545A0DDD0F8694469A5684B4600225146A847BF
S315202545B05846FFF7DAFE0020307017E0BBF1130FBF
S315202545C0214605D14246504603F0ECFF4444C6E732
S315202545D03869C26892F8200015284444BFD142463E
S315202545E0BAE73869C068056144610020BDE8FE8FB9
S315202545F0C64F06463869C1680869704770B5C34BEA
S315202546001D682E690446E268A1686068B04721784E
S31520254610BDE8704092E02DE9F0410546C14F6E6810
S31520254620D5F80880E8683860002418B104F000F829
S3152025463000B90424304603F0E4FF00B9042400F031
S315202546404DF89CB97E60002000F07CF9C7F80880DB
S31520254650386818B180F3088880F309887968404638
S315202546608847BDE8F041002000F06CB9BDE8F0810F
S3152025467038B50446606803F0C4FF08B9042005E070
S315202546806568012000F05EF9A068A8472178BDE875
S31520254690344053E0F8B5054604F01BF8A24EAB6826
S315202546A0696805F10C02304604F028F8040010D17B
S315202546B0EF6800200090AB6869686A46304604F0AA
S315202546C05FF8040005D100983840874218BF44F684
S315202546D0E96404F004F800F001F8F1BD29782046B4
S315202546E02CE03EB50021CDE90011044603F0F1FF6B
S315202546F0A36861688C486A4604F042F8054603F0AB
S31520254700EEFFA2686946284600F055F837BD10B554
S31520254710FFF729FE7D480169C968A2680A6110222A
S3152025472063684B6181F820200069C268E16882F8B8
S3152025473021100020A168BDE8104066E03EB5002383
S3152025474002918DF801308DF802300190A0221EE0CD
S3152025475038B5002488B0A7238DF801400190541C34
S315202547608DF8034000258DF800308DF80250002065
S315202547706C4605E051F8203004EB8005401CAB60E3
S315202547809042F7D333E03EB500F044F8B3225F4993
S31520254790C8698DF8002002238DF803304FF2F003E7
S315202547A04469A5680C226946A84737BD3EB500F061
S315202547B031F8A322EBE738B5002488B0AF238DF84E
S315202547C00140002502248DF800308DF802508DF801
S315202547D00340019050B99DF80330029203EB9204D1
S315202547E08DF8034003A803F0DDFE00E00295474837
S315202547F0C06944699DF80320A56892004FF2F0030D
S31520254800121D6946A84709B030BD3EB500F002F80D
S31520254810B022BCE7002401238DF8024002918DF8B1
S315202548200130019070470000FEB50546374E696870
S3152025483032693A4F0024019400940020D368062932
S3152025484083F8210060D8DFE801F0040A2A2F3337C0
S315202548504B0003F084FD2978FFF770FFF7BDE86844
S31520254860112807D304243069C1680969204600F038
S3152025487063F8F7BDFFF776FC00F058F8012230697A
S31520254880C068E9680161476180F821203069C068E0
S3152025489069684162AA688262E968C162E3E7AA6813
S315202548A0E96803F080FDD6E7A86803F0D4FDD2E7B2
S315202548B0A86803F0E9FDCEE7FFF754FC00F036F8AB
S315202548C04FF49E613069C068016107F1100201210C
S315202548D0426180F821103169CA6868685062C2E74A
S315202548E0FFF740FC694601A803F0F8FD0400BAD17C
S315202548F000F01CF83069C068009901610221019AEF
S31520254900426180F82110AEE70420A4E71000272075
S315202549100CED00E00400FA05642D272064282720C5
S3152025492068242720E42D272000C0CA403169CA687B
S31520254930152082F8200070473EB5FFF76BFFB5227C
S3152025494025E7000070B5012804461DD00025114E07
S3152025495005E07018C168896801B188476D1C182142
S31520254960694370580028F4D174B903F0B2FEFCF7D8
S315202549705AFF03F07FFF0849002008600120FDF734
S31520254980A8FBFEF780F962B6BFF36F8FBFF34F8F73
S3152025499070BD00BF1C14252008ED00E0BFF34F8F06
S315202549A0DFF8802502E01060203920300129FADA47
S315202549B0BFF34F8FBFF36F8F704730B5DFF868355C
S315202549C01A7812B942F2DD7030BD0FF28052D3F833
S315202549D0183452F82350DFF8544514225543635989
S315202549E0C0180860002030BD10B5DFF83C350FF221
S315202549F05C52D3F8184452F82430DFF830151422A7
S31520254A005343C958401A10BD10B5002937D0DFF8B1
S31520254A10182502F5836302F2DC5460B1012813D0F0
S31520254A2002281DD0032820D0042820D0052820D0D0
S31520254A30102821D023E01078002814BF002042F228
S31520254A40DD700860002010BD0FF200501B6850F85D
S31520254A502340DFF8D8241420444312590A60F1E76D
S31520254A6000F00FF8A40A0C60ECE72268F6E76068E8
S31520254A70E7E7206918B1E4E700F003F8F3E7042017
S31520254A8010BD5C6D986DDA6D0419186E141904190C
S31520254A907047012070472DE9F04FADF5017D05467C
S31520254AA003F0AFFD00284FF0040922D005F2FF10B0
S31520254AB003F0A7FD00281CD02868DFF86CA4014642
S31520254AC00B0D40F6F947BB422A460AF5836611D1D6
S31520254AD0C1F3130000280CDD04280AD23268C1F35D
S31520254AE01301914203D0306000208AF800004FF050
S31520254AF00009DCE01427090F0C290FF25048DFF8AE
S31520254B002C441CD130680AF21C4104F033FB5FEAA1
S31520254B100009EED100208AF800000AF21C413068EF
S31520254B2003F0C2FE5FEA0009E3D13068FEF7E9FD0E
S31520254B3069461020FFF768FF002878D0B6E0DFF811
S31520254B40F023904207D14FF4007229460AF21C40E1
S31520254B5003F028FDDEE7DFF8DC138842C9D19AF871
S31520254B6000000028C5D00AF21C40FEF7A1F90090C6
S31520254B700AF21C4B0AF2DC55D8B1D9464FF40072FD
S31520254B80494601A803F00EFD706C20F004007064E0
S31520254B900DF1040B296849082960494668684008AB
S31520254BA06860286940082861306803F07DFE002862
S31520254BB071D1306858F820207A434FF40071A058D7
S31520254BC000F5806003F04CF8002860D0A87A98B1CB
S31520254BD0002001AB0AEB000101F21C410DF104096D
S31520254BE04A781A548144097889F80110801CB0F531
S31520254BF0007FEFD30DF1040B306858F820307B4326
S31520254C005A46E0584FF4007100F5806000F05FF8B1
S31520254C105FEA00092BD0306858F8202057434FF4F7
S31520254C200071E05900F5806000F06BF931E03068BD
S31520254C3058F820100FF208334F43E11901228A60D4
S31520254C4053F820200A6000988218521E4A600121B6
S31520254C50A1650098216DB0F1806F88BF4FF08060E7
S31520254C604018401E606501208AF800001FE000F0EC
S31520254C7092F85FEA00090CD0306858F82020696838
S31520254C805743E05900F5806000F0CBF801E042F269
S31520254C90DB79009858B1A84C4FF400725946204626
S31520254CA003F080FC3068214603F0FEFD8146484608
S31520254CB00DF5017DBDE8F08F10B59B4C237813B9F2
S31520254CC042F2DD7010BDBDE8104005F0D1BB2DE9BF
S31520254CD0F843954F054638780C46914618B942F241
S31520254CE0DD70BDE8F28384B3787868B9D7F8DC051A
S31520254CF0401E054202D044F68960F2E701200021B4
S31520254D007870B9607D6004E0B86879680818A8428B
S31520254D1016D1B868D7F8DC852118414534BF2646F3
S31520254D20A8EB0006384432464946103003F03AFCB3
S31520254D30B8687519A41B30184045B860B144D2D13E
S31520254D4000F029F80028CED0CBE70020C9E776B594
S31520254D500D4675490646087810B942F2DD7076BDAE
S31520254D60AC08A40005F0030507E001AA0421304676
S31520254D70FFF7ADFF60B9361D241F002CF5D12DB1C7
S31520254D8001AA29463046FFF7A2FF08B900F003F805
S31520254D9076BD02F065BF38B5634D687800240028B6
S31520254DA03DD06C70A868D5F8DC45A04206D0211ADE
S31520254DB005F11003FF22184405F072FB6868214689
S31520254DC0FFF7E7FF10B942F2DB7032BD6C6803F0BE
S31520254DD080FC2046FFF708FE0246D5F8180405F183
S31520254DE0100305F21C4103F011FE044603F077FC5F
S31520254DF000206870A86094B900F03BF804D5D5F852
S31520254E00DC156868FFF7CAFDD5F8DC25686805F145
S31520254E10100105F04FFB10B144F68A6032BD2046BD
S31520254E2032BD70B5404A0446107810B942F2DD707D
S31520254E3070BDD2F8E055684200EA04060C19644292
S31520254E4004406442A41B2146304600F05AF878B91E
S31520254E5000F00FF803D529463046FFF79FFD21465A
S31520254E603046FFF796FF10B944F68A6070BD0020BC
S31520254E7070BD32480168CA037047E0B52A4A1078C2
S31520254E8010B942F2DD700EBDD2F8180402F21C418B
S31520254E9003F008FEC8B901A90120FFF7B5FDA0B981
S31520254EA069461020FFF7B0FD78B9FFF7E2FF03D555
S31520254EB000990198FFF772FD0099019802F0D0FE1E
S31520254EC010B944F68A600EBD00200EBD002070471D
S31520254ED010B500F00BF8BDE81040C01AF7E610B55E
S31520254EE000F004F8BDE81040C01A30E70F4BDC6B04
S31520254EF01B6D201870470D4AD36B126D1818801A12
S31520254F008FE738B50C46FFF76FFD0246064DD5F8D7
S31520254F101804234605F21C4101B0BDE8304005F0B2
S31520254F206EB900005CEF00E04800272064062720A4
S31520254F30464346420F0000F06404272014ED00E086
S31520254F400000000000000030000000600000000086
S31520254F5003000000050000002DE9FE43DFF8304C54
S31520254F6001206060FDF728FE022849D142F2301043
S31520254F702518284605F0C2FA00285BD1284600F0D8
S31520254F809EFD002856D1694601A805F0A3FA009E64
S31520254F90DDF804800027B94601E07F1CB144B8B26C
S31520254FA040452DD204F111024FF48061484600F088
S31520254FB036FD002802BFD4F81500DFF8D81B884215
S31520254FC004BFD4F819000128E7D14FF4806104F1F4
S31520254FD0110000F08DFD0028DFD042F23000261882
S31520254FE04FF4806204F11101304603F0DBFA28469E
S31520254FF000F065FDF0B9304600F0A3FC10B119E0AC
S31520255000012017E00120207002A940F2011002F0AC
S31520255010D8FD78B9029ADFF8801B42F2F0231420B6
S315202550204243E01811440468CC60C2698068424333
S315202550308A600020BDE8FE832DE9FE4F042405461F
S3152025504003F0DFFA00282E4605D006F2FF36304635
S3152025505003F0D7FA002800F0A4812A68DFF8306B00
S31520255060DFF830AB42F22801100F771842F2F023F1
S315202550700C2842F2700806EB03094FF4806B40F0AA
S31520255080CC80002D14D002F00F02D21E082A4CD235
S3152025509042F2300059463044FEF722FF686803F075
S315202550A0B0FA002804D06868083003F0AAFA002848
S315202550B078D06A681068010F0C290ED1C0F30350E9
S315202550C018B11068C0F30350706042F230103118C1
S315202550D0706805F019FD040064D12868C0F3032003
S315202550E000281CBF01280020B060286800F00F0189
S315202550F0A1F1020CBCF1080F54D8C0F30352032AA0
S31520255100C0F303600CD8DFE802F009070402202249
S3152025511008E04FF4807205E0802203E0402201E07A
S31520255120202A3FD300283DD005283BD23A837883B1
S31520255130C7F80CA00121396112FB00F37B610146DA
S31520255140C7F81CC000200EE005F1080A06EBC00EA4
S315202551503AF820B05C43C64403FB0BF3CEF8043063
S31520255160CEF80040401C604513D2D9F8083005EB0F
S31520255170800430B9B2FBF3FE01FB0EFE4FEA4E0E3C
S3152025518004E0B4F806E0B4F804A0D644648974454E
S31520255190DAD242F234004FF47F71304400F0B5FC68
S315202551A0B8600024002C07D10020307042F230113F
S315202551B0701800F084FC040040F0F380DFF8DC59F9
S315202551C0284600F0BEFBC8B1DFF8D449FF224FF4AC
S315202551D084612046FEF728FFDFF8C8096060012193
S315202551E00020A160206140F21C41201D00F08DFC8D
S315202551F02060284600F0D2FB040075D17D8B3C8BA0
S31520255200D9F8081005FB04F0B0FBF1F14FF0000AA0
S3152025521044F629680091D3466AE0696851450FD13D
S315202552205946284600F064FC00285DD000203070C1
S3152025523042F230035A462946F01803F0B3F9B5E76A
S315202552400B2851D10420002D1CBF317800294AD0A6
S31520255250C2F3036101290DD0002944D1284605F042
S31520255260C3FD10B1002139703DE0AA687A6001237B
S315202552703B7038E03978B1B3297801F00F01082938
S3152025528031D206EBC100404469464468D9F800501E
S315202552907E68D0F8008001A805F0DFFD05FB0868AB
S315202552A008BB00983618B6FBF5F0844238BF42F283
S315202552B0D87018D3681E18EA000F18BF42F2DE7080
S315202552C011D1B8FBF5F40121204600F019FB10B9C0
S315202552D042F2DB7007E0019A0099204600F0BBFBDD
S315202552E008B900F0CBF904465BE00AF1010AA3448C
S315202552F0AA4538D242F23000371806F111024FF46A
S315202553008061584600F08BFB40B94FF480623946C0
S3152025531006F1110005F0CEF80028E6D0DDF800A02C
S315202553204FF0000B04E0584600F0DAFB0BF1010B99
S31520255330D345F8D34FF0000AD346AA4515D23A4687
S315202553404FF48061584600F086FB00280FBF4FF0AA
S315202553500008D9F80800BBFBF0F000F0C1FB0AF1E4
S31520255360010AA344E9E74FF000085FEA080418D1AB
S3152025537001203070694640F2011002F022FC04001B
S315202553800FD10099DFF81028D9F800301420414391
S3152025539055180832EB60D9F81C60D9F80800464321
S315202553A056502046BDE8FE8F2DE9FE4F9246042510
S315202553B0BAF1000F0346894605D0DFF8D467307841
S315202553C010B942F2DD7580E042F2F0203718B06838
S315202553D03968019101281AD1307C50B9F869834260
S315202553E073D2F3600121B8683174434300240093B6
S315202553F014E0F068BA68424301FB02331B1A019870
S31520255400B3FBF1F100FB11331C46009106E008465B
S31520255410B3FBF0F001FB10331C460090684600F0E4
S31520255420A8FB41F2110812E006F1110001192A46BE
S31520255430504603F0B7F801992C198C42A9EB05099A
S31520255440AA4403D3641A0099491C00910025B9F171
S31520255450000F0CD136E0084600F068FBF8B142F281
S3152025546024003158491C315000985844009041F267
S3152025547014050099725916F808008A4200D138BBBE
S31520255480D7F808B0B1FBFBF118B1B2FBFBF081428E
S3152025549005D0F8698142DED342F2D87513E0002083
S315202554A006F8080006F11102DDF800B039685846DD
S315202554B000F0B5FA20B9012106F8081046F805B0FE
S315202554C0050005D00DB1002030742846BDE8FE8F95
S315202554D0019809EB040188422CBF4D46051BA3E7FD
S315202554E02DE9F84F93460424BBF1000F05D0DFF8AC
S315202554F0A0763A7812B942F2DD749CE042F2F02287
S31520255500064642F21803B868BA58FD18012890466F
S31520255510894642D1387CA0B9DFF88C06C1698E42EE
S31520255520EBD200222A7001233B74FE6092468068C6
S3152025553046433146DFF87406009608FB0191016043
S3152025554031E042F2F0213944F8688B68DFF85C16A1
S31520255550434302FB0362121AB2FBF8F0009008FBC4
S31520255560102A0868824213D0287818B100F054F9F9
S3152025557004005ED1012042F2F02238743A44FE60BE
S315202555803146906841434FF0000A009108FB01F20D
S31520255590DFF818064A44026005E0B6FBF8F008FB5A
S315202555A01066B24600900098A96D884243D3684676
S315202555B000F0DFFA24E00020686001200099A96028
S315202555C0287009EB0A00804534BFA8EB0A044C460F
S315202555D007EB0A0041F2180322465946184402F0E1
S315202555E0E1FF6868A2442018C2456860A9EB040932
S315202555F0A34404D30098401CAAEB080A0090002453
S31520255600B9F1000F06D113E0E868401CE860009840
S3152025561036180096A96800982C7881420ED16CB14F
S3152025562068685045CDD000F0F7F80028F2D004461A
S315202556300CB1002038742046BDE8F28F42F2F022C4
S315202556403A449668B0FBF6F01CB1B1FBF6F18842D8
S315202556500AD0D169884202D342F2D874E9E700F00C
S3152025566065FA0028D0D11CB100F0D6F80400DFD188
S31520255670BAF1000F9FD044F62A64DAE7DFF8302501
S3152025568011780020002918BF00F0C6B8704738B514
S31520255690DFF8FC446178002021B142F23000204415
S315202556A000F07CF942F2180141F21105214400222D
S315202556B062550A70CA60227432BD2DE9F843DFF897
S315202556C0D0740D463978042411B942F2DD7432E0BE
S315202556D00DB900242FE042F2F0213944BB68CE696A
S315202556E08A68012B08BF81460DD00968B0FBF1F8E1
S315202556F02818401EB0FBF1F0B8FBF2F9B0FBF2F505
S31520255700A5EB09056D1C42F270017858B0FBF2F025
S31520255710814507D20FE0484600F0D0F904000DD187
S315202557206D1EC14675B9787828B142F230017818B0
S3152025573000F034F904462046BDE8F283484600F0B9
S3152025574006FAC146B145EED2484600F0EFF90028C3
S3152025575009F10108DFD0F4E770B5DFF83444207865
S3152025576010B942F2DD7070BD42F20C300025265864
S3152025577000E06D1CB5420AD2284600F0D7F900284C
S31520255780F7D1284600F0ACF90028F2D070BD607814
S3152025579028B142F23001601800F000F900B9002046
S315202557A070BD10B500292DD0DFF8E42342F2F02371
S315202557B0134402F5065450B1012811D0022811D0E0
S315202557C0032814D0052815D0102818D01AE01078CB
S315202557D0002814BF002042F2DD700860002010BD8D
S315202557E00020FAE700F010F8DB0A0B60F6E71A68C6
S315202557F00A60F3E71C68986844430C60EEE700F0DE
S3152025580003F8F2E7042010BD23686068A268C31850
S31520255810E068D318C31870472DE9F84FDFF8704391
S3152025582042F2180042F2F021251866186A68306877
S3152025583082421CBF00212174002028700121D5F821
S3152025584008A0504600F05CF842F2DB7890B341F28E
S31520255850180022186968504600F0FDF800284DD01A
S31520255860B068BAFBF0F7384600F071F9E868401CB5
S31520255870E8607F1CF069009006E0384600F067F95D
S31520255880E868401C7F1CE8600098874234D2384659
S3152025589000F04CF90028F3D1B068BAFBF0FB00FBE9
S315202558A00BFB00FB07F9AAEB0B01491C484600F028
S315202558B027F828B9404621E00BF1010B09F101090A
S315202558C03168D3450ED204F11102584600F0A7F8C7
S315202558D070B9316804F11102484600F0BCF8002859
S315202558E0EAD005E041F218002218484600F0B3F820
S315202558F020B14045C1D101E042F2D870BDE8F28FF2
S31520255900F8B50646A24D42F2F0200C462F5800E067
S31520255910641EA4B105F111023946304600F07FF800
S31520255920761C50B905F1110100E0001DB842EFD2D1
S3152025593051F8042B12F1010FF7D00020F2BD0120DA
S31520255940F2BD2DE9F041964C00216160458A068AF3
S31520255950D0F80C80002701E07F1CB044B8B2A842BD
S3152025596019D2082817DA22464FF48461404600F0DA
S3152025597056F8002802BF60688A49884204BFA06875
S315202559800128E9D14FF48461204600F0B1F800289A
S31520255990E2D0002000E00120BDE8F0812DE9F84F76
S315202559A08146B9F81280B9F810A0D9F8C802D9F8D5
S315202559B00C2008FB0AF144F62966B1FBF0F7B2FB69
S315202559C0F0F4002503E0001900F08AF86D1CA8B232
S315202559D0B842F8D3724F40F21C41381D00F095F895
S315202559E038600025D9F80CB0694C12E06070002685
S315202559F00DE03A464FF48461584600F02CF80028ED
S31520255A00F4D0D9F8C802BBFBF0F000F069F86D1C7C
S31520255A10D344A8B24045ECD33046BDE8F28F2DE9D4
S31520255A20F84305460C46164642F2F029DFF86081F2
S31520255A3002E0F619E41B6D1C5CB158F80970A742E3
S31520255A4028BF274632463946284600F03DF8002805
S31520255A50EFD0BDE8F2832DE9FC4781460D469246D7
S31520255A6042F2F0274A4E13E006F111022146484616
S31520255A7000F02AF85FEA00081DD1224606F1110119
S31520255A80504604F017FDA0B9A2442D1B09F10109A2
S31520255A908DB1F459AC4228BF2C4642F230100094E1
S31520255AA03118706853464A4604F091FF0028DBD00A
S31520255AB002E0012000E04046BDE8F68710E00146D9
S31520255AC03348406804F068BE1CB51346009102464B
S31520255AD02F4C606842F23011214404F06FFE16BD2A
S31520255AE002462B4842F230110144406804F00EBF8D
S31520255AF010B50446091F201D00F007F821688842A5
S31520255B0001D1012010BD002010BD3EB504460D460D
S31520255B1001A805F0C1F92A46214601A805F0C2F9B2
S31520255B20694601A805F0D3F900983EBD10B5002198
S31520255B301B4A00E0491C1369994206D202EB8104CF
S31520255B40236A8342F6D1012010BD002010BD1449B9
S31520255B500A69B2F5807F0AD201EB820210620869B2
S31520255B60401C086101210A48417000207047012008
S31520255B70704730B50649026842F2240342F2F825D9
S31520255B80CC58495901FB04220260002030BD000073
S31520255B90A89827204243464EF0062720D8B8272006
S31520255BA0D8BC27205442424498BB2720F8C027201A
S31520255BB0C0B827203EB5FCF7FFFF202801D00120BD
S31520255BC03EBD00F0F5FCDFF86C4A44F21810251886
S31520255BD0284605F07CFA70BB284605F0DBFD50BB30
S31520255BE0694601A805F08AF9009B019A0021002023
S31520255BF000F0EFFBF8B944F218004FF48062A11C9F
S31520255C00204402F0CFFC284605F0C4FD98B944F27D
S31520255C1024002158009B019A012000F0DAFB50B977
S31520255C204FF48462A11CDFF8100A02F0BBFC012088
S31520255C30207000F0D6FC3EBD2DE9F047074602F040
S31520255C40E0FC3C4628B104F2FF34204602F0D9FC7C
S31520255C5008B904200BE1DFF8DC5944F2240044F28C
S31520255C6018112E1805EB01093946002000F096FB60
S31520255C7090B30020287044F218034FF480623946E9
S31520255C80E81802F08FFC484605F084FD0028E1D16E
S31520255C90B388F2883168DFF8A049012000F099FB06
S31520255CA000284FF4846700F0D480FF223946204609
S31520255CB0FEF7BAF9DFF88409606001210020A1608A
S31520255CC0206140F21C41201D00F061FC206000F07F
S31520255CD043FA0028BED1C1E03868000F0D2840F0D0
S31520255CE0B58078683A6810F00F0F14BF00F00F08BA
S31520255CF04FF00108C0F3034000281ABF7868C0F387
S31520255D00034401243868C0F301204FF4807100280C
S31520255D101DBF3868C0F301200002084622F44072D0
S31520255D20104338607868C0F30720002803D07868A8
S31520255D30C0F307210902786820F47F400143796062
S31520255D40397811F00701D8BF45F2E42074DD092CF6
S31520255D5028BF45F2E5206FD20020287000F028FCC8
S31520255D60484605F0B4F9002834D144F26A1028446F
S31520255D700021817244F22112A9180623CB70002214
S31520255D80C2720A703B7803F0070303703A68C2F3A0
S31520255D90C002CA753A68C2F30212521C42703A688A
S31520255DA0120AD30003F018030B7644F248123968F9
S31520255DB0090B01F00701A9543968090C01F00101E5
S31520255DC0C1703968490C01F001010171484605F079
S31520255DD0E1FC00284BD144F2C01E796855F80E0007
S31520255DE0C1F30722C1F3072A00FB02F918FB0AFA99
S31520255DF04FEA4A0A0020BC4623460FE005EBC0029F
S31520255E0044F2580422440F8955F80E4067435760BB
S31520255E10498955F80E4061431160401C98420CD2A1
S31520255E200CEB800118B1CA888C8804EB020A4A89B2
S31520255E305245E3D245F2E62019E0A6F80490A6F8C5
S31520255E40068009FB08F03060B36021E745F2E020A3
S31520255E500DE03A46A91C204602F0A4FB002000F0BE
S31520255E60E6FA20B901202870BDE8F047B9E3BDE858
S31520255E70F0872DE9F84F5FEA0208DFF8B86744F284
S31520255E80B81206EB020705463B680093B5FBF3F9E6
S31520255E9003FB195508BF04205AD0327812B942F28D
S31520255EA0DD7055E044F21403BA68F45802FB0499D0
S31520255EB00C4610E0B01C41195246404602F072FBB2
S31520255EC0009A5544954224BFAD1A09F10109A4EB40
S31520255ED00A04D0440020002C42F2040A0AD137E0D5
S31520255EE0484600F03FFBF0B144F21400D94431581E
S31520255EF0491C315042F2020056F80A10305C4945B9
S31520255F0000D138BBD7F808B0B9FBFBF218B1B1FBE5
S31520255F10FBF0824207D0F868396948438242DFD3AD
S31520255F2042F2D87014E042F2020B002006F80B004C
S31520255F3044F2181C3B68B21C494606EB0C0005F0BA
S31520255F40D7FD20B9012106F80B1046F80A9008B18D
S31520255F50BDE8F28F6119009888422CBFA246A0EB96
S31520255F60050AA7E72DE9F84F5FEA0208DFF8C456A8
S31520255F7044F2B8120746AB580093B7FBF3F903FB57
S31520255F80197708BF04204DD02A7812B942F2DD7040
S31520255F9048E044F20802AE18336D994538BF45F2DC
S31520255FA0E3203FD344F2B8142C19F368A26802FBE8
S31520255FB003998A4622E000207060C6F808900121C0
S31520255FC031700AEB07020098904234BFC41B544611
S31520255FD0E81942F2080322464146184402F0E2FA1D
S31520255FE0706820187060E71900998F4224BF7F1AA0
S31520255FF009F10109AAEB040AA0440020BAF1000FF1
S3152025600004D10FE0F068401CF060D944B06834789C
S31520256010484509D144B17068B842D2D000F006F976
S315202560200028F3D0BDE8F28F44F2B8116A18D2F8C9
S3152025603008B0B9FBFBF11CB1B0FBFBF081420DD0BA
S31520256040D06812695043814202D342F2D870E9E7DB
S31520256050484600F087FA0028D4D11CB100F0E6F88E
S315202560600028DFD1002FA6D045F2D120DAE72DE969
S31520256070F047DFF8C07544F2B812BC182669E368E4
S315202560803A785E4312B942F2DD702AE009B900203A
S3152025609027E02368A268B0FBF3F50818401E44F2D2
S315202560A05801B5FBF2FAB0FBF3F0B0FBF2F57B58BD
S315202560B0A5EB0A056D1CB3FBF2F292450AD245F2F1
S315202560C0E3200EE0504600F05FF95FEA00080AD18A
S315202560D06D1ECA465DB9787810B100F03DF8804628
S315202560E04046BDE8F087504600F092FACA46B245AA
S315202560F0F1D2A06800FB0AF000F034FA00280AF154
S315202561000109DFD0F2E72DE9F041DFF8286544F2D1
S31520256110C0103718BC687968307800254C4388B973
S3152025612042F2DD7016E03868684300F01BFA40B964
S31520256130284600F029F95FEA00081CBF284600F00A
S3152025614067FA6D1CA542EED3707810B100F004F8DD
S3152025615080464046BDE8F081012068E1DFF8E0244D
S3152025616011780020002918BF00F060B8704738B58F
S31520256170DFF8C0446178002009B1FFF7EDFF44F22E
S31520256180080142F202052144002262550A70CA609E
S3152025619032BD30B500292BD0DFF8982444F2B81328
S315202561A0D41850B1012811D0022811D0032814D093
S315202561B0052815D0102818D01AE01078002814BFE5
S315202561C0002042F2DD700860002030BD0020FAE76D
S315202561D000F010F8AD0A0D60F6E722680A60F3E7AD
S315202561E0A368206843430B60EEE700F003F8F2E747
S315202561F0042030BD2569E368A26820685D435543A0
S3152025620045437047DFF82C1444F2F8120A441078D7
S31520256210002800D0704720B542F2020042F204053C
S3152025622000230B544B51891C516020BD2DE9FE4F6F
S31520256230DFF8004444F2080044F2B8112518661800
S31520256240D5F808A0B0683169BAFBF0F8F068414363
S3152025625001910021297068683168884207D042F269
S315202562600803091A2344FF22184404F019F944F295
S31520256270181001225146204405F0F3FE42F2DB7B1D
S31520256280A0BB306842F208016218014600FB0AF0DD
S3152025629000F054F800284FD0404600F0B9F9E868B8
S315202562A0401CE86008F1010807E0404600F0B0F9F7
S315202562B0E868401C08F10108E8600198804539D234
S315202562C0B76807FB08F9484600F04CF90028EFD1B6
S315202562D0BAFBF7F0474344F2181020440090AAEB66
S315202562E00702521C494605F0BCFE20B1584623E03C
S315202562F07F1C09F10109336857450FD20098A21C46
S31520256300394605F0F5FB88B930680146A21C00FB05
S3152025631009F000F013F80028EAD007E042F2080039
S315202563202218194603FB0AF000F008F820B1584533
S31520256330BBD101E042F2D870BDE8FE8F2DE9F047AA
S3152025634044F2B815BB4E90467259B0FBF2FA08EBCB
S3152025635001090C46FFF756FF384603E0B844E41BEF
S315202563600AF1010AC8450DD27759BC4238BF2746BE
S3152025637044F218103B4642465146304405F0FCFC73
S315202563800028EBD0BDE8F08710B50446FFF73AFF85
S315202563902146BDE81040AB4805F001BE10B50C4698
S315202563A020B9A94A201D4FF47F7103E0A34A201D59
S315202563B040F21C416368934204BFA268012A06D194
S315202563C000F0E5F82168884201D1012010BD002082
S315202563D010BD2DE9F04782460F46964D91469846A3
S315202563E04FF40051A81C05F081FE5FEA0A000CBF78
S315202563F04FF480644FF48464002601E04744761CDC
S315202564004E4512D244F2B810AA1C28582146784364
S31520256410FFF72FFD0028F1D1A91C5046FFF7BEFF17
S315202564200028EBD00020BDE8F0870120FBE72DE9E9
S31520256430F04F804E44F21802B51885B06B8A019329
S3152025644001992A8A0292012907D944F2B81333449D
S315202564504A439C68B2FBF4F901E04FF00109002874
S315202564608DF8000035D10027B846029CC2468B46BA
S3152025647002E008F10108A244D84517D244F2B81300
S31520256480B21CF0584FF4806100FB0AF0FFF7F1FCAF
S3152025649038B94FF480622946B01C04F00BF8002841
S315202564A0E7D0CDF804B00294012702E0CDF804B058
S315202564B002944FF0000A002FD04645F2E124049598
S315202564C04FF4806B48D044F21C004FF47F71304442
S315202564D010E044F2B8103044D5F80C808168564D2A
S315202564E00495B8FBF1FA45F2E2244FF4846B40F289
S315202564F01C41281D00F04BF82860002504E005EBFB
S315202565000A00FFF741FF6D1C4D45F8D344F2B8101C
S3152025651030440390DDF80490029DDDF810A0002775
S315202565204F451BD2039800685246594600FB08F072
S31520256530FFF704FF38B99DF80000012804BF002184
S315202565407170002405E003988168B8FBF1F0FFF708
S315202565501BFF7F1CA844E3E7002000E0204605B06A
S31520256560BDE8F08F30B5394B1C68334B01460022E8
S315202565700020B1FBF4F100E0521C1C69A24205D291
S3152025658003EB82052C6AA142F6D1012030BD3EB50A
S3152025659004460D4601A804F07FFC2A46214601A87B
S315202565A004F080FC694601A804F091FC00983EBDC4
S315202565B038B5204C44F21803E518FF224FF48061A4
S315202565C02846FDF731FD01201F4BA8606B6044F25C
S315202565D01C024FF47F71A018FFF7D9FF28600020F1
S315202565E032BD80B569464FF4807001F0EAFA70B95C
S315202565F0009A17491420424316480A440168D16057
S315202566000369C16880684B4343439360002002BDDC
S3152025661009490A69B2F5807F0AD201EB8202106206
S315202566200869401C086101210248417000207047F5
S315202566300120704728462720408A27205442424455
S3152025664030862720408727204243464EE887272025
S31520256650F0062720E08727208A480121002241604D
S31520256660C26002700020704710B5864C0B462178F3
S3152025667011B942F2DD7010BD01466068BDE81040B3
S3152025668005F0E9BE2DE9FC4106464FF480700090C1
S315202566900D467C4F7878904610B942F2DD7035E06C
S315202566A06946032006F040F880BB0098B0F5007FA8
S315202566B084BF4FF4007100913DB3F868B96800286E
S315202566C004BF0029BE6002D04118B14218D10099D5
S315202566D02A1891422CBF2C460C1A381800F1100185
S315202566E0884504D022464146103001F05BFFF868E4
S315202566F02018F860A61900992D1B8842A044DBD1C5
S3152025670000F006F80028D7D000E00020BDE8F68165
S31520256710F8B55C4EF568ADF5007D0024EDB1B7687A
S315202567207068B460F4602B4606F11002394605F0F0
S3152025673097FF040011D170682B466A46394605F025
S315202567408AFE040009D12A46694606F1100003F07F
S31520256750B1FE10B142F2DF7000E020460DF5017D35
S31520256760F0BD38B5474B044658780D4610B942F248
S31520256770DD7032BD58682A46214605F0EEFE40B921
S315202567802946204600F020F810B942F2DF7032BDA6
S31520256790002032BD80B53B49487810B942F2DD70DC
S315202567A002BD486805F042FF68B900906946102069
S315202567B000F05CF838B9009900F006F810B942F2D5
S315202567C0DF7002BD002002BD2DE9F041ADF5007D2B
S315202567D080460C4601262B4F01E0641BA84484B134
S315202567E04FF40075B4F5007F98BF254678682B466B
S315202567F06A46414605F02FFE10B96846002106E077
S31520256800002630460DF5007DBDE8F081491CB1EB0B
S31520256810950FE2D250F8042B12F1010FF6D0002065
S31520256820F0E738B5174C054600216170606805F0FC
S315202568308BFD10B10021217032BD012020706A46C2
S315202568401821284601F05EF930B90098017AC80644
S3152025685002D515F0030F01D0042032BD60682946E4
S3152025686005F09AFC08B90121617032BD09B90420C9
S315202568707047044B5A78002A18BF05F055BF42F2B7
S31520256880DD707047909627203EB5DFF81C4604F527
S31520256890387540F2FF110222A9846A84204606F023
S315202568A045F9E0B9204607F003F9A8B901A940F230
S315202568B0211001F086F990B96946204600F006FB9D
S315202568C068B9019B00F057F92A68CA60009B8B603E
S315202568D0012184F808133EBD002284F808233EBDF5
S315202568E0F0B585B0044601F08CFE002803D0E01DC6
S315202568F001F087FE002800F0DB802268DFF8A85506
S31520256900100F0B2805F2023605F52C7778D10420B1
S31520256910002C1CBFB179002970D0C2F3036101294F
S315202569200ED000296AD1204604F05EFA10B1002146
S31520256930B17663E0A168C5F820130122B2765DE021
S31520256940B17E00295AD0227812F00F0F56D1002178
S3152025695004910291012004A900F00CFA00284DD1BA
S3152025696002A9022000F006FA002847D10298DFF86E
S315202569703C154FF0FF34884228BF029401A90520F3
S3152025698000F0F8F9002839D1D5F82063049D694609
S3152025699003A804F062FA751980BB00990298761827
S315202569A0B04238BF42F2D87028D30198401E0542FE
S315202569B018BF42F2DE7021D1387801280846019980
S315202569C0B0FBF1F10246019818BF002400FB1122E5
S315202569D0100018BF0120411801982246B5FBF0F07A
S315202569E000F03DFA10B942F2DB7007E0039A0099D0
S315202569F0284600F013F908B900F069F905B0F0BD6D
S31520256A000C2855D14FF449712846FDF769FA207986
S31520256A1010F00F0002D0022841D049D2DFF8901479
S31520256A2029601020FCF7B4F9DFF88814096801F0ED
S31520256A30FF01491CB0FBF1F06860DFF87C0429686A
S31520256A400268914204BF002380F8D43040F2FF101B
S31520256A5070800221318005F12C012068020B000A65
S31520256A6000F00F0002F00F0248700A706068C20C11
S31520256A70C30D02F0010203F00103000E0A734B73C6
S31520256A8000F00300012841F2883240F6C41311D0C4
S31520256A9002D3032814D011D344F620600CE0DFF866
S31520256AA01C1429601020FCF773F9DFF81414BDE7B0
S31520256AB00420A3E742F21070486002E04A6000E015
S31520256AC04B606068C0F3005000280CBF8A608B603D
S31520256AD06068800C00F001008873284606F0E8FFE0
S31520256AE000288BD12168090E01F00701284606F0DA
S31520256AF0F7FF002882D104A9284600F0E7F90028C7
S31520256B00F8D103A940F2211001F05BF80028F1D134
S31520256B10039B00F030F83A6BCA60049B8B6027688C
S31520256B20F90725D509216846FDF7DAF9380C00F04D
S31520256B3003008DF80300C7F301108DF802002846BF
S31520256B4021680A0D02F007028DF801208A08C90856
S31520256B5001F001018DF8041002F0010200218DF8C3
S31520256B6005108DF80020694607F05DF9002801D12A
S31520256B700121B17142E7DFF84C2314214B43D1186B
S31520256B8070472DE9F84FDFF8209309F5427682469E
S31520256B9030780C46904618B942F2DD70BDE8F28F62
S31520256BA04FEA5A2509F54970AAEB45254FEA5A2772
S31520256BB000900FE0009841195A46404601F0F2FC14
S31520256BC05D44B5F5007FA4EB0B04D84424BFA5F579
S31520256BD000757F1C04B3707878B1706887420CD312
S31520256BE0411C8F4209D2AAEB40256019B0F5007FBA
S31520256BF094BFA346C5F5007BDCE7002070700123F2
S31520256C0000993A46484606F08AFF002802BF012009
S31520256C1070707760E9D0C1E70020BFE72DE9F84FEE
S31520256C20DFF8848208F542773B7813B942F2DD7086
S31520256C304BE082464FEA5A24AAEB44244FEA5A25AA
S31520256C400E46914602E0A4F500746D1C002E3BD01D
S31520256C50387A90B1386985420CD3411C8D4209D2A8
S31520256C60AAEB4024F868A04210D000F0B0F80028FE
S31520256C70EED02AE000F0ABF838BB14B142F2DE7034
S31520256C8023E00020F8603D61012139723019B0F5E5
S31520256C90007F94BFB346C4F5007B08EB04005A4613
S31520256CA0494600F2245001F07DFCF9685C4459449C
S31520256CB0B4F5007FF960A6EB0B06D944C6D300F0C0
S31520256CC086F80028BFD000E00020BDE8F28F764A5E
S31520256CD092F810130020002918BF00F078B87047C5
S31520256CE079480021C17101700020704770B56E4D1D
S31520256CF0064695F808030C4610B942F2DD7070BD9C
S31520256D00284606F0E5FE10B142F2E07070BD94B13A
S31520256D1005F53870A419C1690068641EB4FBF0F224
S31520256D20B2FBF1F2B6FBF0F0B0FBF1F12846BDE857
S31520256D30704006F0E3BF70BD38B55B4C04F53F7552
S31520256D40287B10B942F2DD7032BD204606F0C0FE02
S31520256D5010B142F2E07032BD6946204600F0B6F801
S31520256D6038B900982968B0FBF1F20021204606F0B3
S31520256D70C5FF32BD38B50C0027D04B4D30B1012883
S31520256D800ED002280ED005281BD01EE095F8080324
S31520256D90002814BF002042F2DD702060002032BD7D
S31520256DA00020FAE76946284600F090F80028F6D113
S31520256DB0009AD5F8E012A1FB0201800A40EA81500B
S31520256DC0EBE7D5F8E0122160E8E7042032BDF8B5D7
S31520256DD0354C204606F07CFE10B142F2E070F2BD1D
S31520256DE004F5447504F224566868B0F5007F4FF003
S31520256DF0FF370AD094F8B0120129C0F500710CBFCF
S31520256E003A460022304403F04BFB002094F8B0127A
S31520256E102870012918BF0027A8683A46012100F0C5
S31520256E201EF810B942F2DB70F2BDAA68012331465D
S31520256E30204606F0D5FE88B904F54977AA680123A8
S31520256E403946204606F06BFE40B94FF40072394686
S31520256E50304603F02FFB08B142F2DF70F2BD2DE953
S31520256E60F843114E05460C46904606F5497900E02D
S31520256E70E41BB4B1012C8CBF012727463B462A4665
S31520256E804946304606F04BFE48B9494600E0001DE6
S31520256E90B0EB472FECD251F8042B4245F7D00020F2
S31520256EA000E00120BDE8F283FC34272001004000C4
S31520256EB000804140001DCC40943D272000C0414004
S31520256EC0801DCC40F006272005382720024602F5CE
S31520256ED039720020137F072B13D8DFE803F0040629
S31520256EE00612080A0C0F126806E0536807E0926816
S31520256EF002E0D36803E012690A60704753690B6084
S31520256F0070470420704700001CB5DFF878452046D9
S31520256F1005F046FF90B9204607F0D2FEC83458B969
S31520256F2000F022F950B900F024F96268CA60236876
S31520256F308B600121217316BD0022227316BDF0B563
S31520256F4085B0044601F05DFB002803D0E01C01F046
S31520256F5058FB002800F0D4802768DFF82855380FFD
S31520256F600B2805F1C80640F07B800420002C1CBF89
S31520256F70317B00290DD0C7F30361012905F1E806E8
S31520256F800DD0002905D1204603F02EFF10B1002172
S31520256F903170E7E0A268726001233370E2E0317830
S31520256FA00029FBD0227812F00F0FF7D1002104916A
S31520256FB00291012004A900F0D3F90028EED102A9D7
S31520256FC0022000F0CDF90028E8D10298DFF8B81480
S31520256FD04FF0FF34884228BF029401A9052000F0EE
S31520256FE0BFF90028DAD17768049E694603A803F0FD
S31520256FF034FFBE19002828D1009902987F18B84257
S3152025700038BF42F2D87020D30198401E064218BFB9
S3152025701042F2DE7019D195F8BE00C1070098019974
S31520257020B0FBF1F10246019858BF002400FB11223E
S31520257030100018BF0120411801982246B6FBF0F012
S3152025704000F0FBF910B942F2DB708BE0039A009928
S31520257050304600F0E2F8002801D100F037F981E02A
S315202570600D284DD1F0212846FCF73AFF17F00F07BA
S3152025707002D0022F3BD043D2DFF8100428601020FF
S31520257080FBF786FEDFF80814096801F0FF01491C85
S31520257090B0FBF1F06860DFF8FC03296802689142AD
S315202570A004BF002380F80833206805F12C01020B44
S315202570B0030A02F0070203F001030A704B70C20C83
S315202570C0C30D02F0010203F00103000E0A734B7370
S315202570D000F00300012841F2883240F6C41311D06E
S315202570E002D3032814D011D344F620600CE0DFF810
S315202570F0A81329601020FBF74BFEDFF8A013C3E762
S3152025710004202FE042F21070486002E04A6000E039
S315202571104B602068C0F3005000280CBF8A608B6026
S315202571202068000900F0E00008612068C0F341507E
S3152025713000281DBF2068000D00F0060001204861AB
S31520257140284607F0BDFD58B900F00EF850B900F0D5
S3152025715010F87268CA6033688B600121317301E0AB
S315202571600022327305B0F0BD69464FF4907000F0C9
S3152025717028BD009BDFF8282314214B43D1187047BF
S315202571802DE9F84FDFF8FC9209F1D40682463078AE
S315202571900C46904618B942F2DD70BDE8F28F4FEACB
S315202571A05A2509F1F000AAEB45254FEA5A270090E2
S315202571B00FE0009841195A46404601F0F3F95D44FF
S315202571C0B5F5007FA4EB0B04D84424BFA5F500759F
S315202571D07F1C04B3707878B1706887420CD3411C24
S315202571E08F4209D2AAEB40256019B0F5007F94BFBE
S315202571F0A346C5F5007BDCE70020707001230099A6
S315202572003A46484607F061FA002802BF01207070E9
S315202572107760E9D0C1E70020BFE72DE9F84FDFF8F1
S31520257220648208F1D4073B7813B942F2DD704BE02E
S3152025723082464FEA5A24AAEB44244FEA5A250E467B
S31520257240914602E0A4F500746D1C002E3BD0387AB9
S3152025725090B13869A8420CD1411C8D4209D2AAEB9E
S315202572604024F868A04210D000F09DF80028EED0E2
S315202572702AE000F098F838BB14B142F2DE7023E0FC
S315202572800020F8603D61012139723019B0F5007F63
S3152025729094BFB346C4F5007B08EB04005A464946FD
S315202572A000F53C7001F07EF9F9685C445944B4F543
S315202572B0007FF960A6EB0B06D944C6D300F073F8F8
S315202572C00028BFD000E00020BDE8F28F6D4A92F855
S315202572D0DC100020002918BF00F065B870477148DA
S315202572E00021C17101700020704770B5654E054695
S315202572F096F8D4000C4610B942F2DD7070BD3046A2
S3152025730007F0DBF910B142F2E07070BD54B130467A
S31520257310690A65196D1EC1EB5522BDE87040521CC0
S3152025732007F0C4BA70BD38B5564C04F1C805287B7C
S3152025733010B942F2DD7032BD204607F0BEF910B1F4
S3152025734042F2E07032BD28686968A1FB0023520A03
S3152025735042EAC3522046BDE83840002107F0A6BAA6
S3152025736010B5F1B1504A30B101280DD002280DD0E3
S31520257370052814D015E0107B002814BF002042F2E2
S31520257380DD700860002010BD0020FAE714685068DB
S31520257390A0FB0423920A42EA83520A60F2E7506848
S315202573A0EFE7042010BD2DE9F041364C204607F0A5
S315202573B084F910B142F2E0703DE004F1E00504F5D0
S315202573C03C782868B0F5007F04F1BE074FF0FF36DC
S315202573D009D03978CA07C0F500714CBF324600223C
S315202573E0404403F05DF80020B8773978C80758BFA0
S315202573F0002668683246012100F01FF810B942F2AE
S31520257400DB7018E06A6801234146204607F0D1F94A
S3152025741088B904F1F0076A6801233946204607F022
S3152025742054F940B94FF400723946404603F042F8E4
S3152025743008B142F2DF70BDE8F0812DE9F843114EFF
S3152025744005460C46904606F1F00900E0E41BB4B14A
S31520257450012C8CBF012727463B462A4649463046DE
S3152025746007F033F948B9494600E0001DB0EB472F10
S31520257470ECD251F8042B4245F7D0002000E001201C
S31520257480BDE8F283943D272001004000008041403D
S31520257490001DCC40FC34272000C04140801DCC4017
S315202574A0F0062720693E27205C3E272041688268F2
S315202574B08A4209D2891A4160826601220FF2A521C4
S315202574C0016082600020704742F2787070470FF283
S315202574D0050113E0416A4A898282CB689B1E436057
S315202574E04A68DFF81C349A4202D1097A022902DB3E
S315202574F042F2757070470FF20D0100BF0160002022
S3152025750070470000416A4A68436882610A68D21E2C
S315202575109A42826002D342F2767070470989002901
S3152025752008BFFFF7C3BF42F277707047F8B5044608
S31520257530DFF8D06300F04EF869682868E047A0B9DF
S3152025754030684169884780B9616A102204F11C0098
S3152025755003F0A8FC00F039F80098A968884200D0E5
S3152025756046E00FF2012020600020F2BDF8B5044642
S315202575701022616ADFF88C6304F11C0003F092FC6B
S3152025758000F028F828681021E047E8B92868103047
S315202575902860686810386860102888BFDFF8680377
S315202575A010D810B1DFF864030CE0316848698047AC
S315202575B050B900F00AF80098A968884200D017E04B
S315202575C00FF2A11020600020F2BD694604F11C00AF
S315202575D003F07DBCB4F85A303768626AD7F80CC0F8
S315202575E0180604F15C05000F1B0A43EA00237047A1
S315202575F042F27A70F2BD10B5044604F11C0003F060
S315202576004BFC206E112827BFBF492160BF4820602B
S31520257610002010BD38B5BB4B1C68426E016EC06D6F
S315202576202569A84732BDB0F85A2013061B0F110A23
S3152025763041EA0321D2074CBF08230423042901D07C
S3152025764004207047C16D00F16002B14801F056B89B
S3152025765070B5044642F27F76E56D284600F0D1FFC7
S3152025766080B1606E04F11801A8470646012E03D184
S315202576702046BDE8704019E7022E03D100F0B8F860
S31520257680002070BD304670BD10B500F15C02436800
S31520257690516881608B4202D242F2767010BD137AF0
S315202576A0DC0707D5126883699A4203D111B1C160D7
S315202576B0002010BD90F85A10CA0702D542F27C70D8
S315202576C010BDBDE81040F1E638B5B0F85A108A0746
S315202576D019D40B061B0F0A0AC90716D542EA032217
S315202576E0093A04D0F73A0AD0521E04D00BE0BDE859
S315202576F03140FDF7C2BBBDE83140FEF72DB8BDE8C8
S315202577003140FEF700BD042032BD42EA03227D4BDF
S315202577101C68E5695C3041680068A84732BD0000D1
S315202577201CB50446B4F85A000106090F000A40EA9A
S315202577300120092803D1E06DFDF7ADF916BD0129F4
S315202577400ED1694600F03DFA58B96E498A68009BE4
S31520257750E06D14214B43D1180A691169884716BD56
S31520257760042016BDF8B5044604F15806616A30464C
S31520257770102200F017FF5A250120375CED19401CF1
S315202577801028FAD3307805F0FF05A84202D042F218
S315202577907970F2BD71780A2942F2127025D8DFE870
S315202577A001F01A060A0E26121A16261C2000204635
S315202577B0BDE8F24068E72046BDE8F2401BE72046B3
S315202577C0BDE8F24026E72046BDE8F24040E72046C0
S315202577D0BDE8F24078E70020F2BD2046BDE8F2401C
S315202577E09EE72046BDE8F2401DE742F27B70F2BDBA
S315202577F010B5484C70212046FCF772FB464A22607C
S31520257800002010BDF8B506460C4600200027434D1E
S31520257810A74218D02969C1F11001E01B09E080B1E2
S315202578202B69F25DEA547F1C2A69521C2A61491E5E
S31520257830401E0029F3D10020286100F005F810B953
S31520257840E6E742F27D70F2BD80B53248334A426280
S315202578500021C2682AB1036993420AD05B1C0361C1
S3152025786001E0826E1AB901688847014601E0521E59
S315202578708266084602BDF8B5224C206841698847AC
S3152025788000283CD1234F97F85900042823D107F106
S315202578905C052E68304600F0B4FEC8B10020FDF701
S315202578A051F897F85A00810710D56868686161688C
S315202578B060B10A68904222BF4968491C814201D29B
S315202578C00420F2BD80F3088880F30988A868B0478C
S315202578D042F27E70F2BD08280FD10220FDF732F83C
S315202578E0BFF34F8F0E490F480A6802F4E062024320
S315202578F00A60BFF34F8F00BFFDE742F27B70F2BDD2
S3152025790053544D50100027206D7525202D75252083
S3152025791000C0CA400C3D2720CF742520803D272036
S315202579200CED00E00400FA057CB50C00164605464C
S315202579301A4601D1002076BD100A10F00F0002D07C
S3152025794001280DD01DE06A46284600F0DBF8D0B97F
S31520257950009B21461C69636832462846984776BD92
S315202579606B46284600F0FBF868B90098DFF8E81240
S3152025797003699869486032465B68214628469847B8
S3152025798076BD42F2D87076BD7CB50C00054601D170
S31520257990042076BD100A10F00F0042F2D87602D0C8
S315202579A0012807D00BE0284600F020F938B900F049
S315202579B095F876BD6B46284600F0D1F876BD30463B
S315202579C076BDF8B50C00174606461A4601D1002085
S315202579D0F2BD100A10F00F00DFF87C5202D00128E4
S315202579E012D028E0304600F001F920BB6A46214610
S315202579F0304600F087F800BB009B21461C69E368CA
S31520257A003A46304698470DE06B46304600F0A7F8B3
S31520257A1098B900980369986968603A469B68214613
S31520257A203046984720B900990A6951692960F2BDDF
S31520257A3000222A60F2BD42F2D870F2BD7CB5130A27
S31520257A4013F00F0305460C4642F2D87602D0012BB9
S31520257A5014D025E06A4600F055F8F0B9009801695A
S31520257A60886998B12146284600F0C0F8C0B9009A01
S31520257A7013699A6921462846904776BD6B4600F0BC
S31520257A806EF850B900980169CA6812B942F2E570B4
S31520257A9076BD21462846904776BD14B9002076BD69
S31520257AA0304676BD7CB50C000546164601D100200C
S31520257AB076BD00F09BF810B142F2D87076BD00F065
S31520257AC00DF850B9009801690B6923B13246214634
S31520257AD02846984776BD42F2E57076BD6A46214608
S31520257AE028460FE010B55C4C206810B18047002150
S31520257AF0216010BD10B5584C606810B18047002113
S31520257B00616010BD2DE9F042064642F2D8790AB3C6
S31520257B105248436813608C19641E00250127BD42EF
S31520257B2018D811B9136015E01433B3B11968002993
S31520257B3001BF5868002818690028F3D08E4224BF33
S31520257B405868B042F0D31360AD42586801D8A04298
S31520257B5000D3A9464846BDE8F0821560FAE72DE907
S31520257B60F0430646154642F2D8773BB33B48826812
S31520257B701A6019B922E004F1140018601C68ECB1CA
S31520257B802268002A04BF6068002807D1A06800283B
S31520257B9004BFE068002801D1206978B19542EAD151
S31520257BA0A068E268A2FB00890023002572186B4194
S31520257BB0994503D301D8904500D300273846BDE8FB
S31520257BC0F08370B505460420002671B1234A9468B2
S31520257BD001E0761C143444B1236833B12269002A86
S31520257BE003D09D42F5D10E60002070BD70B50918D1
S31520257BF0491E0022194BDC68256905EBC20606F1CC
S31520257C007C045D6814265643AD5966682468AC42C3
S31520257C1008BFAE4203D0864228BFA14204D2521CB9
S31520257C20012AE8D9002070BD012070BD70B50B4D05
S31520257C306E6803E0006800B1804714363069002855
S31520257C40F8D1AD6803E0096801B18847143529695B
S31520257C500029F8D162BD0000F43427201000272002
S31520257C600246012000E0491E21B112F8013BFF2BD7
S31520257C70F9D000207047000001460120D1F8DC1FED
S31520257C80090C01F007018840800270472DE9F84349
S31520257C900A9C0127002C3CD100F6E43100F6EC3570
S31520257CA00898099E120202F4706242EA034200F005
S31520257CB00F0002430A60F9F7C6FD04464FF47A7091
S31520257CC088467043F9F7C9FD064689462868C0F3D4
S31520257CD0813001282AD1F9F7B6FD021B61EB08036D
S31520257CE041450AD828BFA04207D2E2436FEA0803B6
S31520257CF010185941421C61F1FF33B9F1000F08BF15
S31520257D00002EE3D04B45E1D301D8B242DED3052060
S31520257D1012E0012C08D100EB0140DFF8E015DFF851
S31520257D20E04501440519BBE7042005E0286810F441
S31520257D30704F08BF00273846BDE8F283F0B5059E6B
S31520257D4001240025012E05D1D0F8D86FC6F3033698
S31520257D50761C01E015686E1CDFF8A8753F6800E0E3
S31520257D606D1CB5421CD24FEA450C27FA0CFE1EF097
S31520257D70030FF5D100EBC10400EB014000EB051103
S31520257D80DFF88465246988190027012104F00F046A
S31520257D90076001FA04F484604760036015600024B7
S31520257DA02046F0BD3EB50123029364240325019484
S31520257DB000950023FFF76AFF3EBD2DE9FE43894640
S31520257DC080460A9901200025012914461F4605D1FA
S31520257DD0D8F8D86FC6F30906761C07E03D686E1CD1
S31520257DE004E0012904D0022932D16D1CB5422AD2BC
S31520257DF001200290052364200190009300222B4622
S31520257E0049464046FFF742FF18BB08EB0942DFF8F3
S31520257E10F034D158C1F38111032905D1D15801F068
S31520257E200F01A14212D0E0E70029DAD101206421F1
S31520257E300290019100902B46224649464046FFF75F
S31520257E4025FF0028D4D020B9B54201D23D6000E0D7
S31520257E500120BDE8FE832DE9F84F0746F9F7F3FC07
S31520257E6004460D46DFF8A404DFF8A464F9F7F5FCEB
S31520257E7080468946D7F8D40F810703D5D7F8D40F5E
S31520257E80C10720D5B068DFF88C2407EB00418B5835
S31520257E90980518D0F9F7D7FC021B61EB0503A942F3
S31520257EA003D828BFA04200F063F8B9F1000F08BF18
S31520257EB0B8F1000FDED04B45DCD301D84245D9D3C6
S31520257EC0B84605274AE070690078B846012700F0AC
S31520257ED07F00002100E0491C8142FCD33069002126
S31520257EE001604160F16870690860BFF34F8FBFF369
S31520257EF06F8FB068DFF8202408EB00418F50F9F703
S31520257F00A2FC04460D460020F9F7A7FC82468B469F
S31520257F10B068DFF8082408EB00418B58980515D161
S31520257F20F9F791FC021B61EB0503A94203D828BF6B
S31520257F30A04200F01DF8BBF1000F08BFBAF1000FD3
S31520257F40E6D05B45E4D301D85245E1D33069726941
S31520257F500168914202BF406800280027B068DFF8F3
S31520257F60C02308EB004101238B503846BDE8F28F0C
S31520257F7006D2E243EB4310185941421C61F1FF33E7
S31520257F8070472DE9F84F0A9CDFF88473DFF894B300
S31520257F90814600202060B860B9F1000FDFF88803FC
S31520257FA0C7F800B04FF0040A786002D01D0018BF2C
S31520257FB0002C00F099818846B8F1100F1CBFB8F126
S31520257FC0180FB8F1200F5AD1160018BF012E03D04D
S31520257FD0022E18BF032E52D148F21000CBF81000DE
S31520257FE0BFF36F8FBFF34F8F01210091FF23B96810
S31520257FF007F120025846FFF7A1FE5FEA000A3CD189
S31520258000012000903A6AB96807F124035846FFF7FC
S31520258010D4FE5FEA000A30D101200090FF23B968FB
S3152025802007F128025846FFF789FE5FEA000A24D180
S3152025803001200090BA6AB96807F12C035846FFF744
S31520258040BCFE5FEA000A18D15846FFF715FE796A65
S31520258050484300F52010F86000F1100200F58071E4
S3152025806000F50070F8613A6179615846FFF704FEFC
S31520258070F96A484300F52010B861BAF1000F40F09F
S3152025808033813A68B86802EB0041F868D2F804E0F3
S3152025809001F5803300215FEA0E3A05D501460020F9
S315202580A0C3E90001396902E0C3E900013869DFF82F
S315202580B07CB2C3E908014FF0010EC3F80CE09246C5
S315202580C0B86802EB00419A4841F800E0B86899491A
S315202580D002EB0040435843F001034350DAF8C0062B
S315202580E0C10720D4786900210BF1240252F82130CA
S315202580F040F82130491C0829F8D9DAF8000640F439
S315202581008050CAF800065046FFF7A5FE60B9DAF872
S31520258110C0160120CA0703D5DAF8C0164A0002D4AC
S31520258120DAF8C01600E000205FEA000A5DD17968FA
S31520258130042E88BF042056D84869C0F303200B286F
S315202581401CBF0D280F284DD1022E18BF032E2DD149
S31520258150C86B02072AD40B680120DA0722D44B6B79
S31520258160DA071FD4CB6C1A0708D5734B4B66CA6C16
S3152025817042F00802CA64CA6C130713D4C86B40F0B0
S315202581800400C863BFF34F8FBFF36F8F486840F451
S3152025819080504860C86B0207FCD5C86B40F010009C
S315202581A0C8630020F8B9C86B02071BD54868820426
S315202581B046BFC86B00F003000020864210D0086811
S315202581C082050FD4486B82050CD4486840F40050AC
S315202581D0486006F00306C86B800846EA8006CE630B
S315202581E0002000E001205FEA000A7DD1B8694246D9
S315202581F0494600F0D7F93E68BA68434906F110008A
S315202582004FF0010E50F83200BB6A06EB024202EB14
S31520258210031300225A5000F00F00BB68BA6A06EBFA
S31520258220034C0CEB0213454A0EFA00F0985008F140
S31520258230300900F05CF8424A0023835000F057F8B5
S315202582404BF2080242504946F86903F04FFF7869F8
S3152025825000215BF8212040F82120491C0829F8D93E
S31520258260816868F317418160016968F30F0101610F
S31520258270B9694161816969F30F018161F969C16133
S315202582803046FFF7E8FD5FEA000A02D0002020608D
S315202582902AE0812129704120E87008F138065520E9
S315202582A0687100216622E971300A2A7185F80680CF
S315202582B06870AE70A6F10802F96905F1080000F08C
S315202582C071F926603C683A6AB9682046FFF76AFD47
S315202582D020B9BA6AB9682046FFF764FD002000E078
S315202582E0401CB0EB960FFBD35046BDE8F28FB868FD
S315202582F0BB6A06EB004202EB03107047E40B010034
S31520258300EC0B0100BC0F4540040A0100A0860100A4
S31520258310B82F2720140001001C0001003C00010075
S3152025832034000100000044400000C9405C1225208D
S315202583302C00010054000100666173410C0A0100DE
S31520258340080A010010B5914C204606F02FFD21463E
S315202583508F4806F035FD08B90121217210BD38B5A3
S315202583608A4C207A10B9FFF7EDFFD8B9207A012853
S3152025837001D0012032BD874D4FF49E612846FBF75B
S31520258380AFFD4FF4956205F11001814806F070FD89
S3152025839040B9814A81496A6000232960AB60EB6038
S315202583A00222227232BD2DE9FF4188461746002139
S315202583B0022F04460391029105D102AA03A9022080
S315202583C006F03AFE03E01021082203910292029834
S315202583D0804524BF0399414536D36C4E307A0228F1
S315202583E018BF032808D000F0AAF805002FD1307A27
S315202583F0022818BF032829D124B13A4641462046CA
S3152025840006F034FE022F1FD1624F614807F2BC4386
S3152025841044B134210191009322464346002106F09A
S31520258420B5FD05E0342100914246002106F072FD76
S31520258430050005D0382107F59760FBF751FD06E0A5
S315202584400220C7F8B80402E0042500E001252846C5
S3152025845004B0BDE8F0817CB5054600F052F801242C
S3152025846080B1002000906946284606F0DDFD0400EF
S3152025847008D100F02DF8FFF7A4FA040002D1FFF762
S3152025848031FB0446204676BD7CB500220092054662
S31520258490694606F0C9FD040018D13E4E00F018F8AD
S315202584A0FFF742FA040011D1304600F062F830B9C0
S315202584B04FF49E613046FBF713FD012406E0334831
S315202584C0017A012902D0FFF73DFF0446204676BDD5
S315202584D000982B4632464FF49E61704770B50500AD
S315202584E00C4618BF002C01D1042070BD00F009F8D8
S315202584F008B9012070BD2E604FF49E6020600020B3
S3152025850070BD244E304634E010B5B1F59E6F044635
S3152025851001D0042010BD00F02CF808B9012010BD8B
S315202585204FF49E6221461B4800F03CF81748017AF5
S31520258530012902D0BDE8104004E7002010BD70B502
S31520258540124D287A0124032808BF00240FD001289C
S315202585500DD1FFF7D6FF50B14FF4956206F11001E4
S315202585600B4806F0AEFC040004BF032028722046E3
S3152025857070BD0168094A914201D0002070474068A4
S31520258580074988428041C00F70470000D8342720EC
S315202585900020C840E82F2720000101004655504BD2
S315202585A0010101004AB1000011F8013B521E00F8D5
S315202585B0013B1CBF11F8013BF8E7704700220260FA
S315202585C00A6070472648C168086990F8AA00C04302
S315202585D000F00100704738B504460D460020FCF70B
S315202585E0B1F92048204A446000211160056085F3B1
S315202585F0088885F3098840688047BDE8314006F01C
S31520258600BEBD1CB500281EBF10F1010F1749884293
S3152025861001D1002016BD6A460221FFF773FA0024F0
S3152025862020B90098017AC80748BF0124204616BDDF
S3152025863010B50B494B680246002000E01433196912
S3152025864061B1197A01F011011129F7D119689142E1
S31520258650F4D25C68641C9442F0D3012010BD00003E
S3152025866010002720F02D272008ED00E06125262063
S31520258670C7E700000A0018BF01220260704738B5F7
S3152025868004460D4672B62068401C206062B615F158
S31520258690010F04D04FF47A706843F9F7F5F821686D
S315202586A041B115F1010FFAD0F9F7F9F80028F6D0DE
S315202586B0002032BD012032BD72B60168491EFFE772
S315202586C0016062B6704772B60B490020086062B613
S315202586D0704772B608480168491C016070470648EC
S315202586E00168022903D20022026062B6704701681A
S315202586F0491E016070470000002E2720F8B5044644
S315202587000D4616460BB90020F2BD042B02D1A80A28
S31520258710800201D00420F2BD00F077F8204600F033
S3152025872083F858BB4FF40067A7606FF47C41C5F3E7
S3152025873009053B48A16005436560204631682162CD
S31520258740642100F071F8C8B92068010502D544F6E0
S31520258750E960F2BD6421204600F066F844F6EA6514
S3152025876048B9A7604FF4805060606421204600F008
S315202587705BF800B90025012020612846F2BD0000BE
S31520258780F8B51C0005460F4616463CD0042C18BFC6
S31520258790082C03D00C2C18BF102C02D1B80A800225
S315202587A001D00420F2BD00F030F8284600F03CF830
S315202587B050BB4FF40060A86040F2FF31A960C7F393
S315202587C009076F60012028636421284600F02CF8CC
S315202587D0D0B92868010502D544F6E860F2BDA4087B
S315202587E0641E032C05F580700BD8DFE804F00806F7
S315202587F00402016BF160016AB1600169716000684C
S315202588003060012129610020F2BD0649087818B972
S315202588100248012202600A7064217047A064CC4078
S315202588200000773E58C827202DE9F04782460F4677
S315202588304FF47A70F9F711F8A0FB078901FB079900
S31520258840F9F701F8002604460D46DAF80000410519
S315202588500CD5002FF9D0F8F7F6FF001BA94149457D
S31520258860F3D301D84045F0D344F6EB663046BDE830
S31520258870F08700000A484FF0FF3101604160816092
S31520258880C160016141618161C16106480160416024
S315202588908160C160016141618161C16170470000CC
S315202588A080E100E080E200E070B505460E46FAF745
S315202588B07FFC04000FD1012306F18002002100F060
S315202588C090F9707C012804BF00213174D6F8D40193
S315202588D008B1F9F72FFF204670BDF8B50C4684B0B0
S315202588E00421ACB194F8CC11022904F1B0050AD1A2
S315202588F095E8C050694681E8C05004F1C00696E83F
S31520258900825085E882502146FAF724FC00F01FF88C
S315202589101AE0F8B50C4684B00421ACB194F8CC11F4
S31520258920022904F190050AD195E8C050694681E8C7
S31520258930C05004F1A00696E8825085E8825021464B
S31520258940FAF7EBFE00F003F8084605B0F0BD014620
S3152025895094F8CC01022804D1684690E85C0085E885
S315202589605C0070472DE9FE435FEA010881461546DE
S315202589704AD0012D48D808F5E4763078002843D00A
S3152025898008F1400748463C68FAF7B2FEA409317833
S3152025899004F0010465B939B122464846F9F710FF96
S315202589A041464846FAF792FAB07988B101210CE07A
S315202589B041B1B97922464846F9F702FF414648464C
S315202589C0FAF784FAB07918B100214846FAF73CFF20
S315202589D06A4602214846F9F709FD14B10098400850
S315202589E0009001AA00214846F9F700FD0198009933
S315202589F0B0FBF1F1491C0A204143890800E000BF5C
S31520258A000846411E0028FAD1BDE8F7832DE9F04313
S31520258A100546894689B017461E464846FAF748FA36
S31520258A2080460022494600F025F93B4642464946DE
S31520258A302846FFF752FF04002AD10121022003915F
S31520258A408DF800000922029209F5C87299F8471077
S31520258A5000291CBF1078002803D050780290117861
S31520258A60039101978DF810800596106B039B069030
S31520258A70029809EB001100F0B1F800F0A5F80400E2
S31520258A8006D13B46424649462846FFF742FF04463D
S31520258A902846FAF736FE0122494600F0EBF820460D
S31520258AA001F0E9BB2DE9F04F89B089460026012240
S31520258AB00B2180468DF80060039202918DF8106077
S31520258AC099F8470000281EBF09F5CA71087800289D
S31520258AD000F074F8029FDDF80CA000224946404696
S31520258AE0FFF740FF09F1500B002004245BF8045BB7
S31520258AF0BDB13346002249464046FFF7EEFE98B9DA
S31520258B0009EB071000F180020196534601214046C4
S31520258B10FAF7CEFC0120029069464046FAF704FD75
S31520258B2010B9AE19641EE1D10400464613D100279B
S31520258B3009F1500A04255AF8048BB8F1000F07D0FD
S31520258B403B46002249463046FFF7E3FE040002D184
S31520258B506D1E4744EFD13046FAF7D3FD012249460B
S31520258B603046FFF7FFFE204609B0BDE8F08F2DE9F8
S31520258B70F84105460E4689B017463046FAF798F944
S31520258B8000F075F800F065F8040016D100218DF85F
S31520258B9000100122052100F061F81EBF06F5C671D9
S31520258BA00878002800F00AF800F014F800F00CF8F0
S31520258BB0040002D100F048F804463BE003D04A7869
S31520258BC0029209780391704701200290694628462A
S31520258BD0FAF7AABC0298039B06EB001101F1800245
S31520258BE001212846FAF764BC2DE9F84105460E46AB
S31520258BF089B017463046FAF75BF900F038F800F0C9
S31520258C0028F8040016D100218DF80010012208210C
S31520258C1000F024F81EBF06F5CE7108780028FFF748
S31520258C20CDFFFFF7D7FFFFF7CFFF040002D100F0D6
S31520258C300BF804462846FAF764FD012200F019F8B8
S31520258C4020460AB0BDE8F0813B46424631462846B5
S31520258C505FE63B464246314628463EE60197039245
S31520258C6002918DF8108096F8470000287047804697
S31520258C7000223146284675E6F0B5054689B00E46CA
S31520258C8014461F46042074B124216846FBF728F98B
S31520258C9001200322029003908DF80020079408973F
S31520258CA00196FFF793FF09B0F0BD2DE9F0430C4659
S31520258CB00546E0684FF001090028164647BFC01E25
S31520258CC009FA00FC401C4FEAD00C05F1500204217C
S31520258CD01068002804D1121D491EF9D1042070E000
S31520258CE0FCD0C2F800C005F5E07C616840294FF428
S31520258CF0807008D3216BC1F3031109FA01F1B1F56F
S31520258D00004F18BF0846CCF800006FF07F4E4FF075
S31520258D10000800250021002704EB470090F82400B1
S31520258D2058B109FA00F070453CBF8646394680453C
S31520258D303EBFB0F5801F80463D467F1C042FEBD3D2
S31520258D40CCF804E0CCF81080C6450EBF8CF80990E7
S31520258D5000208CF809001068DFF8B823904225D327
S31520258D6094F8580040B104F16002505C306004F15B
S31520258D7060014C5D1C6023E004F1250010F81110DC
S31520258D80202904D0D82904BFDC21316001E0212007
S31520258D90306004F1250010F81510202904D0D82993
S31520258DA004BFDC2119600BE0212008E004F1250011
S31520258DB004F1250210F81110316012F815001860FB
S31520258DC00020BDE8F0832DE9F84F0D0096B0144616
S31520258DD008BF4FF0040868D0834608236A46002139
S31520258DE0FFF74AFF5FEA00085FD10098CA49884203
S31520258DF018BF44F68B6858D19DF8040028609DF845
S31520258E0006707F1C0A2F88BF0A2708210CB14FF42C
S31520258E100061FB0002AA5846FFF72EFF5FEA0008ED
S31520258E2043D164212846FBF75BF84FF0000A4FF61D
S31520258E30847904E0012085F858000AF1010ABA450B
S31520258E4033D202A800EBCA000178C27901EB0222AF
S31520258E50B2F57F4F18BF4A45EFD100210223C61808
S31520258E605B1E367946EA0121F9D5C678B60004B1C6
S31520258E700902B2F57F4F0DD1502E88BF5026334695
S31520258E8005F108025846FFF7F7FE5FEA00080CD1E0
S31520258E906E60D2E74A45D0D1334605F15C02584665
S31520258EA0FFF7EAFE5FEA0008C4D0404617B0BDE8C2
S31520258EB0F08F60B589B003258DF8005049000191C2
S31520258EC00026012507920893029603958DF81060B2
S31520258ED06946FAF729FB09B060BD78B5490089B0FE
S31520258EE00225019101260024059206938DF800502E
S31520258EF0029603968DF810406946FAF715FB0AB0B7
S31520258F0070BD2DE9F84705460C4687B00320E0734A
S31520258F10082104F14500582301700326236426736E
S31520258F201AB1216C41F0010121640121817004F1DE
S31520258F3050060F20B08504F5C277F1854FF40070D1
S31520258F40F86304F2C9184FF480203864C4F8D00198
S31520258F5088F8001028462146FFF7A6FC002859D177
S31520258F6000F000F90DF10C0A6C496D480391CAF8F9
S31520258F700400012303AA01212846FAF799FA00F0CD
S31520258F80F1F86848DFF8A091CAF80400CDF80C90CE
S31520258F90012303AA2846FAF78BFA4FF418400290A4
S31520258FA0022302AA40F255512846FFF796FF0028AC
S31520258FB030D108236A4610212846FFF77AFF002854
S31520258FC028D100980199594A904289B208BFB1F50E
S31520258FD0B24F019140F09A8008236A4627212846D8
S31520258FE0FFF767FF002815D10098C0F307200090CA
S31520258FF017380A2880F08A8000980121814031601F
S315202590004FF470420292022302AA00212846FFF736
S3152025901064FF002877D14649DFF818C1464A474BD1
S31520259020DFF81CE171634AF20475B563C6F84CC0B6
S31520259030B5654FF08721434DDFF80CC1C6F8309032
S3152025904031647264B364C6F85090C6F854E031662C
S315202590507266B366F26631677567C6F878C0F567B6
S3152025906004F1D006DFF8E4E0DFF8E490C6F84CE01A
S31520259070C6F8549048F2307ADFF8D8E0C6F850E0A2
S31520259080C6F830E004F5A874DFF8CC90DFF8CCE0FC
S3152025909031647264B36431607260B360C6F80C9033
S315202590A031617261B361F26131627562C6F828C099
S315202590B0F562C6F834E0C6F838A031667266B3661E
S315202590C0C6F86C9031677267B367F26721602161B4
S315202590D062616560C4F808C0E560A3610222204963
S315202590E0E1613A713A703A73032109227A737971CB
S315202590F005227A72012304210B227B703972397459
S315202591007A7488F8033008B0BDE8F08744F68D6078
S31520259110F9E7000001000001534644502087188BAB
S31520259120108F02A3108F04A7A087188B00510052F9
S31520259130108F0CB3008770870087AA87008705873D
S31520259140108F0BB700875587008702870087A08752
S31520259150108F80A30087188B00878087108F008724
S315202591600087108703A80021002200238C4680E84B
S315202591700E1070472DE9F04FB7B00C001CBF00929A
S31520259180002A83464FF0040800F0B2874FF4007179
S315202591902046FAF7A5FE04F130060122B2754FF0D6
S315202591A0807535620322DFF83C0CDFF83C1C2060F5
S315202591B06273A273616004F5E0720121117200F0D9
S315202591C0E5FF23DD00984168C1F30340012803D13B
S315202591D0306940F48070306100984168C1F303609E
S315202591E020B1C1F303612046F9F771FB0098406849
S315202591F0000F0BD0012805D0022802BF002030629F
S31520259200B56203E0306940F00400306104F5E07969
S3152025921000980068010D01F00F01092904F58075D4
S3152025922004F180074FF0042A38D8DFE811F00A0028
S315202592300A006E03700377037703DF04DF04DF0557
S31520259240DF05C0F30340002828D100F0AAFF07BF79
S3152025925001218DF8051000228DF8052086F8158028
S315202592605846DFF8DC1CDFF8DC2C39607A6021468D
S31520259270FFF71AFB5FEA000810D10099DFF8C80C22
S315202592800A68C2F3034100EB011200F0A6FF002273
S315202592901EA95846FFF797FD5FEA000840F012877A
S315202592A0002003904FF0040A00980168C1F303506B
S315202592B0012806D12098C00C10F00100039000F05B
S315202592C0C18200212173182200F05AFF07924FF000
S315202592D000088DF80480CDF8188004AB05AA1EA9B0
S315202592E02046FFF7E2FCDFF8640C1490316A8142B0
S315202592F024BF2021079100980168C1F30330002857
S3152025930040F0A08208A8FFF72EFF1E99042921D810
S315202593101F9840281ED200980168C1F3032ABAF166
S31520259320000F30D0029216928DF86420032102AACE
S315202593301C928DF85410AAF101020121032A1D91B0
S315202593401791189127D8DFE802F01F230223DFF88B
S31520259350E41C1BE0012020742E98000D00F0070048
S31520259360401E05280ED8DFE800F00A07040A0A035E
S31520259370D8E74FF0030AD5E74FF0010AD2E74FF099
S31520259380020ACFE7227459E0DFF8AC1C089102E0E7
S31520259390DFF8A82C0892012308AA01215846FAF7B6
S315202593A087F815A95846FAF7BFF8002847D100F0BF
S315202593B0EDFE1FBF00984168C1F30720002818BF7E
S315202593C0029084F81080AAF101010298032900F061
S315202593D0020033D8DFE801F01D14020C029801069D
S315202593E02CD4DFF8140D3864029941F080011BE056
S315202593F020BBDFF8080D3864029941F0020113E0FD
S31520259400E0B9DFF8FC0C38640299090241F40071B1
S315202594100AE00298410611D4DFF8E80C386402994F
S3152025942001F0C30141F040010291012020742075ED
S315202594300420607501200299A161607400205FEAED
S31520259440000A78D12098C0F3405060B14FF00070C3
S3152025945006902298C0F342108DF804009DF88800C6
S3152025946000F01F080BE02098C0F3805038B12298D1
S31520259470410D01F007018DF80410C0F30448079922
S3152025948034A82029089016D19DF8D00080B10898B7
S31520259490426842F20421C2F3002010B1DFF8680C9D
S315202594A004E0C2F3C01018B1DFF8600C286107E08C
S315202594B0DFF85C0C01E0DFF85C0C286142F2040140
S315202594C069610120207340F206413963DFF8480C93
S315202594D03861079909040291059900F048FE3965F6
S315202594E0049900F044FE29604FF48C612963DFF846
S315202594F02C0C139000980168C1F3036058B100988D
S315202595004068010607D000F0FF080398002848D0B8
S315202595104FEA480845E00398002846D00798202892
S3152025952005D1DFF8FC1BDFF81C0A3960786000F0CE
S315202595304CFE5FEA000A40F0858100218DF838101F
S315202595400C91032201210D918DF828204FF40070CE
S3152025955015A910220B901191129201233A4600F05B
S3152025956038FE00F0FEFDB8B9159810F1010F02BF9F
S3152025957015A8416811F1010F07D1816811F1010F55
S3152025958004BFC06810F1010F1FD000F0D7FD0028B9
S315202595904BD001E0DDF8748044F68E6ABAF1000FCF
S315202595A0C9D19DF80400A8EB00080798209918280A
S315202595B0039840F08780002872D0ED2100F0CCFD5D
S315202595C00298014341F00A41A7E0002300222146C3
S315202595D05846FFF782F90028DED109210C9102226F
S315202595E08DF8282010210C980FF65C3A0D9B1091AA
S315202595F007EB0012CDF83CA000F0EBFD00F0B1FD05
S315202596000028C9D10023002221465846FAF785F895
S315202596100028C1D100F0E6FD0028BDD1102215A9CC
S31520259620504600F047FF0028B6D13069B17D40F07D
S315202596304000306101225846F9F7C2F8CDF87480EA
S315202596404FF0020A4FF0320801E00AF1010AB8F17B
S3152025965001089FD019A8FFF786FD316A149A9142F1
S3152025966027BFDFF8C01A1991DFF8BC2A199213995A
S315202596700AF0FF0008431A90012319AA002158460B
S31520259680F9F716FF00F0AEFD002809907FF482AF8A
S3152025969000F054FD0028D8D1D046DDF824A07DE75A
S315202596A0C1F3405010B12299090A2FE0C1F3805009
S315202596B010B12299090E29E003214FF000088DF8D3
S315202596C0040023E008B1EE2178E79DF8D00070B19B
S315202596D008984168C1F3401018B1EC214FF000726B
S315202596E015E0C1F3001060B16C2100220FE0C1F313
S315202596F0405008B1EC2109E0C1F3805008B16C2116
S3152025970004E04FF0000813218DF80480069AC9B28B
S3152025971002980143114341F0006141F4806139608B
S31520259720002000990A68C2F30311002918BF0529CC
S315202597306FD001294ED11F994029C0F09F802E999F
S31520259740C1F34021002900F099802E99090C11F0AA
S31520259750050F18BFA5203FD189073DD502900021A9
S3152025976014A8002200238C4680E80E108DF8302080
S31520259770099102AA03210F928DF820100121DFF8E5
S31520259780AC29149210910A910B91012314AA5846BB
S31520259790F9F78EFE08A95846F9F7C6FEC0B90299EB
S315202597A001F0F7010291012222740299090401F49C
S315202597B07F0141F0042141F08101296622750E227F
S315202597C0627504220299A1616274012189F80F101C
S315202597D05FEA000A36D101202E99890A11F00A0F4F
S315202597E00AD06FF0F92129676967079920290DD1B4
S315202597F040F2FF62AA6709E011F0110F22D04FF03F
S31520259800062129676967DFF8A41BA967012289F83C
S315202598100D209DF80410002940D1B8F1000F36D02F
S31520259820039808F0FF0168B313980843786001214F
S3152025983089F80E1000F090FC4FF0000A306940F0B0
S31520259840100030615FEA0A0840F037842046F9F790
S315202598502FFB002800F03184306AB062D9F8040045
S31520259860D9F800104000C9F804004900D9F810009D
S31520259870C9F800104000C9F8100054E19DF80410DD
S315202598808844CAE7DFF8280B08437860D4E742F2F4
S315202598900441796003980028C9D1CDE74FEA0841CC
S315202598A001F47F02039900299DF8041016D0012979
S315202598B006BF4FF4184100094FF41C4101431143BB
S315202598C041F0324141F400717960002807BF4AF200
S315202598D00461B960DFF8DC0AB860A8E7012906BF6C
S315202598E04FF4C05100094FF4E0510143114341F093
S315202598F0485141F400717960002807BF42F204617E
S31520259900B960DFF8B40AB86096E7012200E00022A4
S3152025991021465846FFF7F5FA8046D3E3C0F3035090
S31520259920052807BF01218DF8041000228DF8042073
S3152025993000980168C1F30330029000F02DFC0390B6
S3152025994000F02FFC07BF01218DF8051000228DF888
S3152025995005200298002818BF032805D1039820B191
S31520259960032801D10298A0B9ACE304A8F8F7E6FEAE
S3152025997000F023FCB8F1000F04D100F022FC5FEAA9
S315202599800008F1D1002020731021316103200F908A
S315202599900DE0032020731021316100980168C1F361
S315202599A00350042804BF5020306106210F910298C8
S315202599B00399084304BF01208DF804000298032843
S315202599C007BF082171750120707500F0FEFB5FEA3F
S315202599D00008C9D1039828B19DF80400002814BF92
S315202599E010202020DFF8D4190A1800F0F6FB0021D4
S315202599F008918DF82C10012209920A9203218DF8BF
S31520259A001C1005AA0E9207A95846F9F78DFD5FEA7F
S31520259A10000804BF9DF81400C228A5D1039805AADD
S31520259A2000280CBF907850794FF48031A0F1300270
S31520259A3001FA02F232624FF48050C9F804004FF43D
S31520259A408072C9F80020C9F8101003202073102130
S31520259A5031619DF8040080F0010B0398002804BF8E
S31520259A600298032840D10220607401210620217402
S31520259A70618260752175002207218DF80F10BBF1B3
S31520259A80000F8DF80C20DFF83809DFF8381912D0A9
S31520259A90822200F04DFBC7F864A0B86600980168BD
S31520259AA0C1F30310032819BF002189F80A100120C4
S31520259AB089F80A0012E0812200F03AFB0123DFF81B
S31520259AC008297A66B8660722237784F8212084F820
S31520259AD0203033603967C7F874A0B8670398C9F86A
S31520259AE014000398F8F726FE40F206403863DFF87F
S31520259AF0281639610298B8B901212173DFF8CC08D7
S31520259B00DFF8CC28DFF8081638607A60296142F21A
S31520259B10040068614FF48C62DFF8B818DFF8B808BE
S31520259B20396528602A63C8E2BBF1000F0CD14FF0B6
S31520259B30010C02204FF0405309214FF000524FF4DB
S31520259B40A02EDFF898A80BE04FF0210C22204FF00D
S31520259B50304329214FF020424FF4202EDFF880A8CC
S31520259B60C7F800A080024EEA000E43EA0E0343F012
S31520259B70032343F0200389027B6041F441714FEA98
S31520259B808C6343EA8C23DFF85CC8B9604CEA030C66
S31520259B90C7F840C043F0032CDFF84CE8C7F824C0AB
S31520259BA04EEA030EC7F820E0C7F828C0F96202431B
S31520259BB0DFF838181943296140F44870DFF8301842
S31520259BC00A436A61DFF82C18DFF82C281A433A65F0
S31520259BD07865194329606860DFF820080343BBF1BF
S31520259BE0000F2B6301D000F0B7FAA3E0C0F3035092
S31520259BF0072807BF01218DF8041000228DF804209F
S31520259C0000F0CFFA07BF01218DF8051000228DF827
S31520259C10052000F0C1FA88B902A8F8F78FFD00F0D3
S31520259C20CCFAB8F1000F05D102AA00F0CBFA5FEAEB
S31520259C30000826D100202073102102E0032020735E
S31520259C40502108203161707500F0BFFA5FEA0008BF
S31520259C5017D100980FF2F8720168C1F3034008B9AD
S31520259C60012303E003280CD10123103200F0B1FA99
S31520259C7008207075002205A95846FFF7A4F85FEA43
S31520259C80000840F01F8203AB04AA05A92046FFF74A
S31520259C900CF89DF8040018B9502131610320207352
S31520259CA040F20641396342F2010BDFF86C04386134
S31520259CB000F072FA03281CBFC1F3033003283DD1D7
S31520259CC0DFF83C07DFF83C17DFF83C273862396098
S31520259CD07A6040F2067038644FF4EC62DFF82C1770
S31520259CE0DFF82C07396528602A634AF20430DFF825
S31520259CF024172961686100F04FFAD8B98DF8080034
S31520259D00062182228DF80B108DF8092000F04FFAB6
S31520259D10012020740221E720A0616174012020758D
S31520259D20608206216175DFF8F0063866C7F864A0DB
S31520259D30C7F868B0022089F80C00BEE10028A0D11A
S31520259D40306A049BDFF8D426B0F1807F27BF2021F7
S31520259D508E201821C22003F0FF0343EA0143134333
S31520259D603B6540EA0140039B03F0FF0343EA014399
S31520259D701A432A604FF40E53DFF8A4261043286190
S31520259D806B619DF8040048B9DFF89816DFF8980628
S31520259D9039607860012289F80E201EE0336ACB20AF
S31520259DA0B3F1807FDFF870363B6628BFCC20DFF8FD
S31520259DB07C367B66C7F868B00C23A3614FF0010972
S31520259DC0062340EA014184F81090637584F814909F
S31520259DD011433960DFF8580678604FF48C61296382
S31520259DE06BE100BF4643464200040156C0F30350AB
S31520259DF0092807BF012103910022039200F0D1F9FA
S31520259E0007BF01208DF8050000218DF805100022B9
S31520259E108DF8042004207075102200F0BDF90290DB
S31520259E2044F68D68009801683261C1F3033A029899
S31520259E3080B904A8F8F782FC00F0BFF9B8F1000F25
S31520259E4004D100F0BEF95FEA00085ED101207075C5
S31520259E50002102E0022802D1032121730AE00328EA
S31520259E6053D10321217308227275039810B9012134
S31520259E708DF80410BAF1000F1CBFBAF1020FBAF102
S31520259E80030F42D102985AEA000004BF012103910B
S31520259E90BAF1020F08BF042003D0BAF1030F01D16E
S31520259EA00820707503983169002814BF21F04001D8
S31520259EB041F04001316158462146FEF7F5FC5FEA1F
S31520259EC0000822D103980028029807D0022803D01B
S31520259ED003280BD120200AE0102008E0022803D0F1
S31520259EE0032803D1402002E0302000E00020164937
S31520259EF0084400F1700200F070F99DF8042009A9A4
S31520259F005846FEF760FF5FEA000840F0DB8007AB86
S31520259F1008AA09A92046FEF7C8FE0320207340F289
S31520259F20064139637C4A3A61039888B929220692E3
S31520259F3022214FF430404FF420420C2310E000BF5D
S31520259F4003041808042401008C0F25200100000194
S31520259F500922069202214FF440504FF4005206233F
S31520259F604FEA0A6E0EF0407ECDF814E04FEA0A2E0F
S31520259F70DDF814B00EF4407E4BEA0E0BCDF810B06A
S31520259F804BEA816102914EEA0303DDF808B0DFF83A
S31520259F90A41441EA0B01396018430599DDF818C048
S31520259FA0084340EA8C6040F48020786042EA0E021D
S31520259FB00298DFF8841440F0201040F4806038653C
S31520259FC042F08002029808432860029BDFF86C0441
S31520259FD003432B616A614EF48C602863BAF1020F24
S31520259FE01CBFBAF1030F00201BD1049ADFF85004B9
S31520259FF042EA8C610843386240F2064141EA0E0066
S3152025A00038640021022089F80C00BAF1020FA161DB
S3152025A01008BF4FF4802004D0BAF1030F02D14FF4A4
S3152025A0200020A061039858B9A06940F40000A061DA
S3152025A0300DE000BF3F040124050401243504012435
S3152025A040306940F080003061012184F8791042F290
S3152025A0500301DFF8F0033866796601202074BAF10A
S3152025A060000F19BF0220607400216174012121751A
S3152025A070618206206075002103988DF8081060B14D
S3152025A080BAF1020F08BF412010D0BAF1030F08BF3D
S3152025A09081200BD08DF809100AE0BAF1020F08BFEE
S3152025A0A0422003D0BAF1030F08BF82208DF809007C
S3152025A0B008208DF80B0000F07AF89DF8050008B1E8
S3152025A0C000212173B8F1000F10D12046F8F741FB66
S3152025A0D000F056F800980168C1F3036030B1009866
S3152025A0E04168090F032904BF306AB0620121317501
S3152025A0F0404637B0BDE8F08F3E04022031040120CA
S3152025A10001040220010401203E04200A34042008EB
S3152025A11012042008020418080504042400B204A603
S3152025A12013042008EE04208AED04188A85040124C8
S3152025A1308DF80D200223A36139667047102215A9B3
S3152025A14001A000F0B7B900000011223344556677E7
S3152025A1508899AABBCCDDEEFF306940F040003061FE
S3152025A160704701200C900AA95846F9F7DDB90298BF
S3152025A17001F0FF01014341F0006141F48061704700
S3152025A1800098017801F00F01B17570470098016894
S3152025A190C1F303600028704700980168C1F3034086
S3152025A1A0704700980168C1F3031005287047029867
S3152025A1B0C9F814000298F8F7BDBA80460020F8F7AA
S3152025A1C0B9BA04AA2146584658E021465846FEF7EC
S3152025A1D06BBB01215846F9F76BB901230121584656
S3152025A1E0F9F766B900210C9103228DF8282015A9A7
S3152025A1F01191102212920AA95846F9F795B92DE9F7
S3152025A200F04180460C46042074B304F5E2759F1868
S3152025A2102968494201EA02067F420F4069797F4231
S3152025A22009B9E96889B9BE421ED200F01FF800286F
S3152025A23004BF29688E19F6D016E0324621464046B7
S3152025A240FEF7D2FC80B9E9688E19BE420CD2E968A0
S3152025A25036EA010002D1B81B8842EED200F006F874
S3152025A260002808BF2968EFD0BDE8F081324621466F
S3152025A2704046FEF77CBC09B0BDE8F0832DE9F043C6
S3152025A28015460424002D91B0804604D068782A7876
S3152025A290904208BF002400F084800C4604F145072F
S3152025A2A00820387003266878422818BF41284FF0A1
S3152025A2B0010902D10420022638706878822814BF25
S3152025A2C042284FF02109002101918DF810108DF893
S3152025A2D0001001220292202109A8F9F701FEE8782B
S3152025A2E03102062809AA0BD02ED3082801D012D34D
S3152025A2F02AE040F206430B43099340F2FF4005E04E
S3152025A30040F266430B43099340F29940014311617C
S3152025A310022103911AE041EA892141EA066141EAAF
S3152025A320896141F4190041F4CC0140F0660041F0E1
S3152025A3309901B9F1210F0990116103D1206C40F0C3
S3152025A34040002064022000E001200390012078703F
S3152025A3504FF0807104F150003B4A3C4B016022604E
S3152025A36003216173A1736360012184F8C8110A2230
S3152025A37042620020207321464046FEF795FA0400C6
S3152025A3800FD1039B09AA01214046F9F791F8694681
S3152025A3904046F9F7C9F804464FF47A700021F8F7B4
S3152025A3A0ADF9204611B0BDE8F0830000001E10321D
S3152025A3B00032042604A6017C0426017CCC0F252008
S3152025A3C00004012072040004000402040C04200861
S3152025A3D00830042421042008DC042008EC07130770
S3152025A3E0EE8711870603F9030503FA031203ED0306
S3152025A3F020030403DC0323032103DE0360039F03D9
S3152025A400050704A7FD07208B06B304A72107208B64
S3152025A410DC07208B1207208B81040004000400080A
S3152025A4200004000BFD04208B0CB304A700040104B3
S3152025A4300C3304270B042000D80420000204200016
S3152025A44005040400710400044643464200040156CF
S3152025A4505A0418080830FF240000000000000000D8
S3152025A4605A07208BFFA700000000000000000000EF
S3152025A470134680B50A460146184603E080B513469D
S3152025A4800A461946FEF78EF8002002BD10B5144659
S3152025A4900A462146BDE810400123F6F7B1B900004A
S3152025A4A04018491C1CBFB1F1010100F8012DF9D135
S3152025A4B07047000003000020521E22BF13F8010B0F
S3152025A4C011F801CBB0EB0C00F6D0521C08BF104674
S3152025A4D07047000010B5624A1468240A04F0010466
S3152025A4E00123641C03FA04F40460106800F00300B9
S3152025A4F0801D83400B60002010BD00002DE9F04112
S3152025A50088B0044604A8002100220023002580E8DF
S3152025A5102E006846534F544E80E82E00F8F74CFB04
S3152025A5200C25022818BF042040F097804FF4E071AF
S3152025A5302046F9F7D5FC4D484D49494A20606160AA
S3152025A540022004F1440108701068C0F34010002849
S3152025A55007BF0220887001238B704FF08050C8607A
S3152025A56003236373A373642001234B70C862414B75
S3152025A5701868000E03D018683F4F47EA10670497DE
S3152025A5803E4F05971F68C7F3074020B11E683C48F4
S3152025A590C6F30746064300961068C0F3001000B19F
S3152025A5A00D2504F5E0760127E57307FA05F0706099
S3152025A5B0681E04AD8740376004F1800795E8015170
S3152025A5C087E80151684690E8805104F5987585E815
S3152025A5D080511868C0F3C03040B900BF29A090E843
S3152025A5E0805104F1900585E880510AE001273773CB
S3152025A5F01868C0F3C030002807BF4B2070820A2573
S3152025A60075821868C0F3803040B9707304F5A87038
S3152025A61020A595E8D01080E8D01001E00124747398
S3152025A6201868C0F3C01018B11868C0F3C010088781
S3152025A6301068400A00F00300012805D002D303281C
S3152025A64008D003D3642003E0C82204E04FF4C87061
S3152025A650086301E032220A63002008B0BDE8F081B4
S3152025A6600840C0400304100C1304180846434642EC
S3152025A6700004015680CCCA400004100C083004245E
S3152025A680000418080F04C00401240000000000005F
S3152025A690000000000F04C004012400000000000073
S3152025A6A000000000F8B506460D4604201C46002D60
S3152025A6B018BF002C8AB039D00121049103208DF8AA
S3152025A6C004000D23002103938DF81410029295F88A
S3152025A6D0470028B105F5CC714A780392097804916B
S3152025A6E00422CDF820D00992002020700121039F35
S3152025A6F0049B05EB071000F180023046F8F7D8FEBB
S3152025A7000122039201A93046F8F70EFF70B905F507
S3152025A710E8721178009B002919BF5168926830216B
S3152025A7202022194091421CBF012121700BB0F0BD7A
S3152025A73070B504468AB0042041B30023009303252F
S3152025A740012304938DF8045000238DF814300292AA
S3152025A7500990012501EB05160395CDF820D0012377
S3152025A76006F1800201212046F8F7A2FE039501A9CC
S3152025A7702046F8F7D9FE48B900994A0748BF44F636
S3152025A780256003D40A0748BF44F624600AB070BD65
S3152025A79013460022F8F7DEBC70B506460D4604247E
S3152025A7A055B1F8F705FD040006D1012305F18002F0
S3152025A7B000213046F8F77CFE204670BD2DE9F84F5E
S3152025A7C08CB05FEA01091EBF5FEA030A169E002E9A
S3152025A7D04FF0040856D009F5CA7702920123396B22
S3152025A7E001FB02F404940B220592069399F847203F
S3152025A7F0002A1CBF3978002903D0797805913A7823
S3152025A8000692002201908DF81C208DF80C2009F146
S3152025A81080000599069B00EB011201980121F8F786
S3152025A82047FE0121059103A90198F8F77DFE5FEAE8
S3152025A830000818BF44F6206864D109F5E6752878FE
S3152025A84020B1E8880021F7F759FF08E0019823462B
S3152025A85000224946F8F761FF5FEA000852D10198A0
S3152025A860F8F74FFF687870B901986B462246494616
S3152025A870FFF718FF5FEA000844D19DF8000010B9BC
S3152025A88044F622683EE0A8784FF0000B70B1029876
S3152025A890796BB0FBF1F1C80708D50198012309F199
S3152025A8A0C0020021F8F704FE4FF0010BB4F1805FBA
S3152025A8B00AD20FF22850019950F821000119324663
S3152025A8C05046FDF76FFE13E0049400208DF81C00FA
S3152025A8D005900322012006908DF80C20CDF828A07E
S3152025A8E00B9603A90198F8F71FFE5FEA000809D100
S3152025A8F0BBF1000F06D00198012309F18002002122
S3152025A900F8F7D6FD40460DB0BDE8F08FF8B50546DB
S3152025A9100C460420002C8AB0164656D0002004F575
S3152025A920C6778DF80000FB6BB86B5E4346433246EF
S3152025A9302846FFF72DFF002847D100218DF8041042
S3152025A9408DF81410012205210391049294F84710BD
S3152025A95000291CBF3878002803D0787803903978C9
S3152025A960049102960398049B04EB001101F18002C1
S3152025A97001212846F8F79CFD0120039001A92846A8
S3152025A980F8F7D2FD10B144F625601EE033460022A5
S3152025A99021462846F8F7C1FEB8B93246214628462B
S3152025A9A0FFF7C6FE002804BF94F8CD1100290CD147
S3152025A9B06B46324621462846FFF774FE002802BFFD
S3152025A9C09DF80010002944F622600BB0F0BD2DE934
S3152025A9D0F0478246894604208AB01E46B9F1000FE3
S3152025A9E01EBF002E129D002D904648D0002009F529
S3152025A9F0C8778DF8000050467C6B04FB08F4224668
S3152025AA00FFF7C6FE029400218DF814100922022193
S3152025AA108DF804100696012104910795039299F83D
S3152025AA20471000291CBF3878002803D07978039150
S3152025AA303A78049209F2CD15687888B1B86BB8FBB7
S3152025AA40F0F0C1070CD50A20039099F84700002875
S3152025AA501CBF387D002803D0787D0390387D04904F
S3152025AA6009F180060398049B06EB00120121504626
S3152025AA70F8F71EFD00F040F810B144F6236038E0C3
S3152025AA808DF804000E2101220391049299F847009E
S3152025AA9018B1787B0390387B049001210398049B79
S3152025AAA006EB00125046F8F703FD00F025F810B105
S3152025AAB044F624601DE02346002249465046F8F7F1
S3152025AAC02CFEB0B9224649465046FFF731FE0028CE
S3152025AAD004BF297800290CD16B4622464946504683
S3152025AAE0FFF7E0FD002802BF9DF80010002944F657
S3152025AAF022600AB0BDE8F0870120039001A95046BF
S3152025AB00F8F712BD000000002DE9F8430D46042470
S3152025AB101646002D18BF002E8EB0814600F03A81AC
S3152025AB203068000F0C2840F035814FF400712846F7
S3152025AB30F9F7D6F9994A9A4B2A6005F130076B60C1
S3152025AB400220387503216973A9737C7532217964AE
S3152025AB50012000212973B8754FF08058C7F8208029
S3152025AB6029464846FFF718FE04003ED10AA90020AB
S3152025AB7000220023002481E81D008A4A0A9242F2F7
S3152025AB8002410B9101230AAA01214846F8F790FC98
S3152025AB9003228DF804200121022203910491099292
S3152025ABA0009402948DF81440CDF820D001A948466A
S3152025ABB0F8F7BAFC040017D1009800F0FF00FF280B
S3152025ABC018BF002844F62B640ED03168C1F30361E3
S3152025ABD00029C2BF716801F0FF02002A03DD01F0BA
S3152025ABE0FF01884200D10024002C40F0CF8001208F
S3152025ABF02873317801F00F01B9753068C0F3031039
S3152025AC00022818BF042840F0C28005F5E07180028D
S3152025AC100860400048603068C0F3032003280CD81C
S3152025AC20DFE800F002040609402008E0802006E03F
S3152025AC304FF4807003E0202001E0202829D3886066
S3152025AC404A68386AB0FBF2F28868B2FBF0F00A68E7
S3152025AC50C861B2F5805F07BF0D20E8730C22EA7321
S3152025AC603068C0F30340020009D001280AD0022803
S3152025AC700BD0042818BF082800F0888007E04FF05D
S3152025AC80806007E04FF0006004E0404602E0B0F522
S3152025AC90007F7CD34000386205F1B00240F20640A1
S3152025ACA0106042F201434048DFF800E1DFF80081D9
S3152025ACB0DFF80091386605F5987C7B66CCF800E0B0
S3152025ACC0CCF83080C2F82090CCF82000CCF824305F
S3152025ACD039483A4B38657B654FF409533848106611
S3152025ACE05366002088733068C0F3033060B1354839
S3152025ACF0354B106753673548354B106153614FF4F3
S3152025AD001A50906101238B7301202877022305F1A0
S3152025AD1021004FF0000C03704FF0060E012385F815
S3152025AD2020304FF001082B4B3B67C7F800C042F275
S3152025AD3001037B6780F804E080F803805363264867
S3152025AD40106319227A6081F810803068C0F3036079
S3152025AD50002814DD7068C0F3074000281EBF7068E0
S3152025AD60C0F3072000280AD07068C0F30740486141
S3152025AD707068C0F3072088610221397507E03020E5
S3152025AD80486120228A610220387500E014B92846B8
S3152025AD90F7F7DFFC20460FB0BDE8F0834643464251
S3152025ADA0000401569F0400040F04C0041304180848
S3152025ADB010041808D80418086B04100C08328026AD
S3152025ADC03204100C320401180C0C40226B04011895
S3152025ADD00C0C08321F04A0041F04B0040000000038
S3152025ADE0000000300000006070B50446042594B3A9
S3152025ADF02068010F0B292ED1C0F3036001282AD004
S3152025AE0048BB2068C0F303161EB1022E05D002D3F7
S3152025AE1006E0802606E0C02604E04FF4807601E091
S3152025AE20802E18D36068FDF7ECFBF60898B160688C
S3152025AE303018FDF7E6FB70B1164D2020A860324666
S3152025AE40616805F10C00FDF7ADFB2E602068C0F387
S3152025AE50012068600025284670BD7CB5054604205E
S3152025AE600C46002D18BF002C12D00A4E582106F16B
S3152025AE702C00F9F735F872683168009406F12C0311
S3152025AE8006F10C00FDF77DF810B906F12C01296095
S3152025AE9076BD0000342F27204FF0FF310160002298
S3152025AEA04260704730B543680468134DD318436014
S3152025AEB007E011F8013B83EA146355F8233083EA2A
S3152025AEC0042413465A1E002BF3D1046030BD70B5D9
S3152025AED04268036812F0030F0BD002F00302C2F179
S3152025AEE00402054C1D0E54F82560521E86EA0323BE
S3152025AEF0F8D103600B6070BD2409252010B5A64A1C
S3152025AF001468012304F0010403FA04F4046010688C
S3152025AF10C0F3430000281DBF1068C0F343008340BB
S3152025AF2040230B60002010BD70B59B4C9B4B2168A0
S3152025AF30C1F30021491E00F152028941C90F117022
S3152025AF401968C1F3001101B10121D17000F1210544
S3152025AF501968C1F3C001002919BF102129700826B7
S3152025AF602E702168C1F34021491E8941C90F80F8D9
S3152025AF7020101968C1F3401101B1012129741968DE
S3152025AF80C1F3801101B1012191721968C1F3C01154
S3152025AF90002919BF07210173062606731968090A90
S3152025AFA001F00701891E05290FD8DFE801F00305E1
S3152025AFB00707090B022106E0042607E0012102E006
S3152025AFC0032603E00721697001E000266E701968C3
S3152025AFD0C90A01F00701491E062914D8DFE801F020
S3152025AFE00406080A0C0E100009210AE00A260BE0A1
S3152025AFF00B2106E00D2607E00E2102E00F2603E0B1
S3152025B0001021A97001E00C26AE701968C1F3803194
S3152025B01001B10121D1722168C1F38021491E8941BF
S3152025B020C90F41721968090C01F00701072917D89C
S3152025B030DFE801F00C0406080A160E1108210CE09B
S3152025B04010240FE0202108E040240BE0802104E095
S3152025B0504FF4007406E04FF48061C0F8A81003E091
S3152025B0604FF48074C0F8A8401868C00C00F007007B
S3152025B070012805D006D3032802D003D2022102E0D7
S3152025B080E87301E00021E9731078F8B11868C0F358
S3152025B090006000B1012010711868400E00F00700ED
S3152025B0A0052811D8DFE800F0030507090B0D012037
S3152025B0B00BE0022106E0032007E0042102E005201B
S3152025B0C003E00621517070BD0720507070BD70B504
S3152025B0D004464FF48071F8F703FF04F15005012249
S3152025B0E0002004F12106AA7068710821317084F8A0
S3152025B0F020200621002232742A73217372700C2196
S3152025B100B1706A734021A965AA710121E97062721D
S3152025B1102046FFF709FF00202870687000224FF48B
S3152025B1200070A8604FF47A71012028822A71E9815E
S3152025B13001213078082808BF96F9020003D0102867
S3152025B14003D1B078401C814029654FF48061286D54
S3152025B150E9654009012168650120286684F8E020F3
S3152025B1604FF480320E4820602172FF206073A07331
S3152025B1704FF01E410020E07321614FF00070606181
S3152025B18000214FF000406260A161E061F17340200B
S3152025B190F070002070BD00000840C04080CCCA4019
S3152025B1A053454D432DE9F84FDFF8C43B1C78002C39
S3152025B1B000F1400265D18DF8031001BB8DF80240C0
S3152025B1C000258DF8015004248DF800400425D17CD6
S3152025B1D000274FF0210E0626491F0824F14602296D
S3152025B1E0A0464FF0010CCA46CB4606D290F8201031
S3152025B1F0491E8941C90F80F820105F7041E0012939
S3152025B2003FD1D17C891E04290FD8DFE801F00B090F
S3152025B21007050300052406E0042107E0032402E0B0
S3152025B220022103E001245C7001E000215970D17CC4
S3152025B230491F022906D290F82010491E8941C90F97
S3152025B24080F820100D205B78DFF8281B434319440E
S3152025B2504C7B8DF802408B7B8DF80130CC7B8DF88D
S3152025B26000404D7C0C7C91F81280CF7C91F814C03F
S3152025B27091F815E08E7D91F8179091F818A091F800
S3152025B28019B082F800C057709DF80200907082F898
S3152025B2900380157154719DF8000090719DF8011059
S3152025B2A0117382F807B082F808A082F80990967261
S3152025B2B082F80BE0BDE8F18F2DE9F84F80468B46C5
S3152025B2C01446F6F7C0FA08F15C0506460F46688847
S3152025B2D000F023F981468A46F6F7B5FA801BB9414F
S3152025B2E08A4502D828BF814511D3287890B98DF86B
S3152025B2F000005846F6F7B6FA6946404600F098F813
S3152025B300C0B99DF80000800900F0010006E045F24D
S3152025B310D0200FE00128DFD104F0A3F80028DBD0C8
S3152025B320012C04BF29780029404602D100F02AF8AD
S3152025B33000B90020BDE8F28F38B5054600200090DB
S3152025B3400C4604220121902004F092F800F0CAFB35
S3152025B35070B9DFF81C0A806895F85C10B0F57A7FFD
S3152025B36038BF4FF47A70012903D100F0B6FB10B10E
S3152025B37032BDF6F777FA012302222146284603F025
S3152025B380D1FF32BD1CB5002300F0EFF838B90222D3
S3152025B390002104F06DF80146A06900F045F816BD98
S3152025B3A07CB50546002000900E46042230780121E2
S3152025B3B004F05EF80146708800F036F804002ED198
S3152025B3C03078EF2814D101230422311D284603F095
S3152025B3D0EEFF040023D195F85C00012803D1002235
S3152025B3E000F01FF81AE04FF47A70F6F73BFA16E0CC
S3152025B3F0EE2814D195F85C00012805D1012200F00C
S3152025B40010F804000BD103E04FF47A70F6F72AFAE8
S3152025B41001230422311D284603F084FF04462046B5
S3152025B42076BD0021284647E76B46002204F03EB824
S3152025B4307CB504460D4694F85D0001280FD1DFF82A
S3152025B44030693078022803D108220021712009E0AD
S3152025B45006220521782004F00BF8746805E00822D9
S3152025B4600021702004F004F8A46901466B460022C9
S3152025B470204604F01BF810B900982870002076BDC8
S3152025B4802DE9FC478046F6F7DEF908F15E070646E4
S3152025B4908A46388800F041F804468946F6F7D3F9D6
S3152025B4A0801B61EB0A01894504D82CBF844245F2CD
S3152025B4B0D02030D308F15504DFF8B4182078012898
S3152025B4C005D178888D68854203D2054601E000B9E5
S3152025B4D0CD68E079C0B98DF80000E8B2F6F7C2F953
S3152025B4E02078012816D169464046FFF7A1FF90B955
S3152025B4F09DF80000C10748BF45F2DC200BD4404605
S3152025B500FFF740FF30B106E0012803D103F0A9FF5C
S3152025B5100028FBD00020BDE8F6874FF47A714843F2
S3152025B520F6F79BB938B500230D4600F01EF8D8B995
S3152025B530DFF83C080178022908D100F01BF800F035
S3152025B5404CF888B92046FFF79BFF32BD00F012F84C
S3152025B55000F043F840B903220021302003F088FF6C
S3152025B56000F03BF80028EDD032BD0093044600229A
S3152025B5700021A1E604220021002003F079BF38B559
S3152025B58004460D460020110000900CD100F05EFDEA
S3152025B59040B904220021802003F06AFF00F01DF81F
S3152025B5A000B9002032BD012AFBD10222002110201C
S3152025B5B003F05EFF00F011F80028F3D1DFF8B0077D
S3152025B5C0B4F860100069884228BF0146002220462B
S3152025B5D0FFF772FE0028E4D032BD01466B460022D5
S3152025B5E0284603F063BFFEB5044604F150060D46F2
S3152025B5F0B179A94230D03078002832D1DFF87017BA
S3152025B600087F70B30FF6D82090E88C006946012D67
S3152025B61081E88C0003D100218DF8041004E0280050
S3152025B62004BF08208DF8040094F82100102804BFB3
S3152025B6304FF49071ADF8021069462046FFF7B0FE0B
S3152025B64058B900F03BFA2046FFF7AAFE28B99DF8FF
S3152025B6500400082802D1B5710020FEBD45F2DD2063
S3152025B660FEBD280002D145F2D620FEBD012DF3D1FF
S3152025B67045F2DB20FEBD38B5044604F154010125EB
S3152025B6800878002804BF4878002815D100228DF88F
S3152025B690002069462046FFF7CBFE002803BF9DF8EC
S3152025B6A0005005F0010585F0010500252046FFF708
S3152025B6B069FE08B1012032BD284632BD0246012049
S3152025B6C000E0491E21B112F8013BFF2BF9D00020BD
S3152025B6D070472DE9FC41DFF8585900248046287803
S3152025B6E002280E4608F1600723D110001AD10094AE
S3152025B6F0002200214046FFF7DFFD040041D1042228
S3152025B7000021502003F0B4FE00F03EF8040038D185
S3152025B7103988A868884228BF014601224046FFF776
S3152025B720CBFD04E0012A2CD14046FFF7FBFE04463B
S3152025B73027E00AB9386C8619002100910022404657
S3152025B740FFF7BAFD04001CD104220221052003F0AF
S3152025B7508FFE00F019F8040013D103220021E020E2
S3152025B76003F086FE00F010F804000AD1A869002807
S3152025B7701DBF4FF47A71B0FBF1F0401C0120F6F77E
S3152025B78071F82046BDE8F68101466B4600223046F3
S3152025B79003F08CBE2DE9FF470546DFF8D465202129
S3152025B7A03046F8F79DFB2D20F060192240F6B8305B
S3152025B7B04FF41671706105F15007B260316105F1BC
S3152025B7C01808B87808B1002107E098F80A0000285B
S3152025B7D01CBF0228042802D10121317001E0022252
S3152025B7E032703879002804BF7879012807BF0121CE
S3152025B7F088F80D10002088F80D0000212846FFF72F
S3152025B800D1FC284603F098FE00286FD131780029EF
S3152025B81040F04881009002220121FF2003F028FED6
S3152025B8200146D8F80000FFF7FFFD00224FF47A7174
S3152025B830FFF7F8FD002859D1DFF8F8974FF48071E6
S3152025B8404846F8F74DFB0020009004220121EC20E4
S3152025B85003F00EFE00F046F9040012D1B068397BBC
S3152025B860B0F57A7F38BF4FF47A70012904D100F0DC
S3152025B87034F9040005D101E0F5F7F4FF00F026F9A7
S3152025B8800446002C1ED1D9F80000DFF8ACA7504578
S3152025B89015D10021ADF80210684603F0CFFFFE2210
S3152025B8A04946684603F0CEFF0DF10201684603F0AE
S3152025B8B0C2FFBDF80200B9F8FE10884217D000F065
S3152025B8C005F9040040F0B38000200021CDF800A022
S3152025B8D01DF8013019F80120934208BF401C491C48
S3152025B8E00429F5D30128CED845F2D520E3E0072033
S3152025B8F03870002000210C23DFF8402743431344CA
S3152025B90009EB010E5B5C9EF82020934202D1491C4F
S3152025B9100C29F0D30C2903D0401C072801D2E9E7AE
S3152025B9203870B9F808000106890E01F00101317732
S3152025B930C0F3C00101B1012179730021D9F8500046
S3152025B940386500E0491C4008FCD198F809000828EC
S3152025B95008BF88F80B1004D0102804BF481E88F885
S3152025B9600B0009F15400018879658268BA65C1689A
S3152025B970F965027C3A66407C112808D0122808D021
S3152025B980132808D0212808D0222808D00BE0072103
S3152025B99006E0032008E0012102E0042004E002213C
S3152025B9A088F80A1002E0002088F80A00F978072985
S3152025B9B009F1810020D10178C1F3401109B1062171
S3152025B9C016E00178C1F3001109B1052110E00178AF
S3152025B9D0C1F3C00109B104210AE00178C1F3800130
S3152025B9E009B1032104E00178C1F3400111B10221F7
S3152025B9F0F97001E00122FA70417A027A02EB0121DF
S3152025BA00B160C379827902EB03227261437990F87A
S3152025BA1004C00CEB032333618908B16092089B0887
S3152025BA2072613361C17A807A00EB0120B0612000F2
S3152025BA3041D101212846FFF7B5FB717841B3062967
S3152025BA4026DA327F002012B30FF2886292E8184058
S3152025BA50684680E818408DF8041098F809001028C3
S3152025BA6004BF0221ADF8021069462846FFF798FC47
S3152025BA7008BB00F023F82846FFF792FCD8B99DF895
S3152025BA8004107278914218BF45F2D72013D190B968
S3152025BA90284603F051FD70B909F580712846FFF730
S3152025BAA04BFC40B9397931B97979002912BF012959
S3152025BAB02846FFF798FD04B0BDE8F087EE218DF8DE
S3152025BAC0001000228DF804206946704701234FF483
S3152025BAD080724946284603F025BC01460122284680
S3152025BAE0FFF7EABB01466B460022002003F0DEBCA9
S3152025BAF02DE9F14F174600F15405C4B0449AE86C58
S3152025BB00D4694143A14228BF45F2D12080F02D8119
S3152025BB109842029338BF45F2D320C0F0268110469D
S3152025BB2003F0AFFC01469248019141604498407A42
S3152025BB30012808D14498026944980192FFF7F2FC1E
S3152025BB40040074D105E020B94498FFF7EBFC0400E6
S3152025BB506DD14498FFF78FFD002800F0BD80287809
S3152025BB600024002804BF687801284CD1EE6C68682B
S3152025BB70B6FBF0FBFF224FF4807103A8F8F754FAA1
S3152025BB804498407A01280CD14498019B00692A6D56
S3152025BB90B3FBF0F300FB036603A9304603F053FC01
S3152025BBA014E0A8B9019944980022FFF792FD0400D4
S3152025BBB029D12A6D4498002303A903F0B3FB040059
S3152025BBC021D1019944980122FFF783FD04001AD13A
S3152025BBD04FF4807103A8FFF771FD654E00B1012052
S3152025BBE07077802106F12000F8F77AF9002008E001
S3152025BBF003A901EBC00206F12001536841F8203044
S3152025BC00401C5845F4D3002C049710D102980028BF
S3152025BC1000F0AA804498DFF82884407A012809D1A3
S3152025BC2001984FF40072414603F00DFC040040F0C4
S3152025BC309B8009E040B9449800234FF40072414681
S3152025BC4003F070FB0400F2D12878002801BF68781C
S3152025BC500128E878002842D1E86C6968019FDFF839
S3152025BC6010B1B0FBF1F94498417A00260129C24644
S3152025BC700CD1449938460F69C71B07E0686882446A
S3152025BC800BF528718A452AD2C719761C4E4526D208
S3152025BC90E86C6968B7FBF0F200FB1270B0FBF1F097
S3152025BCA0B042F2D15046FFF709FD00281CBF9BF86C
S3152025BCB01D000028E2D10BF12001686801EB8602E0
S3152025BCC0514600B203F08BFE45F2343188421CBF23
S3152025BCD045F235329042D1D045F2D42045E002991D
S3152025BCE0DFF860734FF40070884288BF08460390BA
S3152025BCF0024604984146FCF755FC0097039A019E77
S3152025BD00DFF844E30023B01843EB030B01218B45D1
S3152025BD102EBF00970190CDF800E00099714522D1DC
S3152025BD20009700210498801859410120814228BF77
S3152025BD30009704D2049802440492CDF800E0009995
S3152025BD40714510D100970299039A914238BF0097E1
S3152025BD5005D3029A0399521A0292CDF800E000984B
S3152025BD6070453FF453AF0324204645B0BDE8F08FF8
S3152025BD7084422720F01425202DE9F34F064606F187
S3152025BD805405E7B09046E86CF26900274143914275
S3152025BD9028BF45F2D12080F0FF809842049338BFF2
S3152025BDA045F2D320C0F0F880304603F06AFBA0493F
S3152025BDB003904860707A012808BF376901D000B9F9
S3152025BDC0039F039900223046FFF7D9FB040040F054
S3152025BDD0E280049C9A4A009202974FF0000A002797
S3152025BDE022E000BB00235A464946304603F0DFFAB7
S3152025BDF016E0BAF1000F0AD14FF4007B0098FF22F6
S3152025BE005946F8F711F9DDF800904FF0010A707AB6
S3152025BE100128E6D102985A464946381803F01BFBD5
S3152025BE20002840F0B7805F44E96C8F421ED2002C53
S3152025BE30DFD0B4F5007F06D3600A4FEA402BC146F2
S3152025BE40A4EB0B04E3E70098224608EB0701FCF751
S3152025BE50A9FB0098FF22C4F500712044FEF720FB9C
S3152025BE60DDF800904FF4007B0024D0E70196287852
S3152025BE70002804BF6878012874D16868B1FBF0F9D9
S3152025BE80802147A8F8F72CF8E878002844D1684976
S3152025BE90049CCDF818800026474601F1A002B2461B
S3152025BEA00092B04626E0BAF1000F16D169680098AF
S3152025BEB0FF22F8F7B9F8009F4FF0010A0DE0009808
S3152025BEC022463946FCF76EFB0098FF22ABEB040190
S3152025BED02044FEF7E5FA009F0024686805AA39461E
S3152025BEE000B203F0C7FC059847A941F82600761C21
S3152025BEF0686880444E450DD20021002C0591D2D06C
S3152025BF00D5F804B006985C4500EB0807D7D3A4EBF3
S3152025BF100B04E2E7DDF81880FF224FF4807107A88D
S3152025BF20F8F782F8002407AA06E047A850F8241037
S3152025BF3002EBC400641C41604C45F6D30198407A37
S3152025BF40012807D10298EB6C2A6D07A9181803F04A
S3152025BF5082FA06E030B92A6D0198002307A903F055
S3152025BF6026FAC8B9039901980122FFF708FB040090
S3152025BF7011D10198FFF77FFB10B945F2D4200BE0AC
S3152025BF80019991F8E00030B9049B689901984246B9
S3152025BF9000F08AF80446204669B0BDE8F08F2DE9E1
S3152025BFA0FC41044604F160060D46B16C306CE2690D
S3152025BFB069434143914228BF45F2D12036D22046B6
S3152025BFC003F05FFA1A4F804600200090C7F80480B8
S3152025BFD000F03CF850BB04220521602003F048FAE6
S3152025BFE000F039F810BB03220521D02003F040FAB2
S3152025BFF000F031F8D0B931887869884228BF0146C2
S3152025C00000222046FFF758F980B92046FFF733FB53
S3152025C01010B945F2D42009E094F8E00028B9B26C8D
S3152025C02055432946204600F01CF80020BDE8F68118
S3152025C03084422720244527204F4E4649581525201A
S3152025C04024432720A66A95C359956A3C00220021B8
S3152025C0502046FFF731B901466B460022404603F0BC
S3152025C06025BA2DE9F041804608F1A0050E466C6CCF
S3152025C07017464CB945F2DA20BDE8F08129682046D5
S3152025C080FFF71CFB68B1761C3846471E0028F3D0DF
S3152025C0902B68224631464046FFF72AFD0028EDD05B
S3152025C0A0EAE745F2D920E7E770B5D0F8E44015460A
S3152025C0B01E4614B945F2DA2070BD2246FFF718FD33
S3152025C0C038B9324621462846FEF7F4F908B145F215
S3152025C0D0D82070BDEF000100000000000000000000
S3152025C0E0EF00900000000000000000000022FEF76F
S3152025C0F0D7B90000F8B506460424072E88B00D4684
S3152025C10000D20DB904203FE001220021F6F7A0FC3C
S3152025C1102B6804930021AA6806920091E868DFF827
S3152025C1205C170290287C51F8267000284FF4801140
S3152025C13003D002280FD006D320E000930292039144
S3152025C1400022019215E000F021F86A68009200226B
S3152025C150E868029005E000F019F80092E868029058
S3152025C1606A680391019204A93846F7F757FD04001A
S3152025C17004D169463846F7F751FD044600220021A9
S3152025C1803046F6F765FC204609B0F0BD04930692A5
S3152025C19007910022059270472DE9F84704220029A8
S3152025C1A099B0054600F0CC800868DFF8D446030F01
S3152025C1B00C2B40F0B880C0F30330002843D1CF2084
S3152025C1C02071DFF8C0260868C0F3032052F8202006
S3152025C1D00FF2CC60A2610A68C2F3031250F822003E
S3152025C1E020610022A27109780FF2D06001F00F019B
S3152025C1F050F82100A169E060B1F1807F09D8182087
S3152025C200E072602120692172B0F5803F09D3D820BC
S3152025C21015E020692021B0F5803FE1720BD3DC2083
S3152025C2200DE0B0F5805F08BF202008D0B0F5004F7F
S3152025C23006D1522003E0B0F5805F01D1212020725E
S3152025C240C721A17277E00868C0F30330022875D18B
S3152025C25064216846F7F744FE6946284600F088FAA1
S3152025C26002006BD1039E019D0127002E47BFF61E96
S3152025C27007FA06F6761CF6086FF07F418E428CBFAC
S3152025C28020231823402D4FF4807007D30C9DC5F30A
S3152025C290031507FA05F5B5F5004F00D105464FF0EC
S3152025C2A0000EF446E046C146684600EB490A9AF850
S3152025C2B0240058B107FA00F088423CBF0146C846FB
S3152025C2C086453EBFB0F5801F8646CC4609F1010935
S3152025C2D0B9F1040FE8D39DF8580028B118AF17F8FF
S3152025C2E0080017F80C700FE00DF12509202019F804
S3152025C2F018802027B8F1D80F19F81C8008BFD82018
S3152025C300B8F1D80F08BFD827E3720123A371677226
S3152025C310207260230120C4F814E0A372A661E5608B
S3152025C3202161E07107E00B78CF2B07D11822201D3C
S3152025C330FCF738F900220120207001E00021217028
S3152025C34010461AB0BDE8F08730B50546DFF83045EA
S3152025C35085B01C212046F7F7C3FD2846F6F70AFCAB
S3152025C360B8B96946284600F017F890B91821002251
S3152025C370E172A2714FF080712022A1612272C7211C
S3152025C3804FF48052A17222614FF480710122E1601F
S3152025C390227005B030BDADE6F0B50C008BB008BFD8
S3152025C3A0042534D00FF2E441012306AA0978039304
S3152025C3B002928DF8001014230222049300F09BF894
S3152025C3C0050024D1142206A92046FCF7EBF820786F
S3152025C3D0002818BFFF2813D006AA142011787F29F4
S3152025C3E002D1521C401EF9D1137819460026082061
S3152025C3F0CF0748BF761C4908401EF9D1F00701D43E
S3152025C400012504E02370507860709178A170284624
S3152025C4100BB0F0BD38B586B005460FF274442178A9
S3152025C4208DF8011000228DF8002001210DF1010340
S3152025C43003910491022201938DF81420CDF808D07A
S3152025C44001A92846FFF7A7FF18B99DF80010CA07A6
S3152025C450E5D407B030BD2DE9F84180460C461E4669
S3152025C46087B015463146204600F0F6F902460027C4
S3152025C470A01947EB0701401E61F1000122B92A00C8
S3152025C48002D00122914201D304201FE00423B94280
S3152025C4904FF0807201D8904207D313238DF80030B0
S3152025C4A0042000F014F8052304E003208DF800006D
S3152025C4B000F00DF8022204938DF818204046CDF879
S3152025C4C008D00395059602A9FFF765FF0DE10DF81E
S3152025C4D00040240A401EFAD1704780B50FF2B431A8
S3152025C4E0097886B001238DF800100022039300F0E9
S3152025C4F002F807B000BD8DF81420CDF804D001A987
S3152025C50049E730B587B004460D46FFF7E6FFF8B96B
S3152025C51000210022DFF86803037AC07ACDE90012CC
S3152025C52020280CBF052104218DF80030481E03E064
S3152025C5300DF800502D0A401EFAD104918DF81820A9
S3152025C540CDF808D000F006F810B92046FFF762FF8F
S3152025C55007B030BD02A920461DE72DE9F0438046C8
S3152025C5600F46914687B04946384600F075F904248A
S3152025C57000284ED1DFF808532969484200EA0706E4
S3152025C5804F447F42074068697F42814218BF002871
S3152025C59012D1BE423DD231464046FFF7B2FF0400B6
S3152025C5A004BF28698619F4D033E04046FFF732FFC9
S3152025C5B004002ED169698E19BE422AD2696936EAC6
S3152025C5C001002AD1B81B884227D34046FFF785FF8D
S3152025C5D004001ED10021E87A6B7ACDE900112028A6
S3152025C5E00CBF052104218DF800303246481E03E074
S3152025C5F00DF80020120A401EFAD10491CDF808D054
S3152025C60000218DF81810404602A9FFF7C4FE040024
S3152025C610CBD0204607B0BDE8F08331464046FFF70C
S3152025C62070FF0400F5D128698619C5E710B586B0AF
S3152025C6300446FFF752FF88B991498A7A8DF800205A
S3152025C640002101228DF814100392CDF804D001A9DA
S3152025C650FFF781FF10B92046FFF7DCFE06B010BD97
S3152025C6602DE9F84180460E461C4687B015462146BB
S3152025C670304600F0F1F858B9814FF86840B1411E8F
S3152025C6800E4205D1002D18BF002C01D0A04201D283
S3152025C69004202AE04046FFF720FF30BB05216846C7
S3152025C6A0F7F71EFCF87A202804D112218DF80010E0
S3152025C6B0052103E002208DF800000421481E03E011
S3152025C6C00DF80060360A401EFAD10491CDF808D01F
S3152025C6D001218DF818100395059402A94046FFF7E8
S3152025C6E05AFE10B94046FFF795FE08B0BDE8F08101
S3152025C6F0F0B500BF68A60446D6E9007087B00525A3
S3152025C700CDE900700226CDF808D004958DF818605D
S3152025C7100392059303200DF80010090A401EFAD12D
S3152025C720FFF718FF07B0F0BD0246F9B10020544B9C
S3152025C73052B1012A0DD0022A0FD0032A0BD0042A62
S3152025C7400ED0102A0FD011E01A78521E9241D20F00
S3152025C75007E008607047DB6806E09A69920A00E0E0
S3152025C7601A690A6070479B690B60704704207047D9
S3152025C7702DE9F04780460D0096B008BF042068D0E5
S3152025C78008236A460021FFF7B3FF5FEA00095AD13D
S3152025C79000983D49884218BF01205AD19DF80400AA
S3152025C7A0286002AA9DF80640641C0A2C88BF0A2404
S3152025C7B0E30008214046FFF79BFF5FEA000942D1A7
S3152025C7C064212846F7F78CFB00274FF6847A03E069
S3152025C7D0012085F858007F1CA74231D202A800EBFC
S3152025C7E0C7000178C27901EB0222B2F57F4F18BF27
S3152025C7F05245F0D100210223C6185B1E367946EA1A
S3152025C8000121F9D5C678B600B2F57F4F0DD1502E28
S3152025C81088BF5026334605F108024046FFF768FFB4
S3152025C8205FEA00090CD16E60D5E75245D3D1334650
S3152025C83005F15C024046FFF75BFF5FEA0009C7D09A
S3152025C840B9F1000F01D0484603E06868401E8041B3
S3152025C850C00F16B0BDE8F087C0B5024600200023DC
S3152025C86052184341561E06498A6963F100078742B5
S3152025C87001D8964200D30120C0BD00006807272095
S3152025C88074962720F4152520534644509F000000F2
S3152025C89005000000060000005A00000000000000E8
S3152025C8A0001000000020000000800000000001008C
S3152025C8B00000020000000400000000000001000026
S3152025C8C000020000000400002000000040000000B7
S3152025C8D08000000010B5039C240101F00F0104F00F
S3152025C8E010042143016002B1136010BD009808B1E0
S3152025C8F0019901607047FEB5DFF8E413DFF8E443BC
S3152025C900DFF8E453884212D10020DFF8E063DFF810
S3152025C910E073019000F07DF8012200F073F80FF204
S3152025C92084400168009102212A68920816E0DFF8E2
S3152025C930C41388421CD100200190DFF8BC63DFF8A0
S3152025C940BC7300F066F80C20019000F05CF80FF21D
S3152025C9505840016800910F212A68520802F00102E9
S3152025C96082F001028DF801206A462046F5F7CAFC99
S3152025C970F7BD10B5DFF868430A46A042DFF86433D1
S3152025C98008BF022104D0DFF86C43A04205D10F2130
S3152025C990BDE810401846F5F7E7BC10BD7CB5DFF895
S3152025C9A04013884212D1DFF85843DFF858530095B3
S3152025C9B00026019600230022042100F021F80D22CD
S3152025C9C00192009500230022042114E0DFF8241388
S3152025C9D0884213D100200190DFF82C43DFF82C5311
S3152025C9E000950023002200F00AF80D2001900095DD
S3152025C9F0002300220B212046FFF778FF73BD0B214C
S3152025CA00204667E70192009700230022052130461C
S3152025CA106CE7009700230022052130465AE72DE9A9
S3152025CA20FE4FAF4A904219D1491E012984BF091FBD
S3152025CA3001290BD800F0DBF800F01EF900F0A8F943
S3152025CA4000F00AF900F010F900F0FEF800F0F1F8F0
S3152025CA5000F03BF9DFF8C882B24C4FE0A54A904258
S3152025CA6054D101292DD0022903D0052929D00629DB
S3152025CA7033D100200190DFF8B092AC4D009500F01F
S3152025CA80C0F800200190AA4EAA4F00F049F80020B0
S3152025CA90DFF8A482A94CDFF8A8A2DFF8A8B200F017
S3152025CAA0C1F8002000F034F8FFF714FF00F0D4F881
S3152025CAB000F0DAF800F0C8F8042000F029F8FFF78E
S3152025CAC015FF00F0F7F800F0EBF800F0DEF800F09F
S3152025CAD0C3F800F0C9F800F0B7F801200190DFF877
S3152025CAE068929A4D009500F08CF800200190984E7A
S3152025CAF0984F00F015F8DFF86082984C00F048F939
S3152025CB0000F0AAF800F0B0F800F09EF8BDE8F78FFF
S3152025CB100190CDF800B00023002200215046704711
S3152025CB2000970023002200213046D3E601207047B6
S3152025CB302DE9FE436A4A904220D100290DD00129AC
S3152025CB404ED100F054F800F097F800F021F900F0C6
S3152025CB5083F800F089F800F077F800F06AF800F0FD
S3152025CB60B4F80020DFF8B8816E4C00F05BF800F0B1
S3152025CB7073F800F079F800F067F831E05D4A9042C5
S3152025CB802ED100290DD001292AD100F093F800F0C5
S3152025CB9087F800F07AF800F05FF800F065F800F0E5
S3152025CBA053F801200190684C684D009500F01AF83D
S3152025CBB00020684900F02AF86548FFF78BFE0020FB
S3152025CBC0664900F023F86448FFF784FE042000F028
S3152025CBD023F82046FFF78AFE60480421416001603C
S3152025CBE0BDE8F783002300220021204672E6DFF8E0
S3152025CBF070915C4D5C4FDFF81881464C00950026D8
S3152025CC000196002300220021484663E601900091E3
S3152025CC100023002200217047019000950023002241
S3152025CC2000217047019000940023002200214046D0
S3152025CC3050E601200190DFF834914D4D00950023D3
S3152025CC4000220021484645E6042001900094002331
S3152025CC5000220021404649E6042001900095002324
S3152025CC6000220021484641E6042001900097002312
S3152025CC7000220021304639E6002001900097002326
S3152025CC803C4E00220021304624E60020DFF888800D
S3152025CC90224C01900094002300220021404619E6CB
S3152025CCA000200190344E354F009700230022002185
S3152025CCB030460FE600200190DFF8C490314D0095CF
S3152025CCC0002300220021484604E6002001902E4E0E
S3152025CCD02E4F00970023002200213046FAE500003A
S3152025CCE0008041400080134070C9CA4098810E407B
S3152025CCF0DC830E4000C04140CC810E4010840E407E
S3152025CD0094810E40D8830E407C810E40C0830E40F0
S3152025CD10B0810E40F4830E40B4810E40F8830E4038
S3152025CD20A4810E40E8830E40D4810E4018840E40FF
S3152025CD30D8810E401C840E40DC810E4020840E4076
S3152025CD40E0810E4024840E40C8810E400C840E407E
S3152025CD50C4810E4008840E40C0810E4004840E40B6
S3152025CD60A8810E40EC830E40F0830E409C810E4018
S3152025CD70E0830E40AC810E40B8810E40FC830E40E8
S3152025CD80BC810E4000840E40A0810E40E4830E40D7
S3152025CD90002001900094002300220021404699E599
S3152025CDA0012070470100000001000000826A490029
S3152025CDB022F0060201F006011143816270470029FF
S3152025CDC0D0F8C01014BF41F0020121F00201C0F8AD
S3152025CDD0C01070470029816C0BD021F04001816459
S3152025CDE09201816C02F0400242F008020A438264D5
S3152025CDF0704721F00801816470470B46826C816A51
S3152025CE00006802F05DBE816A006802F0ADBE0A4662
S3152025CE10816A006802F0C0BEE0B590F807130129A3
S3152025CE200AD14023022101910A2200921522816AE4
S3152025CE30006802F021FF0EBD022908BF8023F1D00C
S3152025CE4000200EBD2DE9F84307468946154640F2B2
S3152025CE50297641F66A183868BA6A494690470446BB
S3152025CE6041F66910844218BF44451AD197F806031E
S3152025CE70022818BF032814D1444506D1386842F222
S3152025CE8010724FF0B05103F012F93846FFF7C4FF60
S3152025CE9018B91CB1B442DED100E034462046BDE89F
S3152025CEA0F2830CB140F20974002D18BF6D1EF0D106
S3152025CEB0F4E7000018B5044613A08BB000F088FFD0
S3152025CEC00D220292A16C0904039101218DF81110DE
S3152025CED002A901910022009200F01AF838B9059886
S3152025CEE0DFF8F415084206D04FF4E36001E040F25E
S3152025CEF009700CB010BDC105EAD5C0F3432007281B
S3152025CF00E6D00020F5E70000000000000000000024
S3152025CF106946204696E7000018B504460AA08BB038
S3152025CF2000F056FF0C2202920021032203918DF850
S3152025CF3010200221DFF8A42500F00CF908B140F2D3
S3152025CF4009700CB010BD0000000000000000000094
S3152025CF502DE9F0438BB007460E4600F03DFF00BF76
S3152025CF6023A203960121D2E9000502910421CDE9C8
S3152025CF70000500F069F840F6B838F4F764FC044655
S3152025CF800D46DFF8DC08F4F768FC14EB00094D4163
S3152025CF903868BA6A69469047C0B90599C7F87412A0
S3152025CFA00598B6B9002814D000245FEA080018BFD2
S3152025CFB0002CA8F1010806D0F4F745FCA942E7D3B1
S3152025CFC001D84845E4D3204600F0FFBE40F209703B
S3152025CFD0FAE7002858BF0524E7D50024C1F3417078
S3152025CFE00228E2D1386D40F480703865DDE70000EF
S3152025CFF00000000000000000D8B58BB000F00CFC26
S3152025D0000FA20321D2E9006702914FF400320121B4
S3152025D010CDE90067039200F017F82068A26A6946D1
S3152025D020904700281EBF0598DFF8B014084203BF95
S3152025D0300220A064002040F209700CB0D0BD00006B
S3152025D04000000000000000008DF8111002AA002122
S3152025D050019200917047000010B504460BA194F863
S3152025D060900200F0070251F82230DFF8F817C0F3B6
S3152025D070C30051F82000616843430A222068B3FB88
S3152025D080F2F203F03AF8606410BD0000A086010094
S3152025D09040420F008096980000E1F50580B5016D88
S3152025D0A0CA0507D500F2CD214A78002A1CBF097862
S3152025D0B000290AD100F29F210A784978521C491C59
S3152025D0C04A43C0F8FC22002002BD9202AF23C0F8B5
S3152025D0D0FC228DF80230012200238DF803208DF8BD
S3152025D0E001208DF80030694600F006F80028EAD0A0
S3152025D0F040F21E7002BD0000F0B58BB004460D46E9
S3152025D10000F06AFE11A2D2E90067CDE900672978E9
S3152025D1106878AA78EB7841EA002141EA024141EA7A
S3152025D12003610622029203910221DFF8AC2300F047
S3152025D13011F810B140F2097005E02046FFF7BAFE36
S3152025D14008B14FF4E3600BB0F0BD000000000000ED
S3152025D150000000008DF81110099202A900220191E4
S3152025D16000926946022220466CE600002DE9F84306
S3152025D17090B000F0CBFE00BF83A200F0BFFE0821B1
S3152025D180079104F1740201218DF825100491059249
S3152025D1904FF400710391002707A902AA0897019148
S3152025D1A0009269462068A26A9047002802BF0A98FD
S3152025D1B0CA49084240F0E380207B18B102280DD0C9
S3152025D1C012D31FE004F1740304F1740151F82020D1
S3152025D1D011BA43F82010401C8028F5D3ADB104F1AF
S3152025D1E07400815D2970C8E0002004F1740304F1E0
S3152025D1F0740151F8202051BA43F82010401C80286C
S3152025D200F5D3EBE74FF4E160BBE004F2031504F216
S3152025D21043136978A878090201EB004128780E186E
S3152025D220997B587C04F532724E43464356622879BB
S3152025D2306979EE7800F0ACF89662E879297AAE79A4
S3152025D24000F0A6F8D662A87AE97A6E7A00F0A0F8D8
S3152025D250166304F52A70A97F817004F22311EE7FC7
S3152025D260C6700F7807718E784671CF7887710E79BB
S3152025D270C6718F7907720E7A46728F7A87720E7BE0
S3152025D280C6728F7B07730E7C46734F7C8773CE7C45
S3152025D290C6736D7B057004F262252E7856754E7DF4
S3152025D2A00674276D3E4326658E7D46744F7E87748C
S3152025D2B08E7EC674CF7E07750E7F46755F7F9772E5
S3152025D2C09E7FD67204F26316DF7F177337785773DE
S3152025D2D0B77B17758F7F8775C97FC1751F780776A9
S3152025D2E0597841769F788776D978C176DF7E1772E9
S3152025D2F0197F5172D9791F7A090401EB07619F7924
S3152025D30001EB07215F793944C161206DC70548BFE7
S3152025D310D161987A1070197B5170587B9070997BC2
S3152025D320D170D87B1071197C5171587C9071997C5C
S3152025D330D171D87C00021062587DC10703D5206D96
S3152025D34040F4007004E0810704D5206D40F4806008
S3152025D350206505E0400703D5216D41F4006121654F
S3152025D360317B707BF37A090441EA0061B07A41EA80
S3152025D370032101431161A97A9175002001E040F22C
S3152025D380097011B0BDE8F083000000000000000000
S3152025D390000200EB0140997B8619587C4E43464373
S3152025D3A0704700002DE9F047FF26012990B0DFF8C8
S3152025D3B0BC460DD0022903D0052909D006290CD132
S3152025D3C04AF655214FF6FF7A08252160564609E06B
S3152025D3D05A2104252160B24604E0802204252260B4
S3152025D3E04FF0C00A07462068397B19B1022906D095
S3152025D3F05CD366E000BA206036BA9AFA8AFA00BF6C
S3152025D40037A02421D0E90023CDE9002307A8F6F764
S3152025D41067FD00F0E1FB0021012208918DF82520EA
S3152025D4208DF80A2004921320079007A902AA0395AE
S3152025D43006940191009269463868BA6A9047002871
S3152025D44002BFDFF898800A9810EA080F3CD1D4F855
S3152025D450009000BF24A300222260D3E90001CDE954
S3152025D460000100F032FC00F0B7FB01218DF82510D4
S3152025D4708DF80A1004910E20079007AA02A9039574
S3152025D4800594019200913868BA6A69469047002822
S3152025D49004BF0A9810EA080F19D1216889EA0100E4
S3152025D4A00640564514BF0120002012E042BA2260CC
S3152025D4B070BA9AFA9AF112BA226006BA91FA81FAC4
S3152025D4C09DE74FF4E16004E04FF4E46001E040F28B
S3152025D4D0217010B0BDE8F0878800F9FF0800F9FF14
S3152025D4E000000000000000000000000000000000F1
S3152025D4F038B5B72200F07EFC00B15FE084F8B15242
S3152025D50032BD000028680121FFF750BC286802217A
S3152025D510FFF74CBC38B5044694F82D50012D15D06F
S3152025D520022D03D0052D11D0062D20D12068FFF7F9
S3152025D530EEFF29462046FFF735FF20B92946204606
S3152025D540FFF7D6FF88B140F2127032BD2068FFF76B
S3152025D550DAFF29462046FFF725FF0028F3D129465D
S3152025D5602046FFF7C5FF0028EDD184F80753002074
S3152025D57032BD38B500F2B2250C46E9790123934010
S3152025D580194205D12979072902DB4FF4E16032BDFD
S3152025D590B92304F00F048DF8023044EA021403223D
S3152025D5A000238DF803208DF800308DF8014069463B
S3152025D5B0FFF7A2FD00B101E02C7032BD40F21E70AE
S3152025D5C032BD000078B5044623A08BB0D0E90023D0
S3152025D5D0CDE9092324216846F6F782FC022200920A
S3152025D5E00021032201918DF80920CDF828D0099113
S3152025D5F02068A26A09A9904750BB03A890E86C0029
S3152025D60004F1540104F51E7081E86C000699090E73
S3152025D61001700699090A4180069901710599090E15
S3152025D62041710599090C81710599090AC1710599D7
S3152025D63001720499090E817204990902C160039A1F
S3152025D64041EA1261C1600399090A0174002001E0AB
S3152025D65040F209700CB070BD0000000000000000EB
S3152025D660F0B58BB000F0D8F869A20921D2E9006778
S3152025D670CDE9006702910321A26C8DF811101204C1
S3152025D6800392002102AA019200912068A26A694686
S3152025D6909047002840F0B78005A890E86C0004F153
S3152025D6A0640104F5237081E86C00B30EB20F03F0F4
S3152025D6B00F0302704370320C330A8270C3700671D1
S3152025D6C0E16E0B0C0A0D03F00F030904C2800372C9
S3152025D6D003D5428942F001024281E16E4A0403D5EF
S3152025D6E0418941F002014181E16E8A0403D54189B0
S3152025D6F041F004014181E16ECA0403D5418941F0F7
S3152025D7000801418140F6FC72E16E02EA8102A16E92
S3152025D71002EB91728281A16ECA0E0B0E02F00702D0
S3152025D72003F007038273C3734A0D8B0CC90B01F0D3
S3152025D730070102F0070203F007038174027443747C
S3152025D740A16E8A0A4B0901F01F0102F01F0203F080
S3152025D7501F034175C2740375616E002903D541895E
S3152025D76041F010014181616E4A0F02F00302827554
S3152025D7708B0E8A0D03F0070302F00F028902C3756B
S3152025D780027603D5428942F020024281616ECA0380
S3152025D79003D5418941F040014181616E0A0403D5B3
S3152025D7A0418941F080014181616E4A0403D5418931
S3152025D7B041F480714181616E8A0403D5418941F402
S3152025D7C000714181616ECA0403D5418941F4806186
S3152025D7D04181616E8A0A090A01F0030102F00302DA
S3152025D7E081764276216DCA0508D4837C81890222D9
S3152025D7F05B1C491C9A405143490A81654FF40071A7
S3152025D8004165002001E040F209700BB0F0BD000013
S3152025D81000000000000000000446242102A8F6F797
S3152025D8205FBB000010B5034603F5397300201C7F26
S3152025D830072C09D8DFE804F0040A0A080C0E101272
S3152025D8401B6851188B4200D2042010BD5B68F8E76F
S3152025D8509B68F6E7DB68F4E71B69F2E75B69F0E787
S3152025D86040420F000C11252000220121FFF7B2BAD4
S3152025D87020680121FFF7A3BA2DE9F041044604F1DA
S3152025D8802C05DFF85C66287D10B940F22E70EAE07B
S3152025D89069782068FFF7C3F8287B98B12068FFF7B9
S3152025D8A02AF8697B2068FFF764F86868F3F7DAFFBA
S3152025D8B0687B411E89412068C90FFFF75AF8A86859
S3152025D8C0F3F7D0FFA87B20B12068FFF767F8FFF78D
S3152025D8D0CFFF20680021FFF769FA61682068DFF805
S3152025D8E0102602F00AFCA86142F21071206802F087
S3152025D8F059FC206804F1140102F0ECFB2046FFF7C1
S3152025D90082FA10B140F21370ADE000212046FFF7D0
S3152025D9101FFBB8B9D4F8740210F0C04F03D0686A3B
S3152025D92040F480706862E069B0F5007FA87B28BF47
S3152025D930DFF8C06508B146F0800631462046FFF758
S3152025D94007FB10B140F214708DE02046FFF73AFE12
S3152025D95010B140F20D7086E02046FFF74DFB10B141
S3152025D96040F21A707FE02046FFF77AFE10B140F28A
S3152025D9700F7078E02046FFF76FFB01212046FFF741
S3152025D9803CFA10B14FF4E2606DE000F07AF810B160
S3152025D99040F21C7067E000F06BF810B140F20A7077
S3152025D9A061E02878401E04F5407603D0401E0128E4
S3152025D9B047D949E06878052818BF06280AD0686A15
S3152025D9C0810748BFDFF820850BD4C00749D5DFF866
S3152025D9D0148506E095F8240010F00C0F41D0DFF8C9
S3152025D9E00C8500F04AF810B140F21B703BE06878B0
S3152025D9F06168052818BF0628206819BF00274246D2
S3152025DA0001274FEA580202F078FBA8612046FFF746
S3152025DA1081FD18BB57B90120B0712046FFF73EFB83
S3152025DA20002814BF40F21F7030701CE06168206802
S3152025DA30424602F062FBA86100222068FFF715FF07
S3152025DA40E9E74FF4E1600EE06878052818BF062837
S3152025DA5007D02046FFF75EFD0028DED040F2127063
S3152025DA6001E040F20C70BDE8F08100000C2E272045
S3152025DA704FF400712046FFF7CAB90022012120461E
S3152025DA8077E5002200212046FFF770BB10B5044616
S3152025DA9094F8401021B902F09AFE08B1012010BD54
S3152025DAA0012084F84000002010BD006802F0A8BEA1
S3152025DAB010B50446FFF7F9FF2046FFF7E7FF00B12B
S3152025DAC003E02046BDE81040D6E640F22E7010BD74
S3152025DAD0B0F8960210F4C06018BF0120C0B2704776
S3152025DAE07CB50446B32294F8AF628DF802200D4604
S3152025DAF0032106F0F8068DF8031000222E438DF813
S3152025DB0000208DF801606946FFF7F6FA10B140F23C
S3152025DB101E7076BD84F8AF6284F8005376BD2DE954
S3152025DB20F84F8A46914690B000F0D3F834464FF008
S3152025DB30000808B1042048E005F14C0B28E04FF4F5
S3152025DB4000700AEB4821039005910496122100F0D6
S3152025DB50B5F804BF1121079108EB09000890DBF8D9
S3152025DB600410CA055CBF4002089000F0B7F860BBD8
S3152025DB70012E0BD99DF80800002804BF9BF800101C
S3152025DB80002903D12846FFF7C7F9F8B90020B8445C
S3152025DB90DCB12F6AA74232BFE41B2746002400F0BA
S3152025DBA094F800F019F80FF2743EDEE9000100F032
S3152025DBB07EF824BFE869B0F5007F0AD32846FFF70B
S3152025DBC079F90028BBD04FF4E3606DE040F2177059
S3152025DBD0FBE740F20C70F8E702A81421F6F780B986
S3152025DBE02DE9F84F8A46914690B000F072F8002725
S3152025DBF000283446BB462BD0042055E04FF4007030
S3152025DC000AEB4B21039006910496192100F056F82C
S3152025DC1004BF182107910BEB090005F14C07089045
S3152025DC207968CA055CBF4002089000F057F800289D
S3152025DC3032D1012E0AD99DF80800002804BF39784B
S3152025DC40002903D12846FFF767F938BB0027C344A7
S3152025DC504CB3D5F82080A04532BFA4EB0804A046B6
S3152025DC60002400F032F8FFF7B7FF0FF2B82EDEE9D1
S3152025DC70000100F01CF824BFE869B0F5007F10D319
S3152025DC802968486AC101FBD52846FFF713F90028DC
S3152025DC90B4D04FF4E36706E0074604E040F2177751
S3152025DCA001E040F20C77384611B0BDE8F08FCDE97A
S3152025DCB00001D5F8E022B2F5007F70470498079138
S3152025DCC001228DF8082001287047242107A8F6F778
S3152025DCD007B9054649461E463246A3E50121DFF802
S3152025DCE018228DF825100E9207A902AA01910092D5
S3152025DCF0694601222846FFF7A5B800002DE9F043FD
S3152025DD008BB004460D46174600F066F80FF21C2206
S3152025DD1004F53971D2E90089CDE900890A7F072AD8
S3152025DD201BD8DFE802F00E0C0C1A0A0806044869EF
S3152025DD3008E0086906E0C86804E0886802E04868C3
S3152025DD4000E008688969B0FBF1F201FB120000B1F9
S3152025DD50521CAA4228BFBA4201D2042035E02068A7
S3152025DD60406AC001FBD54F434D43216DC8055CBF95
S3152025DD706D027F0223210291039501218DF8111031
S3152025DD80002202A90191009269465B4D0995FFF76C
S3152025DD90C0F840F20976B8B924210291002202A9B9
S3152025DDA0019100920397FFF7B3F868B926210291CE
S3152025DDB0002202218DF81110039202A901910092C9
S3152025DDC00995FFF7A5F800B130460BB0BDE8F083DD
S3152025DDD0D0E90023CDE90023242102A8F6F780B82F
S3152025DDE038B5B22200F006F808B1FFF7E7BB84F86C
S3152025DDF0AE5232BD0D468DF8022003218DF8031033
S3152025DE0000228DF8002004468DF801506946FFF73B
S3152025DE1073B938B5AD22FFF7EDFF08B1FFF7CEBBB5
S3152025DE2084F8AA5232BDF8B5044604F2AA250E4630
S3152025DE30287B032802DC4FF4E160F2BD6F79307828
S3152025DE4007F0870708B147F04007B32270788DF889
S3152025DE50022003218DF80310002247EAC0078DF8FA
S3152025DE60002000F037F810B140F21E70F2BD6F7118
S3152025DE70EF78307907F0E00708B147F00407F07806
S3152025DE80B178074347EAC1070320B1218DF803005E
S3152025DE908DF8021000F01EF8B8B9EF707079B8B178
S3152025DEA0B179F0792B7941EA0011CAB29A4204D088
S3152025DEB0C9B22046FFF794FF38B9317A28788842A7
S3152025DEC006D02046FFF7A5FF10B140F21D70F2BD02
S3152025DED00020F2BD8DF8017069462046FFF70CB962
S3152025DEE00080FF0080BA8C010075190300EA3206EE
S3152025DEF0E09304000080FF400800F9FF02A8D2E93C
S3152025DF000089CDE900891421F5F7EABF04460D4697
S3152025DF101646242107A8F5F7E3BF000000000000D8
S3152025DF2000000000000000000000000000000000A6
S3152025DF3000000000826A490022F0060201F006014F
S3152025DF401143816270470B46426D816A006801F054
S3152025DF50B7BD0A46816A006801F0D8BD816A006886
S3152025DF6001F002BE0A46816A006801F015BEE0B5B9
S3152025DF70016C01914023C26B00921322816A0068AD
S3152025DF8001F07AFE0EBD816A006801F035BE2DE9C5
S3152025DF90F84306460F46154640F2297841F66A1972
S3152025DFA03068B26A39469047044641F6691084425C
S3152025DFB018BF4C4505D07968DFF8D029C8681042A6
S3152025DFC014D096F8D000032818BF02280ED14C4528
S3152025DFD006D1306842F210724FF0B05102F067F840
S3152025DFE03046FFF7C4FF30B1444602E00CB140F27B
S3152025DFF0097425B16D1E002C18BF4445D0D1204665
S3152025E000BDE8F28318B5044612A08BB000F070F84F
S3152025E01000F016FA0D2202920121606DDFF86C2997
S3152025E0208DF8111000040390099200F03BF8022286
S3152025E0302046FFF7ACFF40B90598C105F5D5C0F3B5
S3152025E04043200728F1D0002001E040F209700CB0CA
S3152025E05010BD0000000000000000000018B5044691
S3152025E0600EA08BB000F044F800F0EAF90C220292BB
S3152025E0700021032203918DF810200221DFF80C2997
S3152025E0808DF81110099200F00DF801222046FFF790
S3152025E0907EFF08B140F209700CB010BD00000000CB
S3152025E0A00000000002A900220191009269467047CE
S3152025E0B018B504460CA08BB000F01AF800F0C0F96C
S3152025E0C0032202920021082203918DF8112000F0C7
S3152025E0D014F820B90598000C6065002001E040F26F
S3152025E0E009700CB010BD00000000000000000000E3
S3152025E0F0D0E90023CDE90023704702A9002201910A
S3152025E100009269462068A26A104700002DE9F04151
S3152025E110044600BF1AA090B090461F46D0E900239A
S3152025E120169ECDE900230D4600F02EF802A81421CF
S3152025E130F5F7D6FE06200790ED074FEA88000F2132
S3152025E14065F07F4581408D4387403D43012240210F
S3152025E15008958DF8252003910492059607A902AAEC
S3152025E160FFF7CDFF002802BF0A98DFF820180842BE
S3152025E17014BF40F20970002010B0BDE8F0810000E0
S3152025E1800000000000000000242107A8F5F7A8BEFE
S3152025E19038B5044651A0DFF8F857D0E9002390B0CA
S3152025E1A02421CDE90023FFF7F0FF02A81421F5F756
S3152025E1B097FE00F00EF9616D2046FFF7CAFE10B1D5
S3152025E1C040F2157088E033210791012200218DF830
S3152025E1D025200891082201210392049107AA02A944
S3152025E1E005950091019269462068A26A90470028E4
S3152025E1F003BF0A98DFF89417084240F209706BD1BD
S3152025E200207B48B1022801D046D34BE0296808BA9D
S3152025E2102860686800BA6860D5E9001204F1800094
S3152025E220C0E90012296804F1BC00090F01702A688B
S3152025E230120E02F00F02427029680A0203D543887E
S3152025E24043F001034380090D01F007010171296877
S3152025E250090C01F00F01417129680A0403D5438869
S3152025E26043F002034380890A01F01E018171297832
S3152025E270427801F00301C17169688160AAB1022A39
S3152025E28003D03CBF0221A16511E00421A165827836
S3152025E29091070CD5082209E02868696840BA2860C4
S3152025E2A048BAB8E74FF4E16016E00122A265417924
S3152025E2B04A0703D5E16D41F00401E165C079C1071F
S3152025E2C003D5E26D42F08002E265800703D5E16D34
S3152025E2D041F04001E165002011B030BD000000006D
S3152025E2E0000000002DE9FC4104460F46DFF8A05624
S3152025E2F0904600F06EF8A26D012A98BF40F20C7068
S3152025E30058D9009543463A4600212046FFF7FEFE7A
S3152025E310002830D12868217BF9B1022901D00ED3D6
S3152025E32046E000BA2860686800BA6860A86800BA1E
S3152025E330A860E86800BAE860286900BA0CE040BA07
S3152025E3402860686840BA6860A86840BAA860E86806
S3152025E35040BAE860286940BA286100F02DF8BE0049
S3152025E36000F030F824D1009543463A46012120462F
S3152025E370FFF7CCFE10B140F209701BE0E868217B3F
S3152025E38041B1022901D00ED312E000BAE8602869EE
S3152025E39000BA286100F010F800F014F814BF40F2F6
S3152025E3A01670002006E040BAE860286940BAF0E7F2
S3152025E3B04FF4E160BDE8F681E8682969000200F49A
S3152025E3C07F40704740EA1160F04000F00F0040453D
S3152025E3D070474FF480712846F5F782BD30B504463F
S3152025E3E00FF6FC008BB0FFF783FE0D4600F028F8CC
S3152025E3F0616D2046FFF7ADFD10B140F2157019E08D
S3152025E4000621012202918DF8112015B1012D0ED05C
S3152025E4100FE00390FFF771FE002802BF0598DFF86D
S3152025E4202C18084214BF40F20970002002E0022071
S3152025E430EFE704200BB030BDD2E90001CDE900017C
S3152025E440242102A8F5F74CBD78B504460FF6980089
S3152025E4508BB000F02AF909220092616DCDF828D0DB
S3152025E4600904019103218DF80910002100F018F9DE
S3152025E470002840F0C78003A890E86C0004F17001BD
S3152025E48004F1A00081E86C000699890F0170069990
S3152025E490090C41700699090A81700699C17005995A
S3152025E4A0090D81800599090C01F00F0181710599C6
S3152025E4B00A0400F0ABF84A0400F0A8F88A0403D52C
S3152025E4C0018941F0040101810599CA0403D50189F1
S3152025E4D041F0080101814FF400710278BAB1012A71
S3152025E4E04BD1C1624FF6FF730599090401F47C11BE
S3152025E4F0C160049A41EA12419942C16003D3E26D73
S3152025E50042F01002E265491C8902816235E0059BAD
S3152025E51040F6FC7202EA8302C2600124049B42EA89
S3152025E5209372C260049AC368D20E02F0070202745F
S3152025E5305B1C049A120E02F007024274049A120DED
S3152025E54002F00E028274049A920C02F00702C2741B
S3152025E550049AD20B02F007020275921C03FA02F2E4
S3152025E5608379826204FA03F3B3F5007FC36204D06C
S3152025E5705A438262C162520A826204994A0403D5A9
S3152025E580018941F0100101810499C90901F07F0112
S3152025E59041759DF8101001F07F0181750399890E2B
S3152025E5A001F00701C1750399890D01F00F01017647
S3152025E5B003998A0203D5018941F0400101810399F6
S3152025E5C00A0403D5018941F08001018103994A0472
S3152025E5D003D5018941F48071018103998A0403D5E4
S3152025E5E0018941F4007101810399CA0403D5018962
S3152025E5F041F4806101810399890A01F0030141765D
S3152025E600002001E040F209700CB070BD03D50189C8
S3152025E61041F0010101810599704778B504460FF22D
S3152025E620D0608BB000F041F802220092002103220F
S3152025E63001918DF80920CDF828D000F031F858BB66
S3152025E64003A890E86C0004F1600104F18C0081E8B0
S3152025E6506C000699090E01700699090A41800699CA
S3152025E66001710599090E41710599090C8171059943
S3152025E670090AC171059901720499090E41720499F5
S3152025E6800902C160039A41EA1261C160039909030F
S3152025E690090D0182002001E040F209700CB070BD01
S3152025E6A009912068A26A09A91047D0E90023CDE956
S3152025E6B0092324216846F5F713BCB0F8A80010F4E1
S3152025E6C0C06018BF0120C0B270472DE9F84F90B021
S3152025E6D0D0F8C840D518AC4238BF042068D34FF0AF
S3152025E6E000080FF22C650FF2206907468B469246C5
S3152025E6F01C4632E04FF40071039104960BEB48211A
S3152025E7000498059112220792012804BF1121079109
S3152025E71008EB0A00089002AB97F85C108A075CBFC5
S3152025E7204002089001218DF8251007A9DFF81C2520
S3152025E7300E9201910093012269463846FFF727FC60
S3152025E740002835D10498012806D99DF8080018B93E
S3152025E7503846FFF783FC20BBB04444B3D9E90001F2
S3152025E7603E6ACDE90001A64232BFA41B26460024D7
S3152025E770FFF70AFD02A829461422F9F713FF07F108
S3152025E780C8004168B1F5007F24BFF869B0F5007F40
S3152025E7900AD33846FFF736FC0028ABD04FF4E36082
S3152025E7A006E040F2177003E040F20C7000E00020EE
S3152025E7B079E02DE9F04F054605F1C80791B0914638
S3152025E7C0386809EB030290424FF0000B38BF04202E
S3152025E7D069D31C460FF2545A0FF24858079133E055
S3152025E7E04FF400710391049602AB0799049801EB27
S3152025E7F04B22192108910692012804BF1821089138
S3152025E8000BEB0900099095F85C108A075CBF40023E
S3152025E810099001218DF8291008A9DFF870210F927A
S3152025E82001910093012269462846FFF7B0FB00286F
S3152025E83039D10498012806D99DF8080018B9284603
S3152025E840FFF70CFC40BBB34464B3D8E900012E6A1C
S3152025E850CDE90001A64232BFA41B26460024242149
S3152025E86008A8F5F73DFB02A851461422F9F79AFE8A
S3152025E8707868B0F5007F24BFE869B0F5007F0ED310
S3152025E8802968486AC101FBD52846FFF7BBFB002826
S3152025E890A6D04FF4E36006E040F2177003E040F27D
S3152025E8A00C7000E0002011B0BDE8F08F2DE9F04F67
S3152025E8B080468BB08946D8F8C80009EB02018842E4
S3152025E8C04FF0000B38BF042058D31446DFF8BC5030
S3152025E8D00FF26C4A32E00BEB0901771898F85C00A9
S3152025E8E07F1E82075CBF49027F02039120220121D8
S3152025E8F002928DF81110099502A901910023009302
S3152025E900012200F03EF8002834D1212102910397D7
S3152025E91002A901910022009200F033F850BB26214E
S3152025E92002910022022103928DF81110099502A940
S3152025E930FFF7BAFB00F026F8E0B9B344ECB1DAE9E3
S3152025E940000198F8B560CDE90001761CA64232BFB4
S3152025E950A41B26460024FFF773FDD8F80000416A3C
S3152025E960C801FAD54046FFF74DFB0028B3D04FF412
S3152025E970E36003E040F2097000E000200BB0BDE81B
S3152025E980F08F69464046FFF702BB00000800F9FFD5
S3152025E9900C2E27202DE9F04F074607F14C068BB084
S3152025E9A0307810B940F22E704AE107F12C004178D3
S3152025E9B03868FEF7BDF897F82C0002281CBF0328D7
S3152025E9C0042801D1012400E0002407F12C01087B2D
S3152025E9D0204315D03868FDF78EFF07F12C053868BA
S3152025E9E0697BFDF7C6FF6868F2F73CFF687B411E09
S3152025E9F089413868C90FFDF7BCFFA868F2F732FFB1
S3152025EA0034B107F12C01012048703868FDF7C6FF7F
S3152025EA100020306100213868FFF78CFA796838683C
S3152025EA208F4A01F06AFB706042F21071386801F056
S3152025EA30B9FB386807F1140101F04CFB3846FFF77E
S3152025EA408DFA002877D107F1D0010120DFF814921D
S3152025EA50C8700CB1DFF810920FF2A4224FF00A08E5
S3152025EA60FFF7EAFC00F00DF940F20C753868BA6A12
S3152025EA706946904710B140F2097006E00598C0F323
S3152025EA800800B0F5D57F06D02846B8F101084AD02A
S3152025EA90A842EBD168E0306940F0080049F080486B
S3152025EAA0306140F6B8390FF25022FFF7C5FC2921EF
S3152025EAB00291CDF80C8004218DF81110F2F7C3FEB2
S3152025EAC082468B466948F2F7C8FE1AEB000A4BEBBD
S3152025EAD0010B5FEA0900A9F1010935D0F2F7B3FE4A
S3152025EAE0594531D828BF50452ED200213846FFF723
S3152025EAF030FA48BBFFF7D6FA3868BA6A904718BB6A
S3152025EB0005980028E5D500F0B3F817D4F06307F16A
S3152025EB10D009307C810624D53846FFF734FAB0B1A2
S3152025EB2040F225708CE0A842C8461DD03846FFF70E
S3152025EB3015FA0028B5D040F2137081E0306940F0EF
S3152025EB40200030610598E1E740F2147078E0032033
S3152025EB5089F803003846FFF760FD38B140F20D707D
S3152025EB606EE05FEAC810F5D5284669E03846FFF7F6
S3152025EB709FFA10B140F20E7062E03846FFF764FC2A
S3152025EB8010B140F20F705BE001213846FFF7DBF923
S3152025EB9010B14FF4E26053E0796838682C4A01F0C9
S3152025EBA0ACFA706007F12C056878012800D05CB195
S3152025EBB001213846FFF712FC10B140F212703FE0D2
S3152025EBC038680121FFF7B6F93846FFF7E1FA10B183
S3152025EBD040F2117034E04FF400713846FFF7C2F940
S3152025EBE010B140F20A702BE028781B4C401E0328D2
S3152025EBF02AD8DFE800F00205070A0122154C05E090
S3152025EC00022203E00322154C00E004220021384687
S3152025EC10FFF768FBA8B9287889F800002246796885
S3152025EC20386801F06AFA706099F80000022818BF42
S3152025EC30032809D13846FFF79AF928B140F22970D9
S3152025EC409CE640F21B70FBE70020F9E70800F9FF58
S3152025EC5040787D0180F0FA0200E1F50500D4650CA7
S3152025EC60E09304000080FF000080FF0140420F0052
S3152025EC70400003D5316941F0020131610598C10172
S3152025EC8070474FF4D571092203918DF8112008205C
S3152025EC9002A90022029001910092704710B500F139
S3152025ECA04404217A29B9216801F091FD08B1012072
S3152025ECB010BD01202072002010BD006801F0A0BDE6
S3152025ECC010B50446FFF7F9FF2046FFF7E7FF00B109
S3152025ECD003E02046BDE810405CE640F22E7010BDCC
S3152025ECE000000000000000000000000000000000D9
S3152025ECF000000000000000000000000000000000C9
S3152025ED0000000000000000000000000000000000B8
S3152025ED1000000000000000000000000000000000A8
S3152025ED200000000000000000000000000000000098
S3152025ED300000000000000000000000000000000088
S3152025ED40000000000000000040010329464A02D1A8
S3152025ED5001211150704700231350704701B408E054
S3152025ED600098401E8A080090521C1046421E0028F4
S3152025ED70FBD100980028F3D101B070470246012027
S3152025ED80116A0029FCD0116ACB07FCD4116A11F02F
S3152025ED90060F18BF002070470521C0F808110D223F
S3152025EDA0C0F808210921C0F80811704710B5044676
S3152025EDB04FF4C87121600020F3F7EAFF606010BD8B
S3152025EDC070B504460D4603212420FFF7BDFF2946AD
S3152025EDD02046FFF7E1FF2046FFF7D0FF002802BF98
S3152025EDE0A16A01F00301032938D068681F49B0FBC1
S3152025EDF0F1F60D22C4F808210C20C4F808010821B3
S3152025EE00C4F80811F820C4F808014FF47A72696805
S3152025EE101648B1FBF0F128685043FFF79FFF3820AD
S3152025EE2000F01DF8082000F01AF80C20C4F8080177
S3152025EE300D21C4F808110920C4F80801C4F80811C1
S3152025EE400520C4F808010121C4F8081120462946C1
S3152025EE50FFF7A2FF2046BDE870408FE770BDC4F8B6
S3152025EE6008013146012079E70060CC4040420F0059
S3152025EE7030B50123B2F5956F02D311F0030401D0E5
S3152025EE80042030BD846AE50701D4012030BD022443
S3152025EE900460056A15F0050FFBD0046AE50709D538
S3152025EEA0046A2506F9D5846C042AF6D341F8044B41
S3152025EEB0121FF2E7006A810701D502B900231846F9
S3152025EEC030BD70B501230025B2F5956F02D311F01B
S3152025EED0030401D0042070BD846AA60701D401202D
S3152025EEE070BD04240460066A16F0050FFBD0046A5B
S3152025EEF0E60709D5046A6606F9D5042A24BF51F8FA
S3152025EF00045B121F4564F2E7006A810748BF002388
S3152025EF10184670BD70B5856A01246E0701D4012077
S3152025EF2070BD13F0030513D1A2F1080640F2F91599
S3152025EF30AE420DD212F0070F0AD1D600FF36360A79
S3152025EF40049D3602A036B5EBD60F01D3102901D361
S3152025EF50042070BDD2088260416008210160026AC2
S3152025EF6012F0050FFBD0016ACA0709D5016A0A06E0
S3152025EF70F9D5816C042DF6D343F8041B2D1FF2E712
S3152025EF80006A810748BF0024204670BDF0B5856AF2
S3152025EF90012400266F0701D40120F0BD059F17F017
S3152025EFA0030518D1A3F1080C40F2F915AC4512D268
S3152025EFB013F0070F0FD14FEAC30C0CF1FF0C4FEAC4
S3152025EFC01C2C069D4FEA0C2C0CF1A00CB5EBDC0F66
S3152025EFD001D3102901D30420F0BD4FEAD30CC0F864
S3152025EFE008C0416010210160016A11F0050FFBD090
S3152025EFF0016AC90712D5016AC90605D5042B24BF7E
S3152025F00052F8046B1B1F0664016A0906F0D5866C27
S3152025F010042DEDD347F8046B2D1FE9E7006A8107F8
S3152025F02048BF00242046F0BD092804BF4FF40060C0
S3152025F030F5F7C3BC04207047034610B50020022BE4
S3152025F04002D11023102402E00023002404200B6083
S3152025F050146010BD10B504780B785C4004700A78CE
S3152025F06054400C7001784C40047010BDF8B500262C
S3152025F070022A04460D4618D114E02718391FA0194F
S3152025F080FFF7E8FFA219F91E501CFFF7E3FFA01989
S3152025F090B91E801CFFF7DEFFA019791EC01CFFF7BD
S3152025F0A0D9FF361DA81B8642E7D3F1BD7CB5324D47
S3152025F0B0E868016901F18C064FF47A70F2F7CDFBE9
S3152025F0C001A96846F9F77AFAF3F774FD002488B979
S3152025F0D00098F9F7CDFA68B1F9F774FA18B10199BC
S3152025F0E00098F9F778FA748A4FF6FF70844208BF9C
S3152025F0F041F28834204601F099FBE86118B9019937
S3152025F1000098F9F768FA73BD38B51B4CE069016993
S3152025F11000291EBF096800298847E2695069002809
S3152025F1201FBF01680029104688472069016888473E
S3152025F130E569206941688847E868C1680029F8D0CB
S3152025F14028468847F5E710B5F9F7BDFAF3F757FDB1
S3152025F150094CE06801688847F2F742FB2068016878
S3152025F1608847E06841688847FFF7A0FFFFF7CCFF6F
S3152025F17000F005F8002010BD10002720FEE701200D
S3152025F18080F3138830BFFBE7DFF84006DFF840160B
S3152025F1900A68D30709D401684A07F7D5016841F0DB
S3152025F1A00401016045F20A20704700207047014678
S3152025F1B0042901DC020002D145F20C207047DFF834
S3152025F1C0142600F0070010600329506820F00E0051
S3152025F1D0506003DC506840F008005060022908DCA6
S3152025F1E0506840F00400506003DA506840F0020071
S3152025F1F0506000207047DFF8DC05006810F0070016
S3152025F20001D0052800DB042070470828DFF8C4151F
S3152025F21013D1012008604A6822F00E024A60486808
S3152025F22040F008004860486840F004004860486877
S3152025F23040F0020048600020704710280DD102209A
S3152025F24008604A6822F00E024A60486840F00800A5
S3152025F2504860486840F00400ECE745F20E207047E8
S3152025F260DFF868050168CA07FCD5016841F0010168
S3152025F27001600268910706D5026842F00202026003
S3152025F28045F20920704700207047F8B505460C46FB
S3152025F29016461F46FFF7AFFFB84203D03846FFF77D
S3152025F2A086FF70B9DFF82415086840F0010008604C
S3152025F2B04E664D65DFF8200504190C66BDE8F1403C
S3152025F2C0CEE7F2BDF8B506460D4614461F46FFF78E
S3152025F2D092FFB84203D03846FFF769FF08BBDFF80F
S3152025F2E0EC74DFF8F404396841F0010139607E6554
S3152025F2F045193D66FFF7B4FF98B90798796F28B168
S3152025F3000698102802D10220102201E00420082286
S3152025F310002303E004F8011B5B1CD1408342F9D36B
S3152025F3200020F2BD2DE9FC470646994600245FEAD2
S3152025F33009008A46154607D096F82100102803D1BC
S3152025F34010274FF0020802E008274FF00408307AEC
S3152025F350012829D10A220021002000F089F801461A
S3152025F36044460020884601E02D1BA244A5420AD307
S3152025F370CDF8049000970423B06952464146FFF7FD
S3152025F380A1FF0028F0D052460446414645B13CB956
S3152025F390CDF804900097EBB2B069FFF793FF0446AA
S3152025F3A096F82100FFF731FF2046BDE8F6872DE99F
S3152025F3B0F04707468946164600243BB197F8210093
S3152025F3C0102803D102254FF0100A02E004254FF01C
S3152025F3D0080A387A01282BD10B220021002000F09B
S3152025F3E047F8804601E0761BA944AE420DD300227C
S3152025F3F0002001E000F01FF8A842FBD3B8690423BA
S3152025F4004146FFF742FF0400EDD06EB164B90022D4
S3152025F410002001E000F00FF8B042FBD3B869F3B223
S3152025F4204146FFF732FF044697F82100FFF7EDFE08
S3152025F4302046BDE8F08719F8001000FB0AF399400D
S3152025F4400A43401C704780B50B4601461846F9F7F6
S3152025F450A9F8002002BD80B5F9F7A4F8BDE801403A
S3152025F46092E6DFF86C030068400800F0010070473B
S3152025F4700907090E41EA002102F00F0242EA01009E
S3152025F480704710B500F118021068537B4118012BDF
S3152025F4900AD1D27A4FF0FF3421FA02F3501C04FA0E
S3152025F4A002F2834091431943084610BDF8B5C74E4D
S3152025F4B00446306840F0010030601D4601F00F00FB
S3152025F4C0062801D101271BE00A28FBD088B101286F
S3152025F4D008BF012719D008280DD1012700207465DA
S3152025F4E000B17266BC4841183166FFF7B9FE70B186
S3152025F4F0F2BD012700E00027072818BF0B2804D0D6
S3152025F50000281CBF01280928E8D10120E7E70FB1EB
S3152025F510706F28600020F2BDB04A904208D2400B79
S3152025F520002201E04008521C0028FBD10A707047B2
S3152025F53045F20B2070470000F8B50446A8492068F7
S3152025F540884201D00420F2BDF2F742FE2046F3F789
S3152025F55015FA207B082860DAF2F712FEF2F734FE38
S3152025F560A04D286820F002002860296841F0010175
S3152025F57029602868C107FCD4BFF34F8FBFF36F8F4F
S3152025F580286840F002002860217A012940F004816C
S3152025F59004F121063778286A00F47C602862286AD7
S3152025F5A02169090B40EA0130286269466069FFF71F
S3152025F5B0B3FF00286BD1286A00F01CF92862286A37
S3152025F5C040F001002862286B00F47C602863286BB4
S3152025F5D0A169090B40EA013028636946E069FFF7EE
S3152025F5E09BFF002853D1286B00F004F92863286B4C
S3152025F5F040F001002863686800F07F406860F07B52
S3152025F600042800F2C680DFE800F0130F0B0317004D
S3152025F610696841F48021696012E045F21220F2BD25
S3152025F620686840F480400AE0686840F4806006E017
S3152025F630686840F0400002E0686840F00400686091
S3152025F64068686860296821F0800129602868317CEE
S3152025F650C90101F0800108432860296D62480140CF
S3152025F6602965296D94F82000C00100F0800001430A
S3152025F6702965F07848B1412807D20021400800287D
S3152025F6801CBF4008491CFAD104E045F21020002869
S3152025F69012D174E00906286D090D01F07001014388
S3152025F6A029653078082808D0102803D1286D40F000
S3152025F6B0010003E045F20E20F2BD286D286531793B
S3152025F6C0B078012904BF401CC0B2A0F10901082940
S3152025F6D05CD2C0F110000006296D000C00F4E06014
S3152025F6E00843286504F14100C27A41780378120639
S3152025F6F002F0706242EA01724179090501F470012E
S3152025F7000A430179090401F470210A43C1780903C2
S3152025F71001F470410A438178090201F470611B01C5
S3152025F7200A43F17F03F0F0031A4301F00F010A4340
S3152025F7306A65817A427A0906920401F07C5102F49F
S3152025F7407C021143027A120302F47C321143C279D8
S3152025F7508079920102F47C62114300F03F00014337
S3152025F760A9657078810842088900520001F00401B4
S3152025F77002F00202114300F001000843E8651B4808
S3152025F780A8603846FFF741FD48B1F2BD45F2112064
S3152025F790F2BD45F20F20F2BD45F20820F2BD2968BB
S3152025F7A01348A27B0140607B000641EA024100F016
S3152025F7B0F8500143E07B800000F0040001432960D6
S3152025F7C00020296821F002012960F2BD3C400D4028
S3152025F7D0C0400D4094400D4000005AA501000080F0
S3152025F7E053454D4300400D400EF8FFFF8540400010
S3152025F7F0FBFF00E09DF80010490001F03E0108437B
S3152025F800704700210180704770B5048800250EE0D9
S3152025F8104B5D84EA032408236600240444BF86F42A
S3152025F820805686F021065B1E3446F5D16D1C954201
S3152025F830EED3048070BD00880880704744F64E714B
S3152025F8400180704770B5048800250EE04B5D84EA5B
S3152025F850032408236600240444BF86F4004686F044
S3152025F86005065B1E3446F5D16D1C9542EED30480E4
S3152025F87070BD0000F8B504460E4615460321684698
S3152025F880F4F72EFB0027DFF814E123463246002124
S3152025F8902AE012F8010B1EF8000000F03F06714001
S3152025F8A0400620D57C408DF80140FE439DF800403A
S3152025F8B07440B3F5007F8DF8004014D19DF80200E1
S3152025F8C03C0A00F0FD0680EA440000F002003043A1
S3152025F8D08DF8020000F0FE06E443604000F00100AA
S3152025F8E030438DF802007F1C9F429DF80140D0D3DE
S3152025F8F0B3F5807F05D19DF8020040F003008DF8F1
S3152025F90002009DF800209DF80200520840EA810059
S3152025F9109DF800108DF8020001F0FD0141EA440111
S3152025F92001F0FB0141EA820101F0F701620800F0AE
S3152025F9303EF8920841EA021101F0DF01A20800F003
S3152025F9402FF8D20841EA821101F07F01E20841EA27
S3152025F950C211297022099DF80010C1F3001141EA30
S3152025F96042019DF8002001F0FB01520941EA82015E
S3152025F97001F0F701620900F01AF8920941EA02110D
S3152025F98001F0DF01A20900F00BF8D20941EA821124
S3152025F99004F080040C436C70A870F1BDFC12252060
S3152025F9A041EA42119DF8002001F0BF01704741EA46
S3152025F9B0C2019DF8002001F0EF01704710B50346DE
S3152025F9C000200A46511E4AB113F8012B14001EBFEA
S3152025F9D002F0010420185208F8D1F2E710BDFEB531
S3152025F9E004460D461646032101A8F4F779FA01AAFD
S3152025F9F029462046FFF73EFF002001A90A5C335CF5
S3152025FA005A400DF80020401C0328F7D303216846C9
S3152025FA10FFF7D4FFB4F5807F08BF0B2703D0B4F5B5
S3152025FA20007F08BF0C2710B945F23430FEBDB842F9
S3152025FA303ED19DF802109DF800300A09C1F3C00079
S3152025FA4002F002024909104301F0040108439F08E8
S3152025FA50C3F3400107F00207DE08394306F0040602
S3152025FA601B099DF80120314303F008031943D300D0
S3152025FA7003F010039700194307F020075300394355
S3152025FA8003F04003194302F080021143B4F5007FA9
S3152025FA9005D19DF80220D20102F4807211436A5CB9
S3152025FAA0012303FA00F05040685445F23530FEBD57
S3152025FAB0012802D145F23730FEBD45F23630FEBD4E
S3152025FAC0F0B504469BA016461F46D0E900238BB0E9
S3152025FAD000F042F8072202921FB13604039601212F
S3152025FAE001E0002103918DF81110002202A9019130
S3152025FAF000F04DF8002802BF05983349084214BF67
S3152025FB0040F2097000200BB0F0BD000078B5044600
S3152025FB108AA01646D0E900238BB000F01DF80121D6
S3152025FB2037228DF811100292002102AA009136045F
S3152025FB300192039600F02CF8002803BF0598224948
S3152025FB40084240F2097004D1800654BF40F20C7059
S3152025FB5000200CB070BD00000D46CDE900232421E0
S3152025FB6002A8F4F7BDB9000030B5044675A08BB0C0
S3152025FB7000F038F802A9002200E000000191029247
S3152025FB8000F005F808B140F209700BB030BD00929F
S3152025FB90694620462847000078B504466BA01646B8
S3152025FBA0D0E900238BB0FFF7D7FF0121102200F0E3
S3152025FBB00DF8002802BF05980349084214BF40F2D4
S3152025FBC0097000200CB070BD0800F9FF8DF81110C2
S3152025FBD00292002102AA00910192039669462046A7
S3152025FBE028470000D0E90023CDE900230D4624210E
S3152025FBF002A8F4F775B9000030B5044655A08BB098
S3152025FC00FFF7F0FF0B2202920021039101228DF8A6
S3152025FC10112002A901910022FFF7B9FF10B140F268
S3152025FC20097026E0606A10F0706F40F22A751DD1A2
S3152025FC30D4F8C00040F00200C4F8C00041F2883054
S3152025FC40F1F710FED4F8C00040F48070C4F8C00047
S3152025FC504FF47A70F1F706FED4F8C00020F48070B0
S3152025FC60C4F8C000606A10F0706F01D1284600E004
S3152025FC7000200BB030BD00002DE9F047044600BF1B
S3152025FC8036A015461E46D0E90023B0B08946CDE9D3
S3152025FC900023DDF8E0A0DDF8E480242107A8F4F789
S3152025FCA01FF902A81421F4F71BF9802110A8F4F7CF
S3152025FCB017F901270020079508908DF825700396BA
S3152025FCC0049710AB07AA02A90593019200918DF8F6
S3152025FCD00B7000F029F806E000F026F80A212046C8
S3152025FCE000F0DBFC002769462046C84700280ED1B0
S3152025FCF0E06B4102F7D4A06E10F0802F18BF002F9D
S3152025FD00EAD1E06B010205D440F2297009E040F2E0
S3152025FD10097006E0206C20F470602064206C206435
S3152025FD20002030B0BDE8F0870123424651462046C3
S3152025FD3000F0BDBC0000000000000000000000000F
S3152025FD400000000000000000000000000000000068
S3152025FD500000000000000000000000000000000058
S3152025FD600000000040010329DFF88C2902D101215A
S3152025FD70115070470023135070470029816C03D0FA
S3152025FD8041F0010181647047490849008164816AEF
S3152025FD9021F4407181627047826B22EA01018163D9
S3152025FDA07047000010B501465FF0000005A2C3B2DA
S3152025FDB052F823308B4203D0401CC4B2032CF6D3F1
S3152025FDC0C0B210BD000000000080414000C0414067
S3152025FDD038B504460D46626BDFF820190A40626362
S3152025FDE0DFF81C19FFF7D8FF2046FFF7DBFF00F0C9
S3152025FDF091FC0CD001000AD4012200F01F00DFF867
S3152025FE00043900F081FCBFF34F8FBFF36F8F616BF1
S3152025FE10DFF810090143616315B1A16B0843A0637F
S3152025FE2031BD70B5034600299D6C25F0360556D083
S3152025FE30C878032808D1986A20F480309862986A71
S3152025FE4040F4003098624BE0586A840702D541F683
S3152025FE50641070BD8E68B6F5803F05D20C69C868DA
S3152025FE60002C08BF002801D1042070BD08B145F01B
S3152025FE701005022E05D3087845F0220508B145F050
S3152025FE800405487850B1D3F8C80040F48050C3F80B
S3152025FE90C80045F080058868186007E0D3F8C800B3
S3152025FEA020F4805025F08005C3F8C800C87802289C
S3152025FEB00BD058684C68896800F46040C4F30C045C
S3152025FEC0204340EA0140586005E0986A40F48010B6
S3152025FED045F022059862106840F4001010609D6454
S3152025FEE0002070BD10B54A7AD2B102694B7ACA6014
S3152025FEF0032B15D142690A61042283694B61C069A6
S3152025FF00886101EB820083681B02022A836003D362
S3152025FF10446843EA146383601046421E0028F0D1C4
S3152025FF20C86970B14A7A012A18BF022A03D0082A3D
S3152025FF3018BF062A05D1C968084202D041F666109F
S3152025FF4010BD002010BD70B5034610465C6C9A6C1A
S3152025FF50D50704F0FF040AD400F01FF805E01D6A32
S3152025FF60CE6846F82050401C521CA242F7D370BDBD
S3152025FF7030B5034610465A6C9D6CC2F30744EA07F2
S3152025FF800AD400F00AF805E00D6955F820501D62BF
S3152025FF90401C521CA242F7D330BD4A6812F0030FEB
S3152025FFA004D0151D02F00302AA1A4A608D684A68F4
S3152025FFB05543AD08AC4202D22D1AAC4200D92C4667
S3152025FFC00022704730B5C3680C6A426AD5072AD401
S3152025FFD00A7A042A2AD04D7A6D1E082D11D8DFE8F3
S3152025FFE005F005080B0E0E050805050044F4D0146A
S3152025FFF007E044F4D81404E044F4102401E044F442
S3152026000000340D68032A08BF44F44004DFF8182775
S315202600102D06134005F07C554A682B4304F47B04B1
S3152026002023438260C360097A042903D1816B490858
S315202600304900816330BD70B504460D46FFF7B2FEF2
S315202600400FF2247210560321FFF78CFE42F210720D
S315202600504FF08071204600F02AF8A16A626CE36A86
S315202600602879AE79000121F44C7100F03000014345
S31520260070687902F0E0220243E879000242EA064243
S3152026008000F4F8500243287A000600F0F85002437E
S31520260090286860F31343E3626264A1620021A06CA0
S315202600A020F00900A0642046BDE8704090E610B5F1
S315202600B0C46A01F0E0631C43C46201E042B1521EC9
S315202600C0C36A0B42FAD1100018BF0120C0B210BD58
S315202600D00020FBE710B5026C130C4FF4007003F0DA
S315202600E00703984088604FF6FF74DFF84006CC60F9
S315202600F0024042F030020A6110BDF0B50346104692
S315202601009D6C0026002200244FF480772D0744BFBD
S3152026011001244FF40077B1FBF0F595B3B1FBF5FC3E
S31520260120604538BF6D1C102D17D92A0900E0521CB0
S31520260130B7FBF2F002FB10700028F8D1012AF6D080
S31520260140B5FBF2F600E0761C02FB06F0A842FAD3AF
S31520260150B1FBF6F0B0FBF2F10BE01020B0FBF5F088
S315202601606843D0F11000B1FBF5F108BF2A4602D02C
S315202601702E4606B1761E22B1002C14BF022001205F
S31520260180C240D86A36016FF30F1006F0F006120227
S31520260190064302F47F421643DE62586A0207FCD5DE
S315202601A00846F0BDC26A42F00062C26201E041B151
S315202601B0491EC26A1301FAD4080018BF0120C0B20C
S315202601C070470020FBE72DE9F84281461846002590
S315202601D021F04043110518BF41F668105DD110F075
S315202601E003011CBF061D701A4FF6FC77B0FBF7F7E6
S315202601F04FF6FC7606FB170101B17F1C07990129CC
S315202602000AD1AC4601E00CF1010C9C4504D219F822
S315202602102C40E407F7D4654605EB4707BB421CD29C
S3152026022003203AE04FEA043E49F825E000284EF01E
S31520260230110E49F825E0CCF8042014BF4FF0210EE4
S315202602404FF0000E4EEA020ECCF804E04FEA940C4C
S3152026025018BF001B02EB8C02AD1C00290CBFBE4624
S315202602609E46754509EB850C08D2B04288BF344692
S31520260270D8D800280CBF04240446D3E75CF8040CFF
S3152026028040F0020001294CF8040C05D159F8270024
S3152026029040F0210049F827000020BDE8F2822DE90A
S315202602A0F84F0A9D8900C908022D04BF121D1B1F5F
S315202602B012F003044FF0000A18BF41F6681078D1D1
S315202602C013F003041CBF1E1D331B4FF6FC76B3FB0F
S315202602D0F6F8344604FB18340CB108F10108022D31
S315202602E011D1002400E0641C8C4204D210F834601C
S315202602F0F607F8D4A246D04408F10104A14207D233
S3152026030035B1032055E04145F5D2002DF9D0F2E747
S315202603104FF0704906461C4693461DE0CDF80090C0
S315202603203A465946684600F0DFFA002843D1009817
S31520260330311D41F83A003904002C46F83A1014BFEC
S3152026034021200020084346F83A00B8080BEB800BFC
S3152026035004B1E41B0AF1010AC2450AD24FF6FC7003
S31520260360844288BF0746D9D8002C0CBF04272746A7
S31520260370D4E745B906EBCA0050F8081C41F002011D
S3152026038040F8081C14E0CDF800900422DFF8A013CC
S31520260390684600F0A9FA70B90098311D4FF48022DC
S315202603A041F8380046F83820DFF8880346F8380022
S315202603B00020BDE8F28F41F66510FAE738B50D46DE
S315202603C00446297851B912F0030002D041F6681066
S315202603D032BD002B0CBF2260A2650FE000202060D4
S315202603E04FF0704100916846AA68696800F07CFA49
S315202603F010B141F6651032BD0098A065A16ADFF8D6
S3152026040038030140A162A16A28786A780002D206BA
S3152026041000F4407002F0605210430143A162A06CA2
S3152026042040F00100A064002032BDF8B516460546E8
S31520260430F4680F4604B93469387850B1022814D0A6
S3152026044018D200F01AF8FFF7BEFE397803290BD00A
S3152026045050B9F178032907D073782246394628469B
S3152026046001B0BDE8F040A9E7F2BD00F006F8FFF797
S3152026047016FFEAE741F66510F2BD00932246736819
S31520260480B068B9684343786870472DE9F84F5768AE
S315202604901468012500F0FBF80646306BC30402D506
S315202604A000F0EFF83DE0002C18BF00290ED06AB9DF
S315202604B0E078022808BF012303D003280CBF022395
S315202604C0002322463046FFF7B0FF20B100213046D2
S315202604D0FFF753FC002507F1200221463046FFF779
S315202604E0A0FC08B104201CE039463046FFF76AFDF9
S315202604F024B1E078411E8941C90F00E00121002060
S31520260500002241F66A1B09B918E0326BDFF82C0265
S315202605100242FAD05001DFF8288204D55846C6F87A
S315202605203080BDE8F28F12F4702F18BF0120F6D145
S3152026053039463046FFF7D6FCC6F83080002CF0D058
S315202605400028EED14FF000090021ADB9E068636896
S31520260550002803F003014FF0B8774FF0806856D075
S3152026056000200022824611B11B1D5B1A6360A568F6
S3152026057061684D433FE0316BDFF8C8010142FAD06E
S31520260580480148BFD94612D4DFF8BC21114206D0ED
S31520260590A07808B1C80202D54FF0010907E0E07815
S315202605A0032804D1DFF88811E26808681060DFF88E
S315202605B09C012AE0326BDFF898110A42FAD0E178BC
S315202605C0012901D191061ED4530106D5C6F83080BD
S315202605D0DA4602213163D14651E012F0B87F02D0A5
S315202605E0A17861B13763024621463046FFF7ABFC38
S315202605F0202131630022B0EB950FDCD3E9E74FF0BB
S31520260600010A3763E5E744F22000306337E000220B
S3152026061011B11B1D5B1A6360A368616801FB03F594
S3152026062012E0326B0A42FCD0510117D412F0B87F61
S3152026063002D0A17871B13763024621463046FFF7AC
S3152026064097FC102131630022B0EB950F0BD2DFF8F1
S315202606500411E7E74FF00109376304E0C6F8308036
S31520260660D9460CE0326BDFF8F0100A42FAD012F0A7
S31520260670B87F03D0A07808B94FF0010931634846E0
S315202606804FE74FF48050306341F66910704714B116
S31520260690E278012A00D000227047826E61F30E226C
S315202606A08266806E10F0802018BF0120704710B514
S315202606B0B3B1836C43F00073836401F0FF01D0F855
S315202606C0CC40264B1C401204214302F4E02211433F
S315202606D041F08071C0F8CC10C16B41F4400108E08E
S315202606E0D0F8CC1021F08071C0F8CC10C16B21F443
S315202606F04001C16310BD00000060CC40C0AE80EA38
S315202607003F517F1580E100E002FA00F0490943F8BF
S315202607102100704712A131F910006FF07F0398420D
S3152026072070470000FF507F15FFFF04C00700F00723
S315202607302C2F272021000400FFFCFFC701000F00D5
S3152026074001000F040200701500007011024070157A
S3152026075020007005100070050200700100FFF8FFCA
S3152026076080FF850086000000FF757600FEB50A46C6
S315202607700446106878B1694600200023002581E8C2
S315202607802900022301218DF800308DF80110082139
S31520260790194B0193029169462046FFF776FE0546B8
S315202607A0012D12D1666AF00742F2107705D53A4610
S315202607B04FF000712046FFF77AFCB00705D53A465A
S315202607C04FF080612046FFF772FC2846FEBD10B505
S315202607D004460F20A060022180206073A073217317
S315202607E00820E073207404F108012068FFF723FC13
S315202607F00249A162002010BD0C2F27206D07262036
S3152026080038B500F148040023A16F21F00201A16723
S315202608100022256825F0080525600021FFF747FFD9
S31520260820226822F01002226031BD00002DE9F84F01
S3152026083004462B482B4FC16808694FF0000800F163
S315202608408C063D4609E0317C014205D06B69EA6873
S315202608509969536828469847183528680028F2D17A
S315202608604FF47A70F0F7F9FFA0FB049501FB0455A7
S31520260870F0F7E9FF82468B46002D08BFB9F1000F17
S315202608800AD0F0F7E0FFB0EB0A0061EB0B01A94294
S3152026089022D828BF48451FD23C4600E01834216876
S315202608A00029E9D0327C0A42F8D0E1680A68204637
S315202608B090470028F2D05FEA0408DDD009E0317C93
S315202608C0014218BFB84503D0F9688A68384690474A
S315202608D0183738680028F2D14046BDE8F28F00BF87
S315202608E0100027201C14252070B504460D461646D2
S315202608F0F2F7EBF9D0B1002076190C220EA142434D
S3152026090011440B689D4224BF4A68B2420CD24A68DB
S31520260910954238BFB2420CD39D4238BFB34208D344
S31520260920401C0228E9D301E0886845192560002065
S3152026093070BD41F6651070BD0000FE1F0000022026
S315202609400000220000000000000004000000200015
S31520260950BFF34F8F124913480A6802F4E062024316
S315202609600A60BFF34F8F00BFFDE70F480F4A416845
S3152026097013680068C10748BFFFF7EABF70470A48D1
S3152026098041680068820748BFFFF7E2BF70470648DE
S3152026099041680068020748BFFFF7DABF70470000A4
S315202609A00CED00E00400FA0524ED00E0A8EF00E0B7
S315202609B001294FF4801002D1044908607047044A61
S315202609C01060BFF34F8FBFF36F8F704700E100E0B3
S315202609D080E100E040010329DFF8842102D10121AC
