S0130000666C6173686C6F616465722E737265638C
S3152020840080DE22201DB021207B882020B9932120A8
S315202084107B8820207B8820207B882020000000004D
S315202084200000000000000000000000007B882020C3
S315202084307B882020000000007B8820207B8820202D
S3152020844045B021204DB0212055B021205DB02120DE
S3152020845065B021206DB0212075B021207DB021204E
S3152020846085B021208DB0212095B021209DB02120BE
S31520208470A5B02120ADB02120B5B02120BDB021202E
S31520208480C5B0212077C2212077C2212077C2212082
S3152020849037AA2120CDB02120D5B02120DDB0212022
S315202084A0E5B02120EDB02120F5B02120FDB02120FE
S315202084B005B121200DB1212015B121201DB121206A
S315202084C025B121202DB1212035B121203DB12120DA
S315202084D045B121204DB1212077C2212077C22120EC
S315202084E077C2212077C2212077C2212077C221205E
S315202084F077C2212077C2212077C2212077C221204E
S3152020850077C2212077C2212077C2212077C221203D
S3152020851077C2212077C2212077C2212077C221202D
S3152020852055B121205DB1212065B121206DB12120B9
S3152020853075B1212077C2212077C2212077C2212020
S3152020854077C2212077C2212077C2212077C22120FD
S3152020855077C2212077C2212077C2212077C22120ED
S3152020856077C2212077C2212077C2212077C22120DD
S3152020857077C2212077C2212077C2212077C22120CD
S315202085803B97202077C2212077C2212077C2212025
S3152020859077C2212077C2212077C2212077C22120AD
S315202085A077C2212077C221207DB1212085B12120AB
S315202085B077C2212077C2212077C2212077C221208D
S315202085C077C2212077C2212077C2212077C221207D
S315202085D077C2212077C2212077C2212077C221206D
S315202085E077C2212077C2212077C221208DB1212058
S315202085F095B1212077C221209DB12120A5B121200E
S3152020860077C2212085C12120ADB12120B5B12120DD
S3152020861077C2212077C2212077C2212077C221202C
S3152020862077C2212077C2212077C2212077C221201C
S3152020863077C2212077C2212077C2212077C221200C
S3152020864077C2212077C2212077C2212077C22120FC
S3152020865077C2212077C2212077C2212077C22120EC
S3152020866077C2212077C2212077C2212077C22120DC
S3152020867077C2212077C2212077C2212077C22120CC
S3152020868077C2212077C2212077C2212077C22120BC
S3152020869077C2212077C2212077C2212077C22120AC
S315202086A0BDB12120C5B12120CDB1212077C22120E5
S315202086B077C2212077C2212077C2212077C221208C
S315202086C077C2212077C2212077C2212077C221207C
S315202086D077C2212077C2212077C2212077C221206C
S315202086E077C2212077C2212077C2212077C221205C
S315202086F077C2212077C2212077C2212077C221204C
S3152020870077C2212077C2212077C2212077C221203B
S3152020871077C2212077C2212077C2212077C221202B
S3152020872077C2212077C2212077C2212077C221201B
S3152020873077C2212077C2212077C2212077C221200B
S3152020874077C2212077C2212077C2212077C22120FB
S3152020875077C2212077C2212077C2212077C22120EB
S3152020876077C2212077C2212077C2212077C22120DB
S3152020877077C2212077C2212077C2212077C22120CB
S3152020878077C2212077C2212077C2212077C22120BB
S3152020879077C2212077C2212077C2212077C22120AB
S315202087A077C2212077C2212077C2212077C221209B
S315202087B077C2212077C2212077C2212077C221208B
S315202087C077C2212077C2212077C2212077C221207B
S315202087D077C2212077C2212077C2212077C221206B
S315202087E077C2212077C2212077C2212077C221205B
S315202087F077C2212077C2212077C22120FFFFFFFFC9
S31520208800002A01D101207047F0B41F4603460324D5
S315202088102340002B09D00424E31A017001300824B8
S31520208820E141521E26D05B1EF7D1042A1ADB13D033
S31520208830002F11D00C460D460E46102A02DB72C0A0
S31520208840103AFAE70C2A02DB32C00C3AFAE7082A59
S3152020885002DB12C0083AFAE7042A03DB016004305F
S31520208860121FF9E7002A05D0017001300824E141C2
S31520208870521EF7D1F0BC00207047FEE7C79E20206D
S31520208880000000001B9F2020000000005DA020206B
S31520208890F7A12020E59F2020FDA02020D5A2202062
S315202088A0000000000000000000000000539F202050
S315202088B0000000002B9F2020FDA02020F5A22020B4
S315202088C00000000053A32020000000007B9E2020D3
S315202088D000000000839F20200000000000000000F0
S315202088E00000000077A32020000000009FA3202066
S315202088F0000000000000000000000000999F2020BA
S3152020890000000000000000000000000003A020203E
S31520208910E7A0202000000000B71DC1046E3B82097D
S31520208920D926430DDC7604136B6BC517B24D861AF8
S315202089300550471EB8ED08260FF0C922D6D68A2F15
S3152020894061CB4B2B649B0C35D386CD310AA08E3C34
S31520208950BDBD4F3870DB114CC7C6D0481EE09345AD
S31520208960A9FD5241ACAD155F1BB0D45BC29697567C
S31520208970758B5652C836196A7F2BD86EA60D9B63E7
S3152020898011105A6714401D79A35DDC7D7A7B9F7078
S31520208990CD665E74E0B6239857ABE29C8E8DA1916E
S315202089A0399060953CC0278B8BDDE68F52FBA582C4
S315202089B0E5E66486585B2BBEEF46EABA3660A9B751
S315202089C0817D68B3842D2FAD3330EEA9EA16ADA470
S315202089D05D0B6CA0906D32D42770F3D0FE56B0DD9F
S315202089E0494B71D94C1B36C7FB06F7C32220B4CE80
S315202089F0953D75CA28803AF29F9DFBF646BBB8FB6B
S31520208A00F1A679FFF4F63EE143EBFFE59ACDBCE8EB
S31520208A102DD07DEC77708634C06D4730194B043DC0
S31520208A20AE56C539AB0682271C1B4323C53D002ED7
S31520208A307220C12ACF9D8E1278804F16A1A60C1B9C
S31520208A4016BBCD1F13EB8A01A4F64B057DD0080853
S31520208A50CACDC90C07AB9778B0B6567C69901571EC
S31520208A60DE8DD475DBDD936B6CC0526FB5E611625B
S31520208A7002FBD066BF469F5E085B5E5AD17D1D579E
S31520208A806660DC5363309B4DD42D5A490D0B194417
S31520208A90BA16D84097C6A5AC20DB64A8F9FD27A531
S31520208AA04EE0E6A14BB0A1BFFCAD60BB258B23B623
S31520208AB09296E2B22F2BAD8A98366C8E41102F8358
S31520208AC0F60DEE87F35DA9994440689D9D662B900F
S31520208AD02A7BEA94E71DB4E0500075E4892636E91E
S31520208AE03E3BF7ED3B6BB0F38C7671F7555032FA5F
S31520208AF0E24DF3FE5FF0BCC6E8ED7DC231CB3ECF22
S31520208B0086D6FFCB8386B8D5349B79D1EDBD3ADC8A
S31520208B105AA0FBD8EEE00C6959FDCD6D80DB8E6026
S31520208B2037C64F643296087A858BC97E5CAD8A73A8
S31520208B30EBB04B77560D044FE110C54B38368646A1
S31520208B408F2B47428A7B005C3D66C158E440825584
S31520208B50535D43519E3B1D252926DC21F0009F2C69
S31520208B60471D5E28424D1936F550D8322C769B3F2C
S31520208B709B6B5A3B26D6150391CBD40748ED970AF3
S31520208B80FFF0560EFAA011104DBDD014949B9319C8
S31520208B902386521D0E562FF1B94BEEF5606DADF89A
S31520208BA0D7706CFCD2202BE2653DEAE6BC1BA9EBF4
S31520208BB00B0668EFB6BB27D701A6E6D3D880A5DE5D
S31520208BC06F9D64DA6ACD23C4DDD0E2C004F6A1CD40
S31520208BD0B3EB60C97E8D3EBDC990FFB910B6BCB43B
S31520208BE0A7AB7DB0A2FB3AAE15E6FBAACCC0B8A7B0
S31520208BF07BDD79A3C660369B717DF79FA85BB492F7
S31520208C001F4675961A163288AD0BF38C742DB081BB
S31520208C10C330718599908A5D2E8D4B59F7AB0854B8
S31520208C2040B6C95045E68E4EF2FB4F4A2BDD0C4707
S31520208C309CC0CD43217D827B9660437F4F46007228
S31520208C40F85BC176FD0B86684A16476C9330046123
S31520208C50242DC565E94B9B115E565A158770191828
S31520208C60306DD81C353D9F0282205E065B061D0B8B
S31520208C70EC1BDC0F51A69337E6BB52333F9D113EAA
S31520208C808880D03A8DD097243ACD5620E3EB152DE7
S31520208C9054F6D4297926A9C5CE3B68C1171D2BCCDD
S31520208CA0A000EAC8A550ADD6124D6CD2CB6B2FDFD3
S31520208CB07C76EEDBC1CBA1E376D660E7AFF023EA64
S31520208CC018EDE2EE1DBDA5F0AAA064F4738627F95F
S31520208CD0C49BE6FD09FDB889BEE0798D67C63A803A
S31520208CE0D0DBFB84D58BBC9A62967D9EBBB03E930F
S31520208CF00CADFF97B110B0AF060D71ABDF2B32A6AE
S31520208D006836F3A26D66B4BCDA7B75B8035D36B5DA
S31520208D10B440F7B10000000051C221205BC22120BF
S31520208D2065C221200000000000000000090000008C
S31520208D306FAB20200101000089B32020080000000D
S31520208D409DBC202000010000C7C320201001000068
S31520208D50B9CB20202001000075D920202101000038
S31520208D6051D3202000000000000000005A041808DB
S31520208D700830FF2400000000000000005A051809D2
S31520208D800831FF2500000000000000005A06180ABE
S31520208D900832FF260000000000000000000000002E
S31520208DA00000000000000000000000009F040324B3
S31520208DB00000000000000000000000009F07600760
S31520208DC0200B042700000000000000009F876087FA
S31520208DD0208B04A700000000000000005A04180879
S31520208DE00830FF2400000000000000005A06180A60
S31520208DF0FF26000000000000000000005A07180B84
S31520208E00FF27000000000000000000005A06188AF4
S31520208E10FFA6000000000000000000005A07208B5B
S31520208E20FFA7000000000000000000003BA6202035
S31520208E3065A820207DA82020FDA82020B1A92020BB
S31520208E40B9AA2020000000000040184000801840C9
S31520208E5000C01840000019400040194000801940E9
S31520208E6000C0194000001A40000000000000000049
S31520208E7000000000000000000000000000000000AC
S31520208E80000000000000000000000000000000009C
S31520208E90000000000000000000000000000000008C
S31520208EA0000000000000000000000000000000007C
S31520208EB0000000000A0000000C0000000D00000049
S31520208EC00F000000140000001A0000001E00000001
S31520208ED023000000280000002D00000034000000A0
S31520208EE0370000003C000000460000005000000033
S31520208EF0000000000000000000000000000000002C
S31520208F00000000000000000000000000000000001B
S31520208F10000000000000000000000000000000000B
S31520208F2000000000000000000000000000000000FB
S31520208F3000000000000000000000000000000000EB
S31520208F4000000000000000000000000000000000DB
S31520208F5000000000000000000000000000000000CB
S31520208F6000000000000000000000000000000000BB
S31520208F7000000000000000000000000000000000AB
S31520208F80000000000000000000000000000000009B
S31520208F90000000008000000080000000000100008A
S31520208FA080000000400000004001000080000000FA
S31520208FB0000100008000000080000000200000004A
S31520208FC060010000400000008000000040010000F9
S31520208FD04000000000010000C0000000000000004A
S31520208FE0BA010000400000000001000080000000BF
S31520208FF0800000000001000040000000C0000000AA
S31520209000C00000000001000040000000C001000058
S31520209010000000004000000000000000800000004A
S31520209020800100002000000020000000C001000078
S3152020903000000000000100000001000000000000E8
S3152020904000000000000200005DA92120D9A92120CE
S31520209050F3A92120000000000000000025AA2120DD
S31520209060FFE1202061DF2020B9DF2020A1E0202081
S31520209070DDE02020EDE0202039E0202089CF2020AF
S315202090806BD1202005D22020CDD2202007D0202011
S31520209090AFD22020C1D2202000555603590C0F5A7A
S315202090A05A0F0C5903565500653033663C696A3F82
S315202090B03F6A693C66333065663330653F6A693C72
S315202090C03C696A3F65303366035655005A0F0C5962
S315202090D0590C0F5A00555603693C3F6A3065663352
S315202090E0336665306A3F3C690C595A0F5500035642
S315202090F0560300550F5A590C0F5A590C5603005532
S31520209100550003560C595A0F6A3F3C693366653021
S3152020911030656633693C3F6A6A3F3C693366653011
S3152020912030656633693C3F6A0F5A590C5603005501
S31520209130550003560C595A0F0C595A0F55000356F1
S31520209140560300550F5A590C693C3F6A30656633E1
S31520209150336665306A3F3C69035655005A0F0C59D1
S31520209160590C0F5A00555603663330653F6A693CC1
S315202091703C696A3F65303366653033663C696A3FB1
S315202091803F6A693C6633306500555603590C0F5AA1
S315202091905A0F0C590356550069ED2020A91B212072
S315202091A0B51B2120C51B2120000000000000000047
S315202091B00100000001000000D596202048902020A4
S315202091C058902020CC932020100000000100000081
S315202091D000000000549420200000000064942020E9
S315202091E00000000000000000000000000000000039
S315202091F0000000000000000061AA21207DAA212075
S315202092002DAB2120EBAB2120543422205FD62020E9
S315202092109DD7202037D82020FFD82020A7D6202031
S31520209220E1D82020F3D820200000000000000000F4
S3152020923000000000000000000000000000000000E8
S315202092400000000046001400000032001E003200FC
S315202092501E0000007800C800C8002800C8000000B2
S3152020926023000A00000019000F0019000F0000003B
S3152020927050006400640014006400000019000A00F5
S31520209280000011000F0011000F00000050006400A4
S3152020929064001400640000001900050000000F007F
S315202092A00A000F000A0000003C006400640014003D
S315202092B0640000001400050000000C000A000C00C9
S315202092C00A0000003C0064004600140064000000F0
S315202092D00F00050000000A0007000A000700000012
S315202092E03C006400460014006400000000000000DA
S315202092F00000000000000000000000000000000028
S3152020930000000000000000004D4943524F4E20200F
S31520209310202020205350414E53494F4E202020209C
S3152020932053414D53554E47202020202057494E4209
S315202093304F4E44202020202048594E495820202076
S3152020934020202020544F53484942412020202020AD
S315202093504D4143524F4E49582020202000000000E6
S31520209360000000000000000031BD2020A1C02020E8
S3152020937093C120209FC2202071BE202091C320206F
S31520209380A3C32020000000000E000A0000000000D9
S31520209390420021000A009C000A0000000000000074
S315202093A007000500000000002800140005006000CA
S315202093B00700000051B92020CFBA2020E5BA20206E
S315202093C079BB2020F7BB20201BBC2020DDAC212010
S315202093D0E3AC21204FAD2120E7AD2120E1AC212097
S315202093E0F3AD2120BDAC212045C920204FC9202006
S315202093F069C9202037CA2020E3CA2020E5C9202099
S315202094000000000041AC202091AF2020C1B02020B8
S3152020941099B220208BAE20205BB220206DB2202056
S31520209420C1A3212049A421200000000049A42120F5
S3152020943000000000E1A4212029A521200000000011
S31520209440D1A5212007A621205BA621209BA621206D
S31520209450CFA6212009BE212015BF2120BDBF212036
S315202094601DC021202BC021204FC02120D3C0212048
S315202094706BC121207BC121207FC12120000000003B
S3152020948038B504463E4D00202862C5E90000C5E9CE
S315202094900200C5E9040068623A4800F0ACF8C5E944
S315202094A0060120460FF25D01BDE8344000F053B995
S315202094B000F067B970B50C46314E316A072904BFD2
S315202094C0756AA8421BD100F04AFB0546C5EB051557
S315202094D0D6E90023D6E9020182184FF49666B5FB19
S315202094E0F2F00A250A2368434FF49662B0FBF6F67B
S315202094F0761D0020B6FBF3F35343236070BD012075
S3152020950070BD00002DE9F8431D4F064600F069F88E
S315202095103A6A0446D7E904598846521C651BD7E97E
S31520209520060168EB0909494502D82CBFA842012229
S31520209530012A3A6206D0042A08D0052A0ED0072A04
S315202095400FD018E0C7E900487E6214E0D7E900234F
S31520209550A21A68EB0303C7E900230CE0C7E90248F7
S3152020956009E0D7E90201201A68EB0101C7E90201C7
S31520209570304600F006F9C7E90448BDE8F18300002B
S31520209580001822208038010010B54FF4867000F094
S3152020959078FB0021294A116029484FF0FF3100230A
S315202095A0016101228361C261846944F004048461DB
S315202095B0826942F00102826101600121C1608160DD
S315202095C000F0CDFAC0001F49B0FBF1F000B9012010
S315202095D01D4A906010BD1948016841F002010160C2
S315202095E0704781B01948016842680092009801B0FE
S315202095F0C943C043704714498A68A2FB0001C008AA
S3152020960040EA4170C908704738B50446FFF7E9FF9C
S3152020961000F00BF8241841EBD505FFF7E2FFA9420D
S31520209620FBD301D8A042F8D331BD074A9368A3FBC8
S315202096300445E40844EA4574704700000040084089
S315202096400041084040420F0028182220E0400840D0
S315202096500901020002D4564881547047554A00F029
S315202096600F00131803F8041C704710B5039C01F053
S315202096700F01240104F010042143016002B113607C
S3152020968010BD0021016002B11160009808B1019936
S3152020969001607047FEB5089E0027099C0A9D019708
S315202096A00096FFF7E2FF3068012101FA05F540F424
S315202096B010403060606820EA05056560F7BD7CB5FE
S315202096C0069C0025019547F2B0060094FFF7CDFFB2
S315202096D0266073BD7FB5384C384D3948394A19B183
S315202096E0022919D00DD37FBD41F2B00600950196EF
S315202096F0002300F01EF801960023009500F019F8AB
S315202097007FBD0D21304B029105210193002300922C
S315202097100022FFF7BFFF7FBD009200230022FFF724
S31520209720CEFF00950023002202212046FFF7C7FF07
S315202097307FBD002202212046A3E710B5234C2068B6
S31520209740800407D52249496821B1012088474FF452
S315202097500051216010BD10B51D4B1B4C59600422B1
S315202097600D21204600F0E8FA63690121502043F4B8
S3152020977000536361FFF76CFF4FF480301549086072
S3152020978010BD80B54FF4803013490860BFF34F8F4A
S31520209790BFF36F8F00215020FFF75AFF00220D21A3
S315202097A0094800F0C9FA00200949486001BD000097
S315202097B000E400E018ED00E0EC801F40DC821F4032
S315202097C0F0801F40E0821F4000801B4018801B40F5
S315202097D04C34222008E100E088E100E0002808BF80
S315202097E000F023B87047DFF8B003DFF8B023016814
S315202097F04FF0004341F00301016040201060DFF864
S31520209800A00383634FF08041816300220260DFF84A
S315202098109403036843F4C0130360DFF88C030168C4
S315202098204908490001600120704770B5DFF87C03A4
S3152020983000F033FADFF8780301210269DFF8743368
S315202098400068520D02F0030201FA02F21968C0F3F1
S315202098508000002841F4803119601C6B44F4803448
S315202098601C63196941F48031196114BFDFF848134C
S31520209870DFF84813196019680029FCD51D6B25F4DB
S3152020988080551D63196B0029FCD5DFF83443DFF89A
S31520209890341325694FF4405625F03F350D43256175
S315202098A01E6119690029FCD51E69DFF81C1326F4D0
S315202098B080361E612568012625F03F350D43002878
S315202098C02560DFF80843DFF808132660DFF80463F5
S315202098D00CBFDFF80403DFF80403B0FBF2F00860C6
S315202098E0012100E0491CB0FBF1F5B542FAD26568AA
S315202098F0491EBB480E04521E06F4E026054092025D
S31520209900354302F4E05209022A4301F440710A4306
S3152020991062606069B34AC009C00140F003006061FB
S31520209920A168B14811400143A160A568AF49B0485C
S315202099300D4045F0A055A560E268024042F0C7429E
S3152020994042F00102E260E16841F44031E160606961
S3152020995020F4E72040F484306061E16821F44061FE
S31520209960E160A069400A400240F08100A0611968A8
S3152020997021F480311960186B20F48030186319691E
S3152020998021F48031196170BDFAE00000012A2DE909
S31520209990FE43044652D8002950D0012C4ED8DFF859
S315202099A02082944FD8F800008309002CA0A007BF5E
S315202099B07D6825F060753D6825F06045012A08BF41
S315202099C00FF284200B2928BF012100EB410210F839
S315202099D0110000BFA2A15278521E002C00F03F0099
S315202099E040EA8319684603BFD20502F06072154308
S315202099F045EA427591E80C1080E80C105DF8246049
S31520209A00306840F002003060204600F025F8D8F873
S31520209A100010894518BFC8F8009024B97868854277
S31520209A2005D07D6003E039688D4218BF3D60204611
S31520209A3000F006F8306820F002003060BDE8F78399
S31520209A40554920B9086840F44060086070474A6844
S31520209A5042F00C024A6070474F4920B9086820F42A
S31520209A604060086070474A6822F00C024A607047BE
S31520209A7030B5574C0023002024685F4D19B10229A8
S31520209A800AD002D318E0234617E02968C1F3012122
S31520209A90491CB4FBF1F310E04949584C0968AB68DE
S31520209AA001F03F01B4FBF1F512214D43C3F3C2511E
S31520209AB0491CB5FBF1F300E00420136030BD0420DF
S31520209AC011B14F48086000207047000030B54A4940
S31520209AD006280A6842F040020A600B68494A23F0A9
S31520209AE080030B6013680C6823F47C1324F4E02491
S31520209AF014D8DFE800F0040608130B0D10002320ED
S31520209B000DE0222000E01B20072509E01D2003E090
S31520209B101220042504E01320032501E01220082525
S31520209B2043EA00436D1E2D0405F4E02510682C43DE
S31520209B30834218BF13600A68944203D00C604B6B93
S31520209B40D807FCD430BD3048016841F0300101608F
S31520209B5070472D48016821F0300101607047264862
S31520209B601B4A016880681368C1F30121491C00F053
S31520209B703F00401CB3FBF1F1B1FBF0F07047000031
S31520209B801D48134900680A68C0F30120401CB2FB17
S31520209B90F0F070470000000080C00F4014800D4078
S31520209BA000900D40B0810D4040012E4000366E01C0
S31520209BB060441F4000800D405820010042200100B3
S31520209BC0F0800D40181813182323230F10C00F40A0
S31520209BD0F005222001449508007B9A1700A4781FBF
S31520209BE0FFE0F8FFFFFCF31F00010CE0CFFFFFE3AF
S31520209BF080FF7F9C18C00F4014C00F4000389C1C4B
S31520209C0080F5E40900810D4074C00F4038B5044624
S31520209C100D4602E00120FFF7F7FC20462946441E88
S31520209C2061F10005002908BF0028F3D131BD0000CD
S31520209C3000002208160818061E0412060C07120415
S31520209C400D050D04160200000000180616040C0649
S31520209C501E0212031502120221010D021601000016
S31520209C6000802A400000000000402A401348144A61
S31520209C7001681160704710B500F01BF81C69A047D9
S31520209C8010BD10B500F015F89C69A04710BD10B581
S31520209C9000F00FF8DC69A04710BD10B500F009F8D8
S31520209CA01C6CA04710BD10B500F003F89C6AA04795
S31520209CB010BD03490A689369704700001C002000E4
S31520209CC034182220F8B506460C4615465FF00000CB
S31520209CD033A151F82020B24202D0401C0628F8D3C6
S31520209CE035A1012731F91000A740FFF7CAFF726975
S31520209CF0F9430A407261287818B972681140716058
S31520209D0007E06A782146304600F009F87068074354
S31520209D107760AA7821463046BDE8F8400CE001233A
S31520209D20002A10B503FA01F107BF026822EA0101D1
S31520209D3004682143016010BDF0B5C369012404FAEB
S31520209D4001F5AB431029C36132BF00F10C0300F1AA
S31520209D5010031039490003268E40F743521E042A49
S31520209D601DD8DFE802F003070D15190018680740F3
S31520209D701F60F0BD1A688C4017403C431C60F0BD24
S31520209D801C68022505FA01F1274039431960F0BDE8
S31520209D90186806431E60F0BDC1690D43C561F0BD3C
S31520209DA00000000000801B4000C01B4000001C401B
S31520209DB000401C4000000C40FFFF1A011E001A0222
S31520209DC00C031E01DFF8D81600200A69D368186014
S31520209DD07047F8B5DFF8C8660024306A8DF8004051
S31520209DE04569002D47D03169C9680F68012F31D0C8
S31520209DF06C6801F108020023091DA04704001FBF3B
S31520209E0042F21270844242F213718C4233D130696D
S31520209E10C268916800292ED0546823781D0007D067
S31520209E20142B05DA806800EBC305A5F1080000E0B5
S31520209E300020002850621CBF0268002A03D020463A
S31520209E400024904713E042F210741946204600F071
S31520209E50BCFA10E0486A58B1416811B16846884773
S31520209E6004460CB1002003E09DF8000000B101203B
S31520209E703169CA6810602046F2BD80B5017800207D
S31520209E8000F0A3FADFF81826106A41690A6990477C
S31520209E90022000F013FBBFF34F8FDFF80816DFF800
S31520209EA008060A6802F4E06202430A60BFF34F8F75
S31520209EB000BFFDE7DFF8E80518210269D36803F122
S31520209EC00C0000F027BB10B504466068083812D075
S31520209ED0401E0AD0F73811D0401E09D00F3810D096
S31520209EE0103814D0401E0FD014E000F012FE12E0DD
S31520209EF001F022FA0FE001F0C5FE0CE002F01DFA77
S31520209F0009E002F0B1FD06E003F006FA03E003F0D3
S31520209F1014FD00E00420217870E0DFF8843570B548
S31520209F2000F0E2F9AE69B047DAE110B500F094F816
S31520209F30DFF86C0562680169C8680821026180F82B
S31520209F4020102178002000F040FABDE8104003F0D0
S31520209F506BBF7CB5DFF848450022E5680192009268
S31520209F60816840686B46AE6801AAC0B2B0472269B4
S31520209F700021D3681961009A0199920800F02BFAE2
S31520209F8073BDDFF81C2538B5D36804466068A16800
S31520209F90DD68C0B2A847EAE138B5044604206268E5
S31520209FA0092A03D1A06800F04AFB19E0082A03D128
S31520209FB0A06801F0E6FC13E0C2F3032101290FD1AA
S31520209FC06946104604F0E7F850B9009DDFF8D02402
S31520209FD014219368A0684D4359190A691369984733
S31520209FE02178D9E110B500F037F8DFF8B404E2681B
S31520209FF00169042300F041F821780020BDE81040B3
S3152020A000E3E170B5DFF8985400F026F8296913208B
S3152020A010DFF89864CA6882F820002969E068CA684F
S3152020A02082F82100E06838B929691022C8680261BF
S3152020A03046612178002054E106F11001304604F0D3
S3152020A04003F92869482106F11002C068016142619E
S3152020A0500020BDE87040D9E104462BE710B5FFF774
S3152020A060FBFFDFF83C04E2680169032300F005F8D2
S3152020A070A1680020BDE81040D6E1C8688261A168A9
S3152020A08001616268426180F82030704738B5044605
S3152020A090DFF80C5428690021C0684161016190F8DD
S3152020A0A02000042804D129680A69904704B9044667
S3152020A0B028684169884704B904462869C16820462A
S3152020A0C091F8201000F081F942F21270844201BFEB
S3152020A0D02969CA6892F82000082803D1BDE83140B2
S3152020A0E003F0E5BE31BDDFF8B8130A69D36893F8CB
S3152020A0F02110002908BF00F001B87CE02DE9FE439D
S3152020A10000F0DEF811B900F0E1F871E00121012319
S3152020A1103170D0F818900569D0F8148000206A464E
S3152020A1200090386A01A94469D4F804C0E0470400A5
S3152020A1300AD0386A4169CA6890472046FFF7A6FFA9
S3152020A14000210020317054E0009830B942F212707C
S3152020A150FFF79CFF002030704BE0A842396988BF6A
S3152020A16028460090C86890F82010082912D1019915
S3152020A170C160009AC2610099019803F05FFE0446EF
S3152020A18042F27D7084421CBF42F274718C4216D1F9
S3152020A190002414E0132907D1009A0199404604F09F
S3152020A1A0BBF8009880440AE03C68019A00994B4607
S3152020A1B04046D4F808C0E0470099044688440098D1
S3152020A1C02D1A05D12046FFF761FF002131700FE0BF
S3152020A1D04CB1386A4169CA6890472046FFF756FF36
S3152020A1E00020307004E03969C9680D61C1F81480F7
S3152020A1F00020BDE8FE832DE9F84F00F061F811B963
S3152020A20000F064F859E00121DFF8A4A231708269B8
S3152020A21000920569D0F81480C46890F820B0386A76
S3152020A22041694A6990478146A94588BFA946ACB16C
S3152020A2304A462146504604F06FF8386AA5EB0904B1
S3152020A24001234A4651464569D5F808C0E04704B15E
S3152020A25070B3FFF71BFF002030702EE0BBF1030FF9
S3152020A26009EB080419D1D7F800C04046009B524676
S3152020A2704946DCF80480C0475FEA000BA046DCD0C4
S3152020A280386A0123002251464469A568A8475846C2
S3152020A290FFF7FCFE0020307010E0BBF1130F01D039
S3152020A2A0A046CAE74A464146504604F035F8F7E725
S3152020A2B03869C0680461C0F814800020BDE8F28F98
S3152020A2C00646774F3869C06801697047002200200A
S3152020A2D03270DBE6724B70B500F006F8EE68B047B8
S3152020A2E02178BDE8704070E01D680446E268A168C8
S3152020A2F0606870472DE9F04105466E4F6E68D5F8A7
S3152020A3000880E8680024386018B104F040F800B9C5
S3152020A3100424304604F024F800B904242978204661
S3152020A32000F053F89CB97E60002000F0C7F8C7F8EB
S3152020A3300880386818B180F3088880F309887968FE
S3152020A340404688470020BDE8F04100F0B7B8BDE878
S3152020A350F08138B50446606804F002F808B9042074
S3152020A36005E06568012000F0A9F8A068A8472178B3
S3152020A370BDE8344029E038B5044604F0F5F8E06815
S3152020A3806A460090A36861684B4804F033F9054675
S3152020A39004F0F0F82178284600F017F831BD3EB5B4
S3152020A3A000210446CDE9001104F0DEF8A368616897
S3152020A3B06A46414804F07CF9054604F0DBF8A26899
S3152020A3C06946284600F042F837BD3EB5002400F005
S3152020A3D031F8A0231EE070B5002588B0A7248DF87B
S3152020A3E001508DF800400026551C01908DF8026002
S3152020A3F000208DF803506C4605E004EB800551F8CB
S3152020A4002030401CAB609042F7D33BE03EB500F0B5
S3152020A41010F8B3238DF800300023029144690C22D2
S3152020A4206946A568A84737BD3EB500F002F8A323A4
S3152020A430F0E7012401908DF8014002248DF8034095
S3152020A440174C206A00258DF80250704770B50025DC
S3152020A45088B08DF80150AF24002602258DF80040C3
S3152020A4608DF802608DF80350019050B99DF80300B5
S3152020A470029200EB920403A88DF8034003F04CFFD0
S3152020A48000E0029606489DF80320006A00236946CC
S3152020A49044699200121DA568A84708B070BD000027
S3152020A4A0100022200CED00E00400FA05581C222082
S3152020A4B060182220B01C222000401F40012870B5A1
S3152020A4C004461DD00025114E05E07018C168896804
S3152020A4D001B188476D1C1821694370580028F4D192
S3152020A4E074B904F041F8FFF776F804F059F9002002
S3152020A4F0074908600120FFF771F904F0FDFB62B6D9
S3152020A500BFF36F8FBFF34F8F70BD00BFB091202058
S3152020A51008ED00E0002204F095BC30B4002513E0BD
S3152020A52050F8042BD30744BFA9F101039A18091F19
S3152020A530042942F8045BFAD213468C0744BF1580BF
S3152020A5409B1CC90748BF1D7050F8041B0029E7D162
S3152020A55030BC7047BFF34F8FDFF8C82602E010606B
S3152020A560203020390129FADABFF34F8FBFF36F8FBE
S3152020A570704730B504460420002C85B01EBFDFF876
S3152020A580A8261178002956D023681D0F0B2D52D1CD
S3152020A590C3F30361012902F582650DD000294AD132
S3152020A5A0204604F069FC10B10021297043E0A268FE
S3152020A5B001236A602B703EE0297800293BD013F0D6
S3152020A5C00F0F38D1002101200491039104A900F016
S3152020A5D0CEFA80BB03A9102000F0C9FA58BB01A9E6
S3152020A5E0032000F0C4FA30BB6C68049D694602A89B
S3152020A5F004F077FC6519F0B9009903986418A042F5
S3152020A60038BF42F2D87016D30198401E054218BF93
S3152020A61042F2DE700FD10199284600F092F910B946
S3152020A62042F2DB7007E0029A0099284600F026F9CC
S3152020A63008B900F0BDF905B030BD012070472DE9DD
S3152020A640F84FADF5007D054603F08AFE00284FF031
S3152020A650040A2CD005F2FF1003F082FE002826D013
S3152020A6602868DFF8C47507F58368010F0C291FD1E8
S3152020A67004F068FB2A46414606F09AF85FEA000A6B
S3152020A68015D10020387004F05DFB414604F048FCCB
S3152020A6905FEA000A0BD104F055FB06F00AFF694653
S3152020A6A0102000F064FA002800F08880824674E0AA
S3152020A6B0DFF878154FF40079884236D1387800288B
S3152020A6C078D04046002606F0A3FA0546002DC3463C
S3152020A6D007F5BB6440F0808004F03BFB494603F03D
S3152020A6E0A7FD002800F0A280A07A78B100200DF1E5
S3152020A6F00102391891F819140DF8001018F80030B5
S3152020A7001354801CB0F5007FF3D3EB4604F021FBD5
S3152020A7105A46494600F0B2F85FEA000A7BD004F098
S3152020A72018FB494600F05FFA82E0DFF804158842DC
S3152020A73005D14A462946404603F0EEFDA1E7000F03
S3152020A7400E282FD1387840B3284607F035F820B385
S3152020A750284607F03AF85FEA000A1ED101207870D1
S3152020A7600020451C6A4601A907F036F990B904F065
S3152020A770F0FA00EB85204FF4007100F0E2F848B1A2
S3152020A78004F0E7FA019A009900EB852000F076F88C
S3152020A79000F00EF928460128E3D950460DF5017D13
S3152020A7A0BDE8F08F0B2806D12846FFF7E2FE5FEAA8
S3152020A7B0000AF2D14DE000207870EEE7DFF87454DD
S3152020A7C00121A96304F0C5FA009928630818401EC0
S3152020A7D06863012038703CE04A4641466846EB468D
S3152020A7E003F09AFDD8F8400020F00400C8F8400075
S3152020A7F0216849082160606840086060216949080D
S3152020A800216104F09FFA414604F08AFB00283FF498
S3152020A81063AF01260EE000F0CBF85FEA000A08D0ED
S3152020A82004F097FA616800F047F901E042F2DB7AFA
S3152020A830012665B14A465946404603F06DFD04F08F
S3152020A84081FA414604F06CFB5FEA000AA5D1002E6E
S3152020A850A3D17878002883D106F0A6FF00289CD0A3
S3152020A8600120A9E710B5DFF8C043237813B942F2B7
S3152020A870DD7010BDBDE8104007F096B92DE9F843EC
S3152020A8800546DFF8A47338780C46914688BB42F2F9
S3152020A890DD7031E0B87868B9D7F8D815491E0D4251
S3152020A8A002D044F6896027E001200021B870B960E3
S3152020A8B07D6004E0B86879680818A84216D1B8687F
S3152020A8C0D7F8D88549462218424534BF2646A8EBD4
S3152020A8D00006384432461030751903F01DFDB8683D
S3152020A8E0A41BB14430184045B86002D100F060F86E
S3152020A8F010B9002CCED10020BDE8F28376B50D46C6
S3152020A9000646DFF82413087810B942F2DD7076BDAA
S3152020A910AC08A40005F0030507E001AA042130466F
S3152020A920FFF7ACFF60B9361D241F002CF5D12DB1C1
S3152020A93001AA29463046FFF7A1FF08B900F038F8CA
S3152020A94076BDF8B50C460546B749ADF5806D4878F5
S3152020A950012620B12146284607F018F8B0B921460D
S3152020A960284603F065FC064630460DF5806D01B07D
S3152020A970F0BD491CB1EB970F06D250F8042B12F1EB
S3152020A980010FF6D00020F0E7E41B7D19002CEBD038
S3152020A9904FF48067B4F5806FA648016B684698BF50
S3152020A9A027463A46691A00F02EF968460021E1E743
S3152020A9B02DE9F8439C4E0024B078ADF5806D002813
S3152020A9C074D0B470D6F8D845B068A04206D0211AE3
S3152020A9D006F11003FF22184407F0FEF8706821467E
S3152020A9E0FFF7AFFF10B942F2DB7060E0D6F8D8153A
S3152020A9F0706806F0CBFF40B1D6F8D815706806F1FE
S3152020AA00100207F030F8040050D17468894F03F003
S3152020AA10ABFD386B241A04F095F906F11003224673
S3152020AA2006F5836104F07CFB044603F0A3FD002099
S3152020AA30002CB070B06039D17F480268D10304D58C
S3152020AA40D6F8D8157068FFF785FD7078D6F8D855D2
S3152020AA5006F11008D6F80490F0B12946484606F0AB
S3152020AA6095FFC8B115B34FF48066B5F5806F396B65
S3152020AA70684698BF2E463246A9EB010100F0C3F85E
S3152020AA8032464146684607F0B1F8002802BFAD1B82
S3152020AA90B144B044E6D006E02A4606F110014846E5
S3152020AAA007F0A4F810B144F68A6000E020460DF5A0
S3152020AAB0806D01B0BDE8F08370B504465A4A1078FF
S3152020AAC010B942F2DD7070BDD2F8DC55684200EA3A
S3152020AAD004060C19644204406442A41B21463046D5
S3152020AAE000F081F8A0B92946304607F01EF85248D2
S3152020AAF00168CA0303D529463046FFF72BFD214698
S3152020AB003046FFF71EFF10B944F68A6070BD00203C
S3152020AB1070BD1CB5444C207810B942F2DD7016BDAC
S3152020AB2004F010F904F5836104F057FBF0B901A96C
S3152020AB30012000F01CF8C8B96946102000F017F84B
S3152020AB40A0B90099019806F0F0FF3B480168CA0396
S3152020AB5003D500990198FFF7FDFC0099019803F091
S3152020AB6067FB10B944F68A6016BD002016BD38B59D
S3152020AB700C002ED02C4901F5BB6201F58D6360B106
S3152020AB80012813D0022814D0032817D0042818D03F
S3152020AB90052818D0102819D01BE00878002814BFC3
S3152020ABA0002042F2DD702060002032BD04F0D1F872
S3152020ABB0F9E700F010F8AD0A2560F5E71268226063
S3152020ABC0F2E75068EFE7106918B1ECE700F003F8D8
S3152020ABD0F2E7042032BD1D685A689968D86855194D
S3152020ABE04D194519704738B50D4604461149086B4D
S3152020ABF0241A04F0A7F82B46224601B00F49BDE8B7
S3152020AC00304005F085BE7CB504460D46164604F038
S3152020AC1099F800962B462246084905F0B4FE76BDC3
S3152020AC20000000005CEF00E0042522200F0000F049
S3152020AC30464346425000222014ED00E01C292220C3
S3152020AC403EB504F015F8022801D001203EBDDFF8DC
S3152020AC501C4C42F22C102518284606F0EBFF48BB48
S3152020AC60284600F0A1FD28BB01A902A806F0CEFFA8
S3152020AC700199029800F05EFCE0B9284600F094FD88
S3152020AC80C0B942F22C00204400F0D4FC90B9012116
S3152020AC9040F201102170694603F07DFA50B900F088
S3152020ACA06FF9E01804681144CC60C2698068424379
S3152020ACB08A6000203EBDFEB504460420002C1EBF1F
S3152020ACC0DFF8A82B1178002951D023681D0F0B2DD2
S3152020ACD04DD1C3F3036142F22405012915440DD039
S3152020ACE0002944D1204604F0C7F810B1002129704C
S3152020ACF0FEBDA26801236A602B70FEBD2978B1B300
S3152020AD0003F00F03082B32D202EBC30042F26C0170
S3152020AD1042F2EC236D68D658084469460768446891
S3152020AD2001A804F0DEF806FB075700BB00982D1873
S3152020AD30B5FBF6F0844202D242F2D870FEBD711ED7
S3152020AD400F4202D042F2DE70FEBDB7FBF6F401219F
S3152020AD50204600F0CBFB10B942F2DB70FEBD019AF3
S3152020AD600099204600F0EDFC08B900F076FAFEBDE9
S3152020AD702DE9F041064604240D46002E18BF002D4D
S3152020AD800ED0287800F00F00C01E08283FD24FF49E
S3152020AD9080613046FFF7BEFB686803F0E1FA0028A1
S3152020ADA070D06868083003F0DBFA00286AD06A6819
S3152020ADB006F58071002007F039FA040062D1286850
S3152020ADC0DFF8A81AC0F3032000281CBF0128002082
S3152020ADD04860286800F00F039B1E082B52D8C0F32A
S3152020ADE00357032FC0F303610CD8DFE807F00204D2
S3152020ADF00609402708E0802706E04FF4807703E005
S3152020AE00202701E0202F3DD300293BD0052939D208
S3152020AE10DFF85C0A0122706017FB01FC37820020D4
S3152020AE207182B260C6F80CC0736116E0B2F806C013
S3152020AE30B2F804E0E644B2F80AC0F4451CD31289DD
S3152020AE40D6F8C8E206EBC008401C0EFB0CFC0EFB15
S3152020AE5002F2C8F84420C8F840C098420CD20028F4
S3152020AE6005EB8002E2D1D6F8C8C2B7FBFCFE01FB77
S3152020AE700EFE4FEA4E0EDEE74FF47F71301D00F0B6
S3152020AE80B2FC30602046BDE8F081F8B504240746A0
S3152020AE9003F066FA00283D4654D005F2FF352846B1
S3152020AEA003F05EFA00284DD03868DFF8C05942F208
S3152020AEB02C016E18000F0C2846D139463046FFF754
S3152020AEC057FF04003ED10020287042F22C1168182A
S3152020AED000F06AFC040035D1304600F0ABFBC8B147
S3152020AEE0DFF89049FF224FF48461204603F0A6FF25
S3152020AEF0DFF88409012160600022A16040F21C4114
S3152020AF002261201D00F06FFC2060304600F0BFFB40
S3152020AF10040017D1304600F042FB040012D1012054
S3152020AF206946287040F2011003F035F9040009D152
S3152020AF3000F026F8E81805681144CD60C2698068BB
S3152020AF4042438A602046F2BD7968DFF8242991425F
S3152020AF500FD14FF48061384600F038FC0028F1D01C
S3152020AF6000204FF4806228703946304603F0D4F909
S3152020AF70ABE70B28E6D13846FFF79DFE0446E1E7EE
S3152020AF80009A142042F2EC23DFF8F018424370474F
S3152020AF902DE9FE4F92460425BAF1000F0346884636
S3152020AFA04CD0DFF8C868307810B942F2DD7545E01C
S3152020AFB0726842F2EC2177183968012A019118D15A
S3152020AFC0307B48B9F9698B4238D2B868B36032737E
S3152020AFD000244343009312E0B068BA68424301FB41
S3152020AFE002331B1A0198B3FBF1F1009100FB1133B8
S3152020AFF004E0B3FBF1F001FB103300901C466846B9
S3152020B00041F20D0900F023FC12E006F10D00011992
S3152020B0102A46504603F080F901992C19A8EB0508F9
S3152020B020AA448C4203D3009A641A521C009200250B
S3152020B030B8F1000F11D10DB1002030732846BDE89C
S3152020B040FE8F084600F0E0FBF8B142F2200031588E
S3152020B050491C315000985844009041F2100500991F
S3152020B060725916F809008A4200D108BBD7F808B0D1
S3152020B070B1FBFBF118B1B2FBFBF0814205D0F86998
S3152020B0808142DED342F2D875D6E7DDF800B0002023
S3152020B090396806F8090006F10D02584600F037FBFC
S3152020B0A020B9012146F805B006F809100500C2D1BD
S3152020B0B0019808EB040290422CBF4546051BA4E7C5
S3152020B0C02DE9F84F93460424BBF1000F05D0DFF875
S3152020B0D09C773A7812B942F2DD7494E089467968F1
S3152020B0E042F2EC2342F21406FA58BD1901290646EB
S3152020B0F0904640D1387BA0B9DFF88407C1698E42BB
S3152020B100EBD2002201232A7092463B73DFF8742764
S3152020B110BE60806846430096314608FB0191116047
S3152020B1202FE03B44B8689968414302FB0162DFF86F
S3152020B1305417121AB2FBF8F008FB102A0090086860
S3152020B140824213D0287818B100F05AF9040058D139
S3152020B150012042F2EC2238733A44BE609068314690
S3152020B1604FF0000A4143009108FB01F24A44DFF8E0
S3152020B17014170A6005E0B6FBF8F008FB106600906D
S3152020B180B2460098A96D88423DD3684600F05FFB01
S3152020B1901EE009EB0A00804507EB0A0041F2140362
S3152020B1A05946184434BFA8EB0A044C462246A244EA
S3152020B1B003F0B2F86868A9EB0409A3442018C24515
S3152020B1C0686004D30099AAEB080A491C0091002440
S3152020B1D0B9F1000F06D113E0E868401CE860009919
S3152020B1E076180096A96800982C7881420ED16CB1E9
S3152020B1F069685145CDD000F003F90028F2D00446E5
S3152020B2000CB1002038732046BDE8F28F42F2EC22A2
S3152020B2103A449668B0FBF6F01CB1B1FBF6F18842B1
S3152020B2200AD0D169884202D342F2D874E9E700F0E5
S3152020B230EBFA0028D0D11CB100F0E2F80400DFD1CF
S3152020B240BAF1000F06D10020012268600099A9607A
S3152020B2502A709EE744F62A64D3E7DFF82C260020BE
S3152020B2601178002918BF00F0CBB8704738B5DFF821
S3152020B270FC450020617821B142F22C00204400F0C8
S3152020B28006FA42F214012144002241F20D050A70E9
S3152020B2906255CA60227332BD2DE9F8430D46DFF888
S3152020B2A0CC753978042411B942F2DD7441E00DB908
S3152020B2B000243EE07B6842F2EC213944CE698A683C
S3152020B2C0012B08BF81460DD00968B0FBF1F828185C
S3152020B2D0401EB0FBF1F0B8FBF2F9B0FBF2F5A5EB7E
S3152020B2E009056D1C42F26C017B58B3FBF2F29145A5
S3152020B2F007D21EE0484600F056FA040003D16D1E00
S3152020B300C14625B90DE0484600F08FFAC146B14521
S3152020B31007D2484609F1010800F076FA0028E9D03C
S3152020B320F4E7787828B142F22C01781800F0AFF9AA
S3152020B33004462046BDE8F28370B5DFF830452078F4
S3152020B34010B942F2DD7070BD42F208300025265831
S3152020B35000E06D1CB5420CD2284600F055FA002894
S3152020B360F7D1284600F01FFA0028F2D070BD002021
S3152020B37070BD60780028FAD042F22C01601800F0C7
S3152020B38086F90028F3D070BD002930B52ED0DFF8FD
S3152020B390DC2442F2EC2342F27C141344144450B1B0
S3152020B3A0012811D0022811D0032814D0052815D021
S3152020B3B0102818D01AE01078002814BF002042F256
S3152020B3C0DD700860002030BD0020FAE700F010F87C
S3152020B3D0ED0A0D60F6E71B680B60F3E71A6898689C
S3152020B3E042430A60EEE700F003F8F2E7042030BD7E
S3152020B3F025686368A268E0685D1955194519704764
S3152020B4002DE9FE4FDFF8645442F2140042F2EC217B
S3152020B4102E186F1872683B6842F2DB789A421CBF5E
S3152020B42000202873D6F808A0002232700121504629
S3152020B43000F05CF8002848D0716841F214022A44B2
S3152020B440504600F07EF9002843D0B868BAFBF0F4C5
S3152020B4502046641C00F0E9F9F168F8690190491C3E
S3152020B460F16006E0204600F0E0F9F068641C401CFC
S3152020B470F06001998C422AD2204600F0C5F9002896
S3152020B480F3D1B868BAFBF0FB00FB0BFB60430090BE
S3152020B490AAEB0B01491C00F029F8B0B1DDF8009089
S3152020B4A0D345396817D205F10D02584600F02FF9F9
S3152020B4B0B8B9396805F10D02484600F042F980B93D
S3152020B4C00BF1010B09F10109EAE7404601E042F2BE
S3152020B4D0D870BDE8FE8F41F214002A18484600F0A5
S3152020B4E030F90028F5D04045BCD1F2E7F8B505461D
S3152020B4F0DFF8786342F2EC200C4637580CE0001D2A
S3152020B500B84208D251F8042B12F1010FF7D00020AF
S3152020B510F2BD0120F2BD641E002CFAD006F10D02E8
S3152020B520394628466D1C00F0F2F80028EFD106F1A6
S3152020B5300D01E5E72DE9F041002705460E46B846E0
S3152020B540CA4C01E07F1CB044B8B2A84224D204F1F0
S3152020B5500D024FF48061404600F0D9F8002802BF42
S3152020B560D4F81100C249884204BFD4F81520012AF4
S3152020B570E8D14FF4806104F10D0000F027F900286E
S3152020B580E0D042F22C004FF4806204F10D012044D9
S3152020B59002F0C2FE002000E00120BDE8F0812DE966
S3152020B5A0F84F054644F62968B5F81290B5F810A04C
S3152020B5B0D5F8C81200260027DFF8B0B209FB0AF01A
S3152020B5C0B0FBF1F44E452FD20BF10D024FF48061E2
S3152020B5D0384600F09CF858BB4FF4806229460BF180
S3152020B5E00D0006F003FB18BB761C5744EAE73046CD
S3152020B5F0761C00F0E6F8A642F9D30024002647461A
S3152020B6004C4512D22A464FF48061304600F099F8F4
S3152020B61000280FBF0027D5F8C802B6FBF0F000F0AF
S3152020B620D0F8641C5644EBE700273846BDE8F28F55
S3152020B6300026E0E72DE9F0418E4C00216160458A05
S3152020B640068A0027D0F80C8001E07F1CB044B8B2CF
S3152020B650A84219D2082817DA22464FF48461404698
S3152020B66000F055F8002802BF60688349884204BF4D
S3152020B670A268012AE9D14FF48461204600F0A6F879
S3152020B6800028E2D0002000E00120BDE8F0812DE94D
S3152020B690F84F814644F62966B9F81280B9F810A0E9
S3152020B6A0D9F8C802D9F80C20002508FB0AF1B2FBEC
S3152020B6B0F0F4B1FBF0F703E000196D1C00F081F8DF
S3152020B6C0A8B2B842F8D36B4F40F21C41381D002552
S3152020B6D000F089F83860D9F80CB0644CA8B24045FF
S3152020B6E012D23A464FF48461584600F02AF810B90F
S3152020B6F06070002605E0D9F8C812BBFBF1F000F0F7
S3152020B70060F86D1CD344E9E73046BDE8F28F2DE979
S3152020B710F04105460C469046544F08E042463146B5
S3152020B720284600F045F850B9B044A41B6D1C34B10E
S3152020B73042F2EC203E58A64228BF2646EEE7BDE838
S3152020B740F0812DE9F84307460C469046474E12E0F5
S3152020B75006F10D022946384600F02AF85FEA00094C
S3152020B7601ED12A4606F10D01404606F03FFAA8B919
S3152020B770A844641B7F1C9CB142F2EC2042F22C117F
S3152020B780355843463A463144A54228BF254600959A
S3152020B790002006F0ABFC0028DAD002E0012000E0F1
S3152020B7A04846BDE8F2830CE00146002006F088BB1F
S3152020B7B080B51346009102463449002006F092FBBC
S3152020B7C002BD02463149002006F032BC10B504469F
S3152020B7D0091F201D00F007F82268904201D1012080
S3152020B7E010BD002010BD3EB504460D4601A806F02A
S3152020B7F085FE2A46214601A806F086FE694601A82E
S3152020B80006F097FE00983EBD30B51A4A00211369EE
S3152020B81000E0491C994206D202EB8104256A854222
S3152020B820F7D1012030BD002030BD12490A69B2F57A
S3152020B830807F0AD201EB8202106208690B4A401CE3
S3152020B8400861012151700020704701207047074967
S3152020B85042F2200330B5CC5842F2F42502684959E9
S3152020B86001FB04220260002030BD0000BC8E222075
S3152020B8704243464EE8B2222054424244C00022206F
S3152020B880A8B1222008B72220D0AE2220E8AF22203D
S3152020B89030B504460420002C85B01EBFDFF8842452
S3152020B8A01178002952D023681D0F0B2D4ED1C3F3BA
S3152020B8B00361012902F543750DD0002946D1204682
S3152020B8C003F0DAFA10B1002129703FE0A2680123A3
S3152020B8D06A602B703AE02978002937D013F00F0FB1
S3152020B8E034D1002101200491039104A900F0D6F936
S3152020B8F060BB03A900F0C4F940BB01A9032000F0D6
S3152020B900CDF918BB6C68049D694602A803F0E9FAB4
S3152020B9106519D8B9009903986418A04238BF42F215
S3152020B920D87013D30198401E054218BF42F2DE700C
S3152020B9300CD10199284607F03CF810B142F2DB7071
S3152020B94004E0029A0099284600F0CCF805B030BDD4
S3152020B95038B503F08DF9102801D0012032BDDFF84B
S3152020B960C453281D07F0D4F9040008D1281D07F058
S3152020B9703BF8040003D100F0BFF9012028702046AF
S3152020B98032BDFEB5054602F0EBFC20B105F1FF00E5
S3152020B99002F0E6FC08B90420FEBD2968DFF88803FA
S3152020B9A0DFF8804381420DD14FF480722946201D35
S3152020B9B002F0B2FC0021201D217007F015F8002886
S3152020B9C06BD0FEBD080F0D285ED1C1F3012000B932
S3152020B9D0012021F4407141EA0021201D296007F031
S3152020B9E097F900286ED1052004F125061821207408
S3152020B9F031702A7804F1450702F003027A74286808
S3152020BA00000AC10001F0180171702A68920A02F01A
S3152020BA10010272722868000B00F00700F071286876
S3152020BA20C0F3810002283874C4D1AA8800F04BF8CC
S3152020BA30F075EA8800F047F830762A8900F043F836
S3152020BA4070766A8900F03FF8B076AA8900F03BF834
S3152020BA50F076EA8A00F037F8B0772A8B0121201D6C
S3152020BA6006F07EFDF077EA8900F02DF838702A8AD4
S3152020BA7000F029F830776A8A00F025F87077AA8AAC
S3152020BA8000F021F8787095E70B2803D12846FFF798
S3152020BA90FFFEFEBD45F27C20FEBD00F02DF901A95A
S3152020BAA0012000F0FBF86946102000F0F7F80098F6
S3152020BAB09E49019A0A6483185B1E01224B648A647C
S3152020BAC000202270FEBD0021201D06F049BD10B5A4
S3152020BAD0944C237813B942F2DD7010BDBDE8104096
S3152020BAE006F062B82DE9F84306468E4D28780C4696
S3152020BAF0904610B942F2DD703CE0304606F059FF00
S3152020BB00A8B342F2DB7035E005F58277786839688C
S3152020BB10002808BF00290CD195F82610C908B6FBA5
S3152020BB20F1F201FB126111B142F2DE7022E03E6099
S3152020BB3002E04118B14217D12118B1F5007F4146C4
S3152020BB4094BFA146C0F5007928444A4600F5867060
S3152020BB50C84402F0E1FB78684E44A4EB090448442B
S3152020BB60B0F5007F786002D100F045F810B9002C9E
S3152020BB70CAD10020BDE8F2832DE9FC41694E054655
S3152020BB8030780C46174604EB050810B942F2DD70D2
S3152020BB902CE000F02DF801A900F072F800998D42D2
S3152020BBA023BF01984218424545F26D201ED306F543
S3152020BBB0867841468020401E41F8047BFBD19CB1EB
S3152020BBC04FF400770020B4F5007FC6F808014246DE
S3152020BBD0284698BF27463946FFF784FF002804BF0A
S3152020BBE07D19E41BEBD001E000F005F8BDE8F681D5
S3152020BBF06946012052E010B54A4C002004F5827295
S3152020BC0053684BB111681060506004F58672201D70
S3152020BC10BDE8104006F039BF10BD2DE9FF41414C4B
S3152020BC20064620780D46AF1910B942F2DD7024E081
S3152020BC30FFF7DEFF01A9052000F030F802A900F069
S3152020BC401FF800998E4223BF02984218BA4245F225
S3152020BC506D2012D375B900200FE000980199301A73
S3152020BC60B0FBF1F1201D06F04AFF5FEA000803D160
S3152020BC7001988619BE42F0D3404604B0BDE8F08133
S3152020BC8010200BE0E0B501A9FFF7B3FF6946FFF7C7
S3152020BC90F7FF00990198FFF7C0FF0EBD10B549B3F5
S3152020BCA0204A02F1A40350B1012811D0022812D033
S3152020BCB0032816D0052816D0102817D01AE0107879
S3152020BCC0002814BF002042F2DD700860002010BD3D
S3152020BCD052690A60FAE75C6898684443A40A0C60B3
S3152020BCE0F4E71A68F5E7586820B1EEE75A689868AD
S3152020BCF04243EEE7042010BDE0B501A90520FFF759
S3152020BD00CDFF69461020FFF7C9FF0648009A8169B2
S3152020BD10914204D2019BB1FBF3F1C0F8AC1007BDD0
S3152020BD20000000003487222053454D435000222016
S3152020BD303EB502F09DFF202801D001203EBD00F017
S3152020BD4043FDDFF8084B44F220102518284607F03B
S3152020BD50DCF870BB284607F023FE50BB694601A8B5
S3152020BD6007F00EF8009B019A0021002000F049FCE4
S3152020BD70F8B944F220004FF48062A11C204402F03E
S3152020BD80CBFA284607F00CFE98B9009B019A44F27C
S3152020BD902C002158012000F034FC50B94FF4846245
S3152020BDA0A11CDFF8AC0A02F0B7FA0120207000F0BF
S3152020BDB024FD3EBD2DE9FC4104460420002C1EBF57
S3152020BDC0DFF8885A2978002950D02268130F0B2BA8
S3152020BDD04CD144F21803C2F30361EE1801290DD089
S3152020BDE0002943D1204603F047F810B100213170B5
S3152020BDF03CE0A26801237260337037E03178A9B322
S3152020BE0002F00F02082A1BD205EBC20044F2600181
S3152020BE1044F2C012D6F80480AF5808446946066812
S3152020BE20446801A803F05DF807FB0686F0B9009860
S3152020BE308044B8FBF7F0844202D3791E0E4201D00B
S3152020BE40042013E044F220100122B6FBF7F1284407
S3152020BE5007F09CFF10B142F2DB7007E0019A0099AF
S3152020BE60304600F096F908B900F092FABDE8F6813E
S3152020BE702DE9F84F07463C4602F072FA28B104F223
S3152020BE80FF34204602F06CFA08B90420FDE0DFF8E2
S3152020BE90BC4944F22C0044F22011251804EB010958
S3152020BEA03946002000F092FB90B3002044F2200374
S3152020BEB020704FF480623946E01802F02DFA484669
S3152020BEC007F06EFD0028E1D1AB88EA882968012099
S3152020BED0DFF87C694FF4846700F093FB002800F09C
S3152020BEE0C680FF223946304602F0A8FFDFF86409D3
S3152020BEF0012170600022B16040F21C413261301D68
S3152020BF0000F051FC306000F041FA0028BED1B3E0A9
S3152020BF103968080F0D2840F0A080786810F00F0FA0
S3152020BF2014BF00F00F060126C0F30348B8F1000F16
S3152020BF30C1F3012008BF4FF0010800B9012021F4E8
S3152020BF40407141EA002139607968C1F30720002831
S3152020BF5021F47F4108BF012041EA00217960387809
S3152020BF6010F00700D8BF45F2E4208FDDB8F1090F85
S3152020BF7028BF45F2E5206FD20020207000F024FC57
S3152020BF80484606F0C2FF002834D144F272102044DD
S3152020BF90002144F229128172A11805230022CB7098
S3152020BFA0C2720A703A7802F0070202703B68C3F325
S3152020BFB0C002CA753A68C2F30212521C42703B680C
S3152020BFC01B0ADA0002F018020A76396844F2501267
S3152020BFD0090B01F00701A1543B681B0C03F0010358
S3152020BFE0C3703968490C01F001010171484607F0F8
S3152020BFF0D7FC002849D1796844F2C81E54F80E008F
S3152020C000BC46C1F3072A16FB0AFAC1F3072200FB16
S3152020C01002F900224FEA4A0A10E004EBC20144F258
S3152020C020600754F80EB0521C394407890BFB07F7DA
S3152020C0304F60408954F80E7078430860424526D2D6
S3152020C0400CEB82001AB1C188878807EB010A478941
S3152020C0505745E2D245F2E62017E00B2804D1384690
S3152020C060FFF7A8FE88B92FE745F2E0200DE03A46F3
S3152020C070A11C304602F050F9002000F0F0FA20B939
S3152020C08001202070BDE8F14FB7E3BDE8F28FEE80A6
S3152020C09009FB06F6A5F804902E60C5F8088013E75C
S3152020C0A02DE9F84F5FEA0208DFF8A06744F2C012B4
S3152020C0B0054606EB02073C68009408BF0420B5FB22
S3152020C0C0F4F904FB195521D0327812B942F2DD70E9
S3152020C0D01CE044F21403BA68F45802FB04990C4677
S3152020C0E010E0B01C41195246404602F015F9009A3C
S3152020C0F05544A4EB0A04D044954224BFAD1A09F135
S3152020C10001090020002C42F2040A0BD1BDE8F28F4F
S3152020C110484600F033FBF0B144F21400D94431589C
S3152020C120491C315056F80A1042F20200305C49452B
S3152020C13000D130BBD7F808B0B9FBFBF218B1B1FB60
S3152020C140FBF0824207D0F868396948438242DFD320
S3152020C15042F2D870DAE742F2020B00203B6806F85A
S3152020C1600B0044F2201CB21C494606EB0C0007F0BB
S3152020C170A9FC20B9012146F80A9006F80B100028C0
S3152020C180C4D10098621990422CBFA246A0EB050A82
S3152020C190A7E72DE9F84F5FEA02080746DFF8AC56F5
S3152020C1A044F2C012AC58009408BF0420A146B7FB25
S3152020C1B0F9F904FB197747D02A7812B942F2DD70B3
S3152020C1C042E044F20803EE18B26D914538BF45F29D
S3152020C1D0E32039D344F2C0142C19F368A2688A4686
S3152020C1E002FB03991CE000980AEB070142F20803A0
S3152020C1F08842414634BFC41B5446E8192246184477
S3152020C200E71902F089F87268AAEB040AA044A2185A
S3152020C210726000998F4224BF7F1A09F101090020FC
S3152020C220BAF1000F04D10FE0F068D944401CF06029
S3152020C230B0683478484509D144B17068B842D2D024
S3152020C24000F00DF90028F3D0BDE8F28F44F2C0119A
S3152020C2506A18D2F808B0B9FBFBF11CB1B0FBFBF091
S3152020C26081420DD0D06812695043814202D342F2D6
S3152020C270D870E9E7484600F081FA0028D4D11CB1CD
S3152020C28000F0EDF80028DFD137B9002001217060B9
S3152020C290C6F808903170A6E745F2D120D4E72DE9DB
S3152020C2A0F047DFF8A87544F2C0157C193A7825693D
S3152020C2B0E3684FF001085D4312B942F2DD703AE09F
S3152020C2C009B9002037E02368A268B0FBF3F60818E6
S3152020C2D0401E44F26001B6FBF2F9B0FBF3F07B5826
S3152020C2E0B0FBF2F6A6EB0906761CB3FBF2F29145DB
S3152020C2F009D245F2E3201EE0504600F05DF95FEAC0
S3152020C300000802D1761E86B102E0504600F08CFA53
S3152020C310CA46AA4509D2A0680AF1010900FB0AF0FB
S3152020C32000F02CFA0028E7D0F2E7787810B100F058
S3152020C3302DF880464046BDE8F08744F2C8122DE904
S3152020C340F041DFF808650025B7183078BC68796891
S3152020C3504C4388B942F2DD7016E03868684300F015
S3152020C3600DFA40B9284600F027F95FEA00081CBFDD
S3152020C370284600F059FA6D1CA542EED3707810B1EC
S3152020C38000F004F880464046BDE8F081012066E1B1
S3152020C390DFF8C42400201178002918BF00F05FB8E8
S3152020C3A0704738B5DFF8A4440020617809B1FFF73B
S3152020C3B0EDFF44F208012144002242F202050A70D0
S3152020C3C06255CA6032BD002930B52BD0DFF87C24D7
S3152020C3D044F2C013D41850B1012811D0022811D00C
S3152020C3E0032814D0052815D0102818D01AE0107844
S3152020C3F0002814BF002042F2DD700860002030BDE6
S3152020C4000020FAE700F010F8AD0A0D60F6E7236861
S3152020C4100B60F3E7A268206842430A60EEE700F04B
S3152020C42003F8F2E7042030BD2569E368A268206876
S3152020C4305D43554345437047DFF8101401F5844288
S3152020C4401078002800D0704710B5002342F202044D
S3152020C45042F204000B550B50891C516010BD2DE96A
S3152020C460FE4FDFF8E84344F2080044F2C0112518B5
S3152020C4706618D5F808A03369F068B268434301935B
S3152020C4800020287068683168BAFBF2F8884207D005
S3152020C49042F20803091A2344FF22184405F09CFB84
S3152020C4A044F2201301225146E01807F06FFC0028A1
S3152020C4B042F2DB7B48D1306842F2080162180146FD
S3152020C4C000FB0AF000F052F8002841D0404608F13F
S3152020C4D0010800F0A9F9E86805E0404600F0A4F933
S3152020C4E0E86808F10108401CE860019988452DD2AA
S3152020C4F0B76807FB08F9484600F040F90028EFD135
S3152020C500BAFBF7F0474344F22010204449460090D6
S3152020C510AAEB0702521C07F039FCA8B95745316807
S3152020C52018D200980B46A21C394607F0CBFAC0B980
S3152020C5303068A21C014600FB09F000F017F880B9EC
S3152020C5407F1C09F10109E9E7584601E042F2D8703B
S3152020C550BDE8FE8F42F20800221801FB0AF000F007
S3152020C56005F80028F4D05845B7D1F1E72DE9F04752
S3152020C570904644F2C015B54E08EB010972590C4677
S3152020C580B0FBF2FAFFF758FF38460CE044F22010B1
S3152020C5903B4642465146304407F000FB50B9B8444A
S3152020C5A0E41B0AF1010AC84504D27759BC4238BF98
S3152020C5B02746EBE7BDE8F08710B50446FFF73CFF9A
S3152020C5C02146A648BDE8104007F082BB10B50C4690
S3152020C5D020B9A34A201D4FF47F7103E09D4A201DD8
S3152020C5E040F21C416368934204BFA268012A06D107
S3152020C5F000F0D9F82168884201D1012010BD002001
S3152020C60010BD2DE9F04782460F46904D914698461B
S3152020C6104FF40051A81C07F0F9FB5FEA0A000CBF73
S3152020C6204FF480644FF48464002601E04744761C4E
S3152020C6304E4511D244F2C010AA1C285821467843D0
S3152020C640FFF72EFD0028F1D1A91C5046FFF7BEFF8B
S3152020C6500028EBD0002000E00120BDE8F0872DE95E
S3152020C660F84F804D84B06A8A2B8A0192019A0293D0
S3152020C670012A06D953437C4AD2F808A0B3FBFAFAFA
S3152020C68001E04FF0010A8DF80000774CF8B900261A
S3152020C690B146B346DDF80480029FC14558D22068B2
S3152020C6A0724A4FF4806100FB0BF0FFF7F9FC00285B
S3152020C6B051D166484FF480622946801C05F096FAAF
S3152020C6C0002804BF09F10109BB44E6D043E0D5F890
S3152020C6D00C90A0685E4D45F2E22703954FF48468BE
S3152020C6E0B9FBF0F440F21C41281D00F05CF82860CC
S3152020C6F0002503E028196D1CFFF75EFF5545F9D369
S3152020C7000024DDF804A0029D039EDFF85CB1544589
S3152020C71032D2DBF800003246414600FB09F0FFF713
S3152020C72025FF40B99DF80000012802D10021474A63
S3152020C7305170002705E0DBF80800B9FBF0F0FFF781
S3152020C7403BFF641CA944E2E7002005B0BDE8F08F3A
S3152020C750CDF8048002E0CDF804800126029700243B
S3152020C760002EA14645F2E12703954FF48068EBD0B1
S3152020C7704FF47F713E48B8E73846E6E770B53D4B23
S3152020C78001461C68324B00220020B1FBF4F11C69C3
S3152020C79000E0521CA24205D203EB82052E6AB1424A
S3152020C7A0F7D1012070BD3EB504460D4601A805F0FF
S3152020C7B0A5FE2A46214601A805F0A6FE694601A81F
S3152020C7C005F0B7FE00983EBD70B5204C44F22003FC
S3152020C7D0E518FF224FF48061284602F02FFB204ED9
S3152020C7E0012344F224006E60AB604FF47F71204415
S3152020C7F0FFF7D9FF2860002070BD1CB569464FF48D
S3152020C800807001F0C8FC70B9009A14201A4942435E
S3152020C810154803680A44D3600469C16880684C437C
S3152020C82044439460002016BD09490A69B2F5807FE9
S3152020C8300AD201EB820210620869044A401C086170
S3152020C840012151700020704701207047383E222058
S3152020C8505882222054424244407E2220587F222041
S3152020C8604243464E587E2220F87F22203A3E2220DE
S3152020C8705C7E222000802220C000222030B5044663
S3152020C8800420002C85B01EBFDFF8A42511780029AE
S3152020C89056D023681D0F0B2D52D1C3F303610129D6
S3152020C8A002F23C450DD000294AD1204602F0E4FA76
S3152020C8B010B10021297043E0A26801236A602B7001
S3152020C8C03EE0297800293BD013F00F0F38D10021E4
S3152020C8D001200491039104A900F06EF980BB03A9DD
S3152020C8E0102000F069F958BB01A9032000F064F953
S3152020C8F030BB6C68049D694602A802F0F2FA6519DD
S3152020C900F0B9009903986418A04238BF42F2D87033
S3152020C91016D30198401E054218BF42F2DE700FD171
S3152020C9200199284600F0B6F810B942F2DB7007E0EC
S3152020C930029A0099284600F017F808B900F052F814
S3152020C94005B030BD0020DFF8E8148860704710B5A8
S3152020C9501346DFF8DC44227802B998E00A461946C5
S3152020C960BDE8104007F08EBA2DE9F8438046DFF85F
S3152020C970C05428780C469146D5F8287410B942F22E
S3152020C980DD702DE0B7F5806F88BF4FF4806734B314
S3152020C990A8686968002804BF0029C5F8048002D049
S3152020C9A04118414516D121188F422CBF26463E1AC2
S3152020C9B0284400F10C01894504D0324649460C30E2
S3152020C9C001F0AAFCA868A41BB144B0443018B84290
S3152020C9D0A860DCD100F006F80028D8D000E000209E
S3152020C9E0BDE8F283F8B5DFF84864ADF5806DB5680B
S3152020C9F00024DDB177687460B4602A4606F10C0104
S3152020CA00384607F0BFFA040010D12A466946384630
S3152020CA1007F038FA040009D12A46694606F10C00A7
S3152020CA2005F0E4F810B142F2DF7000E020460DF563
S3152020CA30806D01B0F0BD38B50D460446DFF8F01301
S3152020CA40087810B942F2DD7032BD2946204607F01B
S3152020CA5031FA40B92946204600F01CF810B942F296
S3152020CA60DF7032BD002032BD10B5DFF8C4432078F8
S3152020CA7000B90CE007F05FFA40B9D4F8241400F08E
S3152020CA8009F810B942F2DF7010BD002010BD42F225
S3152020CA90DD7010BD70B5ADF5806D05460C4610E0F5
S3152020CAA0491CB1EB960F0AD250F8042B12F1010F34
S3152020CAB0F6D0002000E001200DF5806D70BDA41B6E
S3152020CAC07519002CF7D04FF48066B4F5806F69462F
S3152020CAD0284698BF2646324607F0D4F968460021D4
S3152020CAE0DFE72DE9F8430646042401F039FC002827
S3152020CAF05FD006F12B0001F033FC002859D0306896
S3152020CB00DFF82C5305F5826805F20C47DFF82493CD
S3152020CB10000F0C281AD12C214046FDF7FBFC4FF4A0
S3152020CB2080300121B86005F58660022201704270AE
S3152020CB300323052106228370C47001713146427178
S3152020CB404046C7F8049000F0D5F813E03068010F6E
S3152020CB500B2904D13046FFF791FE044629E04845AB
S3152020CB6027D12C214046FDF7D5FC2C2231464046A4
S3152020CB7001F0D2FB00203C7B2870D7F8108005F5E9
S3152020CB808360AD4E02F006F8204601F0BDFF314607
S3152020CB90204601F0F1FF42463146204600F034F887
S3152020CBA0396805F5846007F035F9040004BF0120B3
S3152020CBB028702046BDE8F28321B39D4A02F2244301
S3152020CBC050B1012811D0022814D003280FD00428D0
S3152020CBD014D0102814D015E01078002814BF002077
S3152020CBE042F2DD700860002070470020FAE75A687C
S3152020CBF00A60F8E71B689B0A0B60F4E79868F1E760
S3152020CC001A68F5E70420704770B58CB004460D46A7
S3152020CC10164607A891A1142201F07EFB1C21684606
S3152020CC20FDF778FC00960821009B0191834900227C
S3152020CC30ADF80820B1FBF3F38DF80A200A460393BA
S3152020CC4013460099B2FBF1F1009A049102218DF846
S3152020CC5018106946B3FBF2F20592002207AB8DF835
S3152020CC601920ADF81A2053F824002A4607F0DCFABA
S3152020CC700CB070BD2DE9F0430746714889B088462F
S3152020CC8016460478457804A879A1142201F044FB9D
S3152020CC90E946002000210022002389E80F004FF4D6
S3152020CCA0801003900EB9012201E0032E05D12946DA
S3152020CCB0204601F043FF002019E0012E08BF0197EE
S3152020CCC002D0022E08BF0097CDF8088004A8694616
S3152020CCD050F8240007F00CFCB0F5C87FF6D030B110
S3152020CCE000222946204601F029FF42F6CD1009B020
S3152020CCF0BDE8F08370B50B78524A03F00F0302EBA0
S3152020CD008304E56D85610B68C3F3031302EB83046B
S3152020CD10256CC5610B68C3F3032352F823204A4BA5
S3152020CD2042610C68240B04F00F04012C02D0022C43
S3152020CD3010D012E0012202744269B2F5803F98BFDA
S3152020CD40102205D99A4202D21823437436E0202293
S3152020CD50427433E00223037430E0002260240274FC
S3152020CD6000F12102D47145699D4213D21823422411
S3152020CD7043745471C369B3F5803F28BFD82316D294
S3152020CD80B3F5805F08BF202417D0B3F5004F15D107
S3152020CD9052230CE0202412254474132300261570D8
S3152020CDA053705671C369B3F5803F02D3DC23937148
S3152020CDB004E0B3F5805F01D1212494710A68120D15
S3152020CDC002F00F02521E032A0BD8DFE802F00204DB
S3152020CDD00608012206E0022204E0032202E00422C1
S3152020CDE000E0002202720A68120C02F00F02012AC9
S3152020CDF006D004D3032A03D038BF022200D3002230
S3152020CE0042720A68C2F303627AB1097901F00F01EE
S3152020CE10012904D009D3032905D002D305E00B49E3
S3152020CE2004E00B4902E00B4900E00B49C16070BDCC
S3152020CE30AC0122206B736563005A620200CA9A3BBA
S3152020CE40C405222038012220010000018096980066
S3152020CE50404B4C0080841E00002D31010000000034
S3152020CE60004039400080394000C0394000003A4017
S3152020CE7000000000004039400080394000C0394081
S3152020CE8000003A40F0B504460420002C85B01FBF90
S3152020CE90DFF8F45505F565763178002972D02268B9
S3152020CEA0130F0B2B6ED1C2F3036101290DD000295C
S3152020CEB068D1204601F0E0FF10B10021317561E0F4
S3152020CEC0A2680123B26133755CE0317D002959D0F7
S3152020CED012F00F0F56D1002101200491029104A9AE
S3152020CEE000F036FA00284DD102A9022000F030FAAF
S3152020CEF0002847D10298DFF894154FF0FF34884256
S3152020CF0001A928BF0294052000F022FA002839D151
S3152020CF10B769049E694603A801F0E3FFBE1988BBC2
S3152020CF20009902987F18B84238BF42F2D87029D388
S3152020CF300198401E064218BF42F2DE7022D195F893
S3152020CF400003019B0128084601990246B0FBF1F116
S3152020CF50019818BF002400FB11221000224618BF7A
S3152020CF6001204118B6FBF3F000F067FA10B942F21F
S3152020CF70DB7007E0039A0099304600F043F908B9A0
S3152020CF8000F095F905B0F0BD3EB5DFF8FC44DFF89A
S3152020CF90001521600E20FCF786FE0546DFF8F404F6
S3152020CFA0FCF769FE401C40F2FF11B5FBF0F06060F3
S3152020CFB004F55B750222A9846A84204607F01CFCAE
S3152020CFC0E8B9204608F022FCB0B901A940F2211088
S3152020CFD001F0E1F898B900F013F880B9019B1421EB
S3152020CFE0DFF8B4242D684B43D118CD60009A8A608F
S3152020CFF0012184F894133EBD002384F894333EBD4A
S3152020D000694620464CE27FB5054601F0A9F968B16C
S3152020D010E81D01F0A5F948B12868000F0B2803D197
S3152020D0202846FFF72FFF02E00C2802D0042004B068
S3152020D03070BDDFF854444FF46C712046FDF76AFA30
S3152020D040DFF84C0420600E20FCF72DFE0646DFF884
S3152020D0504404FCF710FE401C0222B6FBF0F0606070
S3152020D06004F55B76728440F2FF11B184286804F1BE
S3152020D0702801030B000A03F00F0300F00F000B70AA
S3152020D08048706868C20C02F001020A7341F28832A5
S3152020D090C30D000E00F0030003F0010301284B739B
S3152020D0A040F6C41306D002D3032808D005D344F66D
S3152020D0B0206005E042F2107002E0104600E018469B
S3152020D0C048606868C0F3005000B11A468A606868D4
S3152020D0D0800C00F001008873204608F097FB00287A
S3152020D0E0A5D129682046090E01F0070108F0A6FDE2
S3152020D0F000289CD103A9FFF784FF002897D102A9F5
S3152020D10040F2211001F047F8002890D1029B1421EB
S3152020D110DFF8842336684B43D118CE60039A8A6081
S3152020D1202968CB071DD5C1F30112080C8DF80420E0
S3152020D13000F003000A0D8B08C90801F001018DF8C3
S3152020D140030002F0070203F001038DF802108DF888
S3152020D150012069468DF80030204608F081FE0028FF
S3152020D16002D1012184F8941361E72DE9F84FDFF8E5
S3152020D1701893824609F565760C463078904610B984
S3152020D18042F2DD703CE04FEA5A2509F56C70AAEB95
S3152020D19045254FEA5A2700900FE000985A46A4EBDF
S3152020D1A00B044119404601F0B7F85D44B5F5007FE0
S3152020D1B0D84424BFA5F500757F1C04B3707878B1B8
S3152020D1C0706887420CD3411C8F4209D2AAEB402596
S3152020D1D06019B0F5007F94BFA346C5F5007BDCE738
S3152020D1E000200099707001233A46484608F045FDF4
S3152020D1F0002802BF012070707760E9D000E000206F
S3152020D200BDE8F28F2DE9F84FDFF87C9209F5657796
S3152020D2103B7813B942F2DD703EE082464FEA5A2629
S3152020D220AAEB46264FEA5A240D46904613E009F5E6
S3152020D230B66041465A46801901F06EF8F9685E4478
S3152020D240B6F5007FA5EB0B05D8445944F96024BFD9
S3152020D250A6F50076641CF5B1387A18B3386984426D
S3152020D2601CD3411C8C4219D2AAEB4026F868B04226
S3152020D27009D000F09AF80028EED00DE000200121F8
S3152020D280F8603C613972A819B0F5007F94BFAB468F
S3152020D290C6F5007BCBE70020BDE8F28F00F085F8AD
S3152020D2A00028F9D1002EE9D042F2DE70F4E7764A42
S3152020D2B0002092F89C13002918BF00F076B87047FA
S3152020D2C076480021C17101700020704770B506464E
S3152020D2D06D4D95F894030C4610B942F2DD7070BD61
S3152020D2E0284608F0A3FC10B142F2E07070BD94B13C
S3152020D2F005F55B70A419C1690068641EB4FBF0F2C1
S3152020D300B2FBF1F2B6FBF0F0B0FBF1F12846BDE816
S3152020D310704008F0F7BC70BD38B55B4C04F56275DB
S3152020D320287B10B942F2DD7032BD204608F07EFC03
S3152020D33010B142F2E07032BDFFF762FE38B9009894
S3152020D3402968B0FBF1F20021204608F0DBFC32BD33
S3152020D35038B50C0027D04C4D30B101280ED00228EC
S3152020D3600ED005281BD01EE095F89403002814BF64
S3152020D370002042F2DD702060002032BD0020FAE736
S3152020D3806946284600F08CF80028F6D1009AD5F870
S3152020D3906C13A1FB0201800A40EA8150EBE7D5F805
S3152020D3A06C232260E8E7042032BDF8B5364C2046AF
S3152020D3B008F03CFC10B142F2E070F2BD04F567752E
S3152020D3C004F5B66668684FF0FF37B0F5007F0AD0BF
S3152020D3D094F800130129C0F5007130440CBF3A4659
S3152020D3E0002204F0F9FB94F8001300202870A86886
S3152020D3F0012918BF00273A46012100F01EF810B94E
S3152020D40042F2DB70F2BDAA6801233146204608F09D
S3152020D4104DFC88B9AA6804F56C7701233946204645
S3152020D42008F02BFC40B94FF400723946304604F000
S3152020D430DDFB08B142F2DF70F2BD2DE9F843054647
S3152020D4400C461646DFF8408017E008F56C793B46F7
S3152020D4502A464946404608F010FC40B900E0001D07
S3152020D460B0EB472F08D259F8041BB142F7D0002041
S3152020D47000E00120BDE8F283E41B002CF9D0012C2A
S3152020D4808CBF01272746E0E79C2C22200100400064
S3152020D49000402C4024F00080C00022203130222061
S3152020D4A010B5024602F55C72137F0020072B14D894
S3152020D4B0DFE803F004060613090B0D10126807E0B7
S3152020D4C054680C6010BD926802E0D36803E01269AC
S3152020D4D00A6010BD53690B6010BD042010BDF0B446
S3152020D4E00246106895681318506803EB5004C0074D
S3152020D4F01DD54D441BE013F8017B05F8017B491E01
S3152020D500F9D1A0B1B60813F8011B06F00306032EA5
S3152020D51008BF13F8016B01EB06214942801C2944E0
S3152020D52005D011F8016B05F8016B401EF9D1A342F5
S3152020D5300ED013F8016B16F0030104BF13F8011B5C
S3152020D540C91C30090F28DAD113F8010B0F30D6E782
S3152020D550F0BC02F10C007047F0B504460420002CE4
S3152020D56085B01FBFDFF8342502F1AA05A97D002941
S3152020D57073D023681E0F0B2E6FD1C3F303610129AD
S3152020D58002F1D4060DD0002967D1204601F074FC83
S3152020D59010B10021317060E0A268012372603370DF
S3152020D5A05BE03178002958D013F00F0F55D1002198
S3152020D5B001200491029104A900F0DCF900284CD125
S3152020D5C002A9022000F0D6F9002846D10298DFF8D9
S3152020D5D0D0144FF0FF34884201A928BF0294052099
S3152020D5E000F0C8F9002838D17768049E694603A838
S3152020D5F001F077FCBE1980BB009902987F18B842AB
S3152020D60038BF42F2D87028D30198401E064218BF50
S3152020D61042F2DE7021D12878019BC107009801991A
S3152020D620B0FBF1F10246019858BF002400FB1122DD
S3152020D6301000224618BF01204118B6FBF3F000F057
S3152020D64006FA10B942F2DB7007E0039A00993046B9
S3152020D65000F0F1F808B900F043F905B0F0BD38B56F
S3152020D660DFF83844DFF83C1421600E20FCF71BFB42
S3152020D6700546DFF83404FCF7FEFA401CB5FBF0F033
S3152020D6806060204607F00AF960B92046B43409F0D4
S3152020D69037FA28B900F070F820B900F072F832BDB8
S3152020D6A00023237332BD7CB5044600F059FE68B1B1
S3152020D6B0E01C00F055FE48B12068000F0B2803D14E
S3152020D6C02046FFF749FF76BD0D2801D0042076BDE0
S3152020D6D0DFF8C853DC212846FCF71CFFDFF8C403FB
S3152020D6E028600E20FCF7DFFA0646DFF8BC03FCF79D
S3152020D6F0C2FA401C05F12801B6FBF0F068602068CC
S3152020D700020B02F007020A70C20D030AC60C000E95
S3152020D71000F0030003F0010302F0010201284B7000
S3152020D72006F001064A730E7341F2883240F6C4137E
S3152020D73006D002D3032808D005D344F6206005E07E
S3152020D74042F2107002E0104600E018464860206839
S3152020D750C0F3005000B11A468A60284609F0D0F955
S3152020D76005F1B40428B900F007F820B900F009F82B
S3152020D77076BD0023237376BD69464FF4907000F062
S3152020D7800ABD009B1421DFF8242365684B43D1185A
S3152020D790CD6022688A600121217370472DE9F84FD8
S3152020D7A0DFF8F892824609F1C0060C46307890467A
S3152020D7B010B942F2DD703CE04FEA5A2509F1DC002F
S3152020D7C0AAEB45254FEA5A2700900FE000985A46A3
S3152020D7D0A4EB0B044119404600F09EFD5D44B5F5AF
S3152020D7E0007FD84424BFA5F500757F1C04B370782C
S3152020D7F078B1706887420CD3411C8F4209D2AAEB9C
S3152020D80040256019B0F5007F94BFA346C5F5007B5F
S3152020D810DCE700200099707001233A46484609F03B
S3152020D820D1FB002802BF012070707760E9D000E08C
S3152020D8300020BDE8F28F2DE9F84FDFF8609209F13C
S3152020D840C0073B7813B942F2DD703EE082464FEAAC
S3152020D8505A26AAEB46264FEA5A240D46904613E02E
S3152020D86009F5377041465A46801900F055FDF9686A
S3152020D8705E44B6F5007FA5EB0B05D8445944F960E4
S3152020D88024BFA6F50076641CF5B1387A18B338691A
S3152020D890A0421CD1411C8C4219D2AAEB4026F86802
S3152020D8A0B04209D000F089F80028EED00DE0002003
S3152020D8B00121F8603C613972A819B0F5007F94BF28
S3152020D8C0AB46C6F5007BCBE70020BDE8F28F00F003
S3152020D8D074F80028F9D1002EE9D042F2DE70F4E760
S3152020D8E06E4A002092F8C810002918BF00F065B8AB
S3152020D8F070476F480021C17101700020704770B5B4
S3152020D9000546664E96F8C0000C4610B942F2DD70E8
S3152020D91070BD304609F04EFB10B142F2E07070BD6A
S3152020D92054B1690A65196D1E3046C1EB5522BDE8F2
S3152020D9307040521C09F08FBB70BD38B5574C04F18E
S3152020D940B405287B10B942F2DD7032BD204609F09D
S3152020D95031FB10B142F2E07032BD28686968A1FB24
S3152020D960002320460021520A42EAC352BDE838400D
S3152020D97009F071BB10B5F1B14E4A30B101280DD056
S3152020D98002280DD0052814D015E0107B002814BFBE
S3152020D990002042F2DD700860002010BD0020FAE74A
S3152020D9A014685368A3FB0423920A42EA83520A602E
S3152020D9B0F2E75068EFE7042010BD2DE9F041374CFF
S3152020D9C0204609F0F7FA10B142F2E0703DE004F16A
S3152020D9D0CC0504F53776286804F1AA074FF0FF38DE
S3152020D9E0B0F5007F09D03978CA07C0F500713044D8
S3152020D9F04CBF4246002204F0EFF839780020B87751
S3152020DA00CA0758BF804668684246012100F01FF8A1
S3152020DA1010B942F2DB7018E06A68012331462046AD
S3152020DA2009F0EDFA88B96A6804F1DC070123394642
S3152020DA30204609F0C7FA40B94FF4007239463046DD
S3152020DA4004F0D4F808B142F2DF70BDE8F0812DE968
S3152020DA50F84305460C461646DFF8408017E008F1C5
S3152020DA60DC093B462A464946404609F0ABFA40B9EE
S3152020DA7000E0001DB0EB472F08D259F8041BB14215
S3152020DA80F7D0002000E00120BDE8F283E41B002C23
S3152020DA90F9D0012C8CBF01272746E0E7C03522206C
S3152020DAA00100400000002C4024EB0080C0002220F2
S3152020DAB08136222074362220416882688A4209D201
S3152020DAC0891A826641600FF2D52101600122826087
S3152020DAD00020704742F2787070470FF209010160EA
S3152020DAE00020704710B5416ADFF84C444A8982826B
S3152020DAF0CB689B1E43604A68A24202D1097A02293A
S3152020DB0002DB42F2757010BD0FF20902026000207E
S3152020DB1010BD0000416A43684A6882610A68D21EA5
S3152020DB209A42826002D342F2767070470989002990
S3152020DB3008BFFFF7C1BF42F277707047F8B5044699
S3152020DB40DFF8F863B4F85A30376804F15C05626A66
S3152020DB506968D7F808C01806000F1B0A43EA002375
S3152020DB602868E047A0B930680169884780B9616A8A
S3152020DB70102204F11C0004F0C7FC00F044F80098A1
S3152020DB80A968884200D043E00FF2112020600020AF
S3152020DB90F2BDF8B504461022616A04F11C00DFF8B4
S3152020DBA09C6304F15C0504F0AFFCB4F85A30376866
S3152020DBB0626A10211806000F1B0AD7F808C043EA0C
S3152020DBC000232868E047E8B928681030286068686C
S3152020DBD010381028686088BFDFF8640310D810B189
S3152020DBE0DFF860030CE030680169884750B900F0FF
S3152020DBF00AF80098A968884200D009E00FF29D1003
S3152020DC0020600020F2BD694604F11C0004F091BC7E
S3152020DC1042F27A70F2BD10B5044604F11C0004F0DD
S3152020DC206DFC216E11292CBFDFF81403DFF81403B5
S3152020DC302060002010BD38B5C04B426E1C68016E96
S3152020DC40C06DE568A84732BDB0F85A2013061B0FD1
S3152020DC50110AD20741EA03214CBF082304230429B1
S3152020DC6001D00420704700F16002C16DB64800F053
S3152020DC70C1BC70B5044642F27F76E56D284600F099
S3152020DC806FFB80B1606E04F11801A8470646012E6D
S3152020DC9003D12046BDE870400EE7022E03D100F0C6
S3152020DCA0C3F8002070BD304670BD10B5436800F122
S3152020DCB05C02516881608B4202D242F2767010BD9E
S3152020DCC0147AE30707D512688469A24203D111B1D9
S3152020DCD0C160002010BD90F85A10CA0702D542F222
S3152020DCE07C7010BDBDE81040E6E638B5B0F85A1075
S3152020DCF08A071FD40B061B0F0A0AC9071CD542EA1E
S3152020DD000322083A0ED0521E04D0F73A0ED0521EC5
S3152020DD1004D00FE0BDE83140FCF7FBBEBDE8314022
S3152020DD20FDF70ABBBDE83140FDF7ACBFBDE8314069
S3152020DD30FEF703BB042032BD42EA03227F4B1C6838
S3152020DD405C3041680068A569A84732BD1CB50446E9
S3152020DD50B4F85A000106090F000A40EA01200928D2
S3152020DD6003D1E06DFCF76BFC16BD082803D1E06DCE
S3152020DD70FDF707FE16BD01290ED1694600F00BFAE4
S3152020DD8058B9E06D009C6D4A142193684C431919AB
S3152020DD900A691369984716BD042016BDF8B50446AE
S3152020DDA004F15806616A304610225A2500F0B4FA4A
S3152020DDB00120375C401CED191028FAD3307805F065
S3152020DDC0FF05A84202D042F27970F2BD717842F264
S3152020DDD012700A2925D8DFE801F01A060A0E261223
S3152020DDE01A16261C20002046BDE8F2405DE7204674
S3152020DDF0BDE8F2400FE72046BDE8F2401BE720466B
S3152020DE00BDE8F24035E72046BDE8F2406DE7002028
S3152020DE10F2BD2046BDE8F24098E72046BDE8F24014
S3152020DE2012E742F27B70F2BD10B5484C7021204695
S3152020DE30FCF770FB464A0020226010BDF8B5064646
S3152020DE400C4600200027434DA74218D02969E01B05
S3152020DE50C1F1100109E080B12B69F25D7F1C491EBA
S3152020DE60401EEA542A69521C2A610029F3D1002037
S3152020DE70286100F005F810B9E6E742F27D70F2BD80
S3152020DE8080B53248334A4262C26800212AB10369EA
S3152020DE9093420AD05B1C036101E0826E1AB90168A5
S3152020DEA08847014601E0521E8266084602BDF8B523
S3152020DEB0224C20680169884700283CD1234F97F8B7
S3152020DEC05900042823D107F15C052E68304600F03E
S3152020DED047FAC8B10020FCF7F1FA97F85A008107D3
S3152020DEE010D568686861616860B10A68904222BF6F
S3152020DEF04968491C814201D20420F2BD80F308885A
S3152020DF0080F30988A868B04742F27E70F2BD0828BF
S3152020DF100FD10220FCF7D2FABFF34F8F0E490F48BC
S3152020DF200A6802F4E06202430A60BFF34F8F00BF03
S3152020DF30FDE742F27B70F2BD53544D501000222053
S3152020DF4093DB20203DDB202000401F403835222037
S3152020DF50DBDA2020AC3522200CED00E00400FA0587
S3152020DF607CB50C00164605461A4601D1002076BD02
S3152020DF70100A10F00F0002D001280AD019E06A46B4
S3152020DF80284600F0BBF8B0B900F0A2F86568A8478B
S3152020DF9076BD6B46284600F0D4F860B90098A24A90
S3152020DFA003692846996951605B683246214698471D
S3152020DFB076BD42F2D87076BDF8B50C0017460646D7
S3152020DFC01A4601D10020F2BD100A10F00F00964DFE
S3152020DFD002D0012816D02CE0304600F0F1F840BBC4
S3152020DFE06A462146304600F089F820BB009B214610
S3152020DFF030463A46DC68A668B047B8B90099CA6860
S3152020E000136911E06B46304600F09BF898B90098CA
S3152020E0103A4603693046996969609B682146984744
S3152020E02020B900990A6953692B60F2BD0021296025
S3152020E030F2BD42F2D870F2BD7CB5130A13F00F035D
S3152020E04005460C4642F2D87602D0012B14D025E084
S3152020E0506A4600F053F8F0B90099CA68506998B119
S3152020E0602146284600F0ACF8C0B9009A2146284619
S3152020E070D3685C69A04776BD6B4600F062F850B93C
S3152020E08000980169CA6812B942F2E57076BD214628
S3152020E0902846904776BD14B9002076BD304676BDF9
S3152020E0A07CB50C000546164601D1002076BD00F031
S3152020E0B087F810B142F2D87076BD6A4621462846A6
S3152020E0C000F01CF818B900F003F8E568A84776BDDB
S3152020E0D0009B214628463246DC68704710B5524CB4
S3152020E0E0206810B180470021216010BD10B54E4C0C
S3152020E0F0606810B180470021616010BDF0B5160020
S3152020E1000D4642F2D8771AD048494A68326015B966
S3152020E11015E01033336033688BB11A68002A04BFA8
S3152020E1205C68002C01D1D96849B1904224BF596836
S3152020E1308142EED32818401E814228BF0027384628
S3152020E140F0BDF0B50646174642F2D87C0BB33748C9
S3152020E15082681A6019B91CE005F114041C601D6838
S3152020E160BDB12A68002A04BF6C68002C07D1A86894
S3152020E170002804BFEC68002C01D1286948B19742B9
S3152020E180EAD1AA68E8688E194243B24228BF4FF0E6
S3152020E190000C6046F0BD70B505460420002671B1FE
S3152020E1A0224A946801E0761C143444B1236833B1A2
S3152020E1B02269002A03D09D42F5D10E60002070BD31
S3152020E1C0F0B50918194B491E00225F68DC682569BD
S3152020E1D005EBC20606F17C041601BD596668246843
S3152020E1E0AC4208BFAE4203D0864228BFA14204D209
S3152020E1F0521C012AEAD90020F0BD0120F0BD70B5BD
S3152020E2000A4D6E6803E0006800B180471036F0683A
S3152020E2100028F8D1AD6803E0096801B18847143594
S3152020E22029690029F8D162BD942C222010002220B1
S3152020E2300246012000E0491E21B112F8013BFF2BA6
S3152020E240F9D0002070470000F0B5064604240D467C
S3152020E250002EA3B018BF002D56D03821284605F011
S3152020E260D5FD38224323AA708120EB7066212870A1
S3152020E27000205522E871102329716A710EA8AB71EE
S3152020E28008F029FF04003FD10020214F8DF83B00C4
S3152020E2900EA9384609F0B0F8040035D1102205F130
S3152020E2A00801384609F0D8F804002DD10D210AA8F6
S3152020E2B0FCF730F906A809F021F905F1080180229A
S3152020E2C006A809F02FF9102005F1280105F11802DA
S3152020E2D00023059006A80491102103920AAA0193EF
S3152020E2E000930D23029609F000FC0A49802206A8F5
S3152020E2F009F018F9102005F10803009005F108020D
S3152020E300012106A809F056FA204623B0F0BD00BF09
S3152020E31000C00C40AB89DCFE4AB1000011F8013B5D
S3152020E320521E00F8013B1CBF11F8013BF8E770474D
S3152020E33038B504460D460020FCF7C0F87648002163
S3152020E3400560764A44601160036883F3088883F366
S3152020E3500988406880470020BDE83240FCF7AEB8E7
S3152020E36000281CB51EBF10F1010F6D49884201D12E
S3152020E370002016BD6A4602210024FFF7BFFE20B9E1
S3152020E3800098017ACA0748BF0124204616BD10B539
S3152020E3900246644900204B6800E01033D96861B1F9
S3152020E3A01C7A04F01104112CF7D119689142F4D269
S3152020E3B05C68641C9442F0D3012010BD2DE9FC4DED
S3152020E3C0584E594FF0683C46016901F18C080AE005
S3152020E3D0D8F83420024205D06369E268204699693C
S3152020E3E053689847183420680028F1D14FF47A7062
S3152020E3F00024FBF700F90025A246CDE90001AB4613
S3152020E40000F034FC88BBFFF7ABFF70B3F0680169DE
S3152020E41091F8AA20D00703D400210020FFF788FFF7
S3152020E420B8F812004FF6FF71DDE90023884208BFB5
S3152020E43041F28830A2FB00AB03FB00BBFBF7D1F8EF
S3152020E44004460D46BBF1000F08BFBAF1000F0CD0D1
S3152020E450FBF7C7F8001BA941594506D301D85045DB
S3152020E46003D300210020FFF763FF3E4600E0183645
S3152020E47030680028E6D0D8F834100142F7D0F26868
S3152020E4803046136898470028F1D0002EDAD00AE0CB
S3152020E490D8F83410014218BFBE4203D0FA68384655
S3152020E4A091688847183738680028F1D13046BDE86A
S3152020E4B0F68D38B500F052F800F011FC194CE068C2
S3152020E4C0016888470020FBF789F9FBF75DF820686B
S3152020E4D001688847E26850688047FFF76FFF20620F
S3152020E4E0016900291EBF096800298847226A5069C8
S3152020E4F000281FBF01680029104688472069016827
S3152020E5008847256A206941688847EA68D1680029B2
S3152020E510F8D028468847F5E7E81E222008ED00E0B7
S3152020E5201DB0212010002220B0912020704700000D
S3152020E5300A0018BF01220260704772B60268521C78
S3152020E540026062B601680029FCD10120704772B6AC
S3152020E5500168491EFFE7016062B6704772B6002047
S3152020E5600B49086062B6704772B609480168491C93
S3152020E5700160704706480168022903D20022026002
S3152020E58062B6704703685B1E036070470000000078
S3152020E590702B22202DE9F041FBF7F6F980467B4CA3
S3152020E5A01127204600212246E7FB08010023784F29
S3152020E5B0002509F0D7FA401E4600786042F21072F4
S3152020E5C074480021E2FB08012246002309F0CAFAFA
S3152020E5D025223018E2FB0845401CB8606B4A0023F0
S3152020E5E02046294609F0BEFA3618761CFE60002001
S3152020E5F0BDE8F0812DE9F04104460E4615460BB9BB
S3152020E600002053E0042B02D1B009800101D0042040
S3152020E6104CE05F4F387830B92046FFF7BBFF002803
S3152020E62044D1012038706421204600F077F8002854
S3152020E6303CD14FF4007806F03F06C4F808802069C4
S3152020E640000C0004206121697868BA68000300F470
S3152020E6507040C2F30B02104301434F4821614F49BA
S3152020E660A160064366602A6822626421204600F063
S3152020E67055F8D8B92068810548BF44F6E96015D4F5
S3152020E6806421204644F6EA6500F048F868B9C4F8C3
S3152020E6900880204600F067F84FF48060642160608F
S3152020E6A0204600F03BF800B900252846BDE8F08139
S3152020E6B0F8B505460E46144673B3042B02D1B0098D
S3152020E6C0800101D00420F2BD314F387828B9284660
S3152020E6D0FFF760FF08BB012038706421284600F030
S3152020E6E01DF8D0B94FF4007006F03F06A8602846E2
S3152020E6F000F039F83F210120A96064216E6028634B
S3152020E700284600F00BF840B92868810502D544F642
S3152020E710E860F2BD286C20600020F2BD2DE9F0478C
S3152020E72082460F464FF47A700026FAF764FFA0FB44
S3152020E730078901FB0799FAF754FF04460D46DAF8B4
S3152020E7400010C8050CD5002FF9D0FAF74AFF001B78
S3152020E750A9414945F3D301D84045F0D344F6EB6689
S3152020E7603046BDE8F08701696FF31531016108490C
S3152020E77002694B68C9681B0303F47043090401F43A
S3152020E7807C110B431A4302617047000000CA9A3B52
S3152020E790602B22200065CD1D0000773E3F00FFFF25
S3152020E7A00A484FF0FF31016041608160C1600161FC
S3152020E7B041618161C1610648016041608160C1601B
S3152020E7C0016141618161C1617047000080E100E003
S3152020E7D080E200E02DE9F84F894609F15005D5F869
S3152020E7E010A041F2F104D5F81CB06969BAF1000FE6
S3152020E7F008BFA246BBF1000F08BFDFF8BCB5002931
S3152020E80014BF8846A046A96901B10C46002840F0CD
S3152020E8109D80D9F840002968C2052ED500292BD005
S3152020E820DFF8980500218161DFF89415C1F818A03A
S3152020E83010224261DFF88C25C1F81480012353620F
S3152020E8400025056101260C61002356600125C36041
S3152020E8500026CC60956086608C60D56046604C60D2
S3152020E860156199F80C30032B18BF012B04D11023E6
S3152020E8700360C1F800B01560BBE068680029DFF8A6
S3152020E8804865DFF8487508BF002836D018B106211C
S3152020E8903960C6F800A0286818B101223A63C6F864
S3152020E8A030A01120012178630120C6F83480B96375
S3152020E8B0B463F863F463396434647864746499F8CF
S3152020E8C04510082907D17862746238623462F8616B
S3152020E8D0F461B861B46199F80C00032818BF0128A7
S3152020E8E003D11120F862C6F82CB0484602F097F9D9
S3152020E8F018B10120B862C6F82880A968E8680029DE
S3152020E90008BF002875D018B106217960C6F804A062
S3152020E910A86818B10421B962C6F810A011200121D7
S3152020E920B862C6F828807962746239623462F961E5
S3152020E930F461B961B46199F80C00032818BF012845
S3152020E94057D114207861C6F814B052E0022850D14D
S3152020E9502868DFF87C64DFF87C7418B30021102047
S3152020E960F1640121C7F824A00022F0610220C6F814
S3152020E970748039677260F46538653264BC617A6563
S3152020E980F2637C61BA657262F467F86599F80C00C7
S3152020E990032818BF012805D1102002223062C6F88C
S3152020E9A078B0FA64A96829B92868A0B199F84510E1
S3152020E9B0082910D100200122B06200213C600120CC
S3152020E9C03A660022B16134677866B2603466B866EA
S3152020E9D0F2607466F866484602F021F9002804BFE2
S3152020E9E0A868002805D0102100223160C6F858805A
S3152020E9F07A67BDE8F18F0000F0B5DFF8DC3300211F
S3152020EA001960DFF8D84341F2F10500F1080C2560A2
S3152020EA10DFF8CC635960DFF8CC7365609960A56018
S3152020EA20D960E56019612561596165619961A561A2
S3152020EA30D961E5619CF8001029B1012904BF9CF811
S3152020EA401910102910D100219967A567D967E56784
S3152020EA503960356079607560B960B560F960F560B8
S3152020EA60396135617961756100218E46D9642830F6
S3152020EA70E564C3F850E025659965A5659CF80010E6
S3152020EA80B9B959656565C3F824E065629962A562BE
S3152020EA90C3F82CE0E56219632563C3F834E0656387
S3152020EAA09963A563C3F83CE0E5631964256402787D
S3152020EAB00AE0012908D1C7F820E04FF2F10232629C
S3152020EAC0C3F848E0A564027AD2B2521E032ADFF8A0
S3152020EAD01803DFF8181313D8DFE802F002060A0E0F
S3152020EAE006220A600560F0BD06234B604560F0BD16
S3152020EAF006228A608560F0BDC3F844E06564F0BDD7
S3152020EB00C7F824E07562F0BD401E0328B84914D802
S3152020EB10DFE800F002060A0F086840F0030006E04E
S3152020EB200A6842F00C0207E0086840F030000860CE
S3152020EB3070470A6842F0C0020A607047401E0328C8
S3152020EB40AC4918D8DFE800F0020B0D104FF4005026
S3152020EB50002A0A6814BF22EA0000104307E040205A
S3152020EB60F6E70820A449F3E70120A449F0E7086046
S3152020EB700020FAF749BD7047A148A24B0268B3FB93
S3152020EB80F1F1491E890622F0E05201F0E0510A43B4
S3152020EB900260704770B500789B498B4C8B4D954B06
S3152020EBA045F20902401E03285DD8DFE800F0021650
S3152020EBB02C44042601202E602260EE60E26008604C
S3152020EBC0AE600526A2606E606260586840F40050F0
S3152020EBD05860196841F4005113E004200426686324
S3152020EBE000206263EE63E2630861AE630526A263BA
S3152020EBF02E632263586840F040005860196841F01F
S3152020EC004001196070BD814807230360804B1A603C
S3152020EC100724846000259A600D62446005245A608A
S3152020EC20C4607548DA60416841F008014160026895
S3152020EC3042F0080216E06D480323C3606A4BDA606F
S3152020EC400324446000255A600D63846005249A605D
S3152020EC5004606A481A60416841F0010141600268F7
S3152020EC6042F00102026070BD6A487047002070475A
S3152020EC70FF2069490A680968920902F00302032ADB
S3152020EC8013D8DFE802F0020F0F11090911F0030152
S3152020EC9002D0012902D003E00120704710207047BE
S3152020ECA02020704708207047022070470146042004
S3152020ECB0002900D1704710B5087B03280CD101F11B
S3152020ECC0780291F840104B0602D50F24147003E0E9
S3152020ECD0507808B91E211170002010BD704780B5CC
S3152020ECE0FAF7C4FF4FF4C060FAF7CBFF4B48002158
S3152020ECF001604160816001BD4FF4C060FAF7C7BF53
S3152020ED00474908600020704745490A68026000206C
S3152020ED10704744480168006A10F0020018BF01209D
S3152020ED20704771B1C90001F0380141F4983241F49D
S3152020ED30805142F0C10241F0C101C266416681661E
S3152020ED400266704737480168C1F3005000B102209F
S3152020ED50704734480168C1F3005010B14FF0E040AD
S3152020ED6070474FF0C040704730B52F490C200A68B5
S3152020ED702E4BC2F3034141435A18506811689268BA
S3152020ED80920202F500228002890200B9012001B9EF
S3152020ED900121401E264B58606FF060404118002408
S3152020EDA0596124491C604FF00055234C8A181D6157
S3152020EDB01C625A6230BD0000F130010020811F40C4
S3152020EDC010831F40A4841F40AC831F40BC811F405A
S3152020EDD060861F40E0861F4014801F4004821F400B
S3152020EDE084821F4094801F402C831F403C811F40DB
S3152020EDF06CC00F4000001C4000801B4000C01B4000
S3152020EE0018C00F40E0C8B60EF4841F40BC801F40B7
S3152020EE10AC821F40002D310104800F4078C00A406B
S3152020EE2028800F4040441F40D0461F40948F2020EA
S3152020EE3050002220FFFF1F200000202062F30F22F7
S3152020EE4062F31F4200B500BF130096469446103940
S3152020EE5028BFA0E80C50FAD85FEA417C28BF0CC016
S3152020EE6048BF40F8042BC90728BF20F8022B48BFEB
S3152020EE7000F8012B00BD000070B50446042574B3AC
S3152020EE802168080F0B282AD1C1F30360012826D038
S3152020EE9028BB090911F00F0103D0022905D002D37E
S3152020EEA01DE0802603E0C02601E04FF480766068CE
S3152020EEB0F608FFF755FA90B160683018FFF750FA38
S3152020EEC068B1164D102068606168324605F10C0045
S3152020EED0FFF722FA4FF400702E60A86000252846FE
S3152020EEE070BD70B5054604200C46002D18BF002C99
S3152020EEF012D00A4E4FF4007106F12C00FBF70AFBC4
S3152020EF0006F12C0106F10C00FFF79EF920B906F137
S3152020EF102C012960B268226070BD0000BC1C222012
S3152020EF2070B505460E4602F0D4F804000BD1012315
S3152020EF3006F180020021284602F08EF9707C0128F5
S3152020EF4004BF00213174204670BDF0B50F260F2452
S3152020EF50054689B0029601EB041600208DF8102074
S3152020EF608DF80000012701930123039706F18002E3
S3152020EF700121284602F070F90297694600F02AF905
S3152020EF8009B0F0BDF0B589B004460D4616461F4699
S3152020EF9000F01BF8B8B98DF800000E2005EB001103
S3152020EFA00E22029201230393204601F180028DF83E
S3152020EFB010600197012102F04FF901206946029045
S3152020EFC0204602F089F909B0F0BD2DE9F8438046A4
S3152020EFD084B00C4616461F46042024B304F5E67555
S3152020EFE0687818B14046FFF7B0FFE0B9287804F1D9
S3152020EFF0B00902280AD1694699E80D1081E80D103A
S3152020F00004F1C00090E80E1089E80E103B4601F06E
S3152020F0107BFC01F07DFF2978022904D16A4692E8FB
S3152020F0203A0089E83A0005B0BDE8F083F8B50C46E9
S3152020F03084B00421ECB194F8CC1104F19005022976
S3152020F0400AD16E4695E8825086E8825004F1A001C6
S3152020F05091E8C05085E8C050214602F036FA014694
S3152020F06094F8CC01022804D16A4692E8590085E812
S3152020F0705900084605B0F0BD2DE9FE435FEA010898
S3152020F080814615464AD0012D48D808F5E4763078B1
S3152020F090002843D008F1400748463C6802F000FA91
S3152020F0A03178A40904F0010465B939B122464846CD
S3152020F0B0FAF76CFC4146484601F0B8FDB07988B194
S3152020F0C001210CE041B1B97922464846FAF75EFC87
S3152020F0D04146484601F0AAFDB07918B1002148469C
S3152020F0E002F08CFA6A4602214846FAF7C1FC14B18E
S3152020F0F000984008009001AA00214846FAF7B8FC5B
S3152020F1000199009A0A20B1FBF2F1491C4143890852
S3152020F11000E000BF0846411E0028FAD1BDE8F7834B
S3152020F1202DE9F0430546894689B017461E464846AE
S3152020F13001F06EFD80460022494600F047F900F096
S3152020F14041F8FFF742FF040031D1022109238DF82F
S3152020F150001001220293039299F8471009F5C872EC
S3152020F16000291CBF1078002803D0517802911378EB
S3152020F170039301978DF810800596116B06910298BE
S3152020F18009EB0011039B00F0C9F800F020F80400D9
S3152020F1900DD100F017F8FFF749FF040007D199F8A1
S3152020F1A0CF0120B100F00EF8FFF7ECFE04462846EA
S3152020F1B002F07FF90122494600F008F9204609B0DD
S3152020F1C0BDE8F0833B464246494628467047012003
S3152020F1D069460290284602F07FB82DE9F04F89B083
S3152020F1E0002601220B2389468DF800600392804653
S3152020F1F002938DF8106099F8471000291EBF09F553
S3152020F200CA710878002800F07FF8029FDDF80CA04C
S3152020F21000224946404609F1500BFFF72DFF0020DA
S3152020F22004245BF8045B95B13346002249464046C8
S3152020F230FFF7CBFE70B909EB071001965346012143
S3152020F24000F1800200F098FA00F08FFA10B9AE197A
S3152020F250641EE6D1040046461ED1002709F1500A35
S3152020F26004255AF8048BB8F1000F12D03B46002211
S3152020F27049463046FFF7DAFE04000DD199F8CF0132
S3152020F28038B13B46002249463046FFF77BFE040034
S3152020F29002D16D1E4744E4D1304602F00AF90122FC
S3152020F2A049463046FFF7E8FE204609B0BDE8F08FF4
S3152020F2B02DE9F84105460E4689B01746304601F01D
S3152020F2C0A7FC00F080F800F06EF804001BD1002285
S3152020F2D00123052400F06CF81EBF06F5C6710878B8
S3152020F2E0002800F011F800F015F8FFF770FF040051
S3152020F2F009D100F053F8040005D196F8CF0110B1BA
S3152020F30000F047F804463AE003D04A78029209787A
S3152020F310039170470298039B06EB0011284601F1C2
S3152020F3208002012101F098BF2DE9F84105460E46BD
S3152020F33089B01746304601F06BFC00F044F800F007
S3152020F34032F804001BD100220123082400F030F8D3
S3152020F3501EBF06F5CE7108780028FFF7D5FFFFF7E8
S3152020F360D9FFFFF734FF040009D100F017F8040075
S3152020F37005D196F8CF0110B100F00BF804462846A7
S3152020F38002F097F8012200F020F820460AB0BDE8C6
S3152020F390F0813B46424631462846F3E53B464246E7
S3152020F3A03146284642E63B464246314628460CE62A
S3152020F3B001978DF80020039302948DF8108096F8FB
S3152020F3C0471000297047804600223146284653E6BA
S3152020F3D0F0B5054689B00E4614461F46042084B152
S3152020F3E024216846FBF796F8032201238DF8002076
S3152020F3F0694602932846039307940897019601F0BD
S3152020F4006BFF09B0F0BD0000F8B50D461E468EB044
S3152020F4100746002101A8002300248C4680E81A10E4
S3152020F4201168042902D85068402817D3012129744D
S3152020F430106C000D00F00700401E05280CD8DFE8D0
S3152020F44000F003070903030502240CE004240AE044
S3152020F450012408E0032406E02B747BE03168C1F305
S3152020F4600324002C76D000930322069301218DF8C5
S3152020F4702430631E032B8DF81420CDF830D00D9127
S3152020F480079108910ED8DFE803F006020A02DFF87A
S3152020F490602B019206E0DFF85C1B019102E0DFF889
S3152020F4A0580B0190012301AA0121384601F0D4FEF0
S3152020F4B005A9384601F010FF00284CD13068C0F34A
S3152020F4C0036000281FBF7068C0F307200028009023
S3152020F4D0641E0021032C29743CD8DFE804F0021096
S3152020F4E0271C009A510635D4DFF8100BC5F8C0002A
S3152020F4F0009A02F0C30242F04002009221E00099D5
S3152020F500880727D4DFF8F82AC5F8C02000990902F1
S3152020F51041F4007114E0009988071BD4DFF8E42A0F
S3152020F520C5F8C020009941F0020109E0009908069B
S3152020F53010D4DFF8D42AC5F8C020009941F08001E4
S3152020F5400091012001210422287429756A750098CA
S3152020F550A861697400200FB0F0BD0022F8B50C46D2
S3152020F5600023002605468EB00AA90292002081E8B3
S3152020F5704D00032200908DF8143001218DF80420AF
S3152020F5800126DFF8887ACDF820D00991012303912E
S3152020F5900AAA049628460A9701F05EFE01A9FFF7DB
S3152020F5A019FEB8B90099042201F0F70100912674BA
S3152020F5B000992675090401F47F0141F0042141F0C8
S3152020F5C08101C4F860110E216175009BA3616274CC
S3152020F5D084F8CF610FB0F0BD2DE9F847914600227F
S3152020F5E00C4691B08DF810204FF400710292012222
S3152020F5F080460191039254B3032109AA8DF8001065
S3152020F6001026079204F18007089601233A46012105
S3152020F61001F022FE012669460296404601F05CFE54
S3152020F620A8B9099847A610F1010F02BF09A8416879
S3152020F63011F1010F07D1826812F1010F04BFC068B2
S3152020F64010F1010F09D000F08BF8002836D044F6AF
S3152020F6508E6A504612B0BDE8F0870023002221464C
S3152020F6604046FFF7B2FC0028F1D109201023029052
S3152020F67002220693039B8DF80020029807EB0012A6
S3152020F680059600F078F800F070F80028DFD10023E6
S3152020F69000222146404601F018FF0028D7D100F04D
S3152020F6A059F869468DF800204046079301F014FE4C
S3152020F6B00028CCD100F054F80028C8D104F1400706
S3152020F6C001223868B9790225322440F0400038607A
S3152020F6D04046FAF75BF900E06D1C641EB7D0002186
S3152020F6E00DA8002200238C4680E80E103969DFF809
S3152020F6F0FC2B4046914205F0FF0227BFDFF8F03B66
S3152020F7000D93DFF8F01B0D91DFF8EC3B00211A4317
S3152020F71001230E920DAA01F09FFD002000F01AF879
S3152020F7208DF8002069460793404601F0D5FD5FEA13
S3152020F730000A8CD100F014F80028CDD1C9F8005049
S3152020F74087E7000000112233445566778899AABBA3
S3152020F750CCDDEEFF10210290032209AB08917047E1
S3152020F760102209A9304602F041BA012140460291D1
S3152020F770694601F0B1BD0121404601F06DBD2DE95C
S3152020F780F04305460C46E06816464FF0010905F180
S3152020F7905002002847BFC01E09FA00FC401C4FEA31
S3152020F7A0D00C04211068002804D1121D491EF9D13D
S3152020F7B004206EE0FCD0C2F800C061684FF480704F
S3152020F7C0402908D3216BC1F3031109FA01F1B1F5C0
S3152020F7D0004F18BF084605F5E07C6FF07F4ECCF829
S3152020F7E000004FF0000800250021002704EB4700E9
S3152020F7F090F8240058B109FA00F070453CBF86469F
S3152020F800394680453EBFB0F5801F80463D467F1C49
S3152020F810042FEBD3C645CCF804E0CCF810800CBFDF
S3152020F820012000208CF809001268DFF8C00A8242E5
S3152020F83025D394F8580038B104F160026034515C25
S3152020F8403160605D186023E004F1250010F8111066
S3152020F850202904D0D82904BFDC22326001E02120CF
S3152020F860306004F1250111F81500202802D0D8286F
S3152020F87003D00DE021221A600AE0DC2107E004F102
S3152020F8802500253410F81120326014F8151019603F
S3152020F8900020BDE8F0832DE9FC4F85B015461A6877
S3152020F8A0814600244FF00408C2F30350012802BFEA
S3152020F8B0A868C0F3C044002C00F083810E460021A6
S3152020F8C03173069A18208B468A4606F150071378FC
S3152020F8D004AA03F00F0386F8463003AB009129468D
S3152020F8E001903046FFF74BFF3868DFF8003A984200
S3152020F8F024BF2020019006980168C1F303300028F8
S3152020F90009D1069BCDF808902A4631464846FFF76E
S3152020F9107BFD5FEA000840F05481A968C1F340507E
S3152020F92038B128694FF0020AC0F3421B00F01F00AD
S3152020F93008E0C1F3805030B12869410D01F0070B52
S3152020F940C0F304400090019B06F1D00142F204024C
S3152020F950202B1AD195F8580098B105F15803D3F8E1
S3152020F960049042F20423C9F3002010B1DFF8900B53
S3152020F97004E0C9F3C01020B1DFF8880B08644B647B
S3152020F98007E0DFF8843B0B6402E0DFF8800B086495
S3152020F9904A64012240F206403273DFF8743B38660F
S3152020F9A03B640498DDF8049000F0FF0040EA09400B
S3152020F9B040F0006040F480600860039A4FF48C6029
S3152020F9C0086602F0FF0242EA094242F0006242F44F
S3152020F9D080620A6306990868C0F3036058B14868B4
S3152020F9E0020608D000F0FF004FF0000B0090ECB18B
S3152020F9F0400000901AE0CCB10198202805D1DFF8EC
S3152020FA00141BDFF8142B39637A6302983146FFF7EB
S3152020FA1087FA5FEA00085ED102986A463146FFF7E8
S3152020FA20DBFD5FEA000856D14FF0000B019818281D
S3152020FA3019D14CB1ED20316C40EA094041F040010A
S3152020FA40316440F00A403AE0A968C1F3405010B131
S3152020FA502869000A2CE0C1F3805010B12869000ED5
S3152020FA6026E0032021E00CB1EE20E4E705F1580141
S3152020FA70087870B14968C1F3401018B1EC204FF0D6
S3152020FA80020A15E0C1F3001070B16C204FF0000A75
S3152020FA900EE0A968C1F3405008B1EC2008E0C1F37C
S3152020FAA0805008B16C2003E0132000218B46009162
S3152020FAB0C0B240EA094040EA0A6040F0006040F4C3
S3152020FAC0806000213863069806F2CD190268C2F3B9
S3152020FAD0031040B1012874D16868402803D32A6CCA
S3152020FAE0C2F3402018B900985844009033E0120CF5
S3152020FAF012F0050F18BFA5210BD1900709D5069B1B
S3152020FB0002982A463146FFF728FD5FEA000858D199
S3152020FB100121286C06F5B872800A10F00A0F0AD047
S3152020FB206FF0F92010605060019820280DD140F206
S3152020FB30FF63936009E010F0110F42D04FF00620AA
S3152020FB4010605060DFF8D40990600122BBF1000FCD
S3152020FB5089F8002012D1009860B100F0FF0224B16C
S3152020FB60DFF8940702437A631EE0DFF8B4190A43CC
S3152020FB707A6320E042F20440786314E0BBF1010F5F
S3152020FB8006BF06200909072041EA802100980004A3
S3152020FB9000F47F00014341F0485141F4007179631C
S3152020FBA0DFF8341DB96334B1012089F80100316CA6
S3152020FBB041F040013164306C4FF0000840F01000D5
S3152020FBC03064404607B0BDE8F08F2DE9F84F0D0090
S3152020FBD096B0144608BF4FF0040869D08346082300
S3152020FBE06A460021FFF7F4FB5FEA000860D10098FF
S3152020FBF0DFF8E81C884218BF44F68B6858D19DF858
S3152020FC00040028609DF806707F1C0A2F88BF0A27CB
S3152020FC1008210CB14FF40061FB0002AA5846FFF7D9
S3152020FC20D7FB5FEA000843D164212846FAF772FC05
S3152020FC304FF0000A4FF6847904E0012085F8580019
S3152020FC400AF1010ABA4533D202A901EBCA00027889
S3152020FC50C37902EB0322B2F57F4F18BF4A45EFD175
S3152020FC6000210223C6185B1E367946EA0121F9D5E2
S3152020FC70C678B60004B10902B2F57F4F0DD1502EB9
S3152020FC8005F10802584688BF50263346FFF7A0FBC9
S3152020FC905FEA00080CD16E60D2E74A45D0D13346C0
S3152020FCA005F15C025846FFF793FB5FEA0008C4D0B3
S3152020FCB0404617B0BDE8F08F2DE9F04399B0804635
S3152020FCC01746042438688946C0F3034000284CD1BF
S3152020FCD089F8454009F15005DFF8042CDFF838383B
S3152020FCE02A6340466B63FFF71BF904003DD1386831
S3152020FCF009F5B876C0F3031001280ED16FF0F9204C
S3152020FD00002330600022706040F2FF60B0604946D8
S3152020FD104046FFF71AF9040027D13968DFF8C40BCB
S3152020FD200123C1F3034100EB0112FFF724FD00223A
S3152020FD3069464046FFF749FF040016D13B466A46EE
S3152020FD4049464046FFF7A7FD04000ED1484600F05D
S3152020FD505FFF50B12868A860316D49003165706D0C
S3152020FD6040007065316E49003166204619B0BDE8E5
S3152020FD70F083F0B5490089B003250191002601279B
S3152020FD808DF800506946029603978DF810600792E9
S3152020FD90089301F0A1FA0AB0E0BD490060B589B008
S3152020FDA002250191002101268DF810108DF8005092
S3152020FDB06946029603960592069301F08DFA09B0BC
S3152020FDC060BD2DE9F84705460C4687B00320E07331
S3152020FDD004F1450008215823017003262364267345
S3152020FDE01AB1216C41F001012164012204F150064F
S3152020FDF082700F200121B085F18504F5C2774FF45A
S3152020FE0000724FF48020FA6304F2C9183864C4F8CB
S3152020FE10D001284688F800102146FFF781F80028CF
S3152020FE2062D100F0F5F80DF10C0A80E80E10DFF80B
S3152020FE30B81ADFF8B82A03910123CAF8042003AAA6
S3152020FE400121284601F008FA00F0E2F8DFF8A09A0E
S3152020FE5080E80E10DFF89C1ACDF80C90CAF8041012
S3152020FE60012303AA0021284601F0F6F94FF4184071
S3152020FE700223029002AA40F255512846FFF78DFF11
S3152020FE80002831D108236A4610212846FFF771FF22
S3152020FE90002829D10098DFF8602A0199904289B25A
S3152020FEA0019108BFB1F5B24F40F09F8008236A46E2
S3152020FEB027212846FFF75DFF002815D10098C0F39B
S3152020FEC00720A0F117010A29009080F08E800122B8
S3152020FED0824032604FF470410291022302AA00210F
S3152020FEE02846FFF75AFF00287CD1DFF8101A4AF25D
S3152020FEF00475DFF80CCA7163B5634FF08721C6F805
S3152020FF004CC0DFF8002AB565DFF81C3CDFF81CEC76
S3152020FF10DFF81C5CDFF81CCCC6F854E0DFF818ECC0
S3152020FF20C6F83090316448F2307A7264B364C6F8E9
S3152020FF305090DFF8089C31667266B366F2663167A8
S3152020FF407567C6F878C0F56704F1D006C6F84CE088
S3152020FF50DFF8ECEBC6F850E004F5A874C6F8549008
S3152020FF60DFF8E09BC6F830E0DFF8DCEB3164726422
S3152020FF70B36431607260B360C6F80C9031617261EF
S3152020FF80B361F26131627562C6F828C0F562C6F89F
S3152020FF9034E0C6F838A031667266B366C6F86C902F
S3152020FFA031677267B367F26721602161DFF89C1B96
S3152020FFB0626102226560C4F808C0E560A36103235C
S3152020FFC0E16104213A7101247B7109233A703A7345
S3152020FFD00522397239740B217C707B737A7279747D
S3152020FFE088F8034008B0BDE8F08744F68D60F9E72D
S3152020FFF035040124050401243F04012401040120A1
S3152021000001040220310401203E040220850401241A
S31520210010002103A8002200238C4670472DE9F04FAA
S315202100208DB09046D8F80020C2F30353052B0CBF80
S3152021003001260026C2F30335002DC2F3034418BF3F
S31520210040032D07D18A460AF1300783462CB1032C8A
S3152021005000D1D5B94FF0040944E16846FEF754FE94
S3152021006000F04CF9B9F1000F07D16A46514658469E
S3152021007000F0B8FC5FEA0009EED1002010218AF8B1
S315202100800C00032239610C920EE0032010218AF8FC
S315202100900C003961D8F80000C0F30350042804BFAE
S315202100A05021396106200C9054EA0500514608BF9B
S315202100B00126032D0CBF0820012078755846FEF70E
S315202100C02FFF5FEA0009C7D10CB9002003E0002EDB
S315202100D014BF10202020DFF8781A01230A180121C5
S315202100E0584601F0B9F800200323059002AA8DF87D
S315202100F0200001208DF8103004A90690079058463B
S315202101000B9201F0E9F85FEA000904BF9DF8080087
S31520210110C228A1D102A9002C4FF480300AF5E07B18
S3152021012086F0010607BF897830394A79A2F1300154
S3152021013000FA01F14FF4807239624FF48051CBF8E5
S3152021014010000320CBF804101021002CCBF800201E
S315202101508AF80C00396108BF032D01960AF1B006F1
S315202101604AD10120022106238AF811108AF810008B
S315202101700022AAF81200DFF8DC198AF815300723A5
S315202101808AF8140001988DF800204FF004228DF86A
S315202101900330DFF8C439A8B1822402208DF801402A
S315202101A0CAF8180033637263B163D8F80000C0F32C
S315202101B00310032819BF00208BF80A0001218BF890
S315202101C00A1016E0812402208DF80140DFF88C499F
S315202101D0CAF818000120336374630724B1638AF8AF
S315202101E01C008AF821408AF8200038603364726422
S315202101F0B1640098FEF784FD40F20640C449306080
S315202102003966C5B90122DFF858098AF80C20DFF8AA
S3152021021054193865BC4A796542F204003266DFF802
S3152021022048197066DFF8442931624FF48C633265B0
S31520210230CAF8303156E0019840B9012302210C2415
S31520210240092008220525DFF828C907E021232221B4
S315202102502C24292028220A25DFF818C98902C7F843
S3152021026050C041EA0545800240F4417041EA82624C
S3152021027045EA84659C0644EA8324DFF8FC3841F468
S31520210280487145F0032545F020057D652343B86552
S31520210290DFF8E858336125433D6744F003237B6724
S315202102A0DFF8DC58BB67DFF8DC38F8672343DFF853
S315202102B0D8083366024325437266DFF8D0083562B3
S315202102C02043716230657165DFF8C4180C43CAF882
S315202102D03041019818B1396941F040013961022034
S315202102E08BF80C0048460DB0BDE8F08F01000001C7
S315202102F0EE04208AED04188A00B204A68146002045
S31520210300FEF7FEBC2DE9F84F9CB0044616460D4655
S315202103103068C0F30352072AC0F303400CBF0127DC
S315202103200027A0B96846FEF7EFFCFFF7E7FFB9F1F2
S31520210330000F07D16A462946204600F053FB5FEA83
S31520210340000911D1002010212873296403E00322FA
S3152021035050202A7328640821204685F845102946ED
S31520210360FEF7DEFD5FEA00097AD130680FF68002BA
S31520210370C0F3034008B9012303E0032870D10123E8
S3152021038010320121204600F067FF0820002285F83F
S31520210390450003A92046FFF718FC5FEA00095FD133
S315202103A000F000FA380003D1502003212864297354
S315202103B005F1500140F20640554A08660A64306824
S315202103C005F5E67805F1D00442F2010ADFF8C4B733
S315202103D0C0F30342032A1CBFC0F30330032841D1B3
S315202103E0DFF8B407DFF8B4270865DFF8B43740F221
S315202103F006700A634B63DFF8AC270867DFF8A81776
S3152021040021604FF4EC632263DFF8A00723664AF2CA
S315202104100431206461643068C0F30340E8B90021C7
S31520210420062282238DF800108DF803208DF80130C5
S315202104300098FEF765FC012002212874E7226974C1
S3152021044006200121AA6168754FF004202975698249
S31520210450C4F810B06061C4F818A0022188F80010F1
S3152021046048469CE10028FBD10868029EDFF84027F8
S31520210470B0F1807F06F0FF0627BF20208E2318208B
S31520210480C22346EA004643EA004316432660019EDC
S3152021049006F0FF0646EA004632432263DFF8142798
S315202104A0134323644FF40E5363644FB9DFF80807CF
S315202104B0DFF8082708634A63012188F802101AE029
S315202104C00E68CB23C4F810B0B6F1807FDFF8F06632
S315202104D06661C4F818A028BFCC230C2743EA004024
S315202104E0AF6101272F7406266E7510432F75086379
S315202104F0DFF8D00648634FF48C612166B0E700000F
S315202105003E04200A34042008120420080204180874
S31520210510050404241304200804240100001E10329B
S31520210520003204262DE9F84F9CB0814610680D46ED
S3152021053044F68D684FF0000AC0F3035009280CBFFA
S31520210540012400240420102185F8450010682964FF
S31520210550C0F30347C0F30336B7B96846FEF7D4FB89
S315202105608046FFF7CCFEB8F1000F07D16A4629460F
S31520210570484600F037FA5FEA00085AD1012085F86B
S315202105800CA085F845000EE0022F02D10320287306
S3152021059009E0032F4DD103210820297385F8450031
S315202105A00CB94FF0010A002E1CBF022E032E40D17A
S315202105B056EA070008BF0124022E03D1042085F81C
S315202105C0450004E0032E04BF082185F84510286C38
S315202105D0002C294614BF20F0400040F0400028641A
S315202105E04846FEF79DFC5FEA000822D144B1022F3E
S315202105F002D0032F02D00CE010200BE0202009E0AE
S31520210600022F02D0032F02D003E0302002E0402027
S3152021061000E00020DFF8B01501230A180121484601
S3152021062000F01AFE524603A94846FFF7CEFA5FEAA2
S31520210630000840F0B38000F0B5F8032005F18001D1
S31520210640287340F20642DFF884350A630B613CB9F0
S315202106504FF0220A2C23292028274FF00C0E06E0C2
S315202106604FF0020A0C23092008274FF0060E4FEAE5
S31520210670066909F040794FEA062C0CF4407CCDF826
S31520210680009049EA0C0949EA8A6ADFF844B54CEA1E
S315202106900E0E022E4EEA832E4BEA0A0B4CEA8727B0
S315202106A0C1F800B0009B1CBF032E002247F0800713
S315202106B043EA0E0305F5807E43EA806343F48023D3
S315202106C04B604AF0201343F480630B65DFF8043531
S315202106D043EA0A03CEF81470CEF80030DFF8F83456
S315202106E043EA0A03CEF810304CF48C63CEF830302E
S315202106F017D149EA8063DFF8E40442EA0C02184361
S31520210700002308620A640222022E85F8CC21AB61DD
S3152021071003D14FF48020A86104E0032E02D14FF4A7
S315202107200022AA6124B9A86940F40000A86106E044
S315202107302A6C012042F080022A6485F87900DFF8AC
S31520210740A02442F203030A660120002E4B66287458
S3152021075014BF02200020687406206875012129759E
S31520210760002069828DF800004CB1022E08BF41205D
S315202107700CD0032E0AD181218DF8011008E0022EFA
S3152021078008BF422002D0032E08BF82208DF8010007
S3152021079008228DF803200098FEF7B2FA40461DB0B4
S315202107A0BDE8F08F01AB02AA03A92846FEF7E7BFD1
S315202107B02DE9F8430C4604251646002C804618BF01
S315202107C0002E00F086804FF400712046F9F7A2FE14
S315202107D004F144070122BA704FF08079C7F80C90B2
S315202107E0DFF800042060DFF8001403220120616075
S315202107F06273A27384F8C8013168C1F303600028AB
S315202108002ADD7068C0F30340012803D1216C41F40D
S31520210810807121647068C0F3036111B12046FEF70F
S3152021082080FA7268110F17D03068C0F30350002860
S3152021083018BF01280DD1012906D0022902BF002186
S31520210840F960C7F8149007E0206C40F0040020647A
S3152021085002E022F0704272603068000D00F00F0035
S31520210860092822D8DFE800F005050A0C12121717ED
S315202108701C1C00F049F8FFF71FFA15E0012200E0C1
S31520210880002221464046FFF79CFA0DE000F03CF875
S31520210890FFF7C4FB08E000F037F8FFF733FD03E04C
S315202108A000F032F8FFF73EFE054685B92046FEF7D1
S315202108B0FDF9307800F00F00B8703168C1F303607C
S315202108C028B17068000F032804BFF96879610120D7
S315202108D038702846BDE8F2830426017C53464450CD
S315202108E0030418086C8D20202087188B108F02A3D3
S315202108F0A087188B108F04A700510052108F0CB39C
S31520210900008770870087AA8732462146404670474E
S315202109102DE9F04180460C4604206CB304F5E2759E
S315202109209F1829687F42494201EA02066A790F40C7
S315202109307F420AB9E96881B9BE421DD200F01EF86C
S31520210940002804BF29688E19F6D015E0FFF7DCFFB1
S31520210950FEF7EAFC80B9E9688E19BE420CD2E96815
S3152021096036EA010002D1B81B8842EFD200F006F800
S31520210970002808BF2968EFD0BDE8F08132462146FC
S315202109804046FEF795BC2DE9F841804604201546C0
S31520210990002989B01F4618BF002D21D0109CFCB1FB
S315202109A0084600F035F9032101238DF80010002196
S315202109B0039302918DF810004FF6FF76B4420197EA
S315202109C069460795404698BF2646089600F084FC3E
S315202109D030B9A41BF719B608002C05EB8605EBD1F7
S315202109E0FEF7D4BC2DE9F8430E4614460421002CEB
S315202109F092B0804604D060782178884208BF0021B1
S31520210A0000F08E8006F1450708203870607803258E
S31520210A104FF00109422818BF412802D1042002257E
S31520210A2038706078822814BF42284FF0210900208F
S31520210A3020210A908DF834008DF8240001200B9076
S31520210A4001A8F9F767FDE4782A0201AB062C0ED01E
S31520210A5031D3082C01D014D32DE040F20640104387
S31520210A6040F2FF4101900A431A61022224E040F21A
S31520210A70994140F2664414430A431A6102220194A1
S31520210A801AE042EA8922B9F1210F42EA056242EAB5
S31520210A90896242F4190042F4CC0240F0660042F009
S31520210AA0990201901A6103D1306C40F040003064E4
S31520210AB002210C9101E001220C9201204FF080713C
S31520210AC0787006F150000160464A32600324464B75
S31520210AD0012273600A2374733146B47386F8C821C0
S31520210AE043624046FEF71CFA010019D10C9B01AA4C
S31520210AF0012140464FF47A7400F0AEFB09A9404605
S31520210B0000F0EAFB394A01461368B3FBF4F400945A
S31520210B1003E000BF009A521E009200980028F8D1C7
S31520210B20084613B0BDE8F08300870587108F0BB7E1
S31520210B3000875587008702870087A087108F80A38B
S31520210B400087188B00878087108F00870087108762
S31520210B50AC8D20200004012072040004000402042C
S31520210B600C0420080830042421042008DC04200851
S31520210B70EC071307EE8711870603F9030503FA030A
S31520210B802103DE031203ED0320030403DC032303E5
S31520210B9060039F0381040004050704A7FD07208B1A
S31520210BA006B304A7DC07208B2107208B1207208B75
S31520210BB0000400080004000BFD04208B0CB304A7BD
S31520210BC0000401040C330427DC8D20200504042491
S31520210BD00B042000D8042000020420000504040070
S31520210BE0710400044643464200040156F0052220A2
S31520210BF05A0418080830FF240000000000000000D5
S31520210C005A07208BFFA700000000000000000000EB
S31520210C1090F8400010F0040018BF0120704790F88A
S31520210C20400010F0010018BF012070472DE9FF4731
S31520210C3081460D46042600F0DFF8040018BF002D5A
S31520210C407CD0287B042879DA032801AE15D195F8A2
S31520210C504000810711D46A4602214846F8F708FF49
S31520210C600098DFF85C1688420CD395F840201306AD
S31520210C7008D47921019171603FE04FF48070019071
S31520210C8070603AE000274FF47A7805EB47007830F8
S31520210C90417829BB00786421484319D1286C03A9BE
S31520210CA0800900F0010A52464846F8F708FF0399C1
S31520210CB0BAF1000FDFF80C06B0FBF1F101D149089A
S31520210CC000E089084B2208FB01F1B1FBF2F106E095
S31520210CD04B23B0FBF3F103FB01F2824200D2491CE4
S31520210CE0402928BF3F21490201F4FC4141F480716A
S31520210CF046F827107F1C022FC7D32068400800F012
S31520210D00010090F0010003D0216841F00201216009
S31520210D102A6D04F1C003002A07BF696D0029019AB3
S31520210D201A60A96D002907BFEA6D002A71685960EA
S31520210D3018B1206820F0020020600026304604B039
S31520210D40BDE8F08710B504460420002C18BF002AE0
S31520210D500FD073B1DFF86C05B0FBF2F04343B1FB42
S31520210D60F3F000E0401C00FB03F28A42FAD3206014
S31520210D70002010BDF8B584B04FF6FF7607460D4604
S31520210D800196009600F038F8040014BF002D0420A7
S31520210D9027D003AA02213846DFF82C55F8F768FE1A
S31520210DA002AA01213846F8F763FE039A4FF480639D
S31520210DB0294601A8FFF7C6FF029A4FF480632946E8
S31520210DC06846FFF7BFFF0199B14288BF0196009A75
S31520210DD0B24288BF009601980099C1EA00420020BC
S31520210DE0626005B0F0BDD0F8E010CA07FBD5D0F877
S31520210DF0E0309907FBD570470146002003293CBFE7
S31520210E000FF6200050F8210070472DE9FE4F0E469F
S31520210E1000218146009100F055F95FEA000B18BFA9
S31520210E20002E4BD006F15008002506F5C87458F837
S31520210E30040B0BEB850A800ACAF86000707BB77B0E
S31520210E40F17B400100F4787007F01F07074396F8DD
S31520210E504000C90201F4F0410F430107706F48BFDA
S31520210E6047F4806768B101AA02214846F8F700FEB7
S31520210E70019A716F01236846FFF764FF009947EABB
S31520210E800147CAF8707096F8470000281EBF2178BE
S31520210E904A0112F0E00F09D06078491E490301F476
S31520210EA06041000200F47060084301E04FF41060B5
S31520210EB06D1C042DCAF88000B9D300242046BDE834
S31520210EC0FE8F0422002810B518BF00291ED04031DC
S31520210ED00A79012A0AD1C26809785208520042F0B9
S31520210EE040024B0748BF42F00102C260C168DFF8C9
S31520210EF0DC4341F02001C160002100EB8102491C25
S31520210F00136A234003291362F7D30022104610BD0A
S31520210F10F0B5044689B0042031B3002001260327E9
S31520210F208DF80000039602978DF81020019391F8F1
S31520210F304720002A1EBF01F5C4721078002803D04D
S31520210F405378029312780392029D039B01EB051697
S31520210F500121204606F1800200F07EF9012369460F
S31520210F600293204600F0B8F909B0F0BDF0B589B05A
S31520210F7006460D46174600F0A5F8002818BF002D75
S31520210F803DD0D0F80002C0F3012020B1687C022890
S31520210F9008BF002433D0012101978DF800106A7DE6
S31520210FA03B4630460292297D00220694039105F183
S31520210FB01801059129468DF81020FFF7A9FF0298DF
S31520210FC0039B05EB0011304600F078F80120694695
S31520210FD00290304600F080F9040010D1688A60B969
S31520210FE0697C022918BF032907D03B4600222946BE
S31520210FF0304600F06AFA044601E000F065F8204602
S3152021100009B0F0BD2DE9F84789B081460E469246B2
S3152021101000F058F8002818BF002E45D001210023C2
S315202110208DF800100025CDF804A080468DF81030CB
S31520211030069406EB850202F120035978002939D03E
S31520211040D8F800027719C0F3012010B1787F022841
S3152021105030D0029119783032534603913146059288
S3152021106000224846FFF754FF04001DD10298039B16
S3152021107006EB0011484600F021F80120694602902E
S31520211080484600F029F904000ED1708A80B9797F6B
S31520211090022918BF03290BD0534600223146484640
S315202110A000F013FA040005D020460AB0BDE8F087E7
S315202110B000F00AF86D1C032DBBD3F5E701F1800260
S315202110C00121C9E0042497E6642148430021F8F749
S315202110D09DBD2DE9F84F80460D46FFF7F3FF07000A
S315202110E018BF002D00F0A280297C0029784904BF51
S315202110F0287F002828681DBF2E6C360906F0010698
S315202111000026884262D14046F8F7A6FC2946404669
S31520211110FDF760FB300002D00022012106E02A6C77
S3152021112005F145004178920902F001024046F8F77F
S315202111302DFC4046F8F784FC00F082F839684DF6FC
S315202111400F7041F002013960396895F84520014038
S31520211150287B082A08BF41F40051000100F0300005
S31520211160014341F07F4141F47F01404639602946C0
S31520211170FFF700FEB86820F40040B86095F84010CB
S31520211180C80703D5BA6842F40022BA6029463846F0
S31520211190FFF797FE29464046FFF737FE2946404668
S315202111A0FFF744FD00F04CF8287C80B100F041F88F
S315202111B059F8044B34B1524629464046FFF7D6FE0C
S315202111C018B9A244BBF1010BF2D104002ED1287FFC
S315202111D080B100F02EF859F8044B34B152462946F5
S315202111E04046FFF70FFF18B9A244BBF1010BF2D1FC
S315202111F004001BD1CEB1386840F0020038602A6C39
S3152021120005F1450041784046920902F00102F8F79E
S31520211210BDFB29464046FFF7ADFD29464046FFF74F
S3152021122005FD386820F00200386000242046BDE8FC
S31520211230F28F04204FF0000A05F1500983467047AA
S31520211240386820F002003860396841F001013960A0
S315202112503A68D307FCD470472DE9F8430E469146C8
S315202112601D464FF00408FFF7C7FD040018BFB9F14A
S31520211270000F21D0002700217019794100291BD880
S31520211280112819D22046FFF7AEFD12480221A0616E
S31520211290E161B10004EB8102AE1902F5007204E08E
S315202112A059F8043B491C42F8043BB1EB860FF7D38E
S315202112B0A0610120E061B8464046BDE8F2830000E6
S315202112C000E1F50500CA9A3B0065CD1D00FFF0FC23
S315202112D046434642F05AF05A2DE9F84307460D4631
S315202112E0FFF78AFD04004FF0040818BF002D00F0F7
S315202112F0CA802878042880F2C68095F81090204646
S31520211300FFF771FD384604F1A00700F066F9606900
S31520211310002640F01E00606169683960287802281D
S3152021132008BFAE6902D0032801D12E6AB6B2A868B9
S31520211330E968000400F470200643491E090601F0DD
S31520211340E0610E4346EAC9767E602878032834D1A7
S31520211350EA69286A12F0030138D11C23BB61B969D5
S3152021136041F00101B961BB69D907FCD4396941F042
S315202113700101396108B3402804F5807314D36169CA
S315202113804FF0100C890604D414E053F8041B42F8BC
S31520211390041B5FEA0C01ACF1010CF6D161694038DE
S315202113A041F02001616105E0396DC90001F4FF6139
S315202113B0814222D261690B07DCD52878022818BF01
S315202113C001283AD16A69A96912F003005BD11C234D
S315202113D0FB61F86940F00100F861FB69D807FCD46C
S315202113E00026002929DD606904F5C073400621D530
S315202113F040294FF0100C38D30CE0042822BF53F893
S31520211400041B42F8041B001FF7D23DE052F8040BBF
S3152021141043F8040B5FEA0C00ACF1010CF6D14039FC
S3152021142026B93869012640F001003861606940F00B
S315202114304000606163691807D3D5287818B93969BE
S3152021144041F0010139612046FFF7CDFC6069010792
S3152021145017D5786CC0F303600E280CBF41F6583897
S3152021146041F659380FE043F8040B5FEA0C00ACF142
S31520211470010CD5D00029D2BF0020091F52F8040B18
S31520211480F1E74FF0000817E740B119680091694646
S3152021149011F8013B401E02F8013BF9D160698CE726
S315202114A080B5FFF7A9FC18B1D0F8E0108A07FBD543
S315202114B001BD80B5FFF7A0FC30B1016841F00101E3
S315202114C001600268D307FCD401BD00292DE9F84F1C
S315202114D08EB04FF0040979D001F170049246A58986
S315202114E00122E6890693089202FA05F80325BAF124
S315202114F0000F8DF81450079202AD0C9514BF0823C6
S3152021150004230D938DF824A091F84730002B1EBF7C
S3152021151001F5C2752A78002A03D06A7807922D7898
S3152021152008950490079801EB0015089B014604981D
S3152021153005F18002FFF790FE24685FEA040B18BFAD
S315202115404FF0010B0025049805A9FFF7C5FE5FEA98
S3152021155000093BD1BAF1000F1AD001A96A4602AB84
S31520211560042013F8017B401E01F8017B13F8017B2F
S3152021157002F8017BF5D1002E0199009803D0014074
S3152021158038EA010102E0014311EA08010F4608E089
S31520211590002E029802D038EA000001E018EA000065
S315202115A0074618BF0127FAB212EA0B0F0BD0002DDE
S315202115B008BF002C0ED04FF47A700021F8F726FBB5
S315202115C0641E65F10005FFB2002FBCD148460FB03D
S315202115D0BDE8F08F41F65A39F8E780B5FFF70CFCC4
S315202115E058B1002100EB8102491C0429D2F8803010
S315202115F043F00043C2F88030F4D301BD38B50D46FF
S31520211600FFF7FAFB04000BD0FFF7EDFB25B120688D
S3152021161040F40060206031BD216821F40061216001
S3152021162031BD000000802A400000000000402A40F1
S315202116302DE9F843DFF838650220ADF5467D306087
S315202116407060DFF8307538684FF00108C0F340002C
S3152021165000281FBFDFF820452068C0F3013000286D
S3152021166003D02068C0F38130002800F09880FDF750
S31520211670FFFA012840F09380B869C0F30160002861
S3152021168018BF02280CD1DFF8F414002000220023F1
S315202116900F1D41F8302047F83030401C0228F8D958
S315202116A0206800254FF4C077C0F3013030602168CF
S315202116B0C1F38130706002A805F020FF56F825007D
S315202116C0741906EB8501012804D012D303280DD0E5
S315202116D008D30EE0DFF8A8248A60886860B9002143
S315202116E0217459E0DFF89C048860F6E7DFF8982416
S315202116F0F2E700208860F2E7012202A82274896895
S3152021170080224FEA852905F00DFF09F1C0412022CB
S3152021171001F5806106A8FCF7FFFDDFF870044FF480
S31520211720807200EB090126A8FCF7F6FD202166AB85
S31520211730009106AA002102A806F03CF866A980227B
S3152021174002A805F0EFFE4FF4807086A9019026AB02
S3152021175000916AAA002102A806F002F886A9DFF8DC
S3152021176030344A6807FB05F09A4202BF8699DFF892
S3152021177024249142304406D0002339462374143040
S3152021178002F044FB08E001213A46217466A914306F
S315202117904FF00008FCF7C0FD6D1C022D8ED340466C
S315202117A00DF5477DBDE8F08310B50024FFF740FFF6
S315202117B000B90124204610BD0146002021B1096827
S315202117C0090F0E2908BF012070472DE9F04395B056
S315202117D00646FFF7E9FF054630460424FFF7ECFFCE
S315202117E0002808D03068000F0E2840F0CB803168C1
S315202117F0C1F30340002800F0C58004281AD2C1F382
S315202118000352022ABCBFC1F30332042A0ADA012871
S3152021181003D9C1F30322042A04DA032804D3C1F30A
S315202118200310042880F2AE80C1F30360032824BF6D
S31520211830001F032880F0A6800022C1F30367032F0F
S31520211840CB4B28BF0122002D1EBF03F11001885C3E
S31520211850002871D14FF4C07111FB02F51D441435B6
S3152021186017F0030703D0022F05D002D308E0C5487D
S3152021187002E0C34800E0C44803F1080747F82200E4
S315202118800120103398542846F8F744FE05F18007A5
S31520211890BF48C049786039603268BF4806F10808D8
S315202118A0B860C2F303410022F960337803F00F03B5
S315202118B0FB613068C0F30350B86115E03368C3F388
S315202118C0032005EB421C0CF1D00306EBC20CDCF8FD
S315202118D004E0C3F800E0DCF804C058F832909860A0
S315202118E0521CCC44C3F804C08A4209D2012AE5D02D
S315202118F03068022A0CBFC0F30310C0F30330E0E79F
S315202119000129386D7A6D0ED9012305EB431656F838
S31520211910D0CF8445766838BF6046B24238BF32463A
S315202119205B1C8B42F1D39D4988422BD33861684673
S315202119307A6105F0D0FB040024D10020984E8DF841
S3152021194003006946304605F057FD04001AD1B869CF
S31520211950012809D1102205F1A001304605F07CFD90
S315202119600446002038626CB910222946304605F0FB
S3152021197073FD040006D1102205F11001304605F031
S315202119806BFD0446204615B0BDE8F083F0B5002254
S315202119900024774B4FF4C075002665431D4414352A
S315202119A000E0761CD5F88C70BE4210D205EB461C81
S315202119B00CF1D007D7F804E0AEF1010E8645F0D31D
S315202119C03F6801EB000C6745EBD2012202E0641C43
S315202119D0012CDFD91046F0BD2DE9F0470D46042113
S315202119E0002D86B018BF5FEA020838D00646022E9F
S315202119F035D25F4CA3191A7C8AB302A84FF4C07939
S31520211A0005F07CFD09FB06F18022601800F1140AFD
S31520211A1000F54577514602A805F084FD4FF48070E4
S31520211A2007F1800101900AF1800300910AF1100249
S31520211A30012102A805F094FE04EB8600802281680C
S31520211A4002A805F06FFD20203B4600905246012139
S31520211A5002A805F0AFFE2F600021C8F800900846A5
S31520211A6006B0BDE8F0872DE9F84706460C46042046
S31520211A701546002C89B018BF002D53D04FF00009F0
S31520211A804FF4C077DFF8E88007FB09F208F114014B
S31520211A90114490314B685B1EB34203D30968A219C6
S31520211AA0914204D309F10109B9F1010FECD9B9F118
S31520211AB0010F37D808EB890105A8D1F808A005F030
S31520211AC01DFD802205A8514605F02CFD07FB09F1B5
S31520211AD008F114000844D0F8981001291AD1A03011
S31520211AE001AA90E88A1082E88A10360900200196F8
S31520211AF001A901AB464233440A5CDF7B0F54401CCB
S31520211B000828DA73F5D300942B462A4605A805F032
S31520211B1077FE06E000942B462A46012105A805F0EA
S31520211B2049FE00200AB0BDE8F0872DE9F04105469F
S31520211B300E4600274FF4C07404FB07F10C480144DC
S31520211B4001F1140001F54578164901EB8721A942B7
S31520211B5009D37219914206D22146F8F7DBFC214698
S31520211B604046F8F7D7FC7F1C012FE5D9BDE8F08147
S31520211B70F01E222004800F4060441F4048C00A40A6
S31520211B80DCEFDCFE89ABDCFE1234DCFE8004006057
S31520211B90454844525441475F0000015600100060D9
S31520211BA000C00C400004006013460A460146184630
S31520211BB080B503E013460A4680B51946FCF7ACFBEF
S31520211BC0002002BD10B514460A4621460123BDE850
S31520211BD01040F6F715BE00004018491C1CBFB1F174
S31520211BE0010100F8012DF9D17047000003000020E2
S31520211BF0521E22BF13F8010B11F801CBB0EB0C00BA
S31520211C00F6D0521C08BF10467047000010B55F4B16
S31520211C1001221C68240A04F00104641C02FA04F43B
S31520211C200460186800F00300801D824000200A60AD
S31520211C3010BD00002DE9F04188B0044668461021E8
S31520211C40F8F768FC04A81021F8F764FC0C25504FFE
S31520211C50FDF70EF802284F4E18BF042040F093803E
S31520211C604FF4E0712046F8F755FC4B484B4920604C
S31520211C700222616004F144010A70444A1068C0F3CB
S31520211C80401000B9022088704FF08050C86003238D
S31520211C9063730120A37364234870CB62404B186879
S31520211CA0000E03D018683F4F47EA106700973E4F32
S31520211CB001971F68C7F3074020B11E683B48C6F32A
S31520211CC00746064304961668C6F3001000B10D2573
S31520211CD00127E57304F5E07607FA05F07060681EA2
S31520211CE087406D46376004F1800795E8015187E8E2
S31520211CF0015104A804F5987C90E8A0418CE8A041E4
S31520211D001D68C5F3C03038B929A004F1900590E8A3
S31520211D10805185E880510CE0012737731868C0F37C
S31520211D20C03010B94B25758203E00A2710FB07F036
S31520211D3070821D68C5F380300028707307D100BFDB
S31520211D401FA504F5A87495E8C11084E8C1101C6864
S31520211D50C4F3C01018B11868C0F3C01008871268E0
S31520211D60520A02F00302012A05D002D3032A07D000
S31520211D7003D3642005E0C82003E04FF4C87000E0B7
S31520211D8032200863002008B0BDE8F08104800F408E
S31520211D900304100C13041808464346420004015636
S31520211DA0E0461F400004100C0830042400041808C3
S31520211DB00F04C004012400000000000000000000E0
S31520211DC00F04C004012400000000000000000000D0
S31520211DD0F8B506460D4604201C46002D8AB018BFAC
S31520211DE0002C38D00123032104930D2700238DF8BD
S31520211DF0041003978DF81430029295F8470028B1E4
S31520211E0005F5CC714A780392097804910421CDF8FD
S31520211E1020D0099101212370039F05EB0710049BF4
S31520211E2000F180023046FFF717FA012301A9039317
S31520211E303046FFF751FA70B905F5E872009B117803
S31520211E40002919BF516892683021202219409142D8
S31520211E501CBF012121700BB0F0BDF8B504468AB014
S31520211E60042039B3032609908DF8046000268DF8C5
S31520211E701460012701EB071602920025049700958D
S31520211E800123039706F18002CDF820D00121204697
S31520211E90FFF7E2F9039701A92046FFF71DFA48B972
S31520211EA000994A0748BF44F6256003D40A0748BF4C
S31520211EB044F624600BB0F0BD13460022FFF728B864
S31520211EC070B506460D46042455B1FFF702F90400E4
S31520211ED006D1012305F1800200213046FFF7BCF906
S31520211EE0204670BD2DE9F84F88460424B8F1000F0D
S31520211EF08CB01EBF5FEA030ADDF85890B9F1000FB6
S31520211F0052D0029208F5CA7715463A6B0B23012443
S31520211F10554304950593069498F84720002A1CBF1B
S31520211F203978002903D07B7805933C780694019053
S31520211F30002308F180048DF81C308DF80C3005988B
S31520211F4004EB0012069B01980121FFF785F90198E0
S31520211F500122059203A9FFF7BFF9040018BF44F611
S31520211F60206461D108F5E676327822B1F088002105
S31520211F70F7F74CFE06E001982B464146FFF7A5FAD6
S31520211F80040051D10198FFF794FA707868B9019825
S31520211F906B462A464146FFF71BFF040044D19DF894
S31520211FA0000010B944F622643EE0B0784FF0000BD1
S31520211FB070B10299786BB1FBF0F0C20708D5019870
S31520211FC0012308F1C00200214FF0010BFFF744F94C
S31520211FD0B5F1FC5F0AD2019B0FF218514A4651F8FE
S31520211FE0230041195046FCF797F913E00323049562
S31520211FF08DF80C300198002201238DF81C2003A98D
S31520212000CDF828A0CDF82C9005920693FFF764F9F8
S31520212010040009D1BBF1000F06D00198012308F154
S3152021202080020021FFF718F920460DB0BDE8F08F78
S31520212030F8B505460C460420002C8AB0164653D006
S31520212040002004F5C6778DF80000FB6BB86B5E4344
S31520212050464328463246FFF72FFF002844D1002346
S3152021206005228DF804308DF8143001230392049330
S3152021207094F8471000291CBF3878002800F0C8F8AA
S315202120800398049B04EB00110296284601F1800255
S315202120900121FFF7E1F8012001A903902846FFF746
S315202120A01BF910B144F625601EE033460022214655
S315202120B02846FFF70AFAB8B9324621462846FFF7BD
S315202120C0CCFE002804BF94F8CD1100290CD16B46F3
S315202120D0324621462846FFF77BFE002802BF9DF87F
S315202120E00010002944F622600BB0F0BD2DE9F047FF
S315202120F08246894604201E46B9F1000F8AB09046B1
S315202121001EBF002E129D002D45D0002309F5C8772C
S315202121108DF800307C6B504604FB08F42246FFF7ED
S31520212120CBFE029400200696022307950925012637
S315202121308DF814008DF804300395049699F84710EC
S3152021214000291CBF3878002800F062F809F2CD1545
S31520212150687888B1B96BB8FBF1F1C8070CD50A228A
S31520212160039299F8471000291CBF387D002803D0F7
S31520212170797D03913A7D049209F18006049B039887
S31520212180012106EB00125046FFF766F800F046F8CB
S3152021219010B144F6236038E00E2201238DF8040085
S315202121A00392049399F8470018B1797B03913A7BDE
S315202121B00492049B039806EB001201215046FFF757
S315202121C04BF800F02BF810B144F624601DE023468D
S315202121D0002249465046FFF778F9B0B922464946AA
S315202121E05046FFF73AFE002804BF297800290CD152
S315202121F06B46224649465046FFF7EAFD002802BF94
S315202122009DF80010002944F622600AB0BDE8F08727
S3152021221003D0797803913A78049270470121504668
S31520212220039101A9FFF758B8000000002DE9F843D2
S315202122300D4604241646002D8EB0814618BF002E49
S3152021224000F033813268120F0C2A40F02E814FF490
S3152021225000712846F8F75EF9964A974B2A6005F1D0
S3152021226030076B6002203875032169733220A973E8
S315202122700022786401207C754FF080582A732946E4
S31520212280B8754846C7F82080FFF71AFE04003ED1CC
S315202122900AA9002000220023002481E81D00874A64
S315202122A042F202430A920AAA0B93012301214846AC
S315202122B0FEF7D2FF032202218DF804200122099163
S315202122C001A90094484602948DF81440CDF820D0D7
S315202122D003920492FFF700F8040017D1009844F6E0
S315202122E02B6400F0FF00FF2818BF00280ED031688C
S315202122F0C1F303610029C2BF716801F0FF02002AE0
S3152021230003DD01F0FF01884200D10024002C40F09A
S31520212310C88001202873317801F00F01B975306802
S31520212320C0F30310022818BF042840F0BB80800286
S3152021233005F5E0721060400050603168C1F3032139
S3152021234003290CD8DFE801F002040609402108E020
S31520212350802106E04FF4807103E0202101E020292D
S3152021236027D39160396A9368B1FBF0F0B0FBF3F380
S31520212370D3611068B0F5805F0CBF0D200C20E87367
S315202123803068C0F30340010009D001280AD0022871
S315202123900BD0042818BF082800F0838007E04FF0CF
S315202123A0806007E04FF0006004E0404602E0B0F58F
S315202123B0007F77D3400005F1B001386240F2064014
S315202123C008603F4842F2014338667B6605F5987CD2
S315202123D0DFF8F0E0DFF8F080CCF800E0DFF8EC90D1
S315202123E0CCF83080C1F82090CCF820003848CCF8A1
S315202123F02430384B386538487B65002308664FF4EE
S315202124000950486693733068C0F3033060B133486E
S31520212410334B486733480B67334B08614FF41A50C7
S31520212420886101204B619073012305F121002B77CF
S315202124304FF0020C80F800C04FF0000C85F82030B8
S315202124402A4B3B6742F201037B674FF0060EC7F802
S3152021245000C04FF0010880F804E080F8038024486A
S3152021246008634B631921796082F810803068C0F3A4
S31520212470036000280EDD7068C0F3074100291CBFC8
S31520212480C0F30720002805D051617068C0F30720CA
S31520212490906103E030202023506193610221397518
S315202124A000E014B92846FCF701FC20460FB0BDE810
S315202124B0F083000046434642000401569F0400044F
S315202124C00F04C0041304180810041808D804180887
S315202124D06B04100C083280263204100C0C0C40227E
S315202124E0320401186B0401180C0C08321F04A004B5
S315202124F01F04B00400000060000000704FF0FF317F
S31520212500002201604260704730B543680468134D4C
S31520212510D318436007E011F8013B83EA146355F889
S31520212520233083EA042413465A1E002BF3D1046058
S3152021253030BD70B54268036812F0030F0BD002F04C
S315202125400302C2F10402054C1D0E521E54F82560C9
S3152021255086EA0323F8D103600B6070BD14892020FD
S3152021256010B5037B4FF47A74624333B1042B07D021
S31520212570052B08D0062B09D00BE047F25F630AE032
S3152021258042F22B4307E041F65E5304E041F2887381
S3152021259001E043F62F330C000BD1002000E0401C34
S315202125A0C1B259439142FAD3C1B2102911DB0F206E
S315202125B00FE001290DD11020C4B2411E5C43A24255
S315202125C004D20846C9B20029F6D102E0C2B202B12C
S315202125D00846C0B210BD2DE9F843804686B008F1E1
S315202125E03805E9466F7E022F0CD100212A4603E0C9
S315202125F0107800B10121521C08F146009042F7D2F1
S3152021260021B143E002DC1820474301E000276F7601
S31520212610DFF8BC4518216846E619F7F77BFF07E066
S3152021262036F8022B00214046FFF79AFF29F8020BA4
S315202126300DF112004845F3D204F114014046CA5B3C
S315202126400121FFF78DFFADF81400BDF80000287099
S31520212650BDF802106970BDF80400A870BDF80610F7
S31520212660E970BDF808002871BDF81210E971BDF88E
S3152021267014002872BDF80A106972BDF80C00687121
S31520212680BDF80E10A971BDF81000A87207B0BDE8DB
S31520212690F0832DE9FF470025044601958A460095BA
S315202126A005F01CFB8046F6F79CFF06460F46504652
S315202126B0F6F7A1FFCDE9020100F0DAF8814643467B
S315202126C001AA022105F051FBDDE9024A09E000F0C9
S315202126D02AF800F02EF822D0009810F0220F0CD1E3
S315202126E00190F6F77EFF801BB9418A45EFD828BF96
S315202126F08442ECD245F26C2012E0434601AA022103
S31520212700484605F032FB00F00EF800F012F806D00C
S31520212710009881064CBF45F2712545F2722528463F
S3152021272004B0BDE8F08743466A460221484605F0B3
S315202127301CBB0198009900F0400001F0400188421D
S315202127407047F8B50546DFF88C7480213846F7F7AF
S31520212750E1FEDFF8846405F0C1FA72680446306828
S3152021276000F023F9F268B06800F01FF9306923469A
S31520212770902200F01BF905F0B1FA03463068982221
S3152021278000F014F90021284605F0DBFB802239468A
S3152021279005F077FB0446284600F05FF8284600F02E
S315202127A05CF8284600F03EF80CB12046F2BD798C23
S315202127B0BA8C97F82000090201F47F41120402F411
S315202127C07F0208181018DFF81414884202D045F227
S315202127D07020F2BD07F14204B7F84000E2880123B8
S315202127E0101803FA00F07063278821894FF47A7034
S315202127F0CF1903FA07F7474305F1A001B763E28A08
S31520212800012A0AD1A08BE28B00EB02454D60208B59
S31520212810628B00EB02456D1C8D60608A834000200F
S315202128200B60F2BD70B50446DFF8AC6305F056FAAD
S3152021283000F01DF80446726830682B4600F0B6F881
S31520212840F268B0682B4600F0B1F82B462046F022DC
S315202128500321BDE8704005F06BBA38B5044605F072
S315202128603DFA00F004F82B4601B0F02216E0054689
S315202128700021204605F065BB38B5DFF85C5305F00D
S315202128802DFA6A680446286800F08FF8EA68A86855
S3152021289000F08BF82346286901B020220321BDE8C8
S315202128A0304005F045BA38B5044605F017FAFFF74A
S315202128B0DEFF04462B46902200F078F82B46204650
S315202128C001B00022EAE72DE9F14F82B090F822509B
S315202128D016465A428846ED08684202405242B3FBC8
S315202128E0F5F005FB1033B2FBF5F91C0018BF0124C6
S315202128F005F0F4F98DF8000002984F469DF8003036
S31520212900D0F8A010CDF80480B1FBF5F0814588BF21
S31520212910074625220321404605F00AFA9DF8003074
S3152021292001987A1E00F042F89DF800A055451CBF5B
S31520212930284605F0AFF94FF0000BBB451DD2022DDD
S3152021294032780AD1781E834502D07078000203E0BE
S31520212950002CFAD04FF47F4082182B464046032183
S31520212960761905F0E5F9A8440BF1010BE5E7029864
S31520212970FFF758FF45F2742015E055451CBF9DF8F9
S31520212980000005F087F99DF800300198292200F0F2
S315202129900DF89148416B0298FFF77BFE0028E6D17E
S315202129A0B9EB0709A8D1BDE8FE8F2346032105F0FF
S315202129B0BFB900E0491E31B110F8012BFF2AF9D009
S315202129C045F2762070470020704710B500E0521E50
S315202129D042B110F8013B11F8014BA342F7D045F241
S315202129E0752010BD002010BD70B50446FFF7F3FDFC
S315202129F0204605F0BFFC002846D194F8520010B19C
S31520212A0045F26E2070BD744D002105F13000002263
S31520212A10002380E80E0030212846F7F77BFD94F825
S31520212A20220040F25551082808D140F6AA20A96053
S31520212A3028602861A8612962A86209E0102807D1A7
S31520212A4040F2AA202960A8602961A9612862A96289
S31520212A50002655F83610204605F073FA45F836003B
S31520212A60761C062EF5D3AA2055216860E8612046DA
S31520212A70E9606962FFF7D6FE2046FFF762FE18B9A4
S31520212A802046FFF7CFFE002070BD2DE9F0410746F5
S31520212A900C4697F82200504915460C633A691E4682
S31520212AA0C008944221BF79698A1831198A4238BFD0
S31520212AB045F26D2021D3B4FBF0F100FB114010B17A
S31520212AC045F26F2019E03846FFF7D6FE33462A46CF
S31520212AD021463846FFF7F7FE80463846FFF7E3FEC4
S31520212AE03846FFF79FFE97F8E00028B93246294657
S31520212AF02046FFF76AFF80464046BDE8F0812DE952
S31520212B00F84F0546344FD5F8A4B0286905F1A4021B
S31520212B100BFB010BC7F830B05368994202D22869C2
S31520212B20834502D245F26D204FE02846FFF7A4FEC9
S31520212B3005F0D4F804460021284605F002FA23465A
S31520212B408022FFF733FF234630220321584605F002
S31520212B50EFF805F0C3F88146F6F743FD06468A4687
S31520212B60C820F6F748FD04468846F6F73AFD801B2D
S31520212B7061EB0A01884502D828BF844210D3386BDD
S31520212B804B466A46022105F0F0F800980107ECD55C
S31520212B90B96B2846FFF77DFD040003D1002404E00C
S31520212BA045F26C242846FFF73DFE2846FFF77BFE9B
S31520212BB02846FFF737FE95F8E00028B9D5F8A41066
S31520212BC05846FFF7F6FE04462046BDE8F28F000060
S31520212BD084932020B486222078862220515259009F
S31520212BE070B5644C216801F0070103290BD8DFE871
S31520212BF001F002040608002106E0032104E0042155
S31520212C0002E0052100E0062101732168C1F300219C
S31520212C1001B1022100F1410500F121022974297C0B
S31520212C20554B02292DD11E68360A06F0030606EBDE
S31520212C308606D6751968090C01F00F0191761E6852
S31520212C40360D06F00F06D6761968890B01F0030199
S31520212C5001EB810129701D682D0E05F00F05957751
S31520212C601968090FD1771D68AD0A05F0030505EB13
S31520212C70850515761968090B01F0030101EB810100
S31520212C8051762168C1F3402100290CBF102108214A
S31520212C9051702168C1F3802101B10121C1731868C6
S31520212CA010F007000DD0012806D0022809D00328CC
S31520212CB004D0072804D006E0012105E0032103E002
S31520212CC00520D07101E00421D1711868C00800F0D7
S31520212CD00700001F03280BD8DFE800F002040608AE
S31520212CE0192006E01A2004E01B2002E01C2000E027
S31520212CF0182010701868C0F3801000B1012050727E
S31520212D001868C0F3C010401E8041C00F107270BDDC
S31520212D1070B504464FF48071F7F7FCFB04F150059A
S31520212D2000226A700523237304F1220610203272B1
S31520212D3030700122F2712046FFF752FF00200F4A00
S31520212D40A8704FF0104128704FF480332260002262
S31520212D502072FF206073A0734FF0807021610C21B7
S31520212D6063606061402084F82020B070002071705B
S31520212D7070BD000004800F40E0461F4053454D435F
S31520212D8010B5924B01221C6804F0010402FA04F4C6
S31520212D9004601868C0F3430000281DBF1868C0F3DB
S31520212DA04300824040220A60002010BD30B5874969
S31520212DB00A68C2F30022531E9B41DB0F00F1520207
S31520212DC013700B68C3F3402303B10123D370096821
S31520212DD0C1F3802101B10121C1737D4B196800F115
S31520212DE0210401F0070103290CD8DFE801F00204B0
S31520212DF00608002107E0012502E0022103E0032540
S31520212E00E57301E00421E1731968C1F3C0010029AA
S31520212E1014BF1021082121701968C1F3001101B1B5
S31520212E20012180F820101968C1F34011491E8941DA
S31520212E30C90F21741968C1F38011491E8941C90F0F
S31520212E4091721968090A01F00701891E05290ED8F0
S31520212E50DFE801F003050707090B022108E0042119
S31520212E6006E0012104E0032102E0072100E0002100
S31520212E7061701968C90A01F00701491E062913D86C
S31520212E80DFE801F00406080A0C0E100009210CE0E7
S31520212E900A210AE00B2108E00D2106E00E2104E09B
S31520212EA00F2102E0102100E00C21A1701968C1F345
S31520212EB0803101B10121D1721968090C01F0070174
S31520212EC0072915D8DFE801F00C0406080A140E118B
S31520212ED008210FE010210DE020210BE0402109E0FF
S31520212EE0802107E04FF4007104E04FF4806101E076
S31520212EF04FF48071C0F8A810107828B11868C0F353
S31520212F00006000B10120107130BD70B504464FF428
S31520212F108071F7F7FFFA04F150050122AA7004F116
S31520212F2021066A7108203070002184F8201005209E
S31520212F3031740C2229732073002071704021B270C4
S31520212F40002268730120A965AA71E8702046627261
S31520212F50FFF72CFF00204FF40073012128706870A1
S31520212F60012228714FF47A70AB602982E881317869
S31520212F70286D082908BF96F9020003D0102903D10C
S31520212F80B078401C02FA00F02865400968654FF4A4
S31520212F908061E96500202A660E4984F8E000FF2039
S31520212FA021604FF0007160734FF48033A0734FF08E
S31520212FB01E402272002220614FF000406161402193
S31520212FC06360A261E0610020F17070BD04800F4032
S31520212FD0E0461F4053454D4330B5047B4FF47A7567
S31520212FE06A4334B1042C07D0052C08D0062C09D0ED
S31520212FF00BE047F25F640AE042F22B4407E041F6F8
S315202130005E5404E041F2887401E043F62F34012511
S3152021301005FA03F30D000BD1002000E0401CC1B2BC
S3152021302061439142FAD3C1B299420CDB581E0AE080
S31520213030012908D100E00346D8B230B1581EDBB2AF
S3152021304063439A42F7D3C0B230BD1846FBE700004E
S315202130502DE9F043804608F1400687B0F77CE94602
S31520213060DFF8342B082F18DA380018D10023B4467C
S3152021307005E09CF8000000B101230CF1010C08F1B8
S315202130804C006045F5D243B11078002876D101292C
S3152021309007D198F88000507070E00127F7741078D6
S315202130A0E0B9080008BF012718D0012916D1F07CE4
S315202130B0801E042810D8DFE800F00C0A080503003A
S315202130C005210AE00423537008E0032002E00221AF
S315202130D003E00120507001E0002151701C22DFF80D
S315202130E0EC4B57431C216846F7F714FAE51906E0FD
S315202130F035F8022B042300F044F829F8020B0DF1B0
S315202131000E004845F4D206A9894507D235F8022B67
S31520213110062300F036F829F8020BF4E704F118000B
S315202131200623C25B012100F02DF8ADF81800BDF869
S3152021313000003070BDF802107170BDF80400B07027
S31520213140BDF80610F170BDF808003071BDF80A10DF
S315202131507171BDF80C00B071BDF80E103173BDF838
S315202131601000F071BDF812103172BDF81400707282
S31520213170BDF81610B172BDF81800F07207B0BDE87F
S31520213180F0830021404627E72DE9F8438046DFF8E2
S31520213190D46B4FF480713046F7F7BCF90022012118
S315202131A000920422EC2008F1500704F07CFE01460F
S315202131B06B460022002004F094FE0400DFF8D85943
S315202131C013D1A868397BB0F57A7F38BF4FF47A704E
S315202131D0012905D1014600F0D7F8040005D101E0E7
S315202131E0F6F712FA00F0CAF80446002C1DD13068F1
S315202131F0DFF8749B484515D100216846ADF80210A9
S3152021320005F047F9FE223146684605F046F90DF1CB
S315202132100201684605F03AF9BDF80200B6F8FE101B
S31520213220884216D000F0AAF8040040F09F800020A2
S315202132300021CDF800901DF80130725C934208BF21
S31520213240401C491C0429F6D30128D0D845F2D52083
S315202132508DE00720DFF8142B3870002000210C2365
S3152021326006EB010E43439EF8209013445B5C4B45AD
S3152021327002D1491C0C29F2D30C297AD138703089F4
S315202132800106890E01F00101C0F3C000297600B1A3
S3152021329001207873306D3865002100E0491C4008F3
S315202132A0FCD108F121000278082A02D0102A01D166
S315202132B0491E817006F154010A887A658B68BB659F
S315202132C0CA68FA650B7C3B66497C112910D01229E4
S315202132D00CD0132908D0212904D022290CBF022160
S315202132E0002106E0042104E0012102E0032100E07F
S315202132F007214170F97806F1810007291CD101782F
S31520213300C1F340120AB1062112E0C1F300120AB11B
S3152021331005210DE0C1F3C0020AB1042108E0C1F361
S3152021332080020AB1032103E0C1F3400111B1022138
S31520213330F97001E00122FA70027A417A02EB012129
S31520213340A9608279C379890802EB03222A61067949
S315202133504379920806EB0323EB60A9602A619B0837
S31520213360EB60C17A807A00EB012068612046BDE8B6
S31520213370F283401C0728FFF471AF80E74FF4807257
S315202133803146404604F019BD01224046FFE72DE98A
S31520213390F84F80468B46144608F15C05F6F721F94D
S315202133A006460F4668884FF47A714843F6F723F983
S315202133B081468A46F6F715F9801BB9418A4502D8F6
S315202133C028BF814511D3287890B98DF80000584619
S315202133D0F6F71AF96946404600F06CF8C0B99DF80F
S315202133E00000800900F0010006E045F2D0200FE020
S315202133F00128DFD104F050FD0028DBD0012C4046E6
S3152021340004BF2978002902D100F004F800B9002050
S31520213410BDE8F28F1CB500F0A3F828B902220021BD
S3152021342004F041FD00F048FB16BD7CB5002305467E
S3152021343000930E4630780422012104F034FD014602
S3152021344070786B46002204F04CFD040030D1307890
S31520213450EF2815D10422B11C284604F0D3FC040000
S3152021346026D195F85C00012805D100220021284685
S31520213470FFF78DFF1BE04FF47A70F6F7C5F817E0BA
S31520213480EE2815D195F85C00012807D101220021CB
S315202134902846FFF77CFF04000AD103E04FF47A7017
S315202134A0F6F7B2F80422B11C284604F086FC04461D
S315202134B0204676BD7CB504460D4694F85D0001284C
S315202134C00FD1DFF8D4663378022B03D108220021CD
S315202134D0712009E006220521782004F0E4FC746895
S315202134E005E008220021702004F0DDFCA4690146B4
S315202134F06B460022204604F0F4FC10B9009828706F
S31520213500002076BD7CB50D4600F02AF8F0B9DFF80B
S315202135108866307802280BD100F01DF800F054F887
S31520213520A0B9B4F86010B068884228BF01460EE0E1
S3152021353000F011F800F048F840B90322002130208C
S3152021354004F0B1FC00F040F80028EAD076BD012233
S3152021355000F013FC76BD04220021002004F0A3BC38
S315202135600023044600930022002110E77CB5002386
S31520213570160004460D4600930ED100220021FFF7A6
S3152021358006FF40B904220021802004F08CFC00F0A3
S315202135901BF800B9002076BD012AFBD10222002189
S315202135A0102004F080FC00F00FF80028F3D1B4F8A5
S315202135B06010DFF8E405C068884228BF014600F084
S315202135C0DBFB0028E6D076BD01466B460022284645
S315202135D004F087BCFEB50C4600F15005A979A1421D
S315202135E01BD02A78DAB9DFF8B065317EB9B10FF66A
S315202135F01403012CD3E90067CDE9006703D100210B
S315202136008DF8021004E0210004BF08228DF8022043
S315202136106946FFF70AFF08B9AC710020FEBD2000DC
S3152021362002D145F2D620FEBD012CF6D145F2DB2072
S31520213630FEBD38B5044604F1540108780125002839
S3152021364004BF4A78012A15D1002369468DF8003016
S315202136502046FFF72FFF0028204603BF9DF8005064
S3152021366005F0010585F001050025FFF7D3FE08B1F8
S31520213670012032BD284632BD0246012000E0491EE6
S3152021368021B112F8013BFF2BF9D0002070472DE9FB
S31520213690FC41DFF8DC560024804628780E4608F1C6
S315202136A06007022820D1100017D100940022002182
S315202136B0FFF76BFE04003ED104220021502004F0A6
S315202136C0F2FB00F03BF8040035D13988A8688842FE
S315202136D028BF0146FFF758FE04E0012A2BD1404698
S315202136E0FFF710FF044626E00AB9386C8619002117
S315202136F000220091FFF749FE04001CD10422022159
S31520213700052004F0D0FB00F019F8040013D1032280
S315202137100021E02004F0C7FB00F010F804000AD1B4
S31520213720686900281DBF4FF47A71B0FBF1F0401C67
S315202137300120F5F769FF2046BDE8F68101466B4653
S315202137400022304604F0CDBB2DE9F8430546C0B012
S31520213750894605F1540739780024002904BF787851
S31520213760002848D1FE6C7B68FF224FF48071684681
S31520213770B6FBF3F8FBF762FB687A01280AD12869A0
S315202137803A6D6946B9FBF0F300FB0366304604F037
S3152021379078FB13E0A0B9002249462846FFF777FF98
S315202137A0040028D13A6D6946284604F006FB040018
S315202137B021D1012249462846FFF769FF04001AD163
S315202137C04FF480716846FFF757FF00B10120DFF8DB
S315202137D0A0558021687605F11C00F6F79BFE002076
S315202137E069461C3505E001EBC002536845F82030B7
S315202137F0401C4045F7D3204641B0BDE8F0832DE952
S31520213800F0470C4600F1540631780125002901BFE5
S315202138107278002AF17800293DD1F26C716800274F
S31520213820DFF84C9509F19C0AB2FBF1F8427A012A7C
S315202138300AD10069241A07E0706809F527718244A4
S315202138408A4528D204197F1C474524D2F06C7168F9
S31520213850B4FBF0F200FB1240B0FBF1F0B842F2D1FA
S315202138605046FFF709FF00281CBF99F819000028A8
S31520213870E2D109EB8701706801F11C02514600B2A1
S3152021388004F0D9FE45F2343188421CBF45F2353247
S315202138909042D1D000252846BDE8F0872DE9F34F67
S315202138A01546E5B0659A002001901C4602F1540682
S315202138B03178002904BF7078002863D1F26C7368AF
S315202138C0802144A8B2FBF3FBF6F724FEF278002AE6
S315202138D05CD14FF00008AA46DFF898240395C1460B
S315202138E00092002525E0B9F1000F15D171680098C5
S315202138F0FF224FF00109FBF7A1FA0BE0009822469F
S315202139005146FAF709FD0098FF22391B204400244D
S31520213910FEF762F9DDF800A0706802AA514600B2CE
S3152021392004F0D2FD029944AA42F8251070686D1C34
S3152021393080445D452AD20021002C0291D3D077687C
S315202139400398BC4200EB080AD8D3E41BE4E702EB38
S31520213950C40351F82400641C58605C45F7D365984C
S31520213960407A012807D16698F36C326D04A918187C
S3152021397004F08CFA05E028B9326D659804A904F083
S3152021398041FA0190019867B0BDE8F08FFF224FF4EC
S31520213990807104A80024FBF751FA44A904AADCE784
S315202139A02DE97C43044604F147057B4E1C213046F4
S315202139B0F6F7B0FDEA7A04F122010AB1002008E0E7
S315202139C0087800281CBF0228042801D1012000E004
S315202139D002203070687B28B9AA7B501E8041C00FF7
S315202139E0C87001E00022CA7000212046FFF730FB73
S315202139F0204604F0BFFC002858D13178002949D12E
S31520213A0000900222FF2004F04EFA00F055F8002201
S31520213A104FF47A7100F0B1F9002847D12046FFF7FB
S31520213A20B3FB002842D101212046FFF711FB607A02
S31520213A30012809D172690AB94FF4FA7206230121A4
S31520213A402046FFF7C9FA28707278FAB1062A1DDABC
S31520213A50317E0020C9B10FF2A4336946D3E900890A
S31520213A60CDE9008900F024F800BBEE2100228DF853
S31520213A700010694600F01CF8C0B99DF80210727832
S31520213A80914218BF45F2D72010D178B9204604F0AB
S31520213A9071FC58B9697B49B9A97B012908BF002145
S31520213AA001D019B901212046FFF794FDBDE876837F
S31520213AB08DF802202046B8E40146A0696B460022F3
S31520213AC004F00FBA2DE9F04B07469046D7F8A0000F
S31520213AD0FA691D464143914228BF45F2D12027D27A
S31520213AE0A84238BF45F2D32022D33846A04E04F02F
S31520213AF0E3F9014689467160787A01280AD1D7F8F7
S31520213B0010903846FFF7FEFC90B93846FFF791FD15
S31520213B1048B93AE038B93846FFF7F4FC40B9384677
S31520213B20FFF787FD88B349463846FFF70DFE78B360
S31520213B30BDE8F08B4FF4007BAB453146404688BF2C
S31520213B40AB465A46D944FAF7E7FBD844A5EB0B05F1
S31520213B5055B1787A012809D14FF400723146484669
S31520213B6004F08FF904000AD02046E1E738B94FF452
S31520213B7000723146384604F020F90400F4D1494632
S31520213B803846FFF73CFE0028D4D145F2D420CFE792
S31520213B9000249C36DCE700009C3A22202DE9FB4FAD
S31520213BA082B005469346D5F8A020002751430BB96C
S31520213BB0042071E0E869814228BF45F2D1206BD2E9
S31520213BC09A4238BF45F2D32066D32846684E04F060
S31520213BD073F901907060687A012808BF2F6901D096
S31520213BE000B9019F019900222846FFF7BFFC040056
S31520213BF051D14FF0000806F19C00049CC24600904A
S31520213C001FE0E8B932464946284604F0FBF816E07B
S31520213C10BAF1000F0AD100984FF40076FF223146DF
S31520213C204FF0010AFBF70AF9DDF80090687A01289E
S31520213C30E7D13246494608EB070004F027F948BB6D
S31520213C40B044D5F8A000804529D20026002CDFD00B
S31520213C50B4F5007F04D3660A7602D946A41BE5E78C
S31520213C60009822460BEB08014FF40076FAF754FB15
S31520213C700098FF22C4F5007120440024FDF7ACFFF3
S31520213C80D2E795F8E00030B9049B03995A46284695
S31520213C9000F09EF80446204605B0BDE8F08F049B2F
S31520213CA039465A462846FFF7F9FD0400F3D10199F2
S31520213CB001222846FFF75AFC0400ECD12846FFF7BB
S31520213CC0B8FC0028DDD145F2D420E5E72892202032
S31520213CD02DE9FC4104460D4604F16006E269B16CEA
S31520213CE0306C69434143914228BF45F2D12036D2D7
S31520213CF020461F4F04F0E0F8804600200090002245
S31520213D00C7F80480002100F038F840BB04220521A1
S31520213D10602004F0C8F800F033F800BB0322052107
S31520213D20D02004F0C0F800F02BF8C0B931883869CA
S31520213D30884228BF014600F01FF880B92046FFF7A8
S31520213D4078FC10B945F2D42009E094F8E00028B98E
S31520213D50B26C20465543294600F018F80020BDE8CC
S31520213D60F6810000383D22204F4E464908932020D7
S31520213D709C3A2220383B222000222046FFF707BBEF
S31520213D8001466B460022404604F0ABB82DE9F041AE
S31520213D90804608F1A0056C6C0E46174644B945F2BB
S31520213DA0DA2013E029682046FFF766FC60B1761CED
S31520213DB03846471E50B12B68224631464046FFF7EA
S31520213DC081FE0028EED001E045F2D920BDE8F08120
S31520213DD070B5D0F8E44015461E4614B945F2DA20CE
S31520213DE070BD2246FFF76EFE38B932462146284657
S31520213DF0FDF7FCFE08B145F2D82070BDEF01000089
S31520213E0000000000EF900000000000000022FDF7D6
S31520213E10E3BE00002DE9F84307460C46DFF83C5364
S31520213E2020212846F6F776FB3A78012AC8BF42F6A2
S31520213E30CE1025DC97F801804246212A10DA01206E
S31520213E40002104F067FC4FF0000949457E6801D81E
S31520213E50B04205D30123A8F1080293409E4202D203
S31520213E6042F6CF100CE01C2239462846FAF754FA9E
S31520213E706868EC61B0F5007F04BF092169700020D4
S31520213E80BDE8F2831346B54A70B5957C044652683F
S31520213E9000201E19B24202D242F6CC1070BD2A0051
S31520213EA000D16CE02BB10A4621462846BDE8704058
S31520213EB0A8E070BD2DE9F8438046002401EB0809CE
S31520213EC0A64F7868FD68FE7D484504D242F6CC147B
S31520213ED02046BDE8F2839EB9BE7DBD6886B9387875
S31520213EE030B301280CD1404600F03FF90446EFE7D4
S31520213EF0002CEDD1387DD8B100F023F90028FBD153
S31520213F00C845E5D200F0FEF80400E1D100230022C5
S31520213F104146304600F076F80446B8FBF5F105FB1C
S31520213F20118000281ABF481C05FB00F8A844DFE7AA
S31520213F3042F6D010CDE770B5884D2E7E69683000C7
S31520213F4008D12878A0B1012804D1002000F00DF94C
S31520213F50044612E000F0D6F804000ED100230022F8
S31520213F600021304600F04EF8040006D1287D00B904
S31520213F7005E000F0E6F80028FBD1204670BD42F688
S31520213F80D01070BD2DE9F84F81468A4690460024EF
S31520213F9008EB0901714E7068B768757C884204D296
S31520213FA042F6CC142046BDE8F28FCDB942F6D01088
S31520213FB0F9E7C34688455246284688BF8B465B4645
S31520213FC0494600F01FF80400D944DA44A8EB0B082F
S31520213FD0E8D1307D0028E9D000F0B3F80028FBD1C4
S31520213FE0B8F1000FDED000F08DF80400DAD1B9FB4C
S31520213FF0F7F17943B9EB01001ABFA7EB090009189C
S315202140003946D6E72DE9FC471C46544FFB698246A3
S31520214010894690467D780022002100209847BAF1D2
S31520214020000F2CD0397C8A4508BF012628D07A7CDE
S31520214030924508BF022623D0B97C8A4508BF03268C
S315202140401ED0FA7C924508BF042619D0397D8A458F
S3152021405008BF052614D07A7D924508BF06260FD0A3
S31520214060B97D8A4508BF07260AD0FA7D924508BF21
S31520214070082605D0397E8A4508BF092600D0002684
S315202140807878092804D1B9F5807F28BF4AF0080A13
S31520214090092D8DF800A008BF08250121B01E012871
S315202140A084BF401F012814D86D1EAB1005EB537118
S315202140B000200DF10105C910491C07E04A1E121ADC
S315202140C0D20029FA02F32B54401CC0B28842F5D3E0
S315202140D0491C21B1FB6902226846984780B94CB117
S315202140E00122761E012EFB692146404698BF0222D7
S315202140F0984728B9FB6903220021002098470020F0
S31520214100BDE8F68738B51548047D457D200001D0C8
S31520214110280002D142F6D01032BD00F021F8002825
S31520214120FBD19DF80000810709D40023002200211C
S315202141302846FFF767FF9DF800008107EDD500206F
S3152021414032BD1CB50548047D00F00AF80028FBD1B4
S315202141509DF8000000F0010016BD0000488A2220AB
S3152021416001236A46002120464CE77FB505460C46A9
S31520214170FF2210216846FAF761FE01E07519A41B7A
S315202141805CB11026102C6946284638BF2646324671
S31520214190FFF7F8FE0028F1D000E0002004B070BD22
S315202141A021B1016941F0010101617047026952087B
S315202141B0520002617047426A01F00101520841EA28
S315202141C04201416270475202036942EA01221A439F
S315202141D002617047120401F00F0102F4702211438B
S315202141E0816570470146002010B500BF05A2C3B2E4
S315202141F052F823308B4203D0401CC4B2052CF6D36F
S31520214200C0B210BD00000000004039400080394076
S3152021421000C0394000003A4010B50C46FFF7E2FFB6
S31520214220DFF8A8140C5410BD7CB50D460021044698
S3152021423016460091FFF7D6FF38A232F91000F5F77E
S3152021424020FD204600F05FF801212046FFF7B3FF2D
S315202142506A7E297E204600F067F8616AEA7EDFF8C9
S3152021426070046B46920602F0806201401143A87EBB
S315202142703246000600F040700143204661622968DB
S3152021428000F05DF80022002100F012FA697A287ADE
S315202142906A6800F029F8A87A00F02CF800982A7E7E
S315202142A0C00600F0605001432046120602F04072FB
S315202142B0114321660121FFF773FFE9683346012265
S315202142C0204600F092F8296933460222204600F042
S315202142D08CF8696933460322204600F086F80021AE
S315202142E02046FFF799FF73BD890701F0804141EAF6
S315202142F0C0717047521EC2F30B02C00500F40000A4
S31520214300014311437047016941F0020101610269AC
S31520214310002142F44072026101617047FFFF0001D2
S31520214320020104010601000010B5436A0831012467
S315202143308C4002FA01F1A3431943416210BD2DE9B4
S31520214340F04705468A46686A94461C46C00702D528
S315202143502969CA0701D5002028E04FF0FF3007221E
S31520214360FF234FF0000E00210FF28448002618F873
S315202143700190B71C07FB09F9BCFBF9F9CA4507D3FC
S31520214380AAEB0907874203D238460A463346CE4648
S31520214390761CFF2E0CD80028E9D1286C03F0FF03C8
S315202143A0000A43EA002370462B642260BDE8F08789
S315202143B0491C0729F1D80028D8D1EEE7012A04D0B3
S315202143C012D3032A0CD004D37047026C61F317420F
S315202143D009E0036C23F07F4343EA016303647047BA
S315202143E0026C61F30F22026470472DE9FD4783B0E9
S315202143F00E4603990FF2F83001254FF0FF384FF082
S31520214400FF0A0A6EC2F3C2619DF81020445C002186
S31520214410032AB3FBF4F0CDE900010AD1DFF8AC433E
S315202144208946B4FBF0F4DFF8A80300F03BF8022517
S3152021443008E0DFF88C438946B4FBF0F4DFF89403D7
S3152021444000F030F8C94501D8B44207D39DF8102091
S3152021445003980021FFF7B2FF204620E0444600279B
S31520214460029680467819DFF85813A1FB000100F047
S315202144701AF8494501D8B04205D3821BA24202D25D
S315202144801446BA4680467F1CFF2F01D8002CE9D13D
S315202144909DF8102003985146FFF790FF404606B01D
S315202144A0BDE8F0873B21DDE9002303F05BBB816872
S315202144B0E1B10368002B04BF4168002916D0052AE3
S315202144C007D28068B0FBF2F102FB110272B90120FA
S315202144D0704712F0030F806802D09042F7D005E092
S315202144E0B0FBF2F102FB1102002AF0D00020704726
S315202144F02DE9F84F84B005462C6E0F46C4F30B04E4
S31520214500641CE11DC9080191FFF76CFEDFF8BC216F
S31520214510214612F80080019A3846FFF7C8FF002865
S315202145205CD06869C10148BF4FF4C87057D43C6834
S3152021453079680091BE68BA6848EA082002926968BB
S3152021454040EA084001224FF0000940EA086B012089
S31520214550090A88400390F8680709010D800D01F0AA
S31520214560010800F0010A01212846FFF72CFEDFF879
S3152021457068126961009808B94FF00109002128467F
S31520214580FFF70EFE686A20F008006862686A00F06C
S3152021459092F818BFB0F1007F04D1E4B9686A40F0DF
S315202145A08060686201212846FFF7FAFD286E3F06C2
S315202145B007F0407720F04E7040EA485040EAC94043
S315202145C007432F66019804280AD801A991F800905B
S315202145D0CDF804900BE000980028E3D0042048E091
S315202145E004229146019202E00097CDF808808EB3ED
S315202145F001998E423CBFF0B201900398E96D01F0FA
S315202146001F018142FAD003903CB10199524620469E
S3152021461000F060F8834601980444C5F864B00199F6
S315202146200098761A0028E2D00746DDF80880E86D42
S31520214630C0F304400028D7D0C845696F5346384671
S3152021464038BF5FFA88F94A464F4400F07BF8A8EB39
S315202146500908ECE7E86D039900F034F8FAD02A6EC0
S3152021466022F480122A66009848B969694805FCD542
S31520214670002005B0BDE8F08F0094C146029602982D
S315202146800028F5D0009C0646C846E86DC0F30440B4
S315202146900028F1D04645696F5346204638BF5FFA38
S315202146A086F84246444400F04DF8A6EB0806ECE78E
S315202146B020468FE5606A00F04070B0F1807F704718
S315202146C0E06DE97800F01F0088427047382B2220C0
S315202146D0F7FFFFF830B50024491E032903462ED8BB
S315202146E0DFE801F002050E1A13F8014B27E05C786A
S315202146F01978002A14BF44EA012441EA04241EE041
S315202147005C789D78197824021AB90C4344EA054429
S3152021471015E044EA014411E0DD78997858781C782F
S3152021472032B944EA002444EA014444EA056406E015
S315202147302246040444EA026444EA01242C43204606
S3152021474030BD000030B50C0C0D0A521E032A21D88B
S31520214750DFE802F002050C1500F8011B30BD13B964
S315202147600170457030BD0570417030BD1BB9017097
S315202147704570847030BD04704570817030BD0A0E3D
S3152021478023B9017045708470C27030BD02704470A7
S315202147908570C17030BD436A104ADB0744BF526918
S315202147A010479369184700000C4841680C48F2E7E6
S315202147B00A4881680B48EEE70848C1680A48EAE7B3
S315202147C000CA9A3B054801690848E4E700943577F1
S315202147D000CA64D60000CA9A033F00011C2B22205E
S315202147E0004039400080394000C0394000003A401D
S315202147F0010204081020408010B500F08FF802290C
S315202148004AD11168C1F34001002945D000F1280180
S315202148101068C0F34010087013685B0A03F0030385
S31520214820012B05D002D3032B06D003D3012004E08C
S31520214830022002E0052000E00620487010683A4A4E
S3152021484041F2883340F6C414C00800F001000873F1
S315202148501069C00B00F0010048731068800F0128F1
S3152021486006D002D3032808D005D344F6206005E0DC
S3152021487042F2107002E0184600E020464860106897
S31520214880C0F3407000B123468B601069400900F0C7
S3152021489001008873002010BD012010BD10B500F045
S315202148A03DF8012902BF1168C1F34001002933D106
S315202148B000F128011068C0F30110087013685B0A03
S315202148C003F001034B70106840F6C413C00800F0B2
S315202148D00100087314480269920902F001024A7301
S315202148E0046841F28832A40F012C06D002D3032C6E
S315202148F008D005D344F6206405E042F2107402E084
S31520214900144600E01C464C600068C0F3407000B19C
S315202149101A468A60002010BD012010BD034A116865
S31520214920C1F381117047000060441F4004800F406D
S3152021493010B5039C01F00F01240104F0100421433A
S31520214940016002B1136010BD009808B10199016080
S315202149507047826A490001F0060122F006021143BE
S315202149608162704731B1D0F8C01041F00201C0F800
S31520214970C0107047D0F8C02022F00202C0F8C02013
S3152021498070470029816C0BD021F04001920181646E
S31520214990836C02F0400242F008021A438264704777
S315202149A021F00801816470470B46026C416A006838
S315202149B003F0F6BE416A006803F056BF0A46416AF3
S315202149C0006803F061BF816CCA0405D54023416A82
S315202149D00068152203F0D2BF8A0448BF8023F6D46B
S315202149E0002070472DE9F84307468946154640F2AF
S315202149F0297641F66A1838687A6A494690470446E4
S31520214A0041F669118C4218BF44451BD197F8920370
S31520214A10022818BF032815D1444505D138686422B8
S31520214A204FF0B05104F05EFA3846FFF7CCFF28B993
S31520214A302DB16D1E1CB1B442DDD100E03446204695
S31520214A40BDE8F283002CF3D040F20974F0E7000090
S31520214A502DE9F04315A68BB000F0A2FD0D27F5F721
S31520214A6059FD0297256C01218DF811102D040395EE
S31520214A70002102AB009100220193694600F051FEEC
S31520214A8038B90598DFF8501A084205D04FF4E3606B
S31520214A9009E040F2097006E0C105E9D5C0F34320BB
S31520214AA00728E5D000200BB0BDE8F08300000000E8
S31520214AB000000000F0B5044611A58BB02421D5E9CC
S31520214AC00060CDE9006002A80C27F5F723FD0297A7
S31520214AD00026039603210222DFF81C3A02AD8DF827
S31520214AE010108DF8112069460993204601950096CC
S31520214AF0FFF778FF08B140F209700BB0F0BD000036
S31520214B0000000000000000002DE9F04F8BB0044684
S31520214B100E4602A8242100BF1FA5F5F7FBFCD5E9E7
S31520214B2000AB04220127CDE900AB00F039F803962A
S31520214B3040F6B83901930092F4F753FD07460D4606
S31520214B40DFF8B809F4F757FD17EB00084D41206827
S31520214B50626A69469047B8B9002E059817D1002771
S31520214B60C4F86C025FEA0900A9F1010918BF002FD8
S31520214B7006D0F4F736FDA942E9D301D84045E6D33C
S31520214B8038460BB0BDE8F08F40F20970F9E70028CE
S31520214B904CBF00270527E5E70000000000000000A4
S31520214BA0029702AB8DF81120002270472DE9D843B8
S31520214BB08BB000F029FD00BF11A64FF4003201234E
S31520214BC00392D6E900898DF811300327CDE9008992
S31520214BD002AA002302976946019200932068626AFD
S31520214BE0904700281EBF0598DFF80C19084203BFFD
S31520214BF002222264002040F209700CB0BDE8D08345
S31520214C00000000000000000030B5CB6800F52172BD
S31520214C109B0F1370CC68A40E04F00F045470CB683C
S31520214C201B0C9370CC68240AD470CB6813718B68C3
S31520214C301C0D1B0C03F00F03D48013728B681C04EC
S31520214C4003D5558945F0010555815C0403D5558940
S31520214C5045F0020555819C0403D5558945F0040567
S31520214C605581DC0403D5558945F00805558140F643
S31520214C70FC754C6805EA830505EB9475E40E04F072
S31520214C800704958194734B681B0E03F00703D37396
S31520214C904C68640D04F0070414744B689B0C03F0D4
S31520214CA0070353744C68E40B04F0070494744B688F
S31520214CB09B0A03F01F03D3744C68640904F01F0474
S31520214CC014750B7903F01F0353750B68002B03D53D
S31520214CD0558945F0100555815B0F03F00303937524
S31520214CE00B689B0E03F00703D3750C68A40D04F003
S31520214CF00F0414760B689C0203D5558945F02005AF
S31520214D005581DC0303D5558945F0400555811C0481
S31520214D1003D5558945F0800555815C0403D55589F0
S31520214D2045F4807555819C0403D5558945F4007534
S31520214D305581DC0403D5558945F4806555819B0A27
S31520214D4003F003035376096840F6FF7400F55B737D
S31520214D50090A01F0030191769189A14208D0927C1A
S31520214D600220491C521C90404143490A596003E0C4
S31520214D70816C41F4807181644FF40070186030BDDC
S31520214D8038B504460BA194F88802DFF8645A00F05E
S31520214D900702C0F3C30051F8223055F8200061687C
S31520214DA00A2243432068B3FBF2F204F0BBF8E06306
S31520214DB031BD0000A086010040420F008096980058
S31520214DC000E1F50580B5816CCA0507D500F22331AE
S31520214DD04A78002A1CBF097800290AD100F2972196
S31520214DE00A784978521C491C4A43C0F88823002056
S31520214DF002BD9202AF23C0F8882301218DF802300B
S31520214E0000238DF803108DF8011069468DF80030A6
S31520214E1000F006F80028EAD040F21E7002BD0000FC
S31520214E202DE9F0438BB004460E4602A8242100BF6B
S31520214E3016A7F5F76FFBD7E90089CDE900893278E6
S31520214E407078B178F378062542EA0022029502ADE0
S31520214E50204642EA01420195694642EA0362DFF889
S31520214E60783603920222099300238DF8112000938C
S31520214E70FFF7B8FD10B140F2097005E02046FFF793
S31520214E80E7FD08B14FF4E3600DE6000000000000C5
S31520214E90000000002DE9F04301F18F0601F1CF0535
S31520214EA07778B27896F800C0AB7B00F55C743F0228
S31520214EB007EB02476A7CBC4403FB0CF300F53B7CE1
S31520214EC05A43A2603279777900F0D2F8F77800F048
S31520214ED0CAF8E760F279377A00F0CAF8B77900F094
S31520214EE0C2F82761B27AF77A00F0C2F8777A00F011
S31520214EF0BAF8676101F1AF073B788CF81030BA78A0
S31520214F008CF811203B798CF81330BA798CF814203F
S31520214F103B7A8CF81530BA7A8CF816203B7B8CF8A4
S31520214F201730BA7B8CF818203B7C8CF819307A7C88
S31520214F308CF81A20FB7C8CF81B30727B01F5F773D9
S31520214F408CF800201E7800F2623216707E7D8CF855
S31520214F501C60D0F848E046EA0E068664BE7D8CF8B1
S31520214F601D6097F819C000F5437686F800C097F89A
S31520214F701AE086F801E097F81B8086F8028097F8D8
S31520214F801CC086F803C095F81DE000F54C7C8CF8F2
S31520214F9002E095F81E808CF8038095F81FE08CF8A6
S31520214FA004E011F8EF8F8CF8058091F80EE08CF84B
S31520214FB014E097F81E8086F80480FF7F77712F787A
S31520214FC0B7716F78F771AF783772EF787772EF7E96
S31520214FD08CF800702F7F8CF80170EF7995F808E016
S31520214FE095F805803F0407EB0E6795F806E007EB59
S31520214FF00E274744F760D0F848E05FEACE5948BFEC
S315202150002760AF7A77742F7BF7746F7B3775AF7BE9
S315202150107775EF7BB7752F7CF7756F7C3776AF7CED
S315202150207776EF7CB7763F0267606C7DE507F4766D
S3152021503003D5846C44F4007404E0650703D5846C9D
S3152021504044F4006484640C7B487BCD7A240444EAAE
S315202150500064887A44EA05240443CCF81040997ADE
S315202150601172BDE8F083D7196A7C5F435743704795
S31520215070AB7B120202EB0742704700002DE9704CF0
S3152021508090B005460C46164600F060F82DA0142156
S31520215090D0E900ABCDE900AB02A8F5F73BFA002217
S315202150A0012308924FF400728DF8253008210493AC
S315202150B005F16C03039207AA059302AB0192009393
S315202150C0079128686A6A69469047002802BF0A988C
S315202150D0DFF82C17084230D12A7B1AB1022A0ED0AA
S315202150E013D320E0002005F16C0305F16C0151F862
S315202150F0202011BA43F82010401C8028F5D3ACB1CA
S3152021510005F16C00815D217015E0002005F16C020E
S3152021511005F16C0352F8201049BA43F82010401C9F
S315202151208028F7D3EBE74FF4E16008E005F16C0125
S315202151302846FFF7AFFE002001E040F2097010B0AB
S31520215140BDE8708C000000000000000007A8242183
S31520215150F5F7E0B92DE9F84FFF26012990B0DFF8C0
S31520215160A44609D002290CD14AF655214FF6FF7AB9
S3152021517008252160564609E05A2204252260B24696
S3152021518004E08021042521604FF0C00A834620684F
S315202151909BF80C201AB1022A06D05DD367E000BA0B
S315202151A036BA20609AFA8AFA36A02422D0E90089D2
S315202151B0CDE90089DFF8509607A849460027F9F757
S315202151C0ABF800F0A8FA13200122079002AB08972A
S315202151D069468DF8252000F05DF80694019200930A
S315202151E0DBF80000DBF824209047002802BFDFF8F7
S315202151F008830A9810EA080F3CD1276800222260EA
S3152021520022A3D3E90001CDE9000107A809F1240150
S315202152102422F9F781F800F07EFA012202AB8DF8DB
S3152021522025200E2100F036F805940192009307914E
S31520215230DBF80000DBF8242069469047002804BFCC
S315202152400A9810EA080F18D121684F403E4056454A
S3152021525014BF0120002012E042BA70BA22609AFAC5
S315202152609AF112BA06BA226091FA81FA9CE74FF492
S31520215270E16004E04FF4E46001E040F2217011B0D6
S31520215280BDE8F08F000000000000000000000000B3
S31520215290000000008DF80A20049207AA0395704782
S315202152A07CB50D46012D044602D12AB1052503E000
S315202152B0022D01D102B106250320B7238DF8030043
S315202152C000268DF8023069468DF8015020468DF84A
S315202152D00060FFF7A5FD10B140F21E7076BD84F85F
S315202152E0015376BD70B50446002594F82960012E18
S315202152F015D0022E04D0052E10D0062E25D101251B
S3152021530020680221FFF725FB00F025F8E0B900F0FF
S315202153101EF8C8B9A06C40F4005010E00125206881
S315202153200121FFF716FB012100F016F860B92A4664
S31520215330012100F00EF838B9A06C40F48050A06409
S31520215340002084F8936370BDD1E0002070BD2A46E9
S3152021535002212046A4E702212046FBE6F8B50C4689
S3152021536000F20235E97901239340194205D12F799B
S31520215370072F02DB4FF4E160F2BD04F00F04032175
S3152021538044EA02148DF80310B92600F004F800B17E
S315202153900AE02C70F2BD00278DF8026069468DF84F
S315202153A001408DF800703BE540F21E70F2BDFEB53E
S315202153B00D46044600220121FFF7D0FF10B140F20D
S315202153C01B70FEBD94F829006168DFF82478052832
S315202153D018BF0628206807BF01266A0800262A4604
S315202153E003F0A0FDE06394F82900012825D00228A6
S315202153F003D0052821D0062838D1DFF8F8170197C0
S315202154000091002300F0E8FBDFF8EC0701970090DC
S3152021541000F0DCFBDFF8E40700F060F8DFF8E02796
S3152021542000F0D0FBDFF8DC0700F058F8DFF8D827AA
S315202154300021DFF8D807FFF787FADFF8D40701978D
S31520215440009000F0B9FBDFF8CC0700F047F8DFF831
S31520215450C82700F0ADFBDFF8C40700F03FF8DFF8DE
S31520215460C0270021DFF8BC07FFF76EFADFF87409A1
S3152021547000F034F8DFF870290021DFF87009FFF7F2
S3152021548063FADFF8A407DFF8681901900023009159
S31520215490DFF860290021DFF86009FFF755FADFF8E8
S315202154A05C0900F01BF8DFF858290021DFF85409A0
S315202154B0FFF74AFA2046FFF715FF10B140F2127086
S315202154C0FEBD26B100F00EF8E06300F019F80120A8
S315202154D084F892030020FEBD8800F9FF01970090F1
S315202154E000237047616820682A4603F01BBD40F2DD
S315202154F0127070BD000000000800F9FF40420F0025
S31520215500206801220121FFF73CBA20680121FFF7FB
S3152021551029BA2DE9F0430FF6CC168BB000F040F8CE
S315202155200227F4F7F7FF0026032202AB0297039600
S3152021553069468DF81120019300962068636A984761
S3152021554050BB05A804F14C0190E86C0081E86C0061
S31520215550089A04F51C70120E02700899090A4180D6
S31520215560089A02710799090E4171079A120C8271C4
S315202155700799090AC171079A02720699090E817241
S3152021558006990902C160059A41EA1261C16005990D
S31520215590090A0174002001E040F20970FFF783BA5D
S315202155A0044602A8D6E90089CDE90089242170473D
S315202155B02DE9F0438BB000F027F80FF63016092796
S315202155C0D6E90089CDE9008902970322216C8DF83D
S315202155D0112002AB00220193009209040391206835
S315202155E0636A6946984758B905A804F15C0190E891
S315202155F06C0081E86C002046FFF706FB002001E0C5
S3152021560040F20970FFF74FBA044602A82421F4F785
S3152021561081BF000010B5034603F55C731C7F002073
S31520215620072C09D8DFE804F0040A0A080C0E101208
S315202156301B6851188B4200D2042010BD5B68F8E705
S315202156409B68F6E7DB68F4E71B69F2E75B69F0E71D
S315202156502DE9F84390B004460D4690469946FFF72A
S3152021566075FD00F058F80FF68C00D0E90067CDE9DA
S31520215670006704F144067168CA0502D5B9F5007F91
S3152021568009D1D4F86C03484524BFE169494502D3A1
S3152021569019F0030F02D040F20C7039E02046FFF7B3
S315202156A0D7F910B14FF4E36032E0189FCDF80C9072
S315202156B0049701230499059512258DF8083007951D
S315202156C0012904BF11220792CDF820807168C805CF
S315202156D003D4039942464A4308928DF82530484BF4
S315202156E00E9300F087F8694600F01BF880B9012F48
S315202156F00DD99DF80810002904BF3078002806D13D
S315202157002046FFF7D7F910B140F2177000E00020AC
S3152021571011B0BDE8F08302A81421F4F7FBBE694637
S3152021572000932046FFF75EB92DE9F84F90B08146C8
S31520215730884614461D4607A824210FF2C077F4F780
S31520215740E9FEFFF7E8FFD7E900ABCDE900AB09F188
S3152021575044077968CA0502D5B5F5007F0AD1D9F85B
S315202157606C03A84224BFD9F81C10A94202D315F0F4
S31520215770030F14D040F20C7010E0012E0DD99DF8A4
S315202157800810002904BF3878002806D14846FFF79B
S3152021579091F910B140F2177000E000206FE5D9F899
S315202157A00000406AC201FAD501221A9E03951923C7
S315202157B004968DF80820049ACDF818800793104B6B
S315202157C0012A04BF1821079108947968C8056946DA
S315202157D048465CBF6543089501220E938DF8252006
S315202157E000F008F8FFF7FEF80028C6D0D6E700001B
S315202157F0B08E202007AA019202AB00930122704786
S315202158000800F9FF742B2220688E20202DE9FE4FD7
S315202158100446206803F0BEFD204603F0A1FD0028A2
S3152021582040F0A38104F128056878012852D0022866
S3152021583004D005284ED0062840F08480DFF8B423F2
S315202158400021009200230191DFF8CC25DFF8CC0539
S31520215850DFF8ACB3FFF76CF80020DFF89C1301903A
S3152021586000230091DFF8B8250021DFF8B805FFF7DE
S315202158705FF80020DFF884730190002300975A46B1
S315202158800021DFF8A405FFF753F80020DFF87893ED
S31520215890DFF87883DFF86CA301900023CDF800A0F0
S315202158A04A4600214046FFF743F8DFF88065D14973
S315202158B001960023009100F08FF90196CE4900919F
S315202158C000F084F90196002300975A4600F07AF9D0
S315202158D000F056F90020CE49019000230091DFF8EF
S315202158E050250021DFF84C05FFF722F80020DFF8AC
S315202158F028B3C84F0190009700235A460021DFF88C
S315202159003805DFF82083FFF713F80020DFF81093FE
S31520215910DFF808A30190CDF800A000234A460021F4
S315202159204046DFF80865FFF703F80196B84900914C
S3152021593000F042F90196002300975A4600F038F9E3
S3152021594000F01EF90120DFF89C14019000F049F99E
S31520215950FEF7EEFF0020DFF89C74DFF89CB4DFF819
S31520215960908401900023CDF800803A4600215846A4
S31520215970FEF7DEFF0021DFF88C94DFF884A4DFF820
S315202159807C6401910023009652464846FEF7D0FFBB
S31520215990DFF89824DFF84C14019200F022F9FEF763
S315202159A0D3FFDFF89814CDF80080019100233A46E1
S315202159B000215846FEF7C8FFDFF870040023019026
S315202159C05246009600214846FEF7BEFF287B40B36B
S315202159D00021DFF86C240191002300920022052169
S315202159E0DFF86004FEF7A4FF0FF2F440DFF8246409
S315202159F001686A46009106213046F4F763F90122AF
S31520215A0000F0BAF86A7B00F0B7F86868F3F7FCFD76
S31520215A10687B421E9241D20F00F0AEF8A868F3F7B8
S31520215A20F3FDA87BC0B10021DFF81C64DFF81C74CC
S31520215A30019100970023002206213046FEF778FFA8
S31520215A40DFF8E80300970190002300220621304643
S31520215A50FEF77AFFFFF759FD20680021FEF779FF2F
S31520215A6000F09CF8686100F094F82046FEF7A2FF2A
S31520215A7010B140F2137078E000212046FFF744F858
S31520215A8048B9A87BDFF8C81308B1DFF8C813204628
S31520215A90FFF73AF810B140F2147066E02046FFF77E
S31520215AA038FD10B140F20D705FE02046FFF77EF8F9
S31520215AB010B140F21A7058E02046FFF779FD10B157
S31520215AC040F20F7051E02046FFF75AF90121204676
S31520215AD0FEF76AFF10B14FF4E26046E000F063F86A
S31520215AE010B140F21C7040E000F041F810B140F2B4
S31520215AF00A703AE02878401E03D0401E012822D978
S31520215B0024E06878052818BF062808D0286A810746
S31520215B1048BFBE4909D4C00725D5BD4905E095F81A
S31520215B20201011F00C0F1ED0B7492046FFF73FFC5D
S31520215B30D8B92046FFF746F9002814BF40F21F7036
S31520215B4084F88C0311E04FF4E1600EE06878052893
S31520215B5018BF062807D02046FFF7C4FB0028E8D027
S31520215B6040F2127001E040F20C70BDE8FE8F4FF436
S31520215B7000712046FEF722BF06213046F4F7CFB822
S31520215B8001960023CDF800A04A4600214046FEF783
S31520215B90DBBE206804F1140103F0B7B961682068DF
S31520215BA0AD4A03F0BFB9002200212046FFF766BA8D
S31520215BB00021A148FEF7C8BE00239D4A00219D4809
S31520215BC0FEF7C2BE00219848FEF7BEBE0023944AA6
S31520215BD000219448FEF7B8BE8F4A00218F48FEF750
S31520215BE0B3BE00230091804A0021804870470000DF
S31520215BF0B9700100E4831F40E8831F40EC831F40D6
S31520215C0000861F40F0831F4004861F4000821F40CC
S31520215C10CC831F40C8831F40F0851F40C4831F406B
S31520215C20F4851F40D4811F40B9400100B0F88E026F
S31520215C3010F4C06018BF0120C0B27047F8B50446E1
S31520215C400D4694F8FF6203208DF80300B323002725
S31520215C508DF802308DF80070694606F0F8062E433D
S31520215C608DF801602046FFF7DBF808B1FFF79CBBD2
S31520215C7084F8FF6284F88C53F2BD2DE9FC4700F0AD
S31520215C8036F838B104200FE000F029F8FFF7E0FCC0
S31520215C9050B9564444B1D8F820A0A24532BFA4EB2E
S31520215CA00A04A2460024EFE7BDE8F6872DE9FC4742
S31520215CB000F01DF838B104200FE000F010F8FFF7AE
S31520215CC033FD50B9564444B1D8F820A0A24532BF5D
S31520215CD0A4EB0A04A2460024EFE7BDE8F68709EBE8
S31520215CE0462100954FF40073F219404670478946A4
S31520215CF0174680461D462A4639462C460026FFF75A
S31520215D0089BC00002DE9F04C8BB004460E46154681
S31520215D1002A8FFF71CFA00BF7AA004F55C71D0E92E
S31520215D2000ABCDE900AB087F07281BD8DFE800F0C0
S31520215D300E0C0C1A0A080604486908E0086906E0D0
S31520215D40C86804E0886802E0486800E00868896934
S31520215D50B0FBF1F201FB120000B1521CB24228BF66
S31520215D60AA4232D204202DE00123232103963B4E41
S31520215D708DF8113002AB029100270996002201935A
S31520215D8069460097204640F20977FEF72BFEC0B9D7
S31520215D90242102AA02910023019200220395FFF7D2
S31520215DA0BEFC70B900220223039226208DF81130E1
S31520215DB002AA02900023019200220996FFF7AFFC46
S31520215DC000B138460BB0BDE8F08C2068406AC2018C
S31520215DD0FBD5A06C4D434E43C1055CBF76026D02B7
S31520215DE0C2E70000D8831F40E4851F40E8811F4079
S31520215DF0D4831F40DC851F40E4811F40D0831F4070
S31520215E00E8851F40E0811F4000EA3206007519030C
S31520215E1080BA8C0100001C40F8851F40F4811F4068
S31520215E20FC851F40F8811F40FC811F40897001009D
S31520215E30EC851F40DC811F40D8811F406140010035
S31520215E40DC831F40EC811F40AC801F409C821F4079
S31520215E500080FF408080FF40801A06000800F9FF5D
S31520215E60F8B5044604F2FD250E46AF78307807F0C2
S31520215E70870700B101207178B3238DF80230C9003C
S31520215E8041EA801103208DF8030000208DF80000BF
S31520215E9000F01EF808B1FFF787BAAF702F78B078D7
S31520215EA007F0E00700B10120F1780322B12341EA6E
S31520215EB0800130798DF8032041EAC0018DF8023026
S31520215EC000F006F810B140F21D70F2BD2F70F2BD20
S31520215ED020460F4369468DF80170FEF7A1BF0000C9
S31520215EE0010000000000000000000000000000006A
S31520215EF0000000000000000000000000000000005B
S31520215F0000000000000000000000000010B5039CE6
S31520215F1001F00F01240104F010042143016002B194
S31520215F20136010BD009808B1019901607047826AFB
S31520215F30490001F0060122F00602114381627047D1
S31520215F400B46026C416A006802F02ABC0A46416A65
S31520215F50006802F055BC416A006802F085BC0A46F9
S31520215F60416A006802F090BC416A006840231322EE
S31520215F7002F004BD2DE9F84306460F46154640F2A8
S31520215F80297841F66A193068726A3946904704465B
S31520215F9041F669118C4218BF4C4505D07868DFF847
S31520215FA03C1BC2680A4213D096F8BC00032818BFAE
S31520215FB002280DD14C4505D1306864224FF0B051CD
S31520215FC002F090FF3046FFF7CFFF20B1444602E092
S31520215FD00CB140F2097425B16D1E002C18BF444521
S31520215FE0D1D12046BDE8F2832DE9F04314A58BB00B
S31520215FF0044602A8D5E90089CDE9008924210D2767
S31520216000F4F788FA0297266C0121DFF8D02A8DF839
S31520216010111036040992039602A900230191022226
S3152021602000F09BFC40B90598C105F5D5C0F3432066
S315202160300728F1D0002007E340F20970FBE7000092
S315202160400000000000000000F0B5044611A58BB029
S315202160502421D5E90060CDE9006002A80C27F4F7B8
S3152021606059FA02970026039603210222DFF86C3A79
S3152021607002AD8DF810108DF8112001220993694661
S31520216080019520460096FFF775FF08B140F2097069
S315202160900BB0F0BD00000000000000002DE9D84320
S315202160A009A68BB000F0D8FA0327F4F733FA002695
S315202160B0082200F01BFB20B90598000C2064002043
S315202160C001E040F20970D4E1000000000000000048
S315202160D02DE9FC4D074600BF1FA090B00D461A9E04
S315202160E09046D0E900AB1C4607A8CDE900AB242178
S315202160F0ED07F4F70FFA00F040FC06200F21079058
S315202161004FEA880065F07F4581408D4384402543B1
S315202161100122089540238DF82520384603930492A1
S3152021612005960399FFF71BFF10B140F20A7011E083
S3152021613002AA07A90092019138687B6A6946984785
S31520216140002802BF0A98DFF8B019084214BF40F28E
S315202161500970002000F0FEBB0000000000000000B6
S3152021616030B50B6800F1A8021B0F13700C68240EA2
S3152021617004F00F0454700B681C0203D5558845F092
S31520216180010555801B0D03F0070313710B681B0CAA
S3152021619003F00F0353710B681C0403D5558845F072
S315202161A0020555809B0A03F01E0393710B7803F099
S315202161B00303D3714968537891602BB1022B06D002
S315202161C03CBF0221416409E00124446406E0042302
S315202161D0436491788C0744BF0823436451794B0744
S315202161E003D5846C44F004048464D179CA0703D589
S315202161F0836C43F080038364890703D5826C42F044
S315202162004002826430BD00002DE970432AA690B059
S31520216210044607A8D6E90089CDE900892421DFF89B
S31520216220DC58F4F777F900F0A8FB00F0E7F800F046
S3152021623047F810B140F2157032E0012200238DF883
S3152021624025203321089302AB049207AA079108211E
S3152021625005950093019203912068626A69469047C9
S31520216260002803BF0A98DFF89018084240F20970E7
S3152021627016D1217B286841B1022901D013D317E0F9
S3152021628000BA2860686800BA686004F16C01D5E913
S315202162900002C1E9000229462046FFF761FF0020BE
S315202162A010B0BDE8708340BA2860686840BAEBE731
S315202162B04FF4E160F4E70000000000000000000038
S315202162C0216C204642E62DE9FF411746002301AAEB
S315202162D000259C46044682E828100E46DFF81C58E5
S315202162E000F08CF8616C00297DD0B4F8900041052E
S315202162F079D500953B46324600212046FFF7E8FE18
S3152021630000284DD1207BF0B1022801D00FD36AE09D
S3152021631029686A6808BAE968286010BA6860A86896
S3152021632000BAA86008BAE860286900BA0AE0296894
S3152021633048BAA9682860686840BA686048BAA860DF
S3152021634000F056F82861286801A9ADF80E00686882
S31520216350ADF80A00020CA86848800A81020CE86878
S315202163608A800122BA40030CADF8043031F8161088
S31520216370114238D0000200F47F4029694FEA86086D
S3152021638040EA116020FA08F000F00F00B8422AD125
S3152021639000953B46324601212046FFF799FE10B152
S315202163A040F2097021E0207B48B1022801D017D381
S315202163B019E0E96808BAE860286900BA2861E9681D
S315202163C02869090201F47F4141EA106121FA08F185
S315202163D001F00F01B94214BF40F21670002004E0EB
S315202163E000F006F8EAE74FF4E16004B0BDE8F08159
S315202163F0E868296940BAE86048BA70474FF4807145
S315202164002846F4F787B800002DE9D8431AA78BB080
S3152021641004460E46D7E90089CDE9008902A800F075
S31520216420A9FAFFF74DFF10B140F2157021E00621A0
S31520216430012202918DF8112016B1012E15D017E0D7
S315202164400021039102AA0021019200912068626A0B
S3152021645069469047002802BF0598DFF88016084232
S3152021646014BF40F20970002003E002200390E9E7DF
S3152021647004200CB0BDE8D0830000000000000000FD
S3152021648070B5CB6800F18C029B0F1370CC68240C5D
S315202164905470CB681B0A9370CC68D4708B681D0D01
S315202164A01B0C03F00F03958093718B681C0400F05D
S315202164B09DF85C0400F09AF89C0403D5158945F0D3
S315202164C004051581DC0403D5158945F008051581B8
S315202164D016784FF4007416B1012E35D049E040F6D6
S315202164E0FC70012500EA8300D0604B6840EA937056
S315202164F0D0604868C00E00F0070010744B681B0E50
S3152021650003F0070353744868000D00F00E009074C1
S315202165104B689B0C03F00703D3744868D368C00BE0
S3152021652000F007001075801C5B1C03FA00F093799C
S31520216530906205FA03F3B3F5007FD36219D058434D
S31520216540D462400A906214E0D4628B684FF6FF75BC
S315202165501B0403F47C13D3604C6843EA1443D360B1
S31520216560AB4203D3846C44F0100484645B1C9B02ED
S3152021657093624868430403D5148944F01004148196
S31520216580C00900F07F005075087900F07F009075D2
S315202165900B689B0E03F00703D3750868800D00F066
S315202165A00F0010760868810203D5138943F0400332
S315202165B01381010403D5138943F0800313814104F8
S315202165C003D5138943F480731381810403D5138959
S315202165D043F400731381C10403D5138943F48063E3
S315202165E01381800A00F00300507670BD03D51589EA
S315202165F045F00105158170472DE9F04314A68BB08E
S3152021660000F02AF80927F3F785FF0297256C032244
S3152021661002AB8DF8112000222D04019303956946A2
S3152021662000922068636A984760B905A804F15C0145
S3152021663090E86C0081E86C0005A92046FFF720FF31
S31520216640002001E040F209700BB0BDE8F083000084
S315202166500000000000000000044602A8D6E90089B7
S31520216660CDE90089242170472DE9F0431DA68BB061
S31520216670FFF7F2FF0227F3F74DFF0026032200F052
S3152021668035F858BB05A804F14C0190E86C0081E847
S315202166906C00089A04F17800120E02700899090AF2
S315202166A04180089A02710799090E4171079A120CA5
S315202166B082710799090AC171079A02720699090EF0
S315202166C0417206990902C160059A41EA1261C160A7
S315202166D005990903090D0182002001E040F2097084
S315202166E0B2E70000000000000000000002AB029784
S315202166F0039669468DF81120019300962068636AD6
S31520216700184700002DE9F14F82B000F1280739788A
S31520216710DFF80848491E032900F29D80DFE801F0B1
S315202167200A080402042208E00322DFF8F44704E0E1
S31520216730022202E00122DFF8E0470021FFF7C3FD14
S31520216740002838D1029839782246DFF8D847DFF851
S31520216750D887DFF8D86780F8BC10029B5968DFF804
S31520216760D0B7DFF8D057DFF8D0971868DFF8CCA755
S3152021677002F0D8FB78610298DFF8C41790F8BC2084
S31520216780DFF8C007022A19D17B784BB1012B37D1EB
S31520216790DFF8B47700F07BF800F080F800F06FF88E
S315202167A0DFF8A40700F05AF8DFF8A00700F05EF81A
S315202167B0DFF894071AE040F21B704DE0032A27D117
S315202167C07B784BB1012B1BD1DFF8847700F05FF862
S315202167D000F064F800F053F8DFF8740700F03EF873
S315202167E0DFF8700700F042F8DFF86407DFF8681752
S315202167F00190009100F0DAFBDFF86007FFF792FBAA
S315202168000298FFF7B1FB002825D040F2297023E01A
S31520216810042A20D17B784BB1012B1CD1DFF840777C
S3152021682000F035F800F03AF800F029F8DFF83007C3
S3152021683000F014F8DFF82C0700F018F8DFF820070D
S31520216840DFF8141701900023009100220021DFF8A0
S315202168500C07FFF767FB0020BDE8FE8F009601900D
S315202168600023002200214046FFF75CBB00940190C3
S31520216870002300220021DFF8F006FFF753BB019702
S3152021688000230095002200215846FFF74BBB002309
S315202168900197002200910021FFF744BB0197002395
S315202168A0CDF800A0002200214846FFF73BBB0A462F
S315202168B0022108E50A46032105E52DE9FC4D04467A
S315202168C00FF2EC7090B000F04DF800F056F894F8E5
S315202168D04870B80702D5B8F5007F09D1D4F8B81089
S315202168E0414524BFE069404502D318F0030F02D069
S315202168F040F20C702EE02046FFF776FB10B14FF4C4
S31520216900E36027E01A9ACDF80C8004921222049B88
S3152021691005950792012B04BF1121079100F086F8D6
S3152021692001226E4B8DF8252007AA0E9302AB0192E8
S31520216930012200F012F868B90499022909D39DF899
S31520216940080030B92046FFF77FFB10B140F21770BF
S3152021695000E0002012B0BDE8F08D00936946204664
S31520216960FFF708BB0D46D0E900AB16469846CDE980
S3152021697000AB07A82421F3F7CDBD02A81421F3F7F4
S31520216980C9BD2DE9FC4D04460FF22C7090B0FFF7BE
S31520216990E9FFFFF7F2FF94F84870B80702D5B8F55A
S315202169A0007F09D1D4F8B810414524BFE06940457C
S315202169B002D318F0030F2DD040F20C7029E01A9A39
S315202169C0CDF80C8004921922049B06950792012B5F
S315202169D004BF1821079100F029F8474B01220E9375
S315202169E007AD02AB8DF825200195694600932046F7
S315202169F0FFF7C0FA68B90499022909D39DF808003E
S31520216A0030B92046FFF720FB10B140F2177000E085
S31520216A1000209FE72068406AC101FBD52046FFF769
S31520216A20E3FA0028CBD04FF4E360F2E7089694F8F6
S31520216A304810880703D4039932464A43089270475F
S31520216A402DE9F84D0FF278640E468BB08046D4E9B5
S31520216A5000AB174602A8CDE900ABFFF78BFFD8F88C
S31520216A600040606AC001FAD54046FFF7BDFA10B151
S31520216A704FF4E3602FE098F84800BF197F1E1E4D82
S31520216A8009958107694640465CBF76027F0220220E
S31520216A900123029202AA8DF81130002301920122AC
S31520216AA0039640F209760093FFF764FA90B92120E4
S31520216AB000F016F8039700F019F858B9002202239E
S31520216AC0039226208DF8113000F00AF8099500F05E
S31520216AD00DF800B130460CB0BDE8F08D0800F9FF65
S31520216AE002AA029000230192002270476946009350
S31520216AF04046FFF73FBA00000800F9FF742B2220F9
S31520216B002DE9F84F8CB00446206802F043FC20463C
S31520216B1002F026FC002840F0BB8104F12805687884
S31520216B20002839D0012875D1DFF81464002101917C
S31520216B30002300960022DFF80C04DFF8FC83FFF700
S31520216B40E5F90020DFF8F473019000F029FAFFF728
S31520216B50DDF90020DFF8DCA3DFF8D4930190CDF80E
S31520216B6000A000F023FA4846DFF804B4FFF7CEF957
S31520216B70CDF804B00023009600220021DFF8C403BB
S31520216B80FFF7D0F9CDF804B000F00AFAFFF7CAF9D9
S31520216B90CDF804B0FFF783FE0120DFF89063019042
S31520216BA00023009600220021DFF87C03FFF7AEF9AF
S31520216BB00020DFF8B483DFF86C730190009700F092
S31520216BC0F5F94046DFF89493FFF7A0F90020DFF886
S31520216BD088A301900023CDF800A000220021484659
S31520216BE0FFF794F9DFF888B30096CDF804B000F0CA
S31520216BF0DDF9CD48FFF796F9DFF8780300230190D8
S31520216C000022009700214046FFF78CF9CDF804B0E9
S31520216C10FFF745FE287802281CBF0328042802D125
S31520216C204FF0010901E04FF00009287B59EA0000C5
S31520216C3026D00021D04A019100230092002205214D
S31520216C40CE48FFF763F90FF25440CD4E01686A46CC
S31520216C5000911F213046F3F735F86A7B1F213046F4
S31520216C60F3F75DF86868F2F7CFFC687B421E924104
S31520216C70D20F1F213046F3F752F8A868F2F7C4FC49
S31520216C80B9F1000F15D0012000216870BD4EBE4FED
S31520216C90019100970023002206213046FFF736F97D
S31520216CA0B348002301900022009706213046FFF7A2
S31520216CB039F90020002128622068FFF738F9616818
S31520216CC02068AA4A02F02EF968612068642102F020
S31520216CD07EF9206804F1140102F017F92046FFF706
S31520216CE03AF9002840F0DE80A84E012004F1BD01AA
S31520216CF0B9F1000F88700FF2B032D2E9000118BF26
S31520216D00A34ECDE90101A34F03A807F12401242293
S31520216D10F7F702FB4FF4D5720923049208218DF847
S31520216D20153003AA00234FF00A08039102920193FA
S31520216D3040F20C7201A900922068636A984710B12B
S31520216D4040F2097007E00698C0F30800B0F5D57F18
S31520216D5000F0AB800098B8F10108009900F09B80E3
S31520216D608842E5D1009893E005275FEA0800A8F13B
S31520216D70010800F0C080F2F734FC594501D828BF1C
S31520216D80504580F0B8800021FFF79BFA0028ECD1EE
S31520216D90002203A9019202912068636A01A99847DA
S31520216DA0002840F0AB8006980028DDD5400003D589
S31520216DB0296A41F0020129620698C10103D52A6A6E
S31520216DC042F020022A620698E86495F82010880667
S31520216DD00CD5616A206801F083FD10B140F225703F
S31520216DE056E0032004F1BD01887001E0F201B9D4F7
S31520216DF02046FFF739FC10B140F20D7048E02046BD
S31520216E00FFF74CF910B140F20E7041E02046FFF712
S31520216E10F3FB10B140F20F703AE001212046FFF733
S31520216E208FF810B14FF4E26032E02046FFF7ECF9FB
S31520216E3010B140F211702BE000F068F86861687893
S31520216E40012802D0B9F1000F0FD095F82000410773
S31520216E5088D501212046FFF7D7FA10B140F21270CA
S31520216E6016E020680121FFF762F804F1BD052046CE
S31520216E702978FFF71CFD69782046FFF71BFD00F0D6
S31520216E8040F8002812BF40F20A702046FFF73AFC4C
S31520216E900DB0BDE8F08F88423FF464AF2046FFF75E
S31520216EA05AF840B140F21370F2E72A6A46F080463A
S31520216EB042F008022A6200BF79A32422D3E90001E5
S31520216EC0CDE9010103A83946F7F726FA2922042319
S31520216ED003920127049640F6B8388DF81530F2F73B
S31520216EE080FB82468B462C48F2F785FB1AEB000A5B
S31520216EF04BEB010B39E7002F3FF467AF40F21470BB
S31520216F00C6E74FF400712046FFF729B8616820684B
S31520216F10224A02F007B8000080F0FA0200E1F505C6
S31520216F2000D4650CB0831F40BC811F40AC831F4019
S31520216F30D0811F40C0831F40CC811F40BC831F406E
S31520216F40B8831F40C8811F40B9700100B940010094
S31520216F50F9700100F9400100B4831F40C4811F400C
S31520216F609970010099400100C0811F40801A0600B6
S31520216F708970010049400100A8831F40B8811F4024
S31520216F8000C01B40B4811F40A4831F400080FF0006
S31520216F900080FF01688E202040420F0040787D012D
S31520216FA0002300970022002140467047002300221B
S31520216FB000217047B0F8940010F4C06018BF01205A
S31520216FC0C0B270472DE9F84300F03EF839198842BE
S31520216FD038BF042011D3002500E0751964B100F0D3
S31520216FE02AF832BFA41B264600240096EA19FFF769
S31520216FF064FC0028F1D000E00020BDE8F2832DE9D1
S31520217000F84300F021F800253919884202D20420BC
S315202170100FE0751964B100F00EF832BFA41B264685
S3152021702000240096EA19FFF7ACFC0028F1D000E0F5
S315202170300020BDE8F283D8F8206009EB45214FF4E2
S3152021704000734046A642704780468946D8F8B40048
S3152021705017461C4670472DE9F04180460E46D8F842
S31520217060B400144600273119884202D2042012E0A6
S31520217070EF197CB198F8A15040466D1CA54232BF2C
S31520217080641B254600242A46B919FFF7D9FC002876
S31520217090EED000E00020BDE8F081000001000000D4
S315202170A00000000000000000000000000000000099
S315202170B00000000000000000000000000000000089
S315202170C0000000000000000001460020BF4A914236
S315202170D018BF01207047002810B53AD0002140F66C
S315202170E0C41201703F234170012481704FF44861FD
S315202170F0C2802222818040F25C4103814FF4AD631C
S31520217100C27240F29512C360E3230161DC21426100
S31520217110622283617D23C161252102624B22436242
S315202171200B2381622F21C26246F62012036345F684
S315202171307D734163C1634FF4C84142644FF4C862F1
S31520217140C4708472846304648364C16402650020EC
S3152021715010BD042010BD00000023002AF0B51ED04A
S3152021716056681468A6421AD2A51B491E082940F240
S31520217170FF774FF6FF7E2AD8DFE801F00512243665
S31520217180485A67748600754598BF74451FD8016A89
S31520217190C4EA01020262046AC4EA0541016289E065
S315202171A047F6FF718D4298BF8C4210D8416AC4F3AD
S315202171B00E04C90B44EAC1344462416A65F31E4177
S315202171C0416277E043F6FF718D4298BF8C4270D899
S315202171D0816AC4F30D04890B44EA81348462816A6D
S315202171E065F31D41816265E041F6FF718D4298BFAD
S315202171F08C425ED8C16AC4F30C04490B44EA41345B
S31520217200C462C16A65F31C41C16253E040F6FF7135
S315202172108D4298BF8C424CD8016BC4F30B04090BC9
S3152021722044EA01340463016B65F31B41016341E0A8
S31520217230BD4298BFBC423CD8426B00F03DF8446326
S31520217240416B65F31A41416334E0BD4298BFBC428C
S315202172502FD8826B00F030F88463816B65F31A4155
S31520217260816327E075459CBF6FF07F42944220D8E9
S31520217270C16824F07F4401F07F410C43C4608268B9
S31520217280C5EA0201816015E051498E4298BF8C42A0
S315202172900FD8C169C4F31504890D44EA8154C46108
S315202172A084695168A40DC1F3150141EA845484618E
S315202172B000E004231846F0BDC4F30A04D20A44EAA6
S315202172C0C224704738B504460D46A87A01007BD0E2
S315202172D0102879D26168000400F4702005F10C028F
S315202172E021F4702108436060012100F077F80028FD
S315202172F069D105F11402022100F070F8002862D12B
S3152021730005F11C02032100F069F800285BD105F163
S315202173102402042100F062F8002854D105F12C0220
S31520217320052100F05BF800284DD105F13402062114
S3152021733000F054F8002846D105F13C02072100F03F
S315202173404DF800283FD105F14402082100F046F8E6
S31520217350002838D105F14C02092100F03FF890BBD5
S3152021736021686A78D20102F0800221F484511143E6
S3152021737021602368AA781749920002F00C020B405B
S31520217380134323602368EA7813490B4002F0030252
S31520217390134323602369A988C3EA01422261236911
S315202173A0E9881B0C41EA0343236162692989920AF0
S315202173B0C1F3090141EA822262616268E97A120AED
S315202173C041EA0222626032BD042032BD00C00C4057
S315202173D0FFFF3F00F3EFFFFFFCEFFFFF2046BBE659
S315202173E0024601F00F010F2902F1400050F8210039
S315202173F008BF116C7047000038B504000D4618BF30
S31520217400002D26D0FFF760FE35A131F91000F2F7C5
S3152021741038FC206820F4883040F4803020602168B0
S31520217420204621F4825141F0400121602946FFF76F
S3152021743049FF78B9206820F48830206029780129ED
S3152021744005D1D4F8A00040F00200C4F8A000002005
S3152021745032BD042032BD00002DE9FC41054600261F
S315202174600027002D1446884618BF002932D08CB318
S315202174702868C0F3802020B92868C0F3003000286E
S31520217480F6D02868C0F3003060B9394628467F1CDB
S31520217490FFF7A6FF04210090042C684698BF2146B9
S315202174A000220AE02868012640F48050286008E05E
S315202174B010F8013B521C08F8013B8A42F8D3641A82
S315202174C0D6D107F00F070F2F05D00F212846FFF71A
S315202174D087FF00E004263046BDE8F6810000000043
S315202174E00C060000DFF850060168002944BF4FF042
S315202174F040438360082141604162704710B508B935
S31520217500012010BDDFF834160A6812F4406F03D12A
S315202175100B6843F440630B6000F001FBFFF7E2FFA9
S31520217520002010BD7FB5040018BF002901D0802A74
S3152021753001D001254DE0DFF8086600258B1B022BA3
S315202175402160DFF800061CD941F234269B1B3AD054
S3152021755042F2DE169B1B36D045F299569B1B2CD028
S3152021756042F2DE169B1B28D042F266269B1B1FD099
S3152021757042F2ED169B1B1BD04FF470669B1B28D025
S3152021758003E001F00301216023E010226846F6F78B
S31520217590C3FEDFF8B40530230360DFF8B06526602B
S315202175A000215DF82130491C03290361F9D910E016
S315202175B000F012F822F0100203E000F00DF842F05C
S315202175C01002026003E0C16941F01001C16100F09F
S315202175D0ADFA284604B070BDC16921F01001C16100
S315202175E00268704738B5006815460C46DFF85025E5
S315202175F0811A022922D9C91E1CD041F23122891A87
S3152021760023D042F2DE12891A22D045F29952891AC2
S315202176101BD042F2DE12891A1AD042F26622891A28
S3152021762013D042F2ED12891A12D04FF47062891AC0
S3152021763018D01FE0A06840F4407004E0A168000241
S3152021764000F440700843A06014E06068A16803E05C
S315202176506068A16840F4402040F48060606041F475
S315202176607F4106E06068A16840F48060606041F453
S315202176707E41A1602BB1102219462846F6F74CFEF1
S3152021768000E000250023A561E36131BDF0B5034665
S315202176904FF070420021BFF34F8FDFF8B464DFF83B
S315202176A0B444306843F6E075C7031AD53167BFF372
S315202176B04F8FF76EC7F34E3CC7F3C90E05EA4C1020
S315202176C040EA8E70E0605FEA0E00AEF1010EF5D140
S315202176D05FEA0C00ACF1010CEED1BFF34F8FBFF363
S315202176E06F8FBFF36F8FDFF8707401203B60DFF857
S315202176F06C3438611868000703D41046421E0028CE
S31520217700F8D1386A000602D0FF21B9620421082067
S31520217710986012B9042918BF0321BFF34F8F30680F
S31520217720C20319D500233367BFF34F8FF26EC2F3FD
S315202177304E33C2F3C90605EA431040EA867020601B
S315202177403046461E0028F6D11846431E0028F0D181
S31520217750BFF34F8FBFF36F8FBFF36F8F0846F0BDF7
S31520217760F8B590B00C4658B1012C09DC002A18BF77
S31520217770002B05D0169919B1179F17F00F0F01D09D
S31520217780012015E02402002504F4807440F22326EA
S3152021779000953443019410240294039313460491B3
S315202177A008AA05976946FFF71DFF6846FFF76EFF72
S315202177B011B0F0BDF8B590B048B1012907DC002AF7
S315202177C018BF002B03D0169E16F00F0F01D00120D3
S315202177D014E0090201F4807140F223250392294302
S315202177E00027019108AA049300230097694602974E
S315202177F00596FFF7F7FE6846FFF748FF12B0E0BD72
S315202178002DE9F04305000E4685B09146984618BFCE
S31520217810002E05D0B9F1000F18BFB8F1000F01D104
S31520217820012020E00C9C0DE019F8011B135C401C63
S31520217830594008F8011BB842F6D310213046E41BE3
S3152021784000F054F874B11027102C01AB324698BFA2
S3152021785027461020012100902846FFF7ABFF002064
S3152021786001AAE8E7002005B0BDE8F083F8B5054672
S315202178700E4614460027FCF7C9FA04E0721ED21BD5
S31520217880AC54240A7F1C002CF8D1F1BDF8B504464E
S3152021789006981546C5F10F06079F002814BF4022DA
S315202178A000229B1E5B0842EAC302701E0243601C13
S315202178B022702A46F6F730FD631C3A46F1B2581952
S315202178C0BDE8F840D2E770B50D460446164610218C
S315202178D0FCF79CFA2278C6F10E0029460243601C49
S315202178E022703246BDE87040F6F716BD491E05D0F6
S315202178F0425C521C4254D2B2002AF7D070472DE95D
S31520217900F04F894604460121002C8FB00CD0180057
S3152021791006931CBF1B9E002E06D0DDF87080B8F181
S31520217920000F1CBF1D98002800F0D2801E9B1B1F14
S315202179300D2B06D21E98C30700F1CA80189DED1F74
S31520217940072D80F0C58006999246189A1A9D0346DE
S31520217950CDF804A0009502A8FFF798FF102207ABC7
S31520217960009202AA01212046FFF724FF002D58D09C
S31520217970002102A800220023B5F57F4F8C4680E8FE
S315202179800E10DDF864B00CD22A460221FFF76EFFD5
S315202179900E270E2D59460DF10A0098BF2F463A463D
S315202179A010E0FF21FE228DF8081004218DF80920F0
S315202179B02A460DF10A000A27FFF758FF0A225946BF
S315202179C00DF10E00F6F7A8FCBB44102007A9EF1BEA
S315202179D0019007AB009102AA0121204625463C466B
S315202179E01AE01027102C594602A898BF27463A4656
S315202179F0F6F792FC102F05D202A8C7F11001C01963
S31520217A00FCF704FA102107AA019107AB009202AADA
S31520217A1001212846BB44E41BFFF7A2FE002CE0D11E
S31520217A202C46189A06990BA8C3462546D2B2FFF7AB
S31520217A304AFF10210BA8FFF759FF30464E465FEA31
S31520217A400A0480462FE01027102C02A898BF27462B
S31520217A50012E00EB0709C7F1100A0BD13A46414600
S31520217A60F6F75AFC102F03D251464846FCF7CEF999
S31520217A7000F032F800975B4642460BA92846FFF7CD
S31520217A80BFFE30000CD13A46594602A8F6F744FCEF
S31520217A90102F03D251464846FCF7B8F900F01CF8BE
S31520217AA0B844BB44E41BCED1189A06990BA8D2B26E
S31520217AB0FFF709FF102002AB009007AA0BA9284641
S31520217AC0FFF79EFE1E9A1D9802A9F6F725FC002196
S31520217AD008460FB0BDE8F08F102007A9019007AB0B
S31520217AE0009102AA012128463AE6F0B587B00093F3
S31520217AF013460C9C0D9D0E9E0F9FDDF840C00A4615
S31520217B00DDF844E0CDF814C0CDF818E00121049722
S31520217B10039602950194FFF7F2FE07B0F0BD0021EE
S31520217B2000220023002480E81E0070474FF00040E9
S31520217B300B490860D6E4000000C02F4068C00F40E2
S31520217B400000DCFE0CC00A4060C02F400300DCFE92
S31520217B5014ED00E060EF00E0C0C12F4010C02F409F
S31520217B6004C02F40D3BBD9B1B2F5803F5BD2022AC4
S31520217B701ED98C46B1FBF2F102FB11C31B0443EA49
S31520217B801043B3FBF2FC02FB1C3380B240EA0343D1
S31520217B90B3FBF2F002FB103240EA0C40002370477F
S31520217BA0022A05D98446B0FBF2F002FB10C27047A7
S31520217BB04AB105D100F0010249085FEA3000704739
S31520217BC000220023704701F0F5BB0B0002000021A3
S31520217BD000207047F7D3002200237047904271EB93
S31520217BE0030CF2D370B5B1FA81F4B3FA83F52C1BC9
S31520217BF0A340C4F1200532FA05F63343A2405FF0B3
S31520217C000046E64002E05B085FEA3202841A71EB05
S31520217C10030524BF204629467641F4D302000B00D2
S31520217C203000002170BD70B5B1FA81F4B2FA82F527
S31520217C30C4F120046419B4F12006DAD3B2405FF0EE
S31520217C400044F440002502E052085FEA3303C61AB5
S31520217C5071EB020E24BF3046714664416D41F3D348
S31520217C6002000B002000290070BD000010B5DFF8AE
S31520217C70BC07DFF8BC170A68D30709D40468610753
S31520217C80F7D5026842F00402026045F20A2010BDAF
S31520217C90002010BD0146042901DC020002D145F253
S31520217CA00C207047DFF88C2700F007001060506801
S31520217CB0032920F00E00506003DC506840F00800B4
S31520217CC05060022908DC506840F00400506003DA35
S31520217CD0506840F00200506000207047DFF85407BA
S31520217CE0006810F0070001D0052800DB042070472A
S31520217CF0082808BF012002D0102801D10220C9E777
S31520217D0045F20E207047DFF824070168CA07FCD503
S31520217D10036843F00103036001688A0706D50368D7
S31520217D2043F00203036045F2092070470020704783
S31520217D30F8B505460C4616461F46FFF7CFFFB84233
S31520217D4003D03846FFF7A6FF70B9DFF8E016DFF833
S31520217D50E8060A68041942F001020A604E664D655A
S31520217D600C66BDE8F140CEE7F2BD2DE9F04107468C
S31520217D700E4614469846FFF7B1FF404503D04046AC
S31520217D80FFF788FFB8B9DFF8A456DFF8AC062968D3
S31520217D90861941F0010129606F652E66FFF7B3FF31
S31520217DA048B9686F002103E004F8010B000A491C39
S31520217DB04145F9D30020BDE8F0812DE9F04100F0BD
S31520217DC059F81ED10A220021002000F06CF88046A5
S31520217DD009E0B06904233A464146FFF7C6FF04006D
S31520217DE00BD12D1F3F1D042DF3D235B1B069EBB236
S31520217DF03A464146FFF7B9FF044696F82100FFF798
S31520217E0077FF2EE02DE9F04100F034F829D10B221D
S31520217E100021002000F047F880460EE000220020B5
S31520217E2000F022F80428FBD3B06904234146FFF74A
S31520217E307FFF040011D12D1F3F1D042DEED265B1E8
S31520217E400022002001E000F00FF8A842FBD3B06900
S31520217E50EBB24146FFF76CFF044696F82100FFF767
S31520217E6047FF2046BDE8F081395CC300401C99407C
S31520217E700A43704706460024337A0F461546012BBE
S31520217E8070470B46014680B5184600E080B5F6F7C7
S31520217E9043FABDE80140E9E6DFF894050068400889
S31520217EA000F0010070470907090E41EA002102F07E
S31520217EB00F0242EA0100704710B500F1180210683E
S31520217EC0537B4118012B0AD1D27A4FF0FF3321FA65
S31520217ED002F4501C03FA02F28440914321430846BE
S31520217EE010BDF8B50C46DFF8446531681D4641F0D2
S31520217EF00101316004F00F0106290CD1012700214F
S31520217F00706501B17266DFF8300504193466FFF712
S31520217F10FAFE88B1F2BD0A29F0D0002914BF012921
S31520217F20012707D00829E9D0002707291CBF0B29BB
S31520217F300929E4D10121E3E70FB1706F28600020E0
S31520217F40F2BD02461032937C0020082B08BF08463A
S31520217F5002D0102B08BF4800116808187047DFF897
S31520217F60DC24904202D20022400B0BE045F20B206A
S31520217F70704720B1412802D20022400802E045F272
S31520217F801020704701E04008521C0028FBD10A70BE
S31520217F90704700007CB50446DFF8A454686A0DF1C9
S31520217FA0010100F47C6068626A6A23691B0B42EA3C
S31520217FB003326A626069FFF7D2FF002827D1686AF7
S31520217FC09DF8011004F1210600F0CCF96862686A57
S31520217FD040F001006862696845F20F20890C890406
S31520217FE069603278F179192A12DB00290FD0192AF2
S31520217FF001DD01290BD01A2A01DD022907D01B2AEE
S3152021800001DD032903D01C2A02DD45F20D2076BD90
S315202180100529FCD8DFE801F08F93989C03A0686896
S3152021802040F002006860296821F040012960286813
S31520218030327A920102F0400210432860296EDFF83D
S315202180400404014029662A6E94F82010707A0902C8
S3152021805001F44071800200F4806001430A432A66BC
S31520218060F0786946FFF785FF0028D0D1286E9DF844
S315202180700010090101F0700108432866707808284C
S315202180806ED1286E2866B078811E0B296FD2C0F159
S315202180900C002A6E0006000B00F47040104328665F
S315202180A0B17FF07F327F090601F0706141EA0071CC
S315202180B0707F000500F4700012040143F07E02F463
S315202180C070221143B27E000300F470400143307EBA
S315202180D0120202F470621143F27D000100F0F000D9
S315202180E0014304F1410002F00F0211436966717EBA
S315202180F042790379090601F07061120502F47002B2
S31520218100114342781B0403F4702319430378120385
S3152021811002F470421143C27880781B0203F4706303
S315202181201943120102F0F002114300F00F0001431E
S315202181300020A96676BD686840F0280072E7696844
S3152021814041F4A07169606EE7686840F4206069E7B0
S31520218150696841F4A041F5E7686840F4003061E799
S31520218160102803D1286E40F001008BE7FFE045F26D
S31520218170112076BD7CB50646B14C206A694600F4AD
S315202181807C602062226A33691B0B42EA0332226217
S315202181907069FFF7E4FE002840F0E380206A9DF80D
S315202181A0001000F0DFF82062206A40F001002062F2
S315202181B0216B01F47C612163206BB169090B40EAB3
S315202181C0013069462063F069FFF7C9FE002862D194
S315202181D0206B9DF8001006F1210500F0C3F82063DD
S315202181E0206B40F0010020636168890C890461605D
S315202181F0E87B04284DD8DFE800F03B4044480300C3
S31520218200616841F0010161606068606021688E4883
S3152021821021F08001216022682B7CDB0103F0800381
S315202182201A432260216D01402165226D96F8201086
S31520218230C90101F080010A430DF101012265E87887
S31520218240FFF797FE002826D1206D9DF80110090100
S3152021825001F0700108432065287808281CD1206D5B
S3152021826020652979A87801291DD1401CC0B21AE0A0
S31520218270606840F020006060C6E7616841F4807143
S31520218280C1E7606840F40060F5E7616841F4804108
S31520218290B9E745F20F2076BD102803D1206D40F095
S315202182A00100DDE763E0A0F10901082957D2C0F1D9
S315202182B01000226D0006000C00F4E06010432065BA
S315202182C006F14100C27A41780379120602F07062E2
S315202182D042EA01724179090501F470011B040A431E
S315202182E0C17803F470231A438378090301F470417A
S315202182F00A4301781B0203F470631A43EB7F0901B9
S3152021830001F0F0010A4303F00F031A436265817AD3
S31520218310427A037A090601F07C51920402F47C0206
S315202183201143C27980791B0303F47C3319439201CB
S3152021833002F47C62114300F03F000143A165687875
S315202183408108890001F004014208520002F002024C
S31520218350114300F001000843E065002076BD45F277
S31520218360112076BD490001F03E010843704745F2B0
S315202183700E2076BD70B5044634492068884201D046
S31520218380042070BDF1F7E5FB2046F6F735FB207B6F
S31520218390072821DAF1F79AFBF1F7D5FB284D286832
S315202183A020F002002860296841F0010129602A680D
S315202183B0D007FCD4BFF34F8FBFF36F8F296841F0CD
S315202183C002012960207A04F1210140B94E78204604
S315202183D0FFF7E0FD68B170BD45F2122070BD01287E
S315202183E004D10E782046FFF7C5FEF3E745F2082093
S315202183F070BD1748A8603046FFF77AFCA8B92968CE
S31520218400637B1448A27B0140E07B41EA02411B06A3
S3152021841003F0F853800000F004001943014329603A
S315202184202968002021F00201296070BD3C002F40DF
S31520218430C0002F4094002F4000005AA50100008043
S3152021844000002F408E08FFFF0EF8FFFF53454D43B6
S3152021845085404000FBFF00E000210180704770B578
S31520218460048800250EE04B5D84EA03240823660058
S31520218470240444BF86F4805686F021065B1E3446AA
S31520218480F5D16D1C9542EED3048070BD00880880FD
S31520218490704744F64E710180704770B504880025D7
S315202184A00EE04B5D84EA032408236600240444BF9E
S315202184B086F4004686F005065B1E3446F5D16D1CF2
S315202184C09542EED3048070BDF8B504460E46154676
S315202184D0032168460027F2F71DF8DFF834E1234609
S315202184E0324600212AE012F8010B1EF8000000F086
S315202184F03F067140400620D57C40FE438DF8014041
S315202185009DF800407440B3F5007F8DF8004014D1CA
S315202185109DF802403E0A04F0FD0084EA4604F64313
S3152021852004F0020404438DF8024004F0FE00744056
S3152021853004F0010404438DF802407F1C9F429DF8DC
S315202185400140D0D3B3F5807F05D19DF8020040F0BC
S3152021855003008DF802009DF8002063089DF8020093
S31520218560520840EA81009DF800108DF8020001F0A2
S31520218570FD0141EA440101F0FB0141EA82019DF816
S31520218580002001F0F70141EAC301A30801F0EF0120
S31520218590920841EA02119DF8002001F0DF0141EA0B
S315202185A04311E30801F0BF01D20841EA82112209D1
S315202185B001F07F0141EAC31129709DF800109DF831
S315202185C00030C1F3001141EA4201620901F0FB01A9
S315202185D05B0941EA83019DF8003001F0F70141EA68
S315202185E0C201A20901F0EF0104F080049B0941EAAE
S315202185F003119DF80030A87001F0DF0141EA4211F4
S31520218600DB0901F0BF0141EA83110C436C70F1BDF6
S31520218610989020200346002010B50A46511E4AB1C3
S3152021862013F8012B14001EBF02F001042018520852
S31520218630F8D1F2E710BD2DE9FC41174601AB002602
S3152021864080460D461E6001AAFFF73EFF002001A9A4
S315202186500A5C3B5C5A400DF80020401C0328F7D3C6
S3152021866003216846FFF7D6FFB8F5807F08BF0B2484
S3152021867003D0B8F5007F08BF0C2410B945F2343059
S3152021868045E0A0423DD19DF802109DF800600846A4
S315202186900209C1F3C00102F002024309114303F08A
S315202186A004031943B708F4089DF80130C6F34002A4
S315202186B007F002073A4304F004043609224306F060
S315202186C008063243DE0006F010069F00324307F0EB
S315202186D020075C003A4304F04004224303F0800340
S315202186E01A43B8F5007F03D1C00100F480700243FC
S315202186F0A85C012303FA01F1414045F23530A95402
S3152021870005E001280CBF45F2373045F23630BDE869
S31520218710F6810000D2B2203A22BF00FA02F10020CF
S3152021872070475242D041D2F1200291404140D0405F
S31520218730904041407047000021B1D0F8C01041F44B
S3152021874080710FE0D0F8C02022F480720DE021B193
S31520218750D0F8C01041F0020104E0D0F8C02022F068
S31520218760020202E0C0F8C0107047C0F8C02070474E
S3152021877082B00022019209E000BF009B5B1C00937E
S3152021878000999142F8D3019B5B1C01930199814267
S3152021879004D20022009242F21072F1E702B0704711
S315202187A02DE9F84E0FF2A82689468BB00746D6E941
S315202187B000AB14461D46CDE900AB00F0DAF80720C0
S315202187C002902DB12404012003948DF8110003E099
S315202187D0002203928DF8112002A9002201916946D7
S315202187E000923846C847002802BF05989649084274
S315202187F00CB014BF40F209700020BDE8F08E0000B5
S315202188002DE9F84D94A588468BB00646D5E900ABCF
S3152021881000F023F83727F1F77DFE012202978DF804
S315202188201120240402AB0022039469460193304689
S315202188300092C047002803BF05988349084240F289
S31520218840097004D1800654BF40F20C7000200CB070
S31520218850BDE8F08D0546D6E900AB144602A8CDE940
S3152021886000AB2421704700002DE9F0437CA60D465C
S315202188708BB000F079F8002702AE0297694601965F
S315202188802046009724E000002DE9F84D76A688465B
S315202188908BB0FFF7DFFF1027F1F73CFE00F00CF835
S315202188A0002802BF0598684908420CB014BF40F23F
S315202188B009700020BDE8F08D029702AA03940124B5
S315202188C000238DF81140019269460093284640479E
S315202188D0A84708B140F209700BB0BDE8F08300002B
S315202188E02DE9F84762A78A468BB00446D7E9008945
S315202188F000F03DF800F02BF810B140F209701AE093
S3152021890000F01CF814D101212046FFF720FF41F267
S315202189108830F0F779FE00F017F84FF47A70F0F7E7
S3152021892073FE002100F011F8606A10F0706F01D1FA
S31520218930284600E000200CB0BDE8F087606A40F2AE
S315202189402A7510F0706F704701212046F4E60B2618
S3152021895000270296012202AB03978DF81120694642
S3152021896001932046009750470446D6E90089CDE950
S31520218970008902A82421F1F7CDBD00002DE9F04D73
S31520218980044600BF3CA0B0B0154688462F4FD0E9FB
S3152021899000AB1E4607A8CDE900AB39462422F5F7C0
S315202189A0BBFC02A81421F1F7B5FD10A807F124017B
S315202189B080220127F5F7B0FC0795002007AB02AAF4
S315202189C0089010A805900A210193012300920222E2
S315202189D08DF825702046039604978DF80B7000F0AC
S315202189E02DFC0AE0012302220A21204600F026FC42
S315202189F00A212046002700F017FC69462046C04759
S31520218A00A0B90120FFF7B4FEE06B4102F5D4A26E96
S31520218A1012F0802F18BF002FE4D16420FFF7A8FE83
S31520218A20E06B010205D440F2297009E040F2097079
S31520218A3006E0206C20F470602064216C21640020E3
S31520218A4030B0BDE8F08D00000800F9FFF08E20201F
S31520218A5000000000000000000000000000000000CF
S31520218A6000000000000000000000000000000000BF
S31520218A7000000000000000000000000000000000AF
S31520218A800146002010B50FF65802C3B252F8233002
S31520218A908B4203D0401CC4B2032CF6D3C0B210BDE6
S31520218AA070B50D460446616BDFF8F007014061631E
S31520218AB0A26B1040A0632046FFF7E2FF0FF62C01A0
S31520218AC06FF07F0331F9100098420FD001000DD4A9
S31520218AD0012600F01F0006FA00F0DFF8C427490915
S31520218AE042F82100BFF34F8FBFF36F8F616BDFF801
S31520218AF0B4070143616315B1A26B1043A06370BD16
S31520218B0030B52AB19368B3F5803F01D3042030BD17
S31520218B104B7A5B1E082B17D8DFE803F005090D12C7
S31520218B201205090505000C6A44F4D01406E00B6AE7
S31520218B3043F4D81307E00C6A44F410240C6203E0B2
S31520218B400B6A43F400330B620C7A032C03D10B6A94
S31520218B5043F440030B62002A40D00C6A44F40014EB
S31520218B600C62D36813B144F010040C629368022B73
S31520218B700ED30C6A44F022040C62137813B144F00C
S31520218B8004040C6253781BB10C6A44F080040C62F5
S31520218B904368546803F460439568C4F30C04234363
S31520218BA043EA0543436091F820100B060CD5846CCB
S31520218BB044F080048464D0F8C81041F48051C0F870
S31520218BC0C8109268026009E0816C21F080018164DD
S31520218BD0D0F8C82022F48052C0F8C820002030BD09
S31520218BE010B54A7AD2B103694A7ACB60032A15D1C4
S31520218BF043690B6182694A61C0698861042201EB5C
S31520218C00820083681B02022A836003D3446843EAD5
S31520218C10146383601046421E0028F0D1C86970B1C2
S31520218C204A7A012A18BF022A03D0082A18BF062AFF
S31520218C3005D1C968084202D041F6661010BD002030
S31520218C4010BD70B5446C4B6813F0030F04F0FF047C
S31520218C5000F060F805E0056ACE685B1C46F82250D4
S31520218C60521CA342F7D3104670BD2DE9F0410D4683
S31520218C70044669680022904611F0030002D0091D9E
S31520218C80091A6960AF6868684FF0B876474314E0DF
S31520218C904FF0806141F66A18216322E04801F7D41A
S31520218CA011F0B87F02D0A878C0B126632946204684
S31520218CB0FFF7C7FF024620202063B2EB970F10D281
S31520218CC0216BDFF8E4351942FAD0216BE8780028A8
S31520218CD0E4D08B06E2D544F2200003E04FF00108D0
S31520218CE02663022020634046BDE8F08130B5436CDF
S31520218CF0C3F307444B6813F0030F00F00BF805E08C
S31520218D000D695B1C55F82250521C0562A342F7D3EC
S31520218D10104630BD04D01D1D03F00303EB1A4B6012
S31520218D208D684B685D43AD08AC4202D2AD1AAC4288
S31520218D3000D92C46002370472DE9F04104460E46E2
S31520218D4070680022002510F0030F04D0011D00F0C9
S31520218D500300081A7060B76870684FF0B8784743E7
S31520218D600DE010F0B87F03D0B078C8B1C4F83080B8
S31520218D7031462046FFF7BAFF024610202063B2EB88
S31520218D80970F10D2216BDFF824351942FAD0206BA8
S31520218D904101E6D54FF08060206341F66A1010E04C
S31520218DA00125C4F83080206BDFF804150842FAD05B
S31520218DB0226B12F0B87F02D0B07800B90125216349
S31520218DC02846BDE8F08130B5836CC2680D680C6AEF
S31520218DD023F036032D0605F07C5504F47B0204F09E
