S0130000666C6173686C6F616465722E737265638C
S31520208400F0D42120550B21207B88202029EE2020E6
S315202084107B8820207B8820207B8820203C8F202042
S315202084200000000000000000000000007B882020C3
S315202084307B882020000000007B8820207B8820202D
S315202084400F1E21200F1E21200F1E21200F1E21202E
S315202084500F1E21200F1E21200F1E21200F1E21201E
S315202084600F1E21200F1E21200F1E21200F1E21200E
S315202084700F1E21200F1E21200F1E21200F1E2120FE
S315202084800F1E21200F1E21200F1E21200F1E2120EE
S31520208490090521207D0B2120850B21208D0B2120D4
S315202084A0950B21209D0B2120A50B2120AD0B2120D2
S315202084B0B50B2120BD0B2120C50B2120CD0B212042
S315202084C0D50B2120DD0B2120E50B2120ED0B2120B2
S315202084D0F50B2120FD0B21200F1E21200F1E2120F0
S315202084E00F1E21200F1E21200F1E21200F1E21208E
S315202084F00F1E21200F1E21200F1E21200F1E21207E
S315202085000F1E21200F1E21200F1E21200F1E21206D
S315202085100F1E21200F1E21200F1E21200F1E21205D
S315202085200F1E21200F1E21200F1E21200F1E21204D
S31520208530050C21200F1E21200F1E21200F1E212059
S315202085400F1E21200F1E21200F1E21200F1E21202D
S315202085500F1E21200F1E21200F1E21200F1E21201D
S315202085600F1E21200F1E21200F1E21200F1E21200D
S315202085700F1E21200F1E21200F1E21200F1E2120FD
S31520208580A99220200F1E21200F1E21200F1E2120E0
S315202085900F1E21200F1E21200F1E21200F1E2120DD
S315202085A00F1E21200F1E21200D0C2120150C2120ED
S315202085B00F1E21200F1E21200F1E21200F1E2120BD
S315202085C00F1E21200F1E21200F1E21200F1E2120AD
S315202085D00F1E21200F1E21200F1E21200F1E21209D
S315202085E00F1E21200F1E21200F1E21200F1E21208D
S315202085F01D0C21200F1E2120250C21202D0C212071
S315202086000F1E2120511D2120350C21203D0C2120FB
S315202086100F1E21200F1E21200F1E21200F1E21205C
S315202086200F1E21200F1E21200F1E21200F1E21204C
S315202086300F1E21200F1E21200F1E21200F1E21203C
S315202086400F1E21200F1E21200F1E21200F1E21202C
S315202086500F1E21200F1E21200F1E21200F1E21201C
S315202086600F1E21200F1E21200F1E21200F1E21200C
S315202086700F1E21200F1E21200F1E21200F1E2120FC
S315202086800F1E21200F1E21200F1E21200F1E2120EC
S315202086900F1E21200F1E21200F1E21200F1E2120DC
S315202086A00F1E21200F1E21200F1E21200F1E2120CC
S315202086B00F1E21200F1E21200F1E21200F1E2120BC
S315202086C00F1E21200F1E21200F1E21200F1E2120AC
S315202086D00F1E21200F1E21200F1E21200F1E21209C
S315202086E00F1E21200F1E21200F1E21200F1E21208C
S315202086F00F1E21200F1E21200F1E21200F1E21207C
S315202087000F1E21200F1E21200F1E21200F1E21206B
S315202087100F1E21200F1E21200F1E21200F1E21205B
S315202087200F1E21200F1E21200F1E21200F1E21204B
S315202087300F1E21200F1E21200F1E21200F1E21203B
S315202087400F1E21200F1E21200F1E21200F1E21202B
S315202087500F1E21200F1E21200F1E21200F1E21201B
S315202087600F1E21200F1E21200F1E21200F1E21200B
S315202087700F1E21200F1E21200F1E21200F1E2120FB
S315202087800F1E21200F1E21200F1E21200F1E2120EB
S315202087900F1E21200F1E21200F1E21200F1E2120DB
S315202087A00F1E21200F1E21200F1E21200F1E2120CB
S315202087B00F1E21200F1E21200F1E21200F1E2120BB
S315202087C00F1E21200F1E21200F1E21200F1E2120AB
S315202087D00F1E21200F1E21200F1E21200F1E21209B
S315202087E00F1E21200F1E21200F1E21200F1E21208B
S315202087F00F1E21200F1E21200F1E2120FFFFFFFFED
S31520208800002A01D101207047F0B41F4603460324D5
S315202088102340002B09D00424E31A017001300824B8
S31520208820E141521E26D05B1EF7D1042A1ADB13D033
S31520208830002F11D00C460D460E46102A02DB72C0A0
S31520208840103AFAE70C2A02DB32C00C3AFAE7082A59
S3152020885002DB12C0083AFAE7042A03DB016004305F
S31520208860121FF9E7002A05D0017001300824E141C2
S31520208870521EF7D1F0BC00207047FEE7DD9920205C
S3152020888000000000F3992020000000002D9B2020CE
S31520208890C79C2020B59A2020CD9B2020A59D202036
S315202088A00000000000000000000000002B9A20207D
S315202088B000000000039A2020CD9B2020C59D20204B
S315202088C000000000239E20200000000093992020F5
S315202088D0000000005B9A202000000000000000001D
S315202088E000000000479E202000000000699E2020D6
S315202088F0000000000000000000000000719A2020E7
S31520208900000000000000000000000000D39A202074
S31520208910B79B20200000000000000000000000007F
S31520208920000000000100000001000000939220209A
S31520208930408F2020508F2020A48F20201000000040
S315202089400100000000000000F48F2020000000001D
S3152020895004902020000000000000000000000000FD
S3152020896000000000000000000000000000000000C1
S31520208970B71DC1046E3B8209D926430DDC7604132C
S315202089806B6BC517B24D861A0550471EB8ED0826C3
S315202089900FF0C922D6D68A2F61CB4B2B649B0C3560
S315202089A0D386CD310AA08E3CBDBD4F3870DB114C0D
S315202089B0C7C6D0481EE09345A9FD5241ACAD155FF0
S315202089C01BB0D45BC2969756758B5652C836196AF9
S315202089D07F2BD86EA60D9B6311105A6714401D79E4
S315202089E0A35DDC7D7A7B9F70CD665E74E0B623988E
S315202089F057ABE29C8E8DA191399060953CC0278BF8
S31520208A008BDDE68F52FBA582E5E66486585B2BBE7E
S31520208A10EF46EABA3660A9B7817D68B3842D2FAD9B
S31520208A203330EEA9EA16ADA45D0B6CA0906D32D43E
S31520208A302770F3D0FE56B0DD494B71D94C1B36C773
S31520208A40FB06F7C32220B4CE953D75CA28803AF27C
S31520208A509F9DFBF646BBB8FBF1A679FFF4F63EE1D7
S31520208A6043EBFFE59ACDBCE82DD07DEC777086349C
S31520208A70C06D4730194B043DAE56C539AB0682270B
S31520208A801C1B4323C53D002E7220C12ACF9D8E124A
S31520208A9078804F16A1A60C1B16BBCD1F13EB8A017F
S31520208AA0A4F64B057DD00808CACDC90C07AB97780C
S31520208AB0B0B6567C69901571DE8DD475DBDD936B4F
S31520208AC06CC0526FB5E6116202FBD066BF469F5E30
S31520208AD0085B5E5AD17D1D576660DC5363309B4D03
S31520208AE0D42D5A490D0B1944BA16D84097C6A5AC91
S31520208AF020DB64A8F9FD27A54EE0E6A14BB0A1BF57
S31520208B00FCAD60BB258B23B69296E2B22F2BAD8A85
S31520208B1098366C8E41102F83F60DEE87F35DA9993A
S31520208B204440689D9D662B902A7BEA94E71DB4E0FD
S31520208B30500075E4892636E93E3BF7ED3B6BB0F3D2
S31520208B408C7671F7555032FAE24DF3FE5FF0BCC6B3
S31520208B50E8ED7DC231CB3ECF86D6FFCB8386B8D5F6
S31520208B60349B79D1EDBD3ADC5AA0FBD8EEE00C69D6
S31520208B7059FDCD6D80DB8E6037C64F643296087ADC
S31520208B80858BC97E5CAD8A73EBB04B77560D044F2F
S31520208B90E110C54B383686468F2B47428A7B005CB0
S31520208BA03D66C158E4408255535D43519E3B1D2569
S31520208BB02926DC21F0009F2C471D5E28424D1936A0
S31520208BC0F550D8322C769B3F9B6B5A3B26D61503E5
S31520208BD091CBD40748ED970AFFF0560EFAA0111034
S31520208BE04DBDD014949B93192386521D0E562FF1DA
S31520208BF0B94BEEF5606DADF8D7706CFCD2202BE228
S31520208C00653DEAE6BC1BA9EB0B0668EFB6BB27D76A
S31520208C1001A6E6D3D880A5DE6F9D64DA6ACD23C46B
S31520208C20DDD0E2C004F6A1CDB3EB60C97E8D3EBD7A
S31520208C30C990FFB910B6BCB4A7AB7DB0A2FB3AAEA3
S31520208C4015E6FBAACCC0B8A77BDD79A3C660369BE8
S31520208C50717DF79FA85BB4921F4675961A163288A7
S31520208C60AD0BF38C742DB081C330718599908A5DBC
S31520208C702E8D4B59F7AB085440B6C95045E68E4E3B
S31520208C80F2FB4F4A2BDD0C479CC0CD43217D827BB6
S31520208C909660437F4F460072F85BC176FD0B86684F
S31520208CA04A16476C93300461242DC565E94B9B11E8
S31520208CB05E565A1587701918306DD81C353D9F027F
S31520208CC082205E065B061D0BEC1BDC0F51A693371C
S31520208CD0E6BB52333F9D113E8880D03A8DD09724D3
S31520208CE03ACD5620E3EB152D54F6D4297926A9C55D
S31520208CF0CE3B68C1171D2BCCA000EAC8A550ADD607
S31520208D00124D6CD2CB6B2FDF7C76EEDBC1CBA1E371
S31520208D1076D660E7AFF023EA18EDE2EE1DBDA5F08A
S31520208D20AAA064F4738627F9C49BE6FD09FDB889B9
S31520208D30BEE0798D67C63A80D0DBFB84D58BBC9A82
S31520208D4062967D9EBBB03E930CADFF97B110B0AF1F
S31520208D50060D71ABDF2B32A66836F3A26D66B4BC46
S31520208D60DA7B75B8035D36B5B440F7B1090000004B
S31520208D7043A6202000000000000000005A04180806
S31520208D800830FF2400000000000000005A051809C2
S31520208D900831FF2500000000000000005A06180AAE
S31520208DA00832FF260000000000000000000000001E
S31520208DB00000000000000000000000009F040324A3
S31520208DC00000000000000000000000009F07600750
S31520208DD0200B042700000000000000009F876087EA
S31520208DE0208B04A700000000000000005A04180869
S31520208DF00830FF2400000000000000005A06180A50
S31520208E00FF26000000000000000000005A07180B73
S31520208E10FF27000000000000000000005A06188AE4
S31520208E20FFA6000000000000000000005A07208B4B
S31520208E30FFA70000000000000000000021A0202045
S31520208E4009A320202DA32020AFA3202047A4202023
S31520208E5051A52020000000000000000000401840FE
S31520208E600080184000C018400000194000401940DA
S31520208E700080194000C0194000001A404000000020
S31520208E80400000008000000080000000400000001C
S31520208E90400000008000000000000000800000004C
S31520208EA0800000002000000060000000400000003C
S31520208EB08000000040000000C000000000000000EC
S31520208EC0400000004000000020000000A00000001C
S31520208ED04000000000000000C0000000000100004B
S31520208EE040000000C00000002000000040000000DC
S31520208EF0A00000002000000080000000600000008C
S31520208F0020000000A000000040000000000000001B
S31520208F1080000000800000002000000020000000CB
S31520208F20C000000000000000C0000000400000003B
S31520208F3000000000000000000001000000000000EA
S31520208F402D042120AB042120C5042120000000006F
S31520208F5000000000F704212045AE202095AB2020DC
S31520208F60EDAB2020D5AC202011AD202021AD202016
S31520208F706DAC20200BB52020E11D2120ED1D2120C8
S31520208F80FD1D212000000000000000000000000040
S31520208F90350521206505212017062120DD062120E3
S31520208FA07CB12120CD072120D3072120BD082120D7
S31520208FB057092120D107212063092120AD0721200F
S31520208FC069FE2020EDFE202000000000EDFE20205E
S31520208FD00000000085FF2020CDFF2020000000007B
S31520208FE07B002120B9002120130121205701212097
S31520208FF08B012120A9192120B51A21208D1B212062
S31520209000E91B2120F71B21201B1C21209F1C21200E
S31520209010371D2120471D21204B1D21200000000027
S3152020902038B504465B4D0020A865C5E90E00C5E984
S315202090301000C5E91200E865574800F0EDF8C5E9AB
S31520209040140120460FF2B901BDE8344000F03AB9A8
S3152020905000F04EB9F8B50C464E4EB16D072904BF27
S31520209060F26D904249D1002106EB8102491C5368BA
S3152020907015685B1B0329D361F6D3756AF769726974
S315202090803169B369511AB1629A1A64235D43F26237
S31520209090B5FBF7F73C3F0E2F10D2376AB5FBF7F515
S315202090A0403D052D0AD85943B1FBF2F2813A0A2ACE
S315202090B03EBFB1FBF7F181390A2902D3FFF7B0FF72
S315202090C01BE000F081FA0546C5EB0515D6E90E23EF
S315202090D0D6E9100182184FF49666B5FBF2F00A25E0
S315202090E00A2368434FF49662B0FBF6F6761D0020DD
S315202090F0B6FBF3F353432360F2BD0120F2BD0000FB
S315202091002DE9F8430746234E00F07CF8D6E912597C
S3152020911004468846B26DD6E91401521C651B68EBBD
S3152020912009094945B26505D828BFA84202D201229D
S31520209130B26508E0012A06D0042A0AD0052A10D0D2
S31520209140072A11D01AE0C6E90C48C6E90E48F76569
S3152020915014E0D6E90E01201A68EB0101C6E90E01BA
S315202091600CE0C6E9104809E0D6E91001201A68EB80
S315202091700101C6E91001384600F0BAF8B26D06EBB7
S315202091808203D6E90C01271A43F8047CC6E9124843
S31520209190BDE8F183009C21208038010010B52F489E
S315202091A02F4A0168002341F44051016000201060BD
S315202091B02C484FF0FF31012201618361C26184690D
S315202091C044F004048461826942F0010282610160D4
S315202091D00121C160816000F0F7F9C0002249B0FB6F
S315202091E0F1F000B90120214A906010BD1D480021D0
S315202091F081618160016101601948026842F00202A2
S315202092000260704781B01A4801684268009200982F
S3152020921001B0C943C043704714498A68A2FB0001A4
S31520209220C00840EA4170C908704738B50446FFF7A0
S31520209230E9FF00F00BF8241841EBD505FFF7E2FFF4
S31520209240A942FBD301D8A042F8D331BD074A93685F
S31520209250A3FB0445E40844EA457470476CC00F40DC
S31520209260004008400041084040420F00609C2120D9
S31520209270E04008400901020002D428488154704762
S31520209280274B02F00F021A4402F8041C704700F004
S315202092905BBA19B1022905D002D3704700F0F8BA7B
S315202092A000F0AABA00F0C8BA10B51E4C20680006F5
S315202092B006D51D49496819B101208847802121609A
S315202092C010BD000010B5184B184C596004220721F8
S315202092D02046FFF7DCFF63690121502043F08003FD
S315202092E06361FFF7C7FF4FF480301149086010BD36
S315202092F080B54FF480300F490860BFF34F8FBFF3FE
S315202093006F8F00215020FFF7B5FF00220721074845
S31520209310FFF7BDFF00200449486001BD00E400E0BE
S3152020932018ED00E018801B4074B1212000801B40DE
S3152020933008E100E088E100E0002808BF00F01EB820
S315202093407047AF48AF4A01684FF0004341F0030110
S31520209350016040201060AC4883634FF080418163D8
S3152020936000220260A948036843F4C0130360A8487A
S315202093700168490849000160012070472DE9F04124
S31520209380A448A5490860A5480469A54B0122006880
S31520209390196A640D04F0030402FA04F4C0F3800071
S315202093A041F4803119621A6842F480321A60196AAF
S315202093B021F4805119621A6A002AFCD51D6A994A1D
S315202093C0994945F480351D6216694FF4405526F09B
S315202093D03F360E4316611D601E68002EFCD51D6883
S315202093E0924925F480351D601668914D26F03F362A
S315202093F00E4316608F4E50B16400082C314688BF2C
S315202094000824B1FBF4F10122DFF82CC202E0294620
S31520209410F7E7521CB1FBF2F76745FAD2874F521E67
S31520209420D7F800E04FEA024C8549A4F101080CF454
S31520209430E02C4FEA882801EA0E014CEA010108F4C3
S31520209440E058120248EA010102F440720A433A60C7
S315202094503969C909C90141F00301396120B1796807
S3152020946021F44021796005E07A6822F4402242F4F2
S3152020947000227A607968734A114041F04061796010
S31520209480BA687149114041F0C74141F00101B960E4
S31520209490BA6842F44032BA60396921F4E72141F4AE
S315202094A0843139611A6A22F480321A62196821F4C9
S315202094B08031196000B13546B5FBF4F0634A10605F
S315202094C0BDE8F08190E0002A70B518BF012A3DD171
S315202094D0544C5F4825680368AD09002A23F0607341
S315202094E00CBF0FF2A0120FF2B01279B30A2928BFAF
S315202094F0012112F8116002EB41014A78554906F004
S315202095003F0646EA85150E68521ED20502F0607285
S31520209510134346F002060E60426E22F440624266F3
S31520209520BFF36F8F2668B54218BF25600268934225
S3152020953018BF0360436E43F440634366BFF36F8FC7
S31520209540086820F002000860BFF36F8F70BD2C489A
S31520209550016841F4406103E02948016821F4406113
S315202095600160BFF36F8F704730B5384C0023002041
S315202095702468324D19B102290AD002D319E0234694
S3152020958018E02968C1F30121491CB4FBF1F311E04D
S31520209590A968244B1968AB682F4C01F03F01B4FB16
S315202095A0F1F512214D43C3F3C251491CB5FBF1F30A
S315202095B000E00420136030BD024604201AB911B100
S315202095C026480860002070471C48204A0168806889
S315202095D01368C1F30121491C00F03F00401CB3FB56
S315202095E0F1F1B1FBF0F070471448184900680A6879
S315202095F0C0F30120401CB2FBF0F0704700000000B1
S3152020960080C00F4014800D4000900D40B0810D4049
S3152020961040012E4000366E0118B1212060441F40A3
S3152020962010800D40F0800D401818131823231A0F90
S31520209630007B9A1700A4781F0144950814C00F4078
S31520209640FFE0F8FFCFFFFFE380FF7F9C988021205B
S315202096501CC00F4000802A4000389C1C406BED0720
S3152020966038B504460D4602E00120FFF7DEFD2046F0
S315202096702946441E61F10005002908BF0028F3D1A0
S3152020968031BD000000002208160818061E04120606
S315202096900E060D050D0416020000180616040C06EB
S315202096A01E021203160221010D021601F8B50546E7
S315202096B00E4614465FF000003DA151F82020AA4214
S315202096C002D0401C0628F8D3062812D23EA131F912
S315202096D0100010F1010F0CD000F01F01000A124AD1
S315202096E002EB8002032000FA01F113688B43194311
S315202096F011600127B7406A69F9430A406A612078D8
S3152020970018B96B681940696007E0627831462846A7
S3152020971000F00CF86B681F436F60A278314628460C
S31520209720BDE8F84010E0000068C00F400123002A61
S3152020973010B503FA01F107BF026822EA0101046885
S315202097402143016010BD0000F0B5C369012404FA4D
S3152020975001F5AB431029C36132BF00F10C0300F1A0
S3152020976010031039490003268E40F743521E042A3F
S315202097701DD8DFE802F003070D15190018680740E9
S315202097801F60F0BD1A688C4017403C431C60F0BD1A
S315202097901C68022505FA01F1274039431960F0BDDE
S315202097A0186806431E60F0BDC1690D43C561F0BD32
S315202097B00000000000801B4000C01B4000001C4011
S315202097C00000000000000C40FFFF1A011E001A02B4
S315202097D0FFFF1E0110B5039C01F00701240104F0B0
S315202097E010042143016002B1136010BD009808B116
S315202097F001990160704700003EB500BF36A302AA3A
S315202098001C68072102942F48FFF750FF00212E4C79
S315202098102E4D019100950023002205212046FFF799
S31520209820D9FF49F2B000009501900023002205219E
S315202098302046FFF7DBFF37BD2DE9FC41DFF890807E
S31520209840244D002600950196002300220221404621
S315202098501D4EFFF7BFFF1D4F0022019200230097C8
S315202098600221304647F2B004FFF7B4FF01940023CB
S315202098700095002202214046FFF7B8FF01940023DD
S315202098800097002205213046FFF7B0FFBDE8F3817F
S31520209890E0B500200F4901900023009100220521E8
S315202098A00B48FFF797FF094A0023009200220193D5
S315202098B005210548FFF78EFF064841F2B0010160D9
S315202098C0416007BD00801B40D8801F404C821F402E
S315202098D0D4801F4048821F4000000000DFF88C16ED
S315202098E000200A69D36818607047F8B5DFF87C66CF
S315202098F00024F0698DF800404569002D47D0316954
S31520209900C9680F68012F31D06C6801F10802002345
S31520209910091DA04704001FBF42F21270844242F262
S3152020992013718C4233D13069C268916800292ED0B8
S31520209930546823781D0007D0162B05DA806800EBA3
S31520209940C305A5F1080000E00020002810631CBFF5
S315202099500268002A03D020460024904713E042F2D2
S3152020996010741946204600F095FA10E0086B58B17D
S31520209970416811B16846884704460CB1002003E0AF
S315202099809DF8000000B101203169CA681060204688
S31520209990F2BD0178002000F07DFADFF8D025D069CD
S315202099A041690A699047022000F0EEFABFF34F8FF3
S315202099B0DFF8BC15DFF8BC050A6802F4E062024332
S315202099C00A60BFF34F8F00BFFDE7DFF8A0052421F3
S315202099D00269D36803F10C0000F002BB10B50446DF
S315202099E06068092802D100F0F7FD00E004202178E4
S315202099F06CE0DFF8783570B500F0DEF9AE69B04757
S31520209A00D6E110B500F090F8DFF8600562680169AC
S31520209A10C8680821026180F820102178002000F0F3
S31520209A2039FABDE8104001F019B87CB5DFF83C457D
S31520209A300022E56801920092816840686B46AE68F4
S31520209A4001AAC0B2B04722690021D3681961009AC1
S31520209A500199920800F024FA73BDDFF8102538B555
S31520209A60D36804466068A168DD68C0B2A847E6E1ED
S31520209A7038B5044604206168092904BFA06800F08F
S31520209A80D1FA6168C1F3032101290FD160686946A3
S31520209A9001F0A4F950B9009DDFF8D0241421936851
S31520209AA0A0684D4359190A6913699847217800F00F
S31520209AB0F1F931BD10B500F037F8DFF8B004E268CF
S31520209AC00169042300F041F821780020BDE81040E8
S31520209AD0E0E170B5DFF8945400F026F829691320C8
S31520209AE0DFF89464CA6882F820002969E068CA6889
S31520209AF082F82100E06838B929691022C8680261F5
S31520209B0046612178002054E106F11001304601F00B
S31520209B10B3F92869482106F11002C0680161426123
S31520209B200020BDE87040D6E104464EE710B5FFF789
S31520209B30FBFFDFF83804E2680169032300F005F80B
S31520209B40A1680020BDE81040D3E1C8688261A168E1
S31520209B5001616268426180F82030704738B504463A
S31520209B60DFF8085428690021C0684161016190F816
S31520209B702000042804D129680A69904704B904469C
S31520209B8028684169884704B904462869C16820465F
S31520209B9091F8201000F07EF942F21270844201BF23
S31520209BA02969CA6892F82000082803D1BDE83140E7
S31520209BB000F097BF31BDDFF8B4130A69D36893F854
S31520209BC02110002908BF00F001B87CE02DE9FE43D2
S31520209BD000F0E2F811B900F0DBF871E00121012351
S31520209BE03170D0F818900569D0F8148000206A4684
S31520209BF00090F86901A94469D4F804C0E04704001C
S31520209C000AD0F8694169CA6890472046FFF7A6FF1F
S31520209C1000210020317054E0009830B942F21270B1
S31520209C20FFF79CFF002030704BE0A842396988BF9F
S31520209C3028460090C86890F82010082912D101994A
S31520209C40C160009AC2610099019800F011FF044674
S31520209C5042F27D7084421CBF42F274718C4216D12E
S31520209C60002414E0132907D1009A0199404601F0D7
S31520209C706BF9009880440AE03C68019A00994B468B
S31520209C804046D4F808C0E047009904468844009806
S31520209C902D1A05D12046FFF761FF002131700FE0F4
S31520209CA04CB1F8694169CA6890472046FFF756FFAC
S31520209CB00020307004E03969C9680D61C1F814802C
S31520209CC00020BDE8FE832DE9F84F00F065F811B994
S31520209CD000F05EF859E00121DFF8A0A231708269F8
S31520209CE000920569D0F81480C46890F820B0F869ED
S31520209CF041694A6990478146A94588BFA946ACB1A2
S31520209D004A462146504601F01FF9F869A5EB090479
S31520209D1001234A4651464569D5F808C0E04704B193
S31520209D2070B3FFF71BFF002030702EE0BBF1030F2E
S31520209D3009EB080419D1D7F800C04046009B5246AB
S31520209D404946DCF80480C0475FEA000BA046DCD0F9
S31520209D50F8690123002251464469A568A847584638
S31520209D60FFF7FCFE0020307010E0BBF1130F01D06E
S31520209D70A046CAE74A464146504601F0E5F8F7E7AD
S31520209D803869C0680461C0F814800020BDE8F28FCD
S31520209D90002200203270E1E60646744F3869C068FA
S31520209DA001697047714B70B500F006F8EE68B04730
S31520209DB02178BDE870406DE01D680446E268A16800
S31520209DC0606870472DE9F04105466D4F6E68D5F8DD
S31520209DD00880E8680024386018B101F0EFF800B94F
S31520209DE00424304601F0D3F800B9042429782046EB
S31520209DF000F050F89CB97E60002000F0C5F8C7F826
S31520209E000880386818B180F3088880F30988796833
S31520209E10404688470020BDE8F04100F0B5B8BDE8AF
S31520209E20F08138B50446606801F0B1F808B90420FD
S31520209E3005E06568012000F0A7F8A068A8472178EA
S31520209E40BDE8344026E038B5044601F0A8F9A368D9
S31520209E50616804F10C024B4801F0DAF9054601F05D
S31520209E60A1F921782846EBE73EB500210446CDE925
S31520209E70001101F094F9A36861686A46414801F00F
S31520209E8025FA054601F08EF9A2686946284600F093
S31520209E9042F837BD3EB5002400F031F8A0231EE05D
S31520209EA070B5002588B0A7248DF801508DF8004084
S31520209EB00026551C01908DF8026000208DF8035055
S31520209EC06C4605E004EB800551F82030401CAB6041
S31520209ED09042F7D33BE03EB500F010F8B3238DF83F
S31520209EE000300023029144690C226946A568A847C0
S31520209EF037BD3EB500F002F8A323F0E701240190F8
S31520209F008DF8014002248DF80340184CE069002585
S31520209F108DF80250704770B5002588B08DF8015015
S31520209F20AF24002602258DF800408DF802608DF89A
S31520209F300350019050B99DF80300029200EB920441
S31520209F4003A88DF8034000F0FFFF00E002960748A3
S31520209F509DF80320C0690023694644699200121D9A
S31520209F60A568A84708B070BD0000000010802120F9
S31520209F700CED00E00400FA0544A22120509E212069
S31520209F809CA2212000401F40012870B504461DD0E8
S31520209F900025114E05E07018C168896801B18847EF
S31520209FA06D1C1821694370580028F4D174B901F02A
S31520209FB0F6F8FFF71BF901F001FA0020074908609F
S31520209FC00120FFF7B9F901F076FA62B6BFF36F8F59
S31520209FD0BFF34F8F70BD00BF2489202008ED00E0FD
S31520209FE0002201F0DDBA30B4002513E050F8042B0E
S31520209FF0D30744BFA9F101039A18091F042942F85F
S3152020A000045BFAD213468C0744BF15809B1CC907D4
S3152020A01048BF1D7050F8041B0029E7D130BC70477B
S3152020A020012070472DE9F84FADF5007D054600F05B
S3152020A030AEFF00284FF0040B28D005F2FF1000F0C9
S3152020A040A6FF002822D02868DFF8B07607F5836996
S3152020A050010F0C291BD12A464946002001F09EFFDC
S3152020A0605FEA000B12D100204946387001F0B2FA7F
S3152020A0705FEA000B0AD1002003F070FD694610200C
S3152020A08000F0DFFA002800F0E380834675E0DFF851
S3152020A090701607F58268884235D13878002800F076
S3152020A0A024814846002603F02BF90546002DCA4672
S3152020A0B007F5BB6440F0DA8000F021F900F09AF928
S3152020A0C0002800F0FD80A07A78B100200DF1010350
S3152020A0D0391801F583614A780DF80020097819543A
S3152020A0E0801CB0F5007FF3D3EA46524600F007F9EC
S3152020A0F000F01CF95FEA000B00F0D78000F0FFF893
S3152020A10000F0DFFADEE00246DFF8F805824206D1CB
S3152020A1104FF400722946484600F016FFA3E7100F99
S3152020A1200E282FD1387840B3284603F0FCFD20B3E3
S3152020A130284603F001FE5FEA000B1ED1012078702D
S3152020A14000256A4601A9284603F0FDFE90B9DFF8CE
S3152020A150B8654FF4007106EB8526304600F04AF9A3
S3152020A16040B1019A0099304600F0E0F828B900F075
S3152020A1706AF910B96D1C012DE3D958460DF5017DDC
S3152020A180BDE8F08F0B2860D10420002D1CBF397824
S3152020A190002956D0C2F30361012910D0002950D1BD
S3152020A1A0284603F0B1FF18B1002188F8001048E0B6
S3152020A1B0AA680123C8F8042088F8003041E098F8DE
S3152020A1C0001000293DD02A7812F00F0F39D1002116
S3152020A1D001200491039104A900F033FA88BB03A936
S3152020A1E0102000F02EFA60BB01A9032000F029FAE6
S3152020A1F038BBD8F804B0049D694602A803F0BAFFFC
S3152020A2005D44F0B9009903985944884238BF42F2F8
S3152020A210D87016D30198401E054218BF42F2DE7030
S3152020A2200FD10199284600F0E5F810B942F2DB70EB
S3152020A23007E0029A0099284600F078F808B900F03D
S3152020A24002F95FEA000B98D14FE00020787094E75E
S3152020A250009D6FF02040DFF8B41401224FF0C04358
S3152020A2608A6345190B634D633A703EE04FF40072C2
S3152020A27049466846EA4600F067FED8F8480020F0AE
S3152020A2800400C8F848002168490821606068400811
S3152020A29060602169002049082161494601F09AF928
S3152020A2A000283FF409AF01260EE000F0CCF85FEA43
S3152020A2B0000B08D061684FF0C04000F049F901E05A
S3152020A2C042F2DB7B012675B1CA4505D04FF40072D8
S3152020A2D05146484600F038FE4946002001F07AF9DA
S3152020A2E05FEA000BB3D1002EB1D1787800287FF415
S3152020A2F027AF03F003FD0028A9D00120A6E74FF4BD
S3152020A30000714FF0C040704710B51346DFF8EC437C
S3152020A310227812B942F2DD7010BD0A46DFF8EC43EE
S3152020A320216BBDE81040411A1846DCE12DE9F8439F
S3152020A3300546DFF8C87338780C46914618B942F29C
S3152020A340DD70BDE8F28384B3B87868B9D7F8D8151C
S3152020A350491E0D4202D044F68960F2E701200021F1
S3152020A360B870B9607D6004E0B86879680818A8429A
S3152020A37016D1B868D7F8D88549462218424534BF21
S3152020A3802646A8EB0006384432461030751900F0D0
S3152020A390DBFDB868A41BB14430184045B860D2D143
S3152020A3A000F051F80028CED0CBE70020C9E776B5BB
S3152020A3B00D460646DFF84413087810B942F2DD70C0
S3152020A3C076BDAC08A40005F0030507E001AA042108
S3152020A3D03046FFF7ABFF60B9361D241F002CF5D180
S3152020A3E02DB101AA29463046FFF7A0FF08B900F073
S3152020A3F02AF876BD70B5ADF5806D05460C4601E090
S3152020A400A41B7519DCB14FF48066B4F5806F2846FD
S3152020A41098BF264600F051F901463246684600F09C
S3152020A42062F96846002100E0491CB1EB960FE7D27D
S3152020A43050F8042B12F1010FF6D0002000E0012065
S3152020A4400DF5806D70BD2DE9F843AC4E0024B07813
S3152020A450ADF5806D002875D0B470D6F8D845B06893
S3152020A460A04206D0211A06F11003FF22184403F039
S3152020A4709FFE70682146FFF7BDFF18B9B07042F2E3
S3152020A480DB7060E0D6F8D815706803F036FD40B151
S3152020A490D6F8D815706806F1100203F09BFD04004B
S3152020A4A050D19A4F746800F07AFE386B06F110036B
S3152020A4B006F58361221A002001F08DF9044600F06A
S3152020A4C071FE0020002CB070B0603BD1904802680D
S3152020A4D0D10313D5D6F8D815726800290EDD02F0DF
S3152020A4E01F004118BFF34F8F8A4B1A602032203924
S3152020A4F00029FADCBFF34F8FBFF36F8F00F066F889
S3152020A50020D1D6F8D85506F11008766803E0A5EBB9
S3152020A51009054E44C844ADB14FF48069B5F5806F26
S3152020A520396B684698BFA9464A46711A00F0DBF86F
S3152020A5304A464146684603F045FE0028E7D044F6C1
S3152020A5408A6000E020460DF5806D01B0BDE8F083DD
S3152020A55070B50446694A107810B942F2DD7070BD94
S3152020A560D2F8DC55684200EA04060C1964420440FD
S3152020A5706442A41B2146304600F0A3F828BB294676
S3152020A580304603F089FD62480168CA0311D5002DA3
S3152020A59031460EDD01F01F004519BFF34F8F5D4A6E
S3152020A5A011602031203D002DFADCBFF34F8FBFF301
S3152020A5B06F8F00F00BF807D121463046FFF71AFFA0
S3152020A5C010B944F68A6070BD002070BD5248C1681B
S3152020A5D00A69506C012870471FB5484C207810B95D
S3152020A5E042F2DD702BE001A9012000F02AF830BBD1
S3152020A5F06946102000F025F808BB02A9042000F0A7
S3152020A60020F8E0B900F0CBFD04F58361002001F0AD
S3152020A61038F9044600F0C6FDFFF7D8FF07D1009988
S3152020A6200198FFF7E7FE10B944F68A6007E00CB1DF
S3152020A630204604E00099019803F02EFD002004B066
S3152020A64010BD002930B52ED02C4A02F5BB6302F569
S3152020A6508D6460B1012813D0022814D0032817D086
S3152020A660042818D0052818D0102819D01BE01078D7
S3152020A670002814BF002042F2DD700860002030BD83
S3152020A6804FF0C040F9E700F010F8AD0A0D60F5E76D
S3152020A6901B680B60F2E75868EFE7186918B1ECE7FA
S3152020A6A000F003F8F2E7042030BD25686368A2682D
S3152020A6B0E0685D19551945197047144A116B401ADF
S3152020A6C0704738B50C46FFF7F8FF054600F067FDC2
S3152020A6D023462A461149002002F09FFC044600F01A
S3152020A6E061FD204632BD80B500920B4602460B49BD
S3152020A6F0002002F0CEFC02BD0000000000AB21208D
S3152020A7000F0000F046434642000400604880212086
S3152020A71014ED00E05CEF00E01080212018AF21200E
S3152020A720416882688A4209D2891A826641600FF27C
S3152020A730A1210160012282600020704742F27870B8
S3152020A74070470FF2090101600020704710B5416A59
S3152020A750DFF818444A898282CB689B1E43604A6868
S3152020A760A24202D1097A022902DB42F2757010BD7B
S3152020A7700FF209020260002010BD0000416A4368E2
S3152020A7804A6882610A68D21E9A42826002D342F2C5
S3152020A790767070470989002908BFFFF7C1BF42F2AA
S3152020A7A077707047F8B50446DFF8C463B4F85A309A
S3152020A7B0376804F15C05626A6968D7F808C018060C
S3152020A7C0000F1B0A43EA00232868E047A0B9306817
S3152020A7D00169884780B9616A102204F11C0003F0C0
S3152020A7E007FD00F045F80098A968884200D044E08B
S3152020A7F00FF2DD1020600020F2BDF8B504461022AD
S3152020A800616A04F11C00DFF8686304F15C0503F03B
S3152020A810EFFCB4F85A303768626A10211806000F08
S3152020A8201B0AD7F808C043EA00232868E047F0B976
S3152020A830286810302860686810381028686088BF1B
S3152020A840DFF8300311D818B1DFF82C1321600DE082
S3152020A85030680269904750B900F00AF80098A96834
S3152020A860884200D009E00FF2691020600020F2BD56
S3152020A870694604F11C0003F0D0BC42F27A70F2BD86
S3152020A88010B5044604F11C0003F0ACFC216E1129FE
S3152020A89027BFB8482060B84A2260002010BD38B5AE
S3152020A8A0B34B426E1C68016EC06DE568A84732BD69
S3152020A8B0B0F85A2013061B0F110AD20741EA0321AA
S3152020A8C04CBF08230423042901D00420704700F11B
S3152020A8D06002C16DA94800F09BBC70B5044642F2C7
S3152020A8E07F76E56D284600F052FB80B1606E04F13C
S3152020A8F01801A8470646012E03D12046BDE8704000
S3152020A9000EE7022E03D100F0A9F8002070BD3046B4
S3152020A91070BD10B5436800F15C02516881608B429E
S3152020A92002D242F2767010BD147AE30707D5126858
S3152020A9308469A24203D111B1C160002010BD90F8D4
S3152020A9405A10CA0702D542F27C7010BDBDE81040CD
S3152020A950E6E638B5B0F85A108A070CD40B061B0F3A
S3152020A9600A0AC90742EA032207D5092A03D1BDE8E4
S3152020A9703140FFF731BE042032BD7D4B5C301C6850
S3152020A98041680068A569A84732BD00001CB5044669
S3152020A990B4F85A000106090F000A40EA01200928C6
S3152020A9A003D1E06DFFF73EFB16BD01290ED1694686
S3152020A9B000F014FA58B9E06D009C6D4A1421936872
S3152020A9C04C4319190A691369984716BD042016BDE8
S3152020A9D0F8B5044604F15806616A304610225A25F5
S3152020A9E000F0B2FA0120375C401CED191028FAD36A
S3152020A9F0307805F0FF05A84202D042F27970F2BDE8
S3152020AA00717842F212700A2925D8DFE801F01A0659
S3152020AA100A0E26121A16261C20002046BDE8F240D1
S3152020AA2077E72046BDE8F2402AE72046BDE8F240F7
S3152020AA3035E72046BDE8F2404FE72046BDE8F24004
S3152020AA4087E70020F2BD2046BDE8F2409EE720465B
S3152020AA50BDE8F2402CE742F27B70F2BD10B5484C9F
S3152020AA6070212046FFF7BCFA464A0020226010BDFE
S3152020AA70F8B506460C4600200027434DA74218D09D
S3152020AA802969E01BC1F1100109E080B12B69F25D33
S3152020AA907F1C491E401EEA542A69521C2A6100291D
S3152020AAA0F3D10020286100F005F810B9E6E742F23C
S3152020AAB07D70F2BD80B53248334A4262C268002199
S3152020AAC02AB1036993420AD05B1C036101E0826E9E
S3152020AAD01AB901688847014601E0521E8266084657
S3152020AAE002BDF8B5224C20680169884700283CD150
S3152020AAF0234F97F85900042823D107F15C052E68A7
S3152020AB00304600F044FAC8B10020FFF73DFA97F806
S3152020AB105A00810710D568686861616860B10A6843
S3152020AB20904222BF4968491C814201D20420F2BDAD
S3152020AB3080F3088880F30988A868B04742F27E709F
S3152020AB40F2BD08280FD10220FFF71EFABFF34F8F40
S3152020AB500E490F480A6802F4E06202430A60BFF3F6
S3152020AB604F8F00BFFDE742F27B70F2BD53544D500C
S3152020AB7010802120FBA72020A5A7202000401F40B1
S3152020AB8050B2212043A72020C4B221200CED00E082
S3152020AB900400FA057CB50C00164605461A4601D156
S3152020ABA0002076BD100A10F00F0002D001280AD00E
S3152020ABB019E06A46284600F0BBF8B0B900F0A2F8A2
S3152020ABC06568A84776BD6B46284600F0D5F860B95B
S3152020ABD00098A74A03692846996951605B683246DE
S3152020ABE02146984776BD42F2D87076BDF8B50C003E
S3152020ABF0174606461A4601D10020F2BD100A10F04B
S3152020AC000F009B4D02D0012816D02CE0304600F0B4
S3152020AC10FAF840BB6A462146304600F089F820BB28
S3152020AC20009B214630463A46DC68A668B047B8B92C
S3152020AC300099CA68136911E06B46304600F09CF8EB
S3152020AC4098B900983A4603693046996969609B68A5
S3152020AC502146984720B900990A6953692B60F2BD8D
S3152020AC6000212960F2BD42F2D870F2BD7CB5130ACC
S3152020AC7013F00F0305460C4642F2D87602D0012B5C
S3152020AC8014D025E06A4600F053F8F0B90099CA6836
S3152020AC90506998B12146284600F0B5F8C0B9009AE7
S3152020ACA021462846D3685C69A04776BD6B4600F0CE
S3152020ACB063F850B900980169CA6812B942F2E57062
S3152020ACC076BD21462846904776BD14B9002076BD0C
S3152020ACD0304676BD7CB50C000546164601D10020AF
S3152020ACE076BD00F090F810B142F2D87076BD6A4653
S3152020ACF02146284600F01CF818B900F003F8E5682C
S3152020AD00A84776BD009B214628463246DC687047F8
S3152020AD1010B5574C206810B180470021216010BD06
S3152020AD2010B5534C606810B180470021616010BD7A
S3152020AD30F0B516000D4642F2D8771FBF4D494A6816
S3152020AD403260002D16D001E01033336033688BB18A
S3152020AD501A68002A04BF5C68002C01D1D96849B141
S3152020AD60904224BF59688142EED32818401E814242
S3152020AD7028BF00273846F0BD002B42F2D87CF0B5FC
S3152020AD80064617461FBF3B4882681A60002923D0F3
S3152020AD9002E005F114041C601D68EDB12A68002A22
S3152020ADA004BF6C68002C07D1A868002804BFEC6873
S3152020ADB0002C01D1286978B19742EAD1AA68E8689F
S3152020ADC00027A0FB0245701847EB07018D4203D3CD
S3152020ADD001D8844200D3BC466046F0BD70B50546F6
S3152020ADE00420002671B1234A946801E0761C14348D
S3152020ADF044B1236833B12269002A03D09D42F5D17C
S3152020AE000E60002070BDF0B509181A4B491E00228D
S3152020AE105F68DC68256905EBC20606F17004160119
S3152020AE20BD5966682468AC4208BFAE4203D086422C
S3152020AE3028BFA14204D2521C012AEAD90020F0BD03
S3152020AE400120F0BD70B50B4D6E6803E0006800B19F
S3152020AE5080471036F0680028F8D1AD6803E00968ED
S3152020AE6001B18847143529690029F8D162BD00002F
S3152020AE7058B1212010802120F0B5064604240D4605
S3152020AE80002EA3B018BF002D56D03821284603F017
S3152020AE90DBF938224323AA708120EB7066212870A3
S3152020AEA000205522E871102329716A710EA8AB71F2
S3152020AEB003F0E6F904003FD10020214F8DF83B0016
S3152020AEC00EA9384603F0E6FA040035D1102205F102
S3152020AED00801384603F0A0FB04002DD10D210AA835
S3152020AEE0FFF77EF806A803F0E7FB05F1080180228C
S3152020AEF006A803F0F5FB102005F1280105F118021C
S3152020AF000023059006A80491102103920AAA0193F2
S3152020AF1000930D23029603F0C1FE0A49802206A83B
S3152020AF2003F0DEFB102005F10803009005F108024E
S3152020AF30012106A803F01CFD204623B0F0BD00BF4A
S3152020AF4000C00C40AB89DCFE4AB1000011F8013B61
S3152020AF50521E00F8013B1CBF11F8013BF8E7704751
S3152020AF6038B504460D460020FFF70EF87348002119
S3152020AF704460734A1160056085F3088885F3098843
S3152020AF80406880470020BDE83240FEF7FDBF0028FC
S3152020AF901CB51EBF10F1010F6A49884201D100203D
S3152020AFA016BD6A4602210024FFF7C2FE20B900986A
S3152020AFB0017ACA0748BF0124204616BD10B502468D
S3152020AFC0614900204B6800E01033D96861B11C7AB2
S3152020AFD004F01104112CF7D119689142F4D25C683F
S3152020AFE0641C9442F0D3012010BD2DE9FE4F00F0C1
S3152020AFF0D5F800F05EFA0020534EFEF79DF9FEF7B5
S3152020B000CDF83068DFF844914C4601688847F268CD
S3152020B01050688047F1680A6902F1800509E0297C99
S3152020B020014205D0E26860695368816920469847C5
S3152020B030183420680028F2D14FF47A700024FEF7C5
S3152020B040EBF882468B46CDE90044A04600F016FA5E
S3152020B05098BBFFF79CFF80B3F068016991F89E208A
S3152020B060D00703D400210020FFF77AFF688A4FF605
S3152020B070FF71884208BF41F28830AAFB00230BFBD0
S3152020B0800033CDE90023FEF7BDF804468846DDE9E6
S3152020B0900001002908BF00280FD0FEF7B3F8001BB7
S3152020B0A061EB0801DDE90023994206D301D89042BD
S3152020B0B003D300210020FFF753FF4F4600E0183727
S3152020B0C038680028E3D0297C0142F8D0FB6838462E
S3152020B0D0D3F800C0E0470028F1D0002FD7D00BE0CE
S3152020B0E0297C014218BF4F4504D0D9F80C30484658
S3152020B0F09968884709F11809D9F800000028EFD166
S3152020B100F7613846016900291EBF0968002988474A
S3152020B110F269506900281FBF016800291046884718
S3152020B120306901688847F469306941688847E26850
S3152020B130D1680029F8D020468847F5E7D4A42120D5
S3152020B14008ED00E0550B2120108021202489202085
S3152020B150704700000A0018BF01220260704738B5E8
S3152020B16000F011F82168491C2160286803F0D3FDDE
S3152020B17020680028FCD1012032BD38B500F003F824
S3152020B1802168491E04E00446084D284603F0BEBD2A
S3152020B19021602868BDE8324003F0BDBD70470348D2
S3152020B1A003F0B4BD0148006803F0B5BD44B12120A9
S3152020B1B02DE9F041FEF786F980467B4C1127204663
S3152020B1C000212246E7FB08010023784F002503F0C3
S3152020B1D0A5FD401E4600786042F210727448002178
S3152020B1E0E2FB08012246002303F098FD2522301891
S3152020B1F0E2FB0845401CB8606B4A002320462946BE
S3152020B20003F08CFD3618761CFE600020BDE8F08108
S3152020B2102DE9F04104460E4615460BB9002053E091
S3152020B220042B02D1B009800101D004204CE05F4FCD
S3152020B230387830B92046FFF7BBFF002844D10120BB
S3152020B24038706421204600F077F800283CD14FF44E
S3152020B250007806F03F06C4F808802069000C000418
S3152020B260206121697868BA68000300F47040C2F32F
S3152020B2700B02104301434F4821614F49A1600643E9
S3152020B28066602A6822626421204600F055F8D8B9E3
S3152020B2902068810548BF44F6E96015D464212046FC
S3152020B2A044F6EA6500F048F868B9C4F808802046D4
S3152020B2B000F067F84FF4806064216060204600F03B
S3152020B2C03BF800B900252846BDE8F081F8B50546AB
S3152020B2D00E46144673B3042B02D1B009800101D047
S3152020B2E00420F2BD314F387828B92846FFF760FF71
S3152020B2F008BB012038706421284600F01DF8D0B9FB
S3152020B3004FF4007006F03F06A860284600F039F872
S3152020B3103F210120A96064216E602863284600F021
S3152020B3200BF840B92868810502D544F6E860F2BDBD
S3152020B330286C20600020F2BD2DE9F04782460F467A
S3152020B3404FF47A700026FDF767FFA0FB078901FBE3
S3152020B3500799FDF757FF04460D46DAF80010C80571
S3152020B3600CD5002FF9D0FDF74DFF001BA9414945EB
S3152020B370F3D301D84045F0D344F6EB663046BDE8FA
S3152020B380F08701696FF315310161084902694B681D
S3152020B390C9681B0303F47043090401F47C110B4391
S3152020B3A01A4302617047000000CA9A3BF0AA212066
S3152020B3B00065CD1D0000773E3F00FFFF0A484FF075
S3152020B3C0FF31016041608160C1600161416181611D
S3152020B3D0C1610648016041608160C16001614161AF
S3152020B3E08161C1617047000080E100E080E200E0D9
S3152020B3F000F01F02000A584B914003EB800310B542
S3152020B400032494401868A0430143196010BD2DE9F8
S3152020B410F041884641F2F10640463746354608F146
S3152020B420500401F074FF10B126696769A569206868
S3152020B430B0B14A480121416149494E6111224260F9
S3152020B440484A4F600123136183608D601360036136
S3152020B4500D615360C360CD60936003600D60D3603F
S3152020B46098F84600002188F80C100428A4BF032150
S3152020B47088F84610BDE8F0813B4870470020704789
S3152020B48001460420002900D1704710B5087B0328E7
S3152020B4900CD101F1780291F840104B0602D51324E5
S3152020B4A0147003E0507808B926211170002010BDB1
S3152020B4B07047032100E000214FF4C06098E72B4914
S3152020B4C008600020704729490A68026000207047DA
S3152020B4D027480168006A10F0020018BF0120704733
S3152020B4E091B1026CC90001F0380142F020020264B9
S3152020B4F041F4983241F4805142F0C10241F0C10119
S3152020B500C266416681660266704730B519490C20AD
S3152020B5100A68194BC2F303414143194448680A6813
S3152020B520896880029202890200B9012002B901228B
S3152020B53001B90121401E114B58606FF060408218DE
S3152020B54000245A610E4A1C604FF000550D4C5118AC
S3152020B5501D611C62596230BD68C00F40FC801F40AF
S3152020B56070821F4068831F40002D310128800F40A4
S3152020B57040441F40D0461F407C8E202048802120DA
S3152020B580FFFF1F200000202080B534224FF4707149
S3152020B590FFF7DAFC002002BD62F30F2262F31F427E
S3152020B5A000B500BF130096469446103928BFA0E860
S3152020B5B00C50FAD85FEA417C28BF0CC048BF40F81F
S3152020B5C0042BC90728BF20F8022B48BF00F8012BDF
S3152020B5D000BD000070B505460E4602F03BF804007B
S3152020B5E00BD1012306F180020021284602F0A1F981
S3152020B5F0707C012804BF00213174204670BDF0B52F
S3152020B6000F260F24054689B0029601EB041600204A
S3152020B6108DF810208DF80000012701930123039730
S3152020B62006F180020121284602F083F90297694615
S3152020B63000F0CEF909B0F0BDF0B589B004460D462C
S3152020B64016461F4600F01BF8B8B98DF800000E20CC
S3152020B65005EB00110E22029201230393204601F1CD
S3152020B66080028DF810600197012102F062F90120F5
S3152020B67069460290204602F08AF909B0F0BD2DE9EC
S3152020B680F843804684B00C4616461F4604202CB329
S3152020B69004F5E675687818B14046FFF7B0FFE8B99B
S3152020B6A0287804F1B00902280AD1694699E80D10B4
S3152020B6B081E80D1004F1C00090E80E1089E80E10E4
S3152020B6C03B4632462146404601F096FF29780229FC
S3152020B6D004D16A4692E83A0089E83A0005B0BDE8E6
S3152020B6E0F083F8B50C4684B00421ECB194F8CC1143
S3152020B6F004F1900502290AD16E4695E8825086E803
S3152020B700825004F1A00191E8C05085E8C05021461E
S3152020B71002F02EFA014694F8CC01022804D16A467A
S3152020B72092E8590085E85900084605B0F0BD2DE974
S3152020B730FE435FEA0108814615464AD0012D48D8A6
S3152020B74008F5E4763078002843D008F140074846AB
S3152020B7503C6802F0FDF93178A40904F0010465B9AA
S3152020B76039B122464846FDF7AEFE4146484601F00D
S3152020B770D5FDB07988B101210CE041B1B9792246B5
S3152020B7804846FDF7A0FE4146484601F0C7FDB07960
S3152020B79018B10021484602F081FA6A46022148461D
S3152020B7A0FDF7E2FE14B100984008009001AA00217E
S3152020B7B04846FDF7D9FE0199009A0A20B1FBF2F1FD
S3152020B7C0491C4143890800E000BF0846411E002845
S3152020B7D0FAD1BDE8F7832DE9F0430546894689B09D
S3152020B7E017461E46484601F08BFD804600224946D4
S3152020B7F000F04BF900F040F8FFF741FF040031D16B
S3152020B800022109238DF8001001220293039299F830
S3152020B810471009F5C87200291CBF1078002803D0CC
S3152020B820517802911378039301978DF8108005960D
S3152020B830116B0691029809EB0011039B00F0CFF8BB
S3152020B84000F0C3F804000DD100F016F8FFF749FFE9
S3152020B850040007D199F8CF0120B100F00DF8FFF7A9
S3152020B860EBFE0446284602F079F90122494600F0EB
S3152020B8700CF9204601F03CBC3B4642464946284628
S3152020B88070472DE9F04F89B0002601220B238946E7
S3152020B8908DF800600392804602938DF8106099F807
S3152020B8A0471000291EBF09F5CA710878002800F024
S3152020B8B086F8029FDDF80CA000224946404609F171
S3152020B8C0500BFFF734FF002004245BF8045BBDB146
S3152020B8D03346002249464046FFF7D1FE98B909EB68
S3152020B8E0071001965346012100F18002404602F0BE
S3152020B8F020F8012140460291694602F048F810B905
S3152020B900AE19641EE1D1040046461ED1002709F156
S3152020B910500A04255AF8048BB8F1000F12D03B4662
S3152020B920002249463046FFF7DCFE04000DD199F867
S3152020B930CF0138B13B46002249463046FFF77CFEF0
S3152020B940040002D16D1E4744E4D1304602F006F9A8
S3152020B950012249463046FFF7EAFE204609B0BDE8D7
S3152020B960F08F2DE9F84105460E4689B000F023F8E0
S3152020B97000F088F800F076F804001BD1002201237D
S3152020B980052400F074F81EBF06F5C6710878002835
S3152020B99000F015F800F01FF800F017F8040009D180
S3152020B9A000F05BF8040005D196F8CF0110B100F025
S3152020B9B04FF8044642E01746304601F0A1BC03D09A
S3152020B9C04A780292097803917047012069460290AD
S3152020B9D0284601F0DCBF0298039B06EB001128467F
S3152020B9E001F18002012101F0A4BF2DE9F84105468D
S3152020B9F00E4689B0FFF7DFFF00F044F800F032F85A
S3152020BA0004001BD100220123082400F030F81EBF99
S3152020BA1006F5CE7108780028FFF7D1FFFFF7DBFF68
S3152020BA20FFF7D3FF040009D100F017F8040005D151
S3152020BA3096F8CF0110B100F00BF80446284602F004
S3152020BA408DF8012200F020F820460AB0BDE8F081CA
S3152020BA503B46424631462846EEE53B46424631465F
S3152020BA6028463EE63B4642463146284607E601978B
S3152020BA708DF80020039302948DF8108096F84710B5
S3152020BA800029704780460022314628464FE6F0B5E9
S3152020BA90054689B00E4614461F46042084B124212B
S3152020BAA06846FEF79DFA032201238DF80020694679
S3152020BAB002932846039307940897019601F067FF7F
S3152020BAC009B0F0BD2DE9F04305460C46E068164640
S3152020BAD04FF0010905F15002002847BFC01E09FA80
S3152020BAE000FC401C4FEAD00C04211068002804D109
S3152020BAF0121D491EF9D104206FE0FCD0C2F800C0E7
S3152020BB00616805F5E07C4FF48070402908D3216BCD
S3152020BB10C1F3031109FA01F1B1F5004F18BF084608
S3152020BB20CCF800006FF07F4E4FF000080025002152
S3152020BB30002704EB470090F8240058B109FA00F0BA
S3152020BB4070453CBF8646394680453EBFB0F5801FAE
S3152020BB5080463D467F1C042FEBD3C645CCF804E017
S3152020BB60CCF810800EBF8CF8099000208CF80900A4
S3152020BB701268DFF8C803824225D394F8580038B1DA
S3152020BB8004F160026034515C3160605D186023E00E
S3152020BB9004F1250010F81110202904D0D82904BF3B
S3152020BBA0DC22326001E02120306004F1250111F8E9
S3152020BBB01500202802D0D82803D00DE021221A6093
S3152020BBC00AE0DC2107E004F12500253410F81120B5
S3152020BBD0326014F8151019600020BDE8F0832DE995
S3152020BBE0F84F0D0096B0144608BF4FF0040868D0D1
S3152020BBF0834608236A460021FFF749FF5FEA0008AB
S3152020BC005FD10098CE49884218BF44F68B6858D118
S3152020BC109DF8040028609DF806707F1C0A2F88BF97
S3152020BC200A2708210CB14FF40061FB0002AA5846CE
S3152020BC30FFF72DFF5FEA000843D164212846FEF74F
S3152020BC40CFF94FF0000A4FF6847904E0012085F8D9
S3152020BC5058000AF1010ABA4533D202A901EBCA00DB
S3152020BC600278C37902EB0322B2F57F4F18BF4A45EB
S3152020BC70EFD100210223C6185B1E367946EA012120
S3152020BC80F9D5C678B60004B10902B2F57F4F0DD199
S3152020BC90502E05F10802584688BF50263346FFF716
S3152020BCA0F6FE5FEA00080CD16E60D2E74A45D0D175
S3152020BCB0334605F15C025846FFF7E9FE5FEA0008A5
S3152020BCC0C4D0404617B0BDE8F08FF0B5490089B002
S3152020BCD003250191002601278DF8005069460296FA
S3152020BCE003978DF810600792089301F050FE0AB052
S3152020BCF0E0BD490060B589B00225019100210126C9
S3152020BD008DF810108DF800506946029603960592FC
S3152020BD10069301F03CFE09B060BD00002DE9F847EE
S3152020BD2005460C4687B00320E07304F14500082120
S3152020BD30582301700326236426731AB1216C41F0FF
S3152020BD4001012164012204F1500682700F20012175
S3152020BD50B085F18504F5C2774FF400724FF4802028
S3152020BD60FA6304F2C9183864C4F8D001284688F842
S3152020BD7000102146FFF72EFC00285FD100F008F99D
S3152020BD800DF10C0A80E80E106E496F4A03910123AB
S3152020BD90CAF8042003AA0121284601F0CAFD00F092
S3152020BDA0F7F8DFF8A89180E80E106949CDF80C90B5
S3152020BDB0CAF80410012303AA0021284601F0B9FD60
S3152020BDC072A102A80A680223026002AA40F25551F3
S3152020BDD02846FFF78EFF002830D108236A461021F7
S3152020BDE02846FFF772FF002828D10098594A019942
S3152020BDF0904289B2019108BFB1F5B24F40F09A80A6
S3152020BE0008236A4627212846FFF75FFF002815D1F9
S3152020BE100098C0F30720A0F117010A29009080F08E
S3152020BE2089800122824032604FF4704102910223A0
S3152020BE3002AA00212846FFF75CFF002877D1464931
S3152020BE404AF20475DFF814C17163B5634FF0872178
S3152020BE50C6F84CC0424AB565424BDFF80CE1434D4B
S3152020BE60DFF80CC1C6F854E0DFF808E1C6F83090B8
S3152020BE70316448F2307A7264B364C6F85090DFF8A1
S3152020BE80F89031667266B366F26631677567C6F8D2
S3152020BE9078C0F56704F1D006C6F84CE0DFF8DCE080
S3152020BEA0C6F850E004F5A874C6F85490DFF8D09070
S3152020BEB0C6F830E0DFF8CCE031647264B3643160D8
S3152020BEC07260B360C6F80C9031617261B361F26121
S3152020BED031627562C6F828C0F562C6F834E0C6F825
S3152020BEE038A031667266B366C6F86C903167726781
S3152020BEF0B367F2672160216123496261022265606E
S3152020BF00C4F808C0E560A3610323E16104213A71E6
S3152020BF1001247B7109233A703A73052239723974C8
S3152020BF200B217C707B737A72797488F8034008B071
S3152020BF30BDE8F08744F68D60F9E700000100000196
S3152020BF40534644502087188B108F02A3A087188B26
S3152020BF50108F04A700510052108F0CB300877087D2
S3152020BF600087AA8700870587108F0BB700875587FC
S3152020BF70008702870087A087108F80A30087188BD1
S3152020BF8000878087108F0087008710870098000001
S3152020BF90002103A8002200238C4670472DE9F04F6C
S3152020BFA00E460424B5B0002E82461CBF0092002ADD
S3152020BFB000F0CF874FF400713046FEF711F806F1D6
S3152020BFC0300701224FF08075BA753D62DFF8900C5C
S3152020BFD03060DFF8901C7160032272730120B273E7
S3152020BFE006F5E071087200F0FBFF31DD009841680C
S3152020BFF0C1F30340012803D1386940F480703861A9
S3152020C00000984168C1F3036020B1C1F30361304633
S3152020C010FFF766FA009A5068000F19D01168C1F30D
S3152020C0200350002818BF01280ED15168090F012975
S3152020C03005D0022902BF00213962BD6208E0386995
S3152020C04040F00400386103E0516821F070415160CE
S3152020C050009806F5807806F180094FF004250068BF
S3152020C060010D01F00F01092945D8DFE811F00A005A
S3152020C0700A006F03710378037803F104F104FD05A8
S3152020C080FD05C0F30340002835D17C75DFF8081D57
S3152020C090C9F80010DFF8042DC9F8042000F09CFF11
S3152020C0A0040028D100980168C1F30310012811D17A
S3152020C0B06FF0F92240F2FF61C8F870200023C8F8FB
S3152020C0C074200022C8F8781031465046FFF797FA98
S3152020C0D0040010D10099DFF8C80C01230A68C2F3A6
S3152020C0E0034100EB011200F08DFF00221CA95046CF
S3152020C0F0FFF775FD040040F0158700990020049075
S3152020C10004240868C0F30350012806D11E99C90CBF
S3152020C11011F00101049100F0058300218B46317333
S3152020C12000981821002502AB0278304602F00F0233
S3152020C130BA7503AA06911CA90595FFF7C3FCDFF85B
S3152020C140640C1290396A814224BF202006900098E0
S3152020C1500168C1F30330002840F0E48207A800F0EC
S3152020C16055FF1C9904291FD81D9840281CD20098B9
S3152020C1700168C1F30324002C2DD0149301AB1A930C
S3152020C1800121631E01928DF85C200322032B8DF85A
S3152020C1904C201B911591169125D8DFE803F01D21FF
S3152020C1A00221DFF8DC2C19E0012131742C98000DB6
S3152020C1B000F00700401E05280CD8DFE800F009050E
S3152020C1C0030909070324D8E70124D6E70424D4E762
S3152020C1D00224D2E732745EE0DFF8A82C079202E030
S3152020C1E0DFF8A41C0791012307AA0121504601F05C
S3152020C1F0A0FB13A9504601F0CAFB00284CD100F021
S3152020C200EFFE1FBF00984168C1F30720002818BF02
S3152020C210019035740198641E032C00F002003AD850
S3152020C220DFE804F02319020D0198010633D4DFF844
S3152020C2302C2DC9F84020019840F0800021E050BBE9
S3152020C240DFF81C0DC9F840000199012041F00201B8
S3152020C2500191307418E0F0B9DFF81C1DC9F84010A0
S3152020C2600198000240F400700BE00198410612D498
S3152020C270DFF8082DC9F84020019800F0C30040F0CF
S3152020C28040000190012131740120042230757275FD
S3152020C2900199B16170740020040040F043821E98F9
S3152020C2A0C0F3405050B19DF880504FF00071209837
S3152020C2B00591C0F3421B05F01F0509E01E98C0F327
S3152020C2C0805028B12098410D01F0070BC0F304457A
S3152020C2D0069932A8079020291DD19DF8C80088B13B
S3152020C2E0079842F204214268C2F3002010B1DFF8F9
S3152020C2F0900C04E0C2F3C01020B1DFF8880CC8F8F7
S3152020C30010000EE0DFF8801C42F20400C8F810105E
S3152020C310C8F8140007E0DFF8742C42F20401C8F8AC
S3152020C3201020C8F81410012040F206423073DFF89E
S3152020C330601CC9F830204FF48C62C9F8101006987A
S3152020C340039900040190019800F03AFEC9F8501094
S3152020C35002990198C8F8302000F032FEC8F8001063
S3152020C360DFF8301C009811910168C1F3036060B199
S3152020C37000984068010608D000F0FF0504984FF089
S3152020C380000B00284CD06D004AE00498002847D0A6
S3152020C3900699202907D1DFF8000CDFF8002AC9F8F2
S3152020C3A00000C9F8042000F017FE040034D14FF411
S3152020C3B000710022099103238DF8302010210A9242
S3152020C3C001220B9213AC8DF82030012310914A467E
S3152020C3D00F9400F017FE012008A90A90504601F07C
S3152020C3E0D6FAB0B9139810F1010F02BF13A84168ED
S3152020C3F011F1010F07D1826812F1010F04BFC06825
S3152020C40010F1010F1ED000F0CDFD002852D000E003
S3152020C4101B9D44F68E64002C40F084814FF0000B47
S3152020C420069A1E990498182A40F08C8000287BD0E2
S3152020C430ED213A6942F040023A610198014341F0E8
S3152020C4400A41A8E00023002231465046FFF717F97B
S3152020C4500028DED1092002220A9010218DF82020E2
S3152020C4600B9B0A980FF648340E9109EB00120D9477
S3152020C47000F0C8FD012150460A9108A901F087FA4B
S3152020C4800028C6D1002300223146504601F070FBF9
S3152020C4900028BED110210A90032213AB109100F060
S3152020C4A0AAFD0028B5D1102213A9204601F08AFE24
S3152020C4B00028AED13869B97D01224FF0020B40F019
S3152020C4C0400038615046FCF7FEFF1B95322501E0DF
S3152020C4D00BF1010B6D1E9BD017A800F097FD396A32
S3152020C4E0129A91420BF0FF0227BFDFF8B03A17933A
S3152020C4F0DFF8AC1A179111980123002102435046E8
S3152020C500189217AA01F015FA1021032213AB1091C5
S3152020C5100A9400F070FD04007FF47AAF00F042FD0B
S3152020C5200028D5D15D4676E7C1F3405010B1209939
S3152020C530090A29E0C1F3805010B12099090E23E081
S3152020C54003211FE008B1EE2173E79DF8C80070B1E2
S3152020C55007984168C1F3401018B1EC214FF00072C2
S3152020C56013E0C1F3001060B16C2100220DE0C1F36D
S3152020C570405008B1EC2107E0C1F3805008B16C216E
S3152020C58002E013210025AB46059A0198C9B2014342
S3152020C590114341F0006141F48061C9F800100098F0
S3152020C5A000210268C2F30310002809D0012876D181
S3152020C5B01D984028C0F082802C98C0F34020002867
S3152020C5C07CD02C98000C10F0050F18BFA52141D146
S3152020C5D080073FD512AA00200023002482E81B00D2
S3152020C5E0089303228DF81C2001AB8DF82C40DFF810
S3152020C5F04C2C0E93012401910123129212AA0F94FE
S3152020C6000121099450460A9301F093F907A950462F
S3152020C61001F0BDF904001AD10198012106F5E07335
S3152020C62000F0F700019031740198000400F47F0097
S3152020C63040F0042040F08100C8F860000E203175BB
S3152020C64004217075019AB26101207174D873002C6F
S3152020C65068D101212C98800A10F00A0F0DD06FF096
S3152020C660F920C8F87000C8F874000698202811D13F
S3152020C67040F2FF62C8F878200CE010F0110F51D05C
S3152020C6804FF00620C8F87000C8F87400DFF8B00B09
S3152020C690C8F87800012206F5E0735A7302E00528CF
S3152020C6A008BF3173BBF1000F09D0BBF1010F06BFC4
S3152020C6B04FF4C05009094FF4E05015E05D4475B1A0
S3152020C6C0049805F0FF0520B111990D43C9F80450AF
S3152020C6D01BE0DFF8700B0543C9F804501DE042F239
S3152020C6E00441C9F804100EE02D04014305F47F050A
S3152020C6F00D4345F0485545F4007542F20461C9F8CA
S3152020C7000450C9F80810049838B1012106F5E072C2
S3152020C7109173386940F0400038613969002441F02E
S3152020C72010013961002C10D1FFF746F900280CD0D2
S3152020C730386AB86206F5E0700168426849000160EF
S3152020C74001695200426049000161EBE3012200E0C9
S3152020C750002231465046FFF7E1FA0446E2E3C0F3D1
S3152020C76003500528009801680CBF4FF0010B4FF0AD
S3152020C770000BC1F30330009901900A68C2F30340ED
S3152020C78002900198002818BF032805D1029820B1CD
S3152020C790032801D1019888B9C4E303A8FEF793FEA4
S3152020C7A000F0E0FB1CB900F013FC0400F4D10020BB
S3152020C7B010213073032239610E920DE003201021BF
S3152020C7C03073396100980168C1F30350042804BFEF
S3152020C7D050223A6106210E91019802990843019828
S3152020C7E008BF4FF0010B032807BF082179750120C8
S3152020C7F0787500F0F1FB0400CED1029820B1BBF170
S3152020C800000F14BF10202020DFF83C1A01230A181D
S3152020C81001215046012401F08CF8002003230790A3
S3152020C82004AA8DF8280006A98DF8183050460894B9
S3152020C83009940D9201F0ABF8040004BF9DF8100076
S3152020C840C228A9D102984FF4803104AA30B992780F
S3152020C850A2F1300301FA03F33B6205E05079A0F1FF
S3152020C860300201FA02F23A6206F5E07A4FF480535A
S3152020C8704FF48070CAF81010CAF804300321CAF881
S3152020C8800000102231738BF0010B3A6102980028A8
S3152020C89004BF019903294AD101200222062330749C
S3152020C8A0727400217082737507233075BBF1000FD7
S3152020C8B08DF80810DFF894098DF80B30DFF89019E1
S3152020C8C017D0822202238DF80920B361C9F860107F
S3152020C8D0C9F86450C9F8680000980168C1F30310AC
S3152020C8E0032819BF00208AF80A0001228AF80A2084
S3152020C8F01AE0812202238DF80920DFF85829B36116
S3152020C9000123C9F86010C9F864200722C9F86800F5
S3152020C910337786F8212086F820303B60C9F87010BE
S3152020C920C9F87450C9F878000298FEF7C8FD40F27D
S3152020C930064100F01BFB0198F0B90121DFF81829E8
S3152020C9403173DFF81809C9F80020DFF83C36C9F81A
S3152020C950040042F20401C8F81030DFF80409C8F8B0
S3152020C9601410DFF80029C9F850004FF48C63C8F85A
S3152020C9700020C8F83030D5E2BBF1000F0BD10125BD
S3152020C98002204FF0405309214FF000524FF4A02CA3
S3152020C990DFF8D4E80AE0212522204FF03043292150
S3152020C9A04FF020424FF4202CDFF8C0E880024CEADA
S3152020C9B0000C43EA0C0343F0032343F020030243F5
S3152020C9C0C9F80430AB0643EA8523DFF8A458890248
S3152020C9D041F44171C9F800E040F448701D43C9F87C
S3152020C9E00810C9F84050DFF88C581D43C9F82C1080
S3152020C9F0C9F8205043F00325DFF87C18C9F82450C5
S3152020CA00C9F828500A43DFF87458C8F814201D4363
S3152020CA10DFF86C28C8F810501A43DFF86818C9F8D0
S3152020CA205020C9F854001943C8F80400DFF85808E4
S3152020CA300343BBF1000FC8F80010C8F8303003D0EC
S3152020CA40396941F04001396102208AF80C0069E2F7
S3152020CA50C0F303500728009801680CBF4FF0010B44
S3152020CA604FF0000BC1F3034078B901A8FEF72BFD48
S3152020CA7000F078FA24B901AA00F0ABFA0400E6D136
S3152020CA80002010213073396103E0032250203273B5
S3152020CA9038610821504679753146FEF79BFD040002
S3152020CAA0D5D100980FF638020168C1F3034008B9A2
S3152020CAB0012303E00328CAD10123103200F0A2FA71
S3152020CAC008200022787504A95046FFF788F804002C
S3152020CAD0BDD102AB03AA04A93046FEF7F3FFBBF172
S3152020CAE0000F03D1502003213861317340F20642D2
S3152020CAF0DFF89C04C9F8302042F2010AC9F8100058
S3152020CB0000F074FA03281CBFC1F3033003284AD14E
S3152020CB10DFF87827DFF87807C9F82020DFF87417A0
S3152020CB20C9F8000040F20673DFF86C27C9F8041014
S3152020CB30C9F84030DFF86407C9F850204FF4EC617B
S3152020CB40DFF85C374AF20432C8F80000C8F8301003
S3152020CB50C8F81030C8F8142000F048FAF0B900229E
S3152020CB60062182238DF804208DF807108DF80530B4
S3152020CB700198FEF7A4FC012002213074062071744E
S3152020CB80E72270750121B261DFF8180731757182AD
S3152020CB90C9F86000C9F86450C9F868A0022106F5D2
S3152020CBA0E0700173BEE10028FCD1386A039BDFF8D0
S3152020CBB0F816B0F1807F03F0FF0327BF20208E22B6
S3152020CBC01820C22243EA004342EA00420B43C9F816
S3152020CBD05030029D05F0FF0545EA00452943C8F857
S3152020CBE00010DFF8C8160A43BBF1000FC8F8102042
S3152020CBF04FF40E52C8F814200CD1DFF8B406DFF813
S3152020CC00B416C9F800000122C9F8041006F5E0730D
S3152020CC109A731FE03D6ACB22DFF88836C9F868A0D0
S3152020CC20C9F86030B5F1807FDFF88C56C9F864509A
S3152020CC3028BFCC220C2342EA0040B36101230625DB
S3152020CC403374757508433375C9F80000DFF86C0610
S3152020CC50C9F804004FF48C61C8F8301062E100BF97
S3152020CC604643464200040156C0F30350092844F6A1
S3152020CC708D650CBF01240024002004218DF804009A
S3152020CC801022797500F0B2F90290009801683A6175
S3152020CC900298C1F3033B70B903A8FEF714FC05469E
S3152020CCA000F061F91DB900F093F905005AD1012051
S3152020CCB00021787502E0022802D10321317309E090
S3152020CCC003284FD10321082231737A7514B9012004
S3152020CCD08DF80400BBF1000F1CBFBBF1020FBBF186
S3152020CCE0030F3FD102985BEA000008BF0124BBF165
S3152020CCF0020F02D10420787504E0BBF1030F04BF94
S3152020CD00082179753869002C314614BF20F040005F
S3152020CD1040F0400038615046FEF75CFC050021D1EA
S3152020CD20002C029807D0022803D003280BD12020DC
S3152020CD300AE0102008E0022803D0032803D140204F
S3152020CD4002E0302000E0002015490123084400F1AC
S3152020CD50700200F057F99DF8042007A95046FEF7E7
S3152020CD603EFF050040F0DD8005AB06AA07A9304628
S3152020CD70FEF7A8FE032040F20641307300F0F6F8B5
S3152020CD8094B9292022224FF4304104904FF4204395
S3152020CD904FF00C0E11E000BF0304180804240100F4
S3152020CDA07C8D202001000001092002224FF44051D1
S3152020CDB004904FF400534FF0060E4FEA0B6000F01C
S3152020CDC0407003904FEA0B2000F4407A039843EA00
S3152020CDD00A0343F0800340EA0A0C4CEA8260CDF82D
S3152020CDE008C00190019ADFF8D80402434AEA0E00CF
S3152020CDF0C9F80020039A0143DDF810C0114341EA07
S3152020CE008C6141F48021C9F804100198DFF8B4140C
S3152020CE1040F0201040F48060C9F85000019ADFF8D5
S3152020CE20A8040A43C8F800200199C8F814300843FA
S3152020CE304AF48C61BBF1020FC8F83010C8F81000F4
S3152020CE401CBFBBF1030F002118D1029ADFF87C0406
S3152020CE50022342EA8C6106F5E072084340F206413D
S3152020CE60C9F8200041EA0A00C9F840000020BBF199
S3152020CE70020F1373B06109D14FF48021B1610BE009
S3152020CE803F0401240504012435040124BBF1030FAA
S3152020CE9004BF4FF40020B06124B9B06940F40000EB
S3152020CEA0B06106E03969012041F08001396186F8B8
S3152020CEB07900DFF81C1442F20302C9F86010012021
S3152020CEC0BBF1000FC9F86420307419BF0221717498
S3152020CED0002070740621012271750021327572821C
S3152020CEE08DF804104CB1BBF1020F08BF41200DD0A4
S3152020CEF0BBF1030F0DD181210BE0BBF1020F08BF3F
S3152020CF00422003D0BBF1030F03D182208DF80500E8
S3152020CF1001E08DF8051008228DF807200198FEF7EC
S3152020CF20CEFA2C469CB93046FEF7AAFA009801780C
S3152020CF3001F00F01B97500980168C1F3036030B183
S3152020CF4000984168090F032904BF386AB862012175
S3152020CF503975204635B0BDE8F08F00003E0402200A
S3152020CF603104012004460020FEF7A9BA084AC9F850
S3152020CF703010C9F810207047010402200104012036
S3152020CF803E04200A3404200812042008020418082B
S3152020CF900504042400B204A613042008EE04208AE3
S3152020CFA0ED04188A102213A901A001F00BB9000064
S3152020CFB000112233445566778899AABBCCDDEEFF33
S3152020CFC001F0FF01014341F0006141F48061704787
S3152020CFD003AA314650468EE031465046FEF7FABA2D
S3152020CFE000980168C1F30360002870470098016803
S3152020CFF0C1F30340704708A98DF8202050460F938F
S3152020D00000F0C5BC0121504600F093BC002100222F
S3152020D0100023002480E81E0070472DE9F041804639
S3152020D0200C46042074B304F5E2759F1829687F42C4
S3152020D030494201EA02066A790F407F420AB9E96825
S3152020D04089B9BE421ED200F01FF8002804BF2968E5
S3152020D0508E19F6D016E0324621464046FEF7C5FC0C
S3152020D06080B9E9688E19BE420CD2E96836EA0100F9
S3152020D07002D1B81B8842EED200F006F8002808BF5D
S3152020D0802968EFD0BDE8F081324621464046FEF79A
S3152020D09068BC2DE9F043814604201746002989B033
S3152020D0A0984618BF002F23D0109C0CB30846002585
S3152020D0B000F026F90321029501238DF80010039311
S3152020D0C04FF6FF758DF81000AC42CDF804800797F7
S3152020D0D0694648468CBF2E462646089600F057FCC1
S3152020D0E030B9A41BB044B608002C07EB8607EBD139
S3152020D0F009B0BDE8F0832DE9F8430E4614460421F5
S3152020D100002C92B0804604D060782178884208BFCF
S3152020D110002100F08E8006F14507082038706078BF
S3152020D12003254FF00109422818BF412802D10420A7
S3152020D130022538706078822814BF42284FF02109B2
S3152020D140002020210A908DF834008DF8240001201B
S3152020D1500B9001A8FCF744FFE4782A0201AB062CA9
S3152020D1600ED031D3082C01D014D32DE040F2064026
S3152020D170104340F2FF4101900A431A61022224E023
S3152020D18040F2994140F2664414430A431A6102222E
S3152020D19001941AE042EA8922B9F1210F42EA056276
S3152020D1A042EA896242F4190042F4CC0240F0660039
S3152020D1B042F0990201901A6103D1306C40F0400070
S3152020D1C0306402210C9101E001220C9201204FF0C3
S3152020D1D08071787006F1500001603E4A3260032447
S3152020D1E03D4B012273600A2374733146B47386F84B
S3152020D1F0C82143624046FEF7EDF9010019D10C9B68
S3152020D20001AA012140464FF47A7400F092FB09A925
S3152020D210404600F0BCFB314A01461368B3FBF4F4C8
S3152020D220009403E000BF009A521E00920098002826
S3152020D230F8D1084613B0BDE8F08300008504012408
S3152020D240001E103200320426BC8D2020000401202E
S3152020D25072040004000402040C042008083004246C
S3152020D26021042008DC042008EC071307EE87118709
S3152020D2700603F9030503FA03200304031203ED032F
S3152020D2802103DE03DC03230360039F03050704A792
S3152020D290FD07208B06B304A72107208BDC07208BD4
S3152020D2A01207208B81040004000400080004000BD0
S3152020D2B0FD04208B0CB304A7000401040C3304279F
S3152020D2C00B042000D80420000204200005040400BA
S3152020D2D071040004464346420004015698802120CA
S3152020D2E05A0418080830FF2400000000000000001F
S3152020D2F05A07208BFFA70000000000000000000036
S3152020D30090F8400010F0040018BF0120704790F8D4
S3152020D310400010F0200018BF012070472DE9FF475C
S3152020D320814604200024B9F1000F0D460FF6C412C1
S3152020D33001A908BFDFF88C49002CD2E90037C1E9C2
S3152020D340003718BF002D7CD0297B042979DA0329C0
S3152020D35001AF15D195F84030980711D46A4602219D
S3152020D3604846FCF701F9009BDFF85C2993420CD351
S3152020D37095F840100B0608D4792201927A603FE076
S3152020D3804FF48070019078603AE000264FF47A7846
S3152020D39005EB46007830417829BB00786421484344
S3152020D3A019D1286C03A9800900F0010A5246484663
S3152020D3B0FCF702F90399BAF1000FDFF81009B0FB48
S3152020D3C0F1F101D1490800E089084B2208FB01F13F
S3152020D3D0B1FBF2F106E04B23B0FBF3F103FB01F2A4
S3152020D3E0824200D2491C402928BF3F21490201F40C
S3152020D3F0FC4141F4807147F82610761C022EC7D3B3
S3152020D4002068400800F0010090F0010003D0216838
S3152020D41041F0020121602A6D04F1C003002A07BFD2
S3152020D420696D0029019A1A60A96D002907BFEA6D46
S3152020D430002A7968596018B1206820F002002060FF
S3152020D440002004B0BDE8F08710B504460420002C47
S3152020D45018BF002A0FD073B1DFF87008B0FBF2F0A6
S3152020D4604343B1FBF3F000E0401C00FB03F28A4269
S3152020D470FAD32060002010BD38B584B04FF6FF7453
S3152020D4800194009400B909B9042028E003AA0221B6
S3152020D490FCF76AF802AA01210020DFF83458FCF7AD
S3152020D4A063F8039A4FF48063294601A8FFF7CCFF3F
S3152020D4B0029A4FF4806329466846FFF7C5FF0199F3
S3152020D4C0DFF81038A14288BF0194009AA24288BF73
S3152020D4D0009401980099C1EA004200201A6005B004
S3152020D4E030BDD0F8E010CA07FBD5D0F8E030990738
S3152020D4F0FBD570472DE9FE430E4604210022002845
S3152020D50000924FD1002E4DD006F15008914606F5B7
S3152020D510C87758F8040BDFF8AC1701EB8904800A8A
S3152020D5202066707BB57BF17B400100F4787005F096
S3152020D5301F05054396F84000C90201F4F0410D432A
S3152020D5400107706F48BF45F4806568B101AA0221A2
S3152020D5500020FCF709F8019A716F01236846FFF72E
S3152020D56073FF009945EA0145256796F8470000286C
S3152020D5701EBF39784A0112F0E00F09D07878491E6B
S3152020D580490301F46041000200F47060084301E081
S3152020D5904FF4106009F10109B9F1040FC4F8800095
S3152020D5A0B7D300210846BDE8FE830422002810B503
S3152020D5B018BF00291ED040310A79012A0AD1C26813
S3152020D5C009785208520042F040024B0748BF42F0E9
S3152020D5D00102C260C168DFF8004741F02001C16026
S3152020D5E0002100EB8102491C136A23400329136280
S3152020D5F0F7D30022104610BDF0B5044689B004208A
S3152020D60031B30020012603278DF8000003960297C8
S3152020D6108DF81020019391F84720002A1EBF01F58E
S3152020D620C4721078002803D053780293127803927C
S3152020D630029D039B01EB05160121204606F180025F
S3152020D64000F077F9012369460293204600F09FF9DE
S3152020D65009B0F0BD2DE9F04F042600288BB016D155
S3152020D6600D0000F04681297C002904BF287F002850
S3152020D67006D0296C090901F001018DF8001002E07D
S3152020D68000228DF800202968DFF85036994240F094
S3152020D69030810020FBF760FF29460020FDF7B7FEEA
S3152020D6A09DF8000018B100220121002004E02A6CF8
S3152020D6B005F1450000F026F9FBF705FF0020DFF8ED
S3152020D6C00476FBF744FF00F028F939684DF60F70F1
S3152020D6D041F002013960396895F845200140287BC0
S3152020D6E0082A08BF41F40051000100F03000014310
S3152020D6F041F07F4141F47F01002039602946FFF720
S3152020D700BBFEB86820F40040B86095F84010C807E2
S3152020D71003D5BA6842F40022BA6029463846FFF774
S3152020D72044FF29460020FFF7E5FE29460020FFF783
S3152020D730F5FD00F0F2F8287C002851D005F1500A9A
S3152020D7402C46B04600255AF8049BB9F1000F40D04C
S3152020D750DFF88C050168C1F3012020B1607C022806
S3152020D76008BF002633D001212B468DF80410002037
S3152020D7700295627D0392217D0022049104F11801F5
S3152020D7808DF8142004220691214607920022FFF7C5
S3152020D79033FF049B04F18000039900F0AEF80120AA
S3152020D7A001A90390002000F0F2F806000FD1608A2C
S3152020D7B058B9617C022918BF032906D02B4600229E
S3152020D7C0214600F0D5F9064601E000F0A1F81EB961
S3152020D7D04D44B8F10108B6D1002E254640F0898067
S3152020D7E0287F00286AD0042605F1500100240191C3
S3152020D7F0B1460198001D019050F804ADBAF1000FF2
S3152020D80058D001224FF004088DF8082000230394D5
S3152020D8102E468DF818300025CDF8208006EB850180
S3152020D82001F12002507800283CD0DFF8B43406EBF2
S3152020D830050B1868C0F3012018B19BF81D30022B68
S3152020D84030D05078303123460490127807913146D3
S3152020D850059200220020FFF7CFFE5FEA000824D1A0
S3152020D860059B06F18000049900F047F8012002A9C3
S3152020D8700490002000F08BF85FEA000815D1708A0A
S3152020D88028B99BF81D10022918BF032902D100F0C0
S3152020D8903FF807E023460022314600F069F95FEA87
S3152020D8A0000802D16D1C022DB8D935465FEA08063C
S3152020D8B003D15444B9F101099BD1D6B99DF8000072
S3152020D8C0B0B1396805F1450041F0020139602A6C72
S3152020D8D000F018F8FBF7F7FD29460020FFF7CCFDCE
S3152020D8E029460020FFF71AFD386820F0020038600C
S3152020D8F0002630460BB0BDE8F08F00EB0112012147
S3152020D900002016E041780020920902F0010270479B
S3152020D910642148430021FBF7A3BE386820F002008B
S3152020D9203860396841F0010139603A68D307FCD460
S3152020D93070472DE9F0420F4614461E46042118BB97
S3152020D94014B34FF00009BA1949EB0903002B1BD851
S3152020D950112A19D200F0B2F9DFF888030221A86132
S3152020D960E961B90005EB8102F71902F5007204E09E
S3152020D97054F8043B491C42F8043BB1EB870FF7D3FC
S3152020D980A8610120E86100210846BDE8F082002830
S3152020D9902DE9F8434FF0040871D10C0000F0D58012
S3152020D9A02078042880F2D180DFF8186394F810902C
S3152020D9B03046DFF83473FFF794FD0020002500F071
S3152020D9C05FF9706940F01E007061616839602078C7
S3152020D9D0022808BFA56902D0032801D1256AADB245
S3152020D9E0A068E168000400F470200543491E09065A
S3152020D9F001F0E0610D4345EAC9757D602078032852
S3152020DA0034D1E269206A12F0030138D11C23BB618C
S3152020DA10B96941F00101B961BB69D907FCD43969DB
S3152020DA2041F00101396108B3402807F1600314D37E
S3152020DA3071694FF0100C890604D414E053F8041BA6
S3152020DA4042F8041B5FEA0C01ACF1010CF6D1716996
S3152020DA50403841F02001716105E0396DC90001F49B
S3152020DA60FF61814226D271690B07DCD520780228F6
S3152020DA7018BF012843D16269A16912F0030064D13D
S3152020DA801C23FB61F86940F00100F861FB69D80787
S3152020DA90FCD40025002932DD7069944B40062BD515
S3152020DAA040294FF0100C42D316E053F8041B001FD8
S3152020DAB042F8041B0428F8D240B11968009169461F
S3152020DAC011F8013B401E02F8013BF9D17069CDE7E0
S3152020DAD052F8040B43F8040B5FEA0C00ACF1010C5E
S3152020DAE0F6D1403925B93869012540F00100386141
S3152020DAF0706940F04000706173691807CAD5207894
S3152020DB0018B9396941F0010139613046FFF7E9FC3E
S3152020DB107069010717D5786CC0F303600E280CBFF7
S3152020DB2041F6583841F659380FE043F8040B5FEA9E
S3152020DB300C00ACF1010CD5D00029D2BF0020091F42
S3152020DB4052F8040BF1E74FF000084046BDE8F28377
S3152020DB5018B9674801688A07FBD5704738B95948EC
S3152020DB60016841F0010101600268D307FCD47047A7
S3152020DB7000292DE9F84F8EB04FF0040979D001F114
S3152020DB8070049246A5890122E6890693089202FA14
S3152020DB9005F80325BAF1000F8DF81450079202AD2F
S3152020DBA00C9514BF082304230D938DF824A091F8F7
S3152020DBB04730002B1EBF01F5C2752A78002A03D0D4
S3152020DBC06A7807922D7808950490079801EB00151E
S3152020DBD0089B0146049805F18002FFF7AAFE2468D7
S3152020DBE05FEA040B18BF4FF0010B0025049805A906
S3152020DBF0FFF7CDFE5FEA00093BD1BAF1000F1AD01C
S3152020DC0001A96A4602AB042013F8017B401E01F8C5
S3152020DC10017B13F8017B02F8017BF5D1002E0199B7
S3152020DC20009803D0014038EA010102E0014311EABD
S3152020DC3008010F4608E0002E029802D038EA00009C
S3152020DC4001E018EA0000074618BF0127FAB212EAB7
S3152020DC500B0F0BD0002D08BF002C0ED04FF47A705E
S3152020DC600021FBF7FDFC641E65F10005FFB2002FA5
S3152020DC70BCD148460FB0BDE8F08F41F65A39F8E7B7
S3152020DC8058B9104901EB8001401C0428D1F8802086
S3152020DC9042F00042C1F88020F3D3704738B50C46B5
S3152020DCA058B900F00BF824B1296841F400612960A5
S3152020DCB031BD286820F40060286031BD014D2846FA
S3152020DCC00FE4000000802A4000E1F50500CA9A3BB7
S3152020DCD00065CD1D04802A4000FFF0FC46434642C5
S3152020DCE000822A40F05AF05AA0802A4080812A4079
S3152020DCF0E0802A40000100000001000038B54FF4E2
S3152020DD00C074DFF8DC53002221462A7405F1140062
S3152020DD10FCF766F9002321466B7405F5CA70FCF7DB
S3152020DD205FF9012032BD0146002021B10968090F83
S3152020DD300E2908BF012070472DE9F04395B00646ED
S3152020DD40FFF7DCFF054630460424FFF7ECFF0028CA
S3152020DD5008D03068000F0E2840F0CB803168C1F300
S3152020DD600340002800F0C58004281AD2C1F30352AC
S3152020DD70022ABCBFC1F30332042A0ADA012803D9B6
S3152020DD80C1F30322042A04DA032804D3C1F303109F
S3152020DD90042880F2AE80C1F30360032824BF001F2D
S3152020DDA0032880F0A6800022C1F30367032FCC4BE3
S3152020DDB028BF0122002D1EBF03F11001885C0028F8
S3152020DDC071D14FF4C07111FB02F51D44143517F0A3
S3152020DDD0030703D0022F05D002D308E0C14802E072
S3152020DDE0C14800E0C14803F1080747F82200012076
S3152020DDF0103398542846FCF7F3F805F18007BC48E1
S3152020DE00BC49786039603268BB4806F10808B8609A
S3152020DE10C2F303410022F960337803F00F03FB613C
S3152020DE203068C0F30350B86115E03368C3F303208C
S3152020DE3005EB421C0CF1D00306EBC20CDCF804E007
S3152020DE40C3F800E0DCF804C058F832909860521CE1
S3152020DE50CC44C3F804C08A4209D2012AE5D03068CE
S3152020DE60022A0CBFC0F30310C0F30330E0E70129D8
S3152020DE70386D7A6D0ED9012305EB431656F8D0CF8F
S3152020DE808445766838BF6046B24238BF32465B1C2E
S3152020DE908B42F1D3994988422BD3386168467A61DF
S3152020DEA000F0EEF9040024D10020954E8DF80300D1
S3152020DEB06946304600F0EEFA04001AD1B8690128E6
S3152020DEC009D1102205F1A001304600F0A5FB044619
S3152020DED0002038626CB910222946304600F09CFB7F
S3152020DEE0040006D1102205F11001304600F094FBE3
S3152020DEF00446204615B0BDE8F083F0B50022002464
S3152020DF00774B4FF4C075002665431D44143500E039
S3152020DF10761CD5F88C70BE4210D205EB461C0CF12F
S3152020DF20D007D7F804E0AEF1010E8645F0D33F683E
S3152020DF3001EB000C6745EBD2012202E0641C012C88
S3152020DF40DFD91046F0BD2DE9F0470D460421002DDE
S3152020DF5086B018BF5FEA020838D00646022E35D290
S3152020DF605F4CA3191A7C8AB302A84FF4C07900F01B
S3152020DF70A3FB09FB06F18022601800F1140A00F5A4
S3152020DF804577514602A800F0ABFB4FF4807007F18D
S3152020DF90800101900AF1800300910AF110020121EB
S3152020DFA002A800F0BBFC04EB86008022816802A830
S3152020DFB000F096FB20203B4600905246012102A8E5
S3152020DFC000F0D6FC2F600021C8F80090084606B045
S3152020DFD0BDE8F0872DE9F84706460C46042015466D
S3152020DFE0002C89B018BF002D53D04FF000094FF4D4
S3152020DFF0C077DFF8EC8007FB09F208F11401114401
S3152020E00090314B685B1EB34203D30968A219914213
S3152020E01004D309F10109B9F1010FECD9B9F1010FA6
S3152020E02037D808EB890105A8D1F808A000F044FBD1
S3152020E030802205A8514600F053FB07FB09F108F181
S3152020E04014000844D0F8981001291AD1A03001AA2A
S3152020E05090E88A1082E88A1036090020019601A9C4
S3152020E06001AB464233440A5CDF7B0F54401C082810
S3152020E070DA73F5D300942B462A4605A800F09EFC99
S3152020E08006E000942B462A46012105A800F070FCC4
S3152020E09000200AB0BDE8F0872DE9F04105460E465E
S3152020E0A000274FF4C07404FB07F10D48014401F109
S3152020E0B0140001F54578134901EB8721A94209D39C
S3152020E0C07219914206D22146FBF78AFF2146404605
S3152020E0D0FBF786FF7F1C012FE5D9BDE8F0810000E4
S3152020E0E0DCA4212089ABDCFEDCEFDCFE1234DCFE56
S3152020E0F0454844525441475F0000015600100060B5
S3152020E10000C00C400004006070B5044604257CB392
S3152020E1102068010F0B292BD1C0F30360012827D0BB
S3152020E12030BB2068000910F00F0003D0022805D04C
S3152020E13002D31DE0802603E0C02601E04FF480763E
S3152020E1406068F608FCF723FF90B160683018FCF76A
S3152020E1501EFF68B1154D102068606168324605F1B2
S3152020E1600C00FCF7F1FE4FF400702E60A86000250D
S3152020E170284670BD70B5054604200C46002D18BFD4
S3152020E180002C12D0094E4FF4007106F12C00FBF71B
S3152020E19027FF06F12C0106F10C00FCF76DFE20B9B5
S3152020E1A006F12C012960B268226070BDA8A2212028
S3152020E1B04018491C1CBFB1F1010100F8012DF9D1ED
S3152020E1C07047000003000020521E22BF13F8010BC7
S3152020E1D011F801CBB0EB0C00F6D0521C08BF10462C
S3152020E1E0704700004FF0FF310022016042607047E7
S3152020E1F030B543680468134DD318436007E011F8FF
S3152020E200013B83EA146355F8233083EA042413461A
S3152020E2105A1E002BF3D1046030BD70B542680368C6
S3152020E22012F0030F0BD002F00302C2F10402054CB8
S3152020E2301D0E521E54F8256086EA0323F8D103606A
S3152020E2400B6070BD6C8920200022FFF7B1BF000033
S3152020E25000F01F02000ADFF8A833914003EB800369
S3152020E26010B5032494401868A0430143196010BDBB
S3152020E27001460020DFF88C23914218BF01207047E9
S3152020E280002810B53AD0002140F6C41201703F2351
S3152020E2904170012481704FF44861C28022228180FE
S3152020E2A040F25C4103814FF4AD63C27240F2951275
S3152020E2B0C360E3230161DC214261622283617D23E5
S3152020E2C0C161252102624B2243620B2381622F21C9
S3152020E2D0C26246F62012036345F67D734163C1630D
S3152020E2E04FF4C84142644FF4C862C4708472846378
S3152020E2F004648364C1640265002010BD042010BD1F
S3152020E3000023002AF0B514D056681468A64210D2ED
S3152020E310A51B01294FF6FF770CD1BD4298BFBC42E1
S3152020E32037D8016AC4EA01020262046AC4EA0541B6
S3152020E33001629BE0022911D147F6FF718D4298BFD9
S3152020E3408C4226D8416AC4F30E04C90B44EAC13450
S3152020E3504462416A65F31E41416287E0032911D157
S3152020E36043F6FF718D4298BF8C4212D8816AC4F33E
S3152020E3700D04890B44EA81348462816A65F31D4148
S3152020E380816273E0042911D141F6FF718D4298BF35
S3152020E3908C426AD8C16AC4F30C04490B44EA41343E
S3152020E3A0C462C16A65F31C41C1625FE0052911D1AF
S3152020E3B040F6FF718D4298BF8C4256D8016BC4F32C
S3152020E3C00B04090B44EA01340463016B65F31B41FA
S3152020E3D001634BE0062940F2FF7C0CD1654598BFAE
S3152020E3E0644542D8416B00F043F84463416B65F3A2
S3152020E3F01A4141633AE007290CD1654598BF644507
S3152020E40033D8816B00F034F88463816B65F31A412D
S3152020E41081632BE0082911D1BD429CBF6FF07F413B
S3152020E4208C4222D8C26824F07F4402F07F421443D3
S3152020E430C4608168C5EA0102826017E0092914D1E7
S3152020E44071498E4298BF8C420FD8C169C4F31504F6
S3152020E450890D44EA8154C46184695168A40DC1F3AD
S3152020E460150141EA8454846100E004231846F0BD56
S3152020E470C4F30A04C90A44EAC1247047024601F0BB
S3152020E4800F010F2902F1400050F8210008BF116C1E
S3152020E4907047000070B505000E4618BF002E60D0CC
S3152020E4A0FFF7E6FE7DA2032132F91000FFF7D0FE0A
S3152020E4B0286820F4883040F480302860296821F4A8
S3152020E4C0825141F040012960B07A020049D01028BB
S3152020E4D047D26968000400F4702006F10C0221F46A
S3152020E4E0702108436860012100F094F804000CD1C3
S3152020E4F006F11402022100F08DF8040005D106F160
S3152020E5001C02032100F086F8040077D106F12402AC
S3152020E510042100F07FF8040070D106F12C02052199
S3152020E52000F078F8040069D106F13402062100F0C3
S3152020E53071F8040062D106F13C02072100F06AF846
S3152020E54004005BD106F14402082100F063F80400A0
S3152020E55054D106F14C02092100F05CF8040002D0C7
S3152020E5604CE004244AE0286871780024C90101F08F
S3152020E570800120F48450084328602A68B1782348F3
S3152020E580890001F00C0102400A432A602A68F178AA
S3152020E5901F48024001F003010A432A602A69B088F5
S3152020E5A0C2EA004129612A69F088120C40EA024217
S3152020E5B02A6169693089890AC0F3090040EA8121E4
S3152020E5C069616968F07A090A40EA0121284669606A
S3152020E5D0296821F4883129602A680F2122F4815262
S3152020E5E042F020022A60FFF749FF3078012805D122
S3152020E5F0D5F8A01041F00201C5F8A010204670BD24
S3152020E60068C00F4000C00C40FFFF3F00F3EFFFFF24
S3152020E610FCEFFFFF284673E62DE9FC410546002640
S3152020E6200027002D1446884618BF002931D084B3F0
S3152020E63028682968C0F38020C1F300310843286860
S3152020E640F7D0C0F3003060B9394628467F1CFFF743
S3152020E65015FF04210090042C684698BF21460022ED
S3152020E6600AE02868012640F48050286008E010F847
S3152020E670013B521C08F8013B8A42F8D3641AD7D1B1
S3152020E68007F00F070F2F05D00F212846FFF7F6FE9C
S3152020E69000E004263046BDE8F68100000C06000086
S3152020E6A0DFF83C060168002944BF4FF040438360D1
S3152020E6B0082141604162704710B508B9012010BD7C
S3152020E6C0DFF820160A6812F4406F03D10B6843F452
S3152020E6D040630B6000F0F8FAFFF7E2FF002010BD40
S3152020E6E07FB5040018BF002901D0802A01D001253A
S3152020E6F04DE0DFF8F46500258B1B022B2160DFF827
S3152020E700EC051CD941F234269B1B3AD042F2DE1668
S3152020E7109B1B36D045F299569B1B2CD042F2DE16F7
S3152020E7209B1B28D042F266269B1B1FD042F2ED1659
S3152020E7309B1B1BD04FF470669B1B28D003E001F057
S3152020E7400301216023E010226846FCF7FDFBDFF859
S3152020E750A00530230360DFF89C65266000215DF844
S3152020E7602130491C03290361F9D910E000F012F861
S3152020E77022F0100203E000F00DF842F010020260B1
S3152020E78003E0C16941F01001C16100F0A4FA2846D6
S3152020E79004B070BDC16921F01001C16102687047C3
S3152020E7A038B5006815460C46DFF83C25811A022923
S3152020E7B022D9C91E1CD041F23122891A23D042F2F5
S3152020E7C0DE12891A22D045F29952891A1BD042F29A
S3152020E7D0DE12891A1AD042F26622891A13D042F200
S3152020E7E0ED12891A12D04FF47062891A18D01FE0C0
S3152020E7F0A06840F4407004E0A168000200F4407054
S3152020E8000843A06014E06068A16803E06068A168FE
S3152020E81040F4402040F48060606041F47F4106E06F
S3152020E8206068A16840F48060606041F47E41A16008
S3152020E8302BB1102219462846FCF786FB00E000253E
S3152020E8400023A561E36131BDF0B503464FF0704248
S3152020E8500021BFF34F8FDFF8A064DFF8A044306893
S3152020E86043F6E075C7031AD53167BFF34F8FF76E8E
S3152020E870C7F34E3CC7F3C90E05EA4C1040EA8E700A
S3152020E880E0605FEA0E00AEF1010EF5D15FEA0C00E2
S3152020E890ACF1010CEED1BFF34F8FBFF36F8FBFF3D7
S3152020E8A06F8FDFF85C7401203B60DFF858343861C5
S3152020E8B01868000703D41046421E0028F8D1386A6B
S3152020E8C0000602D0FF21B96204210820986012B9DF
S3152020E8D0042918BF0321BFF34F8F3068C20319D5EF
S3152020E8E000233367BFF34F8FF26EC2F34E33C2F34A
S3152020E8F0C90605EA431040EA867020603046461E47
S3152020E9000028F6D11846431E0028F0D1BFF34F8F9A
S3152020E910BFF36F8FBFF36F8F0846F0BDF8B590B069
S3152020E9200C4658B1012C09DC002A18BF002B05D033
S3152020E930169919B1179F17F00F0F01D0012015E056
S3152020E9402402002504F4807440F2232600953443C3
S3152020E95001941024029403931346049108AA059740
S3152020E9606946FFF71DFF6846FFF76EFF11B0F0BD21
S3152020E970F8B590B048B1012907DC002A18BF002B32
S3152020E98003D0169E16F00F0F01D0012014E00902A5
S3152020E99001F4807140F22325039229430027019117
S3152020E9A008AA049300230097694602970596FFF745
S3152020E9B0F7FE6846FFF748FF12B0E0BD2DE9F04389
S3152020E9C005000E4685B09146984618BF002E05D0E4
S3152020E9D0B9F1000F18BFB8F1000F01D1012020E0B6
S3152020E9E00C9C0DE019F8011B135C401C594008F8BB
S3152020E9F0011BB842F6D310213046E41B00F037F82D
S3152020EA0074B11027102C01AB324698BF2746102010
S3152020EA10012100902846FFF7ABFF002001AAE8E756
S3152020EA20002005B0BDE8F083F8B505460E4614460D
S3152020EA300027FFF709FC04E0721ED21BAC54240ADF
S3152020EA407F1C002CF8D1F1BD70B50D460446164624
S3152020EA501021FFF7F9FB2278C6F10E002946024342
S3152020EA60601C22703246BDE87040FCF76DBA491E04
S3152020EA7005D4425C521C4254D2B2002AF7D07047A9
S3152020EA802DE9F84F04460120002C90B089460CD061
S3152020EA90190007931CBFDDF87480B8F1000F04D04D
S3152020EAA01E9F002F1CBF1F99002900F0EB80209B62
S3152020EAB01B1F0D2B06D22099CB0700F1E3801A9D30
S3152020EAC0E91F072980F0DE801C9E2099C5F10F0AB8
S3152020EAD00292AAF101032A46002E14BF40200020CC
S3152020EAE0891E490840EAC100079918438DF80C0071
S3152020EAF00DF10D00FCF728FA029A0DF10D035FFAAD
S3152020EB008AF15819FFF790FF102008AB009003AA2E
S3152020EB1001212046FFF72CFF002E5BD0002103A8E1
S3152020EB2000220023B6F57F4F8C4680E80E10DDF8B4
S3152020EB306CA00DD232460221FFF776FF4FF00E0B46
S3152020EB400E2E51460DF10E0098BFB3465A4611E0BF
S3152020EB50FF21FE228DF80C1004218DF80D2032463F
S3152020EB600DF10E004FF00A0BFFF75EFF0A225146E9
S3152020EB700DF11200FCF7E8F9102008A9DA44A6EBDB
S3152020EB800B06019008AB009103AA01212046A3463B
S3152020EB9034461AE01026102C514603A898BF264644
S3152020EBA03246FCF7D1F9102E05D203A8C6F1100162
S3152020EBB03044FFF749FB102108AA019108AB0092A7
S3152020EBC003AA01215846B244A41BFFF7A7FE002C16
S3152020EBD0E0D15C460799EAB20CA84646A346B84639
S3152020EBE0FFF732FF10210CA8FFF741FF02988DF87E
S3152020EBF00890040032E09DF808101027102C03A856
S3152020EC0098BF274600EB0709C7F1100A01290BD127
S3152020EC103A463146FCF798F9102F03D251464846FA
S3152020EC20FFF712FB00F031F80097434632460CA935
S3152020EC305846FFF7C3FE9DF8080060B93A4641467C
S3152020EC4003A8FCF781F9102F03D251464846FFF737
S3152020EC50FBFA00F01AF8F619B844E41BCBD1079931
S3152020EC60EAB20CA8FFF7F0FE102003AB009008AA0A
S3152020EC700CA95846FFF7A2FE209A1F9803A9FCF755
S3152020EC8063F9002011B0BDE8F08F102008A901906B
S3152020EC9008AB009103AA012158463FE678B587B0F4
S3152020ECA0119C109D0F9E00930694134605950E9C4D
S3152020ECB004960D9D0C9E0A460394012102950196E9
S3152020ECC0FFF7DEFE08B070BD0021002200230024BD
S3152020ECD080E81E0070474FF000400B490860DFE4B3
S3152020ECE000C02F4068C00F400000DCFE0CC00A4048
S3152020ECF060C02F400300DCFE14ED00E060EF00E052
S3152020ED00C0C12F4010C02F4004C02F40EFF31081E8
S3152020ED1072B60160704780F310887047D3BBD9B193
S3152020ED20B2F5803F5BD2022A1ED98C46B1FBF2F186
S3152020ED3002FB11C31B0443EA1043B3FBF2FC02FB84
S3152020ED401C3380B240EA0343B3FBF2F002FB1032BD
S3152020ED5040EA0C4000237047022A05D98446B0FB9E
S3152020ED60F2F002FB10C270474AB105D100F0010231
S3152020ED7049085FEA3000704700220023704700F0E0
S3152020ED8051B80B000200002100207047F7D3002243
S3152020ED9000237047904271EB030CF2D370B5B1FA81
S3152020EDA081F4B3FA83F52C1BA340C4F1200532FA53
S3152020EDB005F63343A2405FF00046E64002E05B08BA
S3152020EDC05FEA3202841A71EB030524BF20462946C6
S3152020EDD07641F4D302000B003000002170BD70B5BF
S3152020EDE0B1FA81F4B2FA82F5C4F120046419B4F19F
S3152020EDF02006DAD3B2405FF00044F440002502E03A
S3152020EE0052085FEA3303C61A71EB020E24BF30463E
S3152020EE10714664416D41F3D302000B002000290086
S3152020EE2070BD000070470000BFF34F8F054906488C
S3152020EE300A6802F4E06202430A60BFF34F8F00BFE4
S3152020EE40FDE700BF0CED00E00400FA0501294FF490
S3152020EE50801002D1044908607047044A1060BFF32D
S3152020EE604F8FBFF36F8F704700E100E080E100E015
S3152020EE7000F01F02000ADFF8F032914003EB8003F6
S3152020EE8010B5032494401868A0430143196010BD8F
S3152020EE9001460020DFF8D42252F820308B4202D0BF
S3152020EEA0401C0928F8D370472DE9F0470D46034624
S3152020EEB029684FF00008002600274FF0040C0C4646
S3152020EEC05FFA8CF04FF00A0E0EFB02FE4FF00A0A74
S3152020EED000FB01F9BEFBF9FE0EF1050EBEFBFAFE84
S3152020EEE01FFA8EFABAF1000F08BF4FF0010E1FFA53
S3152020EEF08EF909FB00F0B2FBF0F0814234BF401AB4
S3152020EF00081A844202D30446664677460CF1010C41
S3152020EF105FFA8CF02028D3D900F0C9F8A14238BF57
S3152020EF2040F22158C0F08E801C462046FFF7B0FFC5
S3152020EF300FF26C22032132F91000F6B2C7F30C0728
S3152020EF40FFF796FFA068321F042A40F00200A06037
S3152020EF50A168DFF81C0221F00201A160216938BFD7
S3152020EF6041F40031761E3606014006F0F85631432C
S3152020EF700F4327612069DFF8FC1120F00050206123
S3152020EF802879A269EB7B0A40A97B02431B0203F462
S3152020EF90E0631A436B79890001F004010A43012BAF
S3152020EFA006D100280CBF42F4006222F4006202E05F
S3152020EFB008B142F01002A2612069E979490301F4DF
S3152020EFC0005120F4005008432061297A687A41EACA
S3152020EFD00041E162A06A40F08800A062A16ADFF8C1
S3152020EFE0980141F44041A162626A697B2B7B090129
S3152020EFF001F010015B0103F0200319430A436262EA
S3152020F000A97A012903D1626A42F008026262E97A6A
S3152020F010012903D1626A42F001026262A97901299B
S3152020F020616908BFDFF8540108436061A0692A7C22
S3152020F030697C012A08BF40F40020012908BF40F43A
S3152020F0408020A0614046BDE8F08780B5C16A11F4D2
S3152020F050E06FFBD142695102FCD54369002143F080
S3152020F060404343F4FE1343618161FFF711FF0FF202
S3152020F0703012002132F91000BDE80440F8E610B520
S3152020F08004461421FAF7ACFF4FF4E1320023226024
S3152020F09023716371A371E37123726372A372E37286
S3152020F0A063732373A373E3732374637410BD642281
S3152020F0B0B1FBF2F101EB4101704730B500F00DF8BC
S3152020F0C0090A14430461856A25F440352B4383625B
S3152020F0D0826942EA0121816130BD04690B0203F471
S3152020F0E0404203F44073704701464869896A090CF7
S3152020F0F001F0C3010843704730B5002A06E0436972
S3152020F1001C02FCD511F8015B521EC561F7D141695D
S3152020F1104A02FCD5002030BD80B5194A194891688D
S3152020F120526A9047BFF34F8F01BD80B5144A1648C7
S3152020F130D168F5E780B5124A14481169F0E780B501
S3152020F1400F4A13485169EBE780B50D4A114891695A
S3152020F150E6E780B50A4A1048D169E1E780B5084A32
S3152020F1600E48116ADCE7000068C00F40588E202028
S3152020F17000E0FFE0E8F8FFFF00C01FC000C01FE04E
S3152020F1801CB121200080184000C0184000001940E2
S3152020F190004019400080194000C0194000001A4044
S3152020F1A0FFFF18051C000C001801020306031A0590
S3152020F1B00E06000038B50124491E0829334D2B6838
S3152020F1C032D8DFE801F00515252727252731250008
S3152020F1D0506810F1010F18BF00280FD09869012818
S3152020F1E014DB93F81A14012910D103F118000BE02F
S3152020F1F0506810F1010F18BF002801D1002032BD20
S3152020F200D86103F114001C73FBF7B7FF00240BE031
S3152020F210052409E0002103F11400FBF79BFF286851
S3152020F22000211830FBF796FF204632BD0020012909
S3152020F23000D0704738B5154C012520684FF47E73D1
S3152020F24080F81A54022100F12002806800F077FA13
S3152020F250216881F81B5432BD002059B90B484FF440
S3152020F2607E730068022180F81C2400F12002806829
S3152020F27000F065BA704705490860002070470021D4
S3152020F280024A8160106000207047000048B121208A
S3152020F29010B5134601200BB9032010BD1A1D0024DA
S3152020F2A054771268002A1CBF1468002C03D00A4603
S3152020F2B001211846A04710BD10B5134601200BB9D1
S3152020F2C0032010BD1A1D002494771268002A1CBF23
S3152020F2D01468002C03D00A4602211846A04710BDE8
S3152020F2E02DE9F84785B005462B7F00210120002BEC
S3152020F2F073D06A68926854799C426ED31268002A29
S3152020F3006BD002EBC3028A460C27A2F1080673684B
S3152020F31001E00AF1010A327892455ED207FB0AF211
S3152020F3209C1894F800E0BEF1030FF2D1002600E0ED
S3152020F330761C03F10807BF5CBE420BD21F1D4FEA85
S3152020F340061CBF5895F81E9017F80C80C845EFD19B
S3152020F35007EB0C01E27800296A773ED0A9600024C9
S3152020F36005F12306DFF87CA36FF00108DFF87893F8
S3152020F3700F462FE0CDF808A00020C5F81480707025
S3152020F380A86120E0002206218DF80420B868614378
S3152020F390021D535C8DF80530B868425C8DF802203A
S3152020F3A0B868D209831C012A5B5A0144ADF8003083
S3152020F3B048788DF80300DDD1CDF808900020C5F8D7
S3152020F3C00C80307028610395286802AA6946641C3F
S3152020F3D000F010FB39798C42D4D306B0BDE8F087F3
S3152020F3E038B504460120A16879B1002507E0062218
S3152020F3F088686A43815C20686D1C00F01BFBA1682D
S3152020F4000A799542F3D30021A16032BD2DE9F84F28
S3152020F410044617460120002F86B014BF002C032057
S3152020F42014D0C9B2491E052904F121064FF0060938
S3152020F4300CD8DFE811F0C60006000C001C003200B4
S3152020F44056000021217731707170A16028E1616812
S3152020F45000291EBF217F3A788A42F7D011B1204653
S3152020F460FFF7BEFF38780022A277207711E0616867
S3152020F4700029EBD03988627F0D460904B2EB116F43
S3152020F4800AD1A37FE9B2994206D02046FFF7A8FFEA
S3152020F490A5772046FFF724FF02E16268002A1CBFD9
S3152020F4A0A1680029F8D025464FF000080124A86835
S3152020F4B00179884524D2806809FB08F23B78805C54
S3152020F4C083420BD1C009012819BF0120F0700121E8
S3152020F4D0B1703978286800F0C8FA044608F1010886
S3152020F4E0E5E76268002A1CBFA1680029D4D02546FA
S3152020F4F04FF0000A6FF001080124A86801798A4597
S3152020F50080F0CD8009FB0AFB8068397810F80B2023
S3152020F510914253D1286800F0B2FA39780446C909B5
S3152020F520012925D0F07800281EBFF1706A6942454E
S3152020F53044D0A868AB6900F0B6F800F058FA040069
S3152020F54011D069690391AA69002104928DF81410BB
S3152020F5507170686800281CBF0368002B03D003AA9B
S3152020F5600221284698470021C5F81480A96125E064
S3152020F570B07800281FBF0021B170EA6842451DD00F
S3152020F580A8682B6900F08FF800F02CFA040011D01F
S3152020F590E96803912A69002104928DF814103170AC
S3152020F5A0686800281CBF0368002B03D003AA01210A
S3152020F5B0284698470020C5F80C8028610AF1010AC0
S3152020F5C09BE739680A7802F01F02012A02BF0B79CD
S3152020F5D0627F934264D1487801280AD0022813D02A
S3152020F5E003281BD0092824D00A2844D00B2849D008
S3152020F5F053E04988090A8DF808103A6851886A46E6
S3152020F6008DF80910032122E0636804F11F020421EA
S3152020F61020461D68A84704F11F0108E0636804F10D
S3152020F6202002042120461D68A84704F12001796084
S3152020F63036E04A88120A8DF8082039684A888DF8DB
S3152020F6400920387B60B1B9686A460191092163682F
S3152020F65020461C68A04700997960019ABA601FE06D
S3152020F660796820460091BA68019263686A46062125
S3152020F6701C68A04714E0488804F11F020721000ACD
S3152020F680E07705E0488804F12002082184F820004C
S3152020F690636820461C68A04702E0052000E020463B
S3152020F6A007B0BDE8F08F8168286811F80B1001F0AB
S3152020F6B00F01704770B50E460C4C2168154609B1CE
S3152020F6C0022070BD214600F0AAFA010009D1206847
S3152020F6D008B9032070BD0020FF2166602077A1771E
S3152020F6E02C6070BDB9F2202091F220209CB82120D8
S3152020F6F010B5040001D1032010BDFFF771FE0021B3
S3152020F700216061602177A17710BD70B508B90320EB
S3152020F71070BD00F121052C780CB1022070BDAC788B
S3152020F72001262E701CB1C2600361002070BD0068C6
S3152020F73000F058F901001CBF0021297070BD70B55A
S3152020F74008B9032070BD00F122052C780CB10220C7
S3152020F75070BDAC7801262E701CB1426183610020D9
S3152020F76070BD006800F043F901001CBF00212970FC
S3152020F77070BD00001CB5044600F040F80021A160B1
S3152020F78084F8D51000F017F9002016BD2DE9FC418C
S3152020F79004000D461646984605F00F0108BF0320A3
S3152020F7A02AD0E06830B34B000C2143EAD5124A43D5
S3152020F7B0A718387F08B102201EE000F01FF801208C
S3152020F7C000F0F8F82906D4F80CC0A0684346324643
S3152020F7D0294603D5DCF80840A04702E0DCF80C5087
S3152020F7E0A8470446200006D000F008F8002000F0A4
S3152020F7F0E1F800E006242046BDE8F6816846FFF7BA
S3152020F80085BA08B903207047C36813B180685B693D
S3152020F810184706207047FEB50446002918BF002C3D
S3152020F82001D10320FEBD206908B90120FEBD0E7A34
S3152020F83001200C25F309102E06F00F021ED104F10B
S3152020F840D4060022F0700E2120460027FFF7D9FF8C
S3152020F85002200022B07000203270002305FB00F128
S3152020F860401C102821444B618F610A77F6D32369E7
S3152020F8700121204698470020F070FEBD082A19D283
S3152020F88043EA42036B4323445A699AB10D68009593
S3152020F8904A6801924D7A8DF80850487A00281DBF73
S3152020F8A00021217784F8281018779A695B696946A0
S3152020F8B020469847FEBD0000F8B5140005460E46A2
S3152020F8C001D10320F2BDFFF799FFA24B0021D822B8
S3152020F8D003F1080C02FB01F75CF8070020B103F1C5
S3152020F8E0D500C75DBD420FD0491C0129F2D99868A1
S3152020F8F0002100281EBF0121D3F8E000002807D0D0
S3152020F90000F059F80220F2BD00F055F80120F2BD92
S3152020F91012FB01F29F1887F8D55000F04CF83E6173
S3152020F92007F1D4060020757030700023F0708446CD
S3152020F9300C224243401CB91810284B61C1F818C02C
S3152020F9400B77F5D3022D18BF032D19D1DFF8081216
S3152020F95087A00029F8601CBF804A002A0BD0804847
S3152020F96000281CBF7F49002905D07F4800281CBFBE
S3152020F9707E49002909D13846FFF7FCFE0720F2BD33
S3152020F9803846FFF7F7FE0620F2BD2760FB6828469B
S3152020F99007F1080239461D68A847050006D03846D3
S3152020F9A000F00FF8002020602846F2BD022100201A
S3152020F9B0B170F2BD38770098FFF7ADB9002200214B
S3152020F9C01FE710B5040001D1032010BDE16821B145
S3152020F9D0A068496888470020E0602046FFF7CAFED5
S3152020F9E0002010BD01F00F0141F08001CEE601F08C
S3152020F9F00F01CBE670B508B9032070BD002918BFCA
S3152020FA00002A15D08C7804F00F03082B10D25D0025
S3152020FA100C2345EAD41400255C43031914685C6141
S3152020FA2056689E610A461D770221BDE87040E8E6A9
S3152020FA30042070BD73B504000E4606F00F0501D1D3
S3152020FA40032076BD01AA0321FFF7DBFE082D0AD26B
S3152020FA506A000C2142EAD61600234E43A1194B6197
S3152020FA608B610B7776BD042076BD02B501F00F01A0
S3152020FA70082902D26A4604210BE0042002BD02B5E1
S3152020FA8001F00F01082902D26A46052101E004204F
S3152020FA9002BDFFF7B6FE02BD0000000010B501230F
S3152020FAA00AB9042010BD891E062900F1D40419D8CC
S3152020FAB0DFE801F004061012080C14000F210EE0D6
S3152020FAC010210CE0A078002310700BE02178002371
S3152020FAD0117007E0062102E0072100E00921FFF747
S3152020FAE090FE0346184610BD0B460121032B10B568
S3152020FAF000F1D4040CD0062B0CD0072B0FD00A2BC8
S3152020FB001FD00B2B1FD00C2B17D00E2B17D01EE05F
S3152020FB10112119E0DAB110780021A07017E0A3781E
S3152020FB20032B07D09AB111780322A2702246217086
S3152020FB30142109E02246082106E00A2104E00B21AF
S3152020FB4002E00C2100E00D21FFF75BFE014608466E
S3152020FB5010BD0000A09C21204F112120FF11212023
S3152020FB605D122120671221206D1221208113212050
S3152020FB704F112120FF1121205D12212067122120E3
S3152020FB806D1221208113212038B504466846002590
S3152020FB90FFF7BCF8854901EB0511086810B18B7B6E
S3152020FBA09C4206D06D1C012DF4D900F003F90420C7
S3152020FBB032BD002008604860887300F0FBF80020E2
S3152020FBC032BD7CB500F025F878493201885818B125
S3152020FBD08818837B9C4203D0761C012EF5D913E00E
S3152020FBE028600098FFF797F8002076BD7CB500F0B6
S3152020FBF010F86E4801688C4202D100EB0610EFE720
S3152020FC00016901268C42F8D00098FFF784F8042059
S3152020FC1076BD04460D4668460026FFF777B87CB5A4
S3152020FC20FFF7F7FF61493201885818B18B189B7B63
S3152020FC309C4203D0761C012EF5D9E5E7D0E7F8B50E
S3152020FC400D46144601261CB16946FFF7CFFF08B1A1
S3152020FC500420F2BD002703E000B900267F1CFFB256
S3152020FC6000984068017A8F4211DA0C23006813FB32
S3152020FC7007F3C218926811790129EFD1001D224677
S3152020FC80C0582946FFF7C2FB0528E5D1F2BD3046EC
S3152020FC90F2BD7CB50D46044616466946FFF7A6FFFB
S3152020FCA0010011D1012D08D10099204600F08DFBAD
S3152020FCB0009A02212046FFF7C2FF009B20462946B4
S3152020FCC032465C686568A84776BD2DE9F84F0F4611
S3152020FCD05FEA020A814618BF002F01D0786808B94A
S3152020FCE0042061E06846FFF711F83049002201F12F
S3152020FCF00E051301C85810B1EB5C99450ED0521C45
S3152020FD00012AF6D90868002200281EBF0122086988
S3152020FD10002807D000F04EF8022045E000F04AF8EF
S3152020FD20012041E001EB021501EBC20101F1200285
S3152020FD3085F80E90AA6000F03DF86F602A461C498F
S3152020FD404846FFF7B9FD070007D02868FFF739FE98
S3152020FD504846FFF719FF384626E000270FF2E80825
S3152020FD601AE00C24002614FB07F46868330108EBFC
S3152020FD70030E9EF80CB0006801198A6812795A453C
S3152020FD8005D1001D021958F8033048469847761C9D
S3152020FD90012EEAD97F1CFFB26868017A8F42E0DB08
S3152020FDA02A680020CAF80020BDE8F28F30B721202B
S3152020FDB093FC20200098FEF7AEBF00002DE9FC41E1
S3152020FDC080466946FFF7FDFE05002BD15FF0000532
S3152020FDD01DA61AE00C27002417FB05F7009841687A
S3152020FDE00868210106EB010EC21993689EF80C20A3
S3152020FDF01B79934204D1001D331DC0595958884779
S3152020FE00641C022CEAD36D1CEDB2009841680A7A54
S3152020FE109542DFDB0068FFF7D4FD050004BF40468E
S3152020FE20FFF7B2FE2846BDE8F6811CB50C4669468A
S3152020FE30FFF7C7FE010005D100982246022100685F
S3152020FE40FFF72CFE16BD0000B5F62020F1F6202067
S3152020FE500DF420200100000000000000000000001A
S3152020FE6000000000000000002DE9FC4100F0A5F96B
S3152020FE7090466A4606210525FFF710FE9DF80020AC
S3152020FE80012A01D010002ED1387810F01F0F08D16A
S3152020FE90206804F10C020421FFF700FE0546207B92
S3152020FEA018E000F01F02012A02D10025A58114E0C6
S3152020FEB000F01F00022812D1B9880022ADF80620B2
S3152020FEC001AA8DF8041020680521FFF7E7FD0546D5
S3152020FED09DF8060000F00300A0810221316004F184
S3152020FEE00C02C8F800202846BDE8F6817CB50546D8
S3152020FEF00020ADF8000028680C460DF101020621ED
S3152020FF000526FFF7CBFD9DF80120012A03D01000FE
S3152020FF1001D0052076BD6078032804BF01218DF805
S3152020FF200010207810F01F0F08D16088012827D1D3
S3152020FF3028686A461421FFF7ACFE20E000F01F0057
S3152020FF40022804BF608800281AD1A18811F00F0F3B
S3152020FF500AD19DF800202868C9B2002A02D0FFF7CE
S3152020FF6084FD01E0FFF78BFD9DF80010286800290D
S3152020FF7019BF221D0521221D0621FFF760FE0646F8
S3152020FF80304676BD38B500F0BAF89DF80020032A11
S3152020FF900CD0012A18BF022A02D00AB1052032BD70
S3152020FFA068886A4607218DF800000BE02068002229
S3152020FFB00721FFF799FD010007D101206A468DF818
S3152020FFC0000006212068FFF78FFD32BD2DE9FF476F
S3152020FFD00446914600200D469A468DF8000020685A
S3152020FFE06A4606216F884FF00508FFF757FD9DF8D2
S3152020FFF000203E0A012A03D0100018BF022A38D139
S31520210000E888012E029002D101AA0B2127E0022E97
S3152021001004D18DF80C7001AA0C2120E0032E07D1E2
S315202100208DF80E70A98801AAADF80C100D2116E0C5
S31520210030212E03D1A88801AA0E2104E0222E05D142
S31520210040A88801AA0F218DF80C0008E0232E0AD1B9
S315202100508DF80C70A98801AA8DF80D101021206821
S31520210060FFF717FE80460198C9F800000299CAF8C1
S315202100700010404604B0BDE8F0877CB51E4600F04E
S3152021008064F800F014F89DF80020012A03D010000E
S3152021009001D0052076BD012104F10C00316004F147
S315202100A00C02286020681521FFF7F3FD76BD154641
S315202100B06A460621FFF7F2BC38B500F020F89DF8F4
S315202100C00020012A03D0100001D0052032BD0021B5
S315202100D000F00EF8688810B9012100F009F820688F
S315202100E0AA1C0321FFF7ABFD2068AA1C092149E0A0
S315202100F06A468DF8001020680621FFF7F5BC0023FB
S3152021010004468DF8003020680D466A460621FFF701
S31520210110C5BCF8B51F4600F018F80D461646FFF760
S31520210120C7FF9DF8000008B10520F2BD012104F189
S315202101300C00396016213060AA881202A28120681B
S3152021014004F10C02FFF7A5FDF2BD002304468DF82C
S3152021015000302068704738B5FFF7D1FF9DF80000A1
S3152021016008B1052032BDA978A88804F10C0241EAFC
S315202101700021A18120680421FFF761FD206804F177
S315202101800C020A21FFF785FD32BDF8B500F015F8DE
S31520210190FFF78DFF9DF8001009B10520F2BDB88823
S315202101A004F10C020821A0812068FFF777FC04F1D5
S315202101B00C01022229603260F2BD1E46002304462C
S315202101C08DF8003020680F46704738B50D468021BE
S315202101D0052A04460ED1287810F0600F05D0020694
S315202101E003D4E88808B103B900212046BDE834406C
S315202101F0FFF73BBC0599E8880A68904238BF08601A
S3152021020004980B68002102682046FFF7EBFB0100CA
S315202102100BD129780A0608D5204601B000230022D1
S315202102200021BDE83040FFF7E2BB32BD2DE9F84180
S31520210230144689B000220D46039205260492804653
S315202102408DF80820696811F1010F18BF002C0ED0F6
S31520210250A76802AA0621FFF721FC2A7ADFF8C4C162
S31520210260002A59D06868082801D1296809B90520AA
S315202102708EE0488878808A88BA80C888F8804A782B
S315202102807A70097811F0600F39700CD10D2A3ED27F
S315202102905CF82250002D3AD004AB03AA39462046D9
S315202102A0A847064633E0F0B108061CD48A0608D5AD
S315202102B000230124069301218DF8204000F071F8B6
S315202102C003E0480623D500F073F806463000079947
S315202102D0069A049103921AD1FB88039A002140465B
S315202102E0FFF785FB54E0880608D5002201230692D4
S315202102F001218DF8203000F054F803E0480606D578
S3152021030000F056F80799069A06460491039204A806
S3152021031003A90190002333E09DF80800032808D182
S3152021032020467C7804AB03AA39465CF82450A8479A
S315202103302CE0696800291CBFF888002827D0387846
S31520210340010624D482060AD52B680024069301218E
S315202103508DF8204000F01FF8FFF771FC0BE04006D6
S315202103600AD52A680023069213218DF8203000F021
S3152021037012F8FFF78EFC064604A803A90190012353
S315202103800091324639464046FFF71FFF0646304642
S315202103900AB0BDE8F081404605976A68079205AA0A
S315202103A0704740460597FA88079205AAFFF747BC6A
S315202103B000220123069213218DF8203040460597ED
S315202103C0FA88079205AAFFF764BC30B585B0164A8C
S315202103D002920123039100228DF8043080218DF889
S315202103E0032040238DF8052004468DF8021002AA09
S315202103F0ADF800306946FFF7FDFA010010D1002241
S3152021040069468DF8022002AA2046FFF7F3FA050055
S3152021041005D080212046FFF70DFB284600E000204D
S3152021042005B030BDC08F20202D02212070B586B089
S3152021043005466C6869462046F8F70CFE90BB3A4A79
S3152021044001A852F82460FEF71AFE00980190204652
S31520210450FBF712F8024601A93046FEF725FDF0B931
S31520210460AA6802212046314D904701212046FEF7D8
S31520210470EDFC4FF400113046FEF71FFEB06940F423
S315202104808020B061B1695A2041F40021B161A96867
S315202104908847AA68A62090470120285503E02046B0
S315202104A0F8F7BEFD002006B070BD10B504461F4AE0
S315202104B091606068A268012190476068F8F7B0FDD5
S315202104C0002010BD70B5044618496568485D48B1BD
S315202104D0154A002152F825602846FEF7B7FC3046FA
S315202104E0FEF7B3FD2846F8F7B3FD6068A268002120
S315202104F0BDE87040104710B544680B4B53F82400D3
S31520210500FEF7FAFD002010BD10B5094C2046FEF756
S31520210510EBFD810206D5E069044A9168BDE81040C9
S31520210520C0B2084710BD0000588E20204CB1212092
S315202105300040184010B59349CA68136903F1800415
S315202105402046FBF721F8002802BF21688E488142E8
S3152021055004D0FF2234212046FBF71EF8FAF7A8FF04
S31520210560002010BD38B5FFF7E5FF864A4B23D0681A
S315202105700224502501690720CB7000238C70012489
S31520210580487002200B708C715424487101200B7104
S31520210590CC727E4C4B720B727D4B887248647D489F
S315202105A08B647D4B0C677D4CCD71486700208B6712
S315202105B0CC675369C860002407E091F89050054222
S315202105C002D0CD682843C860641C1820604318587F
S315202105D00028F2D172480368CB6400690865526805
S315202105E013688B6254681068241A641C4C6302F1C8
S315202105F010000368CB6244680068241A641C8C634B
S3152021060002F1200002680A63436800681B1A5B1CFA
S31520210610CB63002032BD2DE9F8438846144659493B
S315202106200426CA6801281D46DFF87891176907EB49
S31520210630880216D002281BD0072829D00A2829D09B
S315202106400B2829D00C282FD00E2813D00F2818D0CC
S3152021065011282CD0122830D0182831D0192831D061
S3152021066039E005B12E6004B127600020BDE8F28370
S315202106700C37F6E7B8F1030F34BF02F128072837E4
S31520210680EFE7B8F1030F34BF02F134073437E8E737
S315202106904837E6E74437E4E7C86941694A6990471C
S315202106A0C9F800004F46DCE710267037D9E7FAF75C
S315202106B00FFF0028F4D00120F2E708264C37D0E797
S315202106C00837CEE7B4373946404600F01DF80028D2
S315202106D0CCD11826C5E742F63C00C7E7401E0128A3
S315202106E00CD9801F0AD0C01E022884BF001F0228D1
S315202106F004D9001F02D0801F012802D842F63D00CE
S31520210700704742F63C007047F8B588B002460E463F
S31520210710254C00E008342CB1606800281CBF2168D4
S315202107209142F7D165680DB9042028E0182102A845
S31520210730F9F756FC69460020A8470098F8B9002108
S3152021074003AD02910127002201A90192636838464F
S31520210750984740B90198012228600299781E824043
S315202107601143029101E0002028602D1D7F1C062FB8
S31520210770E9D3182202A93046FAF7E6FB002009B070
S31520210780F0BD0000108021206B6366670084202045
S31520210790DF6F05006820212000802120EFD4212031
S315202107A010441F404CB221206C8D2020C049D1F805
S315202107B04824531C0A44C1F8483482F80002D1F84F
S315202107C0480400F03F00C1F84804704700207047D4
S315202107D0F6E02DE9FE4F0E0014469A4614BF002C52
S315202107E0042065D00020B24D206005F58A62507024
S315202107F000F0E6F800285BD1DFF8B8824FF40079C3
S31520210800274631E000F056F8BDF808100028ADF84B
S31520210810021043D1084640F201229042A8BF484601
S31520210820ADF8020000F046F8BDF80810ADF8041026
S31520210830A0BBBDF802405CB1A34659462846F9F72C
S31520210840CFFB0A20594644432846224600F0D1F8B8
S3152021085020BB2946684600F043F9BDF804108142A1
S315202108601ED0A22000F080F849462846F9F7B8FB89
S31520210870684600F023F90028EAD19DF80100A62830
S3152021088004D1D8F81C0000F07FF8E1E7A421BAF1C1
S31520210890000F18BFA5218842B4D00120002106E0EF
S315202108A0012085F8500400203560BDF802103960FA
S315202108B0BDE8FE8F1422022102A89AE0F8B50C0089
S315202108C015461E4642D040F2012085423ED200F0F6
S315202108D077F800283ED1764991F8510410B10022AB
S315202108E081F8512401F510775A20A42338707B7082
S315202108F00EB1A5227A707D8001F2462625B12A469F
S3152021090021463046FAF720FB3146384600F0E8F8F2
S31520210910B880A91D384600F061F8D8B9684600F09C
S31520210920CDF8B8B99DF80100A1280BD0A2280BD16A
S3152021093079883846891D00F051F858B99DF801006B
S31520210940A228EBD00020F2BDA32801D00420F2BD9D
S3152021095042F21270F2BD58480121002281700270A4
S3152021096070474FF4007070471CB55A228DF801004C
S3152021097001234F4C8DF80020022184F851346846FA
S3152021098000F02CF816BD000038B504464A4A1078E6
S3152021099000281CBF5178002901D0907868B9236995
S315202109A05FF002025CA120465D68A84723692046A4
S315202109B05FF0080256A15C68A04742F2137032BD4F
S315202109C03D49087818B10022A1200A7004E08878D0
S315202109D018B10022A3208A70C6E7704710B5354B7F
S315202109E00A46DB6901461C6918466368BDE8104042
S315202109F018472DE9F24F84B0824614460027F8F78E
S31520210A0001FCCDE90001BFF36F8F4FF47A70DFF837
S31520210A10A0B060430BF58966F8F7FEFBDDE90023DC
S31520210A20CDE9022310E070683168884211D05844FC
S31520210A3090F800020AF8070071687F1C2046491C9D
S31520210A4001F03F0171602946049A97422BD0044632
S31520210A500D46F8F7D7FBCDE90201DDE90223DDE9D1
S31520210A600001101A63EB0101DDE90289DDE900238A
S31520210A7099450DD828BF90450AD2DDE90223DDE923
S31520210A800001C043C94310185941401C61F1FF316F
S31520210A90002D08BF002CC6D0A942C4D301D8A0421C
S31520210AA0C1D3052000E0002005B0BDE8F08F00006D
S31520210AB0D8B221201080212028B7212010B5044624
S31520210AC0002201212046FFF794FF40B922785A2A95
S31520210AD0F6D1601C0A220121BDE8104089E710BD0C
S31520210AE038B504460D46684600F017F804222146FB
S31520210AF0684600F015F862882946684600F010F805
S31520210B000DF10201684600F022F8BDF8020032BD3F
S31520210B10000201500000AAEA5AA70021018070474D
S31520210B2070B5048800250EE04B5D84EA0324082352
S31520210B306600240444BF86F4805686F021065B1E77
S31520210B403446F5D16D1C9542EED3048070BD0088C4
S31520210B500880704772B60548054901600A6882F304
S31520210B6008880448804762B60348004708ED00E01C
S31520210B7000842020670C2120131E212000480047B5
S31520210B8019F12020004800472BF12020004800475A
S31520210B9035F12020004800473FF12020004800471A
S31520210BA049F120200048004753F1202000480047E2
S31520210BB05DF12020004800470F1E212000480047D4
S31520210BC00F1E2120004800470F1E212000480047E4
S31520210BD00F1E2120004800470F1E212000480047D4
S31520210BE00F1E2120004800470F1E212000480047C4
S31520210BF00F1E2120004800470F1E212000480047B4
S31520210C000F1E2120004800470F1E212000480047A3
S31520210C100F1E2120004800470F1E21200048004793
S31520210C200F1E2120004800470F1E21200048004783
S31520210C300F1E2120004800470F1E21200048004773
S31520210C400F1E21201048114B81688160026842F0D5
S31520210C5020020260436001680A05FCD5036823F05F
S31520210C6080030360704780B5074801680A0648BF9C
S31520210C70FFF7E8FF06480168CA0703D503685B0822
S31520210C805B00036001BD000000C00B4020C528D9B0
S31520210C9010E000E005207047087A10B9354A4C2328
S31520210CA010E005207047052070473348122208603E
S31520210CB000204A607047087A10B9304A292301E07A
S31520210CC0052070470A604B60704710B5887A2C4AF8
S31520210CD028B91068086052684A60002010BD9268C1
S31520210CE00B891489A3420AD1042808DA136853F8F8
S31520210CF020400C60526852F820004860EDE705201C
S31520210D0010BD02291D4870B500F1210209D1032405
S31520210D10F82580F82040C577147094715571D471C7
S31520210D2009E000234024012580F82030C47715705E
S31520210D3093715471D57100230622402602FB03F4B8
S31520210D400229044406BF4FF47E75E585E6855B1CA2
S31520210D50012BF3D9002302FB03F40229044406BF05
S31520210D604FF40075658766875B1C012BF3D900201C
S31520210D7070BD00000C812120588121209C802120BA
S31520210D806082212070B5C16801220161C36803EB0D
S31520210D904214521C102A0C600968F7D30022102312
S31520210DA00A6000F194010B704268D2F8404124F484
S31520210DB07F04C2F840414268D2F84031C2F840311E
S31520210DC04268D2F8A84144F00804C2F8A8414268F2
S31520210DD0D2F8A83123F00403C2F8A831002285686D
S31520210DE09301012405F10806F45085684024EE5824
S31520210DF064F31A4600EB8204EE5000250026521C8D
S31520210E0065616665846823449D6B6D086D00102A93
S31520210E109D63E4D343688268C3F8582142684723F7
S31520210E20C2F854614068C0F848318E7070BD2DE9F2
S31520210E30F041CC09CF08064601F00F0844EA4805BF
S31520210E4007F01007B2680120474400FA07F7AD01E1
S31520210E505019836B5B085B008363304600F006FAEA
S31520210E60706800F5D8710A683A4206BF8B683B4202
S31520210E70022019D1B3680022B8F1000F5A516FF020
S31520210E808C026FF40C0305D104B11A46086902407D
S31520210E900A6108E004B11A4600EB8800D0F8C01197
S31520210EA00A40C0F8C0210020BDE8F0812DE9FE438B
S31520210EB090468946064608EB490706EB8705002119
S31520210EC0009101914FEA871734E00068686111E0AB
S31520210ED000F05CFD6869696D8842F6D10020002208
S31520210EE0686101216A65B06800F10803D951B168AA
S31520210EF0C919CA606168C1F3C03018B96869400947
S31520210F0040010DD1002349EAC8118DF809308DF809
S31520210F10081030686946FEF77EFC00230093019372
S31520210F20002060603169216096F894003461401C6C
S31520210F3086F894006C696409640108D000F01BFDD1
S31520210F4061680806C4D54FF0FF320192C2E7BDE899
S31520210F50F7832DE9F04F04468A464FEA4A00984600
S31520210F6000F01E00C908174640EADA190AF00F06D2
S31520210F7001F0100108F57C55FF3585B000220120AE
S31520210F808E1900FA06F60392AD0B8DF804200292F3
S31520210F900CB90320D9E0A0684FEA891B584490F860
S31520210FA03810CA0703D504F19403987808B1012093
S31520210FB0CBE005B901256846FDF7A8FE94F89400F3
S31520210FC0BC46A84203D200F0D8F90220BDE0404613
S31520210FD0DDF81080039A9DF804E02569B0F5804F4D
S31520210FE02B68236104F194031F788CBF4FF4804131
S31520210FF00146401A7F1E1F7002B9A84601232B6085
S3152021100000236B600CEB0203AB60AF6807F58057BA
S315202110103F0B3F03EF60EB6803F580532B612F696C
S3152021102007F580576F616B69874F03F58053AB6155
S315202110306B6861F31E436B60EB6961F31E33EB61D1
S315202110403B40AF68C7F30B073B43EB6118B96B688D
S3152021105043F400436B606F6880238A1863F3070784
S315202110606F6004EB89077B6D0BB11D6002E07D610A
S315202110704FF0010E7D650028AFD10AF08F00802820
S3152021108023D1A0684FEA4A0202F01E0300EB831205
S315202110905844836B3032C3F34000002818BF0029FF
S315202110A013D0D088814210D2A26852F80B00C0F307
S315202110B00A40B1FBF0F200FB121131B9A06850F8B9
S315202110C00B1021F0005140F80B10BEF1000F18D162
S315202110D06068D0F8B011314234D16068D0F840111F
S315202110E041F48041C0F84011606800F5A070816FFD
S315202110F002685304F1D50268314222F4804202600B
S3152021110020D1A068002200F1080141F80B80A368B4
S3152021111003F10C004D4B40F80B206068C0F8B061FC
S31520211120029803E0CA6832420CD10E60616801F54B
S31520211130D8718A68324205D1401C9842F2D100F0FA
S315202111401CF934E700F019F9002000F00BBCF8B5A2
S3152021115006460FF65003022E1D681446009500DB25
S3152021116001D00620F2BD3A4F00253B78002B1EBF29
S3152021117001257A78002A2BD101229C237A552A46C9
S315202111805D433F1D334B03EB42233D44EB60324B02
S3152021119003EBC222AA6005F195029070684600EB06
S315202111A0860353F8080C6860D0F8406146F00206A1
S315202111B0C0F84061686800F59270C3699E07F9D42A
S315202111C0006800F01F000828107003D20120F2BD0C
S315202111D00320F2BD68682960D0F8A8118908890002
S315202111E0C0F8A8116868D0F8A81141F00201C0F80A
S315202111F0A8112846FFF7C6FD25600020F2BD30B58F
S3152021120008B9032030BD124A0021131D00259C2434
S315202112104C431C44A04208BF5554491C0129F6DDE4
S315202112204268C2F848514168D1F840315B085B00D9
S31520211230C1F840314068D0F8401141F00201C0F890
S315202112404011002030BD000000F0FF7F80969800DD
S3152021125060B72120009821200088212001F00F014C
S3152021126041F0800175E601F00F0172E62DE9F84380
S315202112708846C908054608F00F0701F0100101200C
S31520211280CF1900FA07F74FEA480000F01E0084B074
S3152021129040EAD8190DB903206CE0684605EB89068A
S315202112A0FDF734FD00214FF0FF3201910292706942
S315202112B004E0C16941F00041C16100684009400153
S315202112C0F7D145E00168716125E0E069C00F4ED074
S315202112D0616808060ED56868D0F8B4113943C0F87C
S315202112E0B411686800F5DA7001683942F9D142688B
S315202112F03A42F0D1019838B9A168E069090BC0F3C7
S315202113000B0040EA013101917069716D8842D9D172
S315202113100020706170656168C1F3C03018B97069A9
S31520211320400940010AD100208DF80C808DF80D004E
S31520211330286801A9FEF76FFA00200190002161603B
S315202113402869206095F894102C61491C85F8941001
S31520211350746964096401B8D1A9684FEA8914012006
S31520211360002301F108021051A8682044C36000F02F
S3152021137004F8002005B0BDE8F0830098FDF7CBBC2A
S315202113802DE9F84F0646084601210EB903206DE1C5
S3152021139014284FF4803B144600F26781DFE810F0D1
S315202113A015001C002400B600BE00F60026012A01E5
S315202113B06401650165016501650165014E016001D3
S315202113C065016501650165014401706800F5A0701C
S315202113D0016841F0010105E0706800F5A0700168FF
S315202113E04908490001603FE1002C00F03E81A178A7
S315202113F00120CA0802F0100901F00F0BD94400FA86
S3152021140009F92088CD0945EA4B07C0F30A0AE07875
S3152021141000F003083046FFF729FF706800F5D870E1
S31520211420016811EA090F04BF806810EA090F6BD100
S31520211430BF01B8F1010F0ED140F201418A45208822
S31520211440B16828BF4FF4806ACA59C00A401C60F38C
S315202114509F72CA5104E0B068C15921F04041C1515F
S31520211460B068C2596FF31A4242EA0A42C251B168A0
S31520211470207901F138023831D3594FEA8802BBF15C
S31520211480000F42F0C00260F341034FEA8840CB515E
S3152021149040F4400011D1B168CB5943F00053CB51D0
S315202114A0B168CC5944F40044CC514DBB7068D0F876
S315202114B0C0311A43C0F8C02119E021790029B16829
S315202114C0CC590CBF4FF00053002324F00054234362
S315202114D0CB51B168CB5923F40043CB5195B97068D0
S315202114E000F5E07050F82B100A4340F82B20B06805
S315202114F000F138023830D15941F00101C151B3E010
S315202115000246D3E70246EAE70221AEE0002CFCD0D0
S3152021151021783046FFF78BFC0146A6E0002CFCD033
S315202115202178304601F00F04CD09FFF79FFE45EAC9
S315202115304401B06889014258C2F3C03068B170684D
S3152021154024B9D0F8C01141F001110FE000F5E07067
S3152021155050F8241041F0011115E054B90DB94FF07E
S31520211560010B7068D0F8C0114BEA0101C0F8C011F7
S315202115707AE00DB94FF0010B706800F5E07050F854
S3152021158024104BEA010140F824106DE0002C6CD088
S3152021159022786FF001036FF4803402F00F01D00915
S315202115A041B900B123467068D0F8C0110B40C0F86C
S315202115B0C03116E000B12346746804F5E07454F86E
S315202115C021502B40002844F82130736803F5E0731D
S315202115D053F8214014BF4FF480004020204343F884
S315202115E0210011463046FFF741FE3DE0002C3CD03C
S315202115F0218039E0002C38D0207800F00F02C00954
S31520211600082A32D27168002A1ABF01F5E07151F8F1
S315202116102210D1F8C01108B94FF0010B1BEA0100A5
S3152021162018BF012060801FE0FCB120787168400638
S3152021163040F0807001F5A072506115E0002444F03D
S315202116408001C9B23046FFF7F2FBE1B23046FFF7FF
S31520211650EEFB641C082CF2D33046FFF793FB03E004
S315202116601CB196F89800207000210846BDE8F28F1B
S31520211670002800D170472DE9F04F85B08768796819
S3152021168001F5A2710A68486807F1940B024003927A
S31520211690039A0A600398410628D57868D0F8AC21A8
S315202116A0C0F8AC217868D0F8BC11C0F8BC117A6892
S315202116B04FF0FF10C2F8B401796801F5C271C86AEA
S315202116C030F0FF20F3D10968C80503D501228BF814
S315202116D002200BE0102300218DF808300091019182
S315202116E08DF8091038686946FEF795F8039AD007D0
S315202116F040F118817968D1F8AC41002C4AD00025D7
S3152021170024FA05F0C00742D5B9686E0601EB964149
S3152021171001F13008E9B298F800004FEAD01A524672
S315202117203846FFF7C3FB8AF00102E9B23846FFF7B4
S31520211730BDFB082201238DF8085003FA05F0CDF8C8
S31520211740008001928DF809307968C1F8AC0178685A
S31520211750D0F8401141F40051C0F84011B86800EB8F
S315202117609640816A0163BA6802EB9640C36A436355
S315202117707868D0F840118A04E9D5D0F840316946F5
S3152021178023F40053C0F840313868FEF744F86D1C25
S31520211790082DB5D37868D0F8BC110491C0F8BC11B6
S315202117A00498002800F0BE804FF00008049820FA03
S315202117B008F0C10740F1B080B8F1100F05D3A8F188
S315202117C01005EDB24FF0010902E045464FF0000920
S315202117D0082D80F0A180002100910191A5B9B9F1B0
S315202117E0000F11D0B8684FEA89110844826BC2F3E1
S315202117F0400048B1B8684258C2F3407020B9B86851
S31520211800425842F00052425009EB4500C0B24FEAFD
S31520211810801A07EB80067069400940017CD07169E6
S3152021182000E00968490949010FD04868020604D415
S315202118304868C0F3C0300028F3D04A6810066BD41C
S315202118404968C1F3C030002866D0746964096401EF
S3152021185062D026E06068010623D505EB0910012216
S315202118607B6802FA00F0C3F8B0017968D1F8B82173
S31520211870024216D1796801F5D8710A680242F9D156
S31520211880896801420DD1BA68002102F1080343F883
S315202118900A40D7F808C0D444CCF80C107A68C2F88C
S315202118A0B00161680A06BAD400F065F800F06EF836
S315202118B07069716D88420DD100200022706101214D
S315202118C07265B86800F1080343F80A10B9685144D3
S315202118D0CA6001E0006870616168C1F3C03018B93F
S315202118E070694009400109D1002245EAC9118DF8C4
S315202118F0092000F03AF80021009101910021616030
S31520211900386920603C619BF80020521C8BF800200E
S315202119107469640964019DD108F10108B8F1200F89
S31520211920FFF444AF039841071CD5002200230092DF
S3152021193001938DF809207868D0F88411CA0511D42D
S31520211940D0F88401810546BF02228BF804208BF82A
S3152021195004309BF8020028B1102100F006F800205F
S315202119608BF8020005B0BDE8F08F8DF80810386895
S315202119706946FDF750BF009838B9A168E069090B7F
S31520211980C0F30B0040EA013100917047E0690199CB
S315202119906268C0F312304118C2F30E40091A019130
S315202119A07047000000002E40DFF8AC03DFF8AC239F
S315202119B0017B00235370117090F8210410B1080087
S315202119C018BF0120704770B5002406460846012815
S315202119D0DFF88433114603F5846514D009281ED0F7
S315202119E00A2827D00B2845D00C2848D00D284BD0A3
S315202119F00E284ED00F2851D0102854D0152827D064
S31520211A0016282AD054E06C7029460220FEF70DFABA
S31520211A1000284DD129783046FFF773F948E000296F
S31520211A2046D0012068700A789868AA700978FDF74F
S31520211A30FDFB3DE0687800283AD008880246000A56
S31520211A4036D19868EA70D2B20021FDF705FC2FE045
S31520211A5000292DD0A87808702AE0002928D00A88C4
S31520211A60130A05D1E87802F47F4202430A801FE057
S31520211A7005241DE0E1B13046FFF717F917E0B9B18A
S31520211A803046FFF718F912E091B13046FFF71DF9DC
S31520211A900DE069B13046FFF7FDF808E041B1304647
S31520211AA0FFF7FAF803E019B13046FFF7FCF80446B0
S31520211AB0204670BDF8B500BFB5A2A74D127840F2D9
S31520211AC024412846A64E8DF800201446F8F788FA98
S31520211AD0F7F737FC0028F06800690CD190F89010B0
S31520211AE001F0EF0180F89010F0680069C16821F0BB
S31520211AF01001C16026E030F8941F4FF6FF7243880B
S31520211B00934208BF914209D0964A11720188090A47
S31520211B105172438893724188090AD172406805F52A
S31520211B208461914E10F1010F08BF904800220A804E
S31520211B303146AA602A608E4A10602A460220FEF784
S31520211B40C4F808B10120F2BD306841682846A96051
S31520211B50FDF791FB210003D44022864B5A5406E0FF
S31520211B60854F01F00F0C4026BC440CF8046C08D498
S31520211B70012004F01F0400FA04F4804A490942F89E
S31520211B8021402868FDF71AFF0020F2BD70B50446D2
S31520211B900220FEF713F930BB6F48FDF770FB616811
S31520211BA07748012230F911100B000BD401F01F05C3
S31520211BB002FA05F5734E490946F82150BFF34F8F96
S31520211BC0BFF36F8F616830F911100B0006D401F035
S31520211BD01F0082406C4C490944F821206B4801683A
S31520211BE089088900016070BD5C48002101700122AD
S31520211BF042700270704710B5574C002104F1140031
S31520211C00F9F7A8FA002104F11800F9F7A3FA04F14B
S31520211C101400F9F7B2FA002010BDF8B50C001546CC
S31520211C2018BF002D01D10420F2BD0020286013B158
S31520211C30012B02D02BE0012600E00226474801781D
S31520211C4059B3454FB87B38B1B8684FF47E7307F145
S31520211C5020020221FDF773FD01204FF0FF31B873D9
S31520211C6007F11400F9F77BFA97F82000B04204D047
S31520211C70012E08BF02280AD15AE007F12201FA696A
S31520211C800878497840EA0120121F824201D2012098
S31520211C90F2BD07F12401216028600020F2BDF8B5AC
S31520211CA00C462E490878154600283FD040F2F532B9
S31520211CB0954201D30420F2BD13B1012B0BD00CE0A8
S31520211CC00327F9F76CFA244E707B40B100217173FA
S31520211CD0F9F768FA2CE00427F3E70120F2BDF9F79A
S31520211CE061FA06F1210000212A0A002C86F82070AB
S31520211CF0017018BF002D4570827005D02A462146D5
S31520211D0006F12400F9F720F996F81A0401280DD1B5
S31520211D10B0684FF47E7306F120020121FDF7F5FC10
S31520211D204FF0FF3106F11800F9F719FA0020F2BD1C
S31520211D3042F21270F2BD38B54469002300220021F7
S31520211D40A568A84731BD002070474FF47D707047A4
S31520211D5001480068FFF78CBCC4B82120E8BC2120AB
S31520211D6010802120588121203C8021206082212021
S31520211D702CB7212000E400E018ED00E000E100E08E
S31520211D807082212080E100E080E200E080C00F40C7
S31520211D907100000000F00DF8002801D000F00CF8A9
S31520211DA0AFF300800020AFF30080F9F71EF9F9F791
S31520211DB0CFF901207047000010B507497944183121
S31520211DC0064C7C44163404E00A68081D11448847D1
S31520211DD00146A142F8D110BDC0000000DC00000060
S31520211DE013460A460146184680B503E013460A469D
S31520211DF080B51946F9F7A8F8002002BD10B514467A
S31520211E000A4621460123BDE81040F6F7F9BCFFF723
S31520211E10FEBFAFF30080AFF30080FFF7BBFFF0B426
S31520211E200246106895681318506803EB5004C007C2
S31520211E301CD54D441AE013F8017B05F8017B491E78
S31520211E40F9D198B113F8011BC6F38106032E08BFD9
S31520211E5013F8016B01EB06214942801C294405D048
S31520211E6011F8016B05F8016B401EF9D1A3420ED062
S31520211E7013F8016B16F0030104BF13F8011BC91CCB
S31520211E8030090F28DBD113F8010B0F30D7E7F0BC2F
S31520211E9002F10C00704700004F81FFFFEC34000057
S31520211EA0008821200000000077FFFFFF0C000000A2
S31520211EB060030000008021201003DD982020EB0400
S31520211EC010137C8820206C9C2120588F202048802C
S31520211ED0212060B12120900C12000C132489085155
S31520211EE00143B5F10C100304812120301C5003C776
S31520211EF0192120011D1003FFFF0300110C22743824
S31520211F001001000020108220101220109223102070
S31520211F10040060FFFFFF6F3B833C8E606101202719
S31520211F2040DCB31109022900010100C03209040055
S31520211F30000203000003092100010001224C0007B1
S31520211F4005810340000107050207113D210F2125A7
S31520211F50210623830206320406210112020812C811
S31520211F60AC210F1146400100E080B4210412F00C6F
S31520211F7022FC10110DE0180600FF0901A10185019F
S31520211F8019012901150026FF00752895CB91028577
S31520211F900211B20311D00281028504113001C0122F
S31520211FA00177100240A2157309120103119210081C
S31520211FB00309043A03460052004502100553004303
S31520211FC00041004C0A12200C100345004D004912F5
S31520211FD010054F004E004400550A12540C12521C73
S31520211FE0124912100143002E4D10012A03552A129F
S31520211FF04214212810014D005006125320325444F8
S3152021200012440632564412452C10012E034D0A1233
S315202120105518124814124408124718124E043252E7
S3152021202024E13010012203428E21281253502124EB
S31520212030124E32C101158623003A8821602134119E
S31520212040041A6C0812700412AC0412D80410030866
S315202120508221204004122C0425B7212021384754DF
S30D202120608274000280FF710049
S70520210B5559
