S0130000666C6173686C6F616465722E737265638C
S3152020A000D85A0020056B21207BAC2020CD4D212045
S3152020A0107BAC20207BAC20207BAC202000000000C5
S3152020A0200000000000000000000000007BAC202083
S3152020A0307BAC2020000000007BAC20207BAC2020A5
S3152020A040617C2120617C2120617C2120617C212052
S3152020A050617C2120617C2120617C2120617C212042
S3152020A060617C2120617C2120617C2120617C212032
S3152020A070617C2120617C2120617C2120617C212022
S3152020A080617C2120617C2120617C2120617C212012
S3152020A090C36421202D6B2120356B21203D6B21206F
S3152020A0A0456B21204D6B2120556B21205D6B212076
S3152020A0B0656B21206D6B2120756B21207D6B2120E6
S3152020A0C0856B21208D6B2120956B21209D6B212056
S3152020A0D0A56B2120AD6B2120617C2120617C212054
S3152020A0E0617C2120617C2120617C2120617C2120B2
S3152020A0F0617C2120617C2120617C2120617C2120A2
S3152020A100617C2120617C2120617C2120617C212091
S3152020A110617C2120617C2120617C2120617C212081
S3152020A120617C2120617C2120617C2120617C212071
S3152020A130B56B2120617C2120617C2120617C21201E
S3152020A140617C2120617C2120617C2120617C212051
S3152020A150617C2120617C2120617C2120617C212041
S3152020A160617C2120617C2120617C2120617C212031
S3152020A170617C2120617C2120617C2120617C212021
S3152020A18033B12020617C2120617C2120617C21200B
S3152020A190617C2120617C2120617C2120617C212001
S3152020A1A0617C2120617C2120BD6B2120C56B212053
S3152020A1B0617C2120617C2120617C2120617C2120E1
S3152020A1C0617C2120617C2120617C2120617C2120D1
S3152020A1D0617C2120617C2120617C2120617C2120C1
S3152020A1E0617C2120617C2120617C2120617C2120B1
S3152020A1F0CD6B2120617C2120D56B2120DD6B212078
S3152020A200617C2120D17B2120E56B2120ED6B212033
S3152020A210617C2120617C2120617C2120617C212080
S3152020A220617C2120617C2120617C2120617C212070
S3152020A230617C2120617C2120617C2120617C212060
S3152020A240617C2120617C2120617C2120617C212050
S3152020A250617C2120617C2120617C2120617C212040
S3152020A260617C2120617C2120617C2120617C212030
S3152020A270617C2120617C2120617C2120617C212020
S3152020A280617C2120617C2120617C2120617C212010
S3152020A290617C2120617C2120617C2120617C212000
S3152020A2A0617C2120617C2120617C2120617C2120F0
S3152020A2B0617C2120617C2120617C2120617C2120E0
S3152020A2C0617C2120617C2120617C2120617C2120D0
S3152020A2D0617C2120617C2120617C2120617C2120C0
S3152020A2E0617C2120617C2120617C2120617C2120B0
S3152020A2F0617C2120617C2120617C2120617C2120A0
S3152020A300617C2120617C2120617C2120617C21208F
S3152020A310617C2120617C2120617C2120617C21207F
S3152020A320617C2120617C2120617C2120617C21206F
S3152020A330617C2120617C2120617C2120617C21205F
S3152020A340617C2120617C2120617C2120617C21204F
S3152020A350617C2120617C2120617C2120617C21203F
S3152020A360617C2120617C2120617C2120617C21202F
S3152020A370617C2120617C2120617C2120617C21201F
S3152020A380617C2120617C2120617C2120617C21200F
S3152020A390617C2120617C2120617C2120617C2120FF
S3152020A3A0617C2120617C2120617C2120617C2120EF
S3152020A3B0617C2120617C2120617C2120617C2120DF
S3152020A3C0617C2120617C2120617C2120617C2120CF
S3152020A3D0617C2120617C2120617C2120617C2120BF
S3152020A3E0617C2120617C2120617C2120617C2120AF
S3152020A3F0617C2120617C2120617C2120FFFFFFFFC1
S3152020AC00002A01D101207047F0B41F4603460324B1
S3152020AC102340002B09D00424E31A01700130082494
S3152020AC20E141521E26D05B1EF7D1042A1ADB13D00F
S3152020AC30002F11D00C460D460E46102A02DB72C07C
S3152020AC40103AFAE70C2A02DB32C00C3AFAE7082A35
S3152020AC5002DB12C0083AFAE7042A03DB016004303B
S3152020AC60121FF9E7002A05D0017001300824E1419E
S3152020AC70521EF7D1F0BC00207047FEE74DB72020AA
S3152020AC80000000007BB7202000000000B1B8202063
S3152020AC904BBA20203DB8202051B9202029BB202086
S3152020ACA0000000000000000000000000B3B72020B4
S3152020ACB0000000008BB7202051B9202049BB20203E
S3152020ACC000000000A3BB20200000000001B72020A8
S3152020ACD000000000E3B72020000000000000000054
S3152020ACE000000000CFBB2020000000001BBC20203D
S3152020ACF00000000047BC20204BBA2020F9B7202096
S3152020AD0000000000000000000000000057B82020AE
S3152020AD103BB9202009000000F5C3202010010000A7
S3152020AD20E5C7202020010000DDCE202000000000E5
S3152020AD30000000005FBF2020F1C0202009C1202074
S3152020AD4089C120203DC2202041C32020E563212027
S3152020AD50616421207D642120000000000000000085
S3152020AD60B164212039D7202091D42020E9D4202055
S3152020AD70CFD520200BD620201BD6202069D52020D9
S3152020AD80ED0E2120F10E2120FD0E21200D0F212058
S3152020AD90000000000000000001000000010000006B
S3152020ADA0CDB020204CAD20205CAD202010AE202020
S3152020ADB010000000010000000000000048AE202006
S3152020ADC00000000058AE20200000000000000000F7
S3152020ADD0000000000000000000000000000000002D
S3152020ADE00D65212029652120D965212097662120DE
S3152020ADF0AC2C0020C7CB202005CD20209FCD202085
S3152020AE0067CE20200FCC202049CE20205BCE2020AC
S3152020AE10896721208F672120FB67212093682120A5
S3152020AE208D6721209F6821206967212071C52020D8
S3152020AE307BC5202095C5202063C620200FC7202033
S3152020AE4011C62020000000002578212031792120DC
S3152020AE500B7A2120697A2120777A21209B7A21203A
S3152020AE601F7B2120B77B2120C77B2120CB7B212044
S3152020AE700000000038B504463E4D00202862C5E972
S3152020AE800000C5E90200C5E9040068623A4800F0DE
S3152020AE90ADF8C5E9060120460FF25D01BDE8344034
S3152020AEA000F054B900F068B970B50C46314E316ABD
S3152020AEB0072904BF756AA8421BD100F0C6FA0546A9
S3152020AEC0C5EB0515D6E90023D6E9020182184FF4F1
S3152020AED09666B5FBF2F00A250A2368434FF496625C
S3152020AEE0B0FBF6F6761D0020B6FBF3F35343236022
S3152020AEF070BD012070BD00002DE9F8431D4F064688
S3152020AF0000F06AF83A6A0446D7E904598846521C62
S3152020AF10651BD7E9060168EB0909494502D82CBFEC
S3152020AF20A8420122012A3A6206D0042A08D0052AFC
S3152020AF300ED0072A0FD018E0C7E900487E6214E019
S3152020AF40D7E90023A21A68EB0303C7E900230CE004
S3152020AF50C7E9024809E0D7E90201201A68EB010176
S3152020AF60C7E90201304600F007F9C7E90448BDE8E1
S3152020AF70F1830000001800208038010010B52C48ED
S3152020AF802C4A0168002341F44051016000201060C2
S3152020AF9029484FF0FF31012201618361C261846912
S3152020AFA044F004048461826942F0010282610160D6
S3152020AFB00121C160816000F048FAC0001F49B0FB22
S3152020AFC0F1F000B901201E4A906010BD1948016891
S3152020AFD041F002010160704781B01A480168426839
S3152020AFE00092009801B0C943C043704714498A682B
S3152020AFF0A2FB0001C00840EA4170C908704738B555
S3152020B0000446FFF7E9FF00F00BF8241841EBD5059D
S3152020B010FFF7E2FFA942FBD301D8A042F8D331BDE6
S3152020B020074A9368A3FB0445E40844EA457470471D
S3152020B0306CC00F40004008400041084040420F00AD
S3152020B04028180020E04008400901020002D4554873
S3152020B05081547047544A00F00F00131803F8041C3B
S3152020B060704710B5039C01F00701240104F0100459
S3152020B0702143016002B1136010BD0021016002B19D
S3152020B0801160009808B1019901607047FEB5089EAD
S3152020B0900027099C0A9D01970096FFF7E2FF30685A
S3152020B0A0012101FA05F540F410403060606820EA5D
S3152020B0B005056560F7BD7CB5069C0025019547F200
S3152020B0C0B0060094FFF7CDFF266073BD7FB5374CC1
S3152020B0D0374D3848384A19B1022919D00DD37FBDAA
S3152020B0E041F2B00600950196002300F01EF8019645
S3152020B0F00023009500F019F87FBD07212F4B0291E0
S3152020B10005210193002300920022FFF7BFFF7FBD78
S3152020B110009200230022FFF7CEFF00950023002275
S3152020B12002212046FFF7C7FF7FBD002202212046AD
S3152020B130A3E710B5224C2068000606D52149496888
S3152020B14019B1012088478021216010BD10B51D4BE3
S3152020B1501A4C596004220721204600F031FA6369EF
S3152020B1600121502043F080036361FFF76DFF4FF4E8
S3152020B17080301549086010BD80B54FF480301349C2
S3152020B1800860BFF34F8FBFF36F8F00215020FFF74A
S3152020B1905BFF00220721094800F012FA0020094906
S3152020B1A0486001BD00E400E018ED00E0D4801F4097
S3152020B1B048821F40D8801F404C821F4000801B4061
S3152020B1C018801B40A42C002008E100E088E100E044
S3152020B1D0002808BF00F01EB87047AA48AA4A01686E
S3152020B1E04FF0004341F00301016040201060A74842
S3152020B1F083634FF08041816300220260A448036864
S3152020B20043F4C0130360A34801684908490001603C
S3152020B210012070472DE9F0419F48A0490860A048A9
S3152020B2200669A04D01220068296A9F4B760D06F0FB
S3152020B230030602FA06F6C0F38000CA03DFF86C8202
S3152020B24078D52F6A27F480572F62296A0029FCD5C2
S3152020B2502F6A974A47F480372F6211694FF4405757
S3152020B26021F03F349349214311612F602968002919
S3152020B270FCD52F6827F480372F60116821F03F34C2
S3152020B2808D492143116048B17600082E414688BF5A
S3152020B2900826B1FBF6F10122884C02E01946F8E790
S3152020B2A0521CB1FBF2F7A742FAD2854F85493C685A
S3152020B2B0521E2140140404F4E0242143741EA402C7
S3152020B2C004F4E0541202214302F440720A433A6005
S3152020B2D03969C909C90141F00301396120B1796869
S3152020B2E021F44021796005E07A6822F4402242F454
S3152020B2F000227A607968744A114041F04061796071
S3152020B300BA687249114041F0C74141F00101B96044
S3152020B310BA6842F44032BA60396921F4E72141F40F
S3152020B320843139612A6A22F480322A62296821F4FA
S3152020B3308031296000B14346B3FBF6F0644A1060A1
S3152020B340BDE8F08192E0002A70B518BF012A3ED1CF
S3152020B3505748604B04681D68A409002A0CBF0FF2C9
S3152020B360A8120FF2B8120E0025F060752FD00A29E8
S3152020B370A8BF012112F8116002EB41014A785649F3
S3152020B38006F03F0646EA84140E68521ED20502F0C5
S3152020B3906072154346F002060E605A6E22F4406211
S3152020B3A05A66BFF36F8F0668B44218BF04601868C8
S3152020B3B0854218BF1D605A6E42F440625A66BFF31A
S3152020B3C06F8F086820F002000860BFF36F8F70BD72
S3152020B3D02C48016841F4406103E02A48016821F4A1
S3152020B3E040610160BFF36F8F704730B5384C002322
S3152020B3F000202468324D19B102290AD002D319E03F
S3152020B400234618E02968C1F30121491CB4FBF1F336
S3152020B41011E0A968264B1968AB68304C01F03F0132
S3152020B420B4FBF1F512214D43C3F3C251491CB5FBA0
S3152020B430F1F300E00420136030BD024604201AB93F
S3152020B44011B127480860002070471D48204A01680E
S3152020B45080681368C1F30121491C00F03F00401C7D
S3152020B460B3FBF1F1B1FBF0F0704700001448184906
S3152020B47000680A68C0F30120401CB2FBF0F0704738
S3152020B4800000000080C00F4014800D4000900D4029
S3152020B490B0810D4040012E4000366E01202B002029
S3152020B4A060441F4010800D40007B9A1700A4781F0F
S3152020B4B0F0800D401818131823231A0F01449508DD
S3152020B4C014C00F40FFE0F8FFCFFFFFE380FF7F9CF3
S3152020B4D0940500201CC00F4000802A4000389C1C68
S3152020B4E0406BED0738B504460D4602E00120FFF7F4
S3152020B4F086FD20462946441E61F100050022914200
S3152020B50008BF9042F2D131BD000022081608180645
S3152020B5101E0412060E060D050D041602000018063E
S3152020B52016040C061E021203160221010D02160114
S3152020B530F8B506460C4615465FF000003AA151F8AC
S3152020B5402020B24202D0401C0628F8D33CA1144A1F
S3152020B55031F91000032300F01F01000A02EB8000BE
S3152020B56003FA01F107688F43394301270160726985
S3152020B570A740F9430A407261287818B973681940A0
S3152020B580716007E06A782146304600F00BF8736830
S3152020B5901F437760AA7821463046BDE8F8400FE061
S3152020B5A068C00F400123002A10B503FA01F107BF16
S3152020B5B0026822EA010104682143016010BD0000CF
S3152020B5C0F0B5C369012404FA01F5AB431029C36100
S3152020B5D032BF00F10C0300F1100310394900032675
S3152020B5E08E40F743521E042A1DD8DFE802F00307B7
S3152020B5F00D151900186807401F60F0BD1A688C4089
S3152020B60017403C431C60F0BD1C68022505FA01F159
S3152020B610274039431960F0BD186806431E60F0BDE7
S3152020B620C1690D43C561F0BD0000000000801B40AC
S3152020B63000C01B4000001C400000000000000C4001
S3152020B640FFFF1A011E001A02FFFF1E01DFF8FC165B
S3152020B65000200A69D36818607047F8B5DFF8EC66D1
S3152020B6600024306A8DF800404569002D46D0316986
S3152020B670C9680F68012F30D06C6801F108020023B9
S3152020B680091DA04704001FBF42F21270844242F2D5
S3152020B69013718C4232D13069C268916800292DD02D
S3152020B6A0546823781D0007D0142B05DA806800EB18
S3152020B6B0C305A5F1080000E00020002850621CBF29
S3152020B6C00268002A03D020460024904712E042F246
S3152020B6D01074194600F09FFA10E0486A58B1416864
S3152020B6E011B16846884704460CB1002003E09DF836
S3152020B6F0000000B101203169CA6810602046F2BDE1
S3152020B70080B50178002000F0B6FADFF84026106ACE
S3152020B71041690A699047022000F048FBBFF34F8F0A
S3152020B720DFF82C16DFF82C060A6802F4E0620243C2
S3152020B7300A60BFF34F8F00BFFDE7DFF81006182100
S3152020B7400269D36803F10C0000F05CBB10B50446F7
S3152020B7506068092806D0B0F5887F06D0B0F5907F9E
S3152020B76006D008E000F019FE06E000F093FF03E083
S3152020B77001F097FB00E0042025E2DFF8D03570B5F4
S3152020B78000F0DCF9AE69B047D4E110B500F08EF8B0
S3152020B790DFF8B80562680169C8680821026180F867
S3152020B7A020102178002000F066FABDE8104001F034
S3152020B7B0D3BD7CB5DFF894450022E568019200923E
S3152020B7C0816840686B46AE6801AAC0B2B04722693C
S3152020B7D00021D3681961009A0199920800F051FA44
S3152020B7E073BDDFF8682538B5D36804466068A1683C
S3152020B7F0DD68C0B2A847E2E138B504460420626875
S3152020B800092A03D1A06800F0ACFB13E0C2F3032180
S3152020B81001290FD16946104601F05AFF50B9009DE3
S3152020B820DFF8282514219368A0684D4359190A6901
S3152020B83013699847217800F01EFA31BD10B500F023
S3152020B84035F8DFF80805E2680169042300F03FF89F
S3152020B85021780020B8E170B5DFF8F05400F026F802
S3152020B86029691320DFF8F064CA6882F82000296944
S3152020B870E068CA6882F82100E06838B92969102270
S3152020B880C868026146612178002054E106F1100142
S3152020B890304601F077FF2869482106F11002C0685A
S3152020B8A0016142610020BDE8704005E2044644E77C
S3152020B8B010B5FFF7FBFFDFF89404E2680169032344
S3152020B8C000F005F8A1680020BDE8104002E2C86813
S3152020B8D08261A16801616268426180F820307047E8
S3152020B8E038B50446DFF8645428690021C0684161D0
S3152020B8F0016190F82000042804D129680A6990471C
S3152020B90004B9044628684169884704B90446286949
S3152020B910C168204691F8201000F0ADF942F212704D
S3152020B920844201BF2969CA6892F82000082803D1D9
S3152020B930BDE8314001F053BD31BDDFF810140A694E
S3152020B940D36893F82110002908BF00F001B87CE0C5
S3152020B9502DE9FE4300F0DEF811B900F0E1F871E0A0
S3152020B960012101233170D0F818900569D0F8148070
S3152020B97000206A460090386A01A94469D4F804C098
S3152020B980E04704000AD0386A4169CA6890472046B1
S3152020B990FFF7A6FF00210020317054E0009830B92F
S3152020B9A042F21270FFF79CFF002030704BE0A84235
S3152020B9B0396988BF28460090C86890F82010082941
S3152020B9C012D10199C160009AC2610099019801F0B3
S3152020B9D0CDFC044642F27D7084421CBF42F2747133
S3152020B9E08C4216D1002414E0132907D1009A0199FC
S3152020B9F0404601F02FFF009880440AE03C68019AD7
S3152020BA0000994B464046D4F808C0E04700990446A2
S3152020BA10884400982D1A05D12046FFF761FF002182
S3152020BA2031700FE04CB1386A4169CA689047204688
S3152020BA30FFF756FF0020307004E03969C9680D6190
S3152020BA40C1F814800020BDE8FE832DE9F84F00F0D0
S3152020BA5061F811B900F064F859E00121DFF8FCA261
S3152020BA603170826900920569D0F81480C46890F8F4
S3152020BA7020B0386A41694A6990478146A94588BFDE
S3152020BA80A946ACB14A462146504601F0E3FE386A23
S3152020BA90A5EB090401234A4651464569D5F808C035
S3152020BAA0E04704B170B3FFF71BFF002030702EE073
S3152020BAB0BBF1030F09EB080419D1D7F800C0404683
S3152020BAC0009B52464946DCF80480C0475FEA000BBB
S3152020BAD0A046DCD0386A0123002251464469A56855
S3152020BAE0A8475846FFF7FCFE0020307010E0BBF137
S3152020BAF0130F01D0A046CAE74A464146504601F0D8
S3152020BB00A9FEF7E73869C0680461C0F814800020D0
S3152020BB10BDE8F28F06468D4F3869C06801697047A7
S3152020BB20002200203270DBE6884B70B500F006F844
S3152020BB30EE68B0472178BDE870409CE01D68044639
S3152020BB40E268A168606870472DE9F0410546844F78
S3152020BB506E68D5F80880E8680024386018B101F0AE
S3152020BB60FCFE00B90424304601F0E0FE00B904248E
S3152020BB7000F050F89CB97E60002000F017F9C7F835
S3152020BB800880386818B180F3088880F30988796896
S3152020BB90404688470020BDE8F04100F007B9BDE8BF
S3152020BBA0F08138B50446606801F0C0FE08B904204B
S3152020BBB005E06568012000F0F9F8A068A8472178FB
S3152020BBC0BDE8344057E02178BDE8104053E0F8B571
S3152020BBD00546644E01F0AEFFAB68696805F10C029C
S3152020BBE0304601F0EDFF04000FD1EF6800200090D1
S3152020BBF0AB6869686A46304602F040F8040004D1F2
S3152020BC000098874218BF44F6E96401F099FF00F0B6
S3152020BC1001F8F1BD297820462DE03EB500210446C5
S3152020BC20CDE9001101F086FFA36861686A464D4878
S3152020BC3002F024F8054601F083FFA26869462846CB
S3152020BC4000F05AF837BD38B504461025FFF775FDA4
S3152020BC503E48A2680169C9680A6163684B6181F818
S3152020BC6020500069E168C268002082F82110A1686E
S3152020BC70BDE8344078E03EB5002400F031F8A0231A
S3152020BC801EE070B5002588B0A7248DF801508DF8C8
S3152020BC9000400026551C01908DF8026000208DF86A
S3152020BCA003506C4605E004EB800551F82030401CFB
S3152020BCB0AB609042F7D33BE03EB500F010F8B323BB
S3152020BCC08DF800300023029144690C226946A5682C
S3152020BCD0A84737BD3EB500F002F8A323F0E701249C
S3152020BCE001908DF8014002248DF80340174C206ADC
S3152020BCF000258DF80250704770B5002588B08DF844
S3152020BD000150AF24002602258DF800408DF80260D0
S3152020BD108DF80350019050B99DF80300029200EB54
S3152020BD20920403A88DF8034001F0A4FD00E00296BA
S3152020BD3006489DF80320006A00236946446992003C
S3152020BD40121DA568A84708B070BD0000100000206D
S3152020BD500CED00E00400FA055C1C00205C18002095
S3152020BD60B41C002000401F403EB5FFF7B8FFB0238B
S3152020BD70A6E730B4002513E050F8042BD30744BFA0
S3152020BD80A9F101039A18091F042942F8045BFAD263
S3152020BD9013468C0744BF15809B1CC90748BF1D70BE
S3152020BDA050F8041B0029E7D130BC7047012870B514
S3152020BDB004461DD00025114E05E07018C1688968FB
S3152020BDC001B188476D1C1821694370580028F4D189
S3152020BDD074B901F0AFFEFFF7F9F801F0C7FF002094
S3152020BDE0074908600120FFF7F3F902F09CF962B6B3
S3152020BDF0BFF36F8FBFF34F8F70BD00BF98AD20204C
S3152020BE0008ED00E0002202F0D1B9F0B40246106815
S3152020BE1095681318506803EB5004C0071DD54D4470
S3152020BE201BE013F8017B05F8017B491EF9D1A0B14F
S3152020BE30B60813F8011B06F00306032E08BF13F8D5
S3152020BE40016B01EB06214942801C294405D011F8BB
S3152020BE50016B05F8016B401EF9D1A3420ED013F8D1
S3152020BE60016B16F0030104BF13F8011BC91C30090E
S3152020BE700F28DAD113F8010B0F30D6E7F0BC02F1E8
S3152020BE800C007047BFF34F8FDFF8082602E01060C2
S3152020BE90203020390129FADABFF34F8FBFF36F8F75
S3152020BEA0704730B504460420002C85B01EBFDFF82D
S3152020BEB0E8251178002950D023681D0F0B2D4CD151
S3152020BEC0C3F30361012902F582650DD0002944D1EF
S3152020BED0204602F085F910B1002129703DE0A268A4
S3152020BEE001236A602B7038E02978002935D013F099
S3152020BEF00F0F32D1002101200491039104A900F0D3
S3152020BF0079FA50BB03A9102000F074FA28BB01A9A6
S3152020BF10032000F06FFA00BB6C68049D694602A8D6
S3152020BF2002F095F96519C0B9009A0399A418A1427F
S3152020BF3013D3019B5B1E1D420FD10199284600F089
S3152020BF4046F910B942F2DB7007E0029A009928469A
S3152020BF5000F0DAF808B900F071F905B030BD0120FB
S3152020BF607047F8B5ADF5007D0746042401F0DEFCC8
S3152020BF7000286CD007F2FF1001F0D8FC002866D0EC
S3152020BF803868DFF8145505F58366010F0C2918D17A
S3152020BF903A463146002003F057FD040057D10020B1
S3152020BFA03146287002F072F9040050D1002004F0A6
S3152020BFB014FC6946102000F01DFA00285FD00446A4
S3152020BFC045E0DFF8D81488420BD12878002849D0BC
S3152020BFD000F089F801F0CAFB00285BD142F2DB741D
S3152020BFE035E0DFF8BC14884206D14FF4007239467A
S3152020BFF0304601F02FFCD2E7000F0E282BD12878CF
S3152020C00028B3384604F07CFD08B3384604F081FD79
S3152020C01004001CD10120687000256A4601A9284603
S3152020C02004F07EFE80B9DFF87C644FF4007106EBC5
S3152020C0308526304600F0CBF830B1019A009930465B
S3152020C04000F062F800F0FAF86D1C012DE5D92046A3
S3152020C0500DF5017DF0BD0B280ED13846FFF721FFC7
S3152020C0600400F4D168780028D6D104F041FD0028B8
S3152020C070EDD001206870EAE700216970E7E7009893
S3152020C080DFF824140B6B01228A63C3185B1E4B63D3
S3152020C0902A70E7E705F2DC57B87970B100200DF158
S3152020C0A00104291891F819140DF80010335C235433
S3152020C0B0801CB0F5007FF4D36E46324600F013F88C
S3152020C0C000F022F8040004D000F00DF800F0CEF99C
S3152020C0D0BDE700F0B3F80400C4D039684FF0C04063
S3152020C0E000F02EF9B3E74FF400714FF0C0407047AF
S3152020C0F010B5DFF8A443237813B942F2DD7010BDC2
S3152020C100BDE8104004F0F4BE2DE9F8430546DFF8DB
S3152020C110887338780C46914688BB42F2DD7031E030
S3152020C120B87868B9D7F8D815491E0D4202D044F6FA
S3152020C130896027E001200021B870B9607D6004E085
S3152020C140B86879680818A84216D1B868D7F8D8856B
S3152020C15049462218424534BF2646A8EB00063844D5
S3152020C16032461030751901F075FBB868A41BB1440E
S3152020C17030184045B86002D100F060F810B9002C84
S3152020C180CED10020BDE8F28376B50D460646DFF8EF
S3152020C1900813087810B942F2DD7076BDAC08A400E9
S3152020C1A005F0030507E001AA04213046FFF7ACFF7E
S3152020C1B060B9361D241F002CF5D12DB101AA2946A0
S3152020C1C03046FFF7A1FF08B900F038F876BDF8B55C
S3152020C1D00C460546B049ADF5806D4878012620B13C
S3152020C1E02146284604F076FDB0B92146284601F09E
S3152020C1F0BDFA064630460DF5806D01B0F0BD491CCE
S3152020C200B1EB970F06D250F8042B12F1010FF6D07E
S3152020C2100020F0E7E41B7D19002CEBD04FF480673B
S3152020C220B4F5806FA048016B684698BF27463A46EA
S3152020C230691A00F024F968460021E1E72DE9F84340
S3152020C240954E0024B078ADF5806D002872D0B4705C
S3152020C250D6F8D845B068A04206D0211A06F1100398
S3152020C260FF22184404F05CFE70682146FFF7AFFFDA
S3152020C27010B942F2DB705EE0D6F8D815706804F06B
S3152020C28029FD40B1D6F8D815706806F1100204F0C1
S3152020C2908EFD04004ED1844F746801F04BFC386B20
S3152020C2A006F1100306F58361221A002002F0EFF82A
S3152020C2B0044601F045FC0020002CB070B06039D136
S3152020C2C07A480268D10304D5D6F8D8157068FFF7C6
S3152020C2D0D9FD7078D6F8D85506F11008D6F80490EE
S3152020C2E0F0B12946484604F0F5FCC8B115B34FF401
S3152020C2F08066B5F5806F396B684698BF2E463246E4
S3152020C300A9EB010100F0BBF832464146684604F00D
S3152020C3103BFE002802BFAD1BB144B044E6D006E068
S3152020C3202A4606F11001484604F02EFE10B144F6A6
S3152020C3308A6000E020460DF5806D01B0BDE8F083CF
S3152020C34070B50446544A107810B942F2DD7070BD9B
S3152020C350D2F8DC55684200EA04060C1964420440EF
S3152020C3606442A41B2146304600F080F8A0B9294615
S3152020C370304604F07BFD4D480168CA0303D5294683
S3152020C3803046FFF77FFD21463046FFF720FF10B9C4
S3152020C39044F68A6070BD002070BDE0B53E4908781D
S3152020C3A010B942F2DD700EBD01F58361002002F046
S3152020C3B0CBF8F0B901A9012000F01CF8C8B96946CC
S3152020C3C0102000F017F8A0B90099019804F04EFD2E
S3152020C3D036480168CA0303D500990198FFF752FD14
S3152020C3E00099019801F0C2F910B944F68A600EBD71
S3152020C3F000200EBD002930B52ED0274A02F5BB637A
S3152020C40002F58D6460B1012813D0022814D00328A8
S3152020C41017D0042818D0052818D0102819D01BE0AA
S3152020C4201078002814BF002042F2DD70086000201A
S3152020C43030BD4FF0C040F9E700F010F8AD0A0D608E
S3152020C440F5E71B680B60F2E75868EFE7186918B123
S3152020C450ECE700F003F8F2E7042030BD2568636896
S3152020C460A268E0685D195519451970470B460246A2
S3152020C4700D49086B0E49121A002003F0A7BB80B580
S3152020C48000920B4602460A49002003F0DBFB02BD40
S3152020C490000000005CEF00E0082500200F0000F0DF
S3152020C4A046434642000400605000002014ED00E080
S3152020C4B02029002030B504460420002C85B01EBF3C
S3152020C4C0DFF898251178002950D023681D0F0B2DD1
S3152020C4D04CD1C3F30361012902F23C450DD000293A
S3152020C4E044D1204601F07CFE10B1002129703DE088
S3152020C4F0A26801236A602B7038E02978002935D07C
S3152020C50013F00F0F32D1002101200491039104A9A9
S3152020C51000F068F950BB03A9102000F063F928BB6E
S3152020C52001A9032000F05EF900BB6C68049D6946D2
S3152020C53002A801F08CFE6519C0B9009A0399A418A7
S3152020C540A14213D3019B5B1E1D420FD10199284680
S3152020C55000F0B6F810B942F2DB7007E0029A009993
S3152020C560284600F017F808B900F052F805B030BD7B
S3152020C5700020DFF8E8148860704710B51346DFF8EE
S3152020C580DC44227802B998E00A461946BDE81040D4
S3152020C59004F05BBD2DE9F8438046DFF8C0542878A7
S3152020C5A00C469146D5F8287410B942F2DD702DE05C
S3152020C5B0B7F5806F88BF4FF4806734B3A868696861
S3152020C5C0002804BF0029C5F8048002D0411841451F
S3152020C5D016D121188F422CBF26463E1A284400F118
S3152020C5E00C01894504D0324649460C3001F032F9F7
S3152020C5F0A868A41BB144B0443018B842A860DCD146
S3152020C60000F006F80028D8D000E00020BDE8F2830C
S3152020C610F8B5DFF84864ADF5806DB5680024DDB146
S3152020C62077687460B4602A4606F10C01384604F017
S3152020C6308CFD040010D12A466946384604F005FDB3
S3152020C640040009D12A46694606F10C0004F09CFC18
S3152020C65010B142F2DF7000E020460DF5806D01B06A
S3152020C660F0BD38B50D460446DFF8F013087810B92A
S3152020C67042F2DD7032BD2946204604F0FEFC40B948
S3152020C6802946204600F01CF810B942F2DF7032BD50
S3152020C690002032BD10B5DFF8C443207800B90CE065
S3152020C6A004F02CFD40B9D4F8241400F009F810B970
S3152020C6B042F2DF7010BD002010BD42F2DD7010BDA9
S3152020C6C070B5ADF5806D05460C4610E0491CB1EBE2
S3152020C6D0960F0AD250F8042B12F1010FF6D0002023
S3152020C6E000E001200DF5806D70BDA41B7519002C6E
S3152020C6F0F7D04FF48066B4F5806F6946284698BFF8
S3152020C7002646324604F0A1FC68460021DFE72DE9C3
S3152020C710F8430646042401F009F900285FD006F1E3
S3152020C7202B0001F003F9002859D03068DFF82C536C
S3152020C73005F5826805F20C47DFF82493000F0C28B4
S3152020C7401AD12C214046FFF75DFB4FF48030012182
S3152020C750B86005F586600222017042700323052108
S3152020C76006228370C4700171314642714046C7F853
S3152020C770049000F0D5F813E03068010F0B2904D17E
S3152020C7803046FFF797FE044629E0484527D12C213D
S3152020C7904046FFF737FB2C223146404601F05AF817
S3152020C7A000203C7B2870D7F8108005F58360AD4E9D
S3152020C7B001F00AFC204601F0BFFB3146204601F05D
S3152020C7C0F5FB42463146204600F034F8396805F517
S3152020C7D0846004F00DFC040004BF0120287020464C
S3152020C7E0BDE8F28321B39D4A02F2244350B10128A9
S3152020C7F011D0022814D003280FD0042814D01028B2
S3152020C80014D015E01078002814BF002042F2DD70E5
S3152020C8100860002070470020FAE75A680A60F8E787
S3152020C8201B689B0A0B60F4E79868F1E71A68F5E71E
S3152020C8300420704770B58CB004460D46164607A8CE
S3152020C84091A1142201F016F81C216846FFF7DAFA86
S3152020C85000960821009B019183490022ADF80820EB
S3152020C860B1FBF3F38DF80A200A4603931346009969
S3152020C870B2FBF1F1009A049102218DF81810694635
S3152020C880B3FBF2F20592002207AB8DF81920ADF802
S3152020C8901A2053F824002A4604F0BAFD0CB070BDA5
S3152020C8A02DE9F0430746714889B088461646047814
S3152020C8B0457804A879A1142200F0DCFFE94600205F
S3152020C8C000210022002389E80F004FF480100390D6
S3152020C8D00EB9012201E0032E05D12946204601F07A
S3152020C8E045FB002019E0012E08BF019702D0022E19
S3152020C8F008BF0097CDF8088004A8694650F8240080
S3152020C90004F0F1FEB0F5C87FF6D030B100222946DA
S3152020C910204601F02BFB42F6CD1009B0BDE8F0836E
S3152020C92070B50B78524A03F00F0302EB8304E56DB2
S3152020C93085610B68C3F3031302EB8304256CC56161
S3152020C9400B68C3F3032352F823204A4B42610C6819
S3152020C950240B04F00F04012C02D0022C10D012E05C
S3152020C960012202744269B2F5803F98BF102205D970
S3152020C9709A4202D21823437436E02022427433E0AE
S3152020C9800223037430E000226024027400F1210285
S3152020C990D47145699D4213D218234224437454717D
S3152020C9A0C369B3F5803F28BFD82316D2B3F5805F5D
S3152020C9B008BF202417D0B3F5004F15D152230CE001
S3152020C9C02024122544741323002615705370567183
S3152020C9D0C369B3F5803F02D3DC23937104E0B3F51A
S3152020C9E0805F01D1212494710A68120D02F00F0272
S3152020C9F0521E032A0BD8DFE802F002040608012281
S3152020CA0006E0022204E0032202E0042200E00022C3
S3152020CA1002720A68120C02F00F02012A06D004D3F1
S3152020CA20032A03D038BF022200D3002242720A688A
S3152020CA30C2F303627AB1097901F00F01012904D0EA
S3152020CA4009D3032905D002D305E00B4904E00B497D
S3152020CA5002E00B4900E00B49C16070BD5001002067
S3152020CA606B736563005A620200CA9A3B68050020F0
S3152020CA70DC0000200100000180969800404B4C00ED
S3152020CA8080841E00002D3101000000000040394026
S3152020CA900080394000C0394000003A4000000000A4
S3152020CAA0004039400080394000C0394000003A40DB
S3152020CAB0014601F0FF0000F1804000F57C200A0AA3
S3152020CAC0006802F01F02C1F34C3191400840D0404B
S3152020CAD07047F0B504460420002C85B01FBFDFF830
S3152020CAE0242502F1AA05A97D00296AD023681E0FD4
S3152020CAF00B2E66D1C3F30361012902F1D4060DD092
S3152020CB0000295ED1204601F06BFB10B10021317047
S3152020CB1057E0A26801237260337052E031780029F1
S3152020CB204FD013F00F0F4CD10021012004910291F8
S3152020CB3004A900F0D3F9002843D102A9022000F04D
S3152020CB40CDF900283DD10298DFF8BC144FF0FF34F0
S3152020CB50884201A928BF0294052000F0BFF980BB96
S3152020CB607768049E694603A801F071FBBE1940BB75
S3152020CB70009A0299BF18B94223D3019B5B1E1E42FD
S3152020CB801FD12878019BC10701990198B2FBF1F1A9
S3152020CB9058BF002400FB11221000224618BF012076
S3152020CBA04118B6FBF3F000F006FA10B942F2DB701A
S3152020CBB007E0039A0099304600F0F1F808B900F012
S3152020CBC043F905B0F0BD38B5DFF83844DFF83C141A
S3152020CBD021600C2004F050FF0546DFF83404FFF7CF
S3152020CBE067FF401CB5FBF0F06060204605F0AAF8F0
S3152020CBF060B92046B43405F0DBFE28B900F070F881
S3152020CC0020B900F072F832BD0023237332BD7CB5E3
S3152020CC10044600F08BFE68B1E01C00F087FE48B188
S3152020CC202068000F0B2803D12046FFF752FF76BD40
S3152020CC300D2801D0042076BDDFF8C853DC212846F4
S3152020CC40FFF7E0F8DFF8C40328600C2004F014FF77
S3152020CC500646DFF8BC03FFF72BFF401C05F1280111
S3152020CC60B6FBF0F068602068020B02F007020A701B
S3152020CC70C20D030AC60C000E00F0030003F00103C8
S3152020CC8002F0010201284B7006F001064A730E734A
S3152020CC9041F2883240F6C41306D002D3032808D0A6
S3152020CCA005D344F6206005E042F2107002E01046DB
S3152020CCB000E0184648602068C0F3005000B11A46AC
S3152020CCC08A60284605F074FE05F1B40428B900F0E0
S3152020CCD007F820B900F009F876BD0023237376BD26
S3152020CCE069464FF4907000F0F3BC009B1421DFF8C6
S3152020CCF0242365684B43D118CD6022688A600121A0
S3152020CD00217370472DE9F84FDFF8F892824609F112
S3152020CD10C0060C463078904610B942F2DD703CE0D1
S3152020CD204FEA5A2509F1DC00AAEB45254FEA5A2776
S3152020CD3000900FE000985A46A4EB0B044119404678
S3152020CD4000F088FD5D44B5F5007FD84424BFA5F5C5
S3152020CD5000757F1C04B3707878B1706887420CD335
S3152020CD60411C8F4209D2AAEB40256019B0F5007FDD
S3152020CD7094BFA346C5F5007BDCE7002000997070A0
S3152020CD8001233A46484606F072F8002802BF0120C1
S3152020CD9070707760E9D000E00020BDE8F28F2DE9A1
S3152020CDA0F84FDFF8609209F1C0073B7813B942F2B9
S3152020CDB0DD703EE082464FEA5A26AAEB46264FEA07
S3152020CDC05A240D46904613E009F5377041465A46B7
S3152020CDD0801900F03FFDF9685E44B6F5007FA5EB8B
S3152020CDE00B05D8445944F96024BFA6F50076641C67
S3152020CDF0F5B1387A18B33869A0421CD1411C8C422F
S3152020CE0019D2AAEB4026F868B04209D000F089F85A
S3152020CE100028EED00DE000200121F8603C61397217
S3152020CE20A819B0F5007F94BFAB46C6F5007BCBE7AB
S3152020CE300020BDE8F28F00F074F80028F9D1002EEA
S3152020CE40E9D042F2DE70F4E76E4A002092F8C8104C
S3152020CE50002918BF00F065B870476F480021C171BE
S3152020CE6001700020704770B50546664E96F8C000C2
S3152020CE700C4610B942F2DD7070BD304605F0EFFF4A
S3152020CE8010B142F2E07070BD54B1690A65196D1E69
S3152020CE903046C1EB5522BDE87040521C06F030B812
S3152020CEA070BD38B5574C04F1B405287B10B942F231
S3152020CEB0DD7032BD204605F0D2FF10B142F2E0707F
S3152020CEC032BD28686968A1FB002320460021520A2A
S3152020CED042EAC352BDE8384006F012B810B5F1B187
S3152020CEE04E4A30B101280DD002280DD0052814D065
S3152020CEF015E0107B002814BF002042F2DD70086068
S3152020CF00002010BD0020FAE714685368A3FB0423F1
S3152020CF10920A42EA83520A60F2E75068EFE7042039
S3152020CF2010BD2DE9F041374C204605F098FF10B171
S3152020CF3042F2E0703DE004F1CC0504F5377628680E
S3152020CF4004F1AA074FF0FF38B0F5007F09D03978D1
S3152020CF50CA07C0F5007130444CBF4246002203F078
S3152020CF60DFFF39780020B877CA0758BF804668681F
S3152020CF704246012100F01FF810B942F2DB7018E07A
S3152020CF806A6801233146204605F08EFF88B96A68F3
S3152020CF9004F1DC0701233946204605F068FF40B915
S3152020CFA04FF400723946304603F0EEFF08B142F2C4
S3152020CFB0DF70BDE8F0812DE9F84305460C4616467C
S3152020CFC0DFF8408017E008F1DC093B462A4649462F
S3152020CFD0404605F04CFF40B900E0001DB0EB472F3E
S3152020CFE008D259F8041BB142F7D0002000E00120D6
S3152020CFF0BDE8F283E41B002CF9D0012C8CBF01273D
S3152020D0002746E0E7142E00200100400000002C4097
S3152020D01024EB0080A0000020D52E0020C82E002042
S3152020D020416882688A4209D2891A826641600FF253
S3152020D0309D210160012282600020704742F2787093
S3152020D04070470FF2090101600020704710B5416A30
S3152020D050DFF814444A898282CB689B1E43604A6843
S3152020D060A24202D1097A022902DB42F2757010BD52
S3152020D0700FF209020260002010BD0000416A4368B9
S3152020D0804A6882610A68D21E9A42826002D342F29C
S3152020D090767070470989002908BFFFF7C1BF42F281
S3152020D0A077707047F8B50446DFF8C063B4F85A3075
S3152020D0B0376804F15C05626A6968D7F808C01806E3
S3152020D0C0000F1B0A43EA00232868E047A0B93068EE
S3152020D0D00169884780B9616A102204F11C0005F095
S3152020D0E04DFF00F044F80098A968884200D043E01C
S3152020D0F00FF2D91020600020F2BDF8B50446102288
S3152020D100616A04F11C00DFF8646304F15C0505F014
S3152020D11035FFB4F85A303768626A10211806000F96
S3152020D1201B0AD7F808C043EA00232868E047E8B955
S3152020D130286810302860686810381028686088BFF2
S3152020D140DFF82C0310D810B1DFF828030CE0306864
S3152020D1500169884750B900F00AF80098A9688842E2
S3152020D16000D009E00FF2651020600020F2BD69464C
S3152020D17004F11C0005F018BF42F27A70F2BD10B5FA
S3152020D180044604F11C0005F0F3FE216E11292CBF64
S3152020D190B748B8482060002010BD38B5B34B426E42
S3152020D1A01C68016EC06DE568A84732BDB0F85A20CC
S3152020D1B013061B0F110AD20741EA03214CBF08236D
S3152020D1C00423042901D00420704700F16002C16D98
S3152020D1D0A94800F0F5BC70B5044642F27F76E56D8D
S3152020D1E0284600F0A3FB80B1606E04F11801A84701
S3152020D1F00646012E03D12046BDE8704010E7022EB8
S3152020D20003D100F0A9F8002070BD304670BD10B5BE
S3152020D210436800F15C02516881608B4202D242F25F
S3152020D220767010BD147AE30707D512688469A24266
S3152020D23003D111B1C160002010BD90F85A10CA0741
S3152020D24002D542F27C7010BDBDE81040E8E638B524
S3152020D250B0F85A108A070CD40B061B0F0A0AC907E6
S3152020D26042EA032207D5092A03D1BDE83140FFF738
S3152020D27094B8042032BD7D4B5C301C684168006820
S3152020D280A569A84732BD00001CB50446B4F85A004B
S3152020D2900106090F000A40EA0120092803D1E06D82
S3152020D2A0FEF75FFE16BD01290ED1694600F010FA61
S3152020D2B058B9E06D009C6D4A142193684C43191986
S3152020D2C00A691369984716BD042016BDF8B5044689
S3152020D2D004F15806616A304610225A2500F0CAFA0F
S3152020D2E00120375C401CED191028FAD3307805F040
S3152020D2F0FF05A84202D042F27970F2BD717842F23F
S3152020D30012700A2925D8DFE801F01A060A0E2612FD
S3152020D3101A16261C20002046BDE8F24077E7204634
S3152020D320BDE8F2402BE72046BDE8F24035E720460F
S3152020D330BDE8F2404FE72046BDE8F24087E70020CF
S3152020D340F2BD2046BDE8F2409EE72046BDE8F240E9
S3152020D3502CE742F27B70F2BD10B5484C7021204656
S3152020D360FEF750FD464A0020226010BDF8B506463D
S3152020D3700C4600200027434DA74218D02969E01BE0
S3152020D380C1F1100109E080B12B69F25D7F1C491E95
S3152020D390401EEA542A69521C2A610029F3D1002012
S3152020D3A0286100F005F810B9E6E742F27D70F2BD5B
S3152020D3B080B53248334A4262C26800212AB10369C5
S3152020D3C093420AD05B1C036101E0826E1AB9016880
S3152020D3D08847014601E0521E8266084602BDF8B5FE
S3152020D3E0224C20680169884700283CD1234F97F892
S3152020D3F05900042823D107F15C052E68304600F019
S3152020D40095FAC8B10020FEF7D1FC97F85A0081077B
S3152020D41010D568686861616860B10A68904222BF49
S3152020D4204968491C814201D20420F2BD80F3088834
S3152020D43080F30988A868B04742F27E70F2BD08289A
S3152020D4400FD10220FEF7B2FCBFF34F8F0E490F48B3
S3152020D4500A6802F4E06202430A60BFF34F8F00BFDE
S3152020D460FDE742F27B70F2BD53544D501000002050
S3152020D470FBD02020A5D0202000401F408C2D00202E
S3152020D48043D02020002E00200CED00E00400FA05D9
S3152020D4907CB50C00164605461A4601D1002076BDDD
S3152020D4A0100A10F00F0002D001280AD019E06A468F
S3152020D4B0284600F0BAF8B0B900F0A1F86568A84768
S3152020D4C076BD6B46284600F0D3F860B90098A54A69
S3152020D4D003692846996951605B68324621469847F8
S3152020D4E076BD42F2D87076BDF8B50C0017460646B2
S3152020D4F01A4601D10020F2BD100A10F00F00994DD6
S3152020D50002D0012816D02CE0304600F0F6F840BB99
S3152020D5106A462146304600F088F820BB009B2146EB
S3152020D52030463A46DC68A668B047B8B90099CA683A
S3152020D530136911E06B46304600F09AF898B90098A6
S3152020D5403A4603693046996969609B68214698471F
S3152020D55020B900990A6953692B60F2BD0021296000
S3152020D560F2BD42F2D870F2BD7CB5130A13F00F0338
S3152020D57005460C4642F2D87602D0012B14D024E060
S3152020D5806A4600F052F8E8B90099CA68506998B1FD
S3152020D5902146284600F0B1F8B8B9009A21462846F7
S3152020D5A0D3685C69A04776BD6B4600F061F848B920
S3152020D5B000980169CA680AB9662076BD21462846A0
S3152020D5C0904776BD14B9002076BD304676BD7CB511
S3152020D5D00C000546164601D1002076BD00F08DF8B8
S3152020D5E010B142F2D87076BD6A462146284600F010
S3152020D5F01CF818B900F003F8E568A84776BD009B0B
S3152020D600214628463246DC68704710B5554C20689E
S3152020D61010B180470021216010BD10B5514C6068A3
S3152020D62010B180470021616010BDF0B516000D466F
S3152020D63042F2D8771AD04C494A68326015B915E09B
S3152020D6401033336033688BB11A68002A04BF5C68B4
S3152020D650002C01D1D96849B1904224BF5968814212
S3152020D660EED32818401E814228BF00273846F0BD19
S3152020D670F0B50646174642F2D87C3BB33A48826834
S3152020D6801A6019B922E005F114041C601D68EDB159
S3152020D6902A68002A04BF6C68002C07D1A8680028B5
S3152020D6A004BFEC68002C01D1286978B19742EAD1D1
S3152020D6B0AA68E8680027A0FB0245701847EB0701F7
S3152020D6C08D4203D301D8844200D3BC466046F0BDA8
S3152020D6D070B505460420002671B1234A946801E0DE
S3152020D6E0761C143444B1236833B12269002A03D02E
S3152020D6F09D42F5D10E60002070BDF0B509181A4B59
S3152020D700491E00225F68DC68256905EBC20606F102
S3152020D7107C041601BD5966682468AC4208BFAE4217
S3152020D72003D0864228BFA14204D2521C012AEAD91C
S3152020D7300020F0BD0120F0BD70B50B4D6E6803E0D2
S3152020D740006800B180471036F0680028F8D1AD680F
S3152020D75003E0096801B18847143529690029F8D1E1
S3152020D76062BD00009C2C00201000002002460120D3
S3152020D77000E0491E21B112F8013BFF2BF9D00020F1
S3152020D78070470000F0B5064604240D46002EA3B0AF
S3152020D79018BF002D56D03821284605F01BFE3822EA
S3152020D7A04323AA708120EB70662128700020552201
S3152020D7B0E871102329716A710EA8AB7105F024FE39
S3152020D7C004003FD10020214F8DF83B000EA938467A
S3152020D7D005F0D0FF040035D1102205F10801384686
S3152020D7E005F0FEFF04002DD10D210AA8FEF70AFB25
S3152020D7F006A806F047F805F10801802206A806F0BB
S3152020D80055F8102005F1280105F11802002305906E
S3152020D81006A80491102103920AAA019300930D23AE
S3152020D820029606F026FB0A49802206A806F03EF834
S3152020D830102005F10803009005F10802012106A811
S3152020D84006F07CF9204623B0F0BD00BF00C00C4076
S3152020D850AB89DCFE62B38B0708D0521E11F8013B40
S3152020D86000F8013B00F024808B07F6D1830740F097
S3152020D870208000BF103A07D330B4B1E83810103AD0
S3152020D880A0E83810F9D230BC530724BFB1E80810DD
S3152020D890A0E8081044BF51F8043B40F8043BD207C7
S3152020D8A024BF31F8022B20F8022B44BF0B780370BB
S3152020D8B07047121F17D35B0009D151F8043B20F87B
S3152020D8C0023B1B0C121F20F8023BF6D20BE051F82C
S3152020D8D0043B00F8013B1B0A20F8023B1B0C121FBD
S3152020D8E000F8013BF3D238BF121D521E24BF11F877
S3152020D8F0013B00F8013BF8D87047000038B50446B4
S3152020D9000D460020FEF752FA764800210560764A19
S3152020D91044601160036883F3088883F3098840688C
S3152020D92080470020BDE83240FEF740BA00281CB5CB
S3152020D9301EBF10F1010F6D49884201D1002016BD6E
S3152020D9406A4602210024FFF770FE20B90098017A4A
S3152020D950CA0748BF0124204616BD10B50246644991
S3152020D96000204B6800E01033D96861B11C7A04F09E
S3152020D9701104112CF7D119689142F4D25C68641CE9
S3152020D9809442F0D3012010BD2DE9FC4D584EDFF8EE
S3152020D9906481F0684446016901F18C0709E03A7CEC
S3152020D9A0024205D06569E268A969204653689847EE
S3152020D9B0183420680028F2D14FF47A700024FDF71D
S3152020D9C015FB0025A246CDE90001AB4600F070FBF1
S3152020D9D078BBFFF7ABFF60B3F068016991F8AA2006
S3152020D9E0D00703D400210020FFF788FF788A4FF63E
S3152020D9F0FF71DDE90023884208BF41F28830A2FB6F
S3152020DA0000AB03FB00BBFDF7E7FA04460D460020DA
S3152020DA10834508BF82450CD0FDF7DEFA001BA941BD
S3152020DA20594506D301D8504503D300210020FFF7BE
S3152020DA3065FF464600E0183631680029E7D03A7C53
S3152020DA400A42F8D0F16830460B6898470028F2D071
S3152020DA50002EDCD00BE0397C014218BF464504D08D
S3152020DA60D8F80C3040469968884708F11808D8F825
S3152020DA7000000028EFD13046BDE8F68D38B500F0FD
S3152020DA8053F800F04EFB1A4CE068016888470020C6
S3152020DA90FDF79EFBFDF772FA206801688847E26849
S3152020DAA050688047FFF770FF2062016900291EBF5A
S3152020DAB0096800298847226A506900281FBF016803
S3152020DAC0002910468847206901688847256A2069E9
S3152020DAD041688847EA68D1680029F8D028468847CF
S3152020DAE0F5E70000EC1E002008ED00E0056B212064
S3152020DAF01000002098AD2020704700000A0018BF93
S3152020DB0001220260704772B60268521C026062B619
S3152020DB1001680029FCD10120704772B60168491E90
S3152020DB20FFE7016062B6704772B600200B49086095
S3152020DB3062B6704772B609480168491C0160704771
S3152020DB4006480168022903D20022026062B6704785
S3152020DB5003685B1E0360704700000000782B0020BE
S3152020DB602DE9F041FDF7EEFB80467B4C1127204620
S3152020DB7000212246E7FB08010023784F002506F0E6
S3152020DB80B5F9401E4600786042F210727448002192
S3152020DB90E2FB08012246002306F0A8F925223018A8
S3152020DBA0E2FB0845401CB8606B4A002320462946E4
S3152020DBB006F09CF93618761CFE600020BDE8F08120
S3152020DBC02DE9F04104460E4615460BB9002053E0B8
S3152020DBD0042B02D1B009800101D004204CE05F4FF4
S3152020DBE0387830B92046FFF7BBFF002844D10120E2
S3152020DBF038706421204600F077F800283CD14FF475
S3152020DC00007806F03F06C4F808802069000C00043E
S3152020DC10206121697868BA68000300F47040C2F355
S3152020DC200B02104301434F4821614F49A16006430F
S3152020DC3066602A6822626421204600F055F8D8B909
S3152020DC402068810548BF44F6E96015D46421204622
S3152020DC5044F6EA6500F048F868B9C4F808802046FA
S3152020DC6000F067F84FF4806064216060204600F061
S3152020DC703BF800B900252846BDE8F081F8B50546D1
S3152020DC800E46144673B3042B02D1B009800101D06D
S3152020DC900420F2BD314F387828B92846FFF760FF97
S3152020DCA008BB012038706421284600F01DF8D0B921
S3152020DCB04FF4007006F03F06A860284600F039F899
S3152020DCC03F210120A96064216E602863284600F048
S3152020DCD00BF840B92868810502D544F6E860F2BDE4
S3152020DCE0286C20600020F2BD2DE9F04782460F46A1
S3152020DCF04FF47A700026FDF779F9A0FB078901FBFE
S3152020DD000799FDF769F904460D46DAF80010C8058B
S3152020DD100CD5002FF9D0FDF75FF9001BA941494505
S3152020DD20F3D301D84045F0D344F6EB663046BDE820
S3152020DD30F08701696FF315310161084902694B6843
S3152020DD40C9681B0303F47043090401F47C110B43B7
S3152020DD501A4302617047000000CA9A3B682B0020B4
S3152020DD600065CD1D0000773E3F00FFFF0A484FF09B
S3152020DD70FF31016041608160C16001614161816143
S3152020DD80C1610648016041608160C16001614161D5
S3152020DD908161C1617047000080E100E080E200E0FF
S3152020DDA000F01F02DFF8A833000A914003EB800021
S3152020DDB030B5032595400468AC432143016030BD2E
S3152020DDC0DFF8901300200A68C2F3022107290BD01E
S3152020DDD0DFF884231168C1F3005100291EBF116882
S3152020DDE0C1F30051002900D0012070472DE9F84FBA
S3152020DDF08846DFF8681341F2F10700914046BA467B
S3152020DE00BB4608F1500402F0C2F830B1D4F810A075
S3152020DE10E0690090D4F814B0A769DFF84493DFF8BE
S3152020DE204453DFF84463FFF7CBFFE0B12068002896
S3152020DE3018D0012111207161C5F814A07060DFF877
S3152020DE402C03C5F804B08160B160AF60C9F87810A2
S3152020DE5031612F61C9F87C10F160EF60016031607B
S3152020DE602F60416066E021686068002908BF00288D
S3152020DE7038D018B106213164C5F840A02068BC49A5
S3152020DE8018B101228A60C9F808A011200122B067A2
S3152020DE90C5F878B0F267EF674A60C9F804700A605F
S3152020DEA0C9F8007072676F6798F84500082807D16F
S3152020DEB072666F66F266EF66B266AF66F265EF65EA
S3152020DEC098F80C00032818BF012803D111203067A9
S3152020DED000992967404602F061F818B10120306682
S3152020DEE0C5F860B0A168E068002908BF002821D0C5
S3152020DEF018B106217164C5F844A0A06818B1042180
S3152020DF003165C5F850A0112001213066C5F860B0D2
S3152020DF1071666F66F166EF66B166AF66F165EF658D
S3152020DF2098F80C00032818BF012803D11420706507
S3152020DF3000996965BDE8F18F401E03288D4914D8C4
S3152020DF40DFE800F002060A0F086840F0030006E02A
S3152020DF500A6842F00C0207E0086840F030000860AA
S3152020DF6070470A6842F0C0020A607047401E0328A4
S3152020DF708149824B19D8DFE800F0020B0F124FF4AB
S3152020DF800060002A0A6814BF22EA0000104308E035
S3152020DF904FF080601946F4E74FF00050F1E7022059
S3152020DFA0F8E708600020FDF72AB870477448754BBB
S3152020DFB00268B3FBF1F1491E890622F0E05201F0F6
S3152020DFC0E0510A4302607047F0B56F4905228A6303
S3152020DFD06E4A49F2B003684C936365686C4E6D4F68
S3152020DFE0DFF898E125F01005656000786A4D401E1F
S3152020DFF003285AD8DFE800F002162E4101260E65A6
S3152020E0001365CE65D3652E608E65052693654E6590
S3152020E0105365606840F400606060216841F40061C7
S3152020E0202160F0BD04200421B8640220B364396540
S3152020E03033652861F9640521F36479647364DEF815
S3152020E040040040F08060CEF80400DEF8001041F095
S3152020E050806128E0022038603360F860F360B86081
S3152020E0600520B36078607360616841F0005161607B
S3152020E070206840F000502060F0BD042401200C6070
S3152020E0801360CC60D360286205258C6093604D6038
S3152020E0905360DEF8040040F00200CEF80400DEF8DB
S3152020E0A0001041F00201CEF80010F0BD3B48704729
S3152020E0B000207047FF2027490A680968920902F044
S3152020E0C00302032A13D8DFE802F0020D0F110909F3
S3152020E0D011F0030102D0012902D005E0012070476A
S3152020E0E01020704720207047082070470220704754
S3152020E0F001460420002900D1704710B5087B03284B
S3152020E1000CD101F1780291F840104B0602D5132448
S3152020E110147003E0507808B926211170002010BD14
S3152020E1207047032100E000214FF4C06038E61C49E7
S3152020E1300860002070471A490A680260002070474C
S3152020E14005480168006A10F0020018BF01207047B8
S3152020E15068C00F4004800F4040441F40F13001002A
S3152020E160F0821F4070821F40FC801F4070831F401A
S3152020E1707C811F406CC00F4000801B4000001C404B
S3152020E18018C00F40E0C8B60E94801F4008821F405A
S3152020E190A0821F402C811F40A4831F40002D3101C7
S3152020E1A028800F4062F30F2262F31F4200B500BF82
S3152020E1B0130096469446103928BFA0E80C50FAD86A
S3152020E1C05FEA417C28BF0CC048BF40F8042BC90712
S3152020E1D028BF20F8022B48BF00F8012B00BD0000E5
S3152020E1E070B50446042584B32168080F0B282CD14A
S3152020E1F0C1F30360012828D038BBC1F303161EB112
S3152020E200022E05D002D306E0802606E0C02604E0B2
S3152020E2104FF4807601E0802E17D36068F608FFF74A
S3152020E22085FB90B160683018FFF780FB68B1164DEA
S3152020E230102068606168324605F10C00FFF70AFB62
S3152020E2404FF400702E60A8600025284670BD70B55A
S3152020E250054604200C46002D18BF002C12D00A4E4D
S3152020E2604FF4007106F12C00FDF7CCFD06F12C01B0
S3152020E27006F10C00FFF786FA20B906F12C01296059
S3152020E280B268226070BD0000C01C002070B5054613
S3152020E2900E4602F0C4F804000BD1012306F18002B9
S3152020E2A00021284602F082F9707C012804BF002133
S3152020E2B03174204670BDF0B50F260F24054689B04F
S3152020E2C0029601EB041600208DF810208DF8000010
S3152020E2D0012701930123039706F180020121284675
S3152020E2E002F064F90297694600F02BF909B0F0BDD7
S3152020E2F0F0B589B004460D4616461F4600F01BF899
S3152020E300B8B98DF800000E2005EB00110E220292DE
S3152020E31001230393204601F180028DF81060019796
S3152020E320012102F043F9012069460290204602F09D
S3152020E3306BF909B0F0BD2DE9F843804684B00C4630
S3152020E34016461F4604202CB304F5E675687818B1C6
S3152020E3504046FFF7B0FFE8B9287804F1B009022833
S3152020E3600AD1694699E80D1081E80D1004F1C00004
S3152020E37090E80E1089E80E103B463246214640464C
S3152020E38001F07AFF2978022904D16A4692E83A00D8
S3152020E39089E83A0005B0BDE8F083F8B50C4684B08C
S3152020E3A00421ECB194F8CC1104F1900502290AD16C
S3152020E3B06E4695E8825086E8825004F1A00191E8C5
S3152020E3C0C05085E8C050214602F011FA014694F843
S3152020E3D0CC01022804D16A4692E8590085E85900E2
S3152020E3E0084605B0F0BD2DE9FE435FEA01088146C7
S3152020E3F015464AD0012D48D808F5E47630780028ED
S3152020E40043D008F1400748463C6802F0E0F93178CD
S3152020E410A40904F0010465B939B122464846FCF71F
S3152020E42092FF4146484601F0C0FDB07988B10121CE
S3152020E4300CE041B1B97922464846FCF784FF414693
S3152020E440484601F0B2FDB07918B10021484602F0C5
S3152020E45065FA6A4602214846FCF7C7FF14B10098A0
S3152020E4604008009001AA00214846FCF7BEFF0199EA
S3152020E470009A0A20B1FBF2F1491C4143890800E0A9
S3152020E48000BF0846411E0028FAD1BDE8F7832DE9B2
S3152020E490F0430546894689B017461E46484601F070
S3152020E4A06FFD80460022494600F04CF900F041F8E5
S3152020E4B0FFF741FF040031D1022109238DF80010F6
S3152020E4C001220293039299F8471009F5C872002970
S3152020E4D01CBF1078002803D051780291137803931B
S3152020E4E001978DF810800596116B0691029809EBFD
S3152020E4F00011039B00F0C8F800F020F804000DD18D
S3152020E50000F017F8FFF749FF040007D199F8CF014B
S3152020E51020B100F00EF8FFF7EBFE0446284602F065
S3152020E5205CF90122494600F00DF9204609B0BDE8E4
S3152020E530F0833B4642464946284670470120694695
S3152020E5400290284602F060B82DE9F84789B00024C9
S3152020E55001220B2389468DF800400392002702933F
S3152020E56080468DF8104099F8471000291EBF09F5DE
S3152020E570CA710878002803D04A7802920D7803952C
S3152020E58000224946404609F1500AFFF72CFF042570
S3152020E5905AF8046BCEB13B46002249464046FFF747
S3152020E5A0CAFE040014D10197029809EB0011039B9F
S3152020E5B0404601F18002012101F0F8FF0120694641
S3152020E5C0029000F092FA040002D1F7196D1EDFD1D5
S3152020E5D04646ECB94FF0000809F1500704250020E3
S3152020E5E057F8044B84B14346002249463046FFF76C
S3152020E5F0D4FE60B999F8CF1131B14346002249465D
S3152020E6003046FFF775FE10B96D1EA044E8D10446AA
S3152020E610304602F0E2F8012249463046FFF7E3FE73
S3152020E62020460AB0BDE8F0872DE9F84105460E467A
S3152020E63089B01746304601F0A3FC00F080F800F0A0
S3152020E6406EF804001BD100220123052400F06CF86B
S3152020E6501EBF06F5C6710878002800F050F800F095
S3152020E6600FF8FFF76BFF040009D100F053F80400E0
S3152020E67005D196F8CF0110B100F047F8044634E0D2
S3152020E6800298039B06EB0011284601F18002012106
S3152020E69001F08CBF2DE9F84105460E4689B0174674
S3152020E6A0304601F06DFC00F04AF800F038F80400FE
S3152020E6B01BD100220123082400F036F81EBF06F5C0
S3152020E6C0CE710878002800F01AF8FFF7D9FFFFF757
S3152020E6D035FF040009D100F01DF8040005D196F875
S3152020E6E0CF0110B100F011F80446284602F075F843
S3152020E6F0012200F026F820460AB0BDE8F08103D09A
S3152020E7004A7802920978039170473B464246314621
S3152020E7102846EDE53B464246314628463DE63B46E1
S3152020E72042463146284606E601978DF80020039377
S3152020E73002948DF8108096F847100029704780465D
S3152020E7400022314628464EE6F0B5054689B00E46CB
S3152020E75014461F46042084B124216846FDF752FB27
S3152020E760032201238DF8002069460293284603932D
S3152020E77007940897019601F047FF09B0F0BD0000E5
S3152020E780F8B50D461E468EB00746002101A8002367
S3152020E79000248C4680E81A101168042902D8506873
S3152020E7A0402817D301212974106C000D00F0070092
S3152020E7B0401E05280CD8DFE800F0030709030305CF
S3152020E7C002240CE004240AE0012408E0032406E0C5
S3152020E7D02B747BE03168C1F30324002C76D0009380
S3152020E7E00322069301218DF82430631E032B8DF8F6
S3152020E7F01420CDF830D00D91079108910ED8DFE85E
S3152020E80003F006020A02DFF8802A019206E0DFF8EA
S3152020E8107C1A019102E0DFF8780A0190012301AAEF
S3152020E8200121384601F0C2FE05A9384601F0ECFE4A
S3152020E83000284CD13068C0F3036000281FBF7068C1
S3152020E840C0F3072000280090641E0021032C297481
S3152020E8503CD8DFE804F00210271C009A510635D454
S3152020E860DFF8300AC5F8C000009A02F0C30242F051
S3152020E8704002009221E00099880727D4DFF8182A41
S3152020E880C5F8C0200099090241F4007114E00099CE
S3152020E89088071BD4DFF8042AC5F8C020009941F048
S3152020E8A0020109E00099080610D4DFF8D02CC5F81B
S3152020E8B0C020009941F080010091012001210422ED
S3152020E8C0287429756A750098A861697400200FB08C
S3152020E8D0F0BD0022F8B50C460023002605468EB052
S3152020E8E00AA90292002081E84D00032200908DF88B
S3152020E8F0143001218DF804200126DFF8847CCDF800
S3152020E90020D00991012303910AAA049628460A9722
S3152020E91001F04CFE01A9FFF714FEB8B90099042294
S3152020E92001F0F7010091267400992675090401F457
S3152020E9307F0141F0042141F08101C4F860110E21AC
S3152020E9406175009BA361627484F8CF610FB0F0BD1E
S3152020E9502DE9F847914600220C4691B08DF81020DB
S3152020E9604FF400710292012280460191039254B302
S3152020E970032109AA8DF800101026079204F180079A
S3152020E980089601233A46012101F010FE0126694608
S3152020E990029600F0AAF8B0B9DDF8240049A610F1B5
S3152020E9A0010F02BF09A8416811F1010F07D1826822
S3152020E9B012F1010F04BFC06810F1010F09D000F039
S3152020E9C08FF800283CD044F68E6A504612B0BDE817
S3152020E9D0F0870023002221464046FFF7ACFC002882
S3152020E9E0F1D109201023029002220693039B8DF851
S3152020E9F00020029807EB001205960121404601F0DF
S3152020EA00D5FD012140460291694601F0FDFD0028F1
S3152020EA10D9D1002300222146404601F0E8FE0028D5
S3152020EA20D1D100F057F869468DF80020404607934B
S3152020EA3001F0EAFD0028C6D100F052F80028C2D104
S3152020EA4004F1400701223868B9790225322440F0A2
S3152020EA50400038604046FCF776FC00E06D1C641EC2
S3152020EA60B1D000210DA8002200238C4680E80E106C
S3152020EA703969DFF81C2D4046914205F0FF0227BF59
S3152020EA80DFF8003B0D93DFF8001B0D91DFF8043DE6
S3152020EA9000211A4301230E920DAA01F087FD0020A2
S3152020EAA000F018F88DF800206946079300F01DF82D
S3152020EAB05FEA000A87D100F013F80028CED1C9F8E2
S3152020EAC0005082E700112233445566778899AABBE5
S3152020EAD0CCDDEEFF10210290032209AB089170476E
S3152020EAE0102209A9304602F04FBA404601F08CBDCB
S3152020EAF02DE9F043CE68012504464FF48070002E80
S3152020EB0047BFF61E05FA06F6761CF60826654E68D9
S3152020EB10402E08D30E6BC6F3031605FA06F6B6F575
S3152020EB20004F18BF304604F5E07C0026CCF80000C4
S3152020EB306FF07F4E4FF00008B146002701EB4700CB
S3152020EB4090F8240058B105FA00F070453CBF86465F
S3152020EB50B94680453EBFB0F5801F80463E467F1C85
S3152020EB60042FEBD3C645CCF804E0CCF81080DFF890
S3152020EB70205C0CBF012000208CF80900246DAC42BB
S3152020EB8025D391F8580040B101F16004603114F882
S3152020EB9009501560885D186023E001F1250010F8E2
S3152020EBA01940202C04D0D82C04BFDC25156001E088
S3152020EBB021201060253111F81600202802D0D828CF
S3152020EBC003D00EE021221A600BE0DC2108E001F1BF
S3152020EBD0250010F81940146001F1250212F81610AC
S3152020EBE019600020BDE8F0832DE9FC4F85B015463D
S3152020EBF01A68814600244FF00408C2F303500128E6
S3152020EC0002BFA868C0F3C044002C00F083810E46C2
S3152020EC1000213173069A18208B468A4606F1500722
S3152020EC20137804AA03F00F0386F8463003AB00912D
S3152020EC30294601903046FFF75BFF3868DFF8503BC6
S3152020EC40984224BF2020019006980168C1F3033002
S3152020EC50002809D1069BCDF808902A4631464846F9
S3152020EC60FFF78EFD5FEA000840F05481A968C1F3C2
S3152020EC70405038B128694FF0020AC0F3421B00F0F9
S3152020EC801F0008E0C1F3805030B12869410D01F002
S3152020EC90070BC0F304400090019B06F1D00142F2FD
S3152020ECA00402202B1AD195F8580098B105F1580363
S3152020ECB0D3F8049042F20423C9F3002010B1DFF8E0
S3152020ECC0D80A04E0C9F3C01020B1DFF8D00A0864BE
S3152020ECD04B6407E0DFF8C83A0B6402E0DFF8C40A89
S3152020ECE008644A64012240F206403273DFF8B83ABB
S3152020ECF038663B640498DDF8049000F0FF0040EA73
S3152020ED00094040F0006040F480600860039A4FF488
S3152020ED108C60086602F0FF0242EA094242F0006255
S3152020ED2042F480620A6306990868C0F3036058B1EA
S3152020ED304868020608D000F0FF004FF0000B009034
S3152020ED40ECB1400000901AE0CCB10198202805D1E2
S3152020ED50DFF8581ADFF8582A39637A630298314641
S3152020ED60FFF794FA5FEA00085ED102986A46314698
S3152020ED70FFF7EEFD5FEA000856D14FF0000B019811
S3152020ED80182819D14CB1ED20316C40EA094041F0C8
S3152020ED904001316440F00A403AE0A968C1F340506E
S3152020EDA010B12869000A2CE0C1F3805010B12869DF
S3152020EDB0000E26E0032021E00CB1EE20E4E705F149
S3152020EDC05801087870B14968C1F3401018B1EC2079
S3152020EDD04FF0020A15E0C1F3001070B16C204FF0FD
S3152020EDE0000A0EE0A968C1F3405008B1EC2008E0E3
S3152020EDF0C1F3805008B16C2003E0132000218B46FC
S3152020EE000091C0B240EA094040EA0A6040F0006022
S3152020EE1040F4806000213863069806F2CD190268F6
S3152020EE20C2F3031040B1012874D16868402803D367
S3152020EE302A6CC2F3402018B900985844009033E039
S3152020EE40120C12F0050F18BFA5210BD1900709D55A
S3152020EE50069B02982A463146FFF73BFD5FEA0008CB
S3152020EE6058D10121286C06F5B872800A10F00A0FB5
S3152020EE700AD06FF0F92010605060019820280DD11B
S3152020EE8040F2FF63936009E010F0110F42D04FF05B
S3152020EE90062010605060DFF89C0B90600122BBF1A9
S3152020EEA0000F89F8002012D1009860B100F0FF02EF
S3152020EEB024B1DFF8E00802437A631EE0DFF8781BEE
S3152020EEC00A437A6320E042F20440786314E0BBF1DF
S3152020EED0010F06BF06200909072041EA8021009854
S3152020EEE0000400F47F00014341F0485141F40071B1
S3152020EEF07963DFF8A41CB96334B1012089F80100B5
S3152020EF00316C41F040013164306C4FF0000840F004
S3152020EF1010003064404607B0BDE8F08F2DE9F84F49
S3152020EF200D0096B0144608BF4FF0040869D08346DA
S3152020EF3008236A460021FFF707FC5FEA000860D114
S3152020EF400098DFF8581C884218BF44F68B6858D1A1
S3152020EF509DF8040028609DF806707F1C0A2F88BF24
S3152020EF600A2708210CB14FF40061FB0002AA58465B
S3152020EF70FFF7EAFB5FEA000843D164212846FCF725
S3152020EF8041FF4FF0000A4FF6847904E0012085F8EE
S3152020EF9058000AF1010ABA4533D202A901EBCA0068
S3152020EFA00278C37902EB0322B2F57F4F18BF4A4578
S3152020EFB0EFD100210223C6185B1E367946EA0121AD
S3152020EFC0F9D5C678B60004B10902B2F57F4F0DD126
S3152020EFD0502E05F10802584688BF50263346FFF7A3
S3152020EFE0B3FB5FEA00080CD16E60D2E74A45D0D148
S3152020EFF0334605F15C025846FFF7A6FB5FEA000878
S3152020F000C4D0404617B0BDE8F08FF0B5490089B08E
S3152020F01003250191002601278DF800506946029686
S3152020F02003978DF810600792089301F0EDFA0AB045
S3152020F030E0BD490060B589B0022501910021012655
S3152020F0408DF810108DF80050694602960396059289
S3152020F050069301F0D9FA09B060BD2DE9F847054697
S3152020F0600C4687B00320E07304F14500082158237D
S3152020F07001700326236426731AB1216C41F0010105
S3152020F0802164012204F1500682700F200121B085CF
S3152020F090F18504F5C2774FF400724FF48020FA638D
S3152020F0A004F2C9183864C4F8D001284688F800101C
S3152020F0B02146FFF7EBF8002862D100F0F1F80DF198
S3152020F0C00C0A80E80E10DFF8D81ADFF8D82A039128
S3152020F0D00123CAF8042003AA0121284601F066FA52
S3152020F0E000F0DEF8DFF8C09A80E80E10DFF8BC1AB0
S3152020F0F0CDF80C90CAF80410012303AA0021284633
S3152020F10001F054FA4FF418400223029002AA40F24A
S3152020F11055512846FFF78DFF002831D108236A460E
S3152020F12010212846FFF771FF002829D10098DFF803
S3152020F130802A0199904289B2019108BFB1F5B24F38
S3152020F14040F09F8008236A4627212846FFF75DFF47
S3152020F150002815D10098C0F30720A0F117010A290D
S3152020F160009080F08E800122824032604FF47041E0
S3152020F1700291022302AA00212846FFF75AFF0028DF
S3152020F1807CD1DFF8301A4AF20475DFF82CCA716375
S3152020F190B5634FF08721C6F84CC0DFF8202AB56525
S3152020F1A0DFF81C3ADFF81CEADFF81C5ADFF834CCEB
S3152020F1B0C6F854E0DFF830ECC6F83090316448F2D7
S3152020F1C0307A7264B364C6F85090DFF8209C31669A
S3152020F1D07266B366F26631677567C6F878C0F567DA
S3152020F1E004F1D006C6F84CE0DFF804ECC6F850E06F
S3152020F1F004F5A874C6F85490DFF8F89BC6F830E0DA
S3152020F200DFF8F4EB31647264B36431607260B3600A
S3152020F210C6F80C9031617261B361F2613162756218
S3152020F220C6F828C0F562C6F834E0C6F838A031669C
S3152020F2307266B366C6F86C9031677267B367F267F9
S3152020F24021602161DFF8B41B626102226560C4F867
S3152020F25008C0E560A3610323E16104213A710124FA
S3152020F2607B7109233A703A730522397239740B213E
S3152020F2707C707B737A72797488F8034008B0BDE875
S3152020F280F08744F68D60F9E735040124050401242E
S3152020F2903F0401240104012001040220310401201D
S3152020F2A0002103A8002200238C4670472DE9F04F29
S3152020F2B08DB09046D8F80020C2F30353052B0CBFFF
S3152020F2C001260026C2F30335002DC2F3034418BFBE
S3152020F2D0032D07D18A460AF1300783462CB1032C09
S3152020F2E000D1D5B94FF0040944E16846FEF723FF43
S3152020F2F000F04CF9B9F1000F07D16A46514658461D
S3152020F30000F0CFFC5FEA0009EED1002010218AF818
S3152020F3100C00032239610C920EE0032010218AF87A
S3152020F3200C003961D8F80000C0F30350042804BF2C
S3152020F3305021396106200C9054EA0500514608BF19
S3152020F3400126032D0CBF0820012078755846FEF78C
S3152020F3509DFF5FEA0009C7D10CB9002003E0002EEB
S3152020F36014BF102020200FF6783101230A180121FE
S3152020F370584601F01BF900200323059002AA8DF898
S3152020F380200001208DF8103004A9069007905846B9
S3152020F3900B9201F039F95FEA000904BF9DF80800B5
S3152020F3A0C228A1D102A9002C4FF480300AF5E07B97
S3152020F3B086F0010607BF897830394A79A2F13001D3
S3152020F3C000FA01F14FF4807239624FF48051CBF864
S3152020F3D010000320CBF804101021002CCBF800209D
S3152020F3E08AF80C00396108BF032D01960AF1B00670
S3152020F3F04AD10120022106238AF811108AF810000A
S3152020F4000022AAF81200DFF8F8198AF81530072307
S3152020F4108AF8140001988DF800204FF004228DF8E8
S3152020F4200330DFF8E039A8B1822402208DF801408C
S3152020F430CAF8180033637263B163D8F80000C0F3AA
S3152020F4400310032819BF00208BF80A0001218BF80E
S3152020F4500A1016E0812402208DF80140DFF8A84901
S3152020F460CAF818000120336374630724B1638AF82D
S3152020F4701C008AF821408AF82000386033647264A0
S3152020F480B1640098FEF753FE40F20640C64930602C
S3152020F4903966C5B90122DFF874098AF80C20DFF80D
S3152020F4A070193865BE4A796542F204003266DFF863
S3152020F4B064197066DFF8602931624FF48C633265F7
S3152020F4C0CAF8303156E0019840B9012302210C2494
S3152020F4D0092008220525DFF844C907E02123222117
S3152020F4E02C24292028220A25DFF834C98902C7F8A6
S3152020F4F050C041EA0545800240F4417041EA8262CB
S3152020F50045EA84659C0644EA8324DFF8183941F4C9
S3152020F510487145F0032545F020057D652343B865D0
S3152020F520DFF80459336125433D6744F003237B6785
S3152020F530DFF8F858BB67DFF8F838F8672343DFF899
S3152020F540F4083366024325437266DFF8EC083562F9
S3152020F5502043716230657165DFF8E0180C43CAF8E4
S3152020F5603041019818B1396941F0400139610220B2
S3152020F5708BF80C0048460DB0BDE8F08F3E040220E3
S3152020F58085040124EE04208AED04188A8146002071
S3152020F590FEF7CDBD2DE9F84F9CB0044616460D4604
S3152020F5A03068C0F30352072AC0F303400CBF01275B
S3152020F5B00027A0B96846FEF7BEFDFFF7E7FFB9F1A1
S3152020F5C0000F07D16A462946204600F06AFB5FEAEB
S3152020F5D0000911D1002010212873296403E0032279
S3152020F5E050202A7328640821204685F8451029466C
S3152020F5F0FEF74CFE5FEA00097AD130680FF610122A
S3152020F600C0F3034008B9012303E0032870D1012366
S3152020F61010320121204600F0C9FF0820002285F85B
S3152020F620450003A92046FFF779FC5FEA00095FD150
S3152020F63000F004FA380003D15020032128642973CE
S3152020F64005F1500140F20640574A08660A643068A0
S3152020F65005F5E67805F1D00442F2010ADFF8E0B795
S3152020F660C0F30342032A1CBFC0F30330032841D131
S3152020F670DFF8D007DFF8D0270865DFF8D03740F24B
S3152020F68006700A634B63DFF8C8270867DFF8C417BC
S3152020F69021604FF4EC632263DFF8BC0723664AF22D
S3152020F6A00431206461643068C0F30340E8B9002146
S3152020F6B0062282238DF800108DF803208DF8013044
S3152020F6C00098FEF734FD012002212874E722697470
S3152020F6D006200121AA6168754FF0042029756982C8
S3152020F6E0C4F810B06061C4F818A0022188F8001070
S3152020F6F048469CE10028FBD10868029EDFF85C275B
S3152020F700B0F1807F06F0FF0627BF20208E23182009
S3152020F710C22346EA004643EA004316432660019E5A
S3152020F72006F0FF0646EA004632432263DFF83027FA
S3152020F730134323644FF40E5363644FB9DFF8240731
S3152020F740DFF8242708634A63012188F802101AE08B
S3152020F7500E68CB23C4F810B0B6F1807FDFF80C6793
S3152020F7606661C4F818A028BFCC230C2743EA0040A2
S3152020F770AF6101272F7406266E7510432F750863F7
S3152020F780DFF8EC0648634FF48C612166B0E7000071
S3152020F7900100000100B204A63E04200A34042008F9
S3152020F7A0120420080204180805040424130420083F
S3152020F7B0042401002DE9F84F9CB0814610680D469F
S3152020F7C044F68D684FF0000AC0F3035009280CBF79
S3152020F7D0012400240420102185F84500106829647E
S3152020F7E0C0F30347C0F30336B7B96846FEF7A3FC38
S3152020F7F08046FFF7CCFEB8F1000F07D16A4629468E
S3152020F800484600F04EFA5FEA00085AD1012085F8D2
S3152020F8100CA085F845000EE0022F02D10320287384
S3152020F82009E0032F4DD103210820297385F84500AF
S3152020F8300CB94FF0010A002E1CBF022E032E40D1F8
S3152020F84056EA070008BF0124022E03D1042085F89A
S3152020F850450004E0032E04BF082185F84510286CB6
S3152020F860002C294614BF20F0400040F04000286498
S3152020F8704846FEF70BFD5FEA000822D144B1022F4D
S3152020F88002D0032F02D00CE010200BE0202009E02C
S3152020F890022F02D0032F02D003E0302002E04020A6
S3152020F8A000E000200FF2886101230A180121484632
S3152020F8B000F07CFE524603A94846FFF72FFB5FEA5D
S3152020F8C0000840F0B38000F0B9F8032005F180014C
S3152020F8D0287340F20642DFF89C350A630B613CB957
S3152020F8E04FF0220A2C23292028274FF00C0E06E041
S3152020F8F04FF0020A0C23092008274FF0060E4FEA64
S3152020F900066909F040794FEA062C0CF4407CCDF8A4
S3152020F910009049EA0C0949EA8A6ADFF85CB54CEA84
S3152020F9200E0E022E4EEA832E4BEA0A0B4CEA87272E
S3152020F930C1F800B0009B1CBF032E002247F0800791
S3152020F94043EA0E0305F5807E43EA806343F4802351
S3152020F9504B604AF0201343F480630B65DFF81C3597
S3152020F96043EA0A03CEF81470CEF80030DFF81035BB
S3152020F97043EA0A03CEF810304CF48C63CEF83030AC
S3152020F98017D149EA8063DFF8FC0442EA0C021843C7
S3152020F990002308620A640222022E85F8CC21AB615C
S3152020F9A003D14FF48020A86104E0032E02D14FF426
S3152020F9B00022AA6124B9A86940F40000A86106E0C3
S3152020F9C02A6C012042F080022A6485F87900DFF82B
S3152020F9D0B82442F203030A660120002E4B662874BF
S3152020F9E014BF02200020687406206875012129751D
S3152020F9F0002069828DF800004CB1022E08BF4120DC
S3152020FA000CD0032E0AD181218DF8011008E0022E78
S3152020FA1008BF422002D0032E08BF82208DF8010085
S3152020FA2008228DF803200098FEF781FB40461DB062
S3152020FA30BDE8F08F001E10320032042601AB02AA48
S3152020FA4003A92846FFF754B82DE9F8410D4604248A
S3152020FA501646002D99B0804618BF002E00F09880BB
S3152020FA604FF400712846FCF7CDF905F14407012211
S3152020FA704FF08073BA70FB60DFF810042860DFF83F
S3152020FA8010140322012069606A73AA7385F8C801BD
S3152020FA903168C1F30360002808DD7068C0F3034095
S3152020FAA0012803D1296C41F4807129643068020D24
S3152020FAB002F00F02092A61D8DFE802F00505464840
S3152020FAC04E4E54545A5AC0F30340002856D1DFF8DC
S3152020FAD0C413DFF8C423F96329467C7040463A6470
S3152020FAE0FEF7D4FB040049D13068C0F30310012867
S3152020FAF010D105F5B8706FF0F9210160002341601F
S3152020FB0040F2FF618160002229464046FEF7D3FB62
S3152020FB10040033D131680FF288300123C1F3034129
S3152020FB2000EB01120121404600F040FD00226946EB
S3152020FB304046FFF7F3F9040020D133466A4629468A
S3152020FB404046FFF751F818E0012200E0002229461E
S3152020FB504046FFF782FA10E0324629464046FFF714
S3152020FB60A5FB0AE0324629464046FFF713FD04E06E
S3152020FB70324629464046FFF71DFE044634B928461C
S3152020FB80FEF7B6FA307800F00F00B87001213970F0
S3152020FB9020461AB0BDE8F0810426017C5346445005
S3152020FBA02087188B108F02A3A087188B108F04A76D
S3152020FBB000510052108F0CB3008770870087AA87C8
S3152020FBC000870587108F0BB7008755872DE9F041D1
S3152020FBD080460C46042074B304F5E2759F182968E4
S3152020FBE07F42494201EA02066A790F407F420AB9DA
S3152020FBF0E96889B9BE421ED200F01FF8002804BF4A
S3152020FC0029688E19F6D016E0324621464046FEF760
S3152020FC1041FD80B9E9688E19BE420CD2E96836EAE0
S3152020FC20010002D1B81B8842EED200F006F8002847
S3152020FC3008BF2968EFD0BDE8F081324621464046EC
S3152020FC40FEF7F2BC2DE9F84180460420154600290E
S3152020FC5089B01F4618BF002D21D0109CFCB1084624
S3152020FC6000F08EF9032101238DF800100021039343
S3152020FC7002918DF810004FF6FF76B442019769461F
S3152020FC800795404698BF2646089600F0BDFC30B919
S3152020FC90A41BF719B608002C05EB8605EBD1FEF739
S3152020FCA02BBD2DE9F8430E4614460421002C92B094
S3152020FCB0804604D060782178884208BF002100F051
S3152020FCC08D8006F1450708203870607803254FF08F
S3152020FCD00109422818BF412802D104200225387064
S3152020FCE06078822814BF42284FF021090020202145
S3152020FCF00A908DF834008DF8240001200B9001A85D
