S0130000666C6173686C6F616465722E737265638C
S31520208400D8A42120211C21207B88202049FF202020
S315202084107B8820207B8820207B882020000000004D
S315202084200000000000000000000000007B882020C3
S315202084307B882020000000007B8820207B8820202D
S31520208440A92D2120A92D2120A92D2120A92D21208A
S31520208450A92D2120A92D2120A92D2120A92D21207A
S31520208460A92D2120A92D2120A92D2120A92D21206A
S31520208470A92D2120A92D2120A92D2120A92D21205A
S31520208480A92D2120A92D2120A92D2120A92D21204A
S3152020849003162120491C2120511C2120591C212032
S315202084A0611C2120691C2120711C2120791C21205E
S315202084B0811C2120891C2120911C2120991C2120CE
S315202084C0A11C2120A91C2120B11C2120B91C21203E
S315202084D0C11C2120C91C2120A92D2120A92D2120E4
S315202084E0A92D2120A92D2120A92D2120A92D2120EA
S315202084F0A92D2120A92D2120A92D2120A92D2120DA
S31520208500A92D2120A92D2120A92D2120A92D2120C9
S31520208510A92D2120A92D2120A92D2120A92D2120B9
S31520208520A92D2120A92D2120A92D2120A92D2120A9
S31520208530D11C2120A92D2120A92D2120A92D212082
S31520208540A92D2120A92D2120A92D2120A92D212089
S31520208550A92D2120A92D2120A92D2120A92D212079
S31520208560A92D2120A92D2120A92D2120A92D212069
S31520208570A92D2120A92D2120A92D2120A92D212059
S3152020858027922020A92D2120A92D2120A92D212067
S31520208590A92D2120A92D2120A92D2120A92D212039
S315202085A0A92D2120A92D2120D91C2120E11C2120E3
S315202085B0A92D2120A92D2120A92D2120A92D212019
S315202085C0A92D2120A92D2120A92D2120A92D212009
S315202085D0A92D2120A92D2120A92D2120A92D2120F9
S315202085E0A92D2120A92D2120A92D2120A92D2120E9
S315202085F0E91C2120A92D2120F11C2120F91C212034
S31520208600A92D2120F52C2120011D2120091D2120E5
S31520208610A92D2120A92D2120A92D2120A92D2120B8
S31520208620A92D2120A92D2120A92D2120A92D2120A8
S31520208630A92D2120A92D2120A92D2120A92D212098
S31520208640A92D2120A92D2120A92D2120A92D212088
S31520208650A92D2120A92D2120A92D2120A92D212078
S31520208660A92D2120A92D2120A92D2120A92D212068
S31520208670A92D2120A92D2120A92D2120A92D212058
S31520208680A92D2120A92D2120A92D2120A92D212048
S31520208690A92D2120A92D2120A92D2120A92D212038
S315202086A0A92D2120A92D2120A92D2120A92D212028
S315202086B0A92D2120A92D2120A92D2120A92D212018
S315202086C0A92D2120A92D2120A92D2120A92D212008
S315202086D0A92D2120A92D2120A92D2120A92D2120F8
S315202086E0A92D2120A92D2120A92D2120A92D2120E8
S315202086F0A92D2120A92D2120A92D2120A92D2120D8
S31520208700A92D2120A92D2120A92D2120A92D2120C7
S31520208710A92D2120A92D2120A92D2120A92D2120B7
S31520208720A92D2120A92D2120A92D2120A92D2120A7
S31520208730A92D2120A92D2120A92D2120A92D212097
S31520208740A92D2120A92D2120A92D2120A92D212087
S31520208750A92D2120A92D2120A92D2120A92D212077
S31520208760A92D2120A92D2120A92D2120A92D212067
S31520208770A92D2120A92D2120A92D2120A92D212057
S31520208780A92D2120A92D2120A92D2120A92D212047
S31520208790A92D2120A92D2120A92D2120A92D212037
S315202087A0A92D2120A92D2120A92D2120A92D212027
S315202087B0A92D2120A92D2120A92D2120A92D212017
S315202087C0A92D2120A92D2120A92D2120A92D212007
S315202087D0A92D2120A92D2120A92D2120A92D2120F7
S315202087E0A92D2120A92D2120A92D2120A92D2120E7
S315202087F0A92D2120A92D2120A92D2120FFFFFFFFF2
S31520208800002A01D101207047F0B41F4603460324D5
S315202088102340002B09D00424E31A017001300824B8
S31520208820E141521E26D05B1EF7D1042A1ADB13D033
S31520208830002F11D00C460D460E46102A02DB72C0A0
S31520208840103AFAE70C2A02DB32C00C3AFAE7082A59
S3152020885002DB12C0083AFAE7042A03DB016004305F
S31520208860121FF9E7002A05D0017001300824E141C2
S31520208870521EF7D1F0BC00207047FEE78D972020AE
S3152020888000000000AF97202000000000E59820205F
S315202088907F9A202071982020859920205D9B20205A
S315202088A0000000000000000000000000E7972020C4
S315202088B000000000BF972020859920207D9B202026
S315202088C000000000D79B2020000000004197202098
S315202088D00000000017982020000000000000000063
S315202088E000000000039C2020000000004F9C202038
S315202088F0000000007B9C20207F9A20202D9820207D
S315202089000000000000000000000000008B982020BE
S315202089106F99202000000000B71DC1046E3B8209FC
S31520208920D926430DDC7604136B6BC517B24D861AF8
S315202089300550471EB8ED08260FF0C922D6D68A2F15
S3152020894061CB4B2B649B0C35D386CD310AA08E3C34
S31520208950BDBD4F3870DB114CC7C6D0481EE09345AD
S31520208960A9FD5241ACAD155F1BB0D45BC29697567C
S31520208970758B5652C836196A7F2BD86EA60D9B63E7
S3152020898011105A6714401D79A35DDC7D7A7B9F7078
S31520208990CD665E74E0B6239857ABE29C8E8DA1916E
S315202089A0399060953CC0278B8BDDE68F52FBA582C4
S315202089B0E5E66486585B2BBEEF46EABA3660A9B751
S315202089C0817D68B3842D2FAD3330EEA9EA16ADA470
S315202089D05D0B6CA0906D32D42770F3D0FE56B0DD9F
S315202089E0494B71D94C1B36C7FB06F7C32220B4CE80
S315202089F0953D75CA28803AF29F9DFBF646BBB8FB6B
S31520208A00F1A679FFF4F63EE143EBFFE59ACDBCE8EB
S31520208A102DD07DEC77708634C06D4730194B043DC0
S31520208A20AE56C539AB0682271C1B4323C53D002ED7
S31520208A307220C12ACF9D8E1278804F16A1A60C1B9C
S31520208A4016BBCD1F13EB8A01A4F64B057DD0080853
S31520208A50CACDC90C07AB9778B0B6567C69901571EC
S31520208A60DE8DD475DBDD936B6CC0526FB5E611625B
S31520208A7002FBD066BF469F5E085B5E5AD17D1D579E
S31520208A806660DC5363309B4DD42D5A490D0B194417
S31520208A90BA16D84097C6A5AC20DB64A8F9FD27A531
S31520208AA04EE0E6A14BB0A1BFFCAD60BB258B23B623
S31520208AB09296E2B22F2BAD8A98366C8E41102F8358
S31520208AC0F60DEE87F35DA9994440689D9D662B900F
S31520208AD02A7BEA94E71DB4E0500075E4892636E91E
S31520208AE03E3BF7ED3B6BB0F38C7671F7555032FA5F
S31520208AF0E24DF3FE5FF0BCC6E8ED7DC231CB3ECF22
S31520208B0086D6FFCB8386B8D5349B79D1EDBD3ADC8A
S31520208B105AA0FBD8EEE00C6959FDCD6D80DB8E6026
S31520208B2037C64F643296087A858BC97E5CAD8A73A8
S31520208B30EBB04B77560D044FE110C54B38368646A1
S31520208B408F2B47428A7B005C3D66C158E440825584
S31520208B50535D43519E3B1D252926DC21F0009F2C69
S31520208B60471D5E28424D1936F550D8322C769B3F2C
S31520208B709B6B5A3B26D6150391CBD40748ED970AF3
S31520208B80FFF0560EFAA011104DBDD014949B9319C8
S31520208B902386521D0E562FF1B94BEEF5606DADF89A
S31520208BA0D7706CFCD2202BE2653DEAE6BC1BA9EBF4
S31520208BB00B0668EFB6BB27D701A6E6D3D880A5DE5D
S31520208BC06F9D64DA6ACD23C4DDD0E2C004F6A1CD40
S31520208BD0B3EB60C97E8D3EBDC990FFB910B6BCB43B
S31520208BE0A7AB7DB0A2FB3AAE15E6FBAACCC0B8A7B0
S31520208BF07BDD79A3C660369B717DF79FA85BB492F7
S31520208C001F4675961A163288AD0BF38C742DB081BB
S31520208C10C330718599908A5D2E8D4B59F7AB0854B8
S31520208C2040B6C95045E68E4EF2FB4F4A2BDD0C4707
S31520208C309CC0CD43217D827B9660437F4F46007228
S31520208C40F85BC176FD0B86684A16476C9330046123
S31520208C50242DC565E94B9B115E565A158770191828
S31520208C60306DD81C353D9F0282205E065B061D0B8B
S31520208C70EC1BDC0F51A69337E6BB52333F9D113EAA
S31520208C808880D03A8DD097243ACD5620E3EB152DE7
S31520208C9054F6D4297926A9C5CE3B68C1171D2BCCDD
S31520208CA0A000EAC8A550ADD6124D6CD2CB6B2FDFD3
S31520208CB07C76EEDBC1CBA1E376D660E7AFF023EA64
S31520208CC018EDE2EE1DBDA5F0AAA064F4738627F95F
S31520208CD0C49BE6FD09FDB889BEE0798D67C63A803A
S31520208CE0D0DBFB84D58BBC9A62967D9EBBB03E930F
S31520208CF00CADFF97B110B0AF060D71ABDF2B32A6AE
S31520208D006836F3A26D66B4BCDA7B75B8035D36B5DA
S31520208D10B440F7B10900000029A42020100100004A
S31520208D2019A8202000000000000000005A0418087E
S31520208D300830FF2400000000000000005A05180912
S31520208D400831FF2500000000000000005A06180AFE
S31520208D500832FF260000000000000000000000006E
S31520208D600000000000000000000000009F040324F3
S31520208D700000000000000000000000009F076007A0
S31520208D80200B042700000000000000009F8760873A
S31520208D90208B04A700000000000000005A041808B9
S31520208DA00830FF2400000000000000005A06180AA0
S31520208DB0FF26000000000000000000005A07180BC4
S31520208DC0FF27000000000000000000005A06188A35
S31520208DD0FFA6000000000000000000005A07208B9C
S31520208DE0FFA700000000000000000000939F202025
S31520208DF025A120203DA12020BDA1202071A2202018
S31520208E0075A3202000000000004018400080184054
S31520208E1000C0184000001940004019400080194029
S31520208E2000C0194000001A4029152120A51521200F
S31520208E30BF1521200000000000000000F115212090
S31520208E4003B2202055AF2020ADAF202093B0202084
S31520208E50CFB02020DFB020202DB020206DE820208C
S31520208E6071E820207DE820208DE8202000000000C9
S31520208E70000000000100000001000000C191202018
S31520208E80288E2020388E2020D08E202010000000F2
S31520208E9001000000000000003C8F20200000000080
S31520208EA04C8F202000000000000000000000000061
S31520208EB00000000000000000000000002D162120E8
S31520208EC049162120F9162120B7172120AC7B2120F5
S31520208ED0A9182120AF1821201B192120B3192120C0
S31520208EE0AD182120BF19212089182120A5A52020B1
S31520208EF0AFA52020C9A5202097A6202043A7202043
S31520208F0045A62020000000008D0F212015102120AD
S31520208F10000000001510212000000000AD102120A7
S31520208F20F5102120000000009D112120D3112120A1
S31520208F3027122120671221209B1221204929212016
S31520208F40552A21202F2B21208D2B21209B2B212080
S31520208F50BF2B2120432C2120DB2C2120EB2C212050
S31520208F60EF2C21200000000038B504463E4D00207D
S31520208F702862C5E90000C5E90200C5E90400686247
S31520208F803A4800F0ADF8C5E9060120460FF25D010A
S31520208F90BDE8344000F054B900F068B970B50C46ED
S31520208FA0314E316A072904BF756AA8421BD100F0C9
S31520208FB0C6FA0546C5EB0515D6E90023D6E90201F2
S31520208FC082184FF49666B5FBF2F00A250A236843E9
S31520208FD04FF49662B0FBF6F6761D0020B6FBF3F32F
S31520208FE05343236070BD012070BD00002DE9F84356
S31520208FF01D4F064600F06AF83A6A0446D7E9045916
S315202090008846521C651BD7E9060168EB09094945A4
S3152020901002D82CBFA8420122012A3A6206D0042A6D
S3152020902008D0052A0ED0072A0FD018E0C7E9004815
S315202090307E6214E0D7E90023A21A68EB0303C7E96E
S3152020904000230CE0C7E9024809E0D7E90201201AEB
S3152020905068EB0101C7E90201304600F007F9C7E9AC
S315202090600448BDE8F18300000068212080380100F3
S3152020907010B52C482C4A0168002341F44051016048
S315202090800020106029484FF0FF31012201618361C1
S31520209090C261846944F004048461826942F0010239
S315202090A0826101600121C160816000F048FAC00020
S315202090B01F49B0FBF1F000B901201E4A906010BD77
S315202090C01948016841F002010160704781B01A48B1
S315202090D0016842680092009801B0C943C043704796
S315202090E014498A68A2FB0001C00840EA4170C908D9
S315202090F0704738B50446FFF7E9FF00F00BF824182F
S3152020910041EBD505FFF7E2FFA942FBD301D8A042C8
S31520209110F8D331BD074A9368A3FB0445E40844EA03
S31520209120457470476CC00F400040084000410840FD
S3152020913040420F0028682120E04008400901020013
S3152020914002D4554881547047544A00F00F00131812
S3152020915003F8041C704710B5039C01F00701240175
S3152020916004F010042143016002B1136010BD0021D8
S31520209170016002B11160009808B101990160704721
S31520209180FEB5089E0027099C0A9D01970096FFF7A9
S31520209190E2FF3068012101FA05F540F410403060E5
S315202091A0606820EA05056560F7BD7CB5069C00252C
S315202091B0019547F2B0060094FFF7CDFF266073BDD8
S315202091C07FB5374C374D3848384A19B1022919D03E
S315202091D00DD37FBD41F2B00600950196002300F005
S315202091E01EF801960023009500F019F87FBD07216F
S315202091F02F4B029105210193002300920022FFF795
S31520209200BFFF7FBD009200230022FFF7CEFF0095EF
S315202092100023002202212046FFF7C7FF7FBD002220
S3152020922002212046A3E710B5224C2068000606D549
S315202092302149496819B1012088478021216010BD24
S3152020924010B51D4B1A4C596004220721204600F0E8
S31520209250E9F963690121502043F080036361FFF718
S315202092606DFF4FF480301549086010BD80B54FF44E
S31520209270803013490860BFF34F8FBFF36F8F0021D3
S315202092805020FFF75BFF00220721094800F0CAF98A
S3152020929000200949486001BD00E400E018ED00E007
S315202092A0D4801F4048821F40D8801F404C821F40B8
S315202092B000801B4018801B40A47B212008E100E071
S315202092C088E100E0002808BF00F01EB87047AA48B1
S315202092D0AA4A01684FF0004341F003010160402073
S315202092E01060A74883634FF080418163002202608B
S315202092F0A448036843F4C0130360A34801684908BF
S3152020930049000160012070472DE9F0419F48A0497E
S315202093100860A0480669A04D01220068296A9F4B53
S31520209320760D06F0030602FA06F6C0F38000CA037D
S31520209330DFF86C8278D52F6A27F480572F62296A26
S315202093400029FCD52F6A974A47F480372F62116966
S315202093504FF4405721F03F349349214311612F6028
S3152020936029680029FCD52F6827F480372F601168BB
S3152020937021F03F348D492143116048B17600082ED3
S31520209380414688BF0826B1FBF6F10122884C02E02F
S315202093901946F8E7521CB1FBF2F7A742FAD2854FBD
S315202093A085493C68521E2140140404F4E0242143BC
S315202093B0741EA40204F4E0541202214302F44072E3
S315202093C00A433A603969C909C90141F00301396163
S315202093D020B1796821F44021796005E07A6822F469
S315202093E0402242F400227A607968744A114041F082
S315202093F040617960BA687249114041F0C74141F015
S315202094000101B960BA6842F44032BA60396921F460
S31520209410E72141F4843139612A6A22F480322A6292
S31520209420296821F48031296000B14346B3FBF6F048
S31520209430644A1060BDE8F08192E0002A70B518BF1A
S31520209440012A3ED15748604B04681D68A409002A8A
S315202094500CBF0FF2A8120FF2B8120E0025F060757D
S315202094602FD00A29A8BF012112F8116002EB410151
S315202094704A78564906F03F0646EA84140E68521E5C
S31520209480D20502F06072154346F002060E605A6E2F
S3152020949022F440625A66BFF36F8F0668B44218BF23
S315202094A004601868854218BF1D605A6E42F44062D7
S315202094B05A66BFF36F8F086820F002000860BFF35A
S315202094C06F8F70BD2C48016841F4406103E02A4823
S315202094D0016821F440610160BFF36F8F704730B57A
S315202094E0384C002300202468324D19B102290AD095
S315202094F002D319E0234618E02968C1F30121491C2B
S31520209500B4FBF1F311E0A968264B1968AB68304CFF
S3152020951001F03F01B4FBF1F512214D43C3F3C251B3
S31520209520491CB5FBF1F300E00420136030BD024650
S3152020953004201AB911B127480860002070471D4819
S31520209540204A016880681368C1F30121491C00F074
S315202095503F00401CB3FBF1F1B1FBF0F07047000057
S315202095601448184900680A68C0F30120401CB2FB41
S31520209570F0F070470000000080C00F4014800D409E
S3152020958000900D40B0810D4040012E4000366E01E6
S31520209590207B212060441F4010800D40007B9A179D
S315202095A000A4781FF0800D401818131823231A0FB3
S315202095B00144950814C00F40FFE0F8FFCFFFFFE3DA
S315202095C080FF7F9C805521201CC00F4000802A4090
S315202095D000389C1C406BED0738B504460D4602E04A
S315202095E00120FFF786FD20462946441E61F100050D
S315202095F0002908BF0028F3D131BD00000000220831
S31520209600160818061E0412060E060D050D0416024F
S315202096100000180616040C061E021203160221014B
S315202096200D021601F0B5C369012404FA01F5AB43F6
S315202096301029C36132BF00F10C0300F11003103949
S31520209640490003268E40F743521E042A1DD8DFE800
S3152020965002F003070D151900186807401F60F0BD9A
S315202096601A688C4017403C431C60F0BD1C680225BC
S3152020967005FA01F1274039431960F0BD18680643E1
S315202096801E60F0BDC1690D43C561F0BDDFF8F0163F
S3152020969000200A69D36818607047F8B5DFF8E066BD
S315202096A00024306A8DF800404569002D46D0316966
S315202096B0C9680F68012F30D06C6801F10802002399
S315202096C0091DA04704001FBF42F21270844242F2B5
S315202096D013718C4232D13069C268916800292DD00D
S315202096E0546823781D0007D0142B05DA806800EBF8
S315202096F0C305A5F1080000E00020002850621CBF09
S315202097000268002A03D020460024904712E042F225
S315202097101074194600F099FA10E0486A58B1416849
S3152020972011B16846884704460CB1002003E09DF815
S31520209730000000B101203169CA6810602046F2BDC0
S3152020974080B50178002000F0B0FADFF83426106AC0
S3152020975041690A699047022000F042FBBFF34F8FF0
S31520209760DFF82016DFF820060A6802F4E0620243BA
S315202097700A60BFF34F8F00BFFDE7DFF804061821EC
S315202097800269D36803F10C0000F056BB10B50446DD
S315202097906068092803D0B0F5887F03D005E000F063
S315202097A016FE03E000F090FF00E0042025E2DFF81B
S315202097B0D03570B500F0DCF9AE69B047D4E110B5EC
S315202097C000F08EF8DFF8B80562680169C8680821BC
S315202097D0026180F820102178002000F066FABDE88A
S315202097E0104001F01BBB7CB5DFF894450022E568CC
S315202097F001920092816840686B46AE6801AAC0B289
S31520209800B04722690021D3681961009A01999208EC
S3152020981000F051FA73BDDFF8682538B5D3680446C1
S315202098206068A168DD68C0B2A847E2E138B5044681
S3152020983004206268092A03D1A06800F0ACFB13E05B
S31520209840C2F3032101290FD16946104601F0A5FC58
S3152020985050B9009DDFF8282514219368A0684D4330
S3152020986059190A6913699847217800F01EFA31BDE3
S3152020987010B500F035F8DFF80805E2680169042301
S3152020988000F03FF821780020B8E170B5DFF8F054D9
S3152020989000F026F829691320DFF8F064CA6882F8D8
S315202098A020002969E068CA6882F82100E06838B972
S315202098B029691022C868026146612178002054E176
S315202098C006F11001304601F0C1FC2869482106F135
S315202098D01002C068016142610020BDE8704005E2A7
S315202098E004464AE710B5FFF7FBFFDFF89404E26849
S315202098F00169032300F005F8A1680020BDE8104087
S3152020990002E2C8688261A16801616268426180F8CA
S315202099102030704738B50446DFF864542869002182
S31520209920C0684161016190F82000042804D129688B
S315202099300A69904704B9044628684169884704B9CA
S3152020994004462869C168204691F8201000F0ADF918
S3152020995042F21270844201BF2969CA6892F8200017
S31520209960082803D1BDE8314001F09BBA31BDDFF88C
S3152020997010140A69D36893F82110002908BF00F033
S3152020998001B87CE02DE9FE4300F0DEF811B900F0A5
S31520209990E1F871E0012101233170D0F81890056992
S315202099A0D0F8148000206A460090386A01A94469BC
S315202099B0D4F804C0E04704000AD0386A4169CA684E
S315202099C090472046FFF7A6FF00210020317054E063
S315202099D0009830B942F21270FFF79CFF00203070B9
S315202099E04BE0A842396988BF28460090C86890F87D
S315202099F02010082912D10199C160009AC2610099CC
S31520209A00019801F015FA044642F27D7084421CBF6B
S31520209A1042F274718C4216D1002414E0132907D106
S31520209A20009A0199404601F079FC009880440AE08A
S31520209A303C68019A00994B464046D4F808C0E04736
S31520209A4000990446884400982D1A05D12046FFF710
S31520209A5061FF002131700FE04CB1386A4169CA6834
S31520209A6090472046FFF756FF0020307004E03969E2
S31520209A70C9680D61C1F814800020BDE8FE832DE958
S31520209A80F84F00F061F811B900F064F859E001218F
S31520209A90DFF8FCA23170826900920569D0F8148023
S31520209AA0C46890F820B0386A41694A69904781464F
S31520209AB0A94588BFA946ACB14A462146504601F061
S31520209AC02DFC386AA5EB090401234A4651464569EF
S31520209AD0D5F808C0E04704B170B3FFF71BFF00207C
S31520209AE030702EE0BBF1030F09EB080419D1D7F80B
S31520209AF000C04046009B52464946DCF80480C047B9
S31520209B005FEA000BA046DCD0386A012300225146AA
S31520209B104469A568A8475846FFF7FCFE0020307008
S31520209B2010E0BBF1130F01D0A046CAE74A464146B2
S31520209B30504601F0F3FBF7E73869C0680461C0F8A6
S31520209B4014800020BDE8F28F06468D4F3869C06804
S31520209B5001697047002200203270DBE6884B70B501
S31520209B6000F006F8EE68B0472178BDE870409CE00A
S31520209B701D680446E268A168606870472DE9F041B7
S31520209B800546844F6E68D5F80880E868002438603A
S31520209B9018B101F0FEFB00B90424304601F0E2FBA7
S31520209BA000B9042400F050F89CB97E60002000F013
S31520209BB017F9C7F80880386818B180F3088880F329
S31520209BC009887968404688470020BDE8F04100F0A2
S31520209BD007B9BDE8F08138B50446606801F0C2FBBC
S31520209BE008B9042005E06568012000F0F9F8A0688E
S31520209BF0A8472178BDE8344057E02178BDE81040B9
S31520209C0053E0F8B50546644E01F0B0FCAB686968B0
S31520209C1005F10C02304601F0EFFC04000FD1EF686D
S31520209C2000200090AB6869686A46304601F042FD04
S31520209C30040004D10098874218BF44F6E96401F055
S31520209C409BFC00F001F8F1BD297820462DE03EB599
S31520209C5000210446CDE9001101F088FCA368616843
S31520209C606A464D4801F026FD054601F085FCA2688E
S31520209C706946284600F05AF837BD38B504461025DF
S31520209C80FFF77BFD3E48A2680169C9680A616368BF
S31520209C904B6181F820500069E168C268002082F873
S31520209CA02110A168BDE8344078E03EB5002400F0BC
S31520209CB031F8A0231EE070B5002588B0A7248DF8A2
S31520209CC001508DF800400026551C01908DF8026029
S31520209CD000208DF803506C4605E004EB800551F8F2
S31520209CE02030401CAB609042F7D33BE03EB500F0DD
S31520209CF010F8B3238DF800300023029144690C22FA
S31520209D006946A568A84737BD3EB500F002F8A323CB
S31520209D10F0E7012401908DF8014002248DF80340BC
S31520209D20174C206A00258DF80250704770B5002503
S31520209D3088B08DF80150AF24002602258DF80040EA
S31520209D408DF802608DF80350019050B99DF80300DC
S31520209D50029200EB920403A88DF8034001F0DEFA6C
S31520209D6000E0029606489DF80320006A00236946F3
S31520209D7044699200121DA568A84708B070BD00004E
S31520209D80105021200CED00E00400FA055C6C212007
S31520209D905C682120B46C212000401F403EB5FFF78F
S31520209DA0B8FFB023A6E730B4002513E050F8042BE3
S31520209DB0D30744BFA9F101039A18091F042942F8A1
S31520209DC0045BFAD213468C0744BF15809B1CC90717
S31520209DD048BF1D7050F8041B0029E7D130BC7047BE
S31520209DE0012870B504461DD00025114E05E07018B7
S31520209DF0C168896801B188476D1C1821694370584C
S31520209E000028F4D174B901F0B1FBFFF759F901F01C
S31520209E10C9FC0020074908600120FFF753FA01F00A
S31520209E209EFE62B6BFF36F8FBFF34F8F70BD00BF0C
S31520209E30748E202008ED00E0002201F0D3BEF0B47D
S31520209E400246106895681318506803EB5004C00723
S31520209E501DD54D441BE013F8017B05F8017B491ED7
S31520209E60F9D1A0B1B60813F8011B06F00306032E7C
S31520209E7008BF13F8016B01EB06214942801C2944B7
S31520209E8005D011F8016B05F8016B401EF9D1A342CC
S31520209E900ED013F8016B16F0030104BF13F8011B33
S31520209EA0C91C30090F28DAD113F8010B0F30D6E759
S31520209EB0F0BC02F10C007047BFF34F8FDFF8082665
S31520209EC002E01060203020390129FADABFF34F8FC3
S31520209ED0BFF36F8F704730B504460420002C85B021
S31520209EE01EBFDFF8E8251178002950D023681D0FE2
S31520209EF00B2D4CD1C3F30361012902F582650DD0C8
S31520209F00002944D1204601F087FE10B10021297076
S31520209F103DE0A26801236A602B7038E02978002969
S31520209F2035D013F00F0F32D1002101200491039157
S31520209F3004A900F079FA50BB03A9102000F074FA86
S31520209F4028BB01A9032000F06FFA00BB6C68049D92
S31520209F50694602A801F097FE6519C0B9009A0399AF
S31520209F60A418A14213D3019B5B1E1D420FD1019938
S31520209F70284600F046F910B942F2DB7007E0029A33
S31520209F800099284600F0DAF808B900F071F905B0F2
S31520209F9030BD01207047F8B5ADF5007D0746042475
S31520209FA001F0E0F900286CD007F2FF1001F0DAF971
S31520209FB0002866D03868DFF8145505F58366010F2A
S31520209FC00C2918D13A463146002003F059FA0400CC
S31520209FD057D100203146287001F074FE040050D15C
S31520209FE0002004F0BCF86946102000F01DFA002855
S31520209FF05FD0044645E0DFF8D81488420BD1287874
S3152020A000002849D000F089F801F014F900285BD106
S3152020A01042F2DB7435E0DFF8BC14884206D14FF4D7
S3152020A02000723946304601F079F9D2E7000F0E2822
S3152020A0302BD1287828B3384604F022FA08B338469C
S3152020A04004F027FA04001CD10120687000256A46F6
S3152020A05001A9284604F024FB80B9DFF87C644FF45C
S3152020A060007106EB8526304600F0CBF830B1019AF8
S3152020A0700099304600F062F800F0FAF86D1C012DA8
S3152020A080E5D920460DF5017DF0BD0B280ED13846A9
S3152020A090FFF721FF0400F4D168780028D6D104F0F8
S3152020A0A0E7F90028EDD001206870EAE700216970E1
S3152020A0B0E7E70098DFF824140B6B01228A63C31884
S3152020A0C05B1E4B632A70E7E705F2DC57B87970B13F
S3152020A0D000200DF10104291891F819140DF800100B
S3152020A0E0335C2354801CB0F5007FF4D36E46324671
S3152020A0F000F013F800F022F8040004D000F00DF848
S3152020A10000F0CEF9BDE700F0B3F80400C4D03968DA
S3152020A1104FF0C04000F02EF9B3E74FF400714FF016
S3152020A120C040704710B5DFF8A443237813B942F214
S3152020A130DD7010BDBDE8104004F09ABB2DE9F84330
S3152020A1400546DFF8887338780C46914688BB42F25C
S3152020A150DD7031E0B87868B9D7F8D815491E0D4298
S3152020A16002D044F6896027E001200021B870B9602A
S3152020A1707D6004E0B86879680818A84216D1B868C6
S3152020A180D7F8D88549462218424534BF2646A8EB1B
S3152020A1900006384432461030751901F0BFF8B868E9
S3152020A1A0A41BB14430184045B86002D100F060F8B5
S3152020A1B010B9002CCED10020BDE8F28376B50D460D
S3152020A1C00646DFF80813087810B942F2DD7076BD0E
S3152020A1D0AC08A40005F0030507E001AA04213046B7
S3152020A1E0FFF7ACFF60B9361D241F002CF5D12DB109
S3152020A1F001AA29463046FFF7A1FF08B900F038F812
S3152020A20076BDF8B50C460546B049ADF5806D487843
S3152020A210012620B12146284604F01CFAB0B9214651
S3152020A220284601F007F8064630460DF5806D01B028
S3152020A230F0BD491CB1EB970F06D250F8042B12F132
S3152020A240010FF6D00020F0E7E41B7D19002CEBD07F
S3152020A2504FF48067B4F5806FA048016B684698BF9D
S3152020A26027463A46691A00F024F968460021E1E794
S3152020A2702DE9F843954E0024B078ADF5806D002861
S3152020A28072D0B470D6F8D845B068A04206D0211A2C
S3152020A29006F11003FF22184404F002FB70682146C1
S3152020A2A0FFF7AFFF10B942F2DB705EE0D6F8D81583
S3152020A2B0706804F0CFF940B1D6F8D815706806F149
S3152020A2C0100204F034FA04004ED1844F746801F051
S3152020A2D04DF9386B06F1100306F58361221A00200A
S3152020A2E001F0F1FD044601F047F90020002CB07062
S3152020A2F0B06039D17A480268D10304D5D6F8D8156A
S3152020A3007068FFF7D9FD7078D6F8D85506F1100871
S3152020A310D6F80490F0B12946484604F09BF9C8B1F6
S3152020A32015B34FF48066B5F5806F396B684698BFB4
S3152020A3302E463246A9EB010100F0BBF832464146B3
S3152020A340684604F0B7FA002802BFAD1BB144B044DA
S3152020A350E6D006E02A4606F11001484604F0AAFA7D
S3152020A36010B144F68A6000E020460DF5806D01B0DC
S3152020A370BDE8F08370B50446544A107810B942F2ED
S3152020A380DD7070BDD2F8DC55684200EA04060C194F
S3152020A390644204406442A41B2146304600F080F8E3
S3152020A3A0A0B92946304604F021FA4D480168CA034F
S3152020A3B003D529463046FFF77FFD21463046FFF755
S3152020A3C020FF10B944F68A6070BD002070BDE0B52C
S3152020A3D03E49087810B942F2DD700EBD01F5836141
S3152020A3E0002001F0CDFDF0B901A9012000F01CF8D4
S3152020A3F0C8B96946102000F017F8A0B9009901982D
S3152020A40004F0F4F936480168CA0303D50099019867
S3152020A410FFF752FD0099019800F00CFF10B944F681
S3152020A4208A600EBD00200EBD002930B52ED0274AC9
S3152020A43002F5BB6302F58D6460B1012813D0022892
S3152020A44014D0032817D0042818D0052818D010286F
S3152020A45019D01BE01078002814BF002042F2DD70AE
S3152020A4600860002030BD4FF0C040F9E700F010F81A
S3152020A470AD0A0D60F5E71B680B60F2E75868EFE739
S3152020A480186918B1ECE700F003F8F2E7042030BD94
S3152020A49025686368A268E0685D19551945197047D3
S3152020A4A00B4602460D49086B0E49121A002003F06E
S3152020A4B0ADB880B500920B4602460A49002003F02B
S3152020A4C0E1F802BD000000005CEF00E008752120C5
S3152020A4D00F0000F0464346420004006050502120E1
S3152020A4E014ED00E02079212030B504460420002CEC
S3152020A4F085B01EBFDFF898251178002950D0236813
S3152020A5001D0F0B2D4CD1C3F30361012902F23C45CB
S3152020A5100DD0002944D1204601F07EFB10B1002128
S3152020A52029703DE0A26801236A602B7038E02978E3
S3152020A530002935D013F00F0F32D1002101200491AC
S3152020A540039104A900F068F950BB03A9102000F05C
S3152020A55063F928BB01A9032000F05EF900BB6C68D3
S3152020A560049D694602A801F08EFB6519C0B9009AA0
S3152020A5700399A418A14213D3019B5B1E1D420FD120
S3152020A5800199284600F0B6F810B942F2DB7007E0B0
S3152020A590029A0099284600F017F808B900F052F8D8
S3152020A5A005B030BD0020DFF8E8148860704710B56C
S3152020A5B01346DFF8DC44227802B998E00A46194689
S3152020A5C0BDE8104004F0BEB92DE9F8438046DFF8F7
S3152020A5D0C05428780C469146D5F8287410B942F2F2
S3152020A5E0DD702DE0B7F5806F88BF4FF4806734B3D8
S3152020A5F0A8686968002804BF0029C5F8048002D00D
S3152020A6004118414516D121188F422CBF26463E1A85
S3152020A610284400F10C01894504D0324649460C30A5
S3152020A62000F07CFEA868A41BB144B0443018B84280
S3152020A630A860DCD100F006F80028D8D000E0002061
S3152020A640BDE8F283F8B5DFF84864ADF5806DB568CE
S3152020A6500024DDB177687460B4602A4606F10C01C7
S3152020A660384604F0EFF9040010D12A4669463846C8
S3152020A67004F068F9040009D12A46694606F10C003F
S3152020A68004F018F910B142F2DF7000E020460DF5F3
S3152020A690806D01B0F0BD38B50D460446DFF8F013C5
S3152020A6A0087810B942F2DD7032BD2946204604F0E2
S3152020A6B061F940B92946204600F01CF810B942F22B
S3152020A6C0DF7032BD002032BD10B5DFF8C4432078BC
S3152020A6D000B90CE004F08FF940B9D4F8241400F026
S3152020A6E009F810B942F2DF7010BD002010BD42F2E9
S3152020A6F0DD7010BD70B5ADF5806D05460C4610E0B9
S3152020A700491CB1EB960F0AD250F8042B12F1010FF7
S3152020A710F6D0002000E001200DF5806D70BDA41B31
S3152020A7207519002CF7D04FF48066B4F5806F6946F2
S3152020A730284698BF2646324604F004F9684600216A
S3152020A740DFE72DE9F8430646042400F00BFE002817
S3152020A7505FD006F12B0000F005FE002859D0306886
S3152020A760DFF82C5305F5826805F20C47DFF8249391
S3152020A770000F0C281AD12C214046FFF75DFB4FF401
S3152020A78080300121B86005F5866002220170427072
S3152020A7900323052106228370C4700171314642713C
S3152020A7A04046C7F8049000F0D5F813E03068010F32
S3152020A7B00B2904D13046FFF797FE044629E0484569
S3152020A7C027D12C214046FFF737FB2C223146404605
S3152020A7D000F0A4FD00203C7B2870D7F8108005F5DA
S3152020A7E08360AD4E01F00CF9204601F0C1F83146C8
S3152020A7F0204601F0F7F842463146204600F034F84C
S3152020A800396805F5846004F065F8040004BF01204A
S3152020A81028702046BDE8F28321B39D4A02F22443C4
S3152020A82050B1012811D0022814D003280FD0042893
S3152020A83014D0102814D015E01078002814BF00203A
S3152020A84042F2DD700860002070470020FAE75A683F
S3152020A8500A60F8E71B689B0A0B60F4E79868F1E723
S3152020A8601A68F5E70420704770B58CB004460D466B
S3152020A870164607A891A1142200F050FD1C216846F7
S3152020A880FFF7DAFA00960821009B019183490022DE
S3152020A890ADF80820B1FBF3F38DF80A200A4603937E
S3152020A8A013460099B2FBF1F1009A049102218DF80A
S3152020A8B018106946B3FBF2F20592002207AB8DF8F9
S3152020A8C01920ADF81A2053F824002A4604F01EFA3F
S3152020A8D00CB070BD2DE9F0430746714889B08846F3
S3152020A8E016460478457804A879A1142200F016FD8E
S3152020A8F0E946002000210022002389E80F004FF49A
S3152020A900801003900EB9012201E0032E05D129469D
S3152020A910204601F047F8002019E0012E08BF0197B4
S3152020A92002D0022E08BF0097CDF8088004A86946D9
S3152020A93050F8240004F04EFBB0F5C87FF6D030B195
S3152020A94000222946204601F02DF842F6CD1009B0E6
S3152020A950BDE8F08370B50B78524A03F00F0302EB63
S3152020A9608304E56D85610B68C3F3031302EB83042F
S3152020A970256CC5610B68C3F3032352F823204A4B69
S3152020A98042610C68240B04F00F04012C02D0022C07
S3152020A99010D012E0012202744269B2F5803F98BF9E
S3152020A9A0102205D99A4202D21823437436E0202257
S3152020A9B0427433E00223037430E0002260240274C0
S3152020A9C000F12102D47145699D4213D218234224D5
S3152020A9D043745471C369B3F5803F28BFD82316D258
S3152020A9E0B3F5805F08BF202417D0B3F5004F15D1CB
S3152020A9F052230CE02024122544741323002615709C
S3152020AA0053705671C369B3F5803F02D3DC2393710B
S3152020AA1004E0B3F5805F01D1212494710A68120DD8
S3152020AA2002F00F02521E032A0BD8DFE802F002049E
S3152020AA300608012206E0022204E0032202E0042284
S3152020AA4000E0002202720A68120C02F00F02012A8C
S3152020AA5006D004D3032A03D038BF022200D30022F3
S3152020AA6042720A68C2F303627AB1097901F00F01B2
S3152020AA70012904D009D3032905D002D305E00B49A7
S3152020AA8004E00B4902E00B4900E00B49C16070BD90
S3152020AA903C5121206B736563005A620200CA9A3B9F
S3152020AAA054552120C850212001000001809698006D
S3152020AAB0404B4C0080841E00002D310100000000F8
S3152020AAC0004039400080394000C0394000003A40DB
S3152020AAD000000000004039400080394000C0394045
S3152020AAE000003A40416882688A4209D2891A8266E1
S3152020AAF041600FF29D210160012282600020704773
S3152020AB0042F2787070470FF20901016000207047E9
S3152020AB1010B5416ADFF814444A898282CB689B1E8D
S3152020AB2043604A68A24202D1097A022902DB42F214
S3152020AB30757010BD0FF209020260002010BD0000C2
S3152020AB40416A43684A6882610A68D21E9A428260B4
S3152020AB5002D342F2767070470989002908BFFFF791
S3152020AB60C1BF42F277707047F8B50446DFF8C0635C
S3152020AB70B4F85A30376804F15C05626A6968D7F8F8
S3152020AB8008C01806000F1B0A43EA00232868E0475E
S3152020AB90A0B930680169884780B9616A102204F11A
S3152020ABA01C0004F0A3FB00F044F80098A968884212
S3152020ABB000D043E00FF2D91020600020F2BDF8B576
S3152020ABC004461022616A04F11C00DFF8646304F154
S3152020ABD05C0504F08BFBB4F85A303768626A102182
S3152020ABE01806000F1B0AD7F808C043EA0023286856
S3152020ABF0E047E8B92868103028606868103810289F
S3152020AC00686088BFDFF82C0310D810B1DFF828033E
S3152020AC100CE030680169884750B900F00AF800989E
S3152020AC20A968884200D009E00FF265102060002034
S3152020AC30F2BD694604F11C0004F06DBB42F27A7025
S3152020AC40F2BD10B5044604F11C0004F049FB216E28
S3152020AC5011292CBFB748B8482060002010BD38B530
S3152020AC60B34B426E1C68016EC06DE568A84732BDA5
S3152020AC70B0F85A2013061B0F110AD20741EA0321E6
S3152020AC804CBF08230423042901D00420704700F157
S3152020AC906002C16DA94800F0AFBC70B5044642F2EF
S3152020ACA07F76E56D284600F05DFB80B1606E04F16D
S3152020ACB01801A8470646012E03D12046BDE870403C
S3152020ACC010E7022E03D100F0A9F8002070BD3046EF
S3152020ACD070BD10B5436800F15C02516881608B42DB
S3152020ACE002D242F2767010BD147AE30707D5126895
S3152020ACF08469A24203D111B1C160002010BD90F811
S3152020AD005A10CA0702D542F27C7010BDBDE8104009
S3152020AD10E8E638B5B0F85A108A070CD40B061B0F74
S3152020AD200A0AC90742EA032207D5092A03D1BDE820
S3152020AD303140FFF74CBB042032BD7D4B5C301C6874
S3152020AD4041680068A569A84732BD00001CB50446A5
S3152020AD50B4F85A000106090F000A40EA0120092802
S3152020AD6003D1E06DFFF717F916BD01290ED16946EB
S3152020AD7000F013FA58B9E06D009C6D4A14219368AF
S3152020AD804C4319190A691369984716BD042016BD24
S3152020AD90F8B5044604F15806616A304610225A2531
S3152020ADA000F0BCFA0120375C401CED191028FAD39C
S3152020ADB0307805F0FF05A84202D042F27970F2BD24
S3152020ADC0717842F212700A2925D8DFE801F01A0696
S3152020ADD00A0E26121A16261C20002046BDE8F2400E
S3152020ADE077E72046BDE8F2402BE72046BDE8F24033
S3152020ADF035E72046BDE8F2404FE72046BDE8F24041
S3152020AE0087E70020F2BD2046BDE8F2409EE7204697
S3152020AE10BDE8F2402CE742F27B70F2BD10B5484CDB
S3152020AE2070212046FFF708F8464A0020226010BDF0
S3152020AE30F8B506460C4600200027434DA74218D0D9
S3152020AE402969E01BC1F1100109E080B12B69F25D6F
S3152020AE507F1C491E401EEA542A69521C2A61002959
S3152020AE60F3D10020286100F005F810B9E6E742F278
S3152020AE707D70F2BD80B53248334A4262C2680021D5
S3152020AE802AB1036993420AD05B1C036101E0826EDA
S3152020AE901AB901688847014601E0521E8266084693
S3152020AEA002BDF8B5224C20680169884700283CD18C
S3152020AEB0234F97F85900042823D107F15C052E68E3
S3152020AEC0304600F04FFAC8B10020FEF789FF97F8E8
S3152020AED05A00810710D568686861616860B10A6880
S3152020AEE0904222BF4968491C814201D20420F2BDEA
S3152020AEF080F3088880F30988A868B04742F27E70DC
S3152020AF00F2BD08280FD10220FEF76AFFBFF34F8F2C
S3152020AF100E490F480A6802F4E06202430A60BFF332
S3152020AF204F8F00BFFDE742F27B70F2BD53544D5048
S3152020AF3010502120BFAB202069AB202000401F408D
S3152020AF408C7C212007AB2020007D21200CED00E0E9
S3152020AF500400FA057CB50C00164605461A4601D192
S3152020AF60002076BD100A10F00F0002D001280AD04A
S3152020AF7019E06A46284600F0BAF8B0B900F0A1F8E0
S3152020AF806568A84776BD6B46284600F0D4F860B998
S3152020AF900098A64A03692846996951605B6832461B
S3152020AFA02146984776BD42F2D87076BDF8B50C007A
S3152020AFB0174606461A4601D10020F2BD100A10F087
S3152020AFC00F009A4D02D0012816D02CE0304600F0F2
S3152020AFD0F9F840BB6A462146304600F088F820BB67
S3152020AFE0009B214630463A46DC68A668B047B8B969
S3152020AFF00099CA68136911E06B46304600F09BF829
S3152020B00098B900983A4603693046996969609B68E1
S3152020B0102146984720B900990A6953692B60F2BDC9
S3152020B02000212960F2BD42F2D870F2BD7CB5130A08
S3152020B03013F00F0305460C4642F2D87602D0012B98
S3152020B04014D024E06A4600F052F8E8B90099CA687C
S3152020B050506998B12146284600F0B4F8B8B9009A2C
S3152020B06021462846D3685C69A04776BD6B4600F00A
S3152020B07062F848B900980169CA680AB9662076BD7F
S3152020B08021462846904776BD14B9002076BD304605
S3152020B09076BD7CB50C000546164601D1002076BD2E
S3152020B0A000F090F810B142F2D87076BD6A4621465B
S3152020B0B0284600F01CF818B900F003F8E568A847E0
S3152020B0C076BD009B214628463246DC68704710B55F
S3152020B0D0564C206810B180470021216010BD10B544
S3152020B0E0524C606810B180470021616010BDF0B5D8
S3152020B0F016000D4642F2D8771FBF4D494A68326066
S3152020B100002D16D001E01033336033688BB11A68D6
S3152020B110002A04BF5C68002C01D1D96849B190422D
S3152020B12024BF59688142EED32818401E814228BF69
S3152020B13000273846F0BD002B42F2D87CF0B50646D3
S3152020B14017461FBF3A4882681A60002923D002E09A
S3152020B15005F114041C601D68EDB12A68002A04BF7D
S3152020B1606C68002C07D1A868002804BFEC68002C46
S3152020B17001D1286978B19742EAD1AA68E8680027E0
S3152020B180A0FB0245701847EB07018D4203D301D857
S3152020B190844200D3BC466046F0BD70B505460420E7
S3152020B1A0002671B1224A946801E0761C143444B1F9
S3152020B1B0236833B12269002A03D09D42F5D10E603F
S3152020B1C0002070BDF0B50918194B491E00225F6872
S3152020B1D0DC68256905EBC20606F17C041601BD59FB
S3152020B1E066682468AC4208BFAE4203D0864228BF98
S3152020B1F0A14204D2521C012AEAD90020F0BD012006
S3152020B200F0BD70B50A4D6E6803E0006800B1804736
S3152020B2101036F0680028F8D1AD6803E0096801B13E
S3152020B2208847143529690029F8D162BD9C7B2120C5
S3152020B230105021200246012000E0491E21B112F89B
S3152020B240013BFF2BF9D0002070470000F0B50646C1
S3152020B25004240D46002EA3B018BF002D56D0382129
S3152020B260284604F06FF838224323AA708120EB70F9
S3152020B2706621287000205522E871102329716A71D1
S3152020B2800EA8AB7104F078F804003FD10020214F9E
S3152020B2908DF83B000EA9384604F000FA040035D17B
S3152020B2A0102205F10801384604F02EFA04002DD18B
S3152020B2B00D210AA8FEF7C0FD06A804F077FA05F1AD
S3152020B2C00801802206A804F085FA102005F128011D
S3152020B2D005F118020023059006A804911021039257
S3152020B2E00AAA019300930D23029604F056FD0A49DB
S3152020B2F0802206A804F06EFA102005F1080300909B
S3152020B30005F10802012106A804F0ACFB204623B053
S3152020B310F0BD00BF00C00C40AB89DCFE4AB1000066
S3152020B32011F8013B521E00F8013B1CBF11F8013BCE
S3152020B330F8E7704738B504460D460020FEF750FD45
S3152020B340764800210560764A44601160036883F3BD
S3152020B350088883F30988406880470020BDE832406A
S3152020B360FEF73EBD00281CB51EBF10F1010F6D490A
S3152020B370884201D1002016BD6A4602210024FFF70B
S3152020B380B6FE20B90098017ACA0748BF0124204674
S3152020B39016BD10B50246644900204B6800E01033E4
S3152020B3A0D96861B11C7A04F01104112CF7D11968DF
S3152020B3B09142F4D25C68641C9442F0D3012010BDE3
S3152020B3C02DE9FC4D584E594FF0683C46016901F154
S3152020B3D08C080AE098F81020024205D06569E268B8
S3152020B3E0A969204653689847183420680028F1D147
S3152020B3F04FF47A700024FDF773FE0025A246CDE98E
S3152020B4000001AB4600F070FB88BBFFF7ABFF70B3A3
S3152020B410F068016991F8AA20D00703D400210020E2
S3152020B420FFF788FFB8F812004FF6FF71DDE90023F9
S3152020B430884208BF41F28830A2FB00AB03FB00BB49
S3152020B440FDF744FE04460D46BBF1000F08BFBAF1B6
S3152020B450000F0CD0FDF73AFE001BA941594506D313
S3152020B46001D8504503D300210020FFF763FF3E4635
S3152020B47000E0183631680029E6D098F810200A42D4
S3152020B480F7D0F16830460B6898470028F1D0002E77
S3152020B490DAD00AE098F81010014218BFBE4203D035
S3152020B4A0FB68384699688847183738680028F1D1CC
S3152020B4B03046BDE8F68D38B500F052F800F04DFB49
S3152020B4C0194CE068016888470020FDF7FBFEFDF750
S3152020B4D0CFFD206801688847E26850688047FFF7DB
S3152020B4E06FFF2062016900291EBF0968002988474D
S3152020B4F0226A506900281FBF016800291046884704
S3152020B500206901688847256A206941688847EA6852
S3152020B510D1680029F8D028468847F5E7EC6E212007
S3152020B52008ED00E0211C212010502120748E20209F
S3152020B530704700000A0018BF01220260704772B6C9
S3152020B5400268521C026062B601680029FCD10120E3
S3152020B550704772B60168491EFFE7016062B67047E0
S3152020B56072B600200B49086062B6704772B6094849
S3152020B5700168491C0160704706480168022903D2E8
S3152020B5800022026062B6704703685B1E0360704724
S3152020B59000000000787B21202DE9F041FDF74CFFAB
S3152020B5A080467B4C1127204600212246E7FB0801B6
S3152020B5B00023784F002504F02DFC401E460078609D
S3152020B5C042F2107274480021E2FB08012246002331
S3152020B5D004F020FC25223018E2FB0845401CB860E8
S3152020B5E06B4A00232046294604F014FC3618761C84
S3152020B5F0FE600020BDE8F0812DE9F04104460E468C
S3152020B60015460BB9002053E0042B02D1B009800146
S3152020B61001D004204CE05F4F387830B92046FFF720
S3152020B620BBFF002844D1012038706421204600F039
S3152020B63077F800283CD14FF4007806F03F06C4F86E
S3152020B64008802069000C0004206121697868BA6886
S3152020B650000300F47040C2F30B02104301434F480D
S3152020B66021614F49A160064366602A6822626421CF
S3152020B670204600F055F8D8B92068810548BF44F601
S3152020B680E96015D46421204644F6EA6500F048F89E
S3152020B69068B9C4F80880204600F067F84FF4806027
S3152020B6A064216060204600F03BF800B9002528463A
S3152020B6B0BDE8F081F8B505460E46144673B3042B33
S3152020B6C002D1B009800101D00420F2BD314F387853
S3152020B6D028B92846FFF760FF08BB0120387064216F
S3152020B6E0284600F01DF8D0B94FF4007006F03F062A
S3152020B6F0A860284600F039F83F210120A96064215E
S3152020B7006E602863284600F00BF840B9286881052A
S3152020B71002D544F6E860F2BD286C20600020F2BDF8
S3152020B7202DE9F04782460F464FF47A700026FDF722
S3152020B730D7FCA0FB078901FB0799FDF7C7FC044628
S3152020B7400D46DAF80010C8050CD5002FF9D0FDF7E4
S3152020B750BDFC001BA9414945F3D301D84045F0D370
S3152020B76044F6EB663046BDE8F08701696FF3153164
S3152020B7700161084902694B68C9681B0303F47043B9
S3152020B780090401F47C110B431A430261704700001F
S3152020B79000CA9A3B687B21200065CD1D0000773E9C
S3152020B7A03F00FFFF0A484FF0FF3101604160816072
S3152020B7B0C160016141618161C161064801604160CA
S3152020B7C08160C160016141618161C1617047000072
S3152020B7D080E100E080E200E000F01F02DFF8A833DD
S3152020B7E0000A914003EB800030B50325954004687C
S3152020B7F0AC432143016030BDDFF8901300200A6856
S3152020B800C2F3022107290BD0DFF884231168C1F364
S3152020B810005100291EBF1168C1F30051002900D014
S3152020B820012070472DE9F84F8846DFF8681341F24A
S3152020B830F10700914046BA46BB4608F1500402F073
S3152020B84068F830B1D4F810A0E0690090D4F814B08C
S3152020B850A769DFF84493DFF84453DFF84463FFF702
S3152020B860CBFFE0B12068002818D00121112071617A
S3152020B870C5F814A07060DFF82C03C5F804B08160E9
S3152020B880B160AF60C9F8781031612F61C9F87C109A
S3152020B890F160EF60016031602F60416066E02168D1
S3152020B8A06068002908BF002838D018B106213164E5
S3152020B8B0C5F840A02068BC4918B101228A60C9F881
S3152020B8C008A011200122B067C5F878B0F267EF678B
S3152020B8D04A60C9F804700A60C9F8007072676F67F9
S3152020B8E098F84500082807D172666F66F266EF66DB
S3152020B8F0B266AF66F265EF6598F80C00032818BF8C
S3152020B900012803D11120306700992967404602F08B
S3152020B91007F818B101203066C5F860B0A168E06844
S3152020B920002908BF002821D018B106217164C5F846
S3152020B93044A0A06818B104213165C5F850A0112073
S3152020B94001213066C5F860B071666F66F166EF66D4
S3152020B950B166AF66F165EF6598F80C00032818BF2D
S3152020B960012803D11420706500996965BDE8F18FFF
S3152020B970401E03288D4914D8DFE800F002060A0F5E
S3152020B980086840F0030006E00A6842F00C0207E04F
S3152020B990086840F03000086070470A6842F0C0020C
S3152020B9A00A607047401E03288149824B19D8DFE858
S3152020B9B000F0020B0F124FF40060002A0A6814BF11
S3152020B9C022EA0000104308E04FF080601946F4E791
S3152020B9D04FF00050F1E70220F8E708600020FDF73D
S3152020B9E088BB70477448754B0268B3FBF1F1491E3A
S3152020B9F0890622F0E05201F0E0510A4302607047A6
S3152020BA00F0B56F4905228A636E4A49F2B003684C25
S3152020BA10936365686C4E6D4FDFF898E125F010052D
S3152020BA20656000786A4D401E03285AD8DFE800F06A
S3152020BA3002162E4101260E651365CE65D3652E602E
S3152020BA408E65052693654E655365606840F40060D3
S3152020BA506060216841F400612160F0BD042004214A
S3152020BA60B8640220B364396533652861F9640521F9
S3152020BA70F36479647364DEF8040040F08060CEF8C5
S3152020BA800400DEF8001041F0806128E002203860B2
S3152020BA903360F860F360B8600520B3607860736027
S3152020BAA0616841F000516160206840F000502060BC
S3152020BAB0F0BD042401200C601360CC60D360286282
S3152020BAC005258C6093604D605360DEF8040040F0BD
S3152020BAD00200CEF80400DEF8001041F00201CEF874
S3152020BAE00010F0BD3B48704700207047FF202749B3
S3152020BAF00A680968920902F00302032A13D8DFE8AC
S3152020BB0002F0020D0F11090911F0030102D00129BB
S3152020BB1002D005E001207047102070472020704772
S3152020BB20082070470220704701460420002900D1B2
S3152020BB30704710B5087B03280CD101F1780291F8C3
S3152020BB4040104B0602D51324147003E0507808B910
S3152020BB5026211170002010BD7047032100E000210E
S3152020BB604FF4C06038E61C490860002070471A4907
S3152020BB700A6802600020704705480168006A10F0B4
S3152020BB80020018BF0120704768C00F4004800F4074
S3152020BB9040441F40F1300100F0821F4070821F4038
S3152020BBA0FC801F4070831F407C811F406CC00F404B
S3152020BBB000801B4000001C4018C00F40E0C8B60E75
S3152020BBC094801F4008821F40A0821F402C811F4046
S3152020BBD0A4831F40002D310128800F4062F30F22BD
S3152020BBE062F31F4200B500BF1300964694461039D3
S3152020BBF028BFA0E80C50FAD85FEA417C28BF0CC0A9
S3152020BC0048BF40F8042BC90728BF20F8022B48BF7D
S3152020BC1000F8012B00BD000070B50446042584B32E
S3152020BC202168080F0B282CD1C1F30360012828D0C6
S3152020BC3038BBC1F303161EB1022E05D002D306E06F
S3152020BC40802606E0C02604E04FF4807601E0802E90
S3152020BC5017D36068F608FFF785FB90B16068301827
S3152020BC60FFF780FB68B1164D102068606168324668
S3152020BC7005F10C00FFF752FB4FF400702E60A860F0
S3152020BC800025284670BD70B5054604200C46002D9B
S3152020BC9018BF002C12D00A4E4FF4007106F12C004A
S3152020BCA0FEF7CAF806F12C0106F10C00FFF7CEFAB2
S3152020BCB020B906F12C012960B268226070BD0000EF
S3152020BCC0C06C212070B505460E4602F06AF80400A5
S3152020BCD00BD1012306F180020021284602F028F903
S3152020BCE0707C012804BF00213174204670BDF0B538
S3152020BCF00F260F24054689B0029601EB0416002054
S3152020BD008DF810208DF80000012701930123039739
S3152020BD1006F180020121284602F00AF90297694697
S3152020BD2000F02BF909B0F0BDF0B589B004460D46D8
S3152020BD3016461F4600F01BF8B8B98DF800000E20D5
S3152020BD4005EB00110E22029201230393204601F1D6
S3152020BD5080028DF810600197012102F0E9F8012078
S3152020BD6069460290204602F011F909B0F0BD2DE96E
S3152020BD70F843804684B00C4616461F4604202CB332
S3152020BD8004F5E675687818B14046FFF7B0FFE8B9A4
S3152020BD90287804F1B00902280AD1694699E80D10BD
S3152020BDA081E80D1004F1C00090E80E1089E80E10ED
S3152020BDB03B4632462146404601F020FF297802297B
S3152020BDC004D16A4692E83A0089E83A0005B0BDE8EF
S3152020BDD0F083F8B50C4684B00421ECB194F8CC114C
S3152020BDE004F1900502290AD16E4695E8825086E80C
S3152020BDF0825004F1A00191E8C05085E8C050214628
S3152020BE0002F0B7F9014694F8CC01022804D16A46FB
S3152020BE1092E8590085E85900084605B0F0BD2DE97D
S3152020BE20FE435FEA0108814615464AD0012D48D8AF
S3152020BE3008F5E4763078002843D008F140074846B4
S3152020BE403C6802F086F93178A40904F0010465B92A
S3152020BE5039B122464846FDF7F0FA4146484601F0D8
S3152020BE6066FDB07988B101210CE041B1B97922462D
S3152020BE704846FDF7E2FA4146484601F058FDB0799A
S3152020BE8018B10021484602F00AFA6A46022148469D
S3152020BE90FDF725FB14B100984008009001AA002147
S3152020BEA04846FDF71CFB0199009A0A20B1FBF2F1C6
S3152020BEB0491C4143890800E000BF0846411E00284E
S3152020BEC0FAD1BDE8F7832DE9F0430546894689B0A6
S3152020BED017461E46484601F015FD80460022494653
S3152020BEE000F04CF900F041F8FFF741FF040031D172
S3152020BEF0022109238DF8001001220293039299F83A
S3152020BF00471009F5C87200291CBF1078002803D0D5
S3152020BF10517802911378039301978DF81080059616
S3152020BF20116B0691029809EB0011039B00F0C8F8CB
S3152020BF3000F020F804000DD100F017F8FFF749FF94
S3152020BF40040007D199F8CF0120B100F00EF8FFF7B1
S3152020BF50EBFE0446284602F002F90122494600F06B
S3152020BF600DF9204609B0BDE8F0833B4642464946B6
S3152020BF7028467047012069460290284602F006B8D6
S3152020BF802DE9F84789B0002401220B2389468DF814
S3152020BF90004003920027029380468DF8104099F89E
S3152020BFA0471000291EBF09F5CA710878002803D03A
S3152020BFB04A7802920D78039500224946404609F197
S3152020BFC0500AFFF72CFF04255AF8046BCEB13B46C6
S3152020BFD0002249464046FFF7CAFE040014D10197A5
S3152020BFE0029809EB0011039B404601F180020121B2
S3152020BFF001F09EFF01206946029000F092FA04008B
S3152020C00002D1F7196D1EDFD14646ECB94FF0000854
S3152020C01009F150070425002057F8044B84B14346E4
S3152020C020002249463046FFF7D4FE60B999F8CF1151
S3152020C03031B14346002249463046FFF775FE10B9F6
S3152020C0406D1EA044E8D10446304602F088F801222D
S3152020C05049463046FFF7E3FE20460AB0BDE8F08782
S3152020C0602DE9F84105460E4689B01746304601F09F
S3152020C07049FC00F080F800F06EF804001BD1002265
S3152020C0800123052400F06CF81EBF06F5C67108783A
S3152020C090002800F050F800F00FF8FFF76BFF04009F
S3152020C0A009D100F053F8040005D196F8CF0110B13C
S3152020C0B000F047F8044634E00298039B06EB001173
S3152020C0C0284601F18002012101F032BF2DE9F841F5
S3152020C0D005460E4689B01746304601F013FC00F07F
S3152020C0E04AF800F038F804001BD100220123082446
S3152020C0F000F036F81EBF06F5CE710878002800F02D
S3152020C1001AF8FFF7D9FFFFF735FF040009D100F011
S3152020C1101DF8040005D196F8CF0110B100F011F8D2
S3152020C1200446284602F01BF8012200F026F8204675
S3152020C1300AB0BDE8F08103D04A78029209780391AB
S3152020C14070473B46424631462846EDE53B46424629
S3152020C150314628463DE63B4642463146284606E6B7
S3152020C16001978DF80020039302948DF8108096F87D
S3152020C17047100029704780460022314628464EE641
S3152020C180F0B5054689B00E4614461F46042084B1D4
S3152020C19024216846FDF750FE032201238DF8002036
S3152020C1A0694602932846039307940897019601F03F
S3152020C1B0EDFE09B0F0BD0000F8B50D461E468EB046
S3152020C1C00746002101A8002300248C4680E81A1067
S3152020C1D01168042902D85068402817D301212974D0
S3152020C1E0106C000D00F00700401E05280CD8DFE853
S3152020C1F000F003070903030502240CE004240AE0C7
S3152020C200012408E0032406E02B747BE03168C1F387
S3152020C2100324002C76D000930322069301218DF847
S3152020C2202430631E032B8DF81420CDF830D00D91A9
S3152020C230079108910ED8DFE803F006020A02DFF8FC
S3152020C240802A019206E0DFF87C1A019102E0DFF8CD
S3152020C250780A0190012301AA0121384601F068FEBF
S3152020C26005A9384601F092FE00284CD13068C0F34B
S3152020C270036000281FBF7068C0F3072000280090A5
S3152020C280641E0021032C29743CD8DFE804F0021018
S3152020C290271C009A510635D4DFF8300AC5F8C0008D
S3152020C2A0009A02F0C30242F04002009221E0009957
S3152020C2B0880727D4DFF8182AC5F8C0200099090254
S3152020C2C041F4007114E0009988071BD4DFF8042A72
S3152020C2D0C5F8C020009941F0020109E0009908061E
S3152020C2E010D4DFF8D02CC5F8C020009941F0800169
S3152020C2F00091012001210422287429756A7500984D
S3152020C300A861697400200FB0F0BD0022F8B50C4654
S3152020C3100023002605468EB00AA90292002081E835
S3152020C3204D00032200908DF8143001218DF8042031
S3152020C3300126DFF8847CCDF820D0099101230391B2
S3152020C3400AAA049628460A9701F0F2FD01A9FFF7CA
S3152020C35014FEB8B90099042201F0F7010091267441
S3152020C36000992675090401F47F0141F0042141F04A
S3152020C3708101C4F860110E216175009BA36162744E
S3152020C38084F8CF610FB0F0BD2DE9F8479146002201
S3152020C3900C4691B08DF810204FF4007102920122A4
S3152020C3A080460191039254B3032109AA8DF80010E7
S3152020C3B01026079204F18007089601233A46012188
S3152020C3C001F0B6FD01266946029600F0AAF8B0B91A
S3152020C3D0DDF8240049A610F1010F02BF09A8416803
S3152020C3E011F1010F07D1826812F1010F04BFC06835
S3152020C3F010F1010F09D000F08FF800283CD044F628
S3152020C4008E6A504612B0BDE8F087002300222146CE
S3152020C4104046FFF7ACFC0028F1D1092010230290DA
S3152020C42002220693039B8DF80020029807EB001228
S3152020C43005960121404601F07BFD012140460291CF
S3152020C440694601F0A3FD0028D9D1002300222146E8
S3152020C450404601F08EFE0028D1D100F057F86946DB
S3152020C4608DF800204046079301F090FD0028C6D184
S3152020C47000F052F80028C2D104F140070122386882
S3152020C480B9790225322440F0400038604046FCF736
S3152020C490D4FF00E06D1C641EB1D000210DA800221F
S3152020C4A000238C4680E80E103969DFF81C2D404683
S3152020C4B0914205F0FF0227BFDFF8003B0D93DFF8FE
S3152020C4C0001B0D91DFF8043D00211A4301230E9213
S3152020C4D00DAA01F02DFD002000F018F88DF800207F
S3152020C4E06946079300F01DF85FEA000A87D100F01D
S3152020C4F013F80028CED1C9F8005082E70011223344
S3152020C500445566778899AABBCCDDEEFF1021029090
S3152020C510032209AB08917047102209A9304602F060
S3152020C520C9B9404601F032BD2DE9F043CE68012538
S3152020C53004464FF48070002E47BFF61E05FA06F6F5
S3152020C540761CF60826654E68402E08D30E6BC6F359
S3152020C550031605FA06F6B6F5004F18BF304604F541
S3152020C560E07C0026CCF800006FF07F4E4FF00008CC
S3152020C570B146002701EB470090F8240058B105FA70
S3152020C58000F070453CBF8646B94680453EBFB0F593
S3152020C590801F80463E467F1C042FEBD3C645CCF811
S3152020C5A004E0CCF81080DFF8205C0CBF01200020AE
S3152020C5B08CF80900246DAC4225D391F8580040B15F
S3152020C5C001F16004603114F809501560885D186007
S3152020C5D023E001F1250010F81940202C04D0D82C76
S3152020C5E004BFDC25156001E021201060253111F8DB
S3152020C5F01600202802D0D82803D00EE021221A6047
S3152020C6000BE0DC2108E001F1250010F81940146028
S3152020C61001F1250212F8161019600020BDE8F083DA
S3152020C6202DE9FC4F85B015461A68814600244FF027
S3152020C6300408C2F30350012802BFA868C0F3C044EF
S3152020C640002C00F083810E4600213173069A182093
S3152020C6508B468A4606F15007137804AA03F00F0367
S3152020C66086F8463003AB0091294601903046FFF7E5
S3152020C6705BFF3868DFF8503B984224BF202001908A
S3152020C68006980168C1F30330002809D1069BCDF80E
S3152020C69008902A4631464846FFF78EFD5FEA000875
S3152020C6A040F05481A968C1F3405038B128694FF031
S3152020C6B0020AC0F3421B00F01F0008E0C1F380509D
S3152020C6C030B12869410D01F0070BC0F304400090DA
S3152020C6D0019B06F1D00142F20402202B1AD195F8B3
S3152020C6E0580098B105F15803D3F8049042F2042358
S3152020C6F0C9F3002010B1DFF8D80A04E0C9F3C0102E
S3152020C70020B1DFF8D00A08644B6407E0DFF8C83A86
S3152020C7100B6402E0DFF8C40A08644A64012240F26E
S3152020C72006403273DFF8B83A38663B640498DDF861
S3152020C730049000F0FF0040EA094040F0006040F4F9
S3152020C74080600860039A4FF48C60086602F0FF022E
S3152020C75042EA094242F0006242F480620A63069964
S3152020C7600868C0F3036058B14868020608D000F074
S3152020C770FF004FF0000B0090ECB1400000901AE033
S3152020C780CCB10198202805D1DFF8581ADFF8582A8D
S3152020C79039637A6302983146FFF794FA5FEA0008F4
S3152020C7A05ED102986A463146FFF7EEFD5FEA000821
S3152020C7B056D14FF0000B0198182819D14CB1ED20F5
S3152020C7C0316C40EA094041F04001316440F00A4092
S3152020C7D03AE0A968C1F3405010B12869000A2CE03C
S3152020C7E0C1F3805010B12869000E26E0032021E0F5
S3152020C7F00CB1EE20E4E705F15801087870B14968BC
S3152020C800C1F3401018B1EC204FF0020A15E0C1F315
S3152020C810001070B16C204FF0000A0EE0A968C1F319
S3152020C820405008B1EC2008E0C1F3805008B16C20BC
S3152020C83003E0132000218B460091C0B240EA094034
S3152020C84040EA0A6040F0006040F4806000213863AE
S3152020C850069806F2CD190268C2F3031040B10128CA
S3152020C86074D16868402803D32A6CC2F3402018B9B3
S3152020C87000985844009033E0120C12F0050F18BF90
S3152020C880A5210BD1900709D5069B02982A46314629
S3152020C890FFF73BFD5FEA000858D10121286C06F5F9
S3152020C8A0B872800A10F00A0F0AD06FF0F9201060B3
S3152020C8B05060019820280DD140F2FF63936009E053
S3152020C8C010F0110F42D04FF0062010605060DFF894
S3152020C8D09C0B90600122BBF1000F89F8002012D119
S3152020C8E0009860B100F0FF0224B1DFF8E00802438F
S3152020C8F07A631EE0DFF8781B0A437A6320E042F24F
S3152020C9000440786314E0BBF1010F06BF0620090915
S3152020C910072041EA80210098000400F47F0001438B
S3152020C92041F0485141F400717963DFF8A41CB963C2
S3152020C93034B1012089F80100316C41F04001316485
S3152020C940306C4FF0000840F010003064404607B0AD
S3152020C950BDE8F08F2DE9F84F0D0096B0144608BF9C
S3152020C9604FF0040869D0834608236A460021FFF742
S3152020C97007FC5FEA000860D10098DFF8581C88423F
S3152020C98018BF44F68B6858D19DF8040028609DF87E
S3152020C99006707F1C0A2F88BF0A2708210CB14FF466
S3152020C9A00061FB0002AA5846FFF7EAFB5FEA00086F
S3152020C9B043D164212846FDF73FFA4FF0000A4FF66F
S3152020C9C0847904E0012085F858000AF1010ABA4545
S3152020C9D033D202A901EBCA000278C37902EB0322E3
S3152020C9E0B2F57F4F18BF4A45EFD100210223C61842
S3152020C9F05B1E367946EA0121F9D5C678B60004B100
S3152020CA000902B2F57F4F0DD1502E05F10802584666
S3152020CA1088BF50263346FFF7B3FB5FEA00080CD1C8
S3152020CA206E60D2E74A45D0D1334605F15C0258469E
S3152020CA30FFF7A6FB5FEA0008C4D0404617B0BDE842
S3152020CA40F08FF0B5490089B00325019100260127F2
S3152020CA508DF800506946029603978DF8106007924C
S3152020CA60089301F093FA0AB0E0BD490060B589B079
S3152020CA7002250191002101268DF810108DF80050F5
S3152020CA806946029603960592069301F07FFA09B02D
S3152020CA9060BD2DE9F84705460C4687B00320E07394
S3152020CAA004F14500082158230170032623642673A8
S3152020CAB01AB1216C41F001012164012204F15006B2
S3152020CAC082700F200121B085F18504F5C2774FF4BD
S3152020CAD000724FF48020FA6304F2C9183864C4F82F
S3152020CAE0D001284688F800102146FFF7EBF80028C9
S3152020CAF062D100F0F1F80DF10C0A80E80E10DFF873
S3152020CB00D81ADFF8D82A03910123CAF8042003AAC9
S3152020CB100121284601F00CFA00F0DEF8DFF8C09A51
S3152020CB2080E80E10DFF8BC1ACDF80C90CAF8041055
S3152020CB30012303AA0021284601F0FAF94FF41840D0
S3152020CB400223029002AA40F255512846FFF78DFF74
S3152020CB50002831D108236A4610212846FFF771FF85
S3152020CB60002829D10098DFF8802A0199904289B29D
S3152020CB70019108BFB1F5B24F40F09F8008236A4645
S3152020CB8027212846FFF75DFF002815D10098C0F3FE
S3152020CB900720A0F117010A29009080F08E8001221B
S3152020CBA0824032604FF470410291022302AA002172
S3152020CBB02846FFF75AFF00287CD1DFF8301A4AF2A0
S3152020CBC00475DFF82CCA7163B5634FF08721C6F848
S3152020CBD04CC0DFF8202AB565DFF81C3ADFF81CEABE
S3152020CBE0DFF81C5ADFF81CCAC6F854E0DFF818EA2A
S3152020CBF0C6F83090316448F2307A7264B364C6F84D
S3152020CC005090DFF8209C31667266B366F2663167F3
S3152020CC107567C6F878C0F56704F1D006C6F84CE0EB
S3152020CC20DFF804ECC6F850E004F5A874C6F8549052
S3152020CC30DFF8F89BC6F830E0DFF8F4EB3164726455
S3152020CC40B36431607260B360C6F80C903161726152
S3152020CC50B361F26131627562C6F828C0F562C6F802
S3152020CC6034E0C6F838A031667266B366C6F86C9092
S3152020CC7031677267B367F26721602161DFF8B41BE1
S3152020CC80626102226560C4F808C0E560A3610323BF
S3152020CC90E16104213A7101247B7109233A703A73A8
S3152020CCA00522397239740B217C707B737A727974E0
S3152020CCB088F8034008B0BDE8F08744F68D60F9E790
S3152020CCC035040124050401243F0401240104012004
S3152020CCD00104022031040120002103A80022002380
S3152020CCE08C4670472DE9F04F8DB09046D8F800201D
S3152020CCF0C2F30353052B0CBF01260026C2F30335AE
S3152020CD00002DC2F3034418BF032D07D18A460AF10A
S3152020CD10300783462CB1032C00D1D5B94FF0040916
S3152020CD2044E16846FEF723FF00F04CF9B9F1000FE5
S3152020CD3007D16A465146584600F0D3FC5FEA0009DF
S3152020CD40EED1002010218AF80C00032239610C92A2
S3152020CD500EE0032010218AF80C003961D8F8000053
S3152020CD60C0F30350042804BF5021396106200C90BB
S3152020CD7054EA0500514608BF0126032D0CBF082082
S3152020CD80012078755846FEF79DFF5FEA0009C7D136
S3152020CD900CB9002003E0002E14BF10202020DFF83D
S3152020CDA0981A01230A180121584601F0C1F80020BB
S3152020CDB00323059002AA8DF8200001208DF810303B
S3152020CDC004A90690079058460B9201F0DFF85FEAF7
S3152020CDD0000904BF9DF80800C228A1D102A9002C71
S3152020CDE04FF480300AF5E07B86F0010607BF89786C
S3152020CDF030394A79A2F1300100FA01F14FF48072DC
S3152020CE0039624FF48051CBF810000320CBF8041060
S3152020CE101021002CCBF800208AF80C00396108BF9D
S3152020CE20032D01960AF1B0064AD1012002210623BC
S3152020CE308AF811108AF810000022AAF81200DFF8CA
S3152020CE40FC198AF8153007238AF8140001988DF8E2
S3152020CE5000204FF004228DF80330DFF8E439A8B102
S3152020CE60822402208DF80140CAF8180033637263A9
S3152020CE70B163D8F80000C0F30310032819BF00209F
S3152020CE808BF80A0001218BF80A1016E08124022053
S3152020CE908DF80140DFF8AC49CAF818000120336329
S3152020CEA074630724B1638AF81C008AF821408AF823
S3152020CEB02000386033647264B1640098FEF753FE14
S3152020CEC040F20640C64930603966C5B90122DFF8EE
S3152020CED078098AF80C20DFF874193865BE4A7965F6
S3152020CEE042F204003266DFF868197066DFF864299A
S3152020CEF031624FF48C633265CAF8303156E001989E
S3152020CF0040B9012302210C24092008220525DFF817
S3152020CF1048C907E0212322212C24292028220A253A
S3152020CF20DFF838C98902C7F850C041EA0545800292
S3152020CF3040F4417041EA826245EA84659C0644EACF
S3152020CF408324DFF81C3941F4487145F0032545F048
S3152020CF5020057D652343B865DFF8085933612543CD
S3152020CF603D6744F003237B67DFF8FC58BB67DFF877
S3152020CF70FC38F8672343DFF8F80833660243254355
S3152020CF807266DFF8F008356220437162306571657C
S3152020CF90DFF8E4180C43CAF83041019818B13969F2
S3152020CFA041F04001396102208BF80C0048460DB033
S3152020CFB0BDE8F08F3E04022085040124EE04208A59
S3152020CFC0ED04188A81460020FEF7CDBD2DE9F84FC5
S3152020CFD09CB0044616460D463068C0F30352072AF5
S3152020CFE0C0F303400CBF01270027A0B96846FEF7EF
S3152020CFF0BEFDFFF7E7FFB9F1000F07D16A462946A4
S3152020D000204600F06EFB5FEA000911D10020102196
S3152020D0102873296403E0032250202A7328640821D8
S3152020D020204685F845102946FEF74CFE5FEA000982
S3152020D0307AD130680FF6AC02C0F3034008B9012339
S3152020D04003E0032870D1012310320121204600F06D
S3152020D0506FFF0820002285F8450003A92046FFF708
S3152020D06079FC5FEA00095FD100F004FA380003D189
S3152020D070502003212864297305F1500140F20640EF
S3152020D080574A08660A64306805F5E67805F1D00423
S3152020D09042F2010ADFF8E4B7C0F30342032A1CBF99
S3152020D0A0C0F30330032841D1DFF8D407DFF8D42793
S3152020D0B00865DFF8D43740F206700A634B63DFF841
S3152020D0C0CC270867DFF8C81721604FF4EC6322636A
S3152020D0D0DFF8C00723664AF2043120646164306891
S3152020D0E0C0F30340E8B90021062282238DF80010E0
S3152020D0F08DF803208DF801300098FEF734FD0120AD
S3152020D10002212874E722697406200121AA61687504
S3152020D1104FF0042029756982C4F810B06061C4F8E4
S3152020D12018A0022188F8001048469CE10028FBD14F
S3152020D1300868029EDFF86027B0F1807F06F0FF06A0
S3152020D14027BF20208E231820C22346EA004643EA02
S3152020D150004316432660019E06F0FF0646EA004657
S3152020D16032432263DFF83427134323644FF40E53CC
S3152020D17063644FB9DFF82807DFF8282708634A6356
S3152020D180012188F802101AE00E68CB23C4F810B0CB
S3152020D190B6F1807FDFF810676661C4F818A028BF33
S3152020D1A0CC230C2743EA0040AF6101272F740626A3
S3152020D1B06E7510432F750863DFF8F00648634FF429
S3152020D1C08C612166B0E700000100000100B204A6B0
S3152020D1D03E04200A340420081204200802041808D9
S3152020D1E00504042413042008042401002DE9F84F03
S3152020D1F09CB0814610680D4644F68D684FF0000A93
S3152020D200C0F3035009280CBF012400240420102138
S3152020D21085F8450010682964C0F30347C0F3033618
S3152020D220B7B96846FEF7A3FC8046FFF7CCFEB8F1D7
S3152020D230000F07D16A462946484600F052FA5FEA8F
S3152020D24000085AD1012085F80CA085F845000EE06B
S3152020D250022F02D10320287309E0032F4DD1032169
S3152020D2600820297385F845000CB94FF0010A002EB5
S3152020D2701CBF022E032E40D156EA070008BF0124E8
S3152020D280022E03D1042085F8450004E0032E04BF96
S3152020D290082185F84510286C002C294614BF20F03B
S3152020D2A0400040F0400028644846FEF70BFD5FEA28
S3152020D2B0000822D144B1022F02D0032F02D00CE045
S3152020D2C010200BE0202009E0022F02D0032F02D0CD
S3152020D2D003E0302002E0402000E00020DFF8D015D7
S3152020D2E001230A180121484600F022FE524603A9AE
S3152020D2F04846FFF72FFB5FEA000840F0B38000F096
S3152020D300B9F8032005F18001287340F20642DFF8A0
S3152020D310A4350A630B613CB94FF0220A2C2329201D
S3152020D32028274FF00C0E06E04FF0020A0C23092086
S3152020D33008274FF0060E4FEA066909F040794FEA92
S3152020D340062C0CF4407CCDF8009049EA0C0949EAD9
S3152020D3508A6ADFF864B54CEA0E0E022E4EEA832E38
S3152020D3604BEA0A0B4CEA8727C1F800B0009B1CBF6A
S3152020D370032E002247F0800743EA0E0305F5807E20
S3152020D38043EA806343F480234B604AF0201343F41E
S3152020D39080630B65DFF8243543EA0A03CEF8147040
S3152020D3A0CEF80030DFF8183543EA0A03CEF81030DD
S3152020D3B04CF48C63CEF8303017D149EA8063DFF8FD
S3152020D3C0040542EA0C021843002308620A6402225A
S3152020D3D0022E85F8CC21AB6103D14FF48020A861A1
S3152020D3E004E0032E02D14FF40022AA6124B9A869B1
S3152020D3F040F40000A86106E02A6C012042F0800259
S3152020D4002A6485F87900DFF8C02442F203030A66ED
S3152020D4100120002E4B66287414BF02200020687439
S3152020D4200620687501212975002069828DF8000063
S3152020D4304CB1022E08BF41200CD0032E0AD18121C7
S3152020D4408DF8011008E0022E08BF422002D0032EBC
S3152020D45008BF82208DF8010008228DF8032000982D
S3152020D460FEF781FB40461DB0BDE8F08F001E10322E
S3152020D4700032042601AB02AA03A92846FFF754B896
S3152020D4802DE9F8410D4604241646002D99B08046F4
S3152020D49018BF002E00F098804FF400712846FCF724
S3152020D4A0CBFC05F1440701224FF08073BA70FB6054
S3152020D4B0DFF818042860DFF8181403220120696099
S3152020D4C06A73AA7385F8C8013168C1F303600028FE
S3152020D4D008DD7068C0F30340012803D1296C41F48C
S3152020D4E0807129643068020D02F00F02092A61D862
S3152020D4F0DFE802F0050546484E4E54545A5AC0F3EA
S3152020D5000340002856D1DFF8CC13DFF8CC23F9636B
S3152020D51029467C7040463A64FEF7D4FB040049D164
S3152020D5203068C0F30310012810D105F5B8706FF0CC
S3152020D530F92101600023416040F2FF6181600022D1
S3152020D54029464046FEF7D3FB040033D13168DFF865
S3152020D5508C030123C1F3034100EB01120121404634
S3152020D56000F0E6FC002269464046FFF7F3F9040066
S3152020D57020D133466A4629464046FFF751F818E01F
S3152020D580012200E0002229464046FFF782FA10E0D9
S3152020D590324629464046FFF7A5FB0AE03246294671
S3152020D5A04046FFF713FD04E0324629464046FFF762
S3152020D5B01DFE044634B92846FEF7B6FA307800F028
S3152020D5C00F00B8700121397020461AB0BDE8F081CD
S3152020D5D00426017C534644502087188B108F02A3A3
S3152020D5E0A087188B108F04A700510052108F0CB3E0
S3152020D5F0008770870087AA8700870587108F0BB73B
S3152020D60000875587008702870087A0872DE9F0416C
S3152020D61080460C46042074B304F5E2759F182968C9
S3152020D6207F42494201EA02066A790F407F420AB9BF
S3152020D630E96889B9BE421ED200F01FF8002804BF2F
S3152020D64029688E19F6D016E0324621464046FEF746
S3152020D6503DFD80B9E9688E19BE420CD2E96836EACA
S3152020D660010002D1B81B8842EED200F006F800282D
S3152020D67008BF2968EFD0BDE8F081324621464046D2
S3152020D680FEF7EEBC2DE9F8418046042015460029F8
S3152020D69089B01F4618BF002D21D0109CFCB108460A
S3152020D6A000F030F9032101238DF800100021039387
S3152020D6B002918DF810004FF6FF76B4420197694605
S3152020D6C00795404698BF2646089600F05FFC30B95D
S3152020D6D0A41BF719B608002C05EB8605EBD1FEF71F
S3152020D6E027BD2DE9F8430E4614460421002C92B07E
S3152020D6F0804604D060782178884208BF002100F037
S3152020D7008D8006F1450708203870607803254FF074
S3152020D7100109422818BF412802D104200225387049
S3152020D7206078822814BF42284FF02109002020212A
S3152020D7300A908DF834008DF8240001200B9001A842
S3152020D740FCF77AFBE4782A0201AB062C0ED031D3E3
S3152020D750082C01D014D32DE040F20640104340F28D
S3152020D760FF4101900A431A61022224E040F29941A6
S3152020D77040F2664414430A431A61022201941AE0B5
S3152020D78042EA8922B9F1210F42EA056242EA8962F8
S3152020D79042F4190042F4CC0240F0660042F099028D
S3152020D7A001901A6103D1306C40F040003064022190
S3152020D7B00C9101E001220C9201204FF080717870AB
S3152020D7C006F150000160414A32600324404B012279
S3152020D7D073600A2374733146B47386F8C821436272
S3152020D7E04046FEF76FFA010018D10C9B01AA0121B1
S3152020D7F040464FF47A7400F09BFB09A9FEF791FE70
S3152020D800374A01461368B3FBF4F4009403E000BFC3
S3152020D810009A521E009200980028F8D1084613B08C
S3152020D820BDE8F083108F80A30087188B0087808720
S3152020D830108F0087008710876C8D20200004012000
S3152020D84072040004000402040C0420080830042476
S3152020D85021042008DC042008EC071307EE87118713
S3152020D8600603F9030503FA032103DE031203ED035E
S3152020D87020030403DC03230360039F0381040004A5
S3152020D880050704A7FD07208B06B304A7DC07208BFA
S3152020D8902107208B1207208B000400080004000B90
S3152020D8A0FD04208B0CB304A7000401040C330427A9
S3152020D8B09C8D2020050404240B042000D80420005D
S3152020D8C00204200005040400710400044643464255
S3152020D8D00004015603041808042401002C8D20205E
S3152020D8E0805521205A0418080830FF240000000003
S3152020D8F0000000005A07208BFFA700000000000030
S3152020D9000000000090F8400010F0040018BF01200D
S3152020D910704790F8400010F0200018BF0120704773
S3152020D92090F8400010F0010018BF012070472DE923
S3152020D930FF47814604200024B9F1000F0D4608BF79
S3152020D940DFF88449002C18BF002D7CD0297B0429A0
S3152020D95079DA032901AF15D195F84030980711D4EB
S3152020D9606A4602214846FBF7BAFD009BDFF85C2970
S3152020D97093420CD395F840100B0608D479220192B5
S3152020D9807A603FE04FF48070019078603AE000267C
S3152020D9904FF47A7805EB46007830417829BB007819
S3152020D9A06421484319D1286C03A9800900F0010A73
S3152020D9B052464846FBF7BBFD0399BAF1000FDFF824
S3152020D9C01009B0FBF1F101D1490800E089084B226A
S3152020D9D008FB01F1B1FBF2F106E04B23B0FBF3F19A
S3152020D9E003FB01F2824200D2491C402928BF3F2155
S3152020D9F0490201F4FC4141F4807147F82610761C37
S3152020DA00022EC7D32068400800F0010090F00100C4
S3152020DA1003D0216841F0020121602A6D04F1C00360
S3152020DA20002A07BF696D0029019A1A60A96D00296D
S3152020DA3007BFEA6D002A7968596018B1206820F05E
S3152020DA4002002060002004B0BDE8F08710B504460F
S3152020DA500420002C18BF002A0FD073B1DFF87008DD
S3152020DA60B0FBF2F04343B1FBF3F000E0401C00FB97
S3152020DA7003F28A42FAD32060002010BD38B584B044
S3152020DA804FF6FF740194009400B909B9042028E0C8
S3152020DA9003AA0221FBF723FD02AA01210020DFF899
S3152020DAA03458FBF71CFD039A4FF48063294601A8BE
S3152020DAB0FFF7CCFF029A4FF4806329466846FFF78A
S3152020DAC0C5FF0199DFF81038A14288BF0194009A3A
S3152020DAD0A24288BF009401980099C1EA0042002002
S3152020DAE01A6005B030BDD0F8E010CA07FBD5D0F8B3
S3152020DAF0E0309907FBD570472DE9FE430E460421D9
S3152020DB000022002800924FD1002E4DD006F1500839
S3152020DB10914606F5C87758F8040BDFF8AC1701EBC9
S3152020DB208904800A2066707BB57BF17B400100F456
S3152020DB30787005F01F05054396F84000C90201F4C8
S3152020DB40F0410D430107706F48BF45F4806568B1E9
S3152020DB5001AA02210020FBF7C2FC019A716F012342
S3152020DB606846FFF773FF009945EA0145256796F831
S3152020DB70470000281EBF39784A0112F0E00F09D04D
S3152020DB807878491E490301F46041000200F4706050
S3152020DB90084301E04FF4106009F10109B9F1040F9F
S3152020DBA0C4F88000B7D300210846BDE8FE830422AE
S3152020DBB0002810B518BF00291ED040310A79012A25
S3152020DBC00AD1C26809785208520042F040024B0717
S3152020DBD048BF42F00102C260C168DFF8004741F029
S3152020DBE02001C160002100EB8102491C136A2340D9
S3152020DBF003291362F7D30022104610BDF0B5044640
S3152020DC0089B0042031B30020012603278DF8000097
S3152020DC10039602978DF81020019391F84720002A29
S3152020DC201EBF01F5C4721078002803D053780293C2
S3152020DC3012780392029D039B01EB051601212046B3
S3152020DC4006F1800200F074F90123694602932046EA
S3152020DC5000F09CF909B0F0BD78B50424002889B0DD
S3152020DC600D46164636D1002D34D0DFF874060068CE
S3152020DC70C0F3012020B1687C022808BF002429D0C7
S3152020DC80012101968DF800106A7D334600200292EC
S3152020DC90297D00220694039105F118010591294634
S3152020DCA08DF81020FFF7AAFF00F06DF800F066F837
S3152020DCB004000FD1688A58B9697C022918BF032924
S3152020DCC006D033460022294600F053FA044601E0C6
S3152020DCD000F062F820460AB070BD2DE9F8410424F0
S3152020DCE0002889B00D4690463ED1002D3CD00120FB
S3152020DCF000228DF800000027CDF804808DF8102012
S3152020DD00069405EB870202F120035978002931D0A9
S3152020DD10DFF8CC05EE190068C0F3012010B1707F22
S3152020DD20022827D00291197802F130004346039128
S3152020DD300022059029460020FFF760FF040013D11A
S3152020DD4000F021F800F01AF804000DD1688A78B97D
S3152020DD50717F022918BF03290AD04346002229466B
S3152020DD6000F007FA040005D020460AB0BDE8F0816D
S3152020DD7000F012F87F1C032FC3D3F5E70120694654
S3152020DD800290002002E10298039B05EB001100205F
S3152020DD9001F180020121CBE0642148430021FBF7D9
S3152020DDA01BBC02460420002A2DE9F84F0D4614D12B
S3152020DDB0002D00F0A1802A7C002A04BF297F00297B
S3152020DDC006D095F8402012F0500602D0012600E019
S3152020DDD000262968DFF80C25914240F08D8000200E
S3152020DDE005F14507FBF773FB29460020FDF71AFDB1
S3152020DDF0300003D000220121002001E000F07EF82F
S3152020DE00FBF71BFB0020DFF8C044FBF75BFB00F091
S3152020DE107CF821684DF60F7041F0020121602168BF
S3152020DE203A780140287B082A08BF41F40051000196
S3152020DE3000F03000014341F07F4141F47F01002072
S3152020DE4021602946FFF71AFEA06820F40040A06032
S3152020DE5095F84010C80703D5A26842F40022A26094
S3152020DE6029462046FFF7A3FE29460020FFF744FE39
S3152020DE7029460020FFF75BFD00F047F8287C88B173
S3152020DE8000F04FF859F8048BB8F1000F06D052460F
S3152020DE9029460020FFF7E0FE70BBC244BBF1010BF0
S3152020DEA0F0D148BB287F88B100F03BF859F8048B85
S3152020DEB0B8F1000F06D0524629460020FFF70DFF65
S3152020DEC0D0B9C244BBF1010BF0D1A8B99EB12068CC
S3152020DED040F00200206000F011F8FBF7AEFA294648
S3152020DEE00020FFF7CBFD29460020FFF720FD2068E4
S3152020DEF020F0020020600020BDE8F28F2A6C79787D
S3152020DF000020920902F001027047206820F00200CA
S3152020DF102060216841F0010121602268D307FCD4CA
S3152020DF20704704204FF0000A05F1500983467047B8
S3152020DF302DE9F0420F4614461E46042118BB14B381
S3152020DF404FF00009BA1949EB0903002B1BD8112AD7
S3152020DF5019D200F0B4F9DFF890030221A861E96113
S3152020DF60B90005EB8102F71902F5007204E054F896
S3152020DF70043B491C42F8043BB1EB870FF7D3A86139
S3152020DF800120E86100210846BDE8F08200282DE91D
S3152020DF90F8434FF0040871D10C0000F0CB80207894
S3152020DFA0042880F2C780DFF8206394F8109030464A
S3152020DFB0DFF83873FFF797FD0020002500F061F980
S3152020DFC0706940F01E0070616168396020780228EF
S3152020DFD008BFA56902D0032801D1256AADB2A06861
S3152020DFE0E168000400F470200543491E090601F06B
S3152020DFF0E0610D4345EAC9757D602078032834D138
S3152020E000E269206A12F0030138D11C23BB61B96969
S3152020E01041F00101B961BB69D907FCD4396941F0C6
S3152020E0200101396108B3402807F1600314D37169CF
S3152020E0304FF0100C890604D414E053F8041B42F840
S3152020E040041B5FEA0C01ACF1010CF6D17169403852
S3152020E05041F02001716105E0396DC90001F4FF61AD
S3152020E060814221D271690B07DCD52078022818BF7E
S3152020E070012839D16269A16912F003005AD11C23E3
S3152020E080FB61F86940F00100F861FB69D807FCD4F0
S3152020E0900025002928DD7069954B400621D5402989
S3152020E0A04FF0100C38D30CE0042822BF53F8041B61
S3152020E0B042F8041B001FF7D23FE052F8040B43F826
S3152020E0C0040B5FEA0C00ACF1010CF6D1403925B9DE
S3152020E0D03869012540F001003861706940F0400020
S3152020E0E0706173691807D4D5207818B9396941F039
S3152020E0F0010139613046FFF7F6FC7069010717D513
S3152020E100786CC0F303600E280CBF41F6583841F6D0
S3152020E11059380FE043F8040B5FEA0C00ACF1010CF0
S3152020E120D5D00029D2BF0020091F52F8040BF1E7D1
S3152020E1304FF000084046BDE8F28340B119680091AF
S3152020E140694611F8013B401E02F8013BF9D170695E
S3152020E1508BE718B9674801688A07FBD5704738B915
S3152020E1605948016841F0010101600268D307FCD4B7
S3152020E170704700292DE9F84F8EB04FF0040979D049
S3152020E18001F170049246A5890122E6890693089218
S3152020E19002FA05F80325BAF1000F8DF814500792DC
S3152020E1A002AD0C9514BF082304230D938DF824A0CB
S3152020E1B091F84730002B1EBF01F5C2752A78002A18
S3152020E1C003D06A7807922D7808950490079801EB5A
S3152020E1D00015089B0146049805F18002FFF7A8FE4A
S3152020E1E024685FEA040B18BF4FF0010B0025049822
S3152020E1F005A9FFF7CBFE5FEA00093BD1BAF1000F54
S3152020E2001AD001A96A4602AB042013F8017B401ECE
S3152020E21001F8017B13F8017B02F8017BF5D1002E52
S3152020E2200199009803D0014038EA010102E0014318
S3152020E23011EA08010F4608E0002E029802D038EA9B
S3152020E240000001E018EA0000074618BF0127FAB2AD
S3152020E25012EA0B0F0BD0002D08BF002C0ED04FF446
S3152020E2607A700021FBF7B8F9641E65F10005FFB22C
S3152020E270002FBCD148460FB0BDE8F08F41F65A3961
S3152020E280F8E758B9104901EB8001401C0428D1F841
S3152020E290802042F00042C1F88020F3D3704738B561
S3152020E2A00C4658B900F00BF824B1296841F40061D6
S3152020E2B0296031BD286820F40060286031BD024DD8
S3152020E2C02846FFF710BC000000802A4000E1F50513
S3152020E2D000CA9A3B0065CD1D04802A4000FFF0FC31
S3152020E2E000822A4046434642F05AF05AA0802A40CD
S3152020E2F080812A40E0802A402DE9F843DFF83465E2
S3152020E3000220ADF5467D30607060DFF82C753868C8
S3152020E3104FF00108C0F3400000281FBFDFF81C453E
S3152020E3202068C0F30130002803D02068C0F3813054
S3152020E330002800F09880FDF7D9FB012840F0938033
S3152020E340B869C0F30160002818BF02280CD1DFF875
S3152020E350F0140020002200230F1D41F8302047F81A
S3152020E3603030401C0228F8D9206800254FF4C07789
S3152020E370C0F3013030602168C1F38130706002A87B
S3152020E38001F014FA56F82500741906EB85010128A8
S3152020E39004D012D303280DD008D30EE0DFF8A4240E
S3152020E3A08A60886860B90021217459E0DFF89804D2
S3152020E3B08860F6E7DFF89424F2E700208860F2E709
S3152020E3C0012202A82274896880224FEA852901F039
S3152020E3D001FA09F1C041202201F5806106A8FCF747
S3152020E3E09DFFDFF86C044FF4807200EB090126A80C
S3152020E3F0FCF794FF202166AB009106AA002102A8F3
S3152020E40001F030FB66A9802202A801F0E3F94FF43F
S3152020E410807086A9019026AB00916AAA002102A8C5
S3152020E42001F0F6FA86A9DFF82C344A6807FB05F0B6
S3152020E4309A4202BF8699DFF820249142304406D0A2
S3152020E440002339462374143000F07CFF08E0012194
S3152020E4503A46217466A914304FF00008FCF75EFF77
S3152020E4606D1C022D8ED340460DF5477DBDE8F083E9
S3152020E47010B50024FFF740FF00B90124204610BD27
S3152020E4800146002021B10968090F0E2908BF012065
S3152020E49070472DE9F04395B00646FFF7E9FF05467C
S3152020E4A030460424FFF7ECFF002808D03068000F00
S3152020E4B00E2840F0CB803168C1F30340002800F0BD
S3152020E4C0C58004281AD2C1F30352022ABCBFC1F345
S3152020E4D00332042A0ADA012803D9C1F30322042AA3
S3152020E4E004DA032804D3C1F30310042880F2AE8073
S3152020E4F0C1F30360032824BF001F032880F0A680D1
S3152020E5000022C1F30367032FCA4B28BF0122002D07
S3152020E5101EBF03F11001885C002871D14FF4C07111
S3152020E52011FB02F51D44143517F0030703D0022FE3
S3152020E53005D002D308E0C44802E0C24800E0C34820
S3152020E54003F1080747F82200012010339854284663
S3152020E550FBF772FC05F18007BE48BF497860396019
S3152020E5603268BE4806F10808B860C2F3034100228B
S3152020E570F960337803F00F03FB613068C0F3035052
S3152020E580B86115E03368C3F3032005EB421C0CF178
S3152020E590D00306EBC20CDCF804E0C3F800E0DCF87C
S3152020E5A004C058F832909860521CCC44C3F804C05A
S3152020E5B08A4209D2012AE5D03068022A0CBFC0F34C
S3152020E5C00310C0F30330E0E70129386D7A6D0ED9A8
S3152020E5D0012305EB431656F8D0CF8445766838BFFD
S3152020E5E06046B24238BF32465B1C8B42F1D39C49EF
S3152020E5F088422BD3386168467A6100F0BDFE04003C
S3152020E60024D10020974E8DF803006946304601F02C
S3152020E61045F804001AD1B869012809D1102205F13C
S3152020E620A001304601F070F80446002038626CB90B
S3152020E63010222946304601F067F8040006D1102220
S3152020E64005F11001304601F05FF80446204615B04A
S3152020E650BDE8F083F0B500220024764B4FF4C07538
S3152020E660002665431D44143500E0761CD5F88C70B1
S3152020E670BE4210D205EB461C0CF1D007D7F804E099
S3152020E680AEF1010E8645F0D33F6801EB000C6745BD
S3152020E690EBD2012202E0641C012CDFD91046F0BD0A
S3152020E6A02DE9F0470D460421002D86B018BF5FEADC
S3152020E6B0020838D00646022E35D25E4CA3191A7C83
S3152020E6C08AB302A84FF4C07901F070F809FB06F14D
S3152020E6D08022601800F1140A00F54577514602A8D9
S3152020E6E001F078F84FF4807007F1800101900AF14B
S3152020E6F0800300910AF11002012102A801F088F975
S3152020E70004EB86008022816802A801F063F820208D
S3152020E7103B4600905246012102A801F0A3F92F6022
S3152020E7200021C8F80090084606B0BDE8F0872DE9FC
S3152020E730F84706460C4604201546002C89B018BFFB
S3152020E740002D4AD04FF000094FF4C077DFF8E4803F
S3152020E75000F046F890304268521EB24203D3006839
S3152020E760A119884204D309F10109B9F1010FEFD982
S3152020E77008EB890205A8D2F808A001F017F8802214
S3152020E78005A8514601F026F800F02AF8D0F898106E
S3152020E79001291AD1A03001AA90E88A1082E88A108D
S3152020E7A036090020019601A901AB464233440A5C72
S3152020E7B0DF7B0F54401C0828DA73F5D300942B46B0
S3152020E7C02A4605A801F074F906E000942B462A462D
S3152020E7D0012105A801F046F900200AB0BDE8F087FE
S3152020E7E007FB09F108F11400084470472DE9F04190
S3152020E7F005460E4600274FF4C07404FB07F10D484A
S3152020E800014401F1140001F54578174901EB8721D0
S3152020E810A94209D37219914206D22146FBF70CFB55
S3152020E82021464046FBF708FB7F1C012FE5D9BDE892
S3152020E830F0810000F46E212004800F4060441F40A8
S3152020E84048C00A40DCEFDCFE89ABDCFE1234DCFE5D
S3152020E85080040060454844525441475F00000156D9
S3152020E8600010006000C00C400004006001F055BB81
S3152020E87013460A460146184680B503E013460A4643
S3152020E88080B51946FCF74AFD002002BD10B5144676
S3152020E8900A4621460123BDE81040F9F7B1BF000002
S3152020E8A04018491C1CBFB1F1010100F8012DF9D1F6
S3152020E8B07047000003000020521E22BF13F8010BD0
S3152020E8C011F801CBB0EB0C00F6D0521C08BF104635
S3152020E8D0704700002DE9F84307460C46DFF83C53E5
S3152020E8E020212846FBF7A8FA3A78012AC8BF42F603
S3152020E8F0CE1025DC97F801804246212A10DA012005
S3152020E900002101F00DFB4FF0000949457E6801D812
S3152020E910B04205D30123A8F1080293409E4202D299
S3152020E92042F6CF100CE01C2239462846FCF7F6FC8E
S3152020E9306868EC61B0F5007F04BF0921697000206A
S3152020E940BDE8F2831346B54A70B5957C04465268D5
S3152020E95000201E19B24202D242F6CC1070BD2A00E7
S3152020E96000D16CE02BB10A4621462846BDE87040EE
S3152020E970A8E070BD2DE9F8438046002401EB080964
S3152020E980A64F7868FD68FE7D484504D242F6CC1411
S3152020E9902046BDE8F2839EB9BE7DBD6886B938780B
S3152020E9A030B301280CD1404600F03FF90446EFE76A
S3152020E9B0002CEDD1387DD8B100F023F90028FBD1E9
S3152020E9C0C845E5D200F0FEF80400E1D1002300225C
S3152020E9D04146304600F076F80446B8FBF5F105FBB3
S3152020E9E0118000281ABF481C05FB00F8A844DFE741
S3152020E9F042F6D010CDE770B5884D2E7E696830005E
S3152020EA0008D12878A0B1012804D1002000F00DF9E2
S3152020EA10044612E000F0D6F804000ED1002300228E
S3152020EA200021304600F04EF8040006D1287D00B99A
S3152020EA3005E000F0E6F80028FBD1204670BD42F61E
S3152020EA40D01070BD2DE9F84F81468A469046002485
S3152020EA5008EB0901714E7068B768757C884204D22C
S3152020EA6042F6CC142046BDE8F28FCDB942F6D0101E
S3152020EA70F9E7C34688455246284688BF8B465B46DB
S3152020EA80494600F01FF80400D944DA44A8EB0B08C5
S3152020EA90E8D1307D0028E9D000F0B3F80028FBD15A
S3152020EAA0B8F1000FDED000F08DF80400DAD1B9FBE2
S3152020EAB0F7F17943B9EB01001ABFA7EB0900091832
S3152020EAC03946D6E72DE9FC471C46544FFB6982463A
S3152020EAD0894690467D780022002100209847BAF169
S3152020EAE0000F2CD0397C8A4508BF012628D07A7C75
S3152020EAF0924508BF022623D0B97C8A4508BF032623
S3152020EB001ED0FA7C924508BF042619D0397D8A4525
S3152020EB1008BF052614D07A7D924508BF06260FD039
S3152020EB20B97D8A4508BF07260AD0FA7D924508BFB7
S3152020EB30082605D0397E8A4508BF092600D000261A
S3152020EB407878092804D1B9F5807F28BF4AF0080AA9
S3152020EB50092D8DF800A008BF08250121B01E012807
S3152020EB6084BF401F012814D86D1EAB1005EB5371AE
S3152020EB7000200DF10105C910491C07E04A1E121A72
S3152020EB80D20029FA02F32B54401CC0B28842F5D376
S3152020EB90491C21B1FB6902226846984780B94CB1AD
S3152020EBA00122761E012EFB692146404698BF02226D
S3152020EBB0984728B9FB690322002100209847002086
S3152020EBC0BDE8F68738B51548047D457D200001D05F
S3152020EBD0280002D142F6D01032BD00F021F80028BC
S3152020EBE0FBD19DF80000810709D4002300220021B3
S3152020EBF02846FFF767FF9DF800008107EDD5002006
S3152020EC0032BD1CB50548047D00F00AF80028FBD14A
S3152020EC109DF8000000F0010016BD0000147D212083
S3152020EC2001236A46002120464CE77FB505460C463F
S3152020EC30FF2210216846FCF7D1FF01E07519A41B9D
S3152020EC405CB11026102C6946284638BF2646324607
S3152020EC50FFF7F8FE0028F1D000E0002004B070BDB8
S3152020EC6000F01F02DFF84835000A914003EB8000B0
S3152020EC7030B5032595400468AC432143016030BD5F
S3152020EC800321EDE721B1016941F0010101617047BE
S3152020EC9002695208520002617047426A01F001015E
S3152020ECA0520841EA4201416270475202036942EA10
S3152020ECB001221A4302617047120401F00F0102F467
S3152020ECC070221143816570470146002010B500BF90
S3152020ECD005A2C3B252F823308B4203D0401CC4B2C3
S3152020ECE0052CF6D3C0B210BD0000000000403940EC
S3152020ECF00080394000C0394000003A4010B50C460B
S3152020ED00FFF7E2FFDFF8AC140C5410BD7CB50D469E
S3152020ED100021044616460091FFF7D6FF38A232F985
S3152020ED201000FFF7ADFF204600F05FF801212046B6
S3152020ED30FFF7B3FF6A7E297E204600F067F8616AD6
S3152020ED40EA7EDFF874046B46920602F08062014068
S3152020ED501143A87E3246000600F04070014320462B
S3152020ED606162296800F05DF80022002100F012FA85
S3152020ED70697A287A6A6800F029F8A87A00F02CF8AF
S3152020ED8000982A7EC00600F06050014320461206D5
S3152020ED9002F04072114321660121FFF773FFE968D3
S3152020EDA033460122204600F092F829693346022272
S3152020EDB0204600F08CF8696933460322204600F06D
S3152020EDC086F800212046FFF799FF73BD890701F0B9
S3152020EDD0804141EAC0717047521EC2F30B02C00522
S3152020EDE000F40000014311437047016941F00201FC
S3152020EDF001610269002142F440720261016170477B
S3152020EE00FFFF0001020104010601000010B5436A3C
S3152020EE10083101248C4002FA01F1A34319434162AF
S3152020EE2010BD2DE9F04705468A46686A94461C4659
S3152020EE30C00702D52969CA0701D5002028E04FF04E
S3152020EE40FF300722FF234FF0000E00210FF28848C3
S3152020EE50002618F80190B71C07FB09F9BCFBF9F925
S3152020EE60CA4507D3AAEB0907874203D238460A4662
S3152020EE703346CE46761CFF2E0CD80028E9D1286CA6
S3152020EE8003F0FF03000A43EA002370462B64226026
S3152020EE90BDE8F087491C0729F1D80028D8D1EEE70C
S3152020EEA0012A04D012D3032A0CD004D37047026C33
S3152020EEB061F3174209E0036C23F07F4343EA0163A1
S3152020EEC003647047026C61F30F22026470472DE9B8
S3152020EED0FD4783B00E4603990FF2FC3001254FF0F3
S3152020EEE0FF384FF0FF0A0A6EC2F3C2619DF8102048
S3152020EEF0445C0021032AB3FBF4F0CDE900010AD1BA
S3152020EF00DFF8B0438946B4FBF0F4DFF8AC0300F019
S3152020EF103BF8022508E0DFF888438946B4FBF0F465
S3152020EF20DFF8980300F030F8C94501D8B44207D35A
S3152020EF309DF8102003980021FFF7B2FF204620E0FD
S3152020EF4044460027029680467819DFF85413A1FB01
S3152020EF50000100F01AF8494501D8B04205D3821B9A
S3152020EF60A24202D21446BA4680467F1CFF2F01D8E1
S3152020EF70002CE9D19DF8102003985146FFF790FFE9
S3152020EF80404606B0BDE8F0873B21DDE9002300F0AE
S3152020EF9041BF8168E1B10368002B04BF4168002985
S3152020EFA016D0052A07D28068B0FBF2F102FB1102A7
S3152020EFB072B90120704712F0030F806802D0904268
S3152020EFC0F7D005E0B0FBF2F102FB1102002AF0D0C7
S3152020EFD0002070472DE9F84F84B005462C6E0F4649
S3152020EFE0C4F30B04641CE11DC9080191FFF76CFED4
S3152020EFF0DFF8C021214612F80080019A3846FFF713
S3152020F000C8FF00285CD06869C10148BF4FF4C8708A
S3152020F01057D43C6879680091BE68BA6848EA0820C7
S3152020F0200292696840EA084001224FF0000940EA2E
S3152020F030086B0120090A88400390F8680709010D0A
S3152020F040800D01F0010800F0010A01212846FFF772
S3152020F0502CFEDFF86C126961009808B94FF001097F
S3152020F06000212846FFF70EFE686A20F00800686215
S3152020F070686A00F092F818BFB0F1007F04D1E4B995
S3152020F080686A40F08060686201212846FFF7FAFD11
S3152020F090286E3F0607F0407720F04E7040EA485011
S3152020F0A040EAC94007432F66019804280AD801A9B7
S3152020F0B091F80090CDF804900BE000980028E3D03A
S3152020F0C0042048E004229146019202E00097CDF8E0
S3152020F0D008808EB301998E423CBFF0B201900398EE
S3152020F0E0E96D01F01F018142FAD003903CB10199CC
S3152020F0F05246204600F062F8834601980444C5F81B
S3152020F10064B001990098761A0028E2D00746DDF8E7
S3152020F1100880E86DC0F304400028D7D0C845696F21
S3152020F1205346384638BF5FFA88F94A464F4400F09E
S3152020F1307DF8A8EB0908ECE7E86D039900F034F890
S3152020F140FAD02A6E22F480122A66009848B9696974
S3152020F1504805FCD5002005B0BDE8F08F0094C146B7
S3152020F160029602980028F5D0009C0646C846E86DEF
S3152020F170C0F304400028F1D04645696F5346204607
S3152020F18038BF5FFA86F84246444400F04FF8A6EB93
S3152020F1900806ECE720468FE5606A00F04070B0F163
S3152020F1A0807F7047E06DE97800F01F008842704725
S3152020F1B068C00F40407B2120F7FFFFF830B50024A0
S3152020F1C0491E032903462ED8DFE801F002050E1A30
S3152020F1D013F8014B27E05C781978002A14BF44EAFB
S3152020F1E0012441EA04241EE05C789D7819782402C3
S3152020F1F01AB90C4344EA054415E044EA014411E0D7
S3152020F200DD78997858781C7832B944EA002444EA83
S3152020F210014444EA056406E02246040444EA0264E2
S3152020F22044EA01242C43204630BD000030B50C0C86
S3152020F2300D0A521E032A21D8DFE802F002050C15FA
S3152020F24000F8011B30BD13B90170457030BD057023
S3152020F250417030BD1BB901704570847030BD04707B
S3152020F2604570817030BD0A0E23B9017045708470B7
S3152020F270C27030BD027044708570C17030BD436A43
S3152020F280104ADB0744BF526910479369184700008C
S3152020F2900C4841680C48F2E70A4881680B48EEE79B
S3152020F2A000CA9A3B0748C1680948E8E7054801692A
S3152020F2B00848E4E70094357700CA64D60000CA9A45
S3152020F2C0033F0001247B2120004039400080394023
S3152020F2D000C0394000003A40010204081020408036
S3152020F2E04FF0FF31002201604260704730B54368FD
S3152020F2F00468134DD318436007E011F8013B83EAD5
S3152020F300146355F8233083EA042413465A1E002B0F
S3152020F310F3D1046030BD70B54268036812F0030F44
S3152020F3200BD002F00302C2F10402054C1D0E521E20
S3152020F33054F8256086EA0323F8D103600B6070BD5C
S3152020F340148920200022FFF7ABBA000000F01F020C
S3152020F350C64B000A914003EB800030B5032595402B
S3152020F3600468AC432143016030BD01460020C04AD9
S3152020F370914218BF01207047002810B53AD00021AD
S3152020F38040F6C41201703F234170012481704FF44E
S3152020F3904861C2802222818040F25C4103814FF461
S3152020F3A0AD63C27240F29512C360E3230161DC2172
S3152020F3B04261622283617D23C161252102624B2223
S3152020F3C043620B2381622F21C26246F620120363F9
S3152020F3D045F67D734163C1634FF4C84142644FF4BF
S3152020F3E0C862C4708472846304648364C1640265C1
S3152020F3F0002010BD042010BD0023002AF0B51ED009
S3152020F40056681468A6421AD2A51B491E082940F21E
S3152020F410FF774FF6FF7E2AD8DFE801F00512243643
S3152020F420485A67748600754598BF74451FD8016A67
S3152020F430C4EA01020262046AC4EA0541016289E043
S3152020F44047F6FF718D4298BF8C4210D8416AC4F38B
S3152020F4500E04C90B44EAC1344462416A65F31E4155
S3152020F460416277E043F6FF718D4298BF8C4270D877
S3152020F470816AC4F30D04890B44EA81348462816A4B
S3152020F48065F31D41816265E041F6FF718D4298BF8B
S3152020F4908C425ED8C16AC4F30C04490B44EA413439
S3152020F4A0C462C16A65F31C41C16253E040F6FF7114
S3152020F4B08D4298BF8C424CD8016BC4F30B04090BA8
S3152020F4C044EA01340463016B65F31B41016341E087
S3152020F4D0BD4298BFBC423CD8426B00F03DF8446305
S3152020F4E0416B65F31A41416334E0BD4298BFBC426B
S3152020F4F02FD8826B00F030F88463816B65F31A4134
S3152020F500816327E075459CBF6FF07F42944220D8C7
S3152020F510C16824F07F4401F07F410C43C460826897
S3152020F520C5EA0201816015E052498E4298BF8C427D
S3152020F5300FD8C169C4F31504890D44EA8154C461E6
S3152020F54084695168A40DC1F3150141EA845484616C
S3152020F55000E004231846F0BDC4F30A04D20A44EA84
S3152020F560C224704738B504460D46A87A01007BD0C0
S3152020F570102879D26168000400F4702005F10C026D
S3152020F58021F4702108436060012100F079F80028D9
S3152020F59069D105F11402022100F072F8002862D107
S3152020F5A005F11C02032100F06BF800285BD105F140
S3152020F5B02402042100F064F8002854D105F12C02FD
S3152020F5C0052100F05DF800284DD105F134020621F1
S3152020F5D000F056F8002846D105F13C02072100F01C
S3152020F5E04FF800283FD105F14402082100F048F8C1
S3152020F5F0002838D105F14C02092100F041F890BBB2
S3152020F60021686A78D20102F0800221F484511143C4
S3152020F61021602368AA781849920002F00C020B4038
S3152020F620134323602368EA7814490B4002F003022F
S3152020F630134323602369A988C3EA014222612369EF
S3152020F640E9881B0C41EA0343236162692989920ACE
S3152020F650C1F3090141EA822262616268E97A120ACB
S3152020F66041EA0222626032BD042032BD68C00F40CA
S3152020F67000C00C40FFFF3F00F3EFFFFFFCEFFFFF32
S3152020F6802046B9E6024601F00F010F2902F140007B
S3152020F69050F8210008BF116C7047000038B50400CF
S3152020F6A00D4618BF002D2DD0FFF75FFE38A203216F
S3152020F6B032F91000FFF74AFE206820F4883040F403
S3152020F6C0803020602168204621F4825141F040017B
S3152020F6D021602946FFF746FFA8B9206820F4883004
S3152020F6E02060216821F4815141F0200121602A786F
S3152020F6F0012A05D1D4F8A00040F00200C4F8A000C9
S3152020F700002032BD042032BD2DE9FC4105460026CD
S3152020F7100027002D1446884618BF002932D08CB3E6
S3152020F7202868C0F3802020B92868C0F3003000283C
S3152020F730F6D02868C0F3003060B9394628467F1CA9
S3152020F740FFF7A0FF04210090042C684698BF21468D
S3152020F75000220AE02868012640F48050286008E02C
S3152020F76010F8013B521C08F8013B8A42F8D3641A50
S3152020F770D6D107F00F070F2F05D00F212846FFF7E8
S3152020F78081FF00E004263046BDE8F6810000000017
S3152020F7900C060000DFF850060168002944BF4FF010
S3152020F7A040438360082141604162704710B508B903
S3152020F7B0012010BDDFF834160A6812F4406F03D1F9
S3152020F7C00B6843F440630B6000F001FBFFF7E2FF78
S3152020F7D0002010BD7FB5040018BF002901D0802A43
S3152020F7E001D001254DE0DFF8086600258B1B022B72
S3152020F7F02160DFF800061CD941F234269B1B3AD023
S3152020F80042F2DE169B1B36D045F299569B1B2CD0F6
S3152020F81042F2DE169B1B28D042F266269B1B1FD067
S3152020F82042F2ED169B1B1BD04FF470669B1B28D0F3
S3152020F83003E001F00301216023E010226846FBF754
S3152020F8406DFDDFF8B40530230360DFF8B065266050
S3152020F85000215DF82130491C03290361F9D910E0E4
S3152020F86000F012F822F0100203E000F00DF842F02A
S3152020F8701002026003E0C16941F01001C16100F06D
S3152020F880ADFA284604B070BDC16921F01001C161CE
S3152020F8900268704738B5006815460C46DFF85025B3
S3152020F8A0811A022922D9C91E1CD041F23122891A55
S3152020F8B023D042F2DE12891A22D045F29952891A91
S3152020F8C01BD042F2DE12891A1AD042F26622891AF7
S3152020F8D013D042F2ED12891A12D04FF47062891A8F
S3152020F8E018D01FE0A06840F4407004E0A168000210
S3152020F8F000F440700843A06014E06068A16803E02B
S3152020F9006068A16840F4402040F48060606041F443
S3152020F9107F4106E06068A16840F48060606041F421
S3152020F9207E41A1602BB1102219462846FBF7F6FC12
S3152020F93000E000250023A561E36131BDF0B5034633
S3152020F9404FF070420021BFF34F8FDFF8B464DFF809
S3152020F950B444306843F6E075C7031AD53167BFF340
S3152020F9604F8FF76EC7F34E3CC7F3C90E05EA4C10EE
S3152020F97040EA8E70E0605FEA0E00AEF1010EF5D10E
S3152020F9805FEA0C00ACF1010CEED1BFF34F8FBFF331
S3152020F9906F8FBFF36F8FDFF8707401203B60DFF825
S3152020F9A06C3438611868000703D41046421E00289C
S3152020F9B0F8D1386A000602D0FF21B9620421082036
S3152020F9C0986012B9042918BF0321BFF34F8F3068DE
S3152020F9D0C20319D500233367BFF34F8FF26EC2F3CC
S3152020F9E04E33C2F3C90605EA431040EA86702060EA
S3152020F9F03046461E0028F6D11846431E0028F0D150
S3152020FA00BFF34F8FBFF36F8FBFF36F8F0846F0BDC5
S3152020FA10F8B590B00C4658B1012C09DC002A18BF45
S3152020FA20002B05D0169919B1179F17F00F0F01D06B
S3152020FA30012015E02402002504F4807440F22326B8
S3152020FA400095344301941024029403931346049181
S3152020FA5008AA05976946FFF71DFF6846FFF76EFF40
S3152020FA6011B0F0BDF8B590B048B1012907DC002AC5
S3152020FA7018BF002B03D0169E16F00F0F01D00120A1
S3152020FA8014E0090201F4807140F2232503922943D0
S3152020FA900027019108AA049300230097694602971C
S3152020FAA00596FFF7F7FE6846FFF748FF12B0E0BD40
S3152020FAB02DE9F04305000E4685B09146984618BF9D
S3152020FAC0002E05D0B9F1000F18BFB8F1000F01D1D3
S3152020FAD0012020E00C9C0DE019F8011B135C401C32
S3152020FAE0594008F8011BB842F6D310213046E41BB2
S3152020FAF000F054F874B11027102C01AB324698BF71
S3152020FB0027461020012100902846FFF7ABFF002032
S3152020FB1001AAE8E7002005B0BDE8F083F8B5054640
S3152020FB200E4614460027FFF70DFC04E0721ED21B5A
S3152020FB30AC54240A7F1C002CF8D1F1BDF8B504461C
S3152020FB4006981546C5F10F06079F002814BF4022A8
S3152020FB5000229B1E5B0842EAC302701E0243601CE1
S3152020FB6022702A46FBF7DAFB631C3A46F1B2581973
S3152020FB70BDE8F840D2E770B50D460446164610215A
S3152020FB80FFF7E0FB2278C6F10E0029460243601CCF
S3152020FB9022703246BDE87040FBF7C0BB491E05D017
S3152020FBA0425C521C4254D2B2002AF7D070472DE92B
S3152020FBB0F04F894604460121002C8FB00CD0180026
S3152020FBC006931CBF1B9E002E06D0DDF87080B8F150
S3152020FBD0000F1CBF1D98002800F0D2801E9B1B1FE3
S3152020FBE00D2B06D21E98C30700F1CA80189DED1F43
S3152020FBF0072D80F0C58006999246189A1A9D0346AD
S3152020FC00CDF804A0009502A8FFF798FF102207AB95
S3152020FC10009202AA01212046FFF724FF002D58D06A
S3152020FC20002102A800220023B5F57F4F8C4680E8CC
S3152020FC300E10DDF864B00CD22A460221FFF76EFFA3
S3152020FC400E270E2D59460DF10A0098BF2F463A460B
S3152020FC5010E0FF21FE228DF8081004218DF80920BE
S3152020FC602A460DF10A000A27FFF758FF0A2259468D
S3152020FC700DF10E00FBF752FBBB44102007A9EF1B0A
S3152020FC80019007AB009102AA0121204625463C4639
S3152020FC901AE01027102C594602A898BF27463A4624
S3152020FCA0FBF73CFB102F05D202A8C7F11001C01983
S3152020FCB0FFF748FB102107AA019107AB009202AA61
S3152020FCC001212846BB44E41BFFF7A2FE002CE0D1ED
S3152020FCD02C46189A06990BA8C3462546D2B2FFF77A
S3152020FCE04AFF10210BA8FFF759FF30464E465FEA00
S3152020FCF00A0480462FE01027102C02A898BF2746FA
S3152020FD00012E00EB0709C7F1100A0BD13A464146CE
S3152020FD10FBF704FB102F03D251464846FFF712FB70
S3152020FD2000F032F800975B4642460BA92846FFF79B
S3152020FD30BFFE30000CD13A46594602A8FBF7EEFA10
S3152020FD40102F03D251464846FFF7FCFA00F01CF844
S3152020FD50B844BB44E41BCED1189A06990BA8D2B23C
S3152020FD60FFF709FF102002AB009007AA0BA928460F
S3152020FD70FFF79EFE1E9A1D9802A9FBF7CFFA0021B7
S3152020FD8008460FB0BDE8F08F102007A9019007ABD9
S3152020FD90009102AA012128463AE6F0B587B00093C1
S3152020FDA013460C9C0D9D0E9E0F9FDDF840C00A46E3
S3152020FDB0DDF844E0CDF814C0CDF818E001210497F1
S3152020FDC0039602950194FFF7F2FE07B0F0BD0021BD
S3152020FDD000220023002480E81E0070474FF00040B8
S3152020FDE00B490860D6E4000000C02F4068C00F40B1
S3152020FDF00000DCFE0CC00A4060C02F400300DCFE61
S3152020FE0014ED00E060EF00E0C0C12F4010C02F406D
S3152020FE1004C02F40D3BBD9B1B2F5803F5BD2022A92
S3152020FE201ED98C46B1FBF2F102FB11C31B0443EA17
S3152020FE301043B3FBF2FC02FB1C3380B240EA03439F
S3152020FE40B3FBF2F002FB103240EA0C40002370474D
S3152020FE50022A05D98446B0FBF2F002FB10C2704775
S3152020FE604AB105D100F0010249085FEA3000704707
S3152020FE7000220023704700F065B80B000200002105
S3152020FE8000207047F7D3002200237047904271EB61
S3152020FE90030CF2D370B5B1FA81F4B3FA83F52C1B97
S3152020FEA0A340C4F1200532FA05F63343A2405FF081
S3152020FEB00046E64002E05B085FEA3202841A71EBD4
S3152020FEC0030524BF204629467641F4D302000B00A1
S3152020FED03000002170BD70B5B1FA81F4B2FA82F5F6
S3152020FEE0C4F120046419B4F12006DAD3B2405FF0BD
S3152020FEF00044F440002502E052085FEA3303C61A84
S3152020FF0071EB020E24BF3046714664416D41F3D316
S3152020FF1002000B002000290070BD00207047000041
S3152020FF20D2B2203A22BF00FA02F100207047524274
S3152020FF30D041D2F1200291404140D04090404140D2
S3152020FF407047000070470000BFF34F8F05490648D1
S3152020FF500A6802F4E06202430A60BFF34F8F00BFB3
S3152020FF60FDE700BF0CED00E00400FA0501294FF45F
S3152020FF70801002D1044908607047044A1060BFF3FC
S3152020FF804F8FBFF36F8F704700E100E080E100E0E4
S3152020FF9000F01F02DFF8D433000A914003EB8000E3
S3152020FFA030B5032595400468AC432143016030BD1C
S3152020FFB001460020DFF8B82352F820308B4202D0A9
S3152020FFC0401C0828F8D37047088C4A8C904205D2CA
S3152020FFD0088CCB691B18488C181A70470A8C488CB9
S3152020FFE0101A704710B50C46FFF7EEFFE169491E3F
S3152020FFF0884201D1012010BD002010BD2DE9F041FD
S3152021000004460D4628680026B0460423014603FBF4
S3152021001000FCB2FBFCFC1FFA8CF70FB94FF0010C48
S315202100201FFA8CF707FB03FE7F1C5F43B2FBFEFE04
S31520210030AEEB000EB2FBF7F7C71B77453CBFBE469A
S315202100400CF1010C714502D371461E46E0465B1C1C
S31520210050212BDCD36422B0FBF2F000EB4000884256
S3152021006038BF40F2215050D32046FFF7A1FF0FF28F
S315202100701C32032132F91000FFF78AFFA069321FB3
S31520210080042A20F44020A0612169DFF8E80238BF44
S3152021009041F40031761E3606014006F0F8560E430D
S315202100A0C8F30C0006432661206920F00050206108
S315202100B0A16921F01001A161A06980088000A061B9
S315202100C0A16928790143A16122696879400300F455
S315202100D0005022F4005202432261A879E97940EAAC
S315202100E00140E062A16A41F08801A162A06A40F440
S315202100F04040A062A169287A08B141F40021687A9A
S3152021010008B141F48021A1610020BDE8F08180B5AC
S31520210110C16A11F4E06FFBD142695102FCD500235B
S315202101208361FFF745FF0FF26422002132F9100087
S31520210130BDE804402CE74FF4E13100220160027131
S3152021014042718271C27102724272704730B500F0DB
S3152021015018F814430461856A2B438362826942EA33
S315202101600121816130BD30B500F00BF89443046143
S31520210170856A25EA03038362826922EA0121816154
S3152021018030BD04690B0203F4404203F44073090A8B
S31520210190704701464869896A090C01F0C301084361
S315202101A0704730B505E043691C02FCD511F8015B87
S315202101B0C56113465A1E002BF5D130BD2DE9FC41D0
S315202101C004460E46606901030FD5E2698DF80020A9
S315202101D09DF80010491C8DF80010756A2DB1B36A5F
S315202101E040F21D5231462046A847656906F12C0862
S315202101F0A80237D5A1698A0234D5E76A3F0E07F0CE
S31520210200070718E0E3694354491C9142FAD3F06861
S31520210210BF1A1044F0603169891A3161306950B9A9
S31520210220022188F80110756A2DB1B36A40F217525E
S3152021023031462046A847F8B250B1306940B13169DC
S31520210240FAB291423CBF3269D2B2F0680021DCE792
S31520210250B069002871D1316921B94FF00261204658
S31520210260FFF781FF6069010265D5A269100262D577
S31520210270E76A3F0A07F00707C7F104074EE03084F3
S315202102803846471EC0B2002859D031462846FFF7A6
S31520210290A9FE00281CBF746A002C05D0B36A40F23F
S315202102A01C5231462846A04731462846FFF79AFE5A
S315202102B050B1708CF169401C884202D1002272848F
S315202102C002E0708C401C7084308CE969B26911542B
S315202102D0308CF169401C88421ABF308C401C00208A
S315202102E0CDE78B5C521CE3618242FAD331683F1AF7
S315202102F0014431607268121A7260706870B90021E7
S3152021030088F80010A26922F40002A261756A2DB133
S31520210310B36A40F2165231462046A847F8B250B168
S31520210320706840B17168F8B281423CBF7068C0B232
S3152021033031680022D8E7BDE8F3812546A0E72C467F
S3152021034090E7FFE70C4881680C4837E7FFE70A4822
S31520210350C1680B4832E7FFE70748016909482DE7BD
S31520210360FFE705484169084828E7000068C00F4093
S31520210370048E202000E0FFE0487B212000801840C9
S3152021038000C018400000194000401940FFFF180501
S315202103901C000C001801020306031A050E06000094
S315202103A0054A06485168D2681047034A044891688D
S315202103B0D2681047000000007C7B212000002C40C1
S315202103C000402C40491EF8B501250829434F1646E1
S315202103D03C6852D8DFE801F005152547472C4751BF
S315202103E04500706810F1010F18BF00280FD0A069B1
S315202103F0002814DD94F82214012910D104F11800C3
S315202104000BE0706810F1010F18BF002801D10020E0
S31520210410F2BDE06104F114002573FBF79AF800255B
S315202104202BE040F2FD3104F12000F9F705FD24E00F
S31520210430B178002904BFF078002804D13178012928
S3152021044008BF657319D07268314604F12000FAF786
S3152021045065FF70682573E06104F11400FBF779F8D4
S315202104600BE0052509E0002104F11400FBF762F8D1
S31520210470386800211830FBF75DF82846F2BD0020A8
S31520210480012900D0704738B5144C0125206840F247
S31520210490FD3380F82254022100F12002806800F0E9
S315202104A0CDF9216881F8235432BD002059B90B4852
S315202104B040F2FD330068022180F8242400F1200235
S315202104C0806800F0BBB97047044908600020704756
S315202104D00249086009680020886070478C7B2120AA
S315202104E010B5134601200BB9032010BD00225A74E2
S315202104F05A68002A1CBF1468002C03D00A46012101
S315202105001846A04710BD10B5134601200BB903206C
S3152021051010BD00229A745A68002A1CBF1468002C28
S3152021052003D00A4602211846A04710BD2DE9F043E3
S3152021053085B0027B00247AB3416889684D7995423A
S315202105402AD3096841B301EBC20100270C23A1F16B
S315202105500806726800E07F1C31788F421CDA03FB83
S3152021056007F5511991F800E0BEF1030FF3D10026CA
S3152021057000E0761C02F108077B5D9E4209DA131DF5
S3152021058090F80E905F59330117F80380C845F0D1B2
S31520210590FC18C97841730CB901202AE084600546EC
S315202105A04FF00008934E944F01202179884520DA77
S315202105B000208DF80400A16811F828108DF802106A
S315202105C0A268C909931C02EB880233F82800012965
S315202105D0694608F10108ADF80000537802AA8DF882
S315202105E0033014BF029602970395286800F084FAF7
S315202105F0DBE705B0BDE8F08338B504460120A168C4
S3152021060071B1002506E0886810F8251020686D1C38
S3152021061000F092FAA1680A799542F4DB0021A160C3
S3152021062032BD00007FB5054614460120002C14BF9B
S31520210630002D03200CD0491E052909D8DFE801F019
S315202106405B0309192F45002129736974A974A960AF
S31520210650AEE0696800291EBF297B22788A42F7D01D
S3152021066011B12846FFF7C8FF20780022AA732873E4
S3152021067011E069680029EBD021886A7B0C460904A0
S31520210680B2EB116F0AD1AB7BE1B2994206D0284653
S31520210690FFF7B2FFAC732846FFF748FF88E06A6868
S315202106A0002A1CBFA9680029F8D00026AA6811793A
S315202106B08E427DDA9268217812F82630994204BF3B
S315202106C0286800F054FA761CF0E76A68002A1CBFD5
S315202106D0A96800296CD00026AA6811798E4267DA8A
S315202106E09268217812F82630994204BF286800F0B2
S315202106F048FA761CF0E721680A7802F01F02012ABF
S3152021070002BF0B796A7B934252D14B782846012B23
S315202107100AD0022B0DD0032B14D0092B1CD00A2B47
S3152021072035D00B2B3AD042E04A88032100F042F8FB
S315202107301AE06B6805F10F0204211E68B04705F106
S315202107400F0107E06B6805F1100204211E68B047EE
S3152021075005F1100161602BE04A8800F02BF8217BFE
S3152021076059B1A268092101926A466B681D68A8477A
S3152021077000996160019AA2601AE0636806210093BC
S31520210780A26801926B686A461C68A04710E04988D6
S3152021079005F10F02090AE973072104E0498805F1C9
S315202107A01002297408216B681C68A04700E00520E7
S315202107B004B070BD120A8DF8082023685A888DF856
S315202107C00920704770B50E460C4C2168154609B193
S315202107D0022070BD214600F093FA010009D120683C
S315202107E008B9032070BD0020FF2166602073A17304
S315202107F02C6070BD07052120E1042120C08C2120F9
S3152021080010B5040001D1032010BDFFF7F5FE00210C
S31520210810216061602173A17310BD10B5040001D13F
S31520210820032010BD607C08B1022010BD206800F095
S315202108305BF9010004BF0121617410BD10B50400CC
S3152021084001D1032010BDA07C08B1022010BD206853
S3152021085000F04FF9010004BF0121A17410BD000051
S315202108601CB5044600F040F80021216084F8CD1003
S3152021087000F023F9002016BD2DE9FC4104000D4688
S315202108801646984605F00F0108BF03202AD0606836
S3152021089030B34B000C2143EAD5124A43A718387DA1
S315202108A008B102201EE000F01FF8012000F004F913
S315202108B02906D4F804C0206843463246294603D562
S315202108C0DCF80840A04702E0DCF80C50A847044693
S315202108D0200006D000F008F8002000F0EDF800E016
S315202108E006242046BDE8F681684600F045BB08B9B6
S315202108F003207047436813B100685B6918470620B7
S315202109007047FEB504460E7A01200C25F309102ED8
S3152021091006F00F021ED104F1CC060022F0700E2122
S3152021092020460027FFF7E3FF02230022B370002091
S315202109303270002305FB00F1401C10282144CF6092
S315202109400B610A75F6D3A36801212046984700201A
S31520210950F070FEBD082A19D243EA42036B43234491
S31520210960DA689AB10D6800954A6801924D7A8DF818
S315202109700850487A00281DBF0021217584F82010AF
S3152021098018751A69DB68694620469847FEBD0029F5
S3152021099018BF002801D1032070478268002A18BF7A
S315202109A0FFF7AFBF01207047F8B5140005460E4664
S315202109B001D10320F2BDFFF797FF384A0021D0232A
S315202109C002F1CD0C03FB01F7D05918B11CF80770A1
S315202109D0BD425ED0491C0129F4D91168002700297E
S315202109E01EBF0127D2F8D000002803D000F065F8D9
S315202109F00220F2BD13FB07F3D71887F8CD5000F05C
S31520210A005CF8BE6007F1CC0600207570307000239B
S31520210A10F07084460C224243401CB9181028CB6022
S31520210A20C1F810C00B75F5D3A81E012818D81C496A
S31520210A3088A0002978601CBF1A4A002A0BD01A48A0
S31520210A4000281CBF1949002905D0194800281CBF98
S31520210A501849002909D13846FFF702FF0720F2BDA0
S31520210A603846FFF7FDFE0620F2BD27607B68284623
S31520210A703A4639461D68A847050006D0384600F073
S31520210A8022F8002020602846F2BD02210020B170E4
S31520210A90F2BD00F012F80120F2BD0000208B2120AA
S31520210AA061252120012621202F262120392621209A
S31520210AB03F262120512721203875009800F062BA3F
S31520210AC00022002113E710B5040001D1032010BD17
S31520210AD0616821B1206849688847002060602046E6
S31520210AE0FFF7BEFE002010BD01F00F0141F080016D
S31520210AF0C2E601F00F01BFE670B508B9032070BD2B
S31520210B00002918BF002A15D08C7804F00F03082B52
S31520210B1010D25D000C2345EAD41400255C43031929
S31520210B201468DC6056681E610A461D750221BDE8DF
S31520210B307040DCE6042070BD73B504000E4606F035
S31520210B400F0501D1032076BD01AA0321FFF7CFFE90
S31520210B50082D0AD26A000C2142EAD61600234E43DA
S31520210B60A119CB600B610B7576BD042076BD02B52C
S31520210B7001F00F01082902D26A4604210BE0042044
S31520210B8002BD02B501F00F01082902D26A460521CC
S31520210B9001E0042002BDFFF7AAFE02BD00000000ED
S31520210BA010B501230AB9042010BD891E062900F19A
S31520210BB0CC0419D8DFE801F004061012080C140021
S31520210BC00F210EE010210CE0A078002310700BE0FD
S31520210BD021780023117007E0062102E0072100E099
S31520210BE00921FFF784FE0346184610BD0B46012135
S31520210BF0032B10B500F1CC040CD0062B0CD0072BDF
S31520210C000FD00A2B1ED00B2B1ED00C2B16D00E2B21
S31520210C1016D01DE0112118E0D2B110780021A07044
S31520210C2016E0A378032B06D092B110780322002157
S31520210C30A27020700CE02246082106E00A2104E059
S31520210C400B2102E00C2100E00D21FFF750FE014689
S31520210C50084610BD61252120012621202F2621206D
S31520210C60392621203F2621205127212038B5044607
S31520210C706846002500F080F9934901EB05110868A3
S31520210C8010B18B7B9C4207D06D1C012DF4DD009881
S31520210C9000F078F9042032BD00200860486088736E
S31520210CA0009800F06FF9002032BD7CB500F00DF8D8
S31520210CB085493201885818B18818837B9D4203D0F3
S31520210CC0761C012EF5DD16E029E005460C46684600
S31520210CD0002600F051B97CB504460D46FFF7F7FFF3
S31520210CE0794801688C4202D13044286018E0016994
S31520210CF010268C42F8D0009800F044F9042076BDC5
S31520210D007CB5FFF7E2FF70493201885818B18B185C
S31520210D109B7B9D4203D0761C012EF5DDEBE72060DF
S31520210D20009800F02FF9002076BD00002DE9FC4720
S31520210D308846144601261CB16946FFF7CCFF08B127
S31520210D4004202EE0002703E000B900267F1CFFB2F5
S31520210D50009841680A7A974222DA0C20002210FB59
S31520210D6007F00B687CA54FEA026E05EB1E5C03EBB0
S31520210D700009D9F808A09CF80C509AF804E075458A
S31520210D8004D0521CD3B2022BEBD3DFE71D1DDCF896
S31520210D90083028582246414698470528D4D100E0D4
S31520210DA03046BDE8F6877CB50D460446164669468B
S31520210DB0FFF791FF010011D1012D08D1009920467D
S31520210DC000F082FB009A02212046FFF7AFFF009B0D
S31520210DD02046294632465C686568A84776BD2DE9B6
S31520210DE0F84F924601250F46BAF1000F814618BFCA
S31520210DF0002F01D0786808B904205DE0684600F00C
S31520210E00BBF8314A002102F10E040B01D05810B152
S31520210E10E35C994552D0491C0129F6DD116800234E
S31520210E2000291EBF01231069002802D0009802251F
S31520210E3045E002EBC30102EB031501F1200285F8FF
S31520210E400E90AA60009800F09DF86F602A461F49EF
S31520210E504846FFF7A9FD070007D02868FFF733FE8C
S31520210E604846FFF703FF384626E000270FF2E80819
S31520210E701AE00C24002614FB07F46868330108EBDA
S31520210E80030E9EF80CB0006801198A6812795A451A
S31520210E9005D1001D021958F8033048469847761C7B
S31520210EA0022EEAD37F1CFFB26868017A8F42E0DBEB
S31520210EB02A680020CAF80020BDE8F28F009800F0A9
S31520210EC061F82846F8E70000F08A2120A70D212085
S31520210ED02DE9FC4180466946FFF7E7FE05002AD128
S31520210EE05FF000061CA519E0002700980C2212FBB2
S31520210EF006F24168086839016C1883189B6893F8B3
S31520210F0004E0237B9E4504D1001D80582A1D51587B
S31520210F1088477F1C012FE8D9761CF6B200984168B4
S31520210F200A7A9642E0DB0068FFF7CDFD050004BF73
S31520210F304046FFF79BFE2846BDE8F6811CB50C46A8
S31520210F406946FFF7B2FE010005D10098224602210B
S31520210F500068FFF725FE16BDC5072120010821209F
S31520210F6025062120010000000000000000000000CD
S31520210F700000000000000000EFF3108172B601602E
S31520210F8072B6704780F31088704700002DE9FC4126
S31520210F9004460D46206890461E466A4606210527A8
S31520210FA0FFF7FEFD9DF80020012A01D010002ED149
S31520210FB0287810F01F0F08D1206804F10C02042193
S31520210FC0FFF7EEFD0746207B18E000F01F02012ADD
S31520210FD002D10027A78114E000F01F00022812D198
S31520210FE0A9880022ADF8062001AA8DF804102068D0
S31520210FF00521FFF7D5FD07469DF8060000F00300E1
S31520211000A0810221316004F10C02C8F80020384663
S31520211010BDE8F6817CB5002305468DF80030286889
S315202110200C460DF1010206210526FFF7B9FD9DF893
S315202110300120012A03D0100001D0052076BD607839
S31520211040032804BF01218DF80010207810F01F0FEE
S3152021105008D16088012827D128686A461421FFF7FC
S31520211060A2FE20E000F01F00022804BF608800288D
S315202110701AD1A18811F00F0F0AD19DF800202868D6
S31520211080C9B2002A02D0FFF772FD01E0FFF779FDF0
S315202110909DF800102868002919BF221D0521221D2F
S315202110A00621FFF743FE0646304676BD38B500F0C9
S315202110B0B3F89DF80020032A0CD0012A18BF022A52
S315202110C002D00AB1052032BD68886A4607218DF8EB
S315202110D000000BE0206800220721FFF787FD010091
S315202110E007D101206A468DF8000006212068FFF7E6
S315202110F07DFD32BD2DE9FF470446914620680D46E8
S315202111009A466A4606216F88FFF74AFD9DF80020F8
S315202111104FF005083E0A012A03D0100018BF022AE3
S3152021112038D1E888012E029002D101AA0B2127E08D
S31520211130022E04D18DF80C7001AA0C2120E0032E59
S3152021114007D18DF80E70A98801AAADF80C100D21B2
S3152021115016E0212E03D1A88801AA0E2104E0222EF1
S3152021116005D1A88801AA0F218DF80C0008E0232E8D
S315202111700AD18DF80C70A98801AA8DF80D1010219D
S315202111802068FFF710FE80460198C9F800000299D1
S31520211190CAF80010404604B0BDE8F0877CB5044665
S315202111A0154620681E4600F05AF89DF80020012A8F
S315202111B003D0100001D0052076BD012104F10C00B9
S315202111C0316004F10C02286020681521FFF7EBFD20
S315202111D076BD38B500F020F89DF80020012A03D0ED
S315202111E0100001D0052032BD002100F00EF86888BC
S315202111F010B9012100F009F82068AA1C0321FFF764
S3152021120095FD2068AA1C092144E06A468DF8001024
S3152021121020680621FFF7EABC04460D4620686A4667
S315202112200621FFF7BDBCF8B504460D4620681646B3
S315202112301F4600F014F89DF8000008B10520F2BDE4
S31520211240012104F10C00396016213060AA8812028E
S31520211250A281206804F10C02FFF7A5FDF2BD6A46A2
S315202112600621FFF79DBC38B5FFF7D6FF9DF8000074
S3152021127008B1052032BDA978A88804F10C0241EADB
S315202112800021A18120680421FFF750FD206804F167
S315202112900C020A21FFF787FD32BDF8B505460E4619
S315202112A0286817461C46FFF7DAFF9DF8001009B17A
S315202112B00520F2BDB08805F10C020821A8812868F5
S315202112C0FFF76EFC05F10C01022239602260F2BD86
S315202112D038B50D468021052A04460ED1287810F0EE
S315202112E0600F05D0020603D4E88808B103B900218E
S315202112F02046BDE83440FFF73ABC0599E8880A68BC
S31520211300904238BF086004980B6800210268204665
S31520211310FFF7EAFB01000BD129780A0608D52046DA
S3152021132001B0002300220021BDE83040FFF7E1BBB8
S3152021133032BD2DE9F8410D4689B0002105260391BC
S31520211340144604916968804611F1010F18BF002CBB
S315202113500ED0A76802AA0621FFF722FC2A7ADFF8F7
S31520211360C0C1002A57D06868082801D1296809B93F
S3152021137005208CE0488878808A88BA80C888F880B9
S315202113804A787A70097811F0600F39700AD15CF8A1
S315202113902250002D3AD004AB03AA39462046A8472D
S315202113A0064633E0F0B108061CD48A0608D5002368
S315202113B00124069301218DF8204000F071F803E0E5
S315202113C0480623D500F073F8064630000799069A79
S315202113D0049103921AD1FB88039A00214046FFF7F4
S315202113E088FB54E0880608D5002201230692012194
S315202113F08DF8203000F054F803E0480606D500F099
S3152021140056F80799069A06460491039204A803A939
S315202114100190002333E09DF80800032808D12046B7
S315202114207C7804AB03AA39465CF82450A8472CE0E3
S31520211430696800291CBFF888002827D0387801063A
S3152021144024D482060AD52B680024069301218DF8FF
S31520211450204000F01FF8FFF769FC0BE040060AD573
S315202114602A680023069213218DF8203000F012F8E5
S31520211470FFF799FC064604A803A9019001230091B0
S31520211480324639464046FFF723FF064630460AB004
S31520211490BDE8F081404605976A68079205AA7047FC
S315202114A040460597FA88079205AAFFF73FBC0022F6
S315202114B00123069213218DF8203040460597FA887C
S315202114C0079205AAFFF76FBC30B50123002585B009
S315202114D0144A8DF8043080238DF80350402502923A
S315202114E00446039102AA8DF802306946ADF80050D0
S315202114F0FFF702FB010010D1002269468DF8022058
S3152021150002AA2046FFF7F8FA050005D080212046B9
S31520211510FFF712FB284600E0002005B030BD000071
S31520211520088F2020331321207FB5054669466C6814
S315202115302046F7F733FD90BB394A01A852F824609B
S31520211540FEF7F9FD009801902046FAF7CBFA0246DC
S3152021155001A93046FEF752FDF0B9AA68022120469C
S31520211560304D904701212046FEF700FD4FF4001112
S315202115703046FEF7EBFDB06940F48020B061B169B9
S315202115805A2041F40021B161A9688847AA68A6207A
S3152021159090470120285503E02046F7F7E5FC002057
S315202115A004B070BD10B504461E4A91606068A268D9
S315202115B0012190476068F7F7D7FC002010BD70B550
S315202115C0044618496568485D48B1154A002152F8F4
S315202115D025602846FEF7CAFC3046FEF798FD2846A8
S315202115E0F7F7DAFC6068A2680021BDE87040104751
S315202115F010B544680A4B53F82400FEF7D2FD00208B
S3152021160010BD10B5084C2046FEF7C3FD810206D534
S31520211610E069044A9168BDE81040C0B2084710BD70
S31520211620048E2020907B21200040184010B58D4823
S31520211630FF22C36834211C6904F18C00FAF7CEFA03
S31520211640FAF78AFA002010BD70B5864A4B23D06856
S315202116500224502501690120CB7000238C7054244B
S3152021166048700B7088710220487101200B714B72D2
S315202116700B727D4BCC727D4C887208647C48CD716F
S315202116807C4D4B6401F18403CC677B4CC1F88000EF
S3152021169000201D6000255C609469C86006E01E7EDE
S315202116A0064202D0CE683043C8606D1C182068439C
S315202116B020580028F3D1714803688B640069C864D7
S315202116C0526813684B6254681068241A641C0C6390
S315202116D002F1100003688B6244680068241A641C96
S315202116E04C6302F120000268CA62436800681B1A13
S315202116F05B1C8B63002070BD2DE9F8438846144678
S3152021170058490426CA6801281D46DFF874911769AD
S3152021171007EB880214D0022819D0072827D00B28B6
S3152021172027D00C282DD00E2813D00F2818D01128D9
S315202117302AD012282ED018282FD019282FD037E09A
S3152021174005B12E6004B127600020BDE8F2830C3755
S31520211750F6E7B8F1030F34BF02F124072437EFE768
S31520211760B8F1030F34BF02F130073037E8E74437A9
S31520211770E6E7086A41694A699047C9F800004F4659
S31520211780DEE710267C37DBE7FAF7F6F90028F4D0D6
S315202117900120F2E708264837D2E70837D0E7C037B5
S315202117A03946404600F01DF80028CED11826C7E735
S315202117B042F63C00C9E7401E01280CD9801F0AD0D9
S315202117C0001F012884BFC01E022804D9001F02D071
S315202117D0801F012802D842F63D00704742F63C0080
S315202117E07047F8B588B002460D46264C002C1CBF02
S315202117F0606800281EBF266896420834F6D12BE061
S3152021180002A81821F8F718FB666869460020B04718
S315202118100098F8B9002103AE02910127002201A9DF
S31520211820019263683846984740B901980122306071
S315202118300299781E82401143029101E000203060F6
S31520211840361D7F1C062FE9D3182202A92846F9F72F
S3152021185065FD002009B0F0BD60680028D0D10420A4
S31520211860F8E7000010502120DFEF0500008420201A
S31520211870D22F212000502120D7A4212010441F40DF
S31520211880887C2120148D2020BA49D1F84828531C40
S315202118900A44C1F8483882F80004D1F8480800F0F3
S315202118A03F00C1F84808704700207047B6E02DE96F
S315202118B0FC410C001546984614BF002D04202AD041
S315202118C00020AC4F286007F50566707000F0A6F859
S315202118D058B120E03946684600F068F9BDF8041071
S315202118E0814211D0A22000F06DF84FF48061384654
S315202118F0F8F7A2FA42463946684600F004F900284C
S31520211900E8D00021296006E00120307000202760E0
S31520211910BDF802202A60BDE8F681F8B50C001546EF
S315202119201F4641D040F2014085423DD200F076F853
S3152021193000283DD18F4991F8510810B1002281F814
S31520211940512801F588665A203070A42007B1A52098
S31520211950707001F24647758025B12A4621463846C0
S31520211960F9F7DCFC3946304600F020F9B080A91D74
S31520211970304600F061F8D8B9684600F005F9B8B9C3
S315202119809DF80100A1280BD0A2280BD171883046C1
S31520211990891D00F051F858B99DF80100A228EBD0F5
S315202119A00020F2BDA32801D00420F2BD42F21270FC
S315202119B0F2BD7148012100228170027070474FF4D7
S315202119C0806070471CB55A228DF801000123694C8D
S315202119D08DF80020022184F85138684600F02CF831
S315202119E016BD000038B50446634A107800281CBF6E
S315202119F05178002901D0907868B923695FF00202D5
S31520211A0078A120465D68A847236920465FF0080211
S31520211A1072A15C68A04742F2137032BD56490878FC
S31520211A2018B10022A1200A7004E0887818B100227A
S31520211A30A3208A70C6E7704710B5504B0A461B6A09
S31520211A4001461C6918466368BDE8104018472DE9F0
S31520211A50F14F84B08B4614460027F7F737FBCDE9A3
S31520211A600001BFF36F8F4FF47A70DFF808A160432E
S31520211A700AF64806F7F734FBDDE90023CDE90223F0
S31520211A8010E072683068824210D020465244049B6E
S31520211A9092F800242946DA5574687F1C641C04F0C8
S31520211AA03F0474605F452AD004460D46F7F70EFBA6
S31520211AB0CDE90201DDE90201DDE90023801A994100
S31520211AC0DDE90223DDE900894B450DD828BF4245B2
S31520211AD00AD2DDE90201DDE90023D243DB43801866
S31520211AE05941401C61F1FF31002D08BF002CC8D07F
S31520211AF0A942C6D301D8A042C3D3052000E00020A5
S31520211B0005B0BDE8F08F7CB505460C46164600F09B
S31520211B103BF870BB6878A62804D11848006AFFF7DD
S31520211B2061FF76BDA42106B1A521884201D00120DD
S31520211B3076BD00F025F8BDF800106980C8B90846A1
S31520211B4040F201418842A8BF4FF48060688000F0AE
S31520211B5017F8BDF80010A98058B9698849B12046DF
S31520211B60FDF7F0FB69880A200A4642432046FFF703
S31520211B706EFF76BD347D21208485212010502120A1
S31520211B8014220221684662E710B50446002201216B
S31520211B902046FFF75CFF40B922785A2AF6D1601CED
S31520211BA00A220121BDE8104051E710BD38B504466F
S31520211BB00D46684600F017F804222146684600F0B3
S31520211BC015F862882946684600F010F80DF10201C1
S31520211BD0684600F022F8BDF8020032BD000201500D
S31520211BE00000AAEA5AA700210180704770B504880F
S31520211BF000250EE04B5D84EA032408236600240495
S31520211C0044BF86F4805686F021065B1E3446F5D1E4
S31520211C106D1C9542EED3048070BD008808807047E4
S31520211C2072B60548054901600A6882F30888044886
S31520211C30804762B60348004708ED00E00084202053
S31520211C40331D2120AD2D212000480047430321208B
S31520211C50004800474D0321200048004757032120F3
S31520211C60004800476103212000480047A92D212053
S31520211C7000480047A92D212000480047A92D2120D1
S31520211C8000480047A92D212000480047A92D2120C1
S31520211C9000480047A92D212000480047A92D2120B1
S31520211CA00048004791F220200048004799F2202041
S31520211CB000480047A5F2202000480047ADF2202009
S31520211CC000480047A92D212000480047A92D212081
S31520211CD000480047A92D212000480047A92D212071
S31520211CE000480047A92D212000480047A92D212061
S31520211CF000480047A103212000480047AB032120AB
S31520211D0000480047A92D212000480047A92D212040
S31520211D100E480F4B81688160026842F020020260E2
S31520211D20436001680A05FCD5036823F0800303601C
S31520211D3070470848016841F4700101600348026830
S31520211D40130648BFFFF7E4BF7047000000C00B40D1
S31520211D5020C528D988ED00E005207047087A10B9DA
S31520211D602F4A4C2310E005207047052070472D4827
S31520211D701222086000204A607047087A10B92A4A40
S31520211D80292301E0052070470A604B60704710B572
S31520211D90887A264A28B913685068486000200B6043
S31520211DA010BD92680B891489A34208D1042806DA2A
S31520211DB01368526853F8203052F82000EDE70520A9
S31520211DC010BD0229184830B500F1210209D103247A
S31520211DD0FB2580F82040C577147094715571D471F4
S31520211DE009E00323FB24012580F82030C4771570D0
S31520211DF093715471D57100F12E0240F2FB33138079
S31520211E004FF400759380002200EB820302290EBF36
S31520211E10DD864024DC86521C012AF5D9002030BDDE
S31520211E20EC55212038562120845521204057212028
S31520211E30F0B5C16801220161C36803EB4214521C2B
S31520211E40102A0C600968F7D3002210230A6000F1BA
S31520211E5094010B7042680027D2F8404124F47F0474
S31520211E60C2F840414268D2F84031C2F84031426836
S31520211E70D2F8A84144F00804C2F8A8414268D2F811
S31520211E80A83123F00403C2F8A831002285689301E2
S31520211E90012405F108064025F4508468E65865F3A7
S31520211EA01A46E65000EB82046761521C67658468F6
S31520211EB023449E6B76087600102A9E63E6D34368D8
S31520211EC08268C3F8582142684723C2F85471406872
S31520211ED0C0F848318F70F0BD2DE9F84F0C460746E2
S31520211EE0A1780120E578CA0802F0100901F00F0B2C
S31520211EF0D94400FA09F920884FEAD11805F00305BB
S31520211F0048EA4B06C0F30A0A384600F098FB78685F
S31520211F1000F5D8710A6812EA090F06BF8B6813EA01
S31520211F20090F022055D1B601012D10D140F20143CE
S31520211F309A45BA68238828BF4FF4806A52F806C08A
S31520211F40DB0A5B1C63F39F7C42F806C004E0BA6877
S31520211F50935923F040439351BA6897596FF31A47FF
S31520211F6047EA0A47975193592779B7F1010C6CEB28
S31520211F700C0C23F000534FEADC7443EA447393514B
S31520211F806DB99059B8F1000F40F4004090510B697A
S31520211F9014BF4FF44000C0201843086113E0915923
S31520211FA000EB8B00B8F1000F21F400419151D0F8BC
S31520211FB0C01119BFAD0445F44005AD0045F0C0055B
S31520211FC00D43C0F8C0519019826B42F00102826301
S31520211FD00020BDE8F28F2DE9F041CC09CF08064635
S31520211FE001F00F0844EA480507F01007B2680120DE
S31520211FF0474400FA07F7AD015019836B5B085B0054
S315202120008363304600F01BFB706800F5D8710A689F
S315202120103A4206BF8B683B42022016D1B368002282
S31520212020B8F1000F5A516FF08C026FF40C0305D1D1
S3152021203004B11A46086902400A6105E004B11A462C
S3152021204000EB880000F023FC0020BDE8F08170B56C
S31520212050064601F00F04CD0900F0F1FA45EA4401C4
S31520212060B06889014258C2F3C03040B170680CB1C2
S3152021207000EB8400D0F8C01141F001110EE04FF49D
S3152021208080311CB905B90121706804E005B9012107
S31520212090706800EB8400D0F8C0211143C0F8C0112C
S315202120A0002070BD2DE9FE4390468946064608EB61
S315202120B0490706EB87050021009101914FEA8717F1
S315202120C033E00068686111E000F054F96869696DB0
S315202120D08842F6D100200022686101216A65B06814
S315202120E000F10803D951B168C919CA606168C1F3E1
S315202120F0C03018B96869400940010CD1002349EA4A
S31520212100C8118DF809308DF80810306800F016FCBA
S31520212110002300930193002060603169216096F8A5
S3152021212094003461401C86F894006C69640964012A
S3152021213008D000F014F961680806C5D54FF0FF32A2
S315202121400192C3E7BDE8F7832DE9F84F84B007460E
S3152021215078684FF0010AD0F8AC41002C51D04FF0CD
S31520212160000B24FA0BF0C00746D5BB684FEA4B601B
S31520212170594603EB904000F130052878C6093246AE
S315202121803846FFF78FFF86F00102594638464FEA37
S315202121904B66FFF787FF8DF808B0082200950AFACB
S315202121A00BF101928DF809A07A68C2F8AC117968F1
S315202121B0D1F8402142F40052C1F84021B96801EBFF
S315202121C096418A6A0A63BB6803EB9641C86A4863CB
S315202121D07968D1F840219304E9D5D1F8406126F4D4
S315202121E00056C1F840617968D1F8AC2122FA0BF268
S315202121F0D307F9D400F0A1FB0BF1010BBBF1080F9A
S31520212200AFD37868D0F8BC110391C0F8BC110398DC
S31520212210002800F0968000260398F040C10740F15F
S315202122208C80102E27BFA6F1100BD046B3464FF037
S3152021223000085FFA8BF0082880F07F8008EB4B009E
S31520212240002100910191C0B24FEA801907EB800548
S3152021225068694009400170D069694909490179D0E5
S31520212260486802066ED44868C0F3C030002808BFEB
S315202122700968F2D066E06068010622D50BEB0810CA
S315202122807A680AFA00F0C2F8B0017968D1F8B83133
S31520212290034216D1796801F5D8710A680242F9D12B
S315202122A0896801420DD1BA68002102F1080343F859
S315202122B00940D7F808C0CC44CCF80C107A68C2F86B
S315202122C0B00161680A06C7D400F049F800F052F837
S315202122D06869696D88420CD10020002268616A658F
S315202122E0B86800F1080343F809A0B9684944CA60CF
S315202122F001E0006868616168C1F3C03018B9686976
S31520212300400940010BD100224BEAC8118DF8092042
S315202123108DF8081000F011FB002100910191002178
S315202123206160386920603C6197F89410491C87F8D0
S3152021233094106C69640964019DD1761C202EFFF4CA
S315202123406BAF0AE148680206F7D44868C0F3C0306B
S315202123500028F2D06C6964096401EED0B1E70098B7
S3152021236038B9A168E069090BC0F30B0040EA0131B5
S3152021237000917047E06901996268C0F312304118D3
S31520212380C2F30E40091A019170472DE9F84F0546EF
S315202123901646480001F00F0200F01E0084B040EAE4
S315202123A0D119C90801F01001012089189A4600FA8D
S315202123B001F10AF57C5401910021FF340291A40BED
S315202123C088460DB90320C8E0A8684FEA891B5844DE
S315202123D090F83810CA0703D505F19407B87808B1C3
S315202123E00120BAE004B901246846FEF7C5FD97F914
S315202123F000003346A04280F0A1800098FEF7C2FD5E
S315202124000220AAE0D5F810C0801ADCF800402C6101
S315202124103C78661E3E7001B9E2460124CCF8004084
S315202124200024CCF804405C18CCF80840DCF808607D
S3152021243006F58056360B3603CCF80C60DCF80C40BA
S315202124406B4E04F58054CCF81040DCF8104004F58E
S315202124508054CCF81440DCF8144004F58054CCF890
S315202124601840DCF804E062F31E4ECCF804E0DCF8D8
S315202124701CE062F31E3ECCF81CE0DCF81C40344004
S31520212480DCF80860C6F30B063443CCF81C4028B987
S31520212490DCF8044044F40044CCF80440DCF8044041
S315202124A08026511866F30704CCF8044005EB8904ED
S315202124B0626D12B1C2F800C003E0C4F814C04FF017
S315202124C00108C4F854C000283CD1B8F1000F1BD113
S315202124D06868D0F8B011019A11423AD16868D0F8CB
S315202124E0401141F48051C0F84011686800F5A07070
S315202124F0816F0268D304F1D50768C9B227F48057C2
S3152021250007600198014224D1AA68002002F108031C
S3152021251043F80BA0A9680C3141F80B006868019A91
S31520212520C0F8B0210198696801F5D8718A680242FC
S3152021253002BFCB6803420860F5D00AE05046DDF899
S315202125400CA00299B0F5804F8CBF4FF480420246F1
S3152021255058E70098FEF716FD002005B0BDE8F08F5C
S31520212560F8B50FF2E03314461D680346022B009579
S3152021257003DB9A1E022A00D20AB10620F2BD9C252F
S315202125801C4E15FB03F51C4A06EB43271544A5F5DE
S315202125909C75A7F58062EA60184A02EBC322A2F550
S315202125A0805605F19502AE609070684600EB830354
S315202125B053F8080C6860D0F8243103F01F03082B48
S315202125C0137001D20120F2BD2960D0F8A811890803
S315202125D08900C0F8A811D0F8A82142F00202C0F83B
S315202125E0A8212846FFF724FC25600020F2BD000003
S315202125F000F0FF7F006421208C8521200058212096
S3152021260008B90320704742680021C2F84811416861
S31520212610D1F840315B085B00C1F840314068D0F8E1
S31520212620401141F00201C0F840110020704701F00D
S315202126300F0141F08001A8E601F00F01A5E62DE961
S31520212640F8438846C908054608F00F0701F010010E
S315202126500120CF1900FA07F74FEA480000F01E00A3
S3152021266084B040EAD8190DB903206DE0684605EB00
S315202126708906FEF781FC00214FF0FF32019102925B
S31520212680706904E0C16941F00041C16100684009D7
S315202126904001F7D145E00168716125E0E069C00F6D
S315202126A04ED0616808060ED56868D0F8B411394332
S315202126B0C0F8B411686800F5DA7001683942F9D199
S315202126C042683A42F0D1019838B9A168E069090BEC
S315202126D0C0F30B0040EA013101917069716D884286
S315202126E0D9D10020706170656168C1F3C03018B9F5
S315202126F07069400940010AD100208DF80C808DF89F
S315202127000D00286801A9FEF742F900200190002139
S3152021271061602869206095F894102C61491C85F800
S315202127209410746964096401B8D1A9684FEA89149F
S315202127300120002301F108021051A8682044C3601A
S315202127400098FEF71FFC002005B0BDE8F0830000AD
S3152021275038B5044601200CB9032032BD0F29FCD8F7
S31520212760DFE801F0080F171F272E575B75949494E5
S3152021277094947D8F606800F5A070016841F0010175
S3152021278005E0606800F5A0700168490849000160EC
S315202127907BE0002A7AD011462046BDE83440FFF757
S315202127A09BBB002A72D011782046BDE83440FFF722
S315202127B012BC002A6AD011782046BDE8344046E46E
S315202127C0002A63D010786FF001026FF4803300F075
S315202127D00F01C00929B900B11A46606800F057F8DF
S315202127E053E000B11A46636803F5E07353F821508C
S315202127F02A40002843F82120626802F5E07252F827
S31520212800213014BF4FF480004020184342F8210084
S315202128103BE0002A3AD0108037E0002A36D01178C2
S3152021282001F00F03C909082B30D2002B60684FF421
S3152021283080341ABF00F5E07050F82300D0F8C0018B
S3152021284001B90124204018BF012050801DE0EAB1A2
S3152021285010786168400601F5A072506115E00025C7
S3152021286045F08001C9B22046FFF7B5FBE9B22046E3
S31520212870FFF7B1FB6D1C082DF2D32046FFF7D8FABE
S3152021288003E01AB194F898001070002032BDD0F8D8
S31520212890C0110A40C0F8C0217047002800D17047D6
S315202128A0FEB50468616801F5A2710E68486804F1D5
S315202128B09605064072060E601BD5886E4FF0FF13D3
S315202128C088668A6F8A670B67C86E30F0FF20FAD137
S315202128D0096CCA0502D501232B700AE01027002195
S315202128E08DF80870009101918DF80910206800F06B
S315202128F025F8F20744BF2046FFF726FC70071BD593
S3152021290000210023009101918DF809306068D0F8CB
S315202129108411CA0510D4D0F8840181054CBF022028
S315202129200020A870287838B110218DF80810206849
S3152021293000F004F800202870F7BD38686946FEF7B4
S3152021294026B8000000002E40DFF8B003DFF8B023C0
S31520212950017B00235370117090F8290410B10800CF
S3152021296018BF0120704770B5002406460846012865
S31520212970DFF88833114603F5856514D009281ED042
S315202129800A2827D00B2845D00C2848D00D284BD0F3
S315202129900E284ED00F2851D0102854D0152827D0B4
S315202129A016282AD054E06C7029460220FEF7C6FA52
S315202129B000284DD129783046FFF703FA48E000292F
S315202129C046D0012068700A789868AA700978FDF7A0
S315202129D056FD3DE0687800283AD008880246000A4C
S315202129E036D19868EA70D2B20021FDF75EFD2FE03C
S315202129F000292DD0A87808702AE0002928D00A8815
S31520212A00130A05D1E87802F47F4202430A801FE0A7
S31520212A1005241DE0E1B13046FFF7A9F917E0B9B148
S31520212A203046FFF7AAF912E091B13046FFF7AFF908
S31520212A300DE069B13046FFF78FF908E041B1304604
S31520212A40FFF78CF903E019B13046FFF78EF90446DA
S31520212A50204670BDF8B500BFB6A2A84C127840F228
S31520212A602C412046A74E8DF800201546F7F7E4F98C
S31520212A70F6F72DFC0028F06800690CD190F89C10FF
S31520212A8001F0EF0180F89C10F0680069C16821F0FF
S31520212A901001C16026E030F8A01F4FF6FF7243884F
S31520212AA0934208BF914209D0974A11720188090A97
S31520212AB05172438893724188090AD1724068934999
S31520212AC0934E10F1010F08BF92480860002204F5A9
S31520212AD08560A26002803146226022460220FEF7CE
S31520212AE07EF908B10120F2BD306841682046A160F7
S31520212AF0FDF7EAFC290003D44020874A505406E0FA
S31520212B00864E05F00F004023371807F8043C00298C
S31520212B1008D4012005F01F0500FA05F5804A490948
S31520212B2042F821502068FDF7CBFF0020F2BD38B5B1
S31520212B3004460220FEF7CCF938BB7048FDF7C8FCC5
S31520212B4061687848012330F911100A46002A0BD4EE
S31520212B5001F01F0103FA01F1734D520945F82210A4
S31520212B60BFF34F8FBFF36F8F616830F911000100DA
S31520212B7006D400F01F0083406C48490940F82130D3
S31520212B806B48016889088900016031BD5C480021B4
S31520212B900170012242700270704710B5574C0021F6
S31520212BA004F11400F8F7C6FC002104F11800F8F707
S31520212BB0C1FC04F11400F8F7CCFC002010BDF8B5B7
S31520212BC00C00154618BF002D01D10420F2BD00208E
S31520212BD0286013B1012B02D02BE0012600E002262A
S31520212BE04748017859B3454FB87B38B1B86840F288
S31520212BF0FD3307F120020221FDF720FE01204FF0AF
S31520212C00FF31B87307F11400F8F799FC97F82000E3
S31520212C10B04204D0012E08BF02280AD15AE007F17A
S31520212C202201FA690878497840EA0120121F824256
S31520212C3001D20120F2BD07F1240121602860002064
S31520212C40F2BDF8B50C462E490878154600283FD006
S31520212C5040F2F932954201D30420F2BD13B1012B62
S31520212C600BD00CE00327F8F781FC244E707B40B172
S31520212C7000217173F8F780FC2CE00427F3E701206B
S31520212C80F2BDF8F779FC06F1210000212A0A002C51
S31520212C9086F82070017018BF002D4570827005D0EE
S31520212CA02A46214606F12400F8F738FB96F8220415
S31520212CB001280DD1B06840F2FD3306F12002012111
S31520212CC0FDF7ABFD4FF0FF3106F11800F8F737FC81
S31520212CD00020F2BD42F21270F2BD38B544690023BC
S31520212CE000220021A568A84731BD002070474FF456
S31520212CF07E70704701480068FFF7CFBDC48621202A
S31520212D00D48C21201050212038562120888521201D
S31520212D10445021204057212000E400E018ED00E016
S31520212D2000E100E05057212080E100E080E200E030
S31520212D3080C00F40710000004EF68851CEF200016E
S31520212D40086840F470000860BFF34F8FBFF36F8F80
S31520212D504FF00070E1EE100A7047000000F00DF8E8
S31520212D60002801D000F00CF8AFF300800020AFF34B
S31520212D700080F8F7A0FBF8F7DBFB01207047000065
S31520212D8010B5074979441831064C7C44163404E0A1
S31520212D900A68081D114488470146A142F8D110BD71
S31520212DA01800000034000000FFF7FEBFAFF30080BB
S31520212DB0FFF7C2FFFFF7D2FFEF6FFFFFD8340000E6
S31520212DC000582120000000007770FFFF0C00000032
S31520212DD0F40300000050212010038D9620209B040F
S31520212DE0100F7C88202034682120408E20205050AE
S31520212DF02120A00412BC0C12000812000122740CFE
S31520212E00910143C503181003E4552120382450038A
S31520212E106729212001211003FFFF0300110C425CA9
S31520212E203412201082201012201092231020040008
S31520212E3060FFFFFF6F3BC3EC8D64210162105512A9
S31520212E400009120824F2018E244101111D230010AC
S31520212E506F1104124004228027213E120204E3042A
S31520212E600021E11F611AF100371101910FB15EF1A5
S31520212E70FF01F1FF01F1FF01F1CA01FC0223D5A8CF
S31520212E80202013041C0C40DCB31109022900010166
S31520212E9000C0320961041C050203000003092174C4
S31520212EA004200C01224C0007058103FB03010705A1
S31520212EB002071161210F210C100383024000040413
S31520212EC021012D9B044FB0559005113E1300C00CB6
S31520212ED0212C210412D00C22DC10110DE018060021
S31520212EE0FF0901A101850119012901150026FF00EC
S31520212EF0752895CC9102850211B20311D002810247
S31520212F008504113001C0120177100240A2157309E0
S31520212F101201031D1F0510080309043A0346005216
S31520212F2000450210055300430041004C0A12200C93
S31520212F30100345004D00491210054F004E00440054
S31520212F40550A12540C12521C124912100143002EFA
S31520212F504D10012A03552A124214212810014D0011
S31520212F6050061253203254441244063256441245F6
S31520212F702C10012E034D0A125518124814124408FA
S31520212F80124718124E04325224E1301001220342F4
S31520212F908E21281253502124124E32C1012DEE05A5
S31520212FA0223A8821602134110410034C56212050C5
S31520212FB004128C0412B80412E8041003205721208D
S31520212FC00C0425AF2120213847345774000280FF75
S30720212FD0710047
S70520211C217C
