S0130000666C6173686C6F616465722E737265638C
S31520002000E0572120D99C01205F46002085760120BB
S315200020105F4600205F4600205F460020000000004B
S315200020200000000000000000000000005F460020C5
S315200020305F460020000000005F4600205F4600202B
S31520002040E7B60120E7B60120E7B60120E7B6012072
S31520002050E7B60120E7B60120E7B60120E7B6012062
S31520002060E7B60120E7B60120E7B60120E7B6012052
S31520002070E7B60120E7B60120E7B60120E7B6012042
S31520002080E7B60120E7B60120E7B60120E7B6012032
S31520002090B3950120019D0120099D0120119D01205C
S315200020A0199D0120219D0120299D0120319D01207E
S315200020B0399D0120419D0120499D0120519D0120EE
S315200020C0599D0120619D0120699D0120719D01205E
S315200020D0799D0120819D0120E7B60120E7B60120E8
S315200020E0E7B60120E7B60120E7B60120E7B60120D2
S315200020F0E7B60120E7B60120E7B60120E7B60120C2
S31520002100E7B60120E7B60120E7B60120E7B60120B1
S31520002110E7B60120E7B60120E7B60120E7B60120A1
S31520002120E7B60120E7B60120E7B60120E7B6012091
S31520002130899D0120E7B60120E7B60120E7B60120F8
S31520002140E7B60120E7B60120E7B60120E7B6012071
S31520002150E7B60120E7B60120E7B60120E7B6012061
S31520002160E7B60120E7B60120E7B60120E7B6012051
S31520002170E7B60120E7B60120E7B60120E7B6012041
S3152000218045340020E7B60120E7B60120E7B6012056
S31520002190E7B60120E7B60120E7B60120E7B6012021
S315200021A0E7B60120E7B60120919D0120999D0120E7
S315200021B0E7B60120E7B60120E7B60120E7B6012001
S315200021C0E7B60120E7B60120E7B60120E7B60120F1
S315200021D0E7B60120E7B60120E7B60120E7B60120E1
S315200021E0E7B60120E7B60120E7B60120E7B60120D1
S315200021F0A19D0120E7B60120A99D0120B19D0120C6
S31520002200E7B60120D7B50120B99D0120C19D012047
S31520002210E7B60120E7B60120E7B60120E7B60120A0
S31520002220E7B60120E7B60120E7B60120E7B6012090
S31520002230E7B60120E7B60120E7B60120E7B6012080
S31520002240E7B60120E7B60120E7B60120E7B6012070
S31520002250E7B60120E7B60120E7B60120E7B6012060
S31520002260E7B60120E7B60120E7B60120E7B6012050
S31520002270E7B60120E7B60120E7B60120E7B6012040
S31520002280E7B60120E7B60120E7B60120E7B6012030
S31520002290E7B60120E7B60120E7B60120E7B6012020
S315200022A0E7B60120E7B60120E7B60120E7B6012010
S315200022B0E7B60120E7B60120E7B60120E7B6012000
S315200022C0E7B60120E7B60120E7B60120E7B60120F0
S315200022D0E7B60120E7B60120E7B60120E7B60120E0
S315200022E0E7B60120E7B60120E7B60120E7B60120D0
S315200022F0E7B60120E7B60120E7B60120E7B60120C0
S31520002300E7B60120E7B60120E7B60120E7B60120AF
S31520002310E7B60120E7B60120E7B60120E7B601209F
S31520002320E7B60120E7B60120E7B60120E7B601208F
S31520002330E7B60120E7B60120E7B60120E7B601207F
S31520002340E7B60120E7B60120E7B60120E7B601206F
S31520002350E7B60120E7B60120E7B60120E7B601205F
S31520002360E7B60120E7B60120E7B60120E7B601204F
S31520002370E7B60120E7B60120E7B60120E7B601203F
S31520002380E7B60120E7B60120E7B60120E7B601202F
S31520002390E7B60120E7B60120E7B60120E7B601201F
S315200023A0E7B60120E7B60120E7B60120E7B601200F
S315200023B0E7B60120E7B60120E7B60120E7B60120FF
S315200023C0E7B60120E7B60120E7B60120E7B60120EF
S315200023D0E7B60120E7B60120E7B60120E7B60120DF
S315200023E0E7B60120E7B60120E7B60120E7B60120CF
S315200023F0E7B60120E7B60120E7B60120FFFFFFFF81
S31520002400002A01D101207047F0B41F460346032459
S315200024102340002B09D00424E31A0170013008243C
S31520002420E141521E26D05B1EF7D1042A1ADB13D0B7
S31520002430002F11D00C460D460E46102A02DB72C024
S31520002440103AFAE70C2A02DB32C00C3AFAE7082ADD
S3152000245002DB12C0083AFAE7042A03DB01600430E3
S31520002460121FF9E7002A05D0017001300824E14146
S31520002470521EF7D1F0BC002070470C06973D002075
S3152000248000000000F13D0020000000007F3F0020FA
S3152000249079410020DF3E0020394000209342002071
S315200024A00000000000000000000000003B3E00206D
S315200024B0000000000F3E002039400020AD420020E1
S315200024C0000000001D43002000000000593D0020B0
S315200024D0000000006D3E002000000000000000000B
S315200024E00000000045430020000000006D4300204E
S315200024F0000000009F43002079410020893E0020F3
S31520002500000000000000000000000000173F00202F
S315200025101B40002000002208160818061E0412067A
S315200025200E0611041A0216020000180616040C06DE
S315200025301E021203160221011A01160100000000D4
S31520002540B71DC1046E3B8209D926430DDC760413E0
S315200025506B6BC517B24D861A0550471EB8ED082677
S315200025600FF0C922D6D68A2F61CB4B2B649B0C3514
S31520002570D386CD310AA08E3CBDBD4F3870DB114CC1
S31520002580C7C6D0481EE09345A9FD5241ACAD155FA4
S315200025901BB0D45BC2969756758B5652C836196AAD
S315200025A07F2BD86EA60D9B6311105A6714401D7998
S315200025B0A35DDC7D7A7B9F70CD665E74E0B6239842
S315200025C057ABE29C8E8DA191399060953CC0278BAC
S315200025D08BDDE68F52FBA582E5E66486585B2BBE33
S315200025E0EF46EABA3660A9B7817D68B3842D2FAD50
S315200025F03330EEA9EA16ADA45D0B6CA0906D32D4F3
S315200026002770F3D0FE56B0DD494B71D94C1B36C727
S31520002610FB06F7C32220B4CE953D75CA28803AF230
S315200026209F9DFBF646BBB8FBF1A679FFF4F63EE18B
S3152000263043EBFFE59ACDBCE82DD07DEC7770863450
S31520002640C06D4730194B043DAE56C539AB068227BF
S315200026501C1B4323C53D002E7220C12ACF9D8E12FE
S3152000266078804F16A1A60C1B16BBCD1F13EB8A0133
S31520002670A4F64B057DD00808CACDC90C07AB9778C0
S31520002680B0B6567C69901571DE8DD475DBDD936B03
S315200026906CC0526FB5E6116202FBD066BF469F5EE4
S315200026A0085B5E5AD17D1D576660DC5363309B4DB7
S315200026B0D42D5A490D0B1944BA16D84097C6A5AC45
S315200026C020DB64A8F9FD27A54EE0E6A14BB0A1BF0B
S315200026D0FCAD60BB258B23B69296E2B22F2BAD8A3A
S315200026E098366C8E41102F83F60DEE87F35DA999EF
S315200026F04440689D9D662B902A7BEA94E71DB4E0B2
S31520002700500075E4892636E93E3BF7ED3B6BB0F386
S315200027108C7671F7555032FAE24DF3FE5FF0BCC667
S31520002720E8ED7DC231CB3ECF86D6FFCB8386B8D5AA
S31520002730349B79D1EDBD3ADC5AA0FBD8EEE00C698A
S3152000274059FDCD6D80DB8E6037C64F643296087A90
S31520002750858BC97E5CAD8A73EBB04B77560D044FE3
S31520002760E110C54B383686468F2B47428A7B005C64
S315200027703D66C158E4408255535D43519E3B1D251D
S315200027802926DC21F0009F2C471D5E28424D193654
S31520002790F550D8322C769B3F9B6B5A3B26D6150399
S315200027A091CBD40748ED970AFFF0560EFAA01110E8
S315200027B04DBDD014949B93192386521D0E562FF18E
S315200027C0B94BEEF5606DADF8D7706CFCD2202BE2DC
S315200027D0653DEAE6BC1BA9EB0B0668EFB6BB27D71F
S315200027E001A6E6D3D880A5DE6F9D64DA6ACD23C420
S315200027F0DDD0E2C004F6A1CDB3EB60C97E8D3EBD2F
S31520002800C990FFB910B6BCB4A7AB7DB0A2FB3AAE57
S3152000281015E6FBAACCC0B8A77BDD79A3C660369B9C
S31520002820717DF79FA85BB4921F4675961A1632885B
S31520002830AD0BF38C742DB081C330718599908A5D70
S315200028402E8D4B59F7AB085440B6C95045E68E4EEF
S31520002850F2FB4F4A2BDD0C479CC0CD43217D827B6A
S315200028609660437F4F460072F85BC176FD0B866803
S315200028704A16476C93300461242DC565E94B9B119C
S315200028805E565A1587701918306DD81C353D9F0233
S3152000289082205E065B061D0BEC1BDC0F51A69337D0
S315200028A0E6BB52333F9D113E8880D03A8DD0972487
S315200028B03ACD5620E3EB152D54F6D4297926A9C511
S315200028C0CE3B68C1171D2BCCA000EAC8A550ADD6BB
S315200028D0124D6CD2CB6B2FDF7C76EEDBC1CBA1E326
S315200028E076D660E7AFF023EA18EDE2EE1DBDA5F03F
S315200028F0AAA064F4738627F9C49BE6FD09FDB8896E
S31520002900BEE0798D67C63A80D0DBFB84D58BBC9A36
S3152000291062967D9EBBB03E930CADFF97B110B0AFD3
S31520002920060D71ABDF2B32A66836F3A26D66B4BCFA
S31520002930DA7B75B8035D36B5B440F7B10000000008
S31520002940BBB60120CBB60120D5B601200000000081
S315200029500000000009000000614A0020010100007B
S315200029607F540020080000005F6000200001000066
S31520002970C5670020100100003972002020010000E8
S315200029809983002021010000FB7B0020000000002D
S31520002990000000000F04C004012400000000000015
S315200029A000000000000000600011223344556677C5
S315200029B08899AABBCCDDEEFF5A0418080830FF24FC
S315200029C000000000000000005A0518090831FF2504
S315200029D000000000000000005A06180A0832FF26F0
S315200029E000000000000000000000000000000000C1
S315200029F000000000000000009F04032400000000E7
S31520002A0000000000000000009F076007200B04273D
S31520002A1000000000000000009F876087208B04A72D
S31520002A2000000000000000005A0418080830FF24A7
S31520002A3000000000000000005A07208BFFA70000BE
S31520002A4000000000000000005A0418080830FF2487
S31520002A5000000000000000005A06180AFF260000A9
S31520002A6000000000000000005A07180BFF27000096
S31520002A7000000000000000005A06188AFFA6000089
S31520002A8000000000000000005A07208BFFA700006E
S31520002A90000000000000000081460020D3470020EF
S31520002AA0F5470020AD4800201D490020AF490020F1
S31520002AB040787D0180F0FA0200E1F5054059730760
S31520002AC000802A400000000000801B4000C01B4000
S31520002AD000001C4000401C4000000C40FFFF1A0173
S31520002AE01E001A020C031E01010204081020408059
S31520002AF000000000004039400080394000C03940C5
S31520002B0000003A40FFFF0001020104010601000017
S31520002B1000000000004018400080184000C0184007
S31520002B2000001940004019400080194000C019409B
S31520002B3000001A40FFFF18051C000C0018010203B4
S31520002B4006031A050E060000A086010040420F006B
S31520002B508096980000E1F505000000000A000000BC
S31520002B600C0000000D0000000F0000001400000003
S31520002B701A0000001E0000002300000028000000AC
S31520002B802D00000034000000370000003C0000004B
S31520002B904600000050000000000000000000000079
S31520002BA0050800404000000000C00C400000000066
S31520002BB000002C4000402C4080FF6E006F0000007B
S31520002BC0FFFF020604060000D1940120559501203E
S31520002BD06F9501200000000000000000A195012053
S31520002BE0138F00207D8B0020EF8B0020398D002055
S31520002BF0798D0020918D0020A38C002089770020DC
S31520002C00C1790020537A0020577B0020FD770020D1
S31520002C10317B0020457B0020B57B002000555603E4
S31520002C20590C0F5A5A0F0C59035655006530336606
S31520002C303C696A3F3F6A693C663330656633306576
S31520002C403F6A693C3C696A3F6530336603565500E6
S31520002C505A0F0C59590C0F5A00555603693C3F6AB6
S31520002C6030656633336665306A3F3C690C595A0FC6
S31520002C7055000356560300550F5A590C0F5A590C36
S31520002C8056030055550003560C595A0F6A3F3C69A6
S31520002C903366653030656633693C3F6A6A3F3C6916
S31520002CA03366653030656633693C3F6A0F5A590C86
S31520002CB056030055550003560C595A0F0C595A0FF6
S31520002CC055000356560300550F5A590C693C3F6A66
S31520002CD030656633336665306A3F3C690356550076
S31520002CE05A0F0C59590C0F5A005556036633306546
S31520002CF03F6A693C3C696A3F6530336665303366B6
S31520002D003C696A3F3F6A693C663330650055560325
S31520002D10590C0F5A5A0F0C5903565500BDC50020A1
S31520002D20C5C50020D7C50020EBC500200000000047
S31520002D30000000000100000001000000CD3300204B
S31520002D40C82B0020D82B00206C2F0020100000005C
S31520002D5001000000000000004430002000000000B8
S31520002D605430002000000000000000000000000099
S31520002D70000000000000000000000000E195012096
S31520002D80FF950120D5960120AF970120A8AD2020E0
S31520002D90D97F0020798100200B8200200D8300201E
S31520002DA035800020E7820020FB820020558300200A
S31520002DB001000000000000000000000000000000EC
S31520002DC000000000000000000000000000000000DD
S31520002DD046001400000032001E0032001E000000D3
S31520002DE07800C800C8002800C800000023000A0098
S31520002DF0000019000F0019000F00000050006400A9
S31520002E00640014006400000019000A00000011008C
S31520002E100F0011000F000000500064006400140031
S31520002E20640000001900050000000F000A000F00D2
S31520002E300A0000003C0064006400140064000000E6
S31520002E401400050000000C000A000C000A00000017
S31520002E503C00640046001400640000000F000500DA
S31520002E6000000A0007000A00070000003C0064007A
S31520002E70460014006400000000000000000000006E
S31520002E80000000000000000000000000000000001C
S31520002E90000000004D4943524F4E20202020202084
S31520002EA05350414E53494F4E2020202053414D53DD
S31520002EB0554E47202020202057494E424F4E442031
S31520002EC02020202048594E495820202020202020EC
S31520002ED0544F534849424120202020204D414352FF
S31520002EE04F4E4958202020200000000000000000FE
S31520002EF000000000EF01000000000000EF9000003D
S31520002F0000000000556100202D6400200F65002080
S31520002F106D660020E7610020836700209767002008
S31520002F2000000000000000000E000A000000000063
S31520002F30420021000A009C000A0000000000000058
S31520002F4007000500000000002800140005006000AE
S31520002F50070000003B5C0020175E0020395E002041
S31520002F60115F00209F5F0020D15F0020B3980120D1
S31520002F70BF9801204D990120C3990120B7980120BF
S31520002F80D399012091980120000201500000AAEA5D
S31520002F90776F0020836F0020A16F0020AD70002086
S31520002FA07F7100204D70002000000000000000000E
S31520002FB0EB4B0020C34F00200B5100207353002001
S31520002FC0A54E00202B5300203F5300200000000078
S31520002FD0418D0120F78D012000000000F78D012092
S31520002FE000000000AD8E0120258F0120000000008A
S31520002FF02790012065900120C59001201391012082
S31520003000579101203F81012095810120217F0120B8
S315200030100100000000000000000000000000000089
S315200030200000000037AC012011AD012047AD012082
S3152000303059AD012065AD0120FDAE012000002E40D6
S3152000304000022E408BB101200BB3012005B40120D4
S3152000305039B4012049B401206DB4012017B50120EF
S31520003060B9B50120CDB50120D1B501200000000061
S3152000307010B5040000204949086000200021484A74
S31520003080C2E90001474AC2E90001474AC2E90001F4
S31520003090002046490860464800F0F0F8454AC2E953
S315200030A000010FF26901200000F0E1F910BD80B5A2
S315200030B000F0F2F901BD10B50C003849096807295E
S315200030C022D13A49096888421ED100F00DFC03003E
S315200030D00F2043433248D0E9000102003148D0E9AD
S315200030E000018218B3FBF2F10A2041434FF49660A7
S315200030F0B1FBF0F0401D0A21B0FBF1F14FF49660D0
S3152000310041432160002000E0012010BD2DE9F84355
S31520003110060000F0A2F804000D00204A1068401CAA
S315200031201060214FD7E90001201A75EB0101214BD0
S31520003130D3E90089894504D801D3804501D20120ED
S31520003140106030001168012906D004290AD005290B
S3152000315011D0072913D01CE01149C1E900451349B4
S31520003160086016E00E48D0E90023A21A75EB030387
S31520003170C0E900230DE00B48C0E9004509E00949F4
S31520003180D1E90023A21A75EB0303C1E9002300F05D
S3152000319083F9C7E90045BDE8F18300002098202087
S315200031A0009820200898202010982020249820205D
S315200031B0803801001898202010B4020012B2120A9A
S315200031C000B210F01F003D4B03EB8202136803246C
S315200031D08440A343C9B211FA00F01843106010BC12
S315200031E0704780B5032100B2FFF7E6FF01BD10B599
S315200031F04FF48670FFF7F5FF0020314908605FF035
S31520003200FF3030490860304900220A6001222F4BE6
S315200032101A600A6852F004020A600A6852F0010233
S315200032200A602B49086001202A49086001202A49A2
S3152000323008602A4C00F058FBC0002949B0FBF1F089
S3152000324020602068002801D10120206010BD1C4884
S31520003250016851F002010160704782B0214802687E
S3152000326000232148006800901300002200980021C6
S3152000327010431943C043C94302B070471749096830
S31520003280A1FB0001C00840EA4170C908704738B563
S315200032900400FFF7E2FF114A1268A2FB0423D208BA
S315200032A042EA4372DB08141853EB0105FFF7D5FFFA
S315200032B0A942FBD301D8A042F8D331BD68C00F4044
S315200032C00040084010410840184108401C41084071
S315200032D0004108400C4108400841084078A62020BB
S315200032E040420F00E0400840E4400840010009B297
S315200032F0002908D4012210F01F018A406F4900B22C
S31520003300400941F820207047010009B200290CD459
S31520003310012210F01F018A40694900B2400941F894
S315200033202020BFF34F8FBFF36F8F7047020012B27A
S31520003330002A04D40901634A00B2115407E00901A6
S31520003340614A00B210F00F00104400F8041C7047C8
S3152000335010B4029C11F00701240114F0100421433B
S315200033600160002A00D0136010BC70478069704746
S315200033708161704700210160002A01D00020106081
S315200033800098002801D0019901607047FEB5089C7D
S31520003390099D0A9E002701970094FFF7D9FF206810
S315200033A050F4104020606868012111FA06F630EAD0
S315200033B006066E60F7BD3EB5069C00250195009475
S315200033C0FFF7C6FF47F2B000206037BD7FB5C9B210
S315200033D0002903D0022923D015D332E041F2B004CC
S315200033E03A4D3B4E019400960023002202212800EC
S315200033F0FFF7C0FF01940096002300220221280037
S31520003400FFF7B8FF1DE00D200290324801903248A8
S3152000341000900023002205213048FFF7B7FF10E077
S315200034202D4800900023002202212C48FFF7C3FFDD
S31520003430274800900023002202212448FFF7BBFFE3
S31520003440FFE77FBD38B54FF40054224D2800FFF723
S315200034508DFF20420AD022494868002806D0012044
S315200034604968884721002800FFF782FF31BD80B5D3
S315200034701B48416004220D21164800F00BFB194819
S31520003480016851F40051016001215020FFF74EFFE1
S315200034905020FFF72BFF01BD80B55020FFF734FFEA
S315200034A000215020FFF742FF00220D21094800F09D
S315200034B0F1FA00200A49486001BD000000E100E061
S315200034C080E100E000E400E018ED00E0EC801F4021
S315200034D0DC821F4000801B40E0821F40F0801F409E
S315200034E0A0AD202014801B40DFF820140860704710
S315200034F080B5C0B2002801D100F025F801BDDFF863
S315200035001004016851F0030101604020DFF8041423
S315200035100860DFF804045FF0004101605FF080413D
S3152000352001600020DFF8F4130860DFF8F403016877
S3152000353051F4C0110160DFF8EC0301684908490025
S31520003540016001207047F8B5012000200020DFF837
S31520003550D803FFF7C9FFDFF8D4030068C0F341534F
S31520003560012010FA03F3DFF8C8030068C0F38000D7
S31520003570DFF8C0231168C90340F19B80012801D1DF
S31520003580582100E0422111F07F0151F49031116061
S3152000359011680029FCD5DFF8A043216831F4805159
S315200035A0216021680029FCD5DFF890532E6836F07B
S315200035B03F36DFF88C130E432E60DFF888534FF426
S315200035C04051296029680029FCD5296831F48031C9
S315200035D02960DFF87463376837F03F37DFF86C13FC
S315200035E00F4337600121DFF868633160002802D17C
S315200035F0DFF8600301E0DFF86003DFF86013B0FB5B
S31520003600F3F00860012600E0761C0868B0FBF6F0AF
S31520003610DFF84C73B842F7D2DFF848130F68DFF8AB
S3152000362048030740701E000410F4E02007435B1E89
S315200036309B0213F4E0533B43761E360216F4407683
S3152000364033430B60DFF824130868C009C00150F02B
S3152000365003000860DFF81833186850F4402018601B
S315200036601E68DFF81003064056F0A0561E60DFF8ED
S3152000367008331E68DFF80403064046F0C74656F0B6
S3152000368001061E60186850F440301860086830F44F
S31520003690E72050F484300860106830F480301060E1
S315200036A0206830F480302060286830F4803028602C
S315200036B008E0002801D1A74800E0A748B0FBF3F0B6
S315200036C0A6490860F1BDA7480068C0F30120401C48
S315200036D0A2490968B1FBF0F070472DE9F8438AB09A
S315200036E0050088461400002000200020002005A8A0
S315200036F0A349142200F02CFA6846A249142200F0AD
S3152000370027FA002C01D0012C47D18F4E326892091E
S315200037109201994F396831F060710020002C01D157
S3152000372005AB00E06B464046C0B2002835D0404687
S31520003730C0B20A2801DB5FF001084046C0B213F888
S3152000374010005FFA88F803EB48035B7810F03F001F
S31520003750024390465B1EDB0513F0607319430C0091
S31520003760DFF82492D9F8000050F00200C9F80000D2
S31520003770280000F01BF83068804501D0C6F800808C
S315200037803868844200D03C60280000F009F8D9F857
S31520003790000030F00200C9F800000BB0BDE8F0834D
S315200037A05B48016851F440610160704758480168E0
S315200037B031F440610160704730B400230020674D2A
S315200037C02C68C9B2002903D002290BD002D31DE0F0
S315200037D02B681CE063490968C1F30121491CB4FB2D
S315200037E0F1F314E0644C2168C1F34171564909682C
S315200037F011F03F01654BB3FBF1F312214B432168D6
S31520003800C1F3C251491CB3FBF1F300E0042013605D
S3152000381030BC704703000420002B01D1002900D1C1
S3152000382007E0012A02D15A48086001E0584808609A
S315200038300020704730B40021002100210021494C8E
S31520003840216851F040012160216831F0800121601A
S315200038503A4D296831F47C11226832F4E022C0B254
S3152000386000280AD001280BD002280CD004280DD01D
S3152000387005280ED006280FD011E02320082310E0BB
S31520003880222007230DE01B2007230AE01D20032307
S3152000389007E01220042304E01320032301E0122072
S315200038A00823000410F47C1001435B1E1B0413F450
S315200038B0E0231A432868814200D02960206882428A
S315200038C004D0226033480068C007FBD430BC704760
S315200038D03148016851F03001016070472E48016877
S315200038E031F03001016070471E480068C0F30120A6
S315200038F0401C2149096811F03F01491C174A1268EA
S31520003900B2FBF0F0B0FBF1F070470000F8A42020E5
S3152000391080C00F4014800D4038900D4000900D401F
S31520003920B0810D4040012E4000366E0170441F408C
S3152000393060441F4000800D4030800D4000810D40C6
S315200039401818131810800D40F0800D4023231A0FED
S3152000395010C00F40007B9A1700A4781FF085202006
S315200039600144950814C00F40FFE0F8FF24C00F4023
S3152000397018C00F40CFFFFFE31CC00F4080FF7F9C85
S31520003980142500202825002000802A4000389C1C71
S3152000399080F5E40948C00F4074C00F4038B50400D4
S315200039A00D0002E00120FFF772FC20002900441ED2
S315200039B071F100050029F5D10028F3D131BD5AA7B0
S315200039C010B4020012B2120A00B210F01F00254BEA
S315200039D003EB8202136803248440A343C9B211FA7D
S315200039E000F01843106010BC704780B5032100B268
S315200039F0FFF7E6FF01BD0100002000E0401C06287D
S31520003A0004D2194A52F820208A42F7D17047F8B5D5
S31520003A1004000D0016002000FFF7EDFF134931F9D1
S31520003A201000FFF7E2FF0127616917FA05F08143CD
S31520003A3061613078002805D16068AF4030EA070719
S31520003A40676008E072782900200000F011F86068AD
S31520003A50AF4007436760B2782900200000F01AF8CB
S31520003A60F1BD000068C00F40C42A0020DC2A0020D7
S31520003A70D2B2002A07D10268012313FA01F132EAF1
S31520003A800101016005E00268012313FA01F11143E7
S31520003A900160704770B40C000125C66915FA01F360
S31520003AA09E43C661102902D210F10C0302E010F1E8
S31520003AB01003103CD2B2012A07D037D3032A19D0DB
S31520003AC00BD3052A2CD023D330E019680322E4B285
S31520003AD0600082409143196028E019680322200083
S31520003AE0C0B2400082409143E4B2600085400D435D
S31520003AF01D601BE0196803222000C0B240008240EE
S31520003B0091430222E4B260008240114319600DE025
S31520003B1019680322E4B2600082401143196005E06F
S31520003B20C26915FA01F11143C161FFE770BC704704
S31520003B3062B38B0708D0521E11F8013B00F8013BF7
S31520003B4000F024808B07F6D1830740F0208000BF49
S31520003B50103A07D330B4B1E83810103AA0E838103C
S31520003B60F9D230BC530724BFB1E80810A0E80810EA
S31520003B7044BF51F8043B40F8043BD20724BF31F838
S31520003B80022B20F8022B44BF0B7803707047121FBC
S31520003B9017D35B0009D151F8043B20F8023B1B0CDC
S31520003BA0121F20F8023BF6D20BE051F8043B00F836
S31520003BB0013B1B0A20F8023B1B0C121F00F8013B9D
S31520003BC0F3D238BF121D521E24BF11F8013B00F854
S31520003BD0013BF8D870477170BFF34F8FDFF8781923
S31520003BE00A6812F4E062DFF8740902430A60BFF340
S31520003BF04F8F00BFFDE7DFF868090069C068002124
S31520003C0001600020704738B5002000218DF8001093
S31520003C10DFF84C49216A4969002943D02069C068E8
S31520003C20006801282AD000232069C06810F1080204
S31520003C302069C068011D206A256A6D696D68A847DC
S31520003C40002807D042F21271884203D042F2137143
S31520003C50884227D12169C9688968002922D020692C
S31520003C60C06881682069C068406800F02FF8002885
S31520003C7018D101212269D268116013E0684600F04C
S31520003C8051F8002804D000212269D268116009E089
S31520003C909DF80010002901D0012100E000212269B1
S31520003CA0D268116032BD0100C9B2002903D00100DB
S31520003CB0C9B2142901DB002007E0DFF8A41809693E
S31520003CC08968C0B201EBC0000838704770B505009E
S31520003CD00E002800047800202000C0B2FFF7E3FF82
S31520003CE0DFF87C281169C96848621069C068406A93
S31520003CF000280ED01069C068406A0068002808D0E5
S31520003D00310028001269D268526A12689047002052
S31520003D1007E042F21075E4B22100280000F05BFBB8
S31520003D20280070BD80B5DFF838281169C968496A4E
S31520003D3000290FD0002101701169C968496A4968B4
S31520003D40002905D01169C968496A4968884700E091
S31520003D50002000E0002002BD80B50178002000F0A0
S31520003D603AFBDFF8FC17086A096A49690969884736
S31520003D70022000F005FCFFF72FFF01BD10B518212A
S31520003D800022DFF8DC070069C06810F10C0420006F
S31520003D9000F032FC10BD10B5040000206068083821
S31520003DA012D0401E0AD0F73811D0401E09D00F3845
S31520003DB010D0103814D0401E0FD014E000F025FE8D
S31520003DC012E001F034FB0FE002F03BF90CE002F0C8
S31520003DD0A9FC09E003F08AF906E003F0EBFE03E014
S31520003DE004F0B8FA00E00420217800F0F4FA10BDBF
S31520003DF010B504000020E268A1686068DFF860372B
S31520003E001B689B699847217800F0E5FA10BD10B52C
S31520003E100400FFF7B3FFDFF8480761680269D2683C
S31520003E20116108210069C06880F8201021780020DF
S31520003E3000F0D1FA04F0E9FD10BD3EB50021019154
S31520003E4000210091DFF818476B4601AA8168406877
S31520003E50C0B2E568AD68A84700212269D268116121
S31520003E60009A9208019900F0D0FA37BD10B50400E7
S31520003E70A1686068C0B2DFF8E826D268D2689047A9
S31520003E80217800F0A8FA10BD1CB504000420616852
S31520003E90092903D1A06800F0F5FB1CE06168082918
S31520003EA003D1A06801F0E8FE15E06168C1F30321A3
S31520003EB0012910D16946606804F0EEFF00280AD176
S31520003EC0DFF89C068168009A142042431144A068BA
S31520003ED0096909698847217800F07DFA13BD10B574
S31520003EE00400FFF74BFFDFF87806E1680269D26825
S31520003EF09161A1680269D268116161680269D2681C
S31520003F00516104210069C06880F8201021780020C2
S31520003F1000F061FA10BD38B50500FFF72FFFDFF876
S31520003F20404613202169C96881F82000E868216984
S31520003F30C96881F82100E86800280DD11020216980
S31520003F40C9680861DFF81C062169C96848612978B3
S31520003F50002000F040FA11E0DFF80C562900DFF8C7
S31520003F60040605F047F848202169C96808612069D8
S31520003F70C06845614821002000F070FA31BD10B5B7
S31520003F800400FFF7FBFEDFF8D805E1680269D26876
S31520003F909161A1680269D268116161680269D2687B
S31520003FA0516103210069C06880F82010A1680020B3
S31520003FB000F06EFA10BD38B50400DFF8A4550020D5
S31520003FC02969C968486100202969C9680861286982
S31520003FD0C06890F82000042805D128680069804729
S31520003FE0002C00D10400286840698047002C00D1AD
S31520003FF004002869C06890F82010200000F0EBF932
S3152000400042F21270844207D12869C06890F82000D5
S31520004010082801D104F050FD31BD80B5DFF84015E8
S315200040200969C96891F82110002902D100F004F825
S3152000403001E000F0A1F802BD2DE9FE430600DFF8FD
S3152000404020753869C0680069002806D100203070C4
S315200040500020FFF7B0FF00208CE001203070386987
S31520004060C068D0F818903869C06805693869C06892
S31520004070D0F814800020009001236A4601A9386AEE
S315200040803C6A64696468A0470400002C0BD0386A37
S31520004090396A4969C96888472000FFF78CFF0020E4
S315200040A03070002066E00098002807D142F2127096
S315200040B0FFF781FF0020307000205BE00098A842C7
S315200040C000D300953869C06890F82000082816D1DA
S315200040D001983969C968C86000983969C968C86192
S315200040E00099019804F09DFC040042F27D70844200
S315200040F003D042F2747084421CD100241AE038693D
S31520004100C06890F82000132809D1009A0199C14669
S315200041104846FFF70DFD009810EB08080AE04B46CD
S31520004120019A009940463C68A468A047040000987C
S3152000413010EB080800982D1A2800002805D1200029
S31520004140FFF739FF0020307013E0002C0AD0386AC0
S31520004150396A4969C96888472000FFF72CFF002083
S31520004160307006E03969C96808613869C068C0F8E6
S3152000417014800020BDE8FE832DE9FE4F0600DFF8FF
S31520004180E0733869C0680069002806D100203070C5
S315200041900020FFF710FF002079E0012030703869F9
S315200041A0C068806901903869C068D0F810B0386955
S315200041B0C068D0F814803869C068C4683869C06897
S315200041C090F820008DF800000025DFF8A093386ACB
S315200041D0396A4969496988478246DA4500D3DA4609
S315200041E0002C09D0524621004D462800FFF7A0FC9E
S315200041F004EB0A00002518E09DF80000032808D1EA
S31520004200019B4A46514640463C686468A0470500E3
S3152000421009E09DF80000132805D1524641464C4638
S315200042202000FFF785FC1AEB0808002D0ED001238D
S3152000423000224946386A3C6A6469A468A047280077
S31520004240FFF7B9FE00203070002020E0BBEB0A0B00
S315200042505C46012352464946386A3D6A6D69AD6817
S31520004260A847002C04D1FFF7A6FE002030700DE0F1
S31520004270002804D0FFF79FFE0020307006E0386942
S31520004280C06804613869C068C0F814800020BDE8A1
S31520004290FE8F10B50400E268A1686068B04B1B6809
S315200042A0DB689847217800F096F810BD2DE9F0419B
S315200042B00700D7F80480BE68AD4DF8682860002452
S315200042C02868002805D0286804F042FF002800D17D
S315200042D00424404604F022FF002800D10424397823
S315200042E0200000F078F8002C16D1A24CC4F80080EB
S315200042F0002000F045F9A0490E602868002805D066
S31520004300286880F30888286880F309880868216867
S315200043108847002000F034F9BDE8F08138B5040064
S315200043200020606804F0FAFE002801D1042005E090
S315200043306568012000F024F9A068A847217800F0DC
S315200043404AF831BD38B50400002004F0D5FFA36833
S3152000435014F10C026168894805F015F8050004F08F
S31520004360D1FF2178280000F036F831BD3EB5040093
S31520004370684600210022C0E90012002004F0BCFF9C
S31520004380A3686A4661687D4805F03EF8050004F09A
S31520004390B9FFA2686946280000F094F837BD10B529
S315200043A00400FFF7EBFC6E48A1680269D268116130
S315200043B061680269D268516110210269D26882F867
S315200043C02010E1680069C06880F82110A1680020EB
S315200043D000F0A8F810BD1FB5A0228DF800200022FD
S315200043E08DF8012000228DF8022002228DF803206C
S315200043F0019002915A4C00230C226946206A246AB5
S315200044006469A468A04700281FBD10B588B0A723FB
S315200044108DF8003000238DF8013000238DF802300E
S31520004420531C8DF803300190002006E051F820300F
S315200044306C4604EB8004A360401C9042F6D39DF8A2
S3152000444003008200121D464C00236946206A246A16
S315200044506469A468A047002808B010BD1FB5B32220
S315200044608DF8002001228DF8012000228DF80220EF
S3152000447002228DF8032001900291394C00230C2250
S315200044806946206A246A6469A468A04700281FBD7B
S315200044901FB5A3228DF8002001228DF801200022CD
S315200044A08DF8022002228DF80320019002912C4CD7
S315200044B000230C226946206A246A6469A468A047FE
S315200044C000281FBD10B588B0AF238DF8003000231B
S315200044D08DF8013000238DF8023002238DF8033049
S315200044E0019000280DD19DF8030013009B0853FA74
S315200044F080F08DF80300029203AC2000FFF718FB32
S3152000450001E0002002909DF803008200121D144C49
S3152000451000236946206A246A6469A468A0470028A3
S3152000452008B010BD1FB5B0228DF8002001228DF8ED
S31520004530012000228DF8022002228DF8032001900E
S315200045400291074C00230C226946206A246A64697A
S31520004550A468A04700281FBD0CED00E00400FA0562
S3152000456010802020489C2020589C202050982020D5
S31520004570A09C2020A49C2020A89C202000401F40F6
S3152000458038B504002000C0B2012819D0002510E05B
S3152000459001FB05F01044C0688068002808D001FBA4
S315200045A005F0104401FB05F11144C9688968884764
S315200045B06D1C18210E4A01FB05F010580028E7D182
S315200045C0E4B2002C0ED104F097FEFEF740FE05F073
S315200045D01BF80020074908600120FEF789FF05F037
S315200045E01EFC62B6BFF36F8FBFF34F8F31BD00BF86
S315200045F0342D002008ED00E062F30F2262F31F4203
S31520004600401810F0030308D0C91A1FD3DB0748BF90
S3152000461000F8012D28BF20F8022D130030B41446CF
S315200046201546103928BF20E93C00FAD8490728BF8B
S3152000463020E90C0048BF40F8042D890028BF20F847
S31520004640022D48BF00F8012D30BC7047C91818BF8D
S3152000465000F8012DCB0728BF00F8012D7047FEE793
S315200046602022BFF34F8F04E0DFF80C3518601018B6
S31520004670891A0129F8DABFF34F8FBFF36F8F70477E
S31520004680012070472DE9F843ADF5007D070004248D
S3152000469000260025B84608F2FF19404604F03EFDE4
S315200046A0002804D0484604F039FD002800D18BE0CC
S315200046B04246D8F80000390013681B0F0C2B18D17E
S315200046C0DFF8B814002007F083FD0400002C7BD10E
S315200046D00126F6B2002E2FD0DFF8A4640020307019
S315200046E0DFF89814002005F0E9FC0400002C1AD00D
S315200046F06AE0DFF89024904206D1DFF8840400783F
S315200047000028E6D00125E4E70868DFF87C249042FB
S3152000471008D14FF40072DFF864643000FFF708FA1E
S315200047200126D6E750E000F035FA00F0E9F904005A
S31520004730002C49D101203070EDB2002D44D04FF429
S3152000474000715FF0C04004F00BFC002839D0DFF880
S315200047502C542A0095F8CA01002801D0012000E037
S315200047600020C0B2002810D02800002109E000EB6C
S31520004770010252786B465A54425C6B460B445A707F
S31520004780891CB1F5007FF2D36A464FF400715FF0C1
S31520004790C04000F02FF80400002C06D04FF4007122
S315200047A05FF0C04000F0DDF90EE000F0B7F804003D
S315200047B0002C09D0D5F8C4115FF0C04000F0F7F8FE
S315200047C002E042F2DB74FFE720000DF5017DBDE833
S315200047D0F08370B504000D00160000F0A2F9002841
S315200047E002D142F2DD7004E032002900200007F0F9
S315200047F0E9FE70BD2DE9F04706000C00150000F01B
S3152000480090F9002802D142F2DD704DE0FFE7002C3E
S3152000481049D0DFF86C737878002818D1DFF85C036C
S31520004820D0F8C001401E064202D044F689603BE023
S31520004830012078700020B8607E60DFF84083B86879
S315200048402018D8F8C01188420BD2A1460FE0B968CB
S3152000485078684118B142F0D000F060F80028D6D030
S3152000486022E0D8F8C001D7F80890B0EB09094A46EB
S315200048702900B868384410F1100A5046FFF758F955
S31520004880B86819EB0000B86019EB06064D44B4EB86
S315200048900904B868D8F8C0118842B8D100F03EF8AB
S315200048A00028B4D000E00020BDE8F08776B50600E9
S315200048B00D0000F036F9002802D142F2DD701BE02F
S315200048C0AC08A40015F0030501E0361D241F002CBA
S315200048D007D001AA04213000FFF78CFF0028F4D06E
S315200048E00AE0002D06D001AA29003000FFF782FF3A
S315200048F0002801D100F012F876BD80B5012204F01F
S315200049002FFBC0B202BD80B5012307F077FE002839
S3152000491001D1012000E00020C0B202BDF8B500247C
S31520004920974D6878002840D000206870934EA8687C
S31520004930D6F8C01188420BD0D6F8C001A968411A12
S31520004940FF22A868284410F110042000FFF754FE27
S31520004950D6F8C0116868FFF7D0FF002802D142F2CE
S31520004960DB7023E015F110073900686800F0E0F8E5
S315200049700400002068700020A860002C01D02000D0
S3152000498014E082480068C00304D5D6F8C0116868D0
S31520004990FFF766FED6F8C02139006868FFF7B3FF37
S315200049A0002802D144F68A6000E02000F2BDF8B566
S315200049B004000F0000F0B5F8002802D142F2DD70A5
S315200049C022E06E48D0F8C4516E4226403C1964421B
S315200049D0684204406442A41B2100300000F0C1F864
S315200049E0002811D169480068C00303D5290030008A
S315200049F0FFF736FE21003000FFF77FFF002802D1A7
S31520004A0044F68A6000E00020F2BDE0B500F089F8A7
S31520004A10002802D142F2DD7021E000F09CF8002847
S31520004A201DD101A9012000F01BF8002817D16946E5
S31520004A30102000F015F8002811D154480068C00352
S31520004A4003D500990198FFF70BFE0099019804F011
S31520004A5087FA002802D144F68A6000E000200EBDC5
S31520004A6010B50C00002C01D1042018E000280CD031
S31520004A70012815D0022817D0032820D0042823D0B7
S31520004A80052826D010282FD038E000F04AF8002834
S31520004A9001D0002001E042F2DD702060002010BD30
S31520004AA05FF0C0402060F9E734490A6D486D8218EE
S31520004AB0886D8218C86D8218920A2260EEE72F4808
S31520004AC0D0F8C0012060E9E72C48D0F8C401206066
S31520004AD0E4E72A49D1F8D001002803D0D1F8D00143
S31520004AE02060DBE70420DAE724490A6D486D821846
S31520004AF0886D8218C86D82182260CFE70420CEE721
S31520004B0080B569461020FFF7ABFF002808D1204961
S31520004B10012088630A6B00988218521E4A6300207F
S31520004B2002BD1748007870471949096B401A70472B
S31520004B3038B504000D0004F0DFFB2000FFF7F4FF7A
S31520004B402B0002000D49002005F0FFFB040004F0B5
S31520004B50D9FB200032BD80B50849002005F062FC53
S31520004B6002BD10B50C00FFF7DFFF2300020003494A
S31520004B70002007F0C3FB10BD5CEF00E0E09E202084
S31520004B80E0A020200F0000F04643464214ED00E04E
S31520004B905080202080B5002008F0F7FA01BD30B4FF
S31520004BA0002513E050F8042BD30744BFA9F10103D5
S31520004BB09A18091F042942F8045BFAD213468C0777
S31520004BC044BF15809B1CC90748BF1D7050F8041BA5
S31520004BD00029E7D130BC704701000020002901D010
S31520004BE0012900D10120C0B270473EB505F0D4F8A6
S31520004BF0022801D0012040E0DFF8444C14F58075EE
S31520004C00280008F0C9FB002837D1280000F0BFFE95
S31520004C10002832D101A902A808F0AAFB019902981E
S31520004C2000F04BFD002828D1280000F0B0FE002817
S31520004C3023D1200000F0D0FD00281ED10120DFF86E
S31520004C40041C0870694640F2011004F025F900287A
S31520004C5013D11422DFF8F03BD4F8C012009D55433F
S31520004C601D44E960D4F8DC52D4F8C8124D430099AB
S31520004C7002FB01F203EB02018D603EBDFEB504008E
S31520004C800420002C04D0DFF8BC5B2978002900D151
S31520004C9063E02168090F0B295FD12168C1F3036105
S31520004CA0012901D0002958D1002912D1200008F06D
S31520004CB059FC002804D0002142F22402A9544CE0D9
S31520004CC0A16842F22802A950012142F22402A954E5
S31520004CD043E0012941D142F22401695C00293CD0FC
S31520004CE0207810F00F00082801D3042035E0DFF8E3
S31520004CF0501B01EBC002146C01EBC000466CD1F8CE
S31520004D00C07242F228002D5807FB0454694601A8B8
S31520004D1008F06AFC002820D100982D18B5FBF7F082
S31520004D20864201D2042018E0781E044201D00420D5
S31520004D3013E0B4FBF7F40121200000F09AFC0028D0
S31520004D4002D142F2DB7008E0019A0099200000F0BF
S31520004D50E5FD002801D100F0E8FAFEBDF8B5040013
S31520004D600D000426002C01D0002D00D198E02878D3
S31520004D7010F00F00C01E082880F092804FF480614A
S31520004D80002227003800FFF737FC686804F0C6F9D0
S31520004D90002805D06868083004F0C0F9002800D142
S31520004DA07EE06A6814F58071002008F0E9FE0600AE
S31520004DB0002E75D12868C0F303273800FFF70CFFB3
S31520004DC0002803D0DFF87C0A476003E00020DFF8E4
S31520004DD0741A48602B7813F00F039B1E092B5FD2A1
S31520004DE02868C0F303572868C0F30361002F05D055
S31520004DF0022F07D004D3032F07D008E0402706E070
S31520004E00802704E04FF4807701E02027FFE7202F5A
S31520004E1046D3002901D0052900D341E027826182AB
S31520004E20DFF83C0C60600120A06007FB01F0E06029
S31520004E306361002015E005EB80025689D4F8C8226C
S31520004E40564305EB8002B2F808C0D4F8C82202FB0C
S31520004E500CFC04EBC002C2F844C004EBC00216648A
S31520004E60401C984215D2002806D1D4F8C822B7FB98
S31520004E70F2F24A43520007E005EB8002D28805EBA6
S31520004E808006B68816FA82F205EB80067689964267
S31520004E90D1D24FF47F71201D00F0A6FD20600026A0
S31520004EA03000F2BDF8B5060004240025300000F2DB
S31520004EB0FF3704F033F9002804D0380004F02EF927
S31520004EC0002800D17BE03700310030000A68120F3D
S31520004ED00C2A18D1DFF86809FFF740FF0400002CE0
S31520004EE06DD10020DFF85C1908700125EDB2002D88
S31520004EF065D0DFF84C5915F5807000F048FD0400A8
S31520004F00002C27D05BE07968DFF8542B914214D12E
S31520004F104FF48061300000F059FD00284FD000206A
S31520004F20DFF8201908704FF48062DFF81459390031
S31520004F302800FEF7FDFD0125D8E70068000F0B28A5
S31520004F4007D13000FFF79AFE0400002C37D1002449
S31520004F50CCE734E0280000F03FFC002807D000F022
S31520004F6057FD280000F072FC0400002C27D12800F1
S31520004F7000F0D8FB0400002C21D10120DFF8C41852
S31520004F800870694640F2011003F086FF0400002CE9
S31520004F9001D0200014E01421DFF8AC28D5F8C00297
S31520004FA0009B4B431344D860D5F8DC32D5F8C802B1
S31520004FB04343009801FB00F102EB010083602000CF
S31520004FC0F2BD2DE9F84F83460D0016000424002E6D
S31520004FD06ED000F01AFD002802D142F2DD7467E09F
S31520004FE0DFF85C88D8F8C072DFF858A8DAF8040031
S31520004FF001282AD19AF80C00002811D1D8F8DC0211
S31520005000834555D201208AF80C00CAF808B05FF013
S315200050100009D8F8C80200FB0BFBCDF800B01BE056
S31520005020DAF80810D8F8C8024143D8F8C00200FBC5
S3152000503001BBDAF80800BBEB000BBBFBF7F907FB5B
S3152000504019B9BBFBF7F0009006E0BBFBF7F907FBAD
S3152000505019B9BBFBF7F00090684600F016FD0BE08F
S3152000506042F220005AF80010491C4AF80010009914
S31520005070D8F8C80241180091002D14D0009800F0ED
S3152000508039FD002822D10098D8F8C812B0FBF1FBD0
S31520005090584600F005FD002812D0D8F8DC028345DA
S315200050A009D342F2D874002C02D000208AF80C00D2
S315200050B02000BDE8F28F584600F0C1FC0028CFD171
S315200050C0009800F02EFA0400002C1AD115EB0900E6
S315200050D0874217D32C0022000AEB090010F10D019C
S315200050E0B3465846FEF724FD2D1B264414EB09092A
S315200050F0B94504D3B9EB07090098401C0090002459
S31520005100BAE7D0E7B7EB0904E5E72DE9FE4F82467B
S315200051100D0016000424002E00F0B28000F075FC6D
S31520005120002802D142F2DD74AAE0DFF81497D9F8FC
S31520005130C0020190DFF80C87D8F8040001285FD15F
S3152000514098F80C0000281DD1D9F8DC02824580F0A1
S315200051509780002042F2140108F80100012088F807
S315200051600C00C8F808A00027D9F8C80200FB0AFAE4
S31520005170CDF800A00098019901FB0050DFF8B41982
S31520005180086047E0D8F80820D9F8C8024243D9F881
S31520005190C00200FB02A2D8F80810511A0198B1FBF0
S315200051A0F0F7019800FB17170198B1FBF0F000907B
S315200051B0DFF880B9DBF8000081421DD042F21400EE
S315200051C018F80000002808D000F0C2F90400002CCE
S315200051D003D0002088F80C0052E0012088F80C004B
S315200051E0C8F808A00027D8F80810D9F8C802414303
S315200051F000910099019841436918CBF8001009E005
S315200052000198BAFBF0F7019800FB17A70198BAFBA3
S31520005210F0F000900098D9F84010884230D36846C4
S3152000522000F033FC10E0504600F009FC00282AD09C
S3152000523042F2200058F80010491C48F80010009946
S31520005240D9F8C80241180091002D14D0009800F01A
S3152000525061FC002833D10098D9F8C812B0FBF1FAC6
S31520005260504600F032FC00280DD0D9F8DC028245E9
S31520005270D9D342F2D874002C02D0002088F80C0032
S315200052802000BDE8FE8F42F2140A18F80A00002812
S3152000529004D000F05DF90400002CECD1002F02D0E0
S315200052A044F62A64E7E742F2180048F800700098AE
S315200052B042F21C0148F80100012008F80A0042F2D7
S315200052C0180458F80400B84205D000F041F904004B
S315200052D0002CD0D1B8E70198E919884201D3AA4613
S315200052E003E0DDF804A0BAEB070A5246310008EBCA
S315200052F0070041F2140300EB030B5846FEF718FC97
S3152000530058F804001AEB000048F80400B5EB0A052B
S3152000531056441AEB07070198874204D301983F1A8F
S315200053200098401C009000248EE780B50020DFF80E
S3152000533008180978002901D000F00AF902BD10B535
S315200053400020DFF800456178002903D0DFF8F0045B
S3152000535000F07CFA002142F21402A154002141F20D
S315200053600D02A154002142F22002A15000212173F6
S3152000537010BD2DE9F04781460D00042400F045FBC1
S31520005380002802D142F2DD744EE0002D01D1002426
S315200053904AE0DFF8AC64D6F8DC72DFF8A884D8F8E7
S315200053A00400012801D1CA4616E0D6F8C002B9FB8E
S315200053B0F0F0D6F8C812B0FBF1FA15EB0909B9F1ED
S315200053C00109D6F8C002B9FBF0F0D6F8C812B0FB36
S315200053D0F1F5B5EB0A056D1C306CD6F8C812B0FB9A
S315200053E0F1F0824512D21FE06D1E0DE0504600F00E
S315200053F026FB002808D1504600F0C5FA0400002CF0
S31520005400F2D0504600F02EFB1AF1010A002D01D0F1
S31520005410BA45EBD398F80100002805D0300000F0FB
S3152000542015FA0400002CFFD12000BDE8F08770B5E6
S3152000543000F0EBFA002802D142F2DD701EE00024D3
S31520005440DFF8FC63D6F8DC5200E0641CAC420AD2DA
S31520005450200000F0F4FA0028F7D1200000F093FA9B
S315200054600028F2D00AE0DFF8DC034078002804D0D8
S31520005470300000F0EBF9002800D1002070BD10B5F7
S315200054800C00002C01D1042016E000280AD00128A7
S3152000549013D0022814D0032823D0052827D010287B
S315200054A02ED03CE000F0B1FA002801D0002001E027
S315200054B042F2DD702060002010BD00202060FAE757
S315200054C0DFF87C13D1F85021D1F854018218D1F895
S315200054D058018218D1F85C0182185208920A22607B
S315200054E0E9E7DFF85C03D0F8C0022060E3E7DFF8E5
S315200054F05003D0F8C012D0F8C80241432160DAE741
S31520005500DFF83C13D1F85021D1F854018218D1F894
S3152000551058018218D1F85C0182182260CBE704205A
S31520005520CAE770B5040041F20D05C64E002070553D
S3152000553016F10D02C248D0F8C012200000F0D2F9B0
S31520005540002804D10121715541F21001745070BD1B
S315200055502DE9F041BA4D42F21806BA4CA059D5F8B9
S31520005560C012884201D000202073002042F214018C
S31520005570605442F21C0027580121380000F079F8C7
S31520005580002802D142F2DB7036E041F2140004EB2F
S315200055900002A159380000F0C1F900282CD0D5F816
S315200055A0C802B7FBF0F8404600F05CFA42F220064B
S315200055B0A059401CA051D5F8DC5218F1010807E08B
S315200055C0404600F04FFA18F10108A059401CA0519E
S315200055D0A8450FD2404600F032FA0028F3D14146C2
S315200055E0380000F00BF8002803D042F2DB71884225
S315200055F0E6D101E042F2D870BDE8F0812DE9F04114
S3152000560004000D0000208E4ED6F8C802211BB4FBE4
S31520005610F0F700FB0717D6F8C8024543E11B491CE3
S31520005620280000F026F800280CD142F2DB701EE09C
S315200056304246D6F8C012280000F070F900280ED194
S315200056407F1C6D1CA7420BD2DFF8F0844246D6F8A9
S31520005650C012380000F046F90028E9D007E006E03D
S31520005660DFF8DC24D6F8C012280000F057F9BDE890
S31520005670F081F8B505000C007148D0F8C06200E052
S31520005680641E002C17D0DFF8B4743A0031002800CD
S3152000569000F028F96D1C002801D1002003E000202D
S315200056A00AE03F1D001DB042EAD2396811F1010F10
S315200056B0F7D0002000E00120F2BD2DE9F0410400E2
S315200056C00D000026002701E0761CEF19300080B27D
S315200056D0A04224D2DFF8648442464FF48061380029
S315200056E000F000F90028EFD1D8F80400DFF8701395
S315200056F0884203D1D8F80800012800D0E4E74FF407
S315200057008061404600F062F90028DDD04FF48062C7
S315200057104B4C41462000FEF70BFA002000E001200A
S31520005720BDE8F0812DE9F84F050044F62966688A20
S3152000573000902F8A009800FB07F0D5F8C812B0FB1E
S31520005740F1F801245FF000095FF0000A0BE04FF446
S3152000575080622900584606F051FF002812D119F11F
S31520005760010917EB0A0A009881450CD2DFF8CCB361
S315200057705A464FF48061504600F0B4F80028E6D02F
S31520005780002400E00024E4B2002C21D1002403E010
S31520005790200000F014F9641C4445F9D300245FF07E
S315200057A000080098844214D22A004FF480614046B3
S315200057B000F0B4F8002801D1002605E0D5F8C8028B
S315200057C0B8FBF0F000F0FBF8641C17EB0808E8E7DC
S315200057D000263000BDE8F28F2DE9F041DFF8644362
S315200057E000216160458A068A0027D0F80C8002E0F5
S315200057F07F1C16EB0808380080B2A8421DD238005C
S3152000580080B2082819DA22004FF48461404600F05D
S3152000581069F80028ECD16068DFF82C13884202D1A1
S31520005820A068012800D0E3E74FF48461200000F04F
S31520005830CDF80028DCD0002000E00120BDE8F08172
S315200058401C0821203C102120C08020202DE9F04773
S31520005850040044F62965668A278A06FB07F0D4F8F1
S31520005860C812B0FBF1F8E068D4F8C812B0FBF1FA20
S315200058705FF0000905E01AFA89F000F0A0F819F1A6
S315200058800109484680B24045F5D3DFF8B88240F298
S315200058901C4118F1040000F0A7F8C8F800005FF0DA
S315200058A00009D4F80CA016E00020A849487000256D
S315200058B00DE042464FF48461504600F02FF8002850
S315200058C0F2D0D4F8C802BAFBF0F000F078F819F15B
S315200058D0010917EB0A0A484680B2B042E9D32800EC
S315200058E0BDE8F087F8B505000C00160002E03E443E
S315200058F0E41B6D1C002C10D09548D0F8C012A14294
S3152000590002D2D0F8C07200E0270032003900280009
S3152000591000F043F80028EAD0FFE7F2BD2DE9F8436E
S3152000592007000C00160014E0DFF810924A464146A4
S31520005930380000F032F80500002D1DD142464946B8
S31520005940300006F05BFE002818D14644B4EB08046C
S315200059507F1C002C14D07E48D0F8C012A14202D25F
S31520005960D0F8C08200E0A04632004146380000F060
S315200059701DF80028D8D004E0280002E0012000E02D
S315200059802800BDE8F28380B500F019F802BD80B585
S315200059900100002007F0D3FE02BD80B51300009160
S315200059A002006C49002007F0E0FE02BD80B513001E
S315200059B0009102006749002007F0FAFF02BD80B57A
S315200059C002006449002007F089FF02BD10B50400DB
S315200059D0091F201D00F008F82168884201D1012006
S315200059E000E00020C0B210BD3EB504000D0001A8A5
S315200059F008F032FA2A00210001A808F033FA694695
S31520005A0001A808F046FA00983EBD50480078704735
S31520005A1038B54FF48461FF224A4C25002800FEF752
S31520005A20EBFD494860600120A0600020206140F223
S31520005A301C41201DFFF7D8FF2060002032BD002129
S31520005A4000E0491C3F4A1369994206D202EB8102C3
S31520005A50126A8242F5D1012000E000207047000042
S31520005A604243464E37490A69B2F5807F0BD20A690E
S31520005A7001EB820210620869401C0861012033494B
S31520005A804870002000E001207047026832490B6808
S31520005A902F49D1F8C81201FB03220260002070476B
S31520005AA02A4A41F20D01515C002909D041F2100128
S31520005AB05158274AD2F8C822B1FBF2F1884201D0C8
S31520005AC0012000E00020C0B27047204A42F21401B3
S31520005AD0515C002909D042F21C0151581C4AD2F8C7
S31520005AE0C822B1FBF2F1884201D0012000E000205B
S31520005AF0C0B27047154941F210028A58824206D137
S31520005B0041F20D00085C002801D0012000E00020B1
S31520005B10C0B270470D4942F21C028A58824206D111
S31520005B2042F21400085C002801D0012000E0002089
S31520005B30C0B27047683021205030212049102120E2
S31520005B40502021201C0C2120544242443C1021206C
S31520005B501C0821201C0921205C30212030B585B06D
S31520005B6004000420002C04D0DFF8D8552978002919
S31520005B7000D11BE02168090F0B2917D12168C1F339
S31520005B800361012901D0002910D1002910D120005C
S31520005B9007F0E8FC002803D0002185F80C1305E067
S31520005BA0A168C5F81013012185F80C1305B030BD86
S31520005BB00129FBD195F80C130029F7D0217811F093
S31520005BC00F010029F2D1002003900020029003A9A2
S31520005BD0012000F044FA0028E8D102A9102000F0A4
S31520005BE03EFA0028E2D101A9032000F038FA002865
S31520005BF0DCD1D5F81043039D6519694604A807F042
S31520005C00F3FC0028D2D10299009AA418A142CDD340
S31520005C100199491E0D42C9D10199280008F09FFC1F
S31520005C20002802D042F2DB70C0E7049A00992800CF
S31520005C3000F002F90028B9D0B8E738B504F0ACF87E
S31520005C40102801D0012016E0DFF8F8542C1D200082
S31520005C5008F021FE00280ED1200008F09EFC04004A
S31520005C60002C01D0200006E000F041FA002C01D1E2
S31520005C7001202870200032BD70B50500280010F1E3
S31520005C80FF0403F04BFA002804D0200003F046FA64
S31520005C90002801D10420BDE02C00280029000A6834
S31520005CA0DFF8A4349A4211D14FF48072DFF89C4475
S31520005CB02000FDF73DFFDFF88C4400202070201DDA
S31520005CC008F06BFC002800F09D80A3E02168090FF6
S31520005CD00D2940F08C802068C0F30120002803D0D5
S31520005CE02068C0F3012000E00120216860F309212B
S31520005CF02160DFF85064351D280008F0CCFD00280F
S31520005D0040F0888005203074182086F825002078F9
S31520005D1010F0030086F856002068C0F30120C0B2B8
S31520005D20C00086F826002068800A10F0010086F858
S31520005D302E002068000B10F0070086F82C00206843
S31520005D40C0F3810086F8550096F855000228B2D196
S31520005D502E00A2880021280008F0B6F886F8380020
S31520005D60E2880021280008F0AFF886F83900228959
S31520005D700021280008F0A8F886F83A006289002158
S31520005D80280008F0A1F886F83B00A2890021280007
S31520005D9008F09AF886F83C00E28A0021280008F0EC
S31520005DA093F886F83F00228B0121280008F08CF812
S31520005DB086F84000E2890021280008F085F886F858
S31520005DC04100228A0021280008F07EF886F83D004E
S31520005DD0628A0021280008F077F886F83E00A28A19
S31520005DE00021280008F070F886F8420063E7006872
S31520005DF0000F0B2803D12800FFF7B0FE0AE045F27A
S31520005E007C2007E000F073F900F086F9002801D124
S31520005E100121217070BD70B504000D00160000F040
S31520005E2063F9002802D142F2DD7004E03200290035
S31520005E30200006F0C7FB70BD2DE9F84305000C00D5
S31520005E401600002000F050F9002802D142F2DD7041
S31520005E505CE02100280008F082FB002802D042F2F4
S31520005E60DB7053E0002C50D0B64FD7F8080100283D
S31520005E701CD1D7F80401002818D197F8260008214C
S31520005E8090FBF1F0B5FBF0F100FB1150002802D099
S31520005E9042F2DE703AE0C7F80451D7F8080120181C
S31520005EA040F2012188420DD2A0460FE0D7F8041116
S31520005EB0D7F808014118A942EFD000F070F8002861
S31520005EC0D0D023E0D7F80881D8F5007842463100B3
S31520005ED0D7F80801384410F586794846FDF728FE9C
S31520005EE0D7F8080118EB0000C7F80801464418EB5C
S31520005EF00505B4EB0804D7F80801B0F5007FB1D149
S31520005F0000F04DF80028ADD000E00020BDE8F28377
S31520005F102DE9FC4105000C001600671900F0E4F895
S31520005F20002802D142F2DD7037E06946012000F0F8
S31520005F3096F801A9102000F092F80098854204D323
S31520005F40009901984118B94202D245F26D2024E009
S31520005F507C4F17F5867840468021002202E00660B5
S31520005F60001D521C8A42FAD3002C14D00020C7F8F8
S31520005F700801B4F5007F01D2260001E04FF4007637
S31520005F80424631002800FFF757FF002802D1751935
S31520005F90A41BE9E701E000F002F8BDE8F68110B5A0
S31520005FA00020684CD4F80811002910D0D4F8041128
S31520005FB0D4F808310020C4F804010020C4F80801F0
S31520005FC014F58672201D08F00FFB0028FFD110BDA6
S31520005FD0FEB506000D00AF1900F086F8002802D1A4
S31520005FE042F2DD702CE06946012000F038F801A964
S31520005FF0052000F034F802A9102000F030F80098AF
S31520006000864204D3009902984118B94202D245F239
S315200060106D2015E0002D03D1002011E0019886198E
S31520006020BE420CD20098301A0199B0FBF1F14748D4
S3152000603008F01BFB0400002CF0D0200000E020001C
S31520006040FEBDE0B501A9012000F009F8694610203F
S3152000605000F005F800990198FFF7BAFF0EBD10B5BC
S315200060600C00002C01D1042016E000280AD00128BB
S3152000607013D0022815D003281CD005281FD010289D
S3152000608028D02FE000F030F8002801D0002001E0D1
S3152000609042F2DD702060002010BD2A484069206051
S315200060A0F9E72848D0F8A810D0F8AC004143890A6F
S315200060B02160F0E72348D0F8A4002060EBE72149CF
S315200060C0D1F8A800002803D0D1F8A8002060E2E784
S315200060D00420E1E71B48D0F8A810D0F8AC004143D3
S315200060E02160D8E70420D7E7164800787047E0B546
S315200060F001A90520FFF7B3FF69461020FFF7AFFF80
S3152000610010488169009A914205D28169019AB1FBB2
S31520006110F2F1C0F8AC1007BDE0B501A90120FFF7E8
S315200061209EFF69461020FFF79AFF094901980864E7
S315200061300A6C00988218521E4A6401208864002046
S315200061400EBD00009400212053454D439800212088
S31520006150508020202DE9FC4103F01EFE202801D08E
S3152000616001203EE000F0C5FDDFF8A46C16F580772F
S31520006170380008F006FD002833D1380009F098FCD5
S3152000618000282ED1694601A808F0C8FB009B019A79
S315200061900021002000F0A8FC002822D14FF48062C4
S315200061A0DFF8704CA51C2900B0464046FDF7C0FC20
S315200061B0380009F07DFC002813D1009B019AF16874
S315200061C0012000F091FC00280BD14FF48462DFF807
S315200061D0746C29003000FDF7ABFC0120207000F024
S315200061E0B4FDBDE8F6812DE9F0410500280000F256
S315200061F0FF3402F093FF002804D0200002F08EFF27
S31520006200002801D104200FE12C002900002000F0F5
S3152000621046FC002814D00020DFF8F81B08704FF445
S315200062208062DFF8EC4B260029003000FDF780FC69
S3152000623014F5807009F03CFC002800F0CC80F3E0D7
S315200062402068000F0D2840F0D880207910F00F0F1D
S3152000625003D0257915F00F0500E001256068C0F30D
S315200062600340002803D06068C0F3034600E00126FF
S315200062702068C0F30120002803D02068C0F3012045
S3152000628000E00120216860F3092121606068C0F3E5
S315200062900720002803D06068C0F3072000E0012013
S315200062A0616860F30F216160207810F007000128F3
S315200062B002DA45F2E420B7E0092E02D345F2E520C2
S315200062C0B2E00020DFF84C1B087000F012FDDFF86A
S315200062D0407B17F58078404608F053FC002840F0B4
S315200062E0A380002087F85C01052087F80C01002098
S315200062F087F85D01002087F80901207810F0070053
S3152000630087F852012068C0F3C00087F82001206872
S31520006310C0F30210401C87F853012068C0F3012007
S31520006320C0B2C00087F821012068000B10F00700DA
S3152000633087F830012068000C10F0010087F855011D
S315200063402068400C10F0010087F85601404609F0FD
S31520006350AFFB002868D16068C0F30722D7F8A801F0
S3152000636042436068C0F3072068434300002018E0DA
S3152000637004EB8001B1F808C0D7F8A81101FB0CFC8A
S3152000638007EBC001C1F844C004EB8001B1F80AC094
S31520006390D7F8A81101FB0CFC07EBC001C1F840C0DF
S315200063A0401CB04211D2002807D004EB8001C988D6
S315200063B004EB80039B8813FA81F304EB800149895F
S315200063C09942D5D245F2E6202EE03A827D8202FB22
S315200063D005F2FA607E61DFF8380A038A428AC168CC
S315200063E0012000F081FB00280AD000F097FC012054
S315200063F000F0B2FB00280CD016E045F2E02013E0B6
S315200064004FF48462DFF8601ADFF8384A2000FDF77F
S315200064108FFB002000F0A0FB002805D10120DFF82B
S31520006420F419087000F091FCBDE8F0812DE9FC47D5
S315200064300C001600DFF8D889D8F8A071B0FBF7F960
S3152000644007FB1909B0FBF7F00090002E01D10420BC
S3152000645058E000F04BFC002802D142F2DD7051E0FA
S31520006460684600F0A5FC0BE044F21400DFF8A419FE
S315200064700A58521C0A500099D8F8A80141180091D0
S31520006480002C3ED0009800F0B2FC00281ED10098C7
S31520006490D8F8A811B0FBF1FA504600F093FC00287A
S315200064A00ED1D8F8AC11D8F8B00141438A4502D3B1
S315200064B042F2D87026E0009800F0EDFB0028D3D1F8
S315200064C0009800F0E4F90500002D1AD114EB09001C
S315200064D0874219D325002A00DFF838094844811C51
S315200064E0B2465046FDF724FB641B2E4415EB0909E2
S315200064F0B94504D3B9EB07090098401C0090002544
S31520006500BEE72800BDE8F687B7EB0905E3E72DE9E6
S31520006510FE4F0D001700DFF8F888D8F8A01101917A
S315200065200199B0FBF1F6019901FB16060199B0FB22
S31520006530F1F00090002F01D104204CE000F0D6FBB2
S31520006540002802D142F2DD7045E00098D8F84010CC
S31520006550884202D245F2E3203DE0684600F028FC5E
S3152000656010E0009800F097FB002826D044F2140192
S31520006570DFF8A0084258521C42500099D8F8A801CA
S3152000658041180091002D25D0009800F05DFC0028D0
S3152000659034D10098D8F8A811B0FBF1F9484600F09C
S315200065A03BFC002809D1D8F8AC11D8F8B0014143FA
S315200065B08945D6D342F2D8700DE044F2080ADFF8B6
S315200065C0549819F80A00002807D000F07AF9040038
S315200065D0002C02D02000BDE8FE8F002E02D045F20E
S315200065E0D120F8E744F20C0049F80060009844F204
S315200065F0100149F80100012009F80A0044F20C09AB
S31520006600DFF8104854F80900B04205D000F059F9D7
S315200066100400002CDED1B5E70198A919884201D3E0
S31520006620AA4603E0DDF804A0BAEB060A5246390072
S3152000663004EB060042F2080300EB030B5846FDF775
S3152000664077FA54F809001AEB000044F80900B5EB74
S315200066500A0557441AEB06060198864204D3019888
S31520006660361A0098401C009000248BE72DE9F84349
S3152000667080460D00DFF89877D7F8B061D7F8AC01DF
S31520006680464300F033FB002802D142F2DD7047E09A
S31520006690002D01D1002043E0D7F8A001B8FBF0F08F
S315200066A0D7F8A811B0FBF1F915EB0808B8F10108E5
S315200066B0D7F8A001B8FBF0F0D7F8A811B0FBF1F598
S315200066C0B5EB09056D1C386CD7F8A811B0FBF1F0B5
S315200066D0814517D245F2E32022E06D1E10E0D7F85F
S315200066E0A80100FB09F000F0D6FA002808D1484698
S315200066F000F0CBF90400002CEFD0484600F045FB13
S3152000670019F10109002D01D0B145E8D3DFF80407BE
S315200067104078002803D0012000F01EFA0400200053
S31520006720BDE8F283F8B50025DFF8E476D7F8B06146
S31520006730D7F8AC01464300F0D9FA002814D142F22A
S31520006740DD701DE0D7F8A80100FB05F000F0A3FAE4
S31520006750002808D1280000F098F90400002C02D067
S31520006760280000F012FB6D1CB542EBD3DFF8A4061F
S315200067704078002803D0012000F0EEF90400200024
S31520006780F2BD80B50020DFF8E4160978002901D093
S3152000679000F097F802BD10B50020DFF87846617842
S315200067A0002902D0012000F0D7F9002144F2080286
S315200067B0A154002142F20202A154002144F2140203
S315200067C0A15010BD10B50C00002C01D1042016E0FC
S315200067D000280AD0012813D0022814D0032822D05A
S315200067E0052826D010282DD03BE000F07FFA00287F
S315200067F001D0002001E042F2DD702060002010BDB3
S3152000680000202060FAE7DFF80816D1F8B021D1F889
S31520006810AC014243D1F8A8014243D1F8A00142433A
S31520006820920A2260EAE7DFF8E805D0F8A0012060A6
S31520006830E4E7DFF8DC05D0F8A811D0F8A001414341
S315200068402160DBE7DFF8C815D1F8B021D1F8AC011B
S315200068504243D1F8A8014243D1F8A0014243226025
S31520006860CCE70420CBE7DFF8A81591F8E001002853
S315200068700CD1DFF8A005002242F20203C254002206
S3152000688042F20403C250801CC1F8E401704770B57F
S31520006890040042F20205DFF8D86500207055DFF8C3
S315200068A07005D0F8A031B21C210010F5807009F0D7
S315200068B079F9002804D10121715542F2040174505E
S315200068C070BD2DE9F843DFF8A85544F210002C5886
S315200068D0DFF83C75D7F8A801B4FBF0F6D7F8B081FD
S315200068E0D7F8AC0100FB08F8002044F208016854F0
S315200068F044F20C002958D7F8A02191420DD0D7F8A0
S31520006900A0212958511AFF222858284442F2080368
S3152000691000EB03094846FDF76FFE0122210017F51B
S31520006920807009F0B9FA002802D042F2DB7039E013
S3152000693042F2080005EB0002D7F8A011D7F8A00113
S3152000694000FB04F000F076F800282BD0300000F091
S315200069501CFA44F2140955F80900401C45F80900B0
S31520006960761C08E0300000F010FA761C55F8090075
S31520006970401C45F80900464512D2D7F8A80100FB6D
S3152000698006F000F088F90028EFD13100200000F051
S315200069900BF8002803D042F2DB718842E2D101E0F5
S315200069A042F2D870BDE8F2832DE9F84304000D00C9
S315200069B00020DFF85C74D7F8A801211BB4FBF0F6A1
S315200069C000FB0616D7F8A801454317F58078A21BC9
S315200069D0521C2900404609F05FFA00280FD042F2E7
S315200069E0DB7025E04A46D7F8A011D7F8A00100FBB6
S315200069F005F000F01FF800280FD1761C6D1CA6426A
S31520006A000CD2DFF86494D7F8A0314A4631004046CC
S31520006A1009F0C8F80028E5D00AE009E0DFF8542498
S31520006A20D7F8A011D7F8A0014443200000F002F8BF
S31520006A30BDE8F2832DE9F0470D001600DFF8D0738C
S31520006A40D7F8A011B0FBF1F806EB0509FFF70BFF0D
S31520006A5004E05644B5EB0A0518F101084E4511D25B
S31520006A60D7F8A001854202D3D7F8A0A100E0AA4614
S31520006A7053463200414617F5807009F018F9040094
S31520006A80002CE6D02000BDE8F08710B50400FFF703
S31520006A90EAFE2100DFF8E00309F0C3F910BD38B59E
S31520006AA0C0B2002807D10C00DFF8D0230123081D2F
S31520006AB04FF47F7106E00C00DFF8C4230123081D84
S31520006AC040F21C416568954202D1A2689A4201D0E3
S31520006AD0002008E000F0F9F82168884201D1012061
S31520006AE000E00020C0B232BD2DE9F04704008946FF
S31520006AF017009846DFF8706335004FF400510022E6
S31520006B003000FDF779FD2000C0B2002802D14FF4F5
S31520006B10806601E04FF484665FF0000A03E018EB1C
S31520006B2009091AF1010ABA4513D2B948D0F8A001C9
S31520006B3000FB09F02A003100FFF778FC0028EED18F
S31520006B4029002000C0B2FFF7AAFF0028E7D00020C6
S31520006B5000E00120BDE8F0872DE9F84F84B0AC4D68
S31520006B60698A0191298A02910199022907D3029AF9
S31520006B7001994A43D5F8A811B2FBF1F600E00126A7
S31520006B808DF800009DF80000002838D10124002748
S31520006B905FF000080BE04FF480622900484605F0BC
S31520006BA02DFD002815D17F1C029810EB08080198AE
S31520006BB087420FD2D5F8A00100FB08F0DFF8A89293
S31520006BC04A464FF48061FFF731FC0028E3D00024C9
S31520006BD000E0002494F001045FF0000A002745F24B
S31520006BE0E12803954FF480692000C0B2002805D023
S31520006BF04FF47F71281D00F068F8286016E0012404
S31520006C00E868D5F8A811B0FBF1FAEF6845F2E2285A
S31520006C10DFF830B2CDF80CB04FF4846940F21C4155
S31520006C201BF1040000F051F8CBF80000E4B2002C70
S31520006C302BD0002404E014EB0A00FFF726FF641C87
S31520006C40B442F8D300240198844220D27048D0F868
S31520006C50A00100FB07F0039A4946FFF7EBFE002848
S31520006C6009D19DF80000012802D1002080494870F2
S31520006C705FF0000805E0D5F8A801B7FBF0F0FFF7B4
S31520006C8004FF641C0298C719DDE75FF00008404640
S31520006C9005B0BDE8F08F10B40100002000200020D0
S31520006CA05B4AD2F8A821B1FBF2F2002100E0491C90
S31520006CB0644B1C69A14205D203EB81031B6A9A42ED
S31520006CC0F5D10120C0B210BC70473EB504000D00BE
S31520006CD001A807F0C1F82A00210001A807F0C2F890
S31520006CE0694601A807F0D5F800983EBD49480078C6
S31520006CF0704738B54FF48061FF22454C25002800A7
S31520006D00FDF77AFC5D4860600120A0604FF47F713A
S31520006D10201DFFF7DAFF2060002032BD38B54FF482
S31520006D208461FF22474C25002800FDF765FC544866
S31520006D3060600120A0600020206140F21C41201DDF
S31520006D40FFF7C3FF2060002032BD38B569464FF4F7
S31520006D50807002F0A1F8002816D11422494B2C4C41
S31520006D60D4F8A011009D55431D44E960D4F8B051D4
S31520006D70D4F8AC114D43D4F8A8114D43009902FB29
S31520006D8001F203EB02018D6032BD2E490A69B2F58C
S31520006D90807F0BD20A6901EB820210620869401CCF
S31520006DA00861012032494870002000E00120704728
S31520006DB0026835490B681649D1F8A81101FB032250
S31520006DC0026070472A4A42F20201515C00290BD028
S31520006DD042F2040151580E4AD2F8A821B1FBF2F131
S31520006DE0884201D1012000E00020C0B2704720492E
S31520006DF042F204028A58824206D142F20200085C1C
S31520006E00002801D0012000E00020C0B27047000019
S31520006E10A0B72020C0BF2020154A44F20801515CAB
S31520006E2000290BD044F210015158184AD2F8A82153
S31520006E30B1FBF2F1884201D1012000E00020C0B26E
S31520006E4070470000A0BB2020094944F210028A584E
S31520006E50824206D144F20800085C002801D00120B5
S31520006E6000E00020C0B27047C2BF2020C8FF20200B
S31520006E70C0BF2020C8DF2020A0B820204243464E95
S31520006E8054424244C0802020D4FF2020A0B7202096
S31520006E9030B585B004000420002C04D0DFF8545708
S31520006EA02978002900D11BE02168090F0B2917D169
S31520006EB02168C1F30361012901D0002910D10029DD
S31520006EC010D1200006F04EFB002803D0002185F8C3
S31520006ED03C1405E0A168C5F84014012185F83C144E
S31520006EE005B030BD0129FBD195F83C140029F7D017
S31520006EF0217811F00F010029F2D100200390002003
S31520006F00029003A9012000F097F90028E8D102A9F0
S31520006F10102000F091F90028E2D101A9032000F009
S31520006F208BF90028DCD1D5F84044039D65196946C4
S31520006F3004A806F059FB0028D2D10299009AA41879
S31520006F40A142CDD30199491E0D42C9D101992800EC
S31520006F5000F0E9F8002802D142F2DB70C0E7049A7B
S31520006F600099280000F01CF80028B9D100F06EF82E
S31520006F700028B5D0B4E700200021DFF878269160FC
S31520006F80704780B51300DFF86C261278002A02D1EC
S31520006F9042F2DD7003E00A00190008F0F7FF02BD97
S31520006FA02DE9F04707000C0090460020DFF84456F4
S31520006FB0D5F828642878002802D142F2DD7043E013
S31520006FC040F20140864202D34FF48066FFE7002C50
S31520006FD039D0A868002809D16868002806D16F60D2
S31520006FE0A868201886420BD3A1460DE06968A868D8
S31520006FF04118B942F4D000F029F80028E7D023E060
S31520007000D5F80890B6EB0909A86828440C308045C5
S3152000701008D04A464146A868284410F10C0A504632
S31520007020FCF786FDA86819EB0000A860C84419EB98
S315200070300707B4EB0904A868B042C8D100F006F8E7
S315200070400028C4D000E00020BDE8F08770B5ADF57B
S31520007050806D0024DFF89C158868002822D04C68B3
S315200070608D68002048600020886011F10C062A00F7
S315200070703100200009F039F8002814D12A00694689
S31520007080200008F083FF0400002C01D020000AE035
S315200070902A006946300005F0B1FA002802D042F2F3
S315200070A0DF7000E020000DF5806D70BD70B5050025
S315200070B00E000020DFF83C050078002802D142F2BD
S315200070C0DD7012E03100280008F07FFF0400002C5C
S315200070D001D0200009E03100280000F024F8002823
S315200070E002D142F2DF7000E0200070BD38B50020EA
S315200070F0DFF800552878002802D142F2DD7011E031
S3152000710008F0C0FF0400002C01D020000AE0D5F8CA
S315200071102414002000F007F8002802D142F2DF7084
S3152000712000E0200032BDF8B5ADF5806D05000C00FD
S31520007130012601E0E41B7D19002C1AD0B4F5806FDE
S3152000714001D2270001E04FF480673A006946280003
S3152000715008F01CFF6846002100E0491CB1EB970FA0
S31520007160E8D20200101D126812F1010FF5D000209E
S3152000717001E03000C0B20DF5806D01B0F0BD2DE903
S31520007180F041804604250024474617F12B06380097
S3152000719001F0C4FF002804D0300001F0BFFF002812
S315200071A001D1042042E0464640463968090F0C29A1
S315200071B00FD12C210022DFF8404426003000FDF7B5
S315200071C01BFA00F017F93900200000F02EF90124EF
S315200071D01DE00068000F0B2806D14046FFF758FE39
S315200071E0002823D1002512E03068DFF810148842E9
S315200071F00DD12C210022DFF8004427003800FDF7AE
S31520007200FBF92C2231002000FCF792FC0124E4B289
S31520007210002C0AD0DFF8DC430020207000F0C8F9EB
S315200072200500002D01D1012020702800BDE8F08145
S31520007230DFF8C0030078704710B50C00002C01D190
S31520007240042016E000280AD0012813D002281AD0DC
S31520007250032812D004281DD0102821D026E0FFF7BD
S31520007260E7FF002801D0002001E042F2DD70206017
S31520007270002010BD00202060FAE7DFF87803D0F860
S3152000728028042060F4E7DFF86C03D0F82404800A91
S315200072902060EDE7DFF85C03D0F82C042060E7E7F8
S315200072A0DFF85003D0F824042060E1E70420E0E76B
S315200072B0F8B58CB004000D00160007A8DFF84013BF
S315200072C01422FCF745FC1C2100226F463800FDF7EE
S315200072D093F900960820019000208DF808000020E0
S315200072E08DF8090000208DF80A00DFF818030099B0
S315200072F0B0FBF1F00390C3480099B0FBF1F0049085
S31520007300C0480099B0FBF1F0059002208DF81800D6
S3152000731000208DF8190000208DF81A0000208DF825
S315200073201B002A00694607A850F8240009F0D0F867
S315200073300DB0F0BD2DE9F84789B005000E00170005
S315200073404FF4C874AB4890F8188490F8199404A8A0
S31520007350AD491422FCF7FCFB10210022EA465046D8
S31520007360FDF74AF95FF4801003903800C0B2002878
S3152000737009D101224946C9B25FFA88F8404602F08F
S3152000738007FC002033E03800C0B2032809D10022D0
S315200073904946C9B25FFA88F8404602F0F9FB002058
S315200073A025E03800C0B2012801D1019503E0FFB2E3
S315200073B0022F00D10095029608E0694604A84246AD
S315200073C0D2B250F8220009F03DFA0400B4F5C87F85
S315200073D0F3D0002C0AD000224946C9B25FFA88F8B9
S315200073E0404602F0D5FB42F6CD1000E000200AB060
S315200073F0BDE8F0877F488149C0F810145FF48031DA
S31520007400C0F81414012180F83014022180F83114B8
S31520007410032180F83214042180F83314052180F8E2
S315200074203414062180F835147047784A0B7813F007
S315200074300F0352F823208261754A0B68C3F30313A6
S3152000744052F82320C261734A0B68C3F3032352F810
S31520007450232042610A68120B12F00F02012A02D081
S31520007460022A13D015E0012202744269B2F1011FEB
S3152000747002D21022427408E04269674B9A4202D235
S315200074801822427401E02022427442E00222027451
S315200074903FE000220274602280F8282042695E4B79
S315200074A09A421CD218224274422280F82620C269AF
S315200074B0B2F5803F03D3D82280F8272029E0C2697D
S315200074C0B2F5805F03D1202280F8272021E0C2690F
S315200074D0B2F5004F1DD1522280F8272019E0202234
S315200074E04274122280F82120132280F822200022C2
S315200074F080F82620C269B2F5803F03D3DC2280F8CB
