S0130000666C6173686C6F616465722E737265638C
S31520002000705A2120914B01207B240020952E0120FF
S315200020107B2400207B2400207B240020000000005D
S315200020200000000000000000000000007B240020CB
S315200020307B240020000000007B2400207B2400203D
S31520002040135D0120135D0120135D0120135D012026
S31520002050135D0120135D0120135D0120135D012016
S31520002060135D0120135D0120135D0120135D012006
S31520002070135D0120135D0120135D0120135D0120F6
S31520002080135D0120135D0120135D0120135D0120E6
S3152000209085450120B94B0120C14B0120C94B0120A8
S315200020A0D14B0120D94B0120E14B0120E94B0120E6
S315200020B0F14B0120F94B0120014C0120094C012054
S315200020C0114C0120194C0120214C0120294C0120C2
S315200020D0314C0120394C0120135D0120135D012074
S315200020E0135D0120135D0120135D0120135D012086
S315200020F0135D0120135D0120135D0120135D012076
S31520002100135D0120135D0120135D0120135D012065
S31520002110135D0120135D0120135D0120135D012055
S31520002120135D0120135D0120135D0120135D012045
S31520002130414C0120135D0120135D0120135D012018
S31520002140135D0120135D0120135D0120135D012025
S31520002150135D0120135D0120135D0120135D012015
S31520002160135D0120135D0120135D0120135D012005
S31520002170135D0120135D0120135D0120135D0120F5
S31520002180DB290020135D0120135D0120135D012052
S31520002190135D0120135D0120135D0120135D0120D5
S315200021A0135D0120135D0120494C0120514C012073
S315200021B0135D0120135D0120135D0120135D0120B5
S315200021C0135D0120135D0120135D0120135D0120A5
S315200021D0135D0120135D0120135D0120135D012095
S315200021E0135D0120135D0120135D0120135D012085
S315200021F0594C0120135D0120614C0120694C0120BE
S31520002200135D01201B5C0120714C0120794C0120BB
S31520002210135D0120135D0120135D0120135D012054
S31520002220135D0120135D0120135D0120135D012044
S31520002230135D0120135D0120135D0120135D012034
S31520002240135D0120135D0120135D0120135D012024
S31520002250135D0120135D0120135D0120135D012014
S31520002260135D0120135D0120135D0120135D012004
S31520002270135D0120135D0120135D0120135D0120F4
S31520002280135D0120135D0120135D0120135D0120E4
S31520002290135D0120135D0120135D0120135D0120D4
S315200022A0135D0120135D0120135D0120135D0120C4
S315200022B0135D0120135D0120135D0120135D0120B4
S315200022C0135D0120135D0120135D0120135D0120A4
S315200022D0135D0120135D0120135D0120135D012094
S315200022E0135D0120135D0120135D0120135D012084
S315200022F0135D0120135D0120135D0120135D012074
S31520002300135D0120135D0120135D0120135D012063
S31520002310135D0120135D0120135D0120135D012053
S31520002320135D0120135D0120135D0120135D012043
S31520002330135D0120135D0120135D0120135D012033
S31520002340135D0120135D0120135D0120135D012023
S31520002350135D0120135D0120135D0120135D012013
S31520002360135D0120135D0120135D0120135D012003
S31520002370135D0120135D0120135D0120135D0120F3
S31520002380135D0120135D0120135D0120135D0120E3
S31520002390135D0120135D0120135D0120135D0120D3
S315200023A0135D0120135D0120135D0120135D0120C3
S315200023B0135D0120135D0120135D0120135D0120B3
S315200023C0135D0120135D0120135D0120135D0120A3
S315200023D0135D0120135D0120135D0120135D012093
S315200023E0135D0120135D0120135D0120135D012083
S315200023F0135D0120135D0120135D0120FFFFFFFF08
S31520002400002A01D101207047F0B41F460346032459
S315200024102340002B09D00424E31A0170013008243C
S31520002420E141521E26D05B1EF7D1042A1ADB13D0B7
S31520002430002F11D00C460D460E46102A02DB72C024
S31520002440103AFAE70C2A02DB32C00C3AFAE7082ADD
S3152000245002DB12C0083AFAE7042A03DB01600430E3
S31520002460121FF9E7002A05D0017001300824E14146
S31520002470521EF7D1F0BC00207047FEE79D300020A9
S3152000248000000000EF300020000000002F32002066
S31520002490BD330020BD310020CF32002097340020EC
S315200024A0000000000000000000000000273100208E
S315200024B000000000FF300020CF320020B73400207B
S315200024C000000000153500200000000051300020DB
S315200024D0000000005731002000000000000000002E
S315200024E00000000041350020000000006335002078
S315200024F0000000008F350020BD3300206D31002004
S31520002500000000000000000000000000D331002081
S31520002510B932002000000000ED5C0120F75C0120AC
S31520002520015D0120000000000000000009000000FD
S31520002530273D00200101000023450020080000005F
S31520002540994D002000010000F153002010010000E9
S31520002550EB5B0020200100001B6900202101000008
S315200025607963002000000000000000008D38002064
S31520002570213A0020393A0020B93A00206D3B00204C
S315200025806F3C0020A5440120234501203D45012024
S31520002590000000000000000071450120A17100200C
S315200025A0056F00205F6F0020437000207D700020A3
S315200025B08D700020DD6F0020B75F00209161002024
S315200025C02B620020F562002029600020D7620020BF
S315200025D0E96200206DAA002071AA00207DAA0020B1
S315200025E08DAA00200000000000000000010000006D
S315200025F00100000075290020842500209425002054
S3152000260098260020100000000100000000000000B5
S31520002610EC26002000000000FC2600200000000020
S315200026200000000000000000000000000000000084
S3152000263000000000D1450120ED450120A3460120E0
S31520002640614701205CB220200566002041670020FA
S31520002650DB670020A56800204D66002087680020E3
S31520002660996800202D4E0020D5500020C35100200F
S31520002670CD520020B14E0020BB530020CD53002068
S31520002680DF4A00205B4C0020714C0020A54C002026
S3152000269000000000134D002051480120574801201A
S315200026A0C54801205D49012055480120694901207E
S315200026B03148012077590020815900209B5900205C
S315200026C0695A0020155B0020175A002000000000E0
S315200026D0E53D0020254100205142002033440020C2
S315200026E019400020F5430020074400209D58012072
S315200026F0A9590120555A0120B35A0120C15A012057
S31520002700E55A0120695B0120015C0120115C012052
S31520002710155C01200000000038B504463E4D00201F
S315200027202862C5E90000C5E90200C5E9040068621F
S315200027303A4800F0ADF8C5E9060120460FF25D01E2
S31520002740BDE8344000F057B900F06BB970B50C46BF
S31520002750314D296A072904BF6A6A90421BD100F0CD
S3152000276012FB03460A26C3EB0313D5E90021D5E95C
S31520002770020182184FF49665B3FBF2F00A234FF458
S3152000278096625843B0FBF5F56D1D0020B5FBF6F6B5
S315200027905643266070BD012070BD00002DE9F84328
S315200027A01D4F064600F06AF83A6A0446D7E90459EE
S315200027B08846521C651BD7E9060168EB090949457D
S315200027C002D82CBFA8420122012A3A6206D0042A46
S315200027D008D0052A0ED0072A0FD018E0C7E90048EE
S315200027E07E6214E0D7E90001201A68EB0101C7E9EF
S315200027F000010CE0C7E9024809E0D7E90201201AE6
S3152000280068EB0101C7E90201304600F00AF9C7E981
S315200028100448BDE8F183000000982020803801009C
S3152000282080B52C482C4A016841F4405101600020B3
S3152000283010602A484FF0FF31002201618261012297
S31520002840C261826942F004028261836943F0010316
S31520002850836101600121C160816000F094FAC000AB
S315200028601F49B0FBF1F000B901201E49886001BD67
S315200028701948016841F002010160704781B01A4889
S31520002880016842680092009801B0C943C04370476E
S3152000289014498A68A2FB0001C00840EA4170C908B1
S315200028A0704738B50446FFF7E9FF00F00BF8241807
S315200028B041EBD505FFF7E2FFA942FBD301D8A042A1
S315200028C0F8D331BD074A9368A3FB0445E40844EADC
S315200028D0457470476CC00F400040084000410840D6
S315200028E040420F0028982020E04008400901002897
S315200028F081B002D4564A115405E0564A00F00F0022
S31520002900104400F8041C01B0704710B5039C01F078
S315200029100701240104F010042143016002B1136071
S3152000292010BD0021016002B11160009808B1019923
S3152000293001607047FEB5089E0027099C0A9D0197F5
S315200029400096FFF7E2FF3068012202FA05F520F42F
S3152000295080503060616821EA05056560F7BD3EB5A7
S31520002960069C002501950094FFF7CFFF47F2B000A3
S31520002970206037BD7FB5384C384D3948394A19B1B2
S31520002980022919D00DD37FBD41F2B00600950196DC
S31520002990002300F01EF801960023009500F019F898
S315200029A07FBD0D21304B029105210193002300921A
S315200029B00022FFF7BFFF7FBD009200230022FFF712
S315200029C0CEFF00950023002202212046FFF7C7FFF5
S315200029D07FBD002202212046A3E71CB5234C206898
S315200029E0800407D52249496821B1012088474FF440
S315200029F00050206013BD10B51D481B4C41600422B9
S31520002A000D21204600F084FA6069012140F400502F
S31520002A1060615020FFF76AFF4FF480301549086047
S31520002A2010BD80B54FF4803013490860BFF34F8F37
S31520002A30BFF36F8F00215020FFF758FF00220D2192
S31520002A40094800F065FA00200949486001BD0000E8
S31520002A5000E400E018ED00E0EC801F40DC821F401F
S31520002A60F0801F40E0821F4000801B4018801B40E2
S31520002A7054B2202008E100E088E100E0002808BFE9
S31520002A8000F023B87047DFF83403DFF834230168F9
S31520002A9041F00301016040201060DFF828034FF069
S31520002AA000424FF080418263816300210160DFF89C
S31520002AB01803016841F4C0110160DFF810030268B1
S31520002AC052085200026001207047F0B5DFF800037B
S31520002AD0DFF800130860DFF8000303690121DFF83F
S31520002AE0FC220068DFF8F842DFF8F8525B0D03F0AD
S31520002AF0030301FA03F31168C0F38000DFF8E862EC
S31520002B00CF0374D5002814BFB849B949116011689C
S31520002B100029FCD5176B27F480571763116B002902
S31520002B20FCD5B44F396921F03F3CB34941EA0C0149
S31520002B3039614FF44051116111690029FCD51169A1
S31520002B4021F480311161396821F03F3EAB4941EAD9
S31520002B500E013960AA4F0121396000F04BF8A94CCB
S31520002B6000E0491CB0FBF1F5A542FAD27C68A648E4
S31520002B70491E5B1E9B0203F4E0530440080400F444
S31520002B80E02004430902234301F440710B437B6098
S31520002B9078699E49C009C00140F003007861BB688E
S31520002BA043F44023BB60B868084040F0A050B860AA
S31520002BB0FB689748034043F0C74343F00103FB609B
S31520002BC0F96841F44031F960786920F4E72040F44F
S31520002BD084307861116821F480311160106B20F403
S31520002BE080301063116921F480311161F0BD00F04D
S31520002BF001F8F0BD00B93546B5FBF3F0206070470B
S31520002C00D1E0002A70B518BF012A38D17948814B06
S31520002C1004681D68A409002A0CBF0FF238220FF29F
S31520002C2048220E0025F0607529D00A29A8BF012167
S31520002C3012F8116002EB41014A78774906F03F0607
S31520002C4046EA84140E68521ED20502F060721543BD
S31520002C5046F002060E605A6E22F440625A660668F4
S31520002C60B44218BF04601868854218BF1D60586EAC
S31520002C7040F4406058660A6822F002020A6070BD7D
S31520002C804E48016841F44061016070474B48016835
S31520002C9021F440610160704730B5514C002300207B
S31520002CA024685E4D19B1022907D002D316E02346C7
S31520002CB015E02968C1F301210CE0A9684D4B19687C
S31520002CC0574CAB6801F03F01B4FBF1F412214C43A1
S31520002CD0C3F3C251491CB4FBF1F300E00420136096
S31520002CE030BD024604201AB911B14E4808600020B2
S31520002CF07047000030B5494906280A6842F040026C
S31520002D000A600B68484A23F080030B6013680C683E
S31520002D1023F47C1324F4E02414D8DFE800F004061E
S31520002D2008130B0D100023200DE0222000E01B20AD
S31520002D30072509E01D2003E01220042504E01320C6
S31520002D40032501E01220082543EA00436D1E2D04C9
S31520002D5005F4E02510682C43834218BF13600868E9
S31520002D60844203D00C60486BC207FCD430BD2F4888
S31520002D70016841F03001016070472C48016821F05C
S31520002D803001016070472548154A0168806813683C
S31520002D90C1F30121491C00F03F00401CB3FBF1F1B7
S31520002DA0B1FBF0F070471D480D4900680A68C0F372
S31520002DB00120401CB2FBF0F07047000080C00F409D
S31520002DC014800D4000900D40B0810D4040012E40F2
S31520002DD000366E0120A9202060441F4000800D404F
S31520002DE0F085202000A4781F007B9A175820010028
S31520002DF042200100F0800D401818131823231A0FC3
S31520002E0010C00F4001449508FFE0F8FFCFFFFFE315
S31520002E1080FF7F9C1CC00F4000802A4014C00F40BA
S31520002E2000389C1C80F5E40900810D4074C00F40D9
S31520002E3038B504460D4602E00120FFF732FD204654
S31520002E402946441E61F100050022914208BF9042A6
S31520002E50F2D131BD00002208160818061E041206FB
S31520002E600E0611041A0216020000180616040C0695
S31520002E701E021203160221011A011601F8B5064692
S31520002E800C46154600200FF2F00151F82020B242E0
S31520002E9002D0401C0628F8D30FF2F401144A31F967
S31520002EA010000127A74000F01F01000A02EB800056
S31520002EB0032202FA01F102688A4311430160706914
S31520002EC0F94308407061287818B97268114071601A
S31520002ED007E06A782146304600F00CF87068074310
S31520002EE07760AA7821463046BDE8F84010E0000019
S31520002EF068C00F4081B00123002A026803FA01F15D
S31520002F000CBF22EA01011143016001B070470000A5
S31520002F10F8B5C369012404FA01F5AB431029C3614E
S31520002F2032BF00F10C0300F11003103949000326CB
S31520002F308E40F743521E042A1DD8DFE802F003070D
S31520002F400D151900186807401F60F1BD18688C40E0
S31520002F5007403C431C60F1BD18680740022000FA78
S31520002F6001F139431960F1BD186806431E60F1BDB1
S31520002F70C1690D43C561F1BD0000000000801B4002
S31520002F8000C01B4000001C4000401C4000000C40BC
S31520002F90FFFF1A011E001A020C031E01DFF8141788
S31520002FA000200A69D36818607047F8B5DFF804670F
S31520002FB00024306A8DF800404569002D46D03169DD
S31520002FC0C9680F68012F30D06C6801F10802002310
S31520002FD0091DA04704001FBF42F21270844242F22C
S31520002FE01370844232D13069C268916800292DD08D
S31520002FF0546823781D0006D0142B04DA806800EB71
S31520003000C300083800E00020002850621CBF026878
S31520003010002A03D020460024904713E042F2107481
S315200030201946204600F0CAFA10E0486A58B14168AD
S3152000303011B16846884704460CB1002003E09DF88C
S31520003040000000B101203169CA6810602046F2BD37
S3152000305080B50178002000F0B1FADFF85826106A12
S3152000306041690A699047022000F074FBBFF34F8F35
S31520003070DFF84416DFF844060A6802F4E0620243E9
S315200030800A60BFF34F8F00BFFDE7DFF8280618213F
S315200030900269D36803F10C0000F088BB10B5044622
S315200030A06068083812D0401E0AD0F73811D0401E6A
S315200030B009D00F3810D0103814D0401E0FD014E08D
S315200030C000F005FE12E001F004FA0FE001F058FED0
S315200030D00CE002F047F909E002F0DFFC06E003F01D
S315200030E02FF903E003F0FCFB00E0042024E2DFF8E4
S315200030F0C43570B500F0D9F9AE69B047D1E110B545
S3152000310000F093F8DFF8AC0562680169C868082109
S31520003110026180F820102178002000F04FFABDE8E7
S31520003120104003F053BE7CB50021DFF8884501919D
S31520003130E5680091816840686B46AE6801AAC0B216
S31520003140B04722690021D3681961009A0199920833
S3152000315000F047FA73BDDFF85C2538B5D36804461E
S315200031606068A168DD68C0B2A847E1E138B50446C9
S3152000317004206268092A03D1A06800F089FB19E0BF
S31520003180082A03D1A06801F0C3FC13E0C2F303218F
S3152000319001290FD16946104603F0CEFF50B9009D94
S315200031A0DFF8102514219368A0684D4359190A6940
S315200031B013699847217800F001FA31BD10B500F067
S315200031C034F800F041F8042180F8201021780020FE
S315200031D0B3E170B5DFF8DC5400F027F82969132035
S315200031E0DFF8DC64CA6882F820002969E068CA68CA
S315200031F082F82100E06838B929691022C86802617E
S315200032004661217800204DE106F11001304603F099
S31520003210EDFF28694821C068016106F1100141616E
S3152000322048210020BDE87040FAE104462DE710B59C
S31520003230FFF7FBFF00F008F8032180F82010A168B3
S315200032400020BDE81040F0E1DFF86804E26801697B
S31520003250C8688261A168016161684161704738B5BB
S315200032600446DFF8505428690021C0684161016195
S3152000327090F82000042804D129680A69904704B9E7
S31520003280044628684169884704B904462969C868FC
S3152000329090F82010204600F091F942F212718C42EB
S315200032A001BF2869C16891F82020082A03D1BDE80A
S315200032B0314003F0CEBD31BDDFF8F8130A69D3687B
S315200032C093F82110002908BF00F001B876E02DE917
S315200032D0FE4300F0DAF821B900203070FFF7BFFF77
S315200032E069E0012101233170D0F818900569D0F8E2
S315200032F0148000206A460090386A01A94469D4F8EF
S3152000330004C0E047040009D0386A4169CA6890477A
S315200033102046FFF7A4FF002030704DE0009838B912
S3152000332042F21270FFF79BFF00210020317043E02C
S31520003330A84288BF284600903869C06890F82010B7
S31520003340082912D10199C1600099C161009901989B
S3152000335003F046FD044642F27D7084421CBF42F2D1
S315200033607470844214D1002412E0132905D1009AE6
S315200033700199404603F0A2FF08E03C68019A0099B3
S315200033804B464046D4F808C0E0470446009880449F
S3152000339000982D1A04D04CB1386A4169CA68904702
S315200033A02046FFF75CFF0020307004E03969C968C9
S315200033B00D61C1F814800020BDE8FE832DE9F84F89
S315200033C000F063F821B900203070FFF748FF59E07C
S315200033D00121DFF8F0A23170816900910569D0F8EA
S315200033E01480C46890F820B0386A41694A699047C9
S315200033F08146A84288BFA946ACB14A4621465046D6
S3152000340003F05CFF386AA5EB090401234A465146BE
S315200034104569D5F808C0E04704B170B3FFF71FFF30
S31520003420002030702EE0BBF1030F09EB080419D100
S31520003430D7F800C04046009B52464946DCF8048037
S31520003440C0475FEA000BA046DCD0386A0123002281
S3152000345051464469A568A8475846FFF700FF002053
S31520003460307010E0BBF1130F01D0A046CAE74A46E0
S315200034704146504603F022FFF7E73869C0680461E9
S31520003480C0F814800020BDE8F28F0646894F3869BF
S31520003490C06801697047874B70B500F006F8EE6882
S315200034A0B0472178BDE8704088E01D680446E26890
S315200034B0A168606870472DE9F0410546824F6E6825
S315200034C0D5F80880E8680024386018B103F079FF41
S315200034D000B90424304603F05DFF00B9042429789E
S315200034E0204600F06BF89CB97E60002000F032F98F
S315200034F0C7F80880386818B180F3088880F30988EF
S315200035007968404688470020BDE8F04100F022B99E
S31520003510BDE8F08138B50446606803F03BFF08B982
S31520003520042005E06568012000F014F9A068A8478A
S315200035302178BDE8344041E02178BDE810403DE0E7
S3152000354038B5044604F026F8A368616804F10C0235
S315200035505E4804F063F8054604F022F821782846F0
S31520003560E7E73EB500210446CDE9001104F012F844
S31520003570A36861686A46554804F0A5F8054604F034
S315200035800FF8A2686946284600F06AF837BD10B5DC
S31520003590FFF74BFE4748A2680169C9680A6162685D
S315200035A04A61102281F820200069E168C268002063
S315200035B082F82110A168BDE8104089E03EB501904F
S315200035C03C48006A00238DF80130A0228DF8023095
S315200035D08DF8002002228DF803200C2202914469E6
S315200035E033E038B588B0A7238DF8003000240025B5
S315200035F00190531C8DF801408DF8025000208DF863
S31520003600033006E06C4651F8203004EB8004401C61
S31520003610A3609042F6D327489DF80320006A3EE037
S315200036203EB500F016F8B32203E03EB500F011F8DF
S31520003630A3228DF80020012302228DF801308DF877
S3152000364003200023029144690C226946A568A847F5
S3152000365037BD01901748006A00248DF80240704754
S3152000366038B588B0AF238DF80030002402238DF8BA
S3152000367001408DF802408DF80330019050B99DF835
S315200036800300029200EB92008DF8030003A803F0DA
S3152000369025FE00E002949DF803200649086A0023CF
S315200036A0694644699200121DA568A84709B030BD35
S315200036B000000000108020200CED00E00400FA0538
S315200036C05C9A20205C982020B49A202000401F403D
S315200036D03EB5FFF7BEFFB022ABE7F0B40246106856
S315200036E095681318506803EB5004C00721D54D4444
S315200036F01FE0F0BC02F10C00704713F8017B05F8BF
S31520003700017B491EF9D1A0B1B60813F8011B06F0BA
S315200037100306032E08BF13F8016B01EB062149426D
S31520003720801C294405D011F8016B05F8016B401E59
S31520003730F9D1A342DDD013F8016B16F0030104BFC3
S3152000374013F8011BC91C30090F28DAD113F8010B15
S315200037500F30D6E77CB50446012C0DD00025114E3E
S3152000376005E07018C168896801B188476D1C182169
S31520003770694370580028F4D174B903F00BFFFFF7A2
S3152000378077F804F017F80020074908600120FFF7B2
S3152000379075F904F075FA62B6BFF36F8FBFF34F8FDA
S315200037A073BD00BFEC25002008ED00E0002204F0E8
S315200037B0B5BA0000BFF34F8FDFF8082602E010608D
S315200037C0203020390129FADABFF34F8FBFF36F8FEC
S315200037D0704730B504460420002C85B01EBFDFF8A4
S315200037E0E825117800294FD023681D0F0B2D4BD1CA
S315200037F0C3F30361012902F582650CD0002943D168
S31520003800204604F0A5FA002811BF0021A1686960AE
S315200038100121297038E02978002935D013F00F0FBF
S3152000382032D1002004A904900390012000F07BFAF5
S3152000383050BB03A9102000F076FA28BB01A903206B
S3152000384000F071FA00BB6C68049D694602A804F07A
S31520003850B6FA6519C0B9009A0399A418A14213D3E0
S31520003860019A521E15420FD10199284600F047F9B8
S3152000387010B942F2DB7007E0029A0099284600F060
S31520003880DBF808B900F072F905B030BD01207047A9
S31520003890F8B5ADF5007D0746042403F07BFD00282E
S315200038A06CD007F2FF1003F075FD002866D038684B
S315200038B0DFF8145505F58366010F0C2918D13A4611
S315200038C03146002005F072FE040057D10020314613
S315200038D0287004F093FA040050D1002006F034FD3D
S315200038E06946102000F01FFA00285FD0044645E004
S315200038F0DFF8D81488420BD12878002849D000F068
S315200039008AF803F067FC00285CD142F2DB7435E0CC
S31520003910DFF8BC14884206D14FF40072394630468F
S3152000392003F0CCFCD2E7000F0E282BD1287828B341
S31520003930384606F0A1FE08B3384606F0A6FE040077
S315200039401CD10120687000256A4601A9284606F088
S31520003950A8FF80B9DFF87C644FF4007106EB85265A
S31520003960304600F0CCF830B1019A0099304600F08C
S3152000397063F800F0FBF86D1C012DE5D920460DF506
S31520003980017DF0BD0B280ED13846FFF722FF04003B
S31520003990F4D168780028D6D106F066FE0028EDD04E
S315200039A001216970EAE700206870E7E7DFF828144C
S315200039B0012088630A6B00988218521E4A630121EF
S315200039C02970E6E705F2DC57B87970B100200DF1D1
S315200039D001032A1892F819240DF80020325C1A5493
S315200039E0801CB0F5007FF4D36E46324600F013F803
S315200039F000F022F8040004D000F00DF800F0CEF913
S31520003A00BCE700F0B3F80400C3D039684FF0C040DB
S31520003A1000F02DF9B2E74FF400714FF0C040704727
S31520003A2010B5DFF8A443237813B942F2DD7010BD38
S31520003A30BDE8104007F01CB82DE9F8430C46DFF826
S31520003A40887339780546914689BB42F2DD7031E0AC
S31520003A50B87868B9D7F8D815491E0D4202D044F671
S31520003A60896027E001207D60B8700020B86004E0FE
S31520003A70B86879680818A84216D1B868D7F8D885E2
S31520003A8021184145494634BF2646A8EB000638444E
S31520003A9032461030751903F011FCB868A41BB144E6
S31520003AA030184045B86002D100F060F810B9002CFB
S31520003AB0CED10020BDE8F28376B50D460646DFF866
S31520003AC00813087810B942F2DD7076BDAC08A40060
S31520003AD005F0030507E001AA04213046FFF7ACFFF5
S31520003AE060B9361D241F002CF5D12DB101AA294617
S31520003AF03046FFF7A1FF08B900F038F876BDF8B5D3
S31520003B000C460646B049ADF5806D4878012720B1B0
S31520003B102146304606F09BFEB0B92146304603F0DA
S31520003B2059FB074638460DF5806D01B0F0BD491C9E
S31520003B30B1EB950F06D250F8043B13F1010FF6D0E6
S31520003B400020F0E7641BAE19002CEBD04FF4806503
S31520003B50B4F5806FA048016B684698BF25462A4673
S31520003B60711A00F024F968460021E1E72DE9F843AF
S31520003B70954E0024B078ADF5806D002871D0B470D4
S31520003B80D6F8D845B068A04206D0211A06F110030F
S31520003B90FF22184406F084FF70682146FFF7AFFF26
S31520003BA010B942F2DB705DE0D6F8D815706806F0E1
S31520003BB04EFE40B1D6F8D815706806F1100206F010
S31520003BC0B7FE04004DD1844F746803F0E3FC386BD4
S31520003BD006F1100306F58361221A002004F00EFA7E
S31520003BE0044603F0DDFC0020002CB070B06038D114
S31520003BF000F069F804D5D6F8D8157068FFF7DAFD15
S31520003C007078D6F8D85506F11008D6F80490F0B199
S31520003C102946484606F01BFEC8B115B34FF4806608
S31520003C20B5F5806F396B684698BF2E463246A9EBAC
S31520003C30010100F0BCF832464146684606F064FFB2
S31520003C40002802BFAD1BB144B044E6D006E02A46A8
S31520003C5006F11001484606F057FF10B144F68A6077
S31520003C6000E020460DF5806D01B0BDE8F08370B50B
S31520003C700446554A107810B942F2DD7070BDD2F86C
S31520003C80DC55684200EA04060C196442044064428A
S31520003C90A41B2146304600F081F898B929463046C3
S31520003CA006F0A5FE00F00FF803D529463046FFF7AB
S31520003CB081FD21463046FFF722FF10B944F68A607F
S31520003CC070BD002070BD45480168CA037047E0B545
S31520003CD03D49087810B942F2DD700EBD01F58361C9
S31520003CE0002004F0E1F9E8B901A9012000F01BF851
S31520003CF0C0B96946102000F016F898B900990198C5
S31520003D0006F075FEFFF7DFFF03D500990198FFF750
S31520003D1051FD0099019803F05DFA10B944F68A60C6
S31520003D200EBD00200EBD002918B52DD0264A02F55D
S31520003D30BB6302F58D6460B1012813D0022815D02B
S31520003D40032817D0042817D0052817D0102818D0F4
S31520003D501AE01078002814BF002042F2DD700860B7
S31520003D60002012BD4FF0C0420A60F9E700F00EF8BD
S31520003D70920AF9E71A68F7E75A68F5E7186918B159
S31520003D80EDE700F003F8EFE7042012BD2268606833
S31520003D908218A0688218E068821870470B4602468F
S31520003DA00D49086B0E49121A002005F0BFBC80B5DC
S31520003DB000920B4602460A49002005F0F3FC02BD9C
S31520003DC0000000005CEF00E008A320200F0000F0B8
S31520003DD046434642000400605080202014ED00E057
S31520003DE020A720203EB503F013FF022801D0012092
S31520003DF03EBDDFF81C4C42F22C102518284606F052
S31520003E00CAFE20BB284600F0A1FD00BB01A902A8DE
S31520003E1006F0AEFE0199029800F059FCB8B9284682
S31520003E2000F094FD98B942F22C00204400F0CEFC1C
S31520003E3068B9012140F201102170694603F07CF92E
S31520003E4028B900F067F9204400F05CF900203EBD57
S31520003E50FEB504460420002C1EBFDFF8B42B1178D3
S31520003E6000294CD023681D0F0B2D48D142F2240681
S31520003E70C3F30361951901290CD000293FD12046AF
S31520003E8003F066FF002811BF0021A16869600121A7
S31520003E902970FEBD297891B303F00F03082B1AD29F
S31520003EA002EBC30042F26C0342F2EC216D685658D5
S31520003EB0694618440768446801A803F080FF06FB9A
S31520003EC00757E0B900982D18B5FBF6F0844202D3C7
S31520003ED0701E074201D00420FEBDB7FBF6F4012177
S31520003EE0204600F0D0FB10B942F2DB70FEBD019AED
S31520003EF00099204600F0F3FC08B900F07BFAFEBDDD
S31520003F002DE9FC41064604240D46002E18BF002D3F
S31520003F100ED0287800F00F00C01E08283FD24FF49C
S31520003F2080613046FFF742FC686803F033FA0028C8
S31520003F306FD06868083003F02DFA002869D06A68C7
S31520003F4006F58071002007F023F9040061D1286866
S31520003F50DFF8BC1AC0F3032000281CBF012800206C
S31520003F604860286800F00F039B1E082B51D8C0F329
S31520003F700357032FC0F303610CD8DFE807F00204D0
S31520003F800609402708E0802706E04FF4807703E003
S31520003F90202701E0202F3CD300293AD0052938D20A
S31520003FA0DFF8700A378270600120B06017FB01F0DD
S31520003FB0F06000207182736116E0B2F806C0B2F894
S31520003FC004E0E644B2F80AC0F4451CD31289D6F8B8
S31520003FD0C8E206EBC008401C0EFB0CFC0EFB02F2EE
S31520003FE0C8F84420C8F840C098420CD2002805EBF7
S31520003FF08002E2D1D6F8C8C2B7FBFCFE01FB0EFE5A
S315200040004FEA4E0EDEE74FF47F71301D00F0BDFC07
S3152000401030602046BDE8F681F8B50424074603F053
S31520004020B9F900283D464FD005F2FF35284603F062
S31520004030B1F9002848D03868DFF8D45942F22C016B
S315200040406E18000F0C2841D139463046FFF758FF2D
S31520004050040039D10020287042F22C10284400F0A8
S3152000406075FC040030D1304600F0B0FBC8B1DFF853
S31520004070A849FF224FF48461204603F04BFEDFF867
S315200040809C0940F21C4160600120A0600020206154
S31520004090201D00F07AFC2060304600F0C4FB0400AE
S315200040A012D1304600F048FB04000DD101206946AC
S315200040B0287040F2011003F03FF8040004D100F00C
S315200040C029F8284400F01EF82046F2BD7968DFF86A
S315200040D0442991420FD14FF48061384600F048FCC4
S315200040E00028F1D000204FF48062287039463046EF
S315200040F003F0E4F8B0E70B28E6D13846FFF7A8FE30
S315200041000446E1E703681144CB60C26980684243F4
S315200041108A607047009A1420DFF80419424342F25D
S31520004120EC2070472DE9FE4F93460425BBF1000F86
S3152000413003464AD0DFF8D868307810B942F2DD75E8
S3152000414043E0746842F2EC22B7183A68012C0192D7
S3152000415013D1307B58B9FA69934236D2B868B36026
S3152000416001224FF000083273434300930CE0B068FD
S31520004170BC68444302FB04331B1A1046B3FBF0F21F
S3152000418000FB1233009298460C46684600F031FC3C
S3152000419042F2200941F20D0A13E006F10D0000EB70
S315200041A008012A46584603F089F80198641BA8445A
S315200041B0AB44804504D3A8EB00080098401C00902F
S315200041C000258CB90DB1002030732846BDE8FE8F3E
S315200041D0084600F0EBFBF8B156F809000099401CA0
S315200041E046F809006D18009541F21001009B72589F
S315200041F016F80A009A4200D108BBBD681946B1FBE1
S31520004200F5F118B1B2FBF5F0814205D0F86981428B
S31520004210DED342F2D875D6E7009D0020396806F82D
S315200042200A0006F10D02284600F03DFB28B90121BF
S3152000423006F80A1041F2100175500500C2D1019806
S3152000424004EB080188422CBF2546A0EB0805A4E70D
S315200042502DE9FE4F93460424BBF1000F05D0DFF86D
S31520004260B0773A7812B942F2DD7498E07A688146DE
S3152000427042F2EC2088463E1842F214003D1831687E
S31520004280012A019140D1387B98B9F1698945ECD250
S3152000429000214FF0000A297001213973C7F80890D0
S315200042A0B06800FB09F00090019A014602FB0181EB
S315200042B026E0B868B268DDF804A0424301FB02910B
S315200042C0DFF86027091A0198B1FBF0F00AFB101AF3
S315200042D000901068814212D0287818B100F05FF95A
S315200042E004005AD10121C7F808903973B1684846AD
S315200042F04FF0000A4843009001460198414341444B
S31520004300DFF82007016006E00846B9FBF0F100FB64
S3152000431011990091CA460098A96D88423FD36846F4
S3152000432041F2140900F065FB1EE0019808EB0A0132
S315200043308842594634BFA0EB0A04444607EB0A00DC
S3152000434022464844A24402F0B9FF6868A8EB040854
S31520004350A344201868600198824504D3AAEB000A7A
S315200043600098401C00900024B8F1000F06D113E0FD
S31520004370E868401CE860009976180096A9680098BD
S315200043802C7881420ED16CB168685045CDD000F0B2
S3152000439006F90028F2D004460CB1002038732046D6
S315200043A0BDE8FE8F42F2EC203A1896680098B0FBE2
S315200043B0F6F01CB1B1FBF6F188420AD0D1698842E9
S315200043C002D342F2D874E8E700F0F0FA0028CFD101
S315200043D01CB100F0E4F80400DED1BAF1000F06D1DA
S315200043E0002068600098A860012028709DE744F6A8
S315200043F02A64D2E7DFF8302600201178002918BF7A
S3152000440000F0CDB8704710B5DFF80446002061787B
S3152000441021B142F22C00204400F005FA42F21402A7
S31520004420A118002241F20D030A70E254CA602273D9
S3152000443010BD2DE9F8430D46DFF8D47539780424EC
S3152000444011B942F2DD7441E00DB900243EE07B68EB
S3152000445042F2EC22B918CE698A68012B08BF814640
S315200044600DD00968B0FBF1F32818401EB0FBF1F01F
S31520004470B3FBF2F9B0FBF2F5A5EB09056D1C42F290
S315200044806C003958B1FBF2F0814507D21EE0484650
S3152000449000F05BFA040003D16D1EC14625B90DE07C
S315200044A0484600F094FAC146B14507D2484609F17C
S315200044B0010800F07BFA0028E9D0F4E7787828B1E3
S315200044C042F22C01781800F0AEF904462046BDE8E9
S315200044D0F28370B5DFF83845207810B942F2DD70E6
S315200044E070BD42F208310025665800E06D1CB542C9
S315200044F00CD2284600F05AFA0028F7D1284600F0B8
S3152000450024FA0028F2D070BD002070BD6078002803
S31520004510FAD042F22C01601800F085F90028F3D079
S3152000452070BD002918B538D0DFF8E42442F2EC2318
S3152000453042F27C141344144450B1012811D00228AD
S3152000454012D003281AD005281AD010281DD024E00E
S315200045501078002814BF002042F2DD700860002089
S3152000456012BD00220A60FAE723686068E268C31871
S31520004570A068C318D318DB0A0B60F0E71868EDE7CC
S315200045801C68986844430C60E9E7226860688218D2
S31520004590A0688218E0688218E4E7042012BD2DE99D
S315200045A0FE4FDFF86C5442F214002E1842F2EC2033
S315200045B02F187068396842F2DB7888421CBF0020C9
S315200045C02873D6F808A0002030700121504600F04C
S315200045D05AF8002848D041F2140028447168019006
S315200045E00246504600F07BF9002841D0B868BAFB55
S315200045F0F0F42046641C00F0EAF9F068F9690291AB
S3152000460004E0204600F0E3F9F068641C401CF060EA
S3152000461002998C422AD2204600F0C8F90028F3D10C
S31520004620B868BAFBF0FB00FB0BFB60430090AAEBDB
S315200046300B01491C00F027F8B0B1DDF80090D345F6
S31520004640396817D205F10D02584600F02CF9A8B9A1
S31520004650396805F10D02484600F041F970B90BF1B1
S31520004660010B09F10109EAE7404601E042F2D87060
S31520004670BDE8FE8F019A484600F031F90028F7D0B0
S315200046804045BED1F4E7F8B50546DFF8846342F22B
S31520004690EC200C4637580CE0001DB84208D251F8E1
S315200046A0042B12F1010FF7D00020F2BD0120F2BD3C
S315200046B0641E002CFAD006F10D02394628466D1CE0
S315200046C000F0F1F80028EFD106F10D01E5E72DE91C
S315200046D0F843002705460E46B846DFF83893CC4CFB
S315200046E001E07F1CB044BFB2AF4222D204F10D02DA
S315200046F04FF48061404600F0D6F8002801BFD4F878
S3152000470011004845D4F815000128EAD14FF48061FC
S3152000471004F10D0000F02CF90028E2D042F22C0022
S315200047204FF4806204F10D01204402F0C7FD002001
S3152000473000E00120BDE8F2832DE9F84F054644F656
S315200047402968B5F81290B5F810A0D5F8C812002639
S315200047500027DFF8BCB209FB0AF0B0FBF1F44E45A6
S315200047602ED20BF10D024FF48061384600F09BF8F3
S3152000477050BB012229460BF10D0006F0C5F918BBE6
S31520004780761C5744EBE73046761C00F0ECF8A64240
S31520004790F9D30024002647464C4512D22A464FF428
S315200047A08061304600F09BF800280FBF0027D5F81F
S315200047B0C802B6FBF0F000F0D6F8641C5644EBE7CE
S315200047C000273846BDE8F28F0026E0E72DE9F843BA
S315200047D0914C00216160458A068A0027D0F80C801A
S315200047E0DFF8389201E07F1CB044BFB2AF4217D247
S315200047F0082F15DA22464FF48461404600F053F81C
S31520004800002801BF60684845A0680128EBD14FF415
S315200048108461204600F0ACF80028E4D0002000E0B7
S315200048200120BDE8F2832DE9F84F814644F629663A
S31520004830B9F81280B9F810A0D9F8C802002508FBEB
S315200048400AF1B1FBF0F7D9F80C10B1FBF0F403E054
S3152000485028196D1C00F087F8ADB2BD42F8D36E4F13
S3152000486040F21C41381D002500F08FF83860D9F839
S315200048700CB0674CADB2454512D23A464FF484612E
S31520004880584600F02CF810B96070002605E0D9F8DB
S31520004890C802BBFBF0F000F066F86D1CD344E9E7D4
S315200048A03046BDE8F28F2DE9F84305460C461646FC
S315200048B042F2EC29DFF8588108E03246394628468C
S315200048C000F048F848B9F619E41B6D1C2CB158F8CD
S315200048D00970A74228BF2746EFE7BDE8F2832DE9F6
S315200048E0F84F0546DFF828A142F22C100C46164652
S315200048F00AEB000842F2EC2912E00AF10D023946D1
S31520004900284600F027F85FEA000B1BD13A460AF149
S315200049100D01304606F0F8F890B9F619E41B6D1C27
S3152000492084B15AF8097033462A464146A74228BF21
S3152000493027460097002006F094FB0028DDD002E0F1
S31520004940012000E05846BDE8F28F0CE00146002029
S3152000495006F06CBA80B51346009102463349002012
S3152000496006F076FA02BD02463049002006F017BB53
S3152000497010B50446091F201D00F007F8216888425B
S3152000498001D1012010BD002010BD3EB504460D46C4
S3152000499001A806F061FD2A46214601A806F062FD1F
S315200049A0694601A806F074FD00983EBD30B51A4A46
S315200049B00021136900E0491C994206D202EB8104CA
S315200049C0256A8542F7D1012030BD002030BD12492D
S315200049D00A69B2F5807F0AD201EB82021062086969
S315200049E00B4A401C086101215170002070470120AC
S315200049F07047074942F2200330B5CC5842F2F425DD
S31520004A000268495901FB04220260002030BD0000E3
S31520004A10B00A21204243464EDC2E212054424244F5
S31520004A20C0802020FC322120C42A2120DC2B2120FA
S31520004A3030B504460420002C85B01EBFDFF8E023E5
S31520004A401178002949D023681D0F0B2D45D1C3F3BA
S31520004A500361012902F582750CD000293DD120463B
S31520004A6003F076F9002811BF0021A16869600121B1
S31520004A70297032E0297881B313F00F0F2DD1002051
S31520004A8004A90490039000F042F930BB03A900F07A
S31520004A9075F910BB01A9032000F07EF9E8B96C680E
S31520004AA0049D694602A803F08AF96519A8B9009AF7
S31520004AB00399A418A14210D3019A521E15420CD173
S31520004AC00199284607F01EF910B142F2DB7004E086
S31520004AD0029A0099284600F0CBF805B030BD38B5CB
S31520004AE003F096F8102801D0012032BDDFF83053AC
S31520004AF0281D07F0C6FA040008D1281D07F01DF965
S31520004B00040003D100F076F901202870204632BD3A
S31520004B10FEB5054602F03EFC20B105F1FF0002F08D
S31520004B2039FC08B90420FEBD2968BE48BC4C814228
S31520004B300DD14FF480722946201D02F0BFFB0020C4
S31520004B402070201D07F0F9F800286BD0FEBD080F55
S31520004B500D285ED1C1F3012000B9012021F4407156
S31520004B6041EA0021201D296007F08BFA00286FD129
S31520004B70052004F12506207418203070287804F1C9
S31520004B80450700F0030078742968090ACA0002F074
S31520004B90180272702868800A00F001007072296875
S31520004BA0090B01F00701F1712868C0F38100022882
S31520004BB03874C4D1AA8800F04CF8F075EA8800F061
S31520004BC048F830762A8900F044F870766A8900F031
S31520004BD040F8B076AA8900F03CF8F076EA8A00F030
S31520004BE038F8B0772A8B0121201D06F067FEF07772
S31520004BF0EA8900F02EF838702A8A00F02AF83077F1
S31520004C006A8A00F026F87077AA8A00F022F878706F
S31520004C1095E70B2803D12846FFF70AFFFEBD45F28C
S31520004C207C20FEBD00F0E6F801A9012000F0B4F8D2
S31520004C306946102000F0B0F87B49019808640123EA
S31520004C408B64024600988218521E4A640020237004
S31520004C50FEBD0021201D06F031BE10B5704C237814
S31520004C6013B942F2DD7010BDBDE8104005F000BF5B
S31520004C70F8B504466A4F38780D46164610B942F202
S31520004C80DD70F2BD204607F03DF810B142F2DB7030
S31520004C90F2BD2B4632462146381D01B0BDE8F04014
S31520004CA007F09EB82DE9F6415D4A074610788D0833
S31520004CB082B0CC19AD0001F0030610B942F2DD70C6
S31520004CC023E000F023F801A900F058F80098874265
S31520004CD021BF014601984118A1420CD245F26D2010
S31520004CE013E003AA04213846FFF7C2FF5FEA000853
S31520004CF00AD13F1D2D1F002DF3D12EB103AA314617
S31520004D003846FFF7B5FF8046404634E06946012025
S31520004D1042E02DE9FF41424C064620780D46AF1968
S31520004D2010B942F2DD7026E0FFF7F0FF01A9052059
S31520004D3000F032F802A900F021F80098864221BF3F
S31520004D40014602984118B94238BF45F26D2012D368
S31520004D5075B900200FE000980199301AB0FBF1F1E7
S31520004D60201D07F077F85FEA000803D1019886191D
S31520004D70BE42F0D3404604B0BDE8F08110200BE0DF
S31520004D80E0B501A9FFF7C3FF6946FFF7F7FF0099D2
S31520004D900198FFF7BEFF0EBD81B049B3204A02F14C
S31520004DA0A40350B1012812D0022812D0032816D00D
S31520004DB0052816D0102817D01AE01078002814BF1E
S31520004DC0002042F2DD700860002001B07047506973
S31520004DD0F9E75A6898684243920A0A60F4E71A6823
S31520004DE0FBE7586820B1EEE75A6898684243F4E733
S31520004DF00420EAE7E0B501A90520FFF7CDFF6946C3
S31520004E001020FFF7C9FF0648009A8169914204D213
S31520004E10019AB1FBF2F1C0F8AC1007BD000000000A
S31520004E203005212053454D43508020203EB502F0C9
S31520004E30EFFE202801D001203EBD00F0EBFCDFF87C
S31520004E40584A44F218102518284607F017FA70BB5E
S31520004E50284607F0CEFF50BB694601A807F04AF95D
S31520004E60009B019A0021002000F0E2FBF8B944F2F1
S31520004E7018004FF48062A11C204402F01FFA284635
S31520004E8007F0B7FF98B9009B019A44F224002158F5
S31520004E90012000F0CDFB50B94FF48462A11CDFF84D
S31520004EA0FC0902F00BFA0120207000F0CCFC3EBD7C
S31520004EB02DE9F0470446A04602F06CFA28B108F224
S31520004EC0FF38404602F066FA08B90420F8E0DFF819
S31520004ED0C88944F2240008EB000544F2181008EBB8
S31520004EE000092146002000F088FB98B300204FF4EB
S31520004EF0806288F8000044F218002146404402F0FF
S31520004F00EDF9484607F075FF0028DFD1AB88EA881F
S31520004F1029680120DFF884694FF4846700F088FB54
S31520004F20002800F0BD80FF223946304602F0F2FE0E
S31520004F30DFF86C0940F21C4170600120B06000204F
S31520004F403061301D00F055FC306000F034FA002846
S31520004F5039D1ABE02168080F0D2840F09E806068AB
S31520004F6010F00F0F14BF00F00F060126C0F3034701
S31520004F7007B90127C1F3012000B9012021F44071AE
S31520004F8041EA002121606168C1F30720002821F44D
S31520004F907F4108BF012041EA00216160207810F09E
S31520004FA00700D8BF45F2E42090DD092F28BF45F23F
S31520004FB0E52071D2002088F8000000F02BFC48463E
S31520004FC007F05CF900287BD144F26A1040440021A6
S31520004FD00522817244F221114144CA700022C27214
S31520004FE00A70227802F0070202702368C3F3C00217
S31520004FF0CA752268C2F30212521C42702268120A33
S31520005000D30003F0180344F248120B762168090BEB
S3152000501001F0070108F802102268120C02F00102C2
S31520005020C2702168490C01F001010171484607F060
S31520005030E0FE002844D1616844F2C01E58F80E00F4
S31520005040A4463B46C1F3072AC1F3072216FB0AFAF8
S3152000505000FB02F900224FEA4A0A0FE008EBC201E0
S3152000506044F2580758F80E40521C394407896743C2
S315200050704F60408958F80E70784308609A4221D2D2
S315200050800CEB82001AB1C188878807EB010A418997
S315200050905145E3D245F2E62012E045F2E0200FE04A
S315200050A03A4608F10201304602F008F9002000F0E5
S315200050B0EDFA28B9012088F80000BDE8F047C2E3E0
S315200050C0BDE8F087EE8009FB06F6A5F804902E6071
S315200050D0AB601BE72DE9F84F5FEA020BDFF8B867F4
S315200050E044F2B81206EB0207D7F80080814608BFC3
S315200050F00420B9FBF8FA08FB1A9922D0327812B9A3
S3152000510042F2DD701DE00C4644F21403F258B968F1
S3152000511001FB02AA44F218113144009110E0B01CA0
S3152000512000EB09012A46584602F0C8F8641BA94438
S31520005130C145AB4424BFA9EB08090AF1010A0020A6
S315200051405CB9BDE8F28F504600F03EFBF0B144F268
S315200051501400AA443158491C315042F2040242F24A
S315200051600200B158305C514500D110BBBD68BAFB76
S31520005170F5F218B1B1FBF5F0824207D0F86839692B
S3152000518048438242DFD342F2D870DAE742F2020580
S31520005190002070553B680098B21C514607F0BCFEB3
S315200051A028B90121715542F2040146F801A00028D0
S315200051B0C7D104EB090080452CBF2546A8EB09057D
S315200051C0ADE72DE9F84F07465FEA0208DFF8C85633
S315200051D044F2B813EA58009208BF0420B7FBF2F94C
S315200051E002FB197747D02A7812B942F2DD7042E0E5
S315200051F044F20803EE18336D994538BF45F2E32093
S3152000520039D344F2B8138A46EB18F268996801FB41
S3152000521002991CE000980AEB070142F20803884233
S31520005220414634BFC41B5446E81922461844E719A0
S3152000523002F044F87068AAEB040AA04420187060B3
S315200052400098874224BF3F1A09F101090020BAF1CC
S31520005250000F04D10FE0F068D944401CF060B0681C
S315200052603478484509D144B17068B842D2D000F0AC
S315200052700DF90028F3D0BDE8F28F44F2B8116A1870
S31520005280D2F808B0B9FBFBF11CB1B0FBFBF08142B0
S315200052900DD0D06812695043814202D342F2D870B1
S315200052A0E9E7484600F090FA0028D4D11CB100F076
S315200052B0EDF80028DFD137B9002070600120C6F84C
S315200052C008903070A6E745F2D120D4E72DE9FC47B7
S315200052D0DFF8C47544F2B812BC182569E268554354
S315200052E03A7812B942F2DD703AE009B9002037E087
S315200052F02368A268B0FBF3F60818401EB6FBF2F945
S31520005300B0FBF3F0B0FBF2F644F25800A6EB090628
S315200053103958761CB1FBF2F0814509D245F2E320DB
S315200053201EE0504600F05FF95FEA000802D1761EC3
S3152000533086B102E0504600F09DFACA46AA4509D237
S31520005340A0680AF1010900FB0AF000F03DFA0028E6
S31520005350E7D0F2E7787810B100F02DF88046404685
S31520005360BDE8F68744F2C0102DE9F041DFF8286544
S3152000537000253718BC6878684443307888B942F2EB
S31520005380DD7016E03868684300F01EFA40B92846FA
S3152000539000F029F95FEA00081CBF284600F06AFAE7
S315200053A06D1CA542EED3707810B100F004F880464B
S315200053B04046BDE8F081012068E1DFF8E8240020BE
S315200053C01178002918BF00F061B8704710B5DFF8D2
S315200053D0C8440020617809B1FFF7EDFF44F20802C6
S315200053E0A118002242F202030A70E254CA6010BDDC
S315200053F0002918B534D0DFF8A02444F2B81313449A
S3152000540050B1012811D0022812D003281AD005281D
S315200054101AD010281CD023E01078002814BF0020B2
S3152000542042F2DD700860002012BD00220A60FAE711
S315200054301C69D8681A684443986844435443A40AAC
S315200054400C60F0E71868EDE79C6818684443F7E7B6
S315200054501A69D86842439868424318684243E5E788
S31520005460042012BDDFF8301444F2F8100A18107820
S31520005470002800D0704710B5002342F202040B55D5
S3152000548042F20404881C0B51506010BD2DE9FE4FDA
S31520005490DFF8044444F20800251844F2B810261810
S315200054A0D5F808A0B068316942F208022244009279
S315200054B0BAFBF0F8F0684143029131680020287069
S315200054C06868884205D0009B091AFF22184405F017
S315200054D0E7FA44F2181001225146204407F078FEDC
S315200054E0002842F2DB7B46D13068009A014600FB59
S315200054F00AF000F050F8002841D0404608F1010893
S3152000550000F0B8F9E86805E0404600F0B3F9E8682D
S3152000551008F10108401CE860029988452DD2B76839
S3152000552007FB08F9484600F04FF90028EFD1BAFBEF
S31520005530F7F0474344F21810204449460190AAEB5D
S315200055400702521C07F044FEA8B95745316818D205
S3152000555001980B46A21C394607F0DEFCB0B930682C
S31520005560A21C014600FB09F000F015F870B97F1C5B
S3152000557009F10109E9E7584601E042F2D870BDE891
S31520005580FE8F009A01FB0AF000F005F80028F6D0FD
S315200055905845B9D1F3E72DE9F84F44F2B814BE4D7A
S315200055A02B59914609EB01088A46B0FBF3F6FFF723
S315200055B059FF44F218102F1858460AE05B464A460F
S315200055C03146384607F014FD58B9D944AAEB0B0AE0
S315200055D0761CC14505D255F804B0DA4538BFD34606
S315200055E0ECE7BDE8F28F10B50446FFF73BFF2146F6
S315200055F0AD48BDE8104007F08FBD10B50C4620B968
S31520005600AA4A201D4FF47F7103E0A54A201D40F2CF
S315200056101C416368934204BFA268012A06D100F0A8
S31520005620E8F82168884201D1012010BD002010BD74
S315200056302DE9F84F80460E46974C92469B464FF4EE
S315200056400051A01C44F2B81507F032FE5FEA0800AC
S315200056500CBF4FF480694FF48469002701E05E4453
S315200056607F1C57450FD26059A21C49467043FFF74D
S3152000567031FD0028F3D1A11C4046FFF7BEFF0028CC
S31520005680EDD0002000E00120BDE8F28F2DE9F84F93
S31520005690814E44F2180186B07518698A0191298ACB
S315200056A0019B029144F2B8117218012B05D9029C74
S315200056B091685C43B4FBF1F901E04FF001098DF8E4
S315200056C0000018BB002744F2B810B8463044C24642
S315200056D00390DDF804B0029CD8455CD2039BB21C33
S315200056E04FF48061186800FB0AF0FFF7F3FC0028EE
S315200056F054D14FF480622946B01C05F005FA0028E3
S3152000570004BF08F10108A244E6D047E0D5F80C8092
S315200057109068624D45F2E22404954FF4846BB8FB01
S31520005720F0FA40F21C41281D00F063F8286000259D
S3152000573004E005EB0A006D1CFFF755FF4D45F8D335
S315200057409DF8000044F2B811314400270590DDF899
S3152000575004900391029DDDF810A04F4532D20398A4
S3152000576052465946006800FB08F0FFF714FF28B997
S315200057700599012908BF7070002405E00398816807
S31520005780B8FBF1F0FFF72FFF7F1CA844E5E70020C8
S3152000579007B0BDE8F08FCDF804B002E0CDF804B034
S315200057A001270294002F4FF0000AD04645F2E1244B
S315200057B004954FF4806BEAD044F21C004FF47F71BD
S315200057C03044B1E72046E3E770B5394B01461C6803
S315200057D0324B00220020B1FBF4F11C6900E0521C80
S315200057E0A24205D203EB82052E6AB142F7D10120EF
S315200057F070BD3EB504460D4601A805F02DFE2A468D
S31520005800214601A805F02EFE694601A805F040FEB6
S3152000581000983EBD38B5204C44F218002518FF22CA
S315200058204FF48061284602F075FA20484FF47F71C4
S3152000583068600120A86044F21C002044FFF7D9FFCD
S315200058402860002032BD80B569464FF4807001F093
S3152000585073FC70B900991420164A41431144164A24
S315200058601068C8601369D0684343906843438B60CF
S31520005870002002BD09490A69B2F5807F0AD201EBF0
S31520005880820210620869044A401C08610121517095
S3152000589000207047012070473CBC20205400212066
S315200058A05442424444FC202054FD20204243464E8C
S315200058B0FCFD2020C0802020F4FD202030B50446A9
S315200058C00420002C85B01EBFDFF89C251178002906
S315200058D04FD023681D0F0B2D4BD1C3F30361012934
S315200058E002F23C450CD0002943D1204602F030FA82
S315200058F0002811BF0021A16869600121297038E0C4
S315200059002978002935D013F00F0F32D1002004A9B1
S3152000591004900390012000F068F950BB03A91020E1
S3152000592000F063F928BB01A9032000F05EF900BB53
S315200059306C68049D694602A802F041FA6519C0B94F
S31520005940009A0399A418A14213D3019A521E154214
S315200059500FD10199284600F0B6F810B942F2DB7053
S3152000596007E0029A0099284600F017F808B900F0D7
S3152000597052F805B030BD0020DFF8EC14886070477F
S3152000598010B51346DFF8E044227802B998E00A46BB
S315200059901946BDE8104007F0BCBC2DE9F843064681
S315200059A0DFF8C45428780C469146D5F8288410B9D7
S315200059B042F2DD702DE0B8F5806F88BF4FF4806825
S315200059C034B3A8686968002804BF00296E6002D035
S315200059D04118B14217D1211888452CBF2746A8EB7C
S315200059E00007284400F10C01894504D03A4649466F
S315200059F00C3001F063FCA868BE19E41BB9443818C2
S31520005A004045A860DCD100F006F80028D8D000E098
S31520005A100020BDE8F283F8B5DFF84C64ADF5806D63
S31520005A20B5680024DDB177687460B4602A4606F153
S31520005A300C01384607F0EDFC040010D12A466946D1
S31520005A40384607F066FC040009D12A46694606F165
S31520005A500C0005F059F810B142F2DF7000E0204644
S31520005A600DF5806D01B0F0BD38B50D460446DFF862
S31520005A70F813087810B942F2DD7032BD2946204667
S31520005A8007F05FFC40B92946204600F01CF810B903
S31520005A9042F2DF7032BD002032BD10B5DFF8C843B8
S31520005AA0207800B90CE007F08DFC40B9D4F8241416
S31520005AB000F009F810B942F2DF7010BD002010BDC9
S31520005AC042F2DD7010BD70B5ADF5806D05460C4611
S31520005AD010E0491CB1EB960F0AD250F8043B13F1A3
S31520005AE0010FF6D0002000E001200DF5806D70BD7D
S31520005AF0A41B7519002CF7D04FF48066B4F5806F7F
S31520005B006946284698BF2646324607F002FC684674
S31520005B100021DFE72DE9F8430646042401F03AFC8C
S31520005B2000285FD006F12B0001F034FC002859D064
S31520005B303068DFF8345305F5826805F20C47DFF844
S31520005B402C93000F0C281AD12C214046FDF72EFE4F
S31520005B504FF480300121B86005F58660017002217E
S31520005B60417003218170052101710621C4704171A4
S31520005B703146C7F80490404600F0DCF813E0306860
S31520005B80010F0B2904D13046FFF798FE044629E081
S31520005B90484527D12C214046FDF708FE2C223146C8
S31520005BA0404601F08BFB00203C7B2870D7F8108004
S31520005BB005F58360AE4E01F0BBFF204601F06AFF7B
S31520005BC03146204601F0A5FF42463146204600F0E8
S31520005BD035F8396805F5846007F06EFB040004BFCC
S31520005BE0012028702046BDE8F28381B021B39E4A69
S31520005BF002F2244350B1012812D0022815D00328DE
S31520005C0011D0042814D0102814D015E010780028BC
S31520005C1014BF002042F2DD700860002001B07047FA
S31520005C2000220A60F9E75868F6E71868800AF3E761
S31520005C309A68F6E71A68F4E70420EFE770B58CB0A7
S31520005C4004460D46164607A80FF24821142201F0F5
S31520005C5045FB1C216846FDF7A9FD0096082000217A
S31520005C600190009AADF808108DF80A108148014677
S31520005C70B0FBF2F2009803920A46B1FBF0F00099CD
S31520005C80049002208DF8180007A8B2FBF1F10591C7
S31520005C9000218DF819102A46ADF81A1050F8240064
S31520005CA0694607F017FD0CB070BD2DE9F84107468F
S31520005CB0714889B00E4690460478457804A80FF2BC
S31520005CC0E811142201F00AFB002069460022002375
S31520005CD0B8F1000F844681E80D104FF480110CBFF7
S31520005CE00122B8F1030F039105D12946204601F080
S31520005CF0EDFE00201BE0B8F1010F08BF019703D08D
S31520005D00B8F1020F08BF0097029604A850F8246045
S31520005D106946304607F048FEB0F5C87FF8D030B166
S31520005D2000222946204601F0D1FE42F6CD100AB0C7
S31520005D30BDE8F08130B50B78504A03F00F0302EB33
S31520005D408304E56D85610B68C3F3031302EB8303BC
S31520005D501C6CC4610B68C3F3032352F82320484B01
S31520005D6042610A68120B02F00F02012A02D0022AAF
S31520005D700ED00FE0426901240474B2F5803F98BF2B
S31520005D80102203D99A4234BF18222022427431E0CD
S31520005D9002742FE000226024027400F12102D471E3
S31520005DA044699C4213D21823437442235371C36916
S31520005DB0B3F5803F28BFD8231BD2B3F5805F08BF39
S31520005DC0202316D0B3F5004F14D1522311E02023FF
S31520005DD04374122313701323537000235371C36922
S31520005DE0B3F5803F28BFDC2303D2B3F5805F01D112
S31520005DF0212393710A68120D02F00F02521E032A04
S31520005E000BD8DFE802F002040608012206E002228F
S31520005E1004E0032202E0042200E0002202720A6863
S31520005E20120C02F00F02012A06D004D3032A03D053
S31520005E3038BF022200D3002242720A68C2F30362EC
S31520005E407AB1097901F00F01012904D009D3032978
S31520005E5005D002D305E00B4904E00B4902E00B49CB
S31520005E6000E00B49C16030BDAC8120206B736563B7
S31520005E70005A620200CA9A3BC4852020388120201D
S31520005E800100000180969800404B4C0080841E0043
S31520005E90002D3101000000000040394000803940CB
S31520005EA000C0394000003A40000000000040394060
S31520005EB00080394000C0394000003A40014601F0D8
S31520005EC0FF0000F1804000F57C200A0A006802F0FD
S31520005ED01F02C1F34C3191400840D0407047F0B5C5
S31520005EE004460420002C85B01FBFDFF8C85505F5F1
S31520005EF06576317800295CD02268130F0B2B58D198
S31520005F00C2F3036101290CD0002952D1204601F0A9
S31520005F101FFF002811BF0021A168B1610121317541
S31520005F2047E0317D002944D012F00F0F41D10020E7
S31520005F3004A904900090012000F01EFA002838D110
S31520005F406946022000F018FA98BB0098DFF8681519
S31520005F504FF0FF34884202A928BF0094052000F0A4
S31520005F600BFA30BBB769049E01A903A801F027FFED
S31520005F70BE19F0B9019A0099BF18B94219D3029AED
S31520005F80521E164215D195F8000302990128304673
S31520005F9018BF0024224600F065FA10B942F2DB70E1
S31520005FA007E0039A0199304600F03FF908B900F05E
S31520005FB092F905B0F0BD3EB5DFF8F84400F0E2F8FE
S31520005FC00546DFF8F804FFF779FF401CB5FBF0F033
S31520005FD0606004F55B7540F2FF10A8840220688497
S31520005FE0204607F06DFED8B9204608F067FEA0B916
S31520005FF001A940F2211001F09FF888B900F011F8AC
S3152000600070B9019B1421DFF8B8242D684B43D118B1
S31520006010CD60009A8A60012100E0002184F8941363
S315200060203EBD6946204651E27FB5054601F0B2F9EC
S3152000603068B1E81D01F0AEF948B12868000F0B28B9
S3152000604003D12846FFF74BFF02E00C2802D004209C
S3152000605004B070BDDFF85C444FF46C712046FDF748
S31520006060A5FB00F08FF80646DFF85004FFF726FF61
S31520006070401C04F12801B6FBF0F0606004F55B7665
S3152000608040F2FF10B084022070842868020B000AB8
S3152000609002F00F0200F00F000A7048706868C20C08
S315200060A002F001020A7341F28832C30D000E00F09D
S315200060B0030003F0010301284B7340F6C41306D0F6
S315200060C002D3032808D005D344F6206005E042F227
S315200060D0107002E0104600E0184648606868C0F379
S315200060E0005000B11A468A606868800C00F00100F2
S315200060F08873204608F0E2FD0028A9D129682046A9
S31520006100090E01F0070108F0D2FF0028A0D103A94B
S31520006110FFF788FF00289BD102A940F2211001F049
S315200061200BF8002894D1029B1421DFF894233668BB
S315200061304B43D118CE60039A8A602968CA071DD5B9
S31520006140080C00F003008DF80300C1F301108DF850
S315200061500400080D00F007008A08C90801F00101B3
S315200061608DF8010002F001028DF8021069468DF8C3
S315200061700020204609F0BEF8002802D1012184F82B
S31520006180941365E7DFF83C0320600E2009F04AB936
S315200061902DE9F84FDFF81C93824609F565760C4603
S315200061A03078904610B942F2DD703CE04FEA5A252D
S315200061B009F56C70AAEB45254FEA5A2700900FE0A7
S315200061C000985A46A4EB0B044119404601F076F894
S315200061D05D44B5F5007FD84424BFA5F500757F1C26
S315200061E004B3707878B1706887420CD3411C8F4213
S315200061F009D2AAEB40256019B0F5007F94BFA346CB
S31520006200C5F5007BDCE700200099707001233A4633
S31520006210484608F06CFF002802BF012070707760A6
S31520006220E9D000E00020BDE8F28F2DE9F84FDFF835
S31520006230849209F56576337813B942F2DD703FE032
S3152000624082464FEA5A2790460D46AAEB47274FEA41
S315200062505A2409F5B66912E05A46414609EB070069
S315200062605F4401F02BF8F068B7F5007FA5EB0B052E
S31520006270D8445844F06024BFA7F50077641CF5B1D4
S31520006280307A18B3306984421CD3411C8C4219D20F
S31520006290AAEB4027F068B84209D000F09BF8002806
S315200062A0EED00DE000203461F06001203072E81954
S315200062B0B0F5007F94BFAB46C7F5007BCCE7002046
S315200062C0BDE8F28F00F086F80028F9D1002FE9D03A
S315200062D042F2DE70F4E7774A002092F89C130029F8
S315200062E018BF00F077B8704777480021C171017058
S315200062F00020704770B506466E4D95F894030C46FF
S3152000630010B942F2DD7070BD284608F0C8FE10B103
S3152000631042F2E07070BD94B105F55B70A419C169B5
S315200063200068641EB4FBF0F2B2FBF1F2B6FBF0F0AB
S31520006330B0FBF1F12846BDE8704008F01DBF70BDE6
S3152000634038B55C4C04F56275287B10B942F2DD70D5
S3152000635032BD204608F0A3FE10B142F2E07032BDF5
S31520006360FFF75FFE38B900982968B0FBF1F20021EB
S31520006370204608F001FF32BD38B50C0028D04D4D1F
S3152000638030B101280ED002280FD005281CD01FE0DE
S3152000639095F89403002814BF002042F2DD70206097
S315200063A0002032BD00212160FAE76946284600F028
S315200063B08DF80028F5D10098D5F86C13A1FB0001C3
S315200063C0800A40EA8150EAE7D5F86C232260E7E7A5
S315200063D0042032BDF8B5374C204608F060FE10B1D7
S315200063E042F2E070F2BD04F5677504F5B66668689A
S315200063F04FF0FF37B0F5007F0AD094F8001301293B
S31520006400C0F5007130440CBF3A46002204F048FB28
S315200064100020287094F800030128A86818BF0027D8
S315200064203A46012100F01EF810B942F2DB70F2BDA7
S31520006430AA6801233146204608F072FE88B9AA6868
S3152000644004F56C7701233946204608F050FE40B902
S315200064504FF400723946304604F056FB08B142F23A
S31520006460DF70F2BD2DE9F843124E05460C469146E3
S3152000647006F56C7816E03B462A464146304608F03B
S3152000648036FE48B9414600E0001DB0EB472F08D242
S3152000649051F8043B4B45F7D0002000E00120BDE831
S315200064A0F283E41B002CF9D0012C8CBF0127274650
S315200064B0E1E70000A4AA20200100400024F000808B
S315200064C0C080202000402C4039AE202081B000F52D
S315200064D05C70027F072A14D8DFE802F0040909134A
S315200064E00B0D0F1100680860002001B0704740684E
S315200064F0F9E78068F7E7C068F5E70069F3E74069E0
S31520006500F1E70420F1E70000014601F0FF0000F169
S31520006510804000F57C200A0A006802F01F02C1F3C1
S315200065204C3191400840D0407047F0B504460420D5
S31520006530002C85B01FBFDFF8082502F1AA05A97D2A
S3152000654000295DD023681E0F0B2E59D1C3F303619A
S31520006550012902F1D4060CD0002951D1204601F0A0
S31520006560F7FB002811BF0021A1687160012131705D
S3152000657046E03178002943D013F00F0F40D1002098
S3152000658004A904900090012000F0C7F9002837D113
S315200065906946022000F0C1F990BB0098DFF8A414E8
S315200065A04FF0FF34884202A928BF0094052000F04E
S315200065B0B4F928BB7768049E01A903A801F0FFFB64
S315200065C0BE19E8B9019A0099BF18B94218D3029AA0
S315200065D0521E164214D12878C1070299304658BF58
S315200065E00024224600F005FA10B942F2DB7007E0DB
S315200065F0039A0199304600F0F0F808B900F043F903
S3152000660005B0F0BD38B5DFF83844DFF83C0420602B
S315200066100E2008F007FF0546DFF83004FFF774FF69
S31520006620401CB5FBF0F06060204607F09BFB60B98C
S315200066302046B43409F089FE28B900F07CF820B948
S3152000664000F06DF800E00021217332BD7CB50446D0
S3152000665000F0A0FE68B1E01C00F09CFE48B1206866
S31520006660000F0B2803D12046FFF75FFF76BD0D28CC
S3152000667001D0042076BDDFF8C853DC212846FDF77B
S3152000668095F8DFF8C40328600E2008F0CBFE0646F6
S31520006690DFF8B803FFF738FF401C05F12801B6FBE9
S315200066A0F0F068602068020B02F007020A70C20D43
S315200066B0030AC60C000E00F0030003F0010302F0EB
S315200066C0010201284B7006F001064A730E7341F24F
S315200066D0883240F6C41306D002D3032808D005D347
S315200066E044F6206005E042F2107002E0104600E019
S315200066F0184648602068C0F3005000B11A468A60E8
S31520006700284609F022FE05F1B40428B900F013F852
S3152000671020B900F004F800E00021217376BD009B2B
S315200067201421DFF82C2365684B43D118CD602268ED
S315200067308A600121704769464FF4907000F0FCBCD6
S315200067402DE9F84FDFF8F892824609F1C0060C468B
S315200067503078904610B942F2DD703CE04FEA5A2577
S3152000676009F1DC00AAEB45254FEA5A2700900FE0F5
S3152000677000985A46A4EB0B044119404600F09EFDB2
S315200067805D44B5F5007FD84424BFA5F500757F1C70
S3152000679004B3707878B1706887420CD3411C8F425D
S315200067A009D2AAEB40256019B0F5007F94BFA34615
S315200067B0C5F5007BDCE700200099707001233A467E
S315200067C048460AF002F8002802BF01207070776060
S315200067D0E9D000E00020BDE8F28F2DE9F84FDFF880
S315200067E0609209F1C006337813B942F2DD703FE0BA
S315200067F082464FEA5A2790460D46AAEB47274FEA8C
S315200068005A2409F5377912E05A46414609EB070022
S315200068105F4400F053FDF068B7F5007FA5EB0B054C
S31520006820D8445844F06024BFA7F50077641CF5B11E
S31520006830307A18B33069A0421CD1411C8C4219D23F
S31520006840AAEB4027F068B84209D000F088F8002863
S31520006850EED00DE000203461F06001203072E8199E
S31520006860B0F5007F94BFAB46C7F5007BCCE7002090
S31520006870BDE8F28F00F073F80028F9D1002FE9D097
S3152000688042F2DE70F4E76E4A002092F8C810002922
S3152000689018BF00F064B870476E480021C1710170BE
S315200068A00020704770B50546654E96F8C0000C4628
S315200068B010B942F2DD7070BD304609F07EFF10B18E
S315200068C042F2E07070BD54B1690A65196D1E3046FA
S315200068D0C1EB5522BDE87040521C09F0BFBF70BD08
S315200068E038B5574C04F1B405287B10B942F2DD7057
S315200068F032BD204609F061FF10B142F2E07032BD90
S3152000690028686968A1FB002320460021520A42EA32
S31520006910C352BDE8384009F0A1BFF1B14E4A30B1AB
S3152000692001280DD002280ED0052814D015E0107BA2
S31520006930002814BF002042F2DD7008600020704756
S3152000694000220A60FAE710685368A3FB0023920A24
S3152000695042EA8352F5E75068EFE7042070472DE9B5
S31520006960F041374C204609F028FF10B142F2E07082
S315200069703DE004F1CC0504F53778286804F1AA0730
S315200069804FF0FF36B0F5007F09D03978CA07C0F539
S31520006990007140444CBF3246002204F081F80020AA
S315200069A0B8773878C107686858BF00263246012173
S315200069B000F01FF810B942F2DB7018E06A68012374
S315200069C04146204609F01EFF88B96A6804F1DC07B3
S315200069D001233946204609F0F8FE40B94FF40072EB
S315200069E03946404604F090F808B142F2DF70BDE81F
S315200069F0F0812DE9F843124E05460C46914606F1E4
S31520006A00DC0816E03B462A464146304609F0DDFEC4
S31520006A1048B9414600E0001DB0EB472F08D251F897
S31520006A20043B4B45F7D0002000E00120BDE8F2836F
S31520006A30E41B002CF9D0012C8CBF01272746E1E767
S31520006A40C4B320200100400000002C4024EB00802D
S31520006A50C080202085B4202078B420204168826818
S31520006A608A4209D2891A826641600FF2D5210160D5
S31520006A70012181600020704742F2787070470FF242
S31520006A80090101600020704710B5416ADFF84C44C7
S31520006A904A898282CA68921E42604B68A34202D10A
S31520006AA0097A022902DB42F2757010BD0FF2090243
S31520006AB00260002010BD0000416A43684A68826176
S31520006AC00A68D21E9A42826002D342F276707047DA
S31520006AD00989002908BFFFF7C1BF42F277707047C6
S31520006AE0F8B50446DFF8F863B4F85A30376804F18D
S31520006AF05C05626A6968D7F808C01806000F1B0A89
S31520006B0043EA00232868E047A0B93068016988472E
S31520006B1080B9616A102204F11C0004F0A3FC00F085
S31520006B2044F80098A968884200D043E00FF211206B
S31520006B3020600020F2BDF8B504461022616A04F1F7
S31520006B401C00DFF89C6304F15C0504F08BFCB4F8B0
S31520006B505A303768626A10211806000F1B0AD7F8C8
S31520006B6008C043EA00232868E047E8B928681030BF
S31520006B702860686810381028686088BFDFF86403CA
S31520006B8010D810B1DFF860030CE03068016988473F
S31520006B9050B900F00AF80098A968884200D009E0A8
S31520006BA00FF29D1020600020F2BD694604F11C0002
S31520006BB004F06EBC42F27A70F2BD10B5044604F1C0
S31520006BC01C0004F049FC216E11292CBFDFF81403A8
S31520006BD0DFF8140301E138B5DFF80433426E1C6890
S31520006BE0016EC06DE568A84732BDB0F85A2013067D
S31520006BF01B0F110AD20741EA03214CBF08230423A5
S31520006C00042901D00420704700F16002C16DB74805
S31520006C1000F004BD70B5044642F27F76E56D284645
S31520006C2000F0B8FB80B1606E04F11801A847064653
S31520006C30012E03D12046BDE870400FE7022E03D176
S31520006C4000F0C4F8002070BD304670BD1CB5436806
S31520006C5000F15C02516881608B4202D242F276706A
S31520006C6016BD137ADC0707D512688469A24203D1C0
S31520006C7011B1C160002016BD90F85A10CA0702D57E
S31520006C8042F27C7016BDBDE81640E7E638B5B0F88E
S31520006C905A108A071FD40B061B0F0A0AC9071CD5D0
S31520006CA042EA0322083A0ED0521E04D0F73A0ED0FA
S31520006CB0521E04D00FE0BDE83140FDF708B8BDE80C
S31520006CC03140FDF706BCBDE83140FEF759B8BDE8B6
S31520006CD03140FEF747BB042032BD42EA0322804BF7
S31520006CE01C685C3041680068A569A84732BD1CB5A0
S31520006CF00446B4F85A000106090F000A40EA0120AA
S31520006D00092803D1E06DFCF7C3FD16BD082803D181
S31520006D10E06DFDF7FDFE16BD01290ED1694600F096
S31520006D200BFA58B9E06D009C6D4A142193684C43C8
S31520006D3019190A691369984716BD042016BD000063
S31520006D40F8B5044604F15806616A304610225A25E1
S31520006D5000F0C4FA0120375C401CED191028FAD344
S31520006D60307805F0FF05A84202D042F27970F2BDD4
S31520006D70717842F212700A2925D8DFE801F01A0646
S31520006D800A0E26121A16261C20002046BDE8F240BE
S31520006D905CE72046BDE8F2400FE72046BDE8F2401A
S31520006DA019E72046BDE8F24034E72046BDE8F24028
S31520006DB06CE70020F2BD2046BDE8F24097E720466A
S31520006DC0BDE8F24011E742F27B70F2BD10B5484CA7
S31520006DD070212046FCF7EAFC46482060002010BDC2
S31520006DE0F8B506460C4600200027434DA74218D08A
S31520006DF02969E01BC1F1100109E080B12B69F25D20
S31520006E007F1C491E401EEA542A69521C2A61002909
S31520006E10F3D10020286100F005F810B9E6E742F228
S31520006E207D70F2BD80B53248334A4262C268002185
S31520006E302AB1036993420AD05B1C036101E0826E8A
S31520006E401AB901688847014601E0521E8266084643
S31520006E5002BDF8B5224C20680169884700283CD13C
S31520006E60234F97F85900042823D107F15C052E6893
S31520006E70304600F08FFAC8B10020FCF76BFC97F87B
S31520006E805A00810710D568686861616860B10A6830
S31520006E90904222BF4968491C814201D20420F2BD9A
S31520006EA080F3088880F30988A868B04742F27E708C
S31520006EB0F2BD08280FD10220FCF74CFCBFF34F8F00
S31520006EC00E490F480A6802F4E06202430A60BFF3E3
S31520006ED04F8F00BFFDE742F27B70F2BD53544D50F9
S31520006EE010802020376B0020E16A002000401F40E0
S31520006EF03CB320207F6A0020B0B320200CED00E0B8
S31520006F000400FA057CB50C00164605461A4601D142
S31520006F10002076BD100A10F00F0002D0012808D0FC
S31520006F2017E000F019F8B0B900F0A2F86568A84794
S31520006F3076BD6B46284600F0D5F860B90098A34A7E
S31520006F4003692846996951605B683246214698470D
S31520006F5076BD42F2D87076BD6A4628469EE0F8B5E0
S31520006F600C00174606461A4601D10020F2BD100A2B
S31520006F7010F00F00954D02D0012816D02BE0304698
S31520006F8000F0EFF838BB6A462146304600F086F816
S31520006F9018BB009B214630463A46DC68A668B047B7
S31520006FA0B0B90099CA68136913E06B46304600F001
S31520006FB099F890B900983A4603693046996969600C
S31520006FC09B682146984718B900990A69536900E0D9
S31520006FD000232B60F2BD42F2D870F2BD7CB5054687
S31520006FE0100A10F00F000C4642F2D87602D0012883
S31520006FF013D024E0FFF7B0FFF0B90099CA685069B2
S31520007000A0B12146284600F0ACF8C0B9009A214626
S315200070102846D3685C69A04776BD6B46284600F0B3
S3152000702061F848B900980169CA680AB9662076BD30
S3152000703021462846904776BD14B9002076BD3046B5
S3152000704076BD7CB50C000546164601D1002076BDDE
S3152000705000F087F810B142F2D87076BD6A46214614
S31520007060FFF77BFF18B900F003F8E568A84776BD5F
S31520007070009B214628463246DC68704710B5534CA3
S31520007080206810B180470021216010BD10B54F4CFB
S31520007090606810B180470021616010BDF0B5160010
S315200070A00D4642F2D8771BD049494A6832601DB94D
S315200070B016E003F11002326033688BB11A68002A99
S315200070C004BF5C68002C01D1D96849B1904224BF25
S315200070D059688142EDD32818401E814228BF0027D7
S315200070E03846F0BDF8B50646174642F2D87C0BB3B3
S315200070F0374882681A6019B91CE005F114021A6033
S315200071001D68BDB12A68002A04BF6C68002C07D10F
S31520007110A868002804BFEC68002C01D1286948B172
S315200071209742EAD1AB68EA688E195343B34228BF27
S315200071304FF0000C6046F2BD70B5054604200026CF
S3152000714071B1234A946801E0761C143444B1236853
S3152000715033B12269002A03D09D42F5D10E6000206A
S3152000716070BDF8B50918491E0022194BDC685E6807
S315200071701701256905EBC20505F17C04F5596668FA
S315200071802468AC4208BFAE4203D0864228BFA14243
S3152000719004D2521C012AE9D90020F2BD0120F2BDF9
S315200071A070B50B4D6E6803E0006800B1804710365D
S315200071B0F0680028F8D1AD6803E0096801B1884776
S315200071C0143529690029F8D162BD00009CAA202027
S315200071D0108020200246012000E0491E21B112F82D
S315200071E0013BFF2BF9D0002070470000F0B5064682
S315200071F004240D46002EA3B018BF002D56D03821EA
S31520007200284606F055F83820A8704320E8708120DB
S31520007210287066202871552068711020A8710020DA
S31520007220E8710EA809F069FB04003FD10020214F28
S315200072308DF83B000EA9384609F019FD040035D11A
S31520007240102205F10801384609F042FD04002DD12F
S315200072500D210AA8FCF7AAFA06A809F08BFD05F16C
S315200072600801802206A809F099FD102002960590B3
S3152000727005F12800049005F11800039000200190E4
S315200072800D2300900AAA102106A80AF077F80A49C9
S31520007290802206A809F082FD102005F1080300903F
S315200072A005F10802012106A809F0C3FE204623B0F5
S315200072B0F0BD00BF00C00C40AB89DCFE62B38B077B
S315200072C008D0521E11F8013B00F8013B00F0248043
S315200072D08B07F6D1830740F0208000BF103A07D3F2
S315200072E030B4B1E83810103AA0E83810F9D230BCE2
S315200072F0530724BFB1E80810A0E8081044BF51F88E
S31520007300043B40F8043BD20724BF31F8022B20F877
S31520007310022B44BF0B7803707047121F17D35B00F4
S3152000732009D151F8043B20F8023B1B0C121F20F810
S31520007330023BF6D20BE051F8043B00F8013B1B0A56
S3152000734020F8023B1B0C121F00F8013BF3D238BF7A
S31520007350121D521E24BF11F8013B00F8013BF8D83C
S315200073607047000038B504460D460020FCF7F2F9B8
S31520007370744800210560744A44601160026882F3F3
S31520007380088882F30988406880470020BDE832409B
S31520007390FCF7E0B900281CB51EBF10F1010F6B49A0
S315200073A0884201D1002016BD6A4602210024FFF73B
S315200073B075FE20B90098017ACA0748BF01242046E5
S315200073C016BD10B50246624B00205B6800E0103304
S315200073D0D96861B11C7A04F01104112CF7D119680F
S315200073E09142F4D25968491C9142F0D3012010BD34
S315200073F02DE9FC4D564E574FF0683C46016901F188
S315200074008C0509E02A7C024205D0E268606953684F
S31520007410816920469847183420680028F2D14FF415
S315200074207A700024FBF734FAA046A246CDE9000183
S31520007430C34600F0EBFB80BBFFF7ACFF68B3F068F8
S31520007440016991F8AA20D00703D400210020FFF774
S3152000745089FF688A4FF6FF71DDE90023884208BF5D
S3152000746041F28830A2FB00AB03FB00BBFBF706FA18
S31520007470044688460020834508BF82450DD0FBF789
S31520007480FDF9001B61EB0801594506D301D850458B
S3152000749003D300210020FFF765FF3E4600E01836A3
S315200074A031680029E6D0287C0842F8D0F1683046B9
S315200074B00A6890470028F2D0002EDBD009E02A7C0B
S315200074C0024218BFBE4203D0F96838468A68904700
S315200074D0183738680028F2D13046BDE8F68D38B521
S315200074E000F052F800F0CAFB194CE06801688847A2
S315200074F00020FBF7C3FAFBF793F921680868804759
