S0170000666C6173686C6F616465725F636D342E7372656325
S3152022000000D52420692923207B042220810C232029
S31520220010870C23208D0C2320930C23200000000004
S315202200200000000000000000000000007B042220C7
S315202200307B042220000000007B0422207B04222035
S315202200409129232099292320A1292320A929232044
S31520220050B1292320B9292320C1292320C9292320B4
S31520220060D1292320D9292320E1292320E929232024
S31520220070F1292320F9292320012A2320092A232092
S31520220080112A2320DD3D2320DD3D2320DD3D232093
S3152022009079232320192A2320212A2320292A23208F
S315202200A0312A2320392A2320412A2320492A232060
S315202200B0512A2320592A2320612A2320692A2320D0
S315202200C0712A2320792A2320812A2320892A232040
S315202200D0912A2320992A2320A12A2320A92A2320B0
S315202200E0B12A2320B92A2320C12A2320C92A232020
S315202200F0D12A2320D92A2320E12A2320E92A232090
S31520220100F12A2320F92A2320DD3D2320DD3D232029
S31520220110DD3D2320DD3D2320DD3D2320DD3D232023
S31520220120DD3D2320DD3D2320DD3D2320DD3D232013
S31520220130DD3D2320DD3D2320DD3D2320DD3D232003
S31520220140DD3D2320DD3D2320DD3D2320DD3D2320F3
S31520220150DD3D2320DD3D2320DD3D2320DD3D2320E3
S31520220160DD3D2320DD3D2320DD3D2320DD3D2320D3
S31520220170012B2320092B2320112B2320192B23204B
S31520220180212B2320292B2320312B2320DD3D232005
S31520220190DD3D2320DD3D2320DD3D2320DD3D2320A3
S315202201A0DD3D2320DD3D2320DD3D2320DD3D232093
S315202201B0DD3D2320DD3D2320DD3D2320DD3D232083
S315202201C0DD3D2320392B2320DD3D2320DD3D232029
S315202201D0DD3D2320DD3D2320DD3D2320DD3D232063
S315202201E0DD3D232091172220DD3D2320DD3D2320C6
S315202201F0DD3D2320DD3D2320412B2320492B232097
S31520220200DD3D2320DD3D2320DD3D2320DD3D232032
S31520220210DD3D2320DD3D2320DD3D2320DD3D232022
S31520220220DD3D2320DD3D2320DD3D2320DD3D232012
S31520220230DD3D2320DD3D2320DD3D2320DD3D232002
S31520220240DD3D2320DD3D2320512B2320592B232026
S31520220250DD3D2320612B2320692B2320DD3D2320F6
S31520220260ED3C2320712B2320792B2320812B232025
S31520220270892B2320912B2320992B2320DD3D2320DC
S31520220280DD3D2320DD3D2320DD3D2320DD3D2320B2
S31520220290DD3D2320DD3D2320DD3D2320DD3D2320A2
S315202202A0DD3D2320DD3D2320DD3D2320DD3D232092
S315202202B0DD3D2320DD3D2320DD3D2320DD3D232082
S315202202C0DD3D2320DD3D2320DD3D2320DD3D232072
S315202202D0DD3D2320DD3D2320DD3D2320DD3D232062
S315202202E0DD3D2320DD3D2320DD3D2320DD3D232052
S315202202F0DD3D2320DD3D2320DD3D2320DD3D232042
S31520220300DD3D2320DD3D2320DD3D2320DD3D232031
S31520220310DD3D2320DD3D2320DD3D2320DD3D232021
S31520220320DD3D2320DD3D2320DD3D2320DD3D232011
S31520220330DD3D2320DD3D2320DD3D2320DD3D232001
S31520220340DD3D2320DD3D2320DD3D2320DD3D2320F1
S31520220350DD3D2320DD3D2320DD3D2320DD3D2320E1
S31520220360DD3D2320DD3D2320A12B2320A92B232065
S31520220370DD3D2320DD3D2320DD3D2320DD3D2320C1
S31520220380DD3D2320DD3D2320B12B2320B92B232025
S31520220390C12B2320C92B2320DD3D2320DD3D2320F5
S315202203A0D12B2320D92B2320DD3D2320DD3D2320C5
S315202203B0DD3D2320DD3D2320DD3D2320DD3D232081
S315202203C0DD3D2320DD3D2320DD3D2320DD3D232071
S315202203D0DD3D2320DD3D2320DD3D2320DD3D232061
S315202203E0DD3D2320DD3D2320DD3D2320DD3D232051
S315202203F0DD3D2320DD3D2320DD3D2320FFFFFFFFA2
S31520220400002A01D101207047F0B41F460346032457
S315202204102340002B09D00424E31A0170013008243A
S31520220420E141521E26D05B1EF7D1042A1ADB13D0B5
S31520220430002F11D00C460D460E46102A02DB72C022
S31520220440103AFAE70C2A02DB32C00C3AFAE7082ADB
S3152022045002DB12C0083AFAE7042A03DB01600430E1
S31520220460121FF9E7002A05D0017001300824E14144
S31520220470521EF7D1F0BC00207047FEE7232122200E
S31520220480000000006B21222000000000AB22222047
S31520220490A124222003222220AF23222083252220A8
S315202204A0000000000000000000000000A9212220F8
S315202204B00000000081212220AF2322209D252220F8
S315202204C000000000FB25222000000000DB20222045
S315202204D000000000D9212220000000000000000098
S315202204E0000000001B262220000000004126222098
S315202204F0000000006D262220A1242220F521222080
S31520220500000000000000000000000000152222202A
S3152022051075232220000000000000000085272220CB
S315202205208B23222000000000B71DC1046E3B8209C6
S31520220530D926430DDC7604136B6BC517B24D861A6A
S315202205400550471EB8ED08260FF0C922D6D68A2F87
S3152022055061CB4B2B649B0C35D386CD310AA08E3CA6
S31520220560BDBD4F3870DB114CC7C6D0481EE093451F
S31520220570A9FD5241ACAD155F1BB0D45BC2969756EE
S31520220580758B5652C836196A7F2BD86EA60D9B6359
S3152022059011105A6714401D79A35DDC7D7A7B9F70EA
S315202205A0CD665E74E0B6239857ABE29C8E8DA191E0
S315202205B0399060953CC0278B8BDDE68F52FBA58236
S315202205C0E5E66486585B2BBEEF46EABA3660A9B7C3
S315202205D0817D68B3842D2FAD3330EEA9EA16ADA4E2
S315202205E05D0B6CA0906D32D42770F3D0FE56B0DD11
S315202205F0494B71D94C1B36C7FB06F7C32220B4CEF2
S31520220600953D75CA28803AF29F9DFBF646BBB8FBDC
S31520220610F1A679FFF4F63EE143EBFFE59ACDBCE85D
S315202206202DD07DEC77708634C06D4730194B043D32
S31520220630AE56C539AB0682271C1B4323C53D002E49
S315202206407220C12ACF9D8E1278804F16A1A60C1B0E
S3152022065016BBCD1F13EB8A01A4F64B057DD00808C5
S31520220660CACDC90C07AB9778B0B6567C699015715E
S31520220670DE8DD475DBDD936B6CC0526FB5E61162CD
S3152022068002FBD066BF469F5E085B5E5AD17D1D5710
S315202206906660DC5363309B4DD42D5A490D0B194489
S315202206A0BA16D84097C6A5AC20DB64A8F9FD27A5A3
S315202206B04EE0E6A14BB0A1BFFCAD60BB258B23B695
S315202206C09296E2B22F2BAD8A98366C8E41102F83CA
S315202206D0F60DEE87F35DA9994440689D9D662B9081
S315202206E02A7BEA94E71DB4E0500075E4892636E990
S315202206F03E3BF7ED3B6BB0F38C7671F7555032FAD1
S31520220700E24DF3FE5FF0BCC6E8ED7DC231CB3ECF93
S3152022071086D6FFCB8386B8D5349B79D1EDBD3ADCFC
S315202207205AA0FBD8EEE00C6959FDCD6D80DB8E6098
S3152022073037C64F643296087A858BC97E5CAD8A731A
S31520220740EBB04B77560D044FE110C54B3836864613
S315202207508F2B47428A7B005C3D66C158E4408255F6
S31520220760535D43519E3B1D252926DC21F0009F2CDB
S31520220770471D5E28424D1936F550D8322C769B3F9E
S315202207809B6B5A3B26D6150391CBD40748ED970A65
S31520220790FFF0560EFAA011104DBDD014949B93193A
S315202207A02386521D0E562FF1B94BEEF5606DADF80C
S315202207B0D7706CFCD2202BE2653DEAE6BC1BA9EB66
S315202207C00B0668EFB6BB27D701A6E6D3D880A5DECF
S315202207D06F9D64DA6ACD23C4DDD0E2C004F6A1CDB2
S315202207E0B3EB60C97E8D3EBDC990FFB910B6BCB4AD
S315202207F0A7AB7DB0A2FB3AAE15E6FBAACCC0B8A722
S315202208007BDD79A3C660369B717DF79FA85BB49268
S315202208101F4675961A163288AD0BF38C742DB0812D
S31520220820C330718599908A5D2E8D4B59F7AB08542A
S3152022083040B6C95045E68E4EF2FB4F4A2BDD0C4779
S315202208409CC0CD43217D827B9660437F4F4600729A
S31520220850F85BC176FD0B86684A16476C9330046195
S31520220860242DC565E94B9B115E565A15877019189A
S31520220870306DD81C353D9F0282205E065B061D0BFD
S31520220880EC1BDC0F51A69337E6BB52333F9D113E1C
S315202208908880D03A8DD097243ACD5620E3EB152D59
S315202208A054F6D4297926A9C5CE3B68C1171D2BCC4F
S315202208B0A000EAC8A550ADD6124D6CD2CB6B2FDF45
S315202208C07C76EEDBC1CBA1E376D660E7AFF023EAD6
S315202208D018EDE2EE1DBDA5F0AAA064F4738627F9D1
S315202208E0C49BE6FD09FDB889BEE0798D67C63A80AC
S315202208F0D0DBFB84D58BBC9A62967D9EBBB03E9381
S315202209000CADFF97B110B0AF060D71ABDF2B32A61F
S315202209106836F3A26D66B4BCDA7B75B8035D36B54C
S31520220920B440F7B1090000001D2E2220010100004B
S315202209303537222000010000C54122201001000067
S315202209403D4B222020010000495722202101000070
S315202209505D51222000000000000000006F010000EF
S3152022096065090000700137016D0138016E012E02E2
S3152022097071012F017201300173013101740132019B
S315202209806C0133016B0134016A013501690136019B
S3152022099067080000660900006D013801000000008A
S315202209A0680800006C0133016B0134016A013501AC
S315202209B0690136010000000000000000000000004E
S315202209C0000000000C0000000C0000000C000000BB
S315202209D008000000510300000000000052033700E7
S315202209E04F03380050032E0153032F0054033000A7
S315202209F055033100560332004E0333004D03340093
S31520220A004C0335004B033600000000000000000096
S31520220A10000000000000000000000000000000008E
S31520220A20000000000000000000000000000000007E
S31520220A30000000000000000000000000030000006B
S31520220A400300000003000000070000003504000018
S31520220A500000000034043D00330400003604000068
S31520220A603704390038043A0039043B003A043C0062
S31520220A703B0400003C0400003D0400003E0400002C
S31520220A8032040000000000003304000000000000B1
S31520220A9031040000300400002F0400002E04000040
S31520220AA02D0400002C0400002B0400002A04000040
S31520220AB0290400000C0000000C0000000C0000009D
S31520220AC008000000630600000000000064063D01C5
S31520220AD000000000000000006506390166063A0182
S31520220AE067063B0168063C0100000000000000006A
S31520220AF000000000000000000000000000000000AE
S31520220B00000000000000000000000000000000009D
S31520220B10000000000000000000000000000000008D
S31520220B200000000000000000000000000C00000071
S31520220B300C0000000C000000080000000000071036
S31520220B400608050807060604070405040404060207
S31520220B500000020D02080206020502040203020315
S31520220B600203020200000708060405040703060200
S31520220B7007020502040206010000020602040203FD
S31520220B800203020202020202020202015A04180887
S31520220B900830FF2400000000000000005A05180932
S31520220BA00831FF2500000000000000005A06180A1E
S31520220BB00832FF260000000000000000000000008E
S31520220BC00000000000000000000000009F04032413
S31520220BD00000000000000000000000009F076007C0
S31520220BE0200B042700000000000000009F8760875A
S31520220BF0208B04A700000000000000005A041808D9
S31520220C000830FF2400000000000000005A06180ABF
S31520220C10FF26000000000000000000005A07180BE3
S31520220C20FF27000000000000000000005A06188A54
S31520220C30FFA6000000000000000000005A07208BBB
S31520220C40FFA7000000000000000000002329222028
S31520220C50492B2220692B2220EB2B2220812C222079
S31520220C60352D22202729222000000000E72D2220B0
S31520220C70492B2220EB2D2220F92D2220812C2220C5
S31520220C80112E2220272922200000000002050300FF
S31520220C9007FF0FFF02050300140F091802050300A0
S31520220CA00F18090D02050300140F09180205030067
S31520220CB018090B11020503001018090D020503005D
S31520220CC010180B0902050300140F0A180205030047
S31520220CD00910180A020503001018090D020503003F
S31520220CE01018090D020503000F181A0D020503001C
S31520220CF01018090D020503001018090D020503001C
S31520220D00101813140205030010181A1C02050300DA
S31520220D1010181A1C020503001018131402050300CA
S31520220D2010181314020503001018131402050300C9
S31520220D3011090C0F0205030011090C0F02050300ED
S31520220D401018090D020503001018090D02050300CB
S31520220D50140F0D18020503001018090D02050300B1
S31520220D601018090D020503001018090D02050300AB
S31520220D701018090D020503001018090D020503009B
S31520220D801018090D020503001018090D020503008B
S31520220D901018090D020503001018090D020503007B
S31520220DA01018090D02050300140F0D180205030061
S31520220DB0140F0D18020503001018090D0205030051
S31520220DC01018090D020503001018090D020503004B
S31520220DD01018090D02050300140F0D180205030031
S31520220DE0140F0D18020503001318090D020503001E
S31520220DF01318090D020503001318090D0205030015
S31520220E001318090D02050300140F131802050300F7
S31520220E10140F1318020503001018090D02050300EA
S31520220E201018090D02050300171A180B02050300D4
S31520220E30171A180BFFFFFFFFFFFFFFFF0205030014
S31520220E40171A180B02050300171A180B020503009E
S31520220E50171A180BFFFFFFFFFFFFFFFF02050300F4
S31520220E600C0A1807020503000C0A180702050300BC
S31520220E7018101A0D0205030018101A0D0205030078
S31520220E80140F1A18020503001A0F130D0205030068
S31520220E901A13180D020503001A13180D0205030052
S31520220EA01A13180D02050300140F1A18020503003F
S31520220EB0090B0F1C02050300090C111C0205030055
S31520220EC0090C111C02050300090A111C0205030044
S31520220ED0090A111C020503000C0F0A1C0205030035
S31520220EE00C0F0A1C020503000C0F0A1C0205030024
S31520220EF00C0F121C020503000C091218020503000E
S31520220F000D01121A0000000000C0124000001340FA
S31520220F10004013400080134000C0134000001440BC
S31520220F2000C0C5400000C6400040C6400080C640E2
S31520220F3000C0C6400000C7400000CA4000800042D0
S31520220F4000C000420000000000C007400000084008
S31520220F50004008400080084000C0084000000940A8
S31520220F60004009400080094000C0094000000A4094
S31520220F700040C2400080C240000000000A0000005B
S31520220F800C0000000D0000000F00000014000000DD
S31520220F901A0000001E000000230000002800000086
S31520220FA02D00000034000000370000003C00000025
S31520220FB04600000050000000000100010000400110
S31520220FC0C0000000800180000000C0014000000017
S31520220FD0000200000000C0004001000080008001C5
S31520220FE000004000C00100000000000200000001B5
S31520220FF0C0004000400180004000800140004000A7
S31520221000C00100004000C0000001400080004001D5
S3152022101040004000800140000000C0014000C00086
S31520221020C00080000001800080004801400080002E
S3152022103080010000800080000001800040004001E5
S315202210408000000080018000C0008000C0000001D6
S315202210504000C00040010000C0008000C000C00047
S3152022106040000001C00000004001C0008000800036
S315202210700001C000400000010001000000014000E4
S31520221080C000000100000001000180004000400154
S31520221090C000000040014000800040010000C00046
S315202210A040014000400080018000000080010000B5
S315202210B08000800140000000C00100004000C001E5
S315202210C00000000000020000090080B0080CC014B5
S315202210D06655100000000000100000F000000000FD
S315202210E0400000F80000000008000D87090080B0AB
S315202210F00800A012040302010807060504045082F0
S31520221100010000A204008810010000000010508275
S315202211109D2223201B232320352323200000000069
S315202211200000000067232320CB5F2220115D22208E
S31520221130715D2220595E22208F5E22209F5E2220F0
S31520221140F15D2220714C22206B4F22200550222035
S31520221150D5502220C94C2220B7502220C9502220E5
S315202211602151222000555603590C0F5A5A0F0C5939
S3152022117003565500653033663C696A3F3F6A693CAF
S3152022118066333065663330653F6A693C3C696A3F1F
S3152022119065303366035655005A0F0C59590C0F5A8F
S315202211A000555603693C3F6A30656633336665309F
S315202211B06A3F3C690C595A0F55000356560300556F
S315202211C00F5A590C0F5A590C5603005555000356DF
S315202211D00C595A0F6A3F3C6933666530306566334F
S315202211E0693C3F6A6A3F3C693366653030656633BF
S315202211F0693C3F6A0F5A590C56030055550003562F
S315202212000C595A0F0C595A0F55000356560300559E
S315202212100F5A590C693C3F6A30656633336665300E
S315202212206A3F3C69035655005A0F0C59590C0F5ADE
S3152022123000555603663330653F6A693C3C696A3FEE
S3152022124065303366653033663C696A3F3F6A693C5E
S315202212506633306500555603590C0F5A5A0F0C59CE
S3152022126003565500713D2320793D23208B3D232093
S31520221270CB3D2320000000000000000000000000DB
S315202212800000000001000000010000007B17222040
S31520221290101122202011222040142220100000008A
S315202212A00000000000000000D014222000000000D0
S315202212B0E0142220000000000000000000000000B0
S315202212C0000000000000000000000000A5232320CB
S315202212D0D5232320732423202B252320943E242008
S315202212E00E480F49006B884202D10020C043704726
S315202212F00C480D49C069884207D10C48008CC0058C
S3152022130001D5032070470220704709480949006BFE
S31520221310884201D1012070470020704700612100B8
S315202213200020287340B72200024A10680049C8408C
S31520221330C08F210005E01378F15222206955222000
S3152022134003562220D356222027532220B556222046
S31520221350C75622200F57222000000000000000003E
S3152022136000000000000000040804080001210621D4
S315202213702121000002040204000110032110210071
S3152022138000020402020001100321102100000103A1
S315202213900102000110032110210000010201010097
S315202213A00110032110210000010201010001100376
S315202213B02110210000000000000000000000000093
S315202213C04D4943524F4E2020202020205350414E1B
S315202213D053494F4E2020202053414D53554E4720CE
S315202213E02020202057494E424F4E44202020202084
S315202213F048594E495820202020202020544F5348F7
S3152022140049424120202020204D4143524F4E4958C7
S315202214102020202000000000000000000000000004
S315202214203D3B22209D3E22208F3F22209940222072
S31520221430C13B22208F412220A141222000000000F0
S31520221440212623202726232013272320AD272320A6
S3152022145025262320B9272320012623208946222018
S3152022146093462220AD4622207B4722202548222031
S31520221470294722200000000000000000112F2220F0
S315202214803D332220733422204D362220E92F22205A
S315202214900F3622202136222000000000DD1C2320A8
S315202214A05F1D2320000000005F1D23200000000076
S315202214B0F71D23203F1E232000000000EF1E23209D
S315202214C0371F2320931F2320CF1F232009202320A9
S315202214D065392320713A23201D3B2320853B232057
S315202214E0933B2320B73B23203B3C2320D33C232062
S315202214F0E33C2320E73C23200000000038B50446A5
S315202215005B4D0020C5E90E00C5E91000C5E9120091
S31520221510A865E865574800F0F2F8C5E91401204687
S31520221520BDE834400FF2B50100F040B900F054B9BD
S31520221530F8B54F4E0C46B16D072904BFF16D88428E
S3152022154049D1002106EB810253681568491C5B1B91
S315202215500329D361F6D3756AF76972693169B3694A
S31520221560511A9A1A64235D43B5FBF7F73C3F0E2F97
S31520221570B162F26210D2376AB5FBF7F5403D052DEE
S315202215800AD85943B1FBF2F2813A0A2A3EBFB1FB6D
S31520221590F7F181390A2902D3FFF7B0FF1BE000F0C9
S315202215A017FAD6E90E230546D6E91001C5EB05150D
S315202215B08218B5FBF2F00A2568434FF49662B0FBF7
S315202215C0F2F2521D0A21B2FBF1F14FF49660414309
S315202215D021600020F2BD0120F2BD00002DE9F84352
S315202215E0074600F082F804468846214EB26DD6E997
S315202215F01259D6E91401521C651B68EB0909494583
S31520221600B26505D828BFA84202D20120B06508E0DB
S31520221610012A06D0042A0AD0052A10D0072A11D058
S315202216201AE0C6E90C48C6E90E48F76514E0D6E961
S315202216300E01201A68EB0101C6E90E010CE0C6E96B
S31520221640104809E0D6E91001201A68EB0101C6E903
S315202216501001384600F0C0F8B06D06EB8002D6E9BC
S315202216600C01231A42F8043CC6E91248BDE8F1834C
S31520221670002424208038010080B532480168CA0718
S3152022168006D401210160BFF34F8FBFF36F8F00680D
S3152022169000212D4A2D48116000224FF0FF31016191
S315202216A082610123C361826942F0040282618269D6
S315202216B042F0010282610160C360836000F088F9F2
S315202216C0C0002349B0FBF1F000B9012021498860EE
S315202216D001BD1E48002181618160016101601A4895
S315202216E0016841F00201016070471B4881B0016800
S315202216F040680090C9430098C04301B070471549FD
S315202217008A68A2FB0001C00840EA4170C9087047D6
S3152022171038B50446FFF7E9FF00F00BF8241841EB11
S31520221720D505FFF7E2FFA942FBD301D8A042F8D381
S3152022173031BD084A9368A3FB0445E40844EA45746C
S3152022174070470000C067CC4000800D4000810D40CC
S3152022175040420F0060242420E0800D40090102002F
S3152022176002D4284881547047274B02F00F021A448C
S3152022177002F8041C704700F0BFB919B1022905D01E
S3152022178002D3704700F058BA00F004BA00F025BA06
S3152022179010B51E4C2068C00107D51D49496821B1C4
S315202217A0012088474FF08071216010BD10B518485E
S315202217B0184C4160042218212046FFF7DCFF60697D
S315202217C040F08070606101216920FFF7C7FF12492E
S315202217D04FF40070086010BD80B510494FF4007098
S315202217E00860BFF34F8FBFF36F8F00216920FFF769
S315202217F0B5FF002218210748FFF7BDFF0449002024
S31520221800486001BD00E400E018ED00E018401340D6
S315202218108C3E2420004013400CE100E08CE100E0C5
S315202218206D496E480A68C2F3800101B16C4870473F
S315202218302DE9F8436B4C2168002830D16748664F42
S31520221840694E206001213868C0F3011501FA05F599
S31520221850092D28BF012500F0A1FB4FF4017840F283
S31520221860024960B138686D00C0F3C000002807BF66
S315202218705E48C6F800805E48C6F800900DE03868BB
S31520221880C0F3C00070B15B48C6F800900168C1F36E
S315202218908000002814BF58485848B0FBF5F1216033
S315202218A0BDE8F1835149C6F80080B1FBF5F1F6E790
S315202218B0F8B5534C534D2068534E40F00200206019
S315202218C04FF00041A963286B20F080402863286BC3
S315202218D040F440402863286B40F4C01028633068C7
S315202218E040F4001030603768FFF79AFF3B4927F013
S315202218F0E07788420CBF47F4400747F0A07737604D
S31520221900306840F4405030606420FFF701FF306891
S3152022191040F0400030604FF48031B1600021286BC6
S3152022192020F08040286329602068400840002060FB
S315202219300120F2BD2CE0000007284FF4A0614FF4CD
S31520221940E0624FF4C06316D8DFE800F004060915DA
S315202219500D0C0F120F200FE019460E200CE019460F
S315202219600B2009E01146042006E01146032003E05D
S315202219701946022000E007200143244801607047CF
S3152022198023490120086070472149002008607047BA
S315202219902048016801F0FF00090A01F00701891E8B
S315202219A0052904D8DFE801F00507090B0D0F0B499D
S315202219B00AE00E4908E0184906E00D4904E01749D5
S315202219C002E0174900E01749401CB1FBF0F07047AE
S315202219D0DEE7154870470000A0C9CA4000366E01CE
S315202219E000F82401280C2420800CCC400084D71710
S315202219F000389C1C70C8CA400065CD1D001E7C295B
S31520221A004001434000404340A04043400002CC4096
S31520221A102064CC400001CC400024F40000C2EB0B11
S31520221A2000A4781F40DCB31100B4C404704730B43C
S31520221A30002513E050F8042BD30744BFA9F1010354
S31520221A409A18091F042942F8045BFAD213468C07F6
S31520221A5044BF15809B1CC90748BF1D7050F8041B24
S31520221A600029E7D130BC7047F8B504460D46164604
S31520221A7000201A4951F82020A24202D0401C1028C8
S31520221A80F8D30E2880F0108035A1085C8A280BD046
S31520221A90400113490A58D30706D401220A50BFF31C
S31520221AA04F8FBFF36F8F08580127AF406269F943E2
S31520221AB00A406261307818B960680140616007E0A7
S31520221AC072782946204600F00DF860680743676041
S31520221AD02946B2782046BDE8F8400DE0040F2220A0
S31520221AE00060CC40012303FA01F184300AB9416017
S31520221AF07047016070470000F0B50124C36904FADB
S31520221B0001F5AB43C361102932BF00F10C0300F16A
S31520221B1010031039490003268E40F743521E042A09
S31520221B201DD8DFE802F003070D15190018680740B3
S31520221B301F60F0BD1A6817408C403C431C60F0BDE4
S31520221B4018680224074004FA01F139431960F0BDCE
S31520221B5019680E431E60F0BDC2691543C561F0BDEA
S31520221B608A3333333333333333333333333300000C
S31520221B7010B5039C240101F00F0104F01004214327
S31520221B80016002B1136010BD009808B1019901606D
S31520221B90704700003EB500BF3CA0344C0368344851
S31520221BA0344D029302AA1821FFF75EFF002000F08F
S31520221BB00DF8FFF7DDFF3048016821F480710160BE
S31520221BC00C2000F003F8FFF7DFFF37BD01900095C8
S31520221BD0002300220521204670472DE9FE43274C6B
S31520221BE0DFF89C90274EDFF8A080224D0096002712
S31520221BF0019700234A4600212046FFF7B9FF0020FD
S31520221C001A4F00F012F8FFF7B3FF0E20019000962C
S31520221C1000234A4600212046FFF7B6FF0E2000F079
S31520221C2004F8FFF7B1FFBDE8F78301900095002362
S31520221C304246002138467047E0B5002011490190DE
S31520221C40009100230E4A0D480021FFF791FF0948F3
S31520221C5000900021019100230B4A0448FFF788FFB8
S31520221C60084802210160416007BD000070810E40B4
S31520221C7000401340B4830E40AC400E406C810E408F
S31520221C8020860E40B0830E401C860E4000000000A7
S31520221C9010B54001C74A145801F0010304F001048B
S31520221CA0A34207D001F001011150BFF34F8FBFF39A
S31520221CB06F8F105810BD0000F0B5BF4ABF4B0021D0
S31520221CC011600C241C60002555605C6095609C6028
S31520221CD0D560DC6015611C6155615C6195619C61F2
S31520221CE0D56100F10806DC613178B54CB54D21B1BC
S31520221CF0012904BF717E102912D1002696670C2154
S31520221D009967D667D9672E600C2727606E60676031
S31520221D10AE60A760EE60E7602E6127616E61676123
S31520221D200021D1640C26DE6411651E6591659E65AF
S31520221D3029620426266291640C269E6490F830003D
S31520221D40A149A24E401E032817D8DFE800F0110C25
S31520221D500702002151640C205864F0BD0222B26091
S31520221D600C208860F0BD022272600C204860F0BDF3
S31520221D70022232600C200860F0BD002169620C200C
S31520221D806062F0BD401E032891494FF0805311D83E
S31520221D90DFE800F00208030B8E4901F1840042B1EC
S31520221DA0436070474FF40033F7E74FF480338A4974
S31520221DB0F3E70360704748B1052807D2874A02EB2A
S31520221DC0C01000F5A85340F209211960704700007F
S31520221DD0F0B50078824B8349834A7D4C834D844ECD
S31520221DE0401E03285FD8DFE800F002192F46002480
S31520221DF014600B250D60D460CD600120186000236D
S31520221E0093608D60052050604D607248416841F094
S31520221E1080514160026842F0805243E0062050659C
S31520221E200C254D6510660D66012058610623D36563
S31520221E30CD65052393658D65616841F40031616026
S31520221E40206840F4003014E0092797670C20886721
S31520221E50D767C8670121196337600C222A600521BA
S31520221E6071606A60616841F080516160206840F04B
S31520221E7080502060F0BD0921B1640C20A864F16451
S31520221E80E86401211964092030650C212965052081
S31520221E90706569655048416841F480314160026825
S31520221EA042F480320260F0BD0020704751490A6810
S31520221EB0FF20120912F00F0206D0921E092A05D9F6
S31520221EC00A3A032A04D9704701207047082070470E
S31520221ED002207047704738B50020FFF7A9FC4648F4
S31520221EE0464B0168C1F305412D290BD3BFF34F8FF2
S31520221EF0D968434801F4E0610143D960BFF34F8F8B
S31520221F0000BFFDE706203F4A414354183E48A18898
S31520221F101B68C3F30B1340F6244500EB8120AB420A
S31520221F203A493B4A0FD0002313604FF0005365886D
S31520221F305361AD026D1E55606FF06043248803EB1A
S31520221F408423936105E0334B334C136054605361F1
S31520221F5094619162D0620121BDE8344001E06FF0A4
S31520221F600101732094E62D490868C0F3031048B96D
S31520221F702B4A08691368C0F3400003F00203184372
S31520221F80012801D1002070470869116840084908B4
S31520221F9000F0010001F0010108437047174800684C
S31520221FA0C0F30B1040F62441884201D1012070470C
S31520221FB0002070470060CC4010800E4054820E4094
S31520221FC0D4820E4090800E40B8830E4074810E40FB
S31520221FD0008013400040134000C013400000CC4034
S31520221FE0D4850E40C0830E407C810E4040840E4014
S31520221FF0FC810E400840C04070CCCA4000ED00E073
S315202220000400FA05B80F2220FFFF372000002020E7
S31520222010640624200000FE1FFFFF0120D0C8CA40EC
S3152022202060C9CA40DFF83C180A69D16800200860D6
S3152022203070477CB5DFF82C68F06900248DF80040C3
S315202220404569002D47D03169C9680A68012A31D0ED
S3152022205001F108026C680023091DA04704001FBF56
S3152022206042F21270844242F213718C4233D1306989
S31520222070C268916800292ED0546823781D0007D083
S31520222080162B05DA806800EBC305A5F1080000E0CF
S315202220900020106300281CBF0268002A03D0204695
S315202220A09047002413E042F210741946204600F08D
S315202220B0F4FA10E0086B58B1416811B16846884796
S315202220C004460CB1002003E09DF8000000B1012057
S315202220D03169CA681060204676BD0178002000F05A
S315202220E0DCFADFF88017C86941690A69904702201D
S315202220F000F0D6FBBFF34F8FDFF86C17DFF86C07A3
S315202221000A6802F4E06202430A60BFF34F8F00BFDF
S31520222110FDE7DFF850070269D06824210C3000F051
S31520222120EBBB10B50446606809380AD0F7380ED0C2
S31520222130401E09D00F380DD0103811D0401E0CD099
S3152022214011E000F022FE0FE001F0CFFA0CE001F0C0
S31520222150F1FF09E002F02AFB06E002F0E1FF03E0AC
S3152022216003F0D5FA00E0042040E070B5DFF8F4361B
S315202221701D68AE690446E268A1686068B04709E234
S3152022218010B500F0ADF8DFF8DC060169C868616891
S315202221900161082280F820200020217800F07DFA93
S315202221A0BDE8104003F018BD7CB5DFF8B846E568D7
S315202221B00022019200926B4681684068AE6801AA8D
S315202221C0C0B2B0472269D36800211961009A0199C9
S315202221D0920800F06DFA73BD10B5DFF88826D36811
S315202221E0DA6804466068A168C0B290472178BDE8C3
S315202221F0104052E210B50446A168606803F0FAFE48
S31520222200F4E710B500F06CF800F061F8042200F033
S3152022221058F8EBE77CB5DFF84C46DFF854560646ED
S31520222220FFF777FF2169CA68132082F820002169E7
S31520222230CA68F06882F82100F068A8B9B068212817
S315202222400DD26860716829602269D168086105F11A
S3152022225008004861002281F82120002000E0042085
S31520222260317800F01AFA73BD01A90020009101905D
S315202222702A68696805F1280305F1080004F06BF83D
S3152022228018B9019909B1592901D30022019205F1E0
S3152022229028032169C968019A0A614B61012281F8C2
S315202222A02120019900F01FFA73BD10B500F018F80D
S315202222B000F00DF8032200F004F8A168BDE81040D2
S315202222C023E26168416180F8202000207047DFF8F0
S315202222D094050169C868E1688161A2680261704734
S315202222E0044616E738B5DFF87C5504462869C068C7
S315202222F000214161016190F82000042804D1296837
S315202223000869804704B90446002C01BF2869C168A0
S3152022231091F82000152812D14A6ADFF85805012A99
S3152022232004D18A6AC96A04F028FA07E0052A06D166
S315202223304FF49E6100F5007004F0D0FA0446286816
S315202223404169884704B904462869C16891F8201052
S31520222350204600F0A2F942F21270844201BF296976
S31520222360C86890F82010082903D1BDE8314003F02F
S3152022237076BC31BDDFF8EC140A69D36893F82110B4
S31520222380002908BF00F013B88AE0DFF8D8140A69BA
S31520222390D16891F82110002908BF00F008B8012938
S315202223A008BF00F07DB800210170002070472DE97A
S315202223B0FE43DFF8B07406463869C168086920B939
S315202223C000213170FFF78EFF67E001203070D1F8AF
S315202223D018900D69D1F81480002000900123F86905
S315202223E04469D4F804C06A4601A9E047040005D00E
S315202223F0F8694169CA689047204603E0009830B9B7
S3152022240042F21270FFF76EFF0020307046E0A8429B
S3152022241088BF284639690090C86890F82010082974
S3152022242012D10199C160009AC2610099019803F0E4
S31520222430DDFB044642F27D7084421CBF42F2747157
S315202224408C4217D1002415E0132918BF152940469E
S3152022245006D1009A019904F08FFA0098804409E067
S315202224603C68019A0099D4F808C04B46E047009967
S315202224700446884400982D1A04D04CB1F869416943
S31520222480CA6890472046FFF72DFF0020307004E0CF
S315202224903969C9680D61C1F814800020BDE8FE8320
S315202224A02DE9F84FDFF8BC6307463069C168086911
S315202224B020B900213970FFF715FF5FE0012038701F
S315202224C08A69DFF8B4A30092F069D1F810804D69A9
S315202224D0CC6891F820B041694A6990478146C14526
S315202224E088BFC146BCB14A462146504604F044FA2A
S315202224F0F069A8EB0904D0F81480D8F808C0012383
S315202225004A465146E0470CB1002833D0FFF7EAFE6F
S315202225100020387032E0BBF1030F09EB050418D1F5
S3152022252028463568009BD5F804C052464946E047DE
S315202225305FEA000B2546DBD0F0694469A5680123B2
S3152022254000225146A8475846FFF7CCFE0020387075
S3152022255015E03069C26892F820001528294605D14F
S315202225604A46504604F008FA2546C1E7BBF1130F26
S31520222570F6D0F9E73069C068046145610020BDE8DC
S31520222580F28F70B5B74B1D68EE680446E268A168E3
S315202225906068B0472178BDE870407EE02DE9F041A1
S315202225A00546B64F6E68D5F80880E868386000245C
S315202225B018B104F01BFA00B90424304604F0FFF9BE
S315202225C000B904242978204600F067F89CB97E6059
S315202225D0002000F065F9C7F80880386818B180F322
S315202225E0088880F30988796840468847BDE8F04103
S315202225F0002000F055B9BDE8F08138B50446606860
S3152022260004F0DDF908B9042005E06568012000F010
S3152022261047F9A068A84721780FE038B5044604F088
S31520222620D6FAA3686168964804F10C0204F007FBE7
S31520222630054604F0CFFA21782846BDE834402CE01E
S315202226403EB50021CDE90011044604F0C0FAA36864
S3152022265061688B486A4604F039FB054604F0BAFACB
S31520222660A2686946284600F055F837BD10B5FFF70F
S3152022267037FE7C480169C968A2680A61102263680C
S315202226804B6181F820200069C268E16882F8211016
S315202226900020A168BDE8104065E03EB50024002355
S315202226A08DF8024002918DF801300190A0221EE081
S315202226B038B5002488B0A7238DF801400190541CF8
S315202226C08DF8034000258DF800308DF80250002029
S315202226D06C4605E051F8203004EB8005401CAB60A7
S315202226E09042F7D332E03EB500F042F8B3225D495C
S315202226F0C8698DF8002002238DF80330002344690F
S31520222700A5680C226946A84737BD3EB500F030F8A9
S31520222710A322ECE738B5002488B0AF238DF80140F8
S31520222720002502248DF800308DF802508DF80340C2
S31520222730019050B99DF80330029203EB92048DF852
S31520222740034003A804F018F900E002954548C06921
S3152022275044699DF80320A56892000023121D69462C
S31520222760A84709B030BD3EB500F002F8B022BEE738
S31520222770002401238DF8024002918DF80130019028
S3152022278070470000FEB50546364E69683269394FD4
S315202227900024019400940220D368062983F821007C
S315202227A05ED8DFE801F0040A272D31354B0003F0ED
S315202227B0C0FF2978FFF771FFF7BDE868112807D3F4
S315202227C004243069C1680969204600F063F8F7BD00
S315202227D0FFF79FFC00F056F8E9680161476180F80F
S315202227E021403069C06869684162AA688262E968C4
S315202227F0C162E6E7AA68E968002003F0BEFFD8E7AF
S31520222800A86804F012F8D4E7A86804F027F8D0E7DD
S31520222810FFF77FFC3169CA68152082F820004FF421
S315202228209E613069C06807F500720161426180F8B5
S3152022283021403169CA6868685062C2E7FFF769FC9D
S31520222840694601A804F034F80400BAD100F01AF837
S31520222850009901610121019A426180F82110B0E795
S315202228600420A6E7100024200CED00E00400FA053F
S31520222870842F242094282420A02424200430242099
S3152022288000C0CA403169CA68152082F82000306902
S31520222890C06870473EB5FFF76BFFB52227E70000D9
S315202228A070B5012804461DD00025114E05E070186A
S315202228B0C168896801B188476D1C182169437058FF
S315202228C00028F4D174B904F082F9FEF702FF04F04D
S315202228D063FA0849002008600120FEF7A9FFFFF7C6
S315202228E03EFB62B6BFF36F8FBFF34F8F70BD00BF23
S315202228F08412222008ED00E0002204F06BBA0000A8
S31520222900DFF8EC05D0F81814012902D0022903D0C9
S3152022291005E04FF0405070474FF0C04070470020EE
S315202229207047012070472DE9F04FADF5017D07460E
S3152022293004F045F8042400281ED007F2FF1004F0E4
S315202229403EF8002818D03868DFF8A45501460A0D2B
S3152022295040F6F9439A4205F583660ED1C1F3130058
S31520222960421E012A08D83268C1F31301914202D0AD
S315202229703060002028700024D8E0090F0C2908D1C5
S3152022298030683A4605F21C4104F01EFF0400F3D1BA
S3152022299046E0DFF86015884237D128780028EBD028
S315202229A005F21C4006F0A6F8009005F21C4805F216
S315202229B0DC57E0B144464FF40072214601A803F0C9
S315202229C0DBFF706C20F0040070640DF10408396876
S315202229D04908396021467868400878603869400875
S315202229E03861306804F010FA002840F09080306870
S315202229F0DFF804A5DFF804B501284FF4806945D015
S31520222A0002280CBF5846484641E0DFF8F42490427B
S31520222A100ED14FF40072394605F21C4003F0ACFF6A
S31520222A200020287005F21C41306804F0EDF90400DC
S31520222A307CD1306806F0D1FC6946102000F0EEF9F0
S31520222A40002872D1DFF8BC14012048643268012A9A
S31520222A5005D0022A0CBF4FF0C040002001E04FF0E3
S31520222A604050C863024600988218521E0A640122E8
S31520222A708A6500980A6DB0F1806F88BF4FF080601A
S31520222A808018401E4865012028704FE050464FF49A
S31520222A90007100F0CCF8002835D0B87A80B1002019
S31520222AA001AB291801F21C4101AC4A781A5404447C
S31520222AB009786170801CB0F5007FF2D30DF10408ED
S31520222AC03068012804D002280CBF5846484600E028
S31520222AD0504642464FF4007100F046F8040007D0D3
S31520222AE000F029F84FF40071484600F0E5F90CE091
S31520222AF000F0C6F8040008D000F01DF87968484690
S31520222B0000F018F901E042F2DB74009870B1DFF888
S31520222B10F843A04505D04FF400724146204603F0E3
S31520222B202BFF3068214604F06FF9044620460DF526
S31520222B30017DBDE8F08F3068012803D0022802D11A
S31520222B40D9467047D146704738B51546DFF8A023B7
S31520222B500C46117801B915E100F0A8F90146224662
S31520222B602846BDE83840B7E12DE9F843DFF88073DF
S31520222B70054638780C46914618B942F2DD70BDE8F2
S31520222B80F28384B3787868B9D7F8DC05401E0542EB
S31520222B9002D044F68960F2E7012000217870B960DC
S31520222BA07D6004E0B86879680818A84216D1B8680A
S31520222BB0D7F8DC852118414534BF2646A8EB0006E6
S31520222BC0384432464946103003F0D6FEB868751985
S31520222BD0A41B30184045B860B144D2D100F050F839
S31520222BE00028CED0CBE70020C9E776B50D46C049CE
S31520222BF00646087810B942F2DD7076BDAC08A400EC
S31520222C0005F0030507E001AA04213046FFF7ACFFB1
S31520222C1060B9361D241F002CF5D12DB101AA2946D3
S31520222C203046FFF7A1FF08B900F02AF876BD70B525
S31520222C30ADF5806D05460C4601E0A41B7519DCB165
S31520222C404FF48066B4F5806F98BF2646284600F05A
S31520222C502DF901463246684600F03EF968460021A3
S31520222C6000E0491CB1EB960FE7D250F8042B12F163
S31520222C70010FF6D0002000E001200DF5806D70BDF9
S31520222C802DE9F0419A4E707800250028ADF5806D09
S31520222C904BD0D6F8DC45B0687570A04206D0211AF2
S31520222CA006F11003FF22184406F058FC70682146CC
S31520222CB0FFF7BDFF18B9707042F2DB7036E07068FC
S31520222CC000F0F4F80246D6F8180406F1100306F2AC
S31520222CD01C4104F099F9054600207070B06025BB8E
S31520222CE000F04AF821D1D6F8DC4506F1100876689C
S31520222CF002E0E41BBE19B844BCB14FF48067B4F598
S31520222D00806F98BF2746304600F0D0F801463A46D3
S31520222D10684600F0E1F83A464146684606F028FC25
S31520222D200028E6D044F68A6000E028460DF5806D1C
S31520222D30BDE8F08138B56E4A0446107800B921E004
S31520222D40D2F8E005404200EA04050C196442044008
S31520222D506442641B2146284600F0AEF858B900F09A
S31520222D600BF807D121462846FFF761FF10B944F612
S31520222D708A6032BD002032BD6448C1680869416B31
S31520222D800129704742F2DD7032BD1FB5584C20789A
S31520222D9010B942F2DD7024E001A9012000F03EF8AC
S31520222DA0F8B96946102000F039F8D0B902A90420D2
S31520222DB000F034F8A8B9D4F8180404F21C4104F01F
S31520222DC079F90446FFF7D8FF07D100990198FFF732
S31520222DD02EFF10B944F68A6003E0002C14BF204649
S31520222DE0002004B010BD0020704710B500F00BF86B
S31520222DF0BDE81040C01AB7E610B500F004F8BDE8C9
S31520222E001040C01AF1E63F4BDC6B1B6D2018704731
S31520222E103C4AD36B126D1818801A8BE710B50029FD
S31520222E2037D0334A02F5836302F2DC5460B101289B
S31520222E3013D002281DD0032820D0042821D00528EB
S31520222E4021D0102822D024E01078002814BF002078
S31520222E5042F2DD700860002010BD1868012805D0D6
S31520222E60022814BF00204FF0C040F3E74FF0405015
S31520222E70F0E700F010F8A40A0C60ECE722680A605A
S31520222E80E9E76068E6E7206918B1E3E700F003F88E
S31520222E90F2E7042010BD5C6D986DDA6D0419186E68
S31520222EA014190419704712480078704710B5044641
S31520222EB0FFF726FD201A10BD38B50C46FFF7F6FF80
S31520222EC002460B4DD5F81804234605F21C4101B0C3
S31520222ED0BDE8304005F0A2BC1CB500920B46024646
S31520222EE0034CD4F8180404F21C4105F0D3FC16BD79
S31520222EF0480024200F0000F0000400300004006067
S31520222F0046434642640624206404242010002420BA
S31520222F102DE9FE43FEF7CAFF022849D1DFF8F44BFA
S31520222F2042F230102518284606F046FB002859D1B1
S31520222F30284600F08DFD002854D1694601A806F0C6
S31520222F4027FB009EDDF804800027B94601E07F1C7E
S31520222F50B144B8B240452BD204F110024FF480611D
S31520222F60484600F025FD002802BF6069DFF8A81B2D
S31520222F70884204BFA0690128E9D14FF4806104F177
S31520222F80100000F077FD0028E1D042F2300026180A
S31520222F904FF4806204F11001304603F0EDFC2846FE
S31520222FA000F056FDF0B9304600F094FC10B119E03D
S31520222FB0012017E00120207002A940F2011002F020
S31520222FC0CFFF78B9029ADFF8541B42F2F02314205D
S31520222FD04243E01811440468CC60C26980684243A7
S31520222FE08A600020BDE8FE832DE9FE4F0424054693
S31520222FF003F0E5FC00282E4605D006F2FF363046A1
S3152022300003F0DDFC002800F096812A68DFF8046BA5
S31520223010DFF804AB42F22801100F771842F2F02390
S315202230200C2842F2700806EB03094FF4806B40F01D
S31520223030BE80002D0ED002F00F02D21E082A3FD2C9
S3152022304042F2300059463044FFF756FC686803F0B6
S31520223050B6FC002870D06868083003F0B0FC00283F
S315202230606AD042F230106A683118012006F0AAFD91
S31520223070040061D12868C0F3032000281CBF012840
S3152022308000207060286800F00F02921E082A53D86A
S31520223090C0F30353032BC0F303600CD8DFE803F0FD
S315202230A009070402202308E04FF4807305E08023D9
S315202230B003E0402301E0202B3ED300283CD00528E4
S315202230C03AD23B837883C7F80CA00121396113FBBE
S315202230D000FCC7F814C00146FA6100200DE006EB79
S315202230E0C00BBCF808C00EFB0AFAC3440EFB0CFE2A
S315202230F0CBF804E0CBF800A0401C904214D2D9F899
S3152022310008E005EB800C30B9B3FBFEFB01FB0BFB81
S315202231104FEA4B0B04E0BCF806A0BCF804B0D3441B
S31520223120BCF80AA0DA45DAD242F234004FF47F7193
S31520223130304400F0ACFCB860002C07D1002030705F
S3152022314042F23011701800F083FC040040F0F38024
S31520223150DFF8CC59284600F0BDFBC8B1DFF8C449B8
S31520223160FF224FF48461204603F030FEDFF8B809AF
S31520223170606001210020A160206140F21C41201DB7
S3152022318000F085FC2060284600F0D1FB040075D192
S315202231907D8B3C8BD9F8081005FB04F0B0FBF1F1AE
S315202231A04FF0000A44F629680091D3466AE06968FE
S315202231B051450FD15946284600F05CFC00285DD0A7
S315202231C00020307042F230035A462946F01803F086
S315202231D0D3FBB5E70B2851D10420002D1CBF317813
S315202231E000294AD0C2F3036101290DD0002944D1F6
S315202231F0284606F057FE10B1002139703DE0AA6814
S315202232007A6001233B7038E03978B1B3297801F00E
S315202232100F01082931D206EBC10040446946446891
S31520223220D9F800507E68D0F8008001A806F073FEF7
S3152022323005FB086808BB00983618B6FBF5F08442D1
S3152022324038BF42F2D87018D3681E18EA000F18BF6A
S3152022325042F2DE7011D1B8FBF5F40121204600F0AE
S3152022326018FB10B942F2DB7007E0019A009920463A
S3152022327000F0BAFB08B900F0CAF904465BE00AF16D
S31520223280010AA344AA4538D242F23000371806F161
S3152022329010024FF48061584600F08AFB40B94FF461
S315202232A08062394606F1100006F062F90028E6D03F
S315202232B0DDF800A04FF0000B04E0584600F0D5FBC5
S315202232C00BF1010BD345F8D34FF0000AD346AA457A
S315202232D015D23A464FF48061584600F085FB0028E5
S315202232E00FBF4FF00008D9F80800BBFBF0F000F022
S315202232F0BCFB0AF1010AA344E9E74FF000085FEA82
S31520223300080418D101203070694640F2011002F0DB
S3152022331027FE04000FD10099DFF80028D9F80030C3
S315202233201420414355180832EB60D9F81C60D9F88D
S315202233300800464356502046BDE8FE8F2DE9FE4F13
S3152022334093460425BBF1000F0346884605D0DFF8B5
S31520223350C467307810B942F2DD757EE042F2F02061
S31520223360371870683968019101281BD1307B58B9EA
S31520223370F869834271D2B3600121B868317343431D
S315202233804FF0000A009314E0B068BA68424301FB6A
S3152022339002331B1A0198B3FBF1F100FB11339A4633
S315202233A0009106E00846B3FBF0F001FB10339A4663
S315202233B00090684600F09FFB41F21001741842F2F9
S315202233C0240914E006F1100000EB0A012A46584689
S315202233D003F0D2FA0199AA448A45A8EB0508AB4400
S315202233E004D3AAEB010A0099491C00910025B8F1C1
S315202233F0000F0CD12EE0084600F05AFBD8B156F821
S3152022340009000099401C46F809006D18009562684B
S31520223410009920788A4200D110BBBD68B1FBF5F114
S3152022342018B1B2FBF5F0814205D0F8698142E2D388
S3152022343042F2D8750FE0009D0020207006F110027E
S315202234403968284600F0B4FA10B901212170656046
S31520223450050005D00DB1002030732846BDE8FE8F29
S31520223460019808EB0A0188422CBF4546A0EB0A05A3
S31520223470A8E72DE9F84F93460424BBF1000F05D087
S31520223480DFF890763A7812B942F2DD749CE042F265
S31520223490F022064642F218037868BA58FD18012807
S315202234A09046894642D1387BA0B9DFF88006C16989
S315202234B08E42EBD200222A7001233B73BE609246B3
S315202234C0806846433146DFF86806009608FB01915C
S315202234D0016031E042F2F0213944B8688B68DFF886
S315202234E05016434302FB0362121AB2FBF8F00090F5
S315202234F008FB102A0868824213D0287818B100F0D7
S3152022350054F904005ED1012042F2F02238733A4463
S31520223510BE603146906841434FF0000A009108FB75
S3152022352001F2DFF80C064A44026005E0B6FBF8F009
S3152022353008FB1066B24600900098A96D884243D3B4
S31520223540684600F0D8FA24E000206860012000991D
S31520223550A960287009EB0A00804534BFA8EB0A042B
S315202235604C4607EB0A0041F21803224659461844D4
S3152022357003F002FA6868A2442018C2456860A9EBC3
S315202235800409A34404D30098401CAAEB080A0090FD
S315202235900024B9F1000F06D113E0E868401CE86048
S315202235A0009836180096A96800982C7881420ED168
S315202235B06CB168685045CDD000F0F7F80028F2D0DB
S315202235C004460CB1002038732046BDE8F28F42F221
S315202235D0F0223A449668B0FBF6F01CB1B1FBF6F124
S315202235E088420AD0D169884202D342F2D874E9E7C6
S315202235F000F05EFA0028D0D11CB100F0D6F80400E3
S31520223600DFD1BAF1000F9FD044F62A64DAE7DFF839
S31520223610242511780020002918BF00F0C6B870474B
S3152022362038B5DFF8F0446178002021B142F230002B
S31520223630204400F07CF942F2180141F2100521447F
S31520223640002262550A70CA60227332BD2DE9F843E0
S31520223650DFF8C0740D463978042411B942F2DD749C
S3152022366032E00DB900242FE042F2F02139447B6862
S31520223670CE698A68012B08BF81460DD00968B0FB26
S31520223680F1F82818401EB0FBF1F0B8FBF2F9B0FB96
S31520223690F2F5A5EB09056D1C42F270017858B0FBB4
S315202236A0F2F0814507D20FE0484600F0D0F9040017
S315202236B00DD16D1EC14675B9787828B142F23001F6
S315202236C0781800F034F904462046BDE8F2834846AD
S315202236D000F0FFF9C146B145EED2484600F0E8F99E
S315202236E0002809F10108DFD0F4E770B5DFF8244479
S315202236F0207810B942F2DD7070BD42F20C300025DE
S31520223700265800E06D1CB5420AD2284600F0D0F990
S315202237100028F7D1284600F0A8F90028F2D070BD5B
S31520223720607828B142F23001601800F000F900B921
S31520223730002070BD10B500292DD0DFF8D82342F203
S31520223740F023134402F5065450B1012811D0022841
S3152022375011D0032814D0052815D0102818D01AE005
S315202237601078002814BF002042F2DD700860002065
S3152022377010BD0020FAE700F010F8DB0A0B60F6E70E
S315202237801A680A60F3E71C68986844430C60EEE7DF
S3152022379000F003F8F2E7042010BD23686068A268CF
S315202237A0C318E068D318C31870472DE9F84FDFF8FD
S315202237B0644342F2180042F2F021251866186A68FC
S315202237C0306882421CBF00212173002028700121EB
S315202237D0D5F808A0504600F05CF842F2DB7890B388
S315202237E041F2180022186968504600F0FDF8002898
S315202237F04DD0B068BAFBF0F7384600F06AF9E8688F
S31520223800401CE8607F1CF069009006E0384600F0F4
S3152022381060F9E868401C7F1CE8600098874234D211
S31520223820384600F045F90028F3D1B068BAFBF0FB00
S3152022383000FB0BFB00FB07F9AAEB0B01491C4846B0
S3152022384000F027F828B9404621E00BF1010B09F1B7
S3152022385001093168D3450ED204F11002584600F0F0
S31520223860A7F870B9316804F11002484600F0BCF876
S315202238700028EAD005E041F218002218484600F036
S31520223880B3F820B14045C1D101E042F2D870BDE85B
S31520223890F28FF8B506469F4D42F2F0200C462F585D
S315202238A000E0641EA4B105F110023946304600F02C
S315202238B07FF8761C50B905F1100100E0001DB842B0
S315202238C0EFD251F8042B12F1010FF7D00020F2BDCE
S315202238D00120F2BD2DE9F041924C00216160458AFA
S315202238E0068AD0F80C80002701E07F1CB044B8B2AB
S315202238F0A84219D2082817DA22464FF48461404674
S3152022390000F056F8002802BF60688749884204BF23
S31520223910A0680128E9D14FF48461204600F0AAF854
S315202239200028E2D0002000E00120BDE8F0812DE928
S31520223930F84F8146B9F81280B9F810A0D9F8C802F2
S31520223940D9F80C2008FB0AF144F62966B1FBF0F7D8
S31520223950B2FBF0F4002503E0001900F086F86D1C76
S31520223960A8B2B842F8D36F4F40F21C41381D00F05E
S315202239708EF838600025D9F80CB0664C12E06070BB
S3152022398000260DE03A464FF48461584600F02CF882
S315202239900028F4D0D9F8C802BBFBF0F000F065F875
S315202239A06D1CD344A8B24045ECD33046BDE8F28FF5
S315202239B02DE9F84305460C46164642F2F029DFF851
S315202239C0548102E0F619E41B6D1C5CB158F809708B
S315202239D0A74228BF274632463946284600F03CF8D9
S315202239E00028EFD0BDE8F2832DE9FC4781460D461B
S315202239F0924642F2F027474E13E006F11002214664
S31520223A00484600F029F85FEA00081DD1224606F131
S31520223A101001504605F0ACFDA0B9A2442D1B09F198
S31520223A2001098DB1F459AC4242F2301028BF2C46FE
S31520223A303118009453464A46012006F026F80028DB
S31520223A40DBD002E0012000E04046BDE8F6870CE00C
S31520223A500146012005F0FEBE80B51346009102469E
S31520223A603549012005F008FF02BD024632490120D0
S31520223A7005F0AABF10B50446091F201D00F007F83D
S31520223A802168884201D1012010BD002010BD3EB5FB
S31520223A9004460D4601A806F05DFA2A46214601A8CB
S31520223AA006F05EFA694601A806F06FFA00983EBD36
S31520223AB010B500211B4A00E0491C1369994206D2FF
S31520223AC002EB8104236A8342F6D1012010BD002015
S31520223AD010BD14490A69B2F5807F0AD201EB82020F
S31520223AE010620869401C086101210A4841700020A1
S31520223AF070470120704730B50649026842F22403F6
S31520223B0042F2F825CC58495901FB042202600020B2
S31520223B1030BD0000249524204243464EF006242020
S31520223B2054B5242054B924205442424414B8242083
S31520223B3074BD24203CB5242054B624203EB5FEF75D
S31520223B40B5F9202801D001203EBD00F049FDDFF83D
S31520223B50144B44F220102518284606F016FB70BB7B
S31520223B60284606F07FFE50BB694601A806F024FAB5
S31520223B70009B019A0021002000F043FCF8B944F270
S31520223B8020004FF48062A11C204402F0F5FE284634
S31520223B9006F068FE98B944F22C002158009B019A1F
S31520223BA0012000F02EFC50B94FF48462A11CDFF8CC
S31520223BB0B80A02F0E1FE0120207000F02AFD3EBD67
S31520223BC02DE9FE4F044602F0FAFE0028254605D0AE
S31520223BD005F2FF35284602F0F2FE002800F04A813F
S31520223BE0DFF8805A44F2180044F220112E1805EBF1
S31520223BF0010B2146002000F0E9FB98B30020287013
S31520223C0044F220034FF480622146E81802F0B4FEE3
S31520223C10584606F027FE002821D1338B728B7169F4
S31520223C20DFF8444A012000F0ECFB00284FF4846799
S31520223C3000F02581FF223946204603F0C7F8DFF817
S31520223C402C0A606001210020A160206140F21C41E3
S31520223C50201D00F0B4FC206000F097FA002840F0E6
S31520223C601B8111E12268100F44F2C0110D2844F263
S31520223C70600905EB010840F0AC80606810F00F0F58
S31520223C8014BF00F00F0A4FF0010AC0F303400028A8
S31520223C901ABF6068C0F303470127C2F301204FF4FD
S31520223CA08071002814BF0002084622F44072104375
S31520223CB020606068C0F30720002803D06068C0F324
S31520223CC007210902606820F47F4001436160217840
S31520223CD011F00701D8BF45F2E42070DD082F88BFF6
S31520223CE045F2E5206BD80020287000F079FC584652
S31520223CF006F04BFA002862D144F2721028440021A1
S31520223D00817244F22912A9180623CB700022C2728C
S31520223D100A70237803F0070303702268C2F3C002D5
S31520223D20CA752268C2F30212521C42702268120AF3
S31520223D30D30003F018030B7644F250122168090BA4
S31520223D4001F00701A9542168090C01F00101C17073
S31520223D502168490C01F001010171584606F082FDC5
S31520223D6000282CD16168D8F80800C1F30722C1F3B4
S31520223D70072300FB02FC1AFB03F35B00002011E061
S31520223D8005EBC002B1F808E0D8F808B04A440BFB8C
S31520223D900EFEC2F804E0401C4989D8F808E00EFB42
S31520223DA001F11160B8420BD204EB800110B1CA880E
S31520223DB08B889B184A899A42E2D245F2E6206BE00A
S31520223DC0A6F818C0A6F81AA00CFB0AF07061F761B3
S31520223DD023E70B2850D10420002C1CBF2978002948
S31520223DE05AD0C2F3036101290DD0002954D120468D
S31520223DF006F058F810B1002131704DE0A0687060AD
S31520223E000122327009E73178002945D0207800F046
S31520223E100F0008282ED205EBC0004844D8F800907F
S31520223E204468D6F804800768694601A806F073F824
S31520223E3009FB0787D8B900988044B8FBF9F0844259
S31520223E4018D3A9F101010F4214D10122B7FBF9F1AE
S31520223E50584607F040F910B142F2DB701CE0019A75
S31520223E600099384600F093F808B900F090F9002816
S31520223E70C8D011E004200FE045F2E0200CE03A46BB
S31520223E80A91C204602F078FD002000F0E8FA18B995
S31520223E900120287000F0BDFBBDE8FE8F2DE9F84FEA
S31520223EA05FEA0208DFF8BC6744F2C01206EB02077B
S31520223EB005463B680093B5FBF3F903FB195508BF6A
S31520223EC004205AD0327812B942F2DD7055E044F2FB
S31520223ED01403BA68F45802FB04990C4610E0B01C6D
S31520223EE041195246404602F047FD009A55449542D2
S31520223EF024BFAD1A09F10109A4EB0A04D0440020FB
S31520223F00002C42F2040A0AD137E0484600F042FB4E
S31520223F10F0B144F21400D9443158491C315042F2AE
S31520223F20020056F80A10305C494500D138BBD7F832
S31520223F3008B0B9FBFBF218B1B1FBFBF0824207D0E5
S31520223F40F868396948438242DFD342F2D87014E0B6
S31520223F5042F2020B002006F80B0044F2201C3B689A
S31520223F60B21C494606EB0C0006F023FE20B901219D
S31520223F7006F80B1046F80A9008B1BDE8F28F6119AF
S31520223F80009888422CBFA246A0EB050AA7E72DE976
S31520223F90F84F5FEA0208DFF8CC5644F2C0120746F1
S31520223FA0AB580093B7FBF3F903FB197708BF04201C
S31520223FB04DD02A7812B942F2DD7048E044F2080246
S31520223FC0AE18B36D994538BF45F2E3203FD344F26C
S31520223FD0C0142C19F368A26802FB03998A4622E0B0
S31520223FE000207060C6F80890012131700AEB070282
S31520223FF00098904234BFC41B5446E81942F2080363
S3152022400022464146184402F0B7FC70682018706098
S31520224010E71900998F4224BF7F1A09F10109AAEBD9
S31520224020040AA0440020BAF1000F04D10FE0F06860
S31520224030401CF060D944B0683478484509D144B14F
S315202240407068B842D2D000F009F90028F3D0BDE832
S31520224050F28F44F2C0116A18D2F808B0B9FBFBF1EC
S315202240601CB1B0FBFBF081420DD0D06812695043BF
S31520224070814202D342F2D870E9E7484600F08AFA12
S315202240800028D4D11CB100F0E9F80028DFD1002F76
S31520224090A6D045F2D120DAE72DE9F047DFF8C4751C
S315202240A044F2C012BC182669E3683A784FF0010818
S315202240B05E4312B942F2DD702AE009B9002027E0D8
S315202240C02368A268B0FBF3F50818401E44F260016B
S315202240D0B5FBF2FAB0FBF3F0B0FBF2F57B58A5EB79
S315202240E00A056D1CB3FBF2F292450AD245F2E32071
S315202240F00EE0504600F060F95FEA00080AD16D1EF4
S31520224100CA465DB9787810B100F03FF8804640461D
S31520224110BDE8F087504600F093FACA46B245F1D25E
S31520224120A06800FB0AF000F035FA00280AF10109FE
S31520224130DFD0F2E72DE9F041DFF8286544F2C810F6
S315202241403718BC68796830784FF0010800254C432F
S3152022415088B942F2DD7016E03868684300F01AFA10
S3152022416040B9284600F028F95FEA00081CBF2846F5
S3152022417000F066FA6D1CA542EED3707810B100F0DD
S3152022418004F880464046BDE8F081012067E1DFF849
S31520224190E02411780020002918BF00F05FB870476C
S315202241A038B5DFF8C0446178002009B1FFF7EDFF6A
S315202241B044F2080142F202052144002262550A7085
S315202241C0CA6032BD30B500292BD0DFF8982444F2BC
S315202241D0C013D41850B1012811D0022811D0032897
S315202241E014D0052815D0102818D01AE010780028C7
S315202241F014BF002042F2DD700860002030BD00206E
S31520224200FAE700F010F8AD0A0D60F6E722680A6098
S31520224210F3E7A368206843430B60EEE700F003F838
S31520224220F2E7042030BD2569E368A26820685D4351
S31520224230554345437047DFF82C1401F58442107804
S31520224240002800D0704720B542F2020042F204052F
S3152022425000230B544B51891C516020BD2DE9FE4F62
S31520224260DFF8004444F2080044F2C01125186618EB
S31520224270D5F808A0B0683169BAFBF0F8F068414356
S3152022428001910021297068683168884207D042F25C
S315202242900803091A2344FF22184405F05FF944F241
S315202242A0201001225146204406F015FF42F2DB7BE4
S315202242B0A0BB306842F208016218014600FB0AF0D0
S315202242C000F054F800284FD0404600F0B9F9E868AB
S315202242D0401CE86008F1010807E0404600F0B0F9EA
S315202242E0E868401C08F10108E8600198804539D227
S315202242F0B76807FB08F9484600F04CF90028EFD1A9
S31520224300BAFBF7F0474344F2201020440090AAEB50
S315202243100702521C494606F0DEFE20B1584623E00B
S315202243207F1C09F10109336857450FD20098A21C38
S31520224330394606F03EFC88B930680146A21C00FBAD
S3152022434009F000F013F80028EAD007E042F208002C
S315202243502218194603FB0AF000F008F820B1584526
S31520224360BBD101E042F2D870BDE8FE8F2DE9F0479D
S3152022437044F2C015BB4E90467259B0FBF2FA08EBB6
S3152022438001090C46FFF757FF384603E0B844E41BE1
S315202243900AF1010AC8450DD27759BC4238BF2746B1
S315202243A044F220103B4642465146304406F022FD36
S315202243B00028EBD0BDE8F08710B50446FFF73BFF77
S315202243C02146BDE81040AB4806F027BE10B50C4664
S315202243D020B9A94A201D4FF47F7103E0A34A201D4C
S315202243E040F21C416368934204BFA268012A06D187
S315202243F000F0E5F82168884201D1012010BD002075
S3152022440010BD2DE9F04782460F46964D9146984695
S315202244104FF40051A81C06F0A3FE5FEA0A000CBF47
S315202244204FF480644FF48464002601E04744761CCE
S315202244304E4512D244F2C010AA1C2858214678434F
S31520224440FFF72CFD0028F1D1A91C5046FFF7BEFF0D
S315202244500028EBD00020BDE8F0870120FBE72DE9DC
S31520224460F04F804E44F22002B51885B06B8A019314
S3152022447001992A8A0292012907D944F2C013334488
S315202244804A439C68B2FBF4F901E04FF00109002867
S315202244908DF8000035D10027B846029CC2468B46AD
S315202244A002E008F10108A244D84517D244F2C013EB
S315202244B0B21CF0584FF4806100FB0AF0FFF7EEFCA5
S315202244C038B94FF480622946B01C05F051F80028ED
S315202244D0E7D0CDF804B00294012702E0CDF804B04B
S315202244E002944FF0000A002FD04645F2E12404958B
S315202244F04FF4806B48D044F224004FF47F7130442D
S3152022450010E044F2C0103044D5F80C808168564D14
S315202245100495B8FBF1FA45F2E2244FF4846B40F27B
S315202245201C41281D00F04BF82860002504E005EBED
S315202245300A00FFF741FF6D1C4D45F8D344F2C01007
S3152022454030440390DDF80490029DDDF810A0002768
S315202245504F451BD2039800685246594600FB08F065
S31520224560FFF704FF38B99DF80000012804BF002177
S315202245707170002405E003988168B8FBF1F0FFF7FB
S315202245801BFF7F1CA844E3E7002000E0204605B05D
S31520224590BDE8F08F30B5394B1C68334B01460022DB
S315202245A00020B1FBF4F100E0521C1C69A24205D284
S315202245B003EB82052C6AA142F6D1012030BD3EB5FD
S315202245C004460D4601A805F0C5FC2A46214601A827
S315202245D005F0C6FC694601A805F0D7FC00983EBD29
S315202245E038B5204C44F22003E518FF224FF480618F
S315202245F0284602F0EBFB01201F4BA8606B6044F299
S3152022460024024FF47F71A018FFF7D9FF28600020DB
S3152022461032BD80B569464FF4807001F0A1FC70B995
S31520224620009A17491420424316480A440168D16049
S315202246300369C16880684B4343439360002002BDCF
S3152022464009490A69B2F5807F0AD201EB82021062F9
S315202246500869401C086101210248417000207047E8
S315202246600120704770482420908C242054424244B2
S3152022467078882420908924204243464E388A242032
S31520224680F0062420308A2420DFF880150020886036
S31520224690704710B5DFF874451346227802B998E0A0
S315202246A0BDE810400A46194606F08ABD2DE9F84390
S315202246B0DFF85855D5F82874804628780C46914636
S315202246C018B942F2DD70BDE8F283B7F5806F88BF54
S315202246D04FF4806734B3A8686968002804BF00298C
S315202246E0C5F8048002D04118414516D121188F429F
S315202246F02CBF26463E1A284400F10C01894504D0B7
S31520224700324649460C3002F037F9A868A41B3018E5
S31520224710B842A860B144B044DCD100F005F80028A4
S31520224720D8D0D0E70020CEE7F8B5DFF8E064B56828
S31520224730ADF5806D0024DDB177687460B4602A46B9
S3152022474006F10C01384606F0BBFD040010D12A469C
S315202247506946384606F034FD040009D12A466946C0
S3152022476006F10C0004F004FF10B142F2DF7000E0E3
S3152022477020460DF5806D01B0F0BD38B50D46DFF827
S315202247808C140446087810B942F2DD7032BD2946CF
S31520224790204606F02DFD40B92946204600F01CF879
S315202247A010B942F2DF7032BD002032BD10B5DFF8DB
S315202247B05C44207800B90CE006F05BFD40B9D4F8C1
S315202247C0241400F009F810B942F2DF7010BD00203F
S315202247D010BD42F2DD7010BD70B5ADF5806D054677
S315202247E00C4601E0A41B7519C4B14FF48066B4F5BA
S315202247F0806F98BF264632466946284606F0E0FC58
S315202248006846002100E0491CB1EB960FEAD250F807
S31520224810042B12F1010FF6D0002000E001200DF525
S31520224820806D70BD2DE9F04D8EB0044602F0C7F89A
S315202248300425002804D004F12B0002F0C0F8002819
S3152022484000F078812068DFF8C483DFF8C4B3000F34
S315202248500C2808F5826A08F20C4608F5866740F08D
S31520224860B6802C215046FEF747F8C6F804B04FF4FE
S315202248708030B0600121397003200222B8707A700C
S315202248800621FD700520797138712278DFF884039C
S3152022489002F00F0200EB8201CA6DF2612168C1F398
S315202248A0031100EB8102116C31622168C1F30321CD
S315202248B050F82100B0612168DFF85C03090B01F072
S315202248C00F01012904D0022911D1022030753CE0A2
S315202248D03175B169B1F5803F98BF102005D9814243
S315202248E002D21821717530E0202070752DE000212A
S315202248F0317560223A72B169814213D218207075BD
S315202249004221B971306AB0F5803F28BFD8201BD208
S31520224910B0F5805F08BF202016D0B0F5004F14D105
S31520224920522011E020217175122078701321002047
S31520224930B871B970306AB0F5803F28BFDC2003D227
S31520224940B0F5805F01D12120F8712168090D01F08F
S315202249500F01491E03290CD8DFE801F008060402BC
S31520224960357308E0032102E0022003E0012131739E
S3152022497001E0002030732168090C01F00F01012982
S3152022498008D00AD3032901D002D306E0032002E06D
S31520224990022103E00120707301E000217173206857
S315202249A0C0F3036080B1207900F00F00012808D0DF
S315202249B00AD3032801D002D306E0984902E0984878
S315202249C003E0984931616DE0974830616AE02268B8
S315202249D00B285CD10420002C1CBF98F8001000293B
S315202249E00BD0C2F3036101290DD0002905D120461F
S315202249F005F058FA10B1002139739CE0A06838617D
S31520224A000121397341E0397B0029F6D0227812F030
S31520224A100F0FF2D1002104910391012004A900F065
S31520224A208DF880BB03A9102000F088F858BB01A975
S31520224A30032000F083F830BB3C69049D694602A816
S31520224A4005F069FA6519F0B9009903986418A0420D
S31520224A5038BF42F2D8706ED30198401E054218BF45
S31520224A6042F2DE7067D101992846FFF7B5FE10B9CA
S31520224A7042F2DB705FE0029A00992846FFF716FE83
S31520224A8008B9FFF751FE002855D1002552E05A4594
S31520224A9050D12C215046FDF72FFF2C22214650465D
S31520224AA001F06AFF002088F80000347B37695F4DC9
S31520224AB008F58360FDF78CF92046FCF7B7FF2946D7
S31520224AC02046FDF778F907A85BA11C2201F054FFA6
S31520224AD01C216846FDF710FF08210191009700222C
S31520224AE000995348ADF80820B0FBF1F103918DF8D7
S31520224AF00A20022200998DF81820B0FBF1F10491A8
S31520224B002A460099B0FBF1F1059107A800218DF8DC
S31520224B101910ADF81A10694650F8240006F03EFD09
S31520224B20316808F5846006F01FFB050004BF0120CA
S31520224B3088F8000028460EB0BDE8F08D19B3334A16
S31520224B4002F2244350B1012811D0022814D003287E
S31520224B500FD0042813D0102813D014E01078002860
S31520224B6014BF002042F2DD7008600020704700202A
S31520224B70FAE75A680A60F8E71868800AF4E798681C
S31520224B80F2E71A68F6E70420704700002DE9F8417B
S31520224B9007462848047845788BB08846164604A8C6
S31520224BA02CA11C2201F0E8FE6846002100220023C7
S31520224BB08C4680E80E104FF4801103910EB9012203
S31520224BC001E0032E05D129462046FDF7DBF80020F9
S31520224BD019E0012E08BF019702D0022E08BF0097A6
S31520224BE0CDF8088004A8694650F8240006F03AFE3B
S31520224BF0B0F5C87FF6D030B1002229462046FDF7EF
S31520224C00C1F842F6CD100CB0BDE8F081E40724208D
S31520224C106B736563700724200100000180841E00C7
S31520224C20404B4C0080969800002D3101005A62029A
S31520224C3000CA9A3BFC0B24200000000000401140B1
S31520224C400080114000C011400000124000C0C24026
S31520224C500000C340000000000040114000801140A7
S31520224C6000C011400000124000C0C2400000C340D4
S31520224C703EB5DFF81C4604F5387540F2FF110222B4
S31520224C80A9846A84204607F0E3F8E0B9204608F092
S31520224C90BAF8A8B901A940F2211001F061F990B918
S31520224CA06946204600F006FB68B9019B00F057F9B9
S31520224CB02A68CA60009B8B60012184F808133EBDB6
S31520224CC0002284F808233EBDF0B585B0044601F0C3
S31520224CD076FE002803D0E01D01F071FE002800F0A8
S31520224CE0DB802268DFF8A855100F0B2805F2023642
S31520224CF005F52C7778D10420002C1CBFB179002908
S31520224D0070D0C2F3036101290ED000296AD1204630
S31520224D1005F0C8F810B10021B17663E0A168C5F884
S31520224D2020130122B2765DE0B17E00295AD0227864
S31520224D3012F00F0F56D1002104910291012004A9CD
S31520224D4000F00CFA00284DD102A9022000F006FA22
S31520224D50002847D10298DFF83C154FF0FF348842CD
S31520224D6028BF029401A9052000F0F8F9002839D19C
S31520224D70D5F82063049D694603A805F0CCF8751959
S31520224D8080BB009902987618B04238BF42F2D8707A
S31520224D9028D30198401E054218BF42F2DE7021D147
S31520224DA03878012808460199B0FBF1F1024601988C
S31520224DB018BF002400FB1122100018BF0120411821
S31520224DC001982246B5FBF0F000F03DFA10B942F2E6
S31520224DD0DB7007E0039A0099284600F013F908B9F8
S31520224DE000F069F905B0F0BD0C2855D14FF4497170
S31520224DF02846FDF781FD207910F00F0002D00228E7
S31520224E0041D049D2DFF8901429600C2008F0CCFA40
S31520224E10DFF88814096801F0FF01491CB0FBF1F084
S31520224E206860DFF87C0429680268914204BF002367
S31520224E3080F8D43040F2FF1070800221318005F1B3
S31520224E402C012068020B000A00F00F0002F00F024C
S31520224E5048700A706068C20CC30D02F0010203F08A
S31520224E600103000E0A734B7300F00300012841F25E
S31520224E70883240F6C41311D002D3032814D011D37A
S31520224E8044F620600CE0DFF81C1429600C2008F080
S31520224E908BFADFF81414BDE70420A3E742F2107040
S31520224EA0486002E04A6000E04B606068C0F3005030
S31520224EB000280CBF8A608B606068800C00F001009D
S31520224EC08873284607F09FFF00288BD12168090E78
S31520224ED001F00701284607F0AEFF002882D104A957
S31520224EE0284600F0E7F90028F8D103A940F221103C
S31520224EF001F036F80028F1D1039B00F030F83A6B06
S31520224F00CA60049B8B602768F90725D50921684644
S31520224F10FDF7F2FC380C00F003008DF80300C7F3EE
S31520224F2001108DF80200284621680A0D02F0070298
S31520224F308DF801208A08C90801F001018DF8041094
S31520224F4002F0010200218DF805108DF80020694615
S31520224F5008F015F9002801D10121B17142E7DFF8C5
S31520224F604C2314214B43D11870472DE9F84FDFF8F3
S31520224F70209309F54276824630780C46904618B917
S31520224F8042F2DD70BDE8F28F4FEA5A2509F54970C3
S31520224F90AAEB45254FEA5A2700900FE0009841199F
S31520224FA05A46404601F0E8FC5D44B5F5007FA4EB65
S31520224FB00B04D84424BFA5F500757F1C04B3707852
S31520224FC078B1706887420CD3411C8F4209D2AAEB52
S31520224FD040256019B0F5007F94BFA346C5F5007B16
S31520224FE0DCE700207070012300993A46484607F0F4
S31520224FF041FF002802BF012070707760E9D0C1E707
S315202250000020BFE72DE9F84FDFF8848208F54277A2
S315202250103B7813B942F2DD704BE082464FEA5A249E
S31520225020AAEB44244FEA5A250E46914602E0A4F5DD
S3152022503000746D1C002E3BD0387A90B13869854297
S315202250400CD3411C8D4209D2AAEB4024F868A042F7
S3152022505010D000F0B0F80028EED02AE000F0ABF80D
S3152022506038BB14B142F2DE7023E00020F8603D61A5
S31520225070012139723019B0F5007F94BFB346C4F5A9
S31520225080007B08EB04005A46494600F2245001F0E0
S3152022509073FCF9685C445944B4F5007FF960A6EBA9
S315202250A00B06D944C6D300F086F80028BFD000E0EC
S315202250B00020BDE8F28F764A92F8101300200029AC
S315202250C018BF00F078B8704779480021C171017065
S315202250D00020704770B56E4D064695F808030C469B
S315202250E010B942F2DD7070BD284607F09CFE10B141
S315202250F042F2E07070BD94B105F53870A419C169E9
S315202251000068641EB4FBF0F2B2FBF1F2B6FBF0F0BB
S31520225110B0FBF1F12846BDE8704007F09BBF70BD79
S3152022512038B55B4C04F53F75287B10B942F2DD7009
S3152022513032BD204607F077FE10B142F2E07032BD32
S315202251406946204600F0B6F838B900982968B0FB9F
S31520225150F1F20021204607F07DFF32BD38B50C0042
S3152022516027D04B4D30B101280ED002280ED005284B
S315202251701BD01EE095F80803002814BF002042F217
S31520225180DD702060002032BD0020FAE769462846DD
S3152022519000F090F80028F6D1009AD5F8E012A1FB6B
S315202251A00201800A40EA8150EBE7D5F8E01221601D
S315202251B0E8E7042032BDF8B5354C204607F033FE09
S315202251C010B142F2E070F2BD04F5447504F2245681
S315202251D06868B0F5007F4FF0FF370AD094F8B012F6
S315202251E00129C0F500710CBF3A460022304404F052
S315202251F0B5F9002094F8B0122870012918BF00278B
S31520225200A8683A46012100F01EF810B942F2DB7056
S31520225210F2BDAA6801233146204607F08CFE88B9C2
S3152022522004F54977AA6801233946204607F022FE4B
S3152022523040B94FF400723946304604F099F908B144
S3152022524042F2DF70F2BD2DE9F843114E05460C4697
S31520225250904606F5497900E0E41BB4B1012C8CBFB7
S31520225260012727463B462A464946304607F002FE74
S3152022527048B9494600E0001DB0EB472FECD251F841
S31520225280042B4245F7D0002000E00120BDE8F2831E
S31520225290683724200100400000804140001DCC4078
S315202252A0DC3F242000C04140801DCC40F006242033
S315202252B0713A2420024602F539720020137F072BE9
S315202252C013D8DFE803F004060612080A0C0F126828
S315202252D006E0536807E0926802E0D36803E0126989
S315202252E00A60704753690B6070470420704700009C
S315202252F01CB5DFF87845204606F0FFFE90B92046F9
S3152022530008F092FFC83458B900F022F950B900F0BB
S3152022531024F96268CA6023688B600121217316BD35
S315202253200022227316BDF0B585B0044601F047FB54
S31520225330002803D0E01C01F042FB002800F0D48094
S315202253402768DFF82855380F0B2805F1C80640F0C4
S315202253507B800420002C1CBF317B00290DD0C7F373
S315202253600361012905F1E8060DD0002905D1204641
S3152022537004F098FD10B100213170E7E0A268726036
S3152022538001233370E2E031780029FBD0227812F013
S315202253900F0FF7D1002104910291012004A900F0D8
S315202253A0D3F90028EED102A9022000F0CDF9002857
S315202253B0E8D10298DFF8B8144FF0FF34884228BF8C
S315202253C0029401A9052000F0BFF90028DAD17768D6
S315202253D0049E694603A804F09EFDBE19002828D102
S315202253E0009902987F18B84238BF42F2D87020D34B
S315202253F00198401E064218BF42F2DE7019D195F856
S31520225400BE00C10700980199B0FBF1F1024601982E
S3152022541058BF002400FB1122100018BF012041187A
S3152022542001982246B6FBF0F000F0FBF910B942F2C1
S31520225430DB708BE0039A0099304600F0E2F80028D0
S3152022544001D100F037F981E00D284DD1F0212846EF
S31520225450FDF752FA17F00F0702D0022F3BD043D284
S31520225460DFF8100428600C2007F09EFFDFF80814CE
S31520225470096801F0FF01491CB0FBF1F06860DFF8F2
S31520225480FC0329680268914204BF002380F808336E
S31520225490206805F12C01020B030A02F0070203F011
S315202254A001030A704B70C20CC30D02F0010203F0F5
S315202254B00103000E0A734B7300F00300012841F208
S315202254C0883240F6C41311D002D3032814D011D324
S315202254D044F620600CE0DFF8A81329600C2007F0A0
S315202254E063FFDFF8A013C3E704202FE042F21070F7
S315202254F0486002E04A6000E04B602068C0F300501A
S3152022550000280CBF8A608B602068000900F0E0002A
S3152022551008612068C0F3415000281DBF2068000D75
S3152022552000F0060001204861284608F07DFE58B981
S3152022553000F00EF850B900F010F87268CA6033688D
S315202255408B600121317301E00022327305B0F0BD58
S3152022555069464FF4907000F003BD009BDFF82823A4
S3152022556014214B43D11870472DE9F84FDFF8FC92CE
S3152022557009F1D406824630780C46904618B942F272
S31520225580DD70BDE8F28F4FEA5A2509F1F000AAEB29
S3152022559045254FEA5A2700900FE0009841195A468E
S315202255A0404601F0E9F95D44B5F5007FA4EB0B04F2
S315202255B0D84424BFA5F500757F1C04B3707878B132
S315202255C0706887420CD3411C8F4209D2AAEB402510
S315202255D06019B0F5007F94BFA346C5F5007BDCE7B2
S315202255E000207070012300993A46484608F021FB94
S315202255F0002802BF012070707760E9D0C1E7002021
S31520225600BFE72DE9F84FDFF8648208F1D4073B780B
S3152022561013B942F2DD704BE082464FEA5A24AAEBB6
S3152022562044244FEA5A250E46914602E0A4F50074F8
S315202256306D1C002E3BD0387A90B13869A8420CD105
S31520225640411C8D4209D2AAEB4024F868A04210D0F0
S3152022565000F09DF80028EED02AE000F098F838BB1A
S3152022566014B142F2DE7023E00020F8603D61012170
S3152022567039723019B0F5007F94BFB346C4F5007B4A
S3152022568008EB04005A46494600F53C7001F074F9AD
S31520225690F9685C445944B4F5007FF960A6EB0B0601
S315202256A0D944C6D300F073F80028BFD000E00020EA
S315202256B0BDE8F28F6D4A92F8DC100020002918BF2F
S315202256C000F065B8704771480021C1710170002031
S315202256D0704770B5654E054696F8D4000C4610B92B
S315202256E042F2DD7070BD304608F09BFA10B142F2CC
S315202256F0E07070BD54B13046690A65196D1EC1EB42
S315202257005522BDE87040521C08F084BB70BD38B5C6
S31520225710564C04F1C805287B10B942F2DD7032BD01
S31520225720204608F07EFA10B142F2E07032BD286897
S315202257306968A1FB0023520A42EAC3522046BDE8E9
S315202257403840002108F066BB10B5F1B1504A30B17D
S3152022575001280DD002280DD0052814D015E0107B63
S31520225760002814BF002042F2DD700860002010BD00
S315202257700020FAE714685068A0FB0423920A42EA22
S3152022578083520A60F2E75068EFE7042010BD2DE924
S31520225790F041364C204608F044FA10B142F2E0702D
S315202257A03DE004F1E00504F53C782868B0F5007F59
S315202257B004F1BE074FF0FF3609D03978CA07C0F563
S315202257C000714CBF32460022404403F0C7FE00201F
S315202257D0B8773978C80758BF00266868324601212B
S315202257E000F01FF810B942F2DB7018E06A68012334
S315202257F04146204608F091FA88B904F1F0076A68F2
S3152022580001233946204608F014FA40B94FF4007293
S315202258103946404603F0ACFE08B142F2DF70BDE8BD
S31520225820F0812DE9F843114E05460C46904606F1A5
S31520225830F00900E0E41BB4B1012C8CBF01272746D6
S315202258403B462A464946304608F0F3F948B94946A6
S3152022585000E0001DB0EB472FECD251F8042B424535
S31520225860F7D0002000E00120BDE8F283DC3F24208F
S315202258700100400000804140001DCC406837242092
S3152022588000C04140801DCC40F0062420B140242077
S31520225890A4402420416882688A4209D2891A41601A
S315202258A0826601220FF2A5210160826000207047C4
S315202258B042F2787070470FF2050113E0416A4A8955
S315202258C08282CB689B1E43604A68DFF81C349A4248
S315202258D002D1097A022902DB42F2757070470FF251
S315202258E00D0100BF0160002070470000416A4A680E
S315202258F0436882610A68D21E9A42826002D342F2A9
S31520225900767070470989002908BFFFF7C3BF42F284
S3152022591077707047F8B50446DFF8D06300F04EF86A
S3152022592069682868E047A0B930680169884780B944
S31520225930616A102204F11C0004F012FB00F039F8EF
S315202259400098A968884200D046E00FF20120206004
S315202259500020F2BDF8B504461022616ADFF88C6376
S3152022596004F11C0004F0FCFA00F028F82868102123
S31520225970E047E8B9286810302860686810386860DF
S31520225980102888BFDFF8680310D810B1DFF8640327
S315202259900CE031680869804750B900F00AF800986F
S315202259A0A968884200D017E00FF2A11020600020BB
S315202259B0F2BD694604F11C0004F0E7BAB4F85A3065
S315202259C03768626AD7F808C0180604F15C05000F0A
S315202259D01B0A43EA0023704742F27A70F2BD10B5C1
S315202259E0044604F11C0004F0B5FA206E112827BFC4
S315202259F0BF492160BF482060002010BD38B5BB4B6F
S31520225A001C68426E016EC06DE568A84732BDB0F8AB
S31520225A105A2013061B0F110A41EA0321D2074CBF33
S31520225A2008230423042901D004207047C16D00F1E4
S31520225A306002B14801F003B970B5044642F27F767E
S31520225A40E56D284600F0BBFF80B1606E04F1180197
S31520225A50A8470646012E03D12046BDE8704019E705
S31520225A60022E03D100F0B8F8002070BD304670BD5A
S31520225A7010B500F15C024368516881608B4202D2E4
S31520225A8042F2767010BD137ADC0707D51268836935
S31520225A909A4203D111B1C160002010BD90F85A104C
S31520225AA0CA0702D542F27C7010BDBDE81040F1E64D
S31520225AB038B5B0F85A108A0719D40B061B0F0A0AD2
S31520225AC0C90716D542EA0322093A04D0F73A0AD060
S31520225AD0521E04D00BE0BDE83140FDF756B9BDE891
S31520225AE03140FDF702BEBDE83140FEF723BB04203C
S31520225AF032BD42EA03227D4B1C68A5695C3041688F
S31520225B000068A84732BD00001CB50446B4F85A00E6
S31520225B100106090F000A40EA0120092803D1E06D77
S31520225B20FCF701FF16BD01290ED1694600F018FAAD
S31520225B3058B96E498A68009BE06D14214B43D118CF
S31520225B400A691169884716BD042016BDF8B5044690
S31520225B5004F15806616A3046102200F00DFF5A25BC
S31520225B600120375CED19401C1028FAD3307805F035
S31520225B70FF05A84202D042F27970F2BD71780A2935
S31520225B8042F2127025D8DFE801F01A060A0E2612F2
S31520225B901A16261C20002046BDE8F24068E7204639
S31520225BA0BDE8F2401BE72046BDE8F24026E7204624
S31520225BB0BDE8F24040E72046BDE8F24078E70020E3
S31520225BC0F2BD2046BDE8F2409EE72046BDE8F240DF
S31520225BD01DE742F27B70F2BD10B5484C702120465B
S31520225BE0FCF78AFE464A2260002010BDF8B50646FA
S31520225BF00C4600200027434DA74218D02969C1F11F
S31520225C001001E01B09E080B12B69F25DEA547F1C6A
S31520225C102A69521C2A61491E401E0029F3D10020DE
S31520225C20286100F005F810B9E6E742F27D70F2BD50
S31520225C3080B53248334A42620021C2682AB10369BA
S31520225C4093420AD05B1C036101E0826E1AB9016875
S31520225C508847014601E0521E8266084602BDF8B5F3
S31520225C60224C20680169884700283CD1234F97F887
S31520225C705900042823D107F15C052E68304600F00E
S31520225C809EFEC8B10020FCF70BFE97F85A0081072A
S31520225C9010D568686861616860B10A68904222BF3F
S31520225CA04968491C814201D20420F2BD80F308882A
S31520225CB080F30988A868B04742F27E70F2BD082890
S31520225CC00FD10220FCF7ECFDBFF34F8F0E490F4870
S31520225CD00A6802F4E06202430A60BFF34F8F00BFD4
S31520225CE0FDE742F27B70F2BD53544D501000242022
S31520225CF0555922201559222000C0CA40543F24201B
S31520225D00B7582220C83F24200CED00E00400FA05D3
S31520225D107CB50C00164605461A4601D1002076BDD2
S31520225D20100A10F00F0002D001280DD01DE06A467D
S31520225D30284600F0BCF8D0B9009B21461C6963682E
S31520225D4032462846984776BD6B46284600F0D4F838
S31520225D5068B90098DFF8EC120369986948603246E0
S31520225D605B6821462846984776BD42F2D87076BD92
S31520225D70F8B50C00174606461A4601D10020F2BD78
S31520225D80100A10F00F00AF4D02D0012816D02CE0B9
S31520225D90304600F0FAF840BB6A462146304600F0EB
S31520225DA086F820BB009B21461C69A3683A463046CA
S31520225DB09847B8B900990A69116911E06B463046AD
S31520225DC000F09AF898B900980369986968603A466B
S31520225DD09B6821463046984720B900990A6951691D
S31520225DE02960F2BD00222A60F2BD42F2D870F2BDAD
S31520225DF07CB5130A13F00F0305460C4642F2D876D9
S31520225E0002D0012B14D025E06A4600F050F8F0B9D2
S31520225E1000980169486998B12146284600F0B5F8CC
S31520225E20C0B9009A13695A6921462846904776BDF9
S31520225E306B4600F061F850B900980169CA6812B918
S31520225E4042F2E57076BD21462846904776BD14B9A2
S31520225E50002076BD304676BD7CB50C00054616461A
S31520225E6001D1002076BD00F090F810B142F2D87010
S31520225E7076BD6A462146284600F019F830B9009B9D
S31520225E8021461C69E36832462846984776BD10B5D6
S31520225E906C4C206810B180470021216010BD10B5BE
S31520225EA0684C606810B180470021616010BD70B5D2
S31520225EB00C4615001FBF64494A682A60002C42F20C
S31520225EC0D87617D002E003F1140129602B688BB112
S31520225ED01A68002A04BF5968002901D1196949B1D3
S31520225EE0904224BF59688142EDD32018401E814218
S31520225EF028BF0026304670BD2DE9F04306461546BA
S31520225F00002B1FBF504882681A60002942F2D87798
S31520225F1023D002E004F1140018601C68ECB1226838
S31520225F20002A04BF6068002807D1A068002804BF81
S31520225F30E068002801D1206978B19542EAD1A0688B
S31520225F40E268A2FB00890023002572186B4199453D
S31520225F5003D301D8904500D300273846BDE8F083E5
S31520225F6070B505460420002671B1374A946801E0AF
S31520225F70761C143444B1236833B12269002A03D013
S31520225F809D42F5D10E60002070BD70B50918491EBC
S31520225F9000222D4BDC68256905EBC20606F160043A
S31520225FA05D6814265643AD5966682468AC4208BFFC
S31520225FB0AE4203D0864228BFA14204D2521C012AD5
S31520225FC0E8D9002070BD012070BD70B51E4D6E68C7
S31520225FD003E0006800B18047143630690028F8D1E2
S31520225FE0AD6803E0096801B188471435296900297B
S31520225FF0F8D162BD38B5042203461C0A14F00F04D8
S31520226000114802D0012C0ED01AE0446800E0143444
S315202260102069A8B1E0689842F9D123699B697BB1AE
S31520226020084698470BE08468042000E0143422694D
S315202260302AB125689D42F9D1084611698847024628
S31520226040104632BD6037242010002420014601202C
S31520226050D1F8DC1F090C01F0070188408002704725
S315202260602DE9F8430A9C0127002C3CD100F6E43185
S3152022607000F6EC350898099E120202F4706242EA72
S31520226080034200F00F0002430A60FBF72EFB044670
S315202260904FF47A7088467043FBF731FB06468946D1
S315202260A02868C0F3813001282AD1FBF71EFB021B68
S315202260B061EB080341450AD828BFA04207D2E24312
S315202260C06FEA080310185941421C61F1FF33B9F1D6
S315202260D0000F08BF002EE3D04B45E1D301D8B242B0
S315202260E0DED3052012E0012C08D100EB0140DFF897
S315202260F0E015DFF8E04501440519BBE7042005E059
S31520226100286810F4704F08BF00273846BDE8F2836E
S31520226110F0B5059E01240025012E05D1D0F8D86F91
S31520226120C6F30336761C01E015686E1CDFF8A875C7
S315202261303F6800E06D1CB5421CD24FEA450C27FA77
S315202261400CFE1EF0030FF5D100EBC10400EB01403B
S3152022615000EB0511DFF884652469881900270121BF
S3152022616004F00F04076001FA04F484604760036098
S31520226170156000242046F0BD3EB5012302936424F7
S315202261800325019400950023FFF76AFF3EBD2DE9E2
S31520226190FE43894680460A99012000250129144674
S315202261A01F4605D1D8F8D86FC6F30906761C07E014
S315202261B03D686E1C04E0012904D0022932D16D1CCF
S315202261C0B5422AD201200290052364200190009311
S315202261D000222B4649464046FFF742FF18BB08EBD2
S315202261E00942DFF8F034D158C1F38111032905D1B0
S315202261F0D15801F00F01A14212D0E0E70029DAD1CD
S31520226200012064210290019100902B462246494684
S315202262104046FFF725FF0028D4D020B9B54201D227
S315202262203D6000E00120BDE8FE832DE9F84F0746B8
S31520226230FBF75BFA04460D46DFF8A404DFF8A464D4
S31520226240FBF75DFA80468946D7F8D40F810703D516
S31520226250D7F8D40FC10720D5B068DFF88C2407EBF6
S3152022626000418B58980518D0FBF73FFA021B61EBA9
S315202262700503A94203D828BFA04200F063F8B9F14A
S31520226280000F08BFB8F1000FDED04B45DCD301D872
S315202262904245D9D3B84605274AE070690078B846E0
S315202262A0012700F07F00002100E0491C8142FCD317
S315202262B03069002101604160F16870690860BFF38E
S315202262C04F8FBFF36F8FB068DFF8202408EB004191
S315202262D08F50FBF70AFA04460D460020FBF70FFAE9
S315202262E082468B46B068DFF8082408EB00418B589B
S315202262F0980515D1FBF7F9F9021B61EB0503A94293
S3152022630003D828BFA04200F01DF8BBF1000F08BF1A
S31520226310BAF1000FE6D05B45E4D301D85245E1D34A
S31520226320306972690168914202BF406800280027BD
S31520226330B068DFF8C02308EB004101238B50384692
S31520226340BDE8F28F06D2E243EB4310185941421C94
S3152022635061F1FF3370472DE9F84F0A9CDFF88473E9
S31520226360DFF894B3814600202060B860B9F1000F8F
S31520226370DFF88803C7F800B04FF0040A786002D00D
S315202263801D0018BF002C00F099818846B8F1100F05
S315202263901CBFB8F1180FB8F1200F5AD1160018BF1A
S315202263A0012E03D0022E18BF032E52D148F21000FE
S315202263B0CBF81000BFF36F8FBFF34F8F01210091CF
S315202263C0FF23B96807F120025846FFF7A1FE5FEAAC
S315202263D0000A3CD1012000903A6AB96807F12403C9
S315202263E05846FFF7D4FE5FEA000A30D101200090FA
S315202263F0FF23B96807F128025846FFF789FE5FEA8C
S31520226400000A24D101200090BA6AB96807F12C0328
S315202264105846FFF7BCFE5FEA000A18D15846FFF716
S3152022642015FE796A484300F52010F86000F1100223
S3152022643000F5807100F50070F8613A61796158465D
S31520226440FFF704FEF96A484300F52010B861BAF135
S31520226450000F40F033813A68B86802EB0041F868B1
S31520226460D2F804E001F5803300215FEA0E3A05D501
S3152022647001460020C3E90001396902E0C3E900018F
S315202264803869DFF87CB2C3E908014FF0010EC3F860
S315202264900CE09246B86802EB00419A4841F800E0A7
S315202264A0B868994902EB0040435843F00103435010
S315202264B0DAF8C006C10720D4786900210BF124021C
S315202264C052F8213040F82130491C0829F8D9DAF827
S315202264D0000640F48050CAF800065046FFF7A5FE73
S315202264E060B9DAF8C0160120CA0703D5DAF8C01631
S315202264F04A0002D4DAF8C01600E000205FEA000A39
S315202265005DD17968042E88BF042056D84869C0F305
S3152022651003200B281CBF0D280F284DD1022E18BF71
S31520226520032E2DD1C86B02072AD40B680120DA0745
S3152022653022D44B6BDA071FD4CB6C1A0708D5734BA0
S315202265404B66CA6C42F00802CA64CA6C130713D47B
S31520226550C86B40F00400C863BFF34F8FBFF36F8F21
S31520226560486840F480504860C86B0207FCD5C86B47
S3152022657040F01000C8630020F8B9C86B02071BD56B
S315202265804868820446BFC86B00F00300002086427A
S3152022659010D0086882050FD4486B82050CD448682F
S315202265A040F40050486006F00306C86B800846EA8D
S315202265B08006CE63002000E001205FEA000A7DD11A
S315202265C0B8694246494600F0D7F93E68BA68434937
S315202265D006F110004FF0010E50F83200BB6A06EB8E
S315202265E0024202EB031300225A5000F00F00BB682E
S315202265F0BA6A06EB034C0CEB0213454A0EFA00F05C
S31520226600985008F1300900F05CF8424A0023835062
S3152022661000F057F84BF2080242504946F86904F036
S315202266209FFD786900215BF8212040F82120491C12
S315202266300829F8D9816868F317418160016968F3CE
S315202266400F010161B9694161816969F30F01816194
S31520226650F969C1613046FFF7E8FD5FEA000A02D0F8
S31520226660002020602AE0812129704120E87008F14B
S3152022667038065520687100216622E971300A2A716E
S3152022668085F806806870AE70A6F10802F96905F1D0
S31520226690080000F071F926603C683A6AB9682046FB
S315202266A0FFF76AFD20B9BA6AB9682046FFF764FD6A
S315202266B0002000E0401CB0EB960FFBD35046BDE8ED
S315202266C0F28FB868BB6A06EB004202EB03107047D2
S315202266D0E40B0100EC0B0100BC0F4540040A01002B
S315202266E0A086010020372420140001001C0001006E
S315202266F03C00010034000100000044400000C94053
S31520226700C81022202C00010054000100666173412A
S315202267100C0A0100080A010010B5914C204607F008
S3152022672044FE21468F4807F04AFE08B901212172EC
S3152022673010BD38B58A4C207A10B9FFF7EDFFD8B9AB
S31520226740207A012801D0012032BD874D4FF49E6147
S315202267502846FCF7D1F84FF4956205F110018148BD
S3152022676007F04EFE40B9814A81496A60002329609A
S31520226770AB60EB600222227232BD2DE9FF418846B0
S3152022678017460021022F04460391029105D102AA1F
S3152022679003A9022007F03BFF03E0102108220391E0
S315202267A002920298804524BF0399414536D36C4EE6
S315202267B0307A022818BF032808D000F0AAF805004C
S315202267C02FD1307A022818BF032829D124B13A465C
S315202267D04146204607F035FF022F1FD1624F6148DE
S315202267E007F2BC4344B13421019100932246434609
S315202267F0002107F095FE05E0342100914246002132
S3152022680007F052FE050005D0382107F59760FCF7E0
S3152022681073F806E00220C7F8B80402E0042500E057
S315202268200125284604B0BDE8F0817CB5054600F056
S3152022683052F8012480B1002000906946284607F0AC
S31520226840D2FE040008D100F02DF8FFF791FA0400B9
S3152022685002D1FFF71CFB0446204676BD7CB50022DA
S3152022686000920546694607F0BEFE040018D13E4E28
S3152022687000F018F8FFF74CFA040011D1304600F048
S3152022688062F830B94FF49E613046FCF735F8012480
S3152022689006E03348017A012902D0FFF73DFF04465C
S315202268A0204676BD00982B4632464FF49E6170478D
S315202268B070B505000C4618BF002C01D1042070BDEE
S315202268C000F009F808B9012070BD2E604FF49E60B1
S315202268D02060002070BD244E304634E010B5B1F53C
S315202268E09E6F044601D0042010BD00F02CF808B972
S315202268F0012010BD4FF49E6221461B4800F03CF831
S315202269001748017A012902D0BDE8104004E7002069
S3152022691010BD70B5124D287A0124032808BF002401
S315202269200FD001280DD1FFF7D6FF50B14FF4956233
S3152022693006F110010B4807F08DFD040004BF032049
S315202269402872204670BD0168094A914201D0002052
S3152022695070474068074988428041C00F704700002F
S31520226960903624200020C840A03124200001010096
S315202269704655504B010101004AB1000011F8013B56
S31520226980521E00F8013B1CBF11F8013BF8E7704765
S3152022699038B504460D460020FBF782FF7348744A19
S315202269A0446000211160056085F3088885F30988F3
S315202269B040688047BDE832400020FBF771BF1CB5F6
S315202269C000281EBF10F1010F6A49884201D10020FA
S315202269D016BD6A460221FFF76AFA002420B90098DA
S315202269E0017AC80748BF0124204616BD10B5624940
S315202269F04B680246002000E01433196961B1197AE6
S31520226A0001F011011129F7D119689142F4D25C685B
S31520226A10641C9442F0D3012010BD2DE9FE4F00F0D4
S31520226A20D5F8FBF758FA0020FAF702FFFAF724FEE8
S31520226A30514EDFF84891306801688847F0684168EE
S31520226A408847F068016901F170054C4609E0297CE6
S31520226A50014205D06069E2688169536820469847D9
S31520226A60183420680028F2D14FF47A70FAF747FEBC
S31520226A7082468B460024CDE90044FBF715FAA04630
S31520226A8098BBFFF79CFF80B3F068016991F88E00CE
S31520226A90C10703D400210020FFF77AFF688A4FF628
S31520226AA0FF71884208BF41F28830AAFB00230BFBE4
S31520226AB00033CDE90023FAF718FE04468846DDE99D
S31520226AC00001002908BF00280FD0FAF70EFEDDE9C3
S31520226AD00023001B61EB0801994206D301D890427C
S31520226AE003D300210020FFF753FF4F4600E018373B
S31520226AF038680028E3D0297C0142F8D0F9680A6850
S31520226B00384690470028F2D0002FD8D00BE0297C97
S31520226B10014218BF4F4504D0D9F80C108A6848463E
S31520226B20904709F11809D9F800000028EFD13846F4
S31520226B30F761016900291EBF096800298847F26981
S31520226B40506900281FBF01680029104688473069EE
S31520226B5001688847F469306941688847E068C168D6
S31520226B600029F8D020468847F5E700001030242057
S31520226B7008ED00E0692923201000242084122220F7
S31520226B80704700000A0018BF01220260704738B5FC
S31520226B9000F011F82168491C2160286807F077FD4A
S31520226BA020680028FCD1012032BD38B500F003F838
S31520226BB02168491E04E00446084D284607F062BD96
S31520226BC021602868BDE8324007F061BD704703483E
S31520226BD007F058BD0148006807F059BD88302420A7
S31520226BE02DE9F041FAF7A6FE8046534C112720467E
S31520226BF00021E7FB080100F01EF8504F401E3860A6
S31520226C00460042F210724E480021E2FB080100F0B3
S31520226C1012F83018401C002578602521E1FB084512
S31520226C2020462946444A00F007F83618761CBE60CC
S31520226C300020BDE8F0812246002307F02BBDF8B5BF
S31520226C4004460D4616460BB90020F2BD042B02D16E
S31520226C50A80A800201D00420F2BD3A4F387828B9FA
S31520226C602046FFF7BDFF80BB0120387064212046D5
S31520226C7000F06CF848BB4FF40067A7606FF47C41A4
S31520226C80C5F309053048A160054365602046316871
S31520226C902162642100F05AF8B8B92068010502D58C
S31520226CA044F6E960F2BD6421204600F04FF844F60E
S31520226CB0EA6548B9A7604FF4805060606421204677
S31520226CC000F044F800B900252846F2BDF8B505465D
S31520226CD00E4614466BB3042B02D1B00A800201D091
S31520226CE00420F2BD174F387828B92846FFF778FFB7
S31520226CF000BB012038706421284600F027F8C8B945
S31520226D004FF40060A86040F2FF31A960C6F309065D
S31520226D106E60012028636421284600F017F848B9BE
S31520226D202868010502D544F6E860F2BDD5F80001AF
S31520226D3020600020F2BD000000CA9A3B1830242091
S31520226D400065CD1DF8C424200000773E2DE9F047AA
S31520226D5082460F464FF47A70FAF7D1FCA0FB0789B8
S31520226D6001FB0799FAF7C1FC002604460D46DAF8FC
S31520226D70000041050CD5002FF9D0FAF7B6FC001BEE
S31520226D80A9414945F3D301D84045F0D344F6EB66D1
S31520226D903046BDE8F08700000A484FF0FF310160F7
S31520226DA041608160C160016141618161C1610648A2
S31520226DB0016041608160C160016141618161C1617F
S31520226DC07047000080E100E080E200E062F30F22BB
S31520226DD062F31F4200B500BF13009646944610392F
S31520226DE028BFA0E80C50FAD85FEA417C28BF0CC005
S31520226DF048BF40F8042BC90728BF20F8022B48BFDA
S31520226E0000F8012B00BD000070B505460E4602F0A3
S31520226E1031F804000AD1012306F18002002100F074
S31520226E20FCF9707C012804BF00213174204670BDF4
S31520226E3078B589B000258DF800500F2601250395B7
S31520226E4002968DF8102001930F2501EB0516044694
S31520226E50012306F18002012102F095F901220292F4
S31520226E60694620466FE3F0B589B004460D4616469C
S31520226E701F4600F01DF8C8B900218DF800100E22F9
S31520226E800121039102920E2005EB001101F18002CD
S31520226E908DF81060019701230121204602F073F913
S31520226EA0012002906946204602F0AAF909B0F0BDD7
S31520226EB02DE9F843804684B00C4616461F46042008
S31520226EC02CB304F5E675687818B14046FFF7B0FF73
S31520226ED0E8B92878022804F1B0090AD199E80E10D7
S31520226EE0684680E80E1004F1C00191E80D1089E869
S31520226EF00D103B4632462146404601F08DFF297829
S31520226F00022904D1694691E83C0089E83C0005B073
S31520226F10BDE8F083F8B50C4684B00421ECB194F890
S31520226F20CC11022904F190050AD195E8C050694670
S31520226F3081E8C05004F1A00696E8825085E8825066
S31520226F40214602F056FA014694F8CC01022804D1B1
S31520226F50684690E85C0085E85C00084605B0F0BDEE
S31520226F602DE9FE435FEA0108814615464AD0012DC6
S31520226F7048D808F5E4763078002843D008F140072F
S31520226F8048463C6802F020FAA409317804F001042C
S31520226F9065B939B12246484607F0BAFD41464846E8
S31520226FA001F0B6FDB07988B101210CE041B1B97961
S31520226FB02246484607F0ACFD4146484601F0A8FD48
S31520226FC0B07918B10021484602F0AAFA6A4602216F
S31520226FD0484607F0E3FB14B100984008009001AA26
S31520226FE00021484607F0DAFB01980099B0FBF1F11F
S31520226FF0491C0A204143890800E000BF0846411E59
S315202270000028FAD1BDE8F7832DE9F04305468946C3
S3152022701089B017461E46484601F06CFD804600225E
S31520227020494600F04DF900F040F8FFF741FF0400F1
S3152022703031D10121022003918DF8000009220292EA
S3152022704009F5C87299F8471000291CBF1078002824
S3152022705003D0507802901178039101978DF81080F1
S315202270600596106B039B0690029809EB001100F0FF
S31520227070D1F800F0C5F804000DD100F016F8FFF77C
S3152022708049FF040007D199F8CF0120B100F00DF86D
S31520227090FFF7E9FE0446284602F09FF901224946D7
S315202270A000F00EF9204601F023BC3B4642464946D3
S315202270B0284670472DE9F04F89B0894600260122BD
S315202270C00B2180468DF80060039202918DF8106084
S315202270D099F8470000281EBF09F5CA7108780028AA
S315202270E000F088F8029FDDF80CA00022494640468F
S315202270F0FFF736FF09F1500B002004245BF8045BCE
S31520227100BDB13346002249464046FFF7D1FE98B903
S3152022711009EB071000F180020196534601214046D1
S3152022712002F031F8012002906946404602F068F8C2
S3152022713010B9AE19641EE1D1040046461ED100279D
S3152022714009F1500A04255AF8048BB8F1000F12D0FF
S315202271503B46002249463046FFF7DCFE04000DD18D
S3152022716099F8CF0138B13B46002249463046FFF7EF
S315202271707AFE040002D16D1E4744E4D1304602F045
S315202271802CF9012249463046FFF7EAFE204609B06D
S31520227190BDE8F08F2DE9F84105460E4689B000F06C
S315202271A025F800F08AF800F07AF804001DD1002193
S315202271B08DF800100122052100F076F81EBF06F573
S315202271C0C6710878002800F015F800F01FF800F0A4
S315202271D017F8040009D100F05DF8040005D196F8CD
S315202271E0CF0110B100F051F8044644E0174630464C
S315202271F001F080BC03D04A78029209780391704725
S31520227200012002906946284601F0FABF0298039B84
S3152022721006EB001101F180020121284601F0B3BFBD
S315202272202DE9F84105460E4689B0FFF7DFFF00F02B
S3152022723044F800F034F804001DD100218DF8001006
S315202272400122082100F030F81EBF06F5CE710878FB
S315202272500028FFF7CFFFFFF7D9FFFFF7D1FF040062
S3152022726009D100F017F8040005D196F8CF0110B104
S3152022727000F00BF80446284602F0AFF8012200F06F
S315202272801EF820460AB0BDE8F0813B4642463146EA
S315202272902846E8E53B464246314628463AE63B46DC
S315202272A042463146284603E60197039202918DF8FB
S315202272B0108096F8470000287047804600223146E3
S315202272C028464DE6F0B5054689B00E4614461F4699
S315202272D0042074B124216846FBF70EFB01200322E9
S315202272E0029003908DF80020079408970196FFF7C5
S315202272F089FF09B0F0BD2DE9F0430C460546E0682A
S315202273004FF001090028164647BFC01E09FA00FC85
S31520227310401C4FEAD00C05F15002042110680028A7
S3152022732004D1121D491EF9D1042070E0FCD0C2F8E6
S3152022733000C005F5E07C616840294FF4807008D3AF
S31520227340216BC1F3031109FA01F1B1F5004F18BFE0
S315202273500846CCF800006FF07F4E4FF0000800253B
S315202273600021002704EB470090F8240058B109FA9F
S3152022737000F070453CBF8646394680453EBFB0F573
S31520227380801F80463D467F1C042FEBD3CCF804E099
S31520227390CCF81080C6450EBF8CF8099000208CF8B8
S315202273A009001068DFF8BC23904225D394F85800B0
S315202273B040B104F16002505C306004F160014C5D02
S315202273C01C6023E004F1250010F81110202904D096
S315202273D0D82904BFDC21316001E02120306004F16C
S315202273E0250010F81510202904D0D82904BFDC2125
S315202273F019600BE0212008E004F1250004F1250282
S3152022740010F81110316012F8150018600020BDE81E
S31520227410F0832DE9F84F0D0096B0144608BF4FF0A1
S31520227420040868D0834608236A460021FFF74AFFCC
S315202274305FEA00085FD10098CB49884218BF44F6FC
S315202274408B6858D19DF8040028609DF806707F1C11
S315202274500A2F88BF0A2708210CB14FF40061FB00AE
S3152022746002AA5846FFF72EFF5FEA000843D164217D
S315202274702846FBF741FA4FF0000A4FF6847904E0BA
S31520227480012085F858000AF1010ABA4533D202A80A
S3152022749000EBCA000178C27901EB0222B2F57F4FB6
S315202274A018BF4A45EFD100210223C6185B1E367922
S315202274B046EA0121F9D5C678B60004B10902B2F509
S315202274C07F4F0DD1502E88BF5026334605F1080214
S315202274D05846FFF7F7FE5FEA00080CD16E60D2E726
S315202274E04A45D0D1334605F15C025846FFF7EAFEDB
S315202274F05FEA0008C4D0404617B0BDE8F08F60B5D9
S3152022750089B003258DF800504900019100260125D6
S3152022751007920893029603958DF81060694601F02A
S315202275206FFE09B060BD78B5490089B00225019168
S3152022753001260024059206938DF800500296039682
S315202275408DF81040694601F05BFE0AB070BD00003E
S315202275502DE9F84705460C4687B00320E07308211B
S3152022756004F14500582301700326236426731AB199
S31520227570216C41F0010121640121817004F1500620
S315202275800F20B08504F5C277F1854FF40070F86399
S3152022759004F2C9184FF480203864C4F8D00188F840
S315202275A0001028462146FFF72FFC00285AD100F04A
S315202275B003F90DF10C0A6D496D480391CAF80400AE
S315202275C0012303AA0121284601F0DDFD00F0F4F86B
S315202275D06848DFF8A491CAF80400CDF80C9001235C
S315202275E003AA284601F0CFFD72A10A6802A8022327
S315202275F0026040F2555102AA2846FFF794FF00283E
S3152022760030D108236A4610212846FFF778FF002822
S3152022761028D100980199594A904289B208BFB1F5DA
S31520227620B24F019140F09A8008236A4627212846A4
S31520227630FFF765FF002815D10098C0F30720009098
S3152022764017380A2880F08A800098012181403160EB
S315202276504FF470420292022302AA00212846FFF703
S3152022766062FF002877D14649DFF818C1464A474BA0
S31520227670DFF81CE171634AF20475B563C6F84CC083
S31520227680B5654FF08721434DDFF80CC1C6F83090FF
S3152022769031647264B364C6F85090C6F854E03166F9
S315202276A07266B366F26631677567C6F878C0F56783
S315202276B004F1D006DFF8E4E0DFF8E490C6F84CE0E7
S315202276C0C6F8549048F2307ADFF8D8E0C6F850E06F
S315202276D0C6F830E004F5A874DFF8CC90DFF8CCE0C9
S315202276E031647264B36431607260B360C6F80C9000
S315202276F031617261B361F26131627562C6F828C066
S31520227700F562C6F834E0C6F838A031667266B366EA
S31520227710C6F86C9031677267B367F2672160216180
S3152022772062616560C4F808C0E560A361022220492F
S31520227730E1613A713A703A73032109227A73797197
S3152022774005227A72012304210B227B703972397425
S315202277507A7488F8033008B0BDE8F08744F68D6045
S31520227760F9E7000001000001534644502087188B78
S31520227770108F02A3108F04A7A087188B00510052C6
S31520227780108F0CB3008770870087AA87008705870A
S31520227790108F0BB700875587008702870087A0871F
S315202277A0108F80A30087188B00878087108F0087F1
S315202277B0008710870098000003A8002100220023BA
S315202277C08C4680E80E1070472DE9F04F0E46042491
S315202277D0B5B0002E1CBF0092002A824600F0988760
S315202277E04FF400713046FBF787F806F13007012265
S315202277F04FF08075BA753D620322DFF8340CDFF82C
S31520227800341C30607273B273716006F5E072012106
S31520227810117200F0DAFF33DD00984168C1F303408C
S31520227820012803D1386940F4807038610098416874
S31520227830C1F3036020B1C1F30361304607F018FA81
S3152022784000994868000F1BD00968C1F3035000280D
S3152022785018BF01280FD100984168090F012905D0A8
S31520227860022902BF00203862BD6209E0386940F051
S315202278700400386104E00098416821F0704141609B
S3152022788006F5807800980068010D01F00F0109297C
S3152022789006F180094FF0042542D8DFE811F00A00CC
S315202278A00A004703490350035003C104C104CD05EE
S315202278B0CD05C0F30340002832D17C755046DFF82F
S315202278C0A01CDFF8A02CC9F80010C9F804203146E4
S315202278D0FFF79AFA040023D100980168C1F3031016
S315202278E001280DD100F04EFF002340F2FF60C8F898
S315202278F07800002231465046FFF79AFA04000FD12B
S315202279000099DFF8640C0A68C2F3034100EB0112E6
S3152022791000F07FFF00221CA95046FFF77AFD0400C3
S3152022792040F0E28600200490042400980168C1F3E6
S315202279300350012806D11E98C00C10F00100049095
S3152022794000F0E0820021317302AB00F032FF03AA5D
S315202279501821069130461CA900250595FFF7CBFC58
S31520227960DFF8FC0C1290AB46396A814224BF2021D3
S31520227970069100980168C1F30330002840F0C282A4
S3152022798007A800F03FFF1C9904291FD81D984028DC
S315202279901CD200980168C1F30324002C2DD0019219
S315202279A014928DF85C20032101AA1A928DF84C108C
S315202279B0621E0121032A1B911591169125D8DFE8F3
S315202279C002F01D210221DFF89C1C19E001203074CF
S315202279D02C98000D00F00700401E05280CD8DFE861
S315202279E000F00905030909070324D8E70124D6E76D
S315202279F00424D4E70224D2E7327456E0DFF8181D95
S31520227A00079102E0DFF8142D0792012307AA01210C
S31520227A10504601F0B8FB13A900F0E7FE002845D115
S31520227A2000F0D3FE1FBF00984168C1F3072000282B
S31520227A3018BF01903574641E0198032C00F00200B1
S31520227A4033D8DFE804F01D14020C019801062CD449
S31520227A50DFF8CC0C00F084FE41F080011BE020BB35
S31520227A60DFF8C00C00F07CFE41F0020113E0E0B901
S31520227A70DFF8B40C00F074FE090241F400710AE02A
S31520227A800198410611D4DFF8A40C00F069FE01F01A
S31520227A90C30141F040010191012030743075042048
S31520227AA0707501200199B16170740020040040F0A4
S31520227AB029821E98C0F3405050B14FF00070059095
S31520227AC09DF880502098C0F3421B05F01F0509E03F
S31520227AD01E98C0F3805028B12098410D01F0070B43
S31520227AE0C0F30445069932A82029079017D19DF87C
S31520227AF0C80088B10798426842F20421C2F30020C6
S31520227B0010B1DFF82C0C04E0C2F3C01020B1DFF84C
S31520227B10240CC8F8100008E0DFF81C0C01E0DFF87E
S31520227B201C0CC8F8100042F20401C8F814100120D7
S31520227B30307340F20641C9F83010DFF8040CC9F838
S31520227B401000069909040191039900F044FEC9F810
S31520227B505010029900F03FFEC8F800104FF48C61B5
S31520227B60C8F83010DFF8DC0B119000980168C1F3B9
S31520227B70036060B100984068010608D000F0FF0536
S31520227B80049800284FF0000B48D06D0046E0049858
S31520227B90002843D00698202807D1DFF8AC1BDFF82F
S31520227BA0C409C9F80010C9F8040000F0FEFD04003B
S31520227BB030D100218DF830100A91032201210B9118
S31520227BC08DF820204FF4007013A9102209900F91CE
S31520227BD0109201234A4600F011FE00F009FEB0B9A8
S31520227BE0139810F1010F02BF13A8416811F1010F5A
S31520227BF007D1816811F1010F04BFC06810F1010F6E
S31520227C001ED000F0B1FD00284DD000E01B9D44F689
S31520227C108E64002C40F076814FF0000B06981E9938
S31520227C201828049840F08580002874D0ED213869E0
S31520227C3040F0400038610198014341F00A41A1E019
S31520227C400023002231465046FFF732F90028DED1A2
S31520227C5009210A9102228DF8202010210A980FF656
S31520227C6014340B9B0E9109EB00120D9400F0C6FDE5
S31520227C7000F0BEFD0028CAD10023002231465046FC
S31520227C8001F0B7FB0028C2D100210A9100F085FD20
S31520227C9000F0AAFD0028BAD1102213A9204601F00D
S31520227CA067FC0028B3D13869B97D40F0400038619D
S31520227CB00122504606F02CFF1B954FF0020B32254F
S31520227CC001E00BF1010B6D1EA0D017A800F09AFD42
S31520227CD0396A129A914227BFDFF8701A1791DFF874
S31520227CE0702A179211990BF0FF000843189001234E
S31520227CF017AA0021504601F046FA00F04EFD0A94BA
S31520227D0000F072FD04007FF481AF00F02DFD0028E3
S31520227D10D7D15D467DE7C1F3405010B12099090A9B
S31520227D2029E0C1F3805010B12099090E23E00321C6
S31520227D301FE008B1EE217AE79DF8C80070B10798B6
S31520227D404168C1F3401018B1EC214FF0007213E0C4
S31520227D50C1F3001060B16C2100220DE0C1F3405026
S31520227D6008B1EC2107E0C1F3805008B16C2102E072
S31520227D7013210025AB46059A0198C9B20143114326
S31520227D8041F0006141F48061C9F800100021009879
S31520227D900268C2F30310002808D001286FD11D984B
S31520227DA040287BD32C98C0F34020002876D02C98CC
S31520227DB0000C10F0050F18BFA5213FD180073DD515
S31520227DC012A800220023002480E81E008DF82C20F1
S31520227DD00191089101AA03210E928DF81C100121EE
S31520227DE0DFF8702912920F9109910A91012312AA82
S31520227DF0504601F0C8F907A900F0F7FC04001AD171
S31520227E00019800F0F70001900121317406F5E07205
S31520227E100198000400F47F0040F0042040F0810005
S31520227E20C8F8600031750E21717504210198B06160
S31520227E3071740120D073002C64D101212C98800AE0
S31520227E4010F00A0F09D000F09DFC0698202811D1A7
S31520227E5040F2FF62C8F878200CE010F0110F51D0C2
S31520227E604FF00620C8F87000C8F87400DFF8C40B5B
S31520227E70C8F8780006F5E0700122427302E0052850
S31520227E8008BF3173BBF1000F09D0BBF1010F06BF2A
S31520227E904FF4C05009094FF4E05015E05D4475B106
S31520227EA0049805F0FF0520B111990D43C9F8045015
S31520227EB01BE0DFF8840B0543C9F804501DE042F28B
S31520227EC00441C9F804100EE02D04014305F47F0570
S31520227ED00D4345F0485545F4007542F20460C9F831
S31520227EE00450C9F80800049838B106F5E07001213B
S31520227EF08173396941F0400139610024386940F0A3
S31520227F0010003861002C10D1FFF771F900280CD00F
S31520227F10386AB86206F5E070016842684900016055
S31520227F2052000169426049000161DDE3012200E03D
S31520227F30002231465046FFF70BFB0446D4E3C0F31A
S31520227F400350052800980168C1F3033001900CBF25
S31520227F504FF0010B4FF0000B00F031FC0198002866
S31520227F6018BF032805D1029820B1032801D10198F0
S31520227F7088B9B9E303A806F0BDFD00F0EDFB1CB9D4
S31520227F8000F007FC0400F4D100203073102139615F
S31520227F9003200E900DE003203073102139610098C2
S31520227FA00168C1F30350042804BF502038610621FA
S31520227FB00E91019802990843019808BF4FF0010BB0
S31520227FC0032807BF082179750120787500F0EDFB7B
S31520227FD00400CED1029820B1BBF1000F14BF10208D
S31520227FE02020DFF8581A0A1800F013FC00210791E6
S31520227FF08DF8281001220892099203218DF8181053
S3152022800004AA0D9206A900F0F0FB040004BF9DF8F5
S315202280101000C228ADD1029804AA00280CBF90785D
S3152022802050794FF48031A0F1300201FA02F206F59E
S31520228030E07A3A624FF48050CAF804004FF48072F4
S31520228040CAF80020CAF81010032030731021396193
S315202280508BF0010B0298002804BF019803284AD1ED
S315202280600220707401210620317471827075317557
S31520228070002207218DF80B10BBF1000F8DF8082066
S31520228080DFF8BC09DFF8BC1917D082228DF8092027
S315202280900223B361C9F86800C9F86010C9F8645090
S315202280A000980168C1F30310032819BF00218AF81A
S315202280B00A1001208AF80A001AE081228DF8092066
S315202280C00223B361C9F86010C9F868000123DFF8DA
S315202280D07829C9F864203377072286F8212086F862
S315202280E020303B60C9F87010C9F87450C9F878005E
S315202280F0029806F0FBFC40F20640C9F83000DFF871
S315202281004016C9F810100198F0B901213173DFF811
S315202281103C09DFF83C29DFF82016C9F80000C9F807
S315202281200420C8F8101042F20400C8F814004FF4B4
S315202281308C62DFF82019DFF82009C9F85010C8F818
S315202281400000C8F83020CFE2BBF1000F0BD1012569
S3152022815002204FF0405309214FF000524FF4A02C19
S31520228160DFF8F8E80AE0212522204FF030432921A2
S315202281704FF020424FF4202CDFF8E4E8C9F800E043
S3152022818080024CEA000C43EA0C0343F0032343F01B
S315202281902003C9F804300243AB0643EA8523DFF8DD
S315202281A0C4581D43C9F840508902DFF8BC581D43E4
S315202281B0C9F8205041F4417143F00325C9F82450CF
S315202281C0C9F82850C9F80810C9F82C1040F448706C
S315202281D0DFF89818DFF898580A43C8F814201D4368
S315202281E0DFF89028DFF89018C8F810501A43C9F8FB
S315202281F05020C9F85400C8F804001943DFF87C0837
S31520228200C8F800100343BBF1000FC8F8303003D062
S31520228210386940F04000386102208AF80C0063E277
S31520228220C0F303500728009801680CBF4FF0010BBA
S315202282304FF0000BC1F3034070B901A806F05AFC97
S3152022824000F08AFA24B901AA00F0A4FA0400E6D1A1
S3152022825000203073102102E00320307350210820A1
S315202282603961787500F0A1FA0400D8D100980FF66A
S3152022827064020168C1F3034008B9012303E00328FD
S31520228280CDD10123103200F0B9FA082078750022C8
S3152022829004A95046FFF7BDF80400C0D102AB03AAB9
S315202282A004A93046FFF727F8BBF1000F03D150204F
S315202282B038610321317340F20640C9F8300042F278
S315202282C0010ADFF87C14C9F8101000980168C1F35E
S315202282D0034003281CBFC1F3033003284BD1DFF808
S315202282E0A007DFF8A017DFF8A027C9F82000C9F8D1
S315202282F0001040F20670C9F84000C9F804204FF455
S31520228300EC62DFF88817DFF88807C9F85010C8F81A
S3152022831000004AF20430DFF87C17C8F81400C8F8A7
S315202283203020C8F8101000980168C1F30340E8B93C
S315202283308DF80400062182228DF807108DF805205B
S31520228340019806F0D3FB012030740221E720B06188
S31520228350717401203075708206217175C9F86450B6
S31520228360C9F868A0DFF83007C9F8600006F5E07181
S3152022837002200873B8E10028FCD1386A039BDFF873
S315202283801C17B0F1807F27BF20208E221820C222E0
S3152022839003F0FF0343EA00430B43C9F8503042EA75
S315202283A00042029B03F0FF0343EA00431943C8F825
S315202283B00010DFF8EC160A43C8F81020BBF1000F94
S315202283C04FF40E52C8F814200CD1DFF8D806DFF865
S315202283D0D816C9F80000C9F8041006F5E070012263
S315202283E082731FE03B6ADFF8C456C9F86450CB2259
S315202283F0B3F1807FDFF8A036C9F8603028BFCC22BF
S31520228400C9F868A00C23B3610125062342EA00405D
S315202284103574737535750843C9F80000DFF8900660
S31520228420C9F804004FF48C61C8F830105CE100BF13
S315202284304643464200040156C0F3035009280CBF86
S315202284400124002400208DF80400042179751022AD
S3152022845000F0B5F944F68D65009801683A61C1F3BA
S31520228460033B029870B903A806F044FB054600F0A8
S3152022847074F91DB900F08DF9050056D101207875C1
S31520228480002102E0022802D10321317309E00328C8
S315202284904BD1032131730820787514B901208DF828
S315202284A00400BBF1000F1CBFBBF1020FBBF1030F6F
S315202284B03BD102985BEA000008BF0124BBF1020FE0
S315202284C008BF042003D0BBF1030F01D10820787501
S315202284D03869002C14BF20F0400040F0400038615B
S315202284E000F063F9050020D1002C029807D002283B
S315202284F003D003280BD120200AE0102008E00228EE
S3152022850003D0032803D1402002E0302000E00020BF
S315202285101549084400F1700200F07BF99DF80420E9
S3152022852007A95046FEF775FF050040F0DC8005AB13
S3152022853006AA07A93046FEF7DEFE0320307340F254
S3152022854006417F48C9F83010C9F8100074B929228B
S31520228550049222214FF430404FF420420C230DE086
S3152022856003041808042401008C0B222009220492D9
S3152022857002214FF440504FF4005206234FEA0B6E4D
S315202285800EF0407ECDF80CE04FEA0B2EDDF80CA043
S315202285900EF4407E4AEA0E0ACDF808A04AEA816104
S315202285A001914EEA0303DDF804A0DFF8081541EA1B
S315202285B00A01C9F8001018430399DDF810C00843B0
S315202285C040EA8C6040F48020C9F8040042EA0E0278
S315202285D00198DFF8E41440F0201040F48060C9F8B6
S315202285E0500042F0800201980843C8F80000019BFF
S315202285F0DFF8C804C8F8142003434EF48C60C8F868
S315202286003000BBF1020F1CBFBBF1030F0020C8F8BC
S3152022861010301ED1029ADFF8A80442EA8C61084360
S31520228620C9F8200040F2064141EA0E00C9F840006E
S3152022863006F5E072022010730021BBF1020FB16110
S3152022864008BF4FF4802004D0BBF1030F02D14FF490
S315202286500020B06144B9B06940F40000B0610AE05C
S31520228660010000013F040124386940F0800038616E
S31520228670012186F8791042F20301DFF84804C9F86D
S315202286806000C9F8641001203074BBF1000F19BFB5
S3152022869002207074002171740121317571820620A5
S315202286A0707500218DF804104CB1BBF1020F08BF62
S315202286B041200DD0BBF1030F0DD1812008E0BBF163
S315202286C0020F08BF422003D0BBF1030F03D1822021
S315202286D08DF8050001E08DF8051008208DF8070099
S315202286E0019806F003FA2C4684B9304606F00DFA94
S315202286F000F05FF800980168C1F3036030B100985A
S315202287004168090F032904BF386AB86201213975E5
S31520228710204635B0BDE8F08F050401243504012416
S315202287203E040220310401200104022001040120FA
S315202287303E04200A340420081204200802041808C1
S315202287400504042400B204A613042008EE04208A79
S31520228750ED04188A850401240446002006F0C6B9B1
S31520228760C9F8400001997047102213A901A000F0F0
S31520228770FFBE000000112233445566778899AABB92
S31520228780CCDDEEFF6FF0F920C8F87000C8F874002F
S31520228790704703AA31465046ADE003228DF82020A9
S315202287A013A90F9110221092704731465046FEF798
S315202287B02BBB0098017801F00F01B97570470098FC
S315202287C00168C1F303400290704700980168C1F303
S315202287D0036000287047019801F0FF01014341F010
S315202287E0006141F48061704708A9504600F008BD17
S315202287F001200A9008A9504600F002BD01215046C8
S3152022880000F0C1BC002100220023002480E81E00A3
S31520228810704701230121504600F0B5BC2DE9F041D5
S3152022882080460C46042074B304F5E2759F18296805
S31520228830494201EA02067F420F4069797F4209B9FD
S31520228840E96889B9BE421ED200F01FF8002804BF6B
S3152022885029688E19F6D016E0324621464046FEF782
S31520228860DFFC80B9E9688E19BE420CD2E96836EA65
S31520228870010002D1B81B8842EED200F006F8002869
S3152022888008BF2968EFD0BDE8F0813246214640460E
S31520228890FEF780BC2DE9F0438146042017460029A5
S315202288A018BF002F89B01D4622D0109C04B308463B
S315202288B000F020F903228DF80020012300220393C1
S315202288C002928DF810004FF6FF78444501958CBF11
S315202288D046462646079708966946484600F090FC63
S315202288E030B9A41B7519B608002C07EB8607ECD1E4
S315202288F009B0BDE8F0832DE9F8430E46144604213B
S31520228900002C92B0804604D060782178884208BF15
S31520228910002100F08B8006F14507082038700325B8
S315202289206078422818BF41284FF0010902D104203D
S31520228930022538706078822814BF42284FF02109F8
S3152022894000210A918DF834108DF8241001220B92E1
S31520228950202101A8F9F7D0FFE0782902062801AACA
S315202289600BD02ED3082801D012D32AE040F2064378
S315202289700B43019340F2FF4005E040F266430B434E
S31520228980019340F299400143116102210C911AE090
S3152022899041EA892141EA056141EA896141F41900C6
S315202289A041F4CC0140F0660041F09901B9F1210F42
S315202289B00190116103D1306C40F0400030640220D6
S315202289C000E001200C90012078704FF0807106F192
S315202289D050003D4A3D4B0160326003217173B173D1
S315202289E07360012186F8C8110A2242623146404626
S315202289F0FEF70AFA010019D10C9B01AA0121404651
S31520228A0000F0C1FB09A9404600F0FAFB0146304896
S31520228A1002684FF47A73B2FBF3F3009303E000BFAC
S31520228A200098401E009000980028F8D1084613B0DE
S31520228A30BDE8F083001E103200320426CC0B222001
S31520228A400004012072040004000402040C042008FD
S31520228A500830042421042008DC042008EC0713070C
S31520228A60EE8711870603F9030503FA03200304037D
S31520228A701203ED032103DE03DC03230360039F039A
S31520228A80050704A7FD07208B06B304A72107208B01
S31520228A90DC07208B1207208B8104000400040008A7
S31520228AA00004000BFD04208B0CB304A70004010450
S31520228AB00C3304270B042000D804200002042000B3
S31520228AC0050404007104000446434642000401566C
S31520228AD0280C24205A0418080830FF2400000000FD
S31520228AE0000000005A07208BFFA70000000000008C
S31520228AF00000000090F8400010F0040018BF01206A
S31520228B00704790F8400010F0010018BF01207047EE
S31520228B102DE9FF4781460D4600F0F1F80426040090
S31520228B200FF6242001A9D0E90023C1E9002318BF8A
S31520228B30002D00F08680287B042880F2828003285C
S31520228B4001AE13D195F8400081070FD46A4602213F
S31520228B50484605F023FE0098DFF88C1688420AD371
S31520228B6095F84000010606D4792001E04FF4807062
S31520228B700190706044E000274FF47A7805EB470095
S31520228B807830417879BB00786421484323D1286CF8
S31520228B90800900F0010A524603A9484605F0AFFF94
S31520228BA0BAF1000F0BD10399DFF84006B0FBF1F1A1
S31520228BB0490808FB01F14B20B1FBF0F112E00398A2
S31520228BC0DFF82816B1FBF0F0800808FB00F04B21D5
S31520228BD0B0FBF1F106E04B22B0FBF2F14B234B43E3
S31520228BE0834200D2491C402928BF3F21490201F451
S31520228BF0FC4141F4807146F827107F1C022FBDD3F9
S31520228C002068400800F0010090F0010003D021687E
S31520228C1041F00201216004F1C002296D002907BF1B
S31520228C20696D0029019B1360A96D002907BFE96D93
S31520228C3000297168516018B1206820F00200206056
S31520228C400026304604B0BDE8F08710B5044604203D
S31520228C50002C18BF002A0FD073B1DFF89005B0FB85
S31520228C60F2F04343B1FBF3F000E0401C00FB03F299
S31520228C708A42FAD32060002010BDF8B584B04FF680
S31520228C80FF7607460D460196009600F038F8040036
S31520228C9014BF002D042027D003AA0221384605F02E
S31520228CA07DFD02AA0121384605F078FDDFF84055E0
S31520228CB0039A4FF48063294601A8FFF7C6FF029A3A
S31520228CC04FF4806329466846FFF7BFFF0198B042DA
S31520228CD088BF01960098B04288BF009601980099D5
S31520228CE0C1EA00406060002005B0F0BDD0F8E01057
S31520228CF0CA07FBD5D0F8E0108A07FBD57047014674
S31520228D00002003293CBF0FF6480050F82100704767
S31520228D102DE9FE4F0E46002100918146FFF7EFFFF7
S31520228D2004245FEA000B18BF002E4BD006F1500810
S31520228D30002506F5C87458F8040B0BEB850A800A21
S31520228D40CAF86000707BB77B400107F01F0700F44A
S31520228D5078700743F07BC00200F4F040074396F870
S31520228D6040000107706F48BF47F4806768B101AAA7
S31520228D700221484605F012FD019A716F01236846A9
S31520228D80FFF763FF009847EA0047CAF8707096F803
S31520228D90470000281EBF21784A0112F0E00F09D091
S31520228DA06078491E0002490300F4706001F4604194
S31520228DB0084301E04FF410606D1C042DCAF8800090
S31520228DC0B9D300242046BDE8FE8F042210B5002800
S31520228DD018BF00291ED040310A79012A0AD1C26839
S31520228DE009785208520042F040024B0748BF42F00F
S31520228DF00102C260C168DFF8FC4341F02001C16054
S31520228E00002100EB8102491C136A234007291362A1
S31520228E10F7D30022104610BD78B5044689B0042027
S31520228E2031B300258DF8005001260325039602959D
S31520228E308DF81020019391F8470000281EBF01F5D6
S31520228E40C4721078002803D05378029312780392A2
S31520228E502046029D039B01EB051606F18002012185
S31520228E6000F091F9012202926946204600F0C8F9C3
S31520228E700AB070BD2DE9F84F8EB080460D46FFF719
S31520228E803EFF0424060018BF002D00F07381287CA3
S31520228E90002804BF287F00281DBF296C090901F05C
S31520228EA0010100218DF800102868DFF84C13884232
S31520228EB040F06081404605F099FE2946404605F05D
S31520228EC0C6FC9DF8000010B10022012106E02A6C82
S31520228ED005F145009209417802F00102404605F04B
S31520228EE017FE404605F075FE306820F002003060FD
S31520228EF0316841F0010131603068C107FCD44DF65A
S31520228F000F70326842F002023260316895F84520AD
S31520228F100140082A287B08BF41F40051000100F0B5
S31520228F203000014341F07F4141F47F0131604046C8
S31520228F302946FFF7A2FEB06820F40040B06095F8DB
S31520228F404000C10703D5B06840F40020B06029460E
S31520228F503046FFF73AFF29464046FFF7D9FE2946F3
S31520228F604046FFF7D5FD306820F002003060B1463A
S31520228F70316841F001013160D9F80000C107FBD4E4
S31520228F8005F180020392287C00285FD005F1500B40
S31520228F902F460420464600255BF804ABBAF1000F83
S31520228FA04DD03046FFF7ABFE00284FF0040842D0C2
S31520228FB0D0F80002C0F3012028B1787C022808BF0D
S31520228FC04FF0000837D001218DF810100595002288
S31520228FD0787D06902B46397D07918DF8202007F142
S31520228FE018010991CDF8288039463046FFF714FF1B
S31520228FF003980699079B00EB01120121304600F0C7
S31520229000C2F80120069004A9304600F0F9F85FEA5A
S31520229010000810D1788A60B9797C022918BF0329E1
S3152022902007D02B4600223946304600F0E2F9804608
S3152022903001E000F0A3F85FEA080002D15544641E3D
S31520229040AAD10400B0463D4640F09480287F0028CD
S315202290506ED0042405F1500100270491019404982E
S31520229060001D049050F8041D029100295BD0404631
S31520229070FFF745FE0424002852D001228DF8142021
S315202290802E46002206978DF824200B948246002510
S3152022909006EB850101F12002507800283CD0DAF82F
S315202290A0000206EB050BC0F3012018B19BF81D0028
S315202290B0022831D0507807903031127808920A91BE
S315202290C03B46002231464046FFF7A6FE040026D123
S315202290D003980799089B00EB01120121404600F0D4
S315202290E052F80120079005A9404600F089F804008D
S315202290F015D1708A28B99BF81D10022918BF032979
S3152022910002D100F03BF807E03B460022314640469A
S3152022911000F06FF9040002D16D1C022DB8D9354614
S3152022912044BB0298C7190199491E019197D10CBBBC
S315202291309DF80000E8B1D9F8001041F00201C9F8E3
S31520229140001005F145002A6C4178920902F00102AD
S31520229150404605F0DDFC29464046FFF78EFD29468E
S315202291604046FFF7D5FCD9F8000020F00200C9F8C6
S315202291700000002420460FB0BDE8F08F642148432A
S31520229180002105F097BC2DE9F8430E4691461D464F
S31520229190FFF7B5FD040018BFB9F1000F4FF0040800
S315202291A021D0002700217019794100291BD81128A6
S315202291B019D22046FFF79AFD1048A0610221E161CB
S315202291C0B10004EB8102AE1902F5007204E059F8CF
S315202291D0043B42F8043B491CB1EB860FF7D3A0612E
S315202291E0B8460120E061ECE000E1F50500CA9A3B91
S315202291F00065CD1D00FCF0F846434642F05AF05A4F
S315202292002DE9F84307460D46FFF779FD040018BFDE
S31520229210002D4FF0040800F0D4802878042880F20C
S31520229220D08095F810902046FFF760FD384600F052
S3152022923066F9606940F01E00606104F1A007686843
S31520229240386000262878022808BFAE6902D0032873
S3152022925001D12E6AB6B2A868000400F47020064313
S31520229260E868401E000600F0E060064346EAC9761A
S315202292707E602878032834D1EA69286A12F003010D
S3152022928038D11C23BB61B96941F00101B961B969A1
S31520229290CB07FCD4396941F00101396108B3402852
S315202292A004F5807314D3616989064FF0100C04D417
S315202292B014E053F8041B42F8041B5FEA0C01ACF1BC
S315202292C0010CF6D1616941F020014038616105E047
S315202292D0396DC90001F4FF61814227D261690B07EA
S315202292E0DCD52878022818BF012844D16A69A969C1
S315202292F012F0030065D11C23FB61F86940F00100BE
S31520229300F861F869C307FCD40026002933DD606999
S31520229310400604F5C0732BD540294FF0100C42D3BA
S3152022932016E053F8041B42F8041B001F0428F8D227
S3152022933040B119680091694611F8013B02F8013BB8
S31520229340401EF9D16069CCE752F8040B43F8040B8E
S315202293505FEA0C00ACF1010CF6D1403926B9386906
S3152022936040F0010038610126606940F040006061CA
S3152022937060690307C9D5287818B9386940F00100F1
S3152022938038612046FFF7B2FC6069010717D5786C51
S31520229390C0F303600E280CBF41F65A3841F65938DD
S315202293A00FE043F8040B5FEA0C00ACF1010CD5D098
S315202293B00029D2BF0020091F52F8040BF1E74FF0F3
S315202293C000084046BDE8F28380B5FFF798FC18B125
S315202293D0D0F8E0108A07FBD501BD80B5FFF78FFCB8
S315202293E030B1016841F0010101600268D107FCD445
S315202293F001BD2DE9F84F00298EB04FF0040979D00E
S3152022940001F170049246E689A58906930122032357
S315202294108DF8143002FA05F8BAF1000F0892079255
S3152022942002AD14BF082304230C950D938DF824A096
S3152022943091F84720002A1EBF01F5C2731A78002A06
S3152022944003D05A7807921B78089304900798089B92
S3152022945001EB00150146049805F18002FFF793FEE1
S3152022946024685FEA040B18BF4FF0010B00250498ED
S3152022947005A9FFF7C5FE5FEA00093BD1BAF1000F25
S315202294801AD001A96A4602AB042013F8017B01F8FF
S31520229490017B401E13F8017B02F8017BF5D1002EB9
S315202294A00199009803D0014038EA010102E00143E4
S315202294B011EA08010F4608E0002E029802D038EA67
S315202294C0000001E018EA0000074618BF0127F8B27B
S315202294D010EA0B0F0BD0002D08BF002C0CD04FF416
S315202294E07A70002105F0E6FA641E65F10005FFB2C6
S315202294F0002FBCD148463EE641F65A39FAE780B5D6
S31520229500FFF7FDFB58B1002100EB8102491CD2F85E
S31520229510803043F000430429C2F88030F4D301BDC1
S3152022952038B50D46FFF7EBFB04000BD0FFF7DEFB29
S3152022953025B1206840F40060206031BD216821F4E5
S315202295400061216031BD0000000100000001000001
S315202295500000000000C00C4000000D404018491CAD
S315202295601CBFB1F1010100F8012DF9D1704700008D
S3152022957003000020521E22BF13F8010B11F801CB43
S31520229580B0EB0C00F6D0521C08BF104670470000E4
S3152022959010B5624A1468240A04F001040123641CCB
S315202295A003FA04F40460106800F00300801D83404F
S315202295B00B60002010BD00002DE9F04188B0044642
S315202295C004A8002100220023002580E82E006846D8
S315202295D0534F544E80E82E00F8F768FC0C250228BB
S315202295E018BF042040F097804FF4E0712046F9F707
S315202295F083F94D484D49494A20606160022004F191
S31520229600440108701068C0F34010002807BF0220CA
S31520229610887001238B704FF08050C86003236373B8
S31520229620A373642001234B70C862414B1868000E35
S3152022963003D018683F4F47EA106704973E4F059795
S315202296401F68C7F3074020B11E683C48C6F3074669
S31520229650064300961068C0F3001000B10D2504F5CC
S31520229660E0760127E57307FA05F07060681E04ADDF
S315202296708740376004F1800795E8015187E8015138
S31520229680684690E8805104F5987585E880511868D7
S31520229690C0F3C03040B900BF29A090E8805104F120
S315202296A0900585E880510AE0012737731868C0F3B0
S315202296B0C030002807BF4B2070820A257582186881
S315202296C0C0F3803040B9707304F5A87020A595E8C0
S315202296D0D01080E8D01001E0012474731868C0F3FA
S315202296E0C01018B11868C0F3C01008871068400A45
S315202296F000F00300012805D002D3032808D003D383
S31520229700642003E0C82204E04FF4C870086301E015
S3152022971032220A63002008B0BDE8F0810840C0400A
S315202297200304100C1304180846434642000401562B
S3152022973080CCCA400004100C0830042400041808E7
S315202297400F04C004012400000000000000000000D5
S315202297500F04C004012400000000000000000000C5
S31520229760F8B506460D4604201C46002D18BF002CAF
S315202297708AB039D00121049103208DF804000D23CB
S31520229780002103938DF81410029295F8470028B1F0
S3152022979005F5CC714A780392097804910422CDF8F2
S315202297A020D00992002020700121039F049B05EBE3
S315202297B0071000F180023046FFF7E5FC01220392D2
S315202297C001A93046FFF71CFD70B905F5E87211781C
S315202297D0009B002919BF5168926830212022194006
S315202297E091421CBF012121700BB0F0BD70B50446F9
S315202297F08AB0042041B30023009303250123049336
S315202298008DF8045000238DF81430029209900125F8
S3152022981001EB05160395CDF820D0012306F180020F
S3152022982001212046FFF7AFFC039501A92046FFF729
S31520229830E7FC48B900994A0748BF44F6256003D475
S315202298400A0748BF44F624600AB070BD1346002298
S31520229850FFF7E2BA70B506460D46042455B1FFF746
S3152022986009FB040006D1012305F18002002130469E
S31520229870FFF789FC204670BD2DE9F84F8CB05FEAB0
S3152022988001091EBF5FEA030A169E002E4FF0040826
S3152022989056D009F5CA7702920123396B01FB02F4CD
S315202298A004940B220592069399F84720002A1CBF7E
S315202298B03978002903D0797805913A7806920022C0
S315202298C001908DF81C208DF80C2009F18000059935
S315202298D0069B00EB011201980121FFF754FC01217E
S315202298E0059103A90198FFF78BFC5FEA000818BFB0
S315202298F044F6206864D109F5E675287820B1E888EF
S31520229900002105F0D7F808E001982346002249468F
S31520229910FFF76FFD5FEA000852D10198FFF75DFD40
S31520229920687870B901986B4622464946FFF718FF98
S315202299305FEA000844D19DF8000010B944F6226857
S315202299403EE0A8784FF0000B70B10298796BB0FBFD
S31520229950F1F1C80708D50198012309F1C002002197
S31520229960FFF711FC4FF0010BB4F1805F0AD20FF200
S315202299702850019950F82100011932465046FCF709
S31520229980FBFF13E0049400208DF81C00059003228F
S31520229990012006908DF80C20CDF828A00B9603A93D
S315202299A00198FFF72DFC5FEA000809D1BBF1000FD1
S315202299B006D00198012309F180020021FFF7E3FB5B
S315202299C040460DB0BDE8F08FF8B505460C4604207A
S315202299D0002C8AB0164656D0002004F5C6778DF87C
S315202299E00000FB6BB86B5E43464332462846FFF7A0
S315202299F02DFF002847D100218DF804108DF8141050
S31520229A00012205210391049294F8471000291CBFB4
S31520229A103878002803D078780390397804910296F2
S31520229A200398049B04EB001101F1800201212846B0
S31520229A30FFF7A9FB0120039001A92846FFF7E0FBA7
S31520229A4010B144F625601EE03346002221462846E0
S31520229A50FFF7CFFCB8B9324621462846FFF7C6FE85
S31520229A60002804BF94F8CD1100290CD16B4632462A
S31520229A7021462846FFF774FE002802BF9DF80010D3
S31520229A80002944F622600BB0F0BD2DE9F04782462C
S31520229A90894604208AB01E46B9F1000F1EBF002E29
S31520229AA0129D002D904648D0002009F5C8778DF8C2
S31520229AB0000050467C6B04FB08F42246FFF7C6FEC4
S31520229AC0029400218DF81410092202218DF8041007
S31520229AD00696012104910795039299F847100029A9
S31520229AE01CBF3878002803D0797803913A780492DB
S31520229AF009F2CD15687888B1B86BB8FBF0F0C107AA
S31520229B000CD50A20039099F8470000281CBF387DDF
S31520229B10002803D0787D0390387D049009F18006B1
S31520229B200398049B06EB001201215046FFF72BFBDC
S31520229B3000F040F810B144F6236038E08DF8040096
S31520229B400E2101220391049299F8470018B1787BBD
S31520229B500390387B049001210398049B06EB001284
S31520229B605046FFF710FB00F025F810B144F624608A
S31520229B701DE02346002249465046FFF73AFCB0B95B
S31520229B80224649465046FFF731FE002804BF29784F
S31520229B9000290CD16B46224649465046FFF7E0FD66
S31520229BA0002802BF9DF80010002944F622600AB040
S31520229BB0BDE8F0870120039001A95046FFF720BB7C
S31520229BC0000000002DE9F8430D4604241646002DF8
S31520229BD018BF002E8EB0814600F03A813068000FE1
S31520229BE00C2840F035814FF400712846F8F784FE80
S31520229BF0994A9A4B2A6005F130076B600220387504
S31520229C0003216973A9737C7532217964012000218D
S31520229C102973B8754FF08058C7F8208029464846C0
S31520229C20FFF718FE04003ED10AA9002000220023B5
S31520229C30002481E81D008A4A0A9242F202410B91AF
S31520229C4001230AAA01214846FFF79DFA03228DF80D
S31520229C500420012102220391049109920094029464
S31520229C608DF81440CDF820D001A94846FFF7C8FA2E
S31520229C70040017D1009800F0FF00FF2818BF002803
S31520229C8044F62B640ED03168C1F303610029C2BF8A
S31520229C90716801F0FF02002A03DD01F0FF018842EC
S31520229CA000D10024002C40F0CF8001202873317867
S31520229CB001F00F01B9753068C0F30310022818BFCE
S31520229CC0042840F0C28005F5E07180020860400039
S31520229CD048603068C0F3032003280CD8DFE800F060
S31520229CE002040609402008E0802006E04FF4807016
S31520229CF003E0202001E0202829D388604A68386A98
S31520229D00B0FBF2F28868B2FBF0F00A68C861B2F5BD
S31520229D10805F07BF0D20E8730C22EA733068C0F3F8
S31520229D200340020009D001280AD002280BD0042899
S31520229D3018BF082800F0888007E04FF0806007E0EF
S31520229D404FF0006004E0404602E0B0F5007F7CD36D
S31520229D504000386205F1B00240F20640106042F21D
S31520229D6001434048DFF800E1DFF80081DFF8009167
S31520229D70386605F5987C7B66CCF800E0CCF83080F6
S31520229D80C2F82090CCF82000CCF8243039483A4B1F
S31520229D9038657B654FF40953384810665366002090
S31520229DA088733068C0F3033060B13548354B10676D
S31520229DB053673548354B106153614FF41A509061E1
S31520229DC001238B7301202877022305F121004FF0EE
S31520229DD0000C03704FF0060E012385F820304FF039
S31520229DE001082B4B3B67C7F800C042F201037B6771
S31520229DF080F804E080F803805363264810631922F2
S31520229E007A6081F810803068C0F30360002814DD60
S31520229E107068C0F3074000281EBF7068C0F3072071
S31520229E2000280AD07068C0F3074048617068C0F3E2
S31520229E30072088610221397507E0302048612022D7
S31520229E408A610220387500E014B9284604F05DFEA6
S31520229E5020460FB0BDE8F083464346420004015611
S31520229E609F0400040F04C0041304180810041808C1
S31520229E70D80418086B04100C083280263204100CE1
S31520229E80320401180C0C40226B0401180C0C0832E7
S31520229E901F04A0041F04B0040000000000000030AC
S31520229EA00000006070B50446042594B32068010F93
S31520229EB00B292ED1C0F3036001282AD048BB206863
S31520229EC0C0F303161EB1022E05D002D306E0802649
S31520229ED006E0C02604E04FF4807601E0802E18D3D7
S31520229EE06068FCF76CFDF60898B160683018FCF7BC
S31520229EF066FD70B1164D2020A8603246616805F1B4
S31520229F000C00FCF739FD2E602068C0F30120686022
S31520229F100025284670BD7CB5054604200C46002D1A
S31520229F2018BF002C12D00A4E582106F12C00F8F721
S31520229F30E3FC72683168009406F12C0306F10C00CA
S31520229F40FCF709FA10B906F12C01296076BD00002A
S31520229F509C3624204FF0FF31016000224260704758
S31520229F6030B543680468134DD318436007E011F8CF
S31520229F70013B83EA146355F8233083EA04241346EB
S31520229F805A1E002BF3D1046030BD70B54268036897
S31520229F9012F0030F0BD002F00302C2F10402054C89
S31520229FA01D0E54F82560521E86EA0323F8D103603B
S31520229FB00B6070BD2405222010B5A64A1468012301
S31520229FC004F0010403FA04F404601068C0F3430089
S31520229FD000281DBF1068C0F34300834040230B6036
S31520229FE0002010BD70B59B4C9B4B2168C1F30021EC
S31520229FF0491E00F152028941C90F11701968C1F315
S3152022A000001101B10121D17000F121051968C1F396
S3152022A010C001002919BF1021297008262E70216817
S3152022A020C1F34021491E8941C90F80F820101968A1
S3152022A030C1F3401101B1012129741968C1F380119C
S3152022A04001B1012191721968C1F3C011002919BFEA
S3152022A05007210173062606731968090A01F00701EA
S3152022A060891E05290FD8DFE801F003050707090B0A
S3152022A070022106E0042607E0012102E0032603E06E
S3152022A0800721697001E000266E701968C90A01F05D
S3152022A0900701491E062914D8DFE801F00406080A1A
S3152022A0A00C0E100009210AE00A260BE00B2106E0FD
S3152022A0B00D2607E00E2102E00F2603E01021A970CB
S3152022A0C001E00C26AE701968C1F3803101B101215D
S3152022A0D0D1722168C1F38021491E8941C90F41725B
S3152022A0E01968090C01F00701072917D8DFE801F0C2
S3152022A0F00C0406080A160E1108210CE010240FE083
S3152022A100202108E040240BE0802104E04FF4007453
S3152022A11006E04FF48061C0F8A81003E04FF4807463
S3152022A120C0F8A8401868C00C00F00700012805D006
S3152022A13006D3032802D003D2022102E0E87301E0EB
S3152022A1400021E9731078F8B11868C0F3006000B1D5
S3152022A150012010711868400E00F00700052811D83A
S3152022A160DFE800F0030507090B0D01200BE0022191
S3152022A17006E0032007E0042102E0052003E0062171
S3152022A180517070BD0720507070BD70B504464FF4D3
S3152022A1908071F8F7B1FB04F150050122002004F169
S3152022A1A02106AA7068710821317084F820200621A0
S3152022A1B0002232742A73217372700C21B1706A7351
S3152022A1C04021A965AA710121E97062722046FFF712
S3152022A1D009FF00202870687000224FF40070A860C2
S3152022A1E04FF47A71012028822A71E981012130785F
S3152022A1F0082808BF96F9020003D0102803D1B07888
S3152022A200401C814029654FF48061286DE96540090B
S3152022A210012168650120286684F8E0204FF48032E7
S3152022A2200E4820602172FF206073A0734FF01E41DA
S3152022A2300020E07321614FF00070606100214FF011
S3152022A24000406260A161E061F1734020F07000203D
S3152022A25070BD00000840C04080CCCA4053454D43C3
S3152022A2602DE9F34F0022DFF8845B8DF80220ADF82A
S3152022A270002000232978002600270029924693468B
S3152022A280944696469046914600F140045BD19DF82D
S3152022A2900410C1B9E17C0126491F04220823212763
S3152022A2A0022992469B464FF0060CBE46B846B94630
S3152022A2B006D290F82010491E8941C90F80F8201015
S3152022A2C0002068703FE001293DD1E17C891E0429C6
S3152022A2D00ED8DFE801F00C0907050300052207E066
S3152022A2E0042102E0032203E00221697001E0012217
S3152022A2F06A70E17C491F022906D290F82010491E55
S3152022A3008941C90F80F820100D216A78DFF8E00AEA
S3152022A3104A4381184B7B8DF802308A7B8DF80120A7
S3152022A3200B7CCA7B91F811A091F812B0C87C8DF8CB
S3152022A33000000E7D4F7D91F816C091F817E091F816
S3152022A340188091F8199026709DF8000060709DF86B
S3152022A3500210A17084F803B084F804A06371A2715C
S3152022A3609DF80100207384F8079084F8088084F8E9
S3152022A37009E084F80AC0E772BDE8F38F2DE9F84F89
S3152022A38080468B461446F7F7B0F908F15C05064657
S3152022A3900F46688800F029F981468A46F7F7A5F9FB
S3152022A3A0801BB9418A4502D828BF814511D32878F6
S3152022A3B090B98DF800005846F7F7AAF96946404623
S3152022A3C000F09CF8C0B99DF80000800900F0010039
S3152022A3D006E045F2D0200FE00128DFD104F0A9FDC6
S3152022A3E00028DBD0012C04BF29780029404602D13F
S3152022A3F000F029F800B90020BDE8F28F38B50546CD
S3152022A400002000900C4604220121902004F098FD81
S3152022A41000F0C9FB70B9DFF8D409806895F85C1082
S3152022A420B0F57A7F38BF4FF47A70012903D100F034
S3152022A430B5FB10B132BDF7F76BF901230222214673
S3152022A44000F055F832BD1CB5002300F0F6F838B9D5
S3152022A4500222002104F074FD0146A06900F04AF888
S3152022A46016BD7CB50546002000900E460422307883
S3152022A470012104F065FD0146708800F03BF80400B6
S3152022A4802FD13078EF2815D101230422311D2846D9
S3152022A49004F0F0FC040024D195F85C00012804D1B4
S3152022A4A00022002100F07CFB1AE04FF47A70F7F7A5
S3152022A4B02FF916E0EE2814D195F85C00012806D152
S3152022A4C00122002100F06CFB04000AD103E04FF4A4
S3152022A4D07A70F7F71DF901230422311D00F007F8BF
S3152022A4E00446204676BD01234FF4807249462846EB
S3152022A4F004F081BC6B46002204F040BD7CB50446A4
S3152022A5000D4694F85D0001280FD1DFF8E0683078F7
S3152022A510022803D108220021712009E006220521E2
S3152022A520782004F00DFD746805E0082200217020B1
S3152022A53004F006FDA46901466B460022204604F05B
S3152022A5401DFD10B900982870002076BD2DE9F84F00
S3152022A550DFF89878FD688146F7F7C7F809F15E0695
S3152022A56082468B46308800F040F804468846F7F724
S3152022A570BCF8B0EB0A0061EB0B01884504D82CBF4E
S3152022A580844245F2D0202ED309F155042078012881
S3152022A59005D17588B868A84203D3054601E000B9DB
S3152022A5A0FD68E079C0B98DF80000E8B2F7F7B0F877
S3152022A5B02078012816D169464846FFF79FFF90B991
S3152022A5C09DF80000C10748BF45F2DC200BD448463F
S3152022A5D0FFF739FF30B106E0012803D104F0A9FCA8
S3152022A5E00028FBD00020BDE8F28F4FF47A71484331
S3152022A5F0F7F785B838B500230D4600F01EF8D8B9EE
S3152022A600DFF8E8070178022908D100F01BF800F0CC
S3152022A6104CF888B92046FFF799FF32BD00F012F890
S3152022A62000F043F840B903220021302004F088FCB0
S3152022A63000F03BF80028EDD032BD009304460022DC
S3152022A64000219BE604220021002004F079BC38B5A3
S3152022A65004460D460020110000900CD100F036FD54
S3152022A66040B904220021802004F06AFC00F01DF863
S3152022A67000B9002032BD012AFBD10222002110205E
S3152022A68004F05EFC00F011F80028F3D1DFF85C0715
S3152022A690B4F860100069884228BF0146002220466D
S3152022A6A0FFF76CFE0028E4D032BD01466B4600221D
S3152022A6B0284604F063BCFEB5044604F150060D4636
S3152022A6C0B179A94230D03078002832D1DFF81C1750
S3152022A6D0087F70B30FF67C2090E88C006946012D06
S3152022A6E081E88C0003D100218DF8041004E0280093
S3152022A6F004BF08208DF8040094F82100102804BFF6
S3152022A7004FF49071ADF8021069462046FFF7A9FE54
S3152022A71058B900F03BFA2046FFF7A3FE28B99DF848
S3152022A7200400082802D1B5710020FEBD45F2DD20A5
S3152022A730FEBD280002D145F2D620FEBD012DF3D141
S3152022A74045F2DB20FEBD38B5044604F1540101252D
S3152022A7500878002804BF4878002815D100228DF8D1
S3152022A760002069462046FFF7C9FE002803BF9DF830
S3152022A770005005F0010585F0010500252046FFF74A
S3152022A78062FE08B1012032BD284632BD0246012092
S3152022A79000E0491E21B112F8013BFF2BF9D00020FF
S3152022A7A070472DE9FC41DFF8045900248046287899
S3152022A7B002280E4608F1600723D110001AD10094F0
S3152022A7C0002200214046FFF7D9FD040041D1042270
S3152022A7D00021502004F0B4FB00F03EF8040038D1CA
S3152022A7E03988A868884228BF014601224046FFF7B9
S3152022A7F0C5FD04E0012A2CD14046FFF7FBFE044684
S3152022A80027E00AB9386C8619002100910022404699
S3152022A810FFF7B4FD04001CD104220221052004F0F6
S3152022A8208FFB00F019F8040013D103220021E02027
S3152022A83004F086FB00F010F804000AD1A86900284B
S3152022A8401DBF4FF47A71B0FBF1F0401C0120F6F7C0
S3152022A8505FFF2046BDE8F68101466B460022304640
S3152022A86004F08CBB2DE9FF470546DFF880652021C1
S3152022A8703046F8F741F82D20F060192240F6B830FC
S3152022A8804FF41671706105F15007B260316105F1FE
S3152022A8901808B87808B1002107E098F80A0000289D
S3152022A8A01CBF0228042802D10121317001E0022294
S3152022A8B032703879002804BF7879012807BF012110
S3152022A8C088F80D10002088F80D0000212846FFF771
S3152022A8D0C7FC284604F098FB00286FD1317800293E
S3152022A8E040F04881009002220121FF2004F028FB1B
S3152022A8F00146D8F80000FFF7FDFD00224FF47A71B9
S3152022A90000F04EF9002859D1DFF8A4974FF4807130
S3152022A9104846F7F7F1FF0020009004220121EC207F
S3152022A92004F00EFB00F03FF9040012D1B068397B07
S3152022A930B0F57A7F38BF4FF47A70012904D100F01E
S3152022A9402DF9040005D101E0F6F7E2FEFFF7CBFD53
S3152022A9500446002C1ED1D9F80000DFF858A750450E
S3152022A96015D10021ADF80210684604F0CFFCFE2254
S3152022A9704946684604F0CEFC0DF10201684604F0F1
S3152022A980C2FCBDF80200B9F8FE10884217D0FFF7A4
S3152022A990AAFD040040F0B38000200021CDF800A0BB
S3152022A9A01DF8013019F80120934208BF401C491C8A
S3152022A9B00429F5D30128CED845F2D520E3E0072075
S3152022A9C03870002000210C23DFF8EC264343134461
S3152022A9D009EB010E5B5C9EF82020934202D1491C92
S3152022A9E00C29F0D30C2903D0401C072801D2E9E7F1
S3152022A9F03870B9F808000106890E01F00101317775
S3152022AA00C0F3C00101B1012179730021D9F8500088
S3152022AA10386500E0491C4008FCD198F8090008282E
S3152022AA2008BF88F80B1004D0102804BF481E88F8C7
S3152022AA300B0009F15400018879658268BA65C168DC
S3152022AA40F965027C3A66407C112808D0122808D063
S3152022AA50132808D0212808D0222808D00BE0072145
S3152022AA6006E0032008E0012102E0042004E002217E
S3152022AA7088F80A1002E0002088F80A00F9780729C7
S3152022AA8009F1810020D10178C1F3401109B10621B3
S3152022AA9016E00178C1F3001109B1052110E00178F1
S3152022AAA0C1F3C00109B104210AE00178C1F3800172
S3152022AAB009B1032104E00178C1F3400111B1022139
S3152022AAC0F97001E00122FA70417A027A02EB012121
S3152022AAD0B160C379827902EB03227261437990F8BD
S3152022AAE004C00CEB032333618908B16092089B08CA
S3152022AAF072613361C17A807A00EB0120B061200035
S3152022AB0041D101212846FFF7ABFB717841B30629B3
S3152022AB1026DA327F002012B30FF22C6292E81840F6
S3152022AB20684680E818408DF8041098F80900102805
S3152022AB3004BF0221ADF8021069462846FFF791FC90
S3152022AB4008BB00F023F82846FFF78BFCD8B99DF8DE
S3152022AB5004107278914218BF45F2D72013D190B9AA
S3152022AB60284604F051FA70B909F580712846FFF774
S3152022AB7045FC40B9397931B97979002912BF0129A1
S3152022AB802846FFF798FD04B0BDE8F087EE218DF820
S3152022AB90001000228DF804206946704701460122C2
S3152022ABA02846FFF7EBBB01466B460022002004F025
S3152022ABB0E5B92DE9F14F154600F15406C2B0429A65
S3152022ABC0F06CD4694143A14228BF45F2D12080F0BE
S3152022ABD00A819842009338BF45F2D320C0F00381E0
S3152022ABE0104604F0B6F90146DFF8C004429A4160C5
S3152022ABF00F46507A012807D110460769FFF7FAFC3B
S3152022AC00040040F0EF8005E020B91046FFF7F2FC61
S3152022AC10040073D14298FFF796FD002800F0C180E8
S3152022AC2030780024002804BF707801284ED1D6F827
S3152022AC304C907068B9FBF0F8FF224FF4807101A87E
S3152022AC40FCF7C4F84298407A01280BD14298006931
S3152022AC50326DB7FBF0F300FB039901A9484604F0B5
S3152022AC605AF914E0A8B9429800223946FFF799FDED
S3152022AC7004002BD1326D4298002301A904F0BBF89F
S3152022AC80040023D1429801223946FFF78AFD040087
S3152022AC901CD14FF4807101A8FFF778FDDFF80C94C0
S3152022ACA000B1012089F81D00802109F12000F7F743
S3152022ACB023FE002008E001A901EBC00209F12001B0
S3152022ACC0536841F82030401C4045F4D3002C02958D
S3152022ACD014D102E00098451B00950098002800F028
S3152022ACE081804298DFF8D413407A0191012807D136
S3152022ACF04FF40072384604F00EF9040072D108E0AF
S3152022AD0038B9429800234FF4007204F074F80400F4
S3152022AD1068D13078002801BF70780128F078002881
S3152022AD2042D1F06C7168DDF804A0B0FBF1F94298AB
S3152022AD30417A01294FF00008BB460CD10069A7EBC6
S3152022AD40000B08E07068824405F528718A452BD2CB
S3152022AD50834408F10108C84526D2F06C7168BBFBF2
S3152022AD60F0F200FB12B0B0FBF1F04045F1D1504693
S3152022AD70FFF70CFDCD4D00281CBF687F0028E1D1AE
S3152022AD8005F12001706801EB8802514600B204F0D9
S3152022AD908EFB45F2343188421CBF45F23532904231
S3152022ADA0D0D045F2D4201EE0009801994FF40075A8
S3152022ADB0854288BF054602982A46FBF7DDFD4FF0DD
S3152022ADC0FF30C01BA8420CD302984FF0FF31EF1957
S3152022ADD0091AA94221BF411902910098A842BFF41B
S3152022ADE079AF0324204643B0BDE8F08FCC442420FB
S3152022ADF0581322202DE9F34F064606F15405E7B0D3
S3152022AE009046E86CF26900274143914228BF45F2D9
S3152022AE10D12080F0FF809842049338BF45F2D32078
S3152022AE20C0F0F880304604F094F8A0490390486098
S3152022AE30707A012808BF376901D000B9039F039988
S3152022AE4000223046FFF703FC040040F0E280049CF7
S3152022AE509A4A009202974FF0000A002722E000BB6E
S3152022AE6000235A464946304604F004F816E0BAF141
S3152022AE70000F0AD14FF4007B0098FF225946FBF798
S3152022AE80A5FFDDF800904FF0010A707A0128E6D15D
S3152022AE9002985A464946381804F045F8002840F0C8
S3152022AEA0B7805F44E96C8F421ED2002CDFD0B4F5E6
S3152022AEB0007F06D3600A4FEA402BC146A4EB0B043F
S3152022AEC0E3E70098224608EB0701FBF755FD009899
S3152022AED0FF22C4F500712044FEF740FBDDF80090E6
S3152022AEE04FF4007B0024D0E701962878002804BF5F
S3152022AEF06878012874D16868B1FBF0F9802147A8C7
S3152022AF00F7F7FAFCE878002844D16849049CCDF862
S3152022AF1018800026474601F1A002B2460092B0468A
S3152022AF2026E0BAF1000F16D169680098FF22FBF7B6
S3152022AF304DFF009F4FF0010A0DE000982246394628
S3152022AF40FBF71AFD0098FF22ABEB04012044FEF703
S3152022AF5005FB009F0024686805AA394600B204F042
S3152022AF60F1F9059847A941F82600761C686880449D
S3152022AF704E450DD20021002C0591D2D0D5F804B011
S3152022AF8006985C4500EB0807D7D3A4EB0B04E2E72F
S3152022AF90DDF81880FF224FF4807107A8FBF716FFF1
S3152022AFA0002407AA06E047A850F8241002EBC40082
S3152022AFB0641C41604C45F6D30198407A012807D17A
S3152022AFC00298EB6C2A6D07A9181803F0ACFF06E04D
S3152022AFD030B92A6D0198002307A903F04BFFC8B97F
S3152022AFE0039901980122FFF732FB040011D101981F
S3152022AFF0FFF7A9FB10B945F2D4200BE0019991F86D
S3152022B000E00030B9049B68990198424600F086F800
S3152022B0100446204669B0BDE8F08F2DE9FC4104465E
S3152022B02004F160060D46B16C306CE26969434143F6
S3152022B030914228BF45F2D12036D2204603F089FFFD
S3152022B0401A4F804600200090C7F8048000F03EF870
S3152022B05050BB04220521602003F072FF00F030F855
S3152022B06010BB03220521D02003F06AFF00F028F826
S3152022B070D0B931887869884228BF014600222046E5
S3152022B080FFF77CF980B92046FFF75DFB10B945F220
S3152022B090D42009E094F8E00028B9B26C5543294619
S3152022B0A0204600F018F80020BDE8F681CC44242062
S3152022B0B06C4724204F4E4649C01322206C4524201B
S3152022B0C001466B460022404603F058BF002200214B
S3152022B0D02046FFF753B92DE9F041804608F1A00515
S3152022B0E00E466C6C17464CB945F2DA20BDE8F08143
S3152022B0F029682046FFF74AFB68B1761C3846471E48
S3152022B1000028F3D02B68224631464046FFF751FDD0
S3152022B1100028EDD0EAE745F2D920E7E770B5D0F846
S3152022B120E44015461E4614B945F2DA2070BD224661
S3152022B130FFF73FFD38B9324621462846FEF718FA50
S3152022B14008B145F2D82070BDEF00010000000000B2
S3152022B15000000000EF009000000000000000000028
S3152022B1600022FEF7FBB9000070B504460D46DFF833
S3152022B170286320213046F7F7BFFB2278012A02DDF9
S3152022B18042F6CE1070BD6078212808DA6168012245
S3152022B190C01E82408A4228BFB1F5006F02D242F6F3
S3152022B1A0CF1070BD1C2221463046FBF7E5FB706886
S3152022B1B0F561B0F5007F04BF09217170002070BDB2
S3152022B1C070B51346B44A957C5268044600201E194F
S3152022B1D0B24202D242F6CC1070BD2A0000D16CE0D7
S3152022B1E02BB10A4621462846BDE87040A8E070BD0C
S3152022B1F02DE9F8438046A84F7868002401EB0809F8
S3152022B200FD68FE7D484504D242F6CC142046BDE890
S3152022B210F2839EB9BE7DBD6886B9387830B30128BF
S3152022B2200CD1404600F03FF90446EFE7002CEDD141
S3152022B230387DD8B100F023F90028FBD1C845E5D2C4
S3152022B24000F0FEF80400E1D10023002241463046D8
S3152022B25000F076F80446B8FBF5F105FB11800028AC
S3152022B2601ABF481C05FB00F8A844DFE742F6D01097
S3152022B270CDE770B5884D2E7E6968300008D12878B2
S3152022B280A0B1012804D1002000F00DF9044612E0D5
S3152022B29000F0D6F804000ED10023002200213046E9
S3152022B2A000F04EF8040006D1287D00B905E000F012
S3152022B2B0E6F80028FBD1204670BD42F6D01070BD9C
S3152022B2C02DE9F84F81468A469046734E70680024AF
S3152022B2D008EB0901B768757C884204D242F6CC1461
S3152022B2E02046BDE8F28FCDB942F6D010F9E7C34603
S3152022B2F0884588BF8B465B4652464946284600F0FB
S3152022B3001FF80400D944DA44A8EB0B08E8D1307D93
S3152022B3100028E9D000F0B3F80028FBD1B8F1000FBD
S3152022B320DED000F08DF80400DAD1B9FBF7F17943AB
S3152022B330B9EB01001ABFA7EB090009183946D6E74F
S3152022B3402DE9FC47544F7D781C46824689469046F5
S3152022B350FB690022002100209847BAF1000F2CD049
S3152022B360397C8A4508BF012628D0797C8A4508BFA0
S3152022B370022623D0B97C8A4508BF03261ED0F97C13
S3152022B3808A4508BF042619D0397D8A4508BF052655
S3152022B39014D0797D8A4508BF06260FD0B97D8A45E5
S3152022B3A008BF07260AD0F97D8A4508BF082605D078
S3152022B3B0397E8A4508BF092600D0002678780928B2
S3152022B3C004D1B9F5807F28BF4AF0080A092D08BF83
S3152022B3D008250121B01E012884BF401F01288DF88F
S3152022B3E000A014D86D1EAB1005EB5371C910491C51
S3152022B3F000200DF1010507E04A1E121AD20029FA71
S3152022B40002F32B54401CC0B28842F5D3491C21B1E9
S3152022B410FB6902226846984780B94CB10122761EE2
S3152022B420012EFB6998BF022221464046984728B919
S3152022B430FB6903220021002098470020BDE8F687D9
S3152022B44038B51548047D457D200001D0280002D13B
S3152022B45042F6D01032BD00F021F80028FBD19DF80B
S3152022B4600000810709D40023002200212846FFF765
S3152022B47067FF9DF800008107EDD5002032BD1CB55F
S3152022B4800548047D00F00AF80028FBD19DF800002B
S3152022B49000F0010016BD0000B090242001236A4648
S3152022B4A0002120464CE77FB505460C46FF22102177
S3152022B4B06846FBF78BFC01E07519A41B64B11026A4
S3152022B4C0102C38BF2646324669462846FFF7F8FE14
S3152022B4D00028F1D004B070BD0020FBE710B5400152
S3152022B4E0DFF87425145801F0010304F00104A34265
S3152022B4F007D001F001011150BFF34F8FBFF36F8F99
S3152022B500105810BD0121E9E70029016912BF41F037
S3152022B51001014908490001617047426A520801F037
S3152022B520010141EA420141627047406A00F001006E
S3152022B53070470369520242EA01221A430261704786
S3152022B540120401F00F0102F4702211438165704723
S3152022B55010B50146002000BF05A2C3B252F82330FF
S3152022B5608B4203D0401CC4B2072CF6D3C0B210BDE6
S3152022B57000000000004011400080114000C0114010
S3152022B5800000124000C0C2400000C34010B50C4645
S3152022B590FFF7DEFFDFF8C4140C5410BD7CB50D4630
S3152022B5A00021009104461646FFF7D2FF00F05EF8EE
S3152022B5B001212046FFF7B1FF6A7E297E204600F030
S3152022B5C05DF8616AEA7EDFF8980492060140A87E39
S3152022B5D002F080620006114300F04070014361624E
S3152022B5E06B4629683246204600F053F800F03AF896
S3152022B5F0697A287A00F030F8A87AC00500F400008B
S3152022B60001436868401EC0F30B0001430098C00620
S3152022B61000F060500143287E000600F0407001436E
S3152022B620216620460121FFF76FFFE9683346012272
S3152022B630204600F083F8296933460222204600F06C
S3152022B6407DF8696933460322204600F077F80021E7
S3152022B6502046FFF79BFF73BD890701F0804141EA0F
S3152022B660C071704700220021204669E701A1085CAB
S3152022B67048E700008A68696A6B6C6D0010B508314C
S3152022B680436A01248C40A34302FA01F11943416201
S3152022B69010BD2DE9F04705468A46686AC0079446BA
S3152022B6A01C4602D52969C80701D500202EE04FF075
S3152022B6B0FF300722FF234FF0000E00210FF2E04831
S3152022B6C0002618F80190B71C07FB09F9BCFBF9F9EB
S3152022B6D0CA4507D3AAEB0907874203D238460A4628
S3152022B6E03346CE46761CFF2E02D80028E9D104E026
S3152022B6F0491C072901D80028E2D1286C000A03F028
S3152022B700FF0343EA00232B6422607046BDE8F087BC
S3152022B710012A04D011D3032A0BD004D37047026CFA
S3152022B72061F3174208E0026C22F07F4242EA01626C
S3152022B73002E0026C61F30F22026470472DE9F54F75
S3152022B74085B00D4605990FF258400A6EC2F3C261A2
S3152022B7500026405CB3FBF0F79DF818000328B1467B
S3152022B7604FF0FF3A0DD1DFF810043B213A46002351
S3152022B770DFF80844B04602F08DFFB4FBF7F4012629
S3152022B7800BE0DFF8FC033B213A460023DFF8D442C4
S3152022B79002F080FFB4FBF7F4B046002398452946F1
S3152022B7A001D88C4207D39DF8182005980021FFF74F
S3152022B7B0AFFF204632E00091CDE9026901970025AC
S3152022B7C054464FF0FF0806460027DDE902014019BC
S3152022B7D07941B0F1FF3A61F1FF3BDFF88822A2FBE3
S3152022B7E00A0102FB0B11019A02F054FF0023009A50
S3152022B7F0994201D8904205D3821AA24202D21446F5
S3152022B800A84606466D1CFF2D01D8002CDDD19DF8B9
S3152022B810182005984146FFF77BFF304607B0BDE842
S3152022B820F08F8368E3B10168002904BF41680029AB
S3152022B83016D0052A07D28068B0FBF2F102FB11024C
S3152022B84072B90120704712F0030F806802D090420D
S3152022B850F7D005E0B0FBF2F102FB1102002AF0D06C
S3152022B860002070472DE9F04F054685B02C6EC4F393
S3152022B8700B040F46641CE11DC9080191FFF768FEDF
S3152022B880DFF8D81111F80080019A21463846FFF7B1
S3152022B890C8FF002863D06869C10148BF4FF4C87029
S3152022B8A05ED43C68786800904FF00009BE68B8687C
S3152022B8B0029048EA082040EA0840696840EA086B74
S3152022B8C00120090A884001990429C0B288BF04218F
S3152022B8D00390414304910122F8680709010D800D46
S3152022B8E001F0010800F0010A01212846FFF721FE76
S3152022B8F0DFF890126961009808B94FF400290021D7
S3152022B9002846FFF701FE686A20F008006862686A06
S3152022B91000F09CF818BFB0F1007F04D1E4B9686A20
S3152022B92040F08060686201212846FFF7EDFD286EEF
S3152022B93020F04E7040EA48503F0649EA000007F0C0
S3152022B940407707432F66019804280AD801A991F83F
S3152022B9500090CDF804900BE000980028E3D0042034
S3152022B96053E004210191894602E00097CDF8088010
S3152022B970002E3AD0019886423CBFF0B2019003981D
S3152022B980E96D01F01F018142FAD00390009820B17F
S3152022B99002980499801B884210D244B10198C1B2E0
S3152022B9A05246204600F060F8834601980444C5F8A2
S3152022B9B064B001990098761A0028D9D0009FDDF824
S3152022B9C00880E86DC0F304400028CED0C845696FB0
S3152022B9D038BF5FFA88F953465FFA89F2384600F073
S3152022B9E07BF84F44A8EB0908EBE7E86D039900F0B2
S3152022B9F01F008842F9D0286E20F4801028660098ED
S3152022BA0048B968694105FCD5002005B0BDE8F08F0C
S3152022BA1000940296C14602980028F5D0009C06463C
S3152022BA20C846E86DC0F304400028F1D04645696F28
S3152022BA3038BF5FFA86F853465FFA88F2204600F02E
S3152022BA404BF84444A6EB0806EBE7606A00F0407008
S3152022BA50B0F1807F704700000060CC40483024201F
S3152022BA60F7FFFFF800CA9A3B30B50024491E032966
S3152022BA7003462ED8DFE801F002050E1A13F8014BF1
S3152022BA8027E05C781978002A14BF44EA012441EA87
S3152022BA9004241EE05C789D78197824021AB90C4376
S3152022BAA044EA054415E044EA014411E0DD78997818
S3152022BAB058781C7832B944EA002444EA014444EAFC
S3152022BAC0056406E02246040444EA026444EA012488
S3152022BAD02C43204630BD000030B50C0C0D0A521ED8
S3152022BAE0032A21D8DFE802F002050C1500F8011BF3
S3152022BAF030BD13B90170457030BD0570417030BD1F
S3152022BB001BB901704570847030BD047045708170F8
S3152022BB1030BD0A0E23B9017045708470C27030BDC3
S3152022BB20027044708570C17030BD70B504460D46D2
S3152022BB30FFF7FBFC0028144E2946204602D0F26944
S3152022BB40904701E0336A9847BFF34F8F70BD0E4866
S3152022BB5041680E48E9E70C4881680D48E5E70A481E
S3152022BB60C1680C48E1E7084801690B48DDE7064829
S3152022BB7041690A48D9E7000000CA64D6009435777D
S3152022BB800000CA9A033F000124302420004011409D
S3152022BB900080114000C011400000124000C0C24067
S3152022BBA0010204081020408010B5039C240101F0D4
S3152022BBB00F0104F010042143016002B1136010BD6D
S3152022BBC0009808B1019901607047F5F78BBFFEB541
S3152022BBD0DFF8C813DFF8C843DFF8C853884212D1EA
S3152022BBE00020DFF8C463DFF8C473019000F07DF8EB
S3152022BBF0012200F073F80FF2085001680091022109
S3152022BC002A68920816E0DFF8A81388421CD1002061
S3152022BC100190DFF8A063DFF8A07300F066F80C200D
S3152022BC20019000F05CF80FF2DC40016800910F21B0
S3152022BC302A68520802F0010282F001028DF80120C0
S3152022BC406A462046F5F710FFF7BD10B5DFF84C43BC
S3152022BC500A46A042DFF8483308BF022104D0DFF883
S3152022BC605043A04204D10F21BDE810401846ACE72C
S3152022BC7010BD7CB5DFF82413884211D1DFF83C436E
S3152022BC80DFF83C530095002601960023002204214A
S3152022BC9000F022F80D22019200F019F8042110E07A
S3152022BCA0DFF80C1388420FD100200190DFF81443CD
S3152022BCB0DFF8145300F00BF800F00DF800F005F829
S3152022BCC00B212046FFF77CFF73BD0D2001900095A6
S3152022BCD00023002270470B21204665E70192009718
S3152022BCE000230022052130466AE7009700230022FE
S3152022BCF00521304658E72DE9FE4FA84A904232D1F7
S3152022BD00491E012984BF091F01291BD8DFF8CC929D
S3152022BD10B34DB44FDFF8B482AD4C00950026019680
S3152022BD2000F081F800F092F9AF4E00220021304631
S3152022BD30FFF73AFF00F084F800F07AF800F0BEF917
S3152022BD4000F0C4F901200190DFF8A092A84D00F05E
S3152022BD5069F800200190A74EA74F00F0A9F9DFF835
S3152022BD609C82A74C54E0924A904259D1012926D04E
S3152022BD70022903D0052922D0062939D10020019073
S3152022BD80DFF88092A04D00F04DF8002001909F4EC2
S3152022BD909F4F00F08DF90020DFF878829E4CDFF845
S3152022BDA07CA2DFF87CB200F07CF900F09DF900F04D
S3152022BDB03FF800F083F900F089F900F069F90020B4
S3152022BDC00190DFF86092984D00F02CF80020019027
S3152022BDD0964E974F00F06CF90020DFF8F8817E4CC2
S3152022BDE000F05FF900F024F800F068F900F06EF90F
S3152022BDF001200190DFF83C928F4D00F013F80020AD
S3152022BE0001908E4E8E4F00F053F9DFF838828E4CF9
S3152022BE1000F016F800F00CF800F050F900F056F970
S3152022BE20BDE8F78F00950023002200214846BBE675
S3152022BE300420019000950023002200214846BFE6D7
S3152022BE400020019000940023002200214046ABE6E8
S3152022BE50012070472DE9FE4F504A9042894654D1FF
S3152022BE6000295A4D5A4E27D0012947D100205B4F0F
S3152022BE70DFF86C815C4CDFF86CA100F0FAF8FFF752
S3152022BE8093FE002000F0EDF8FFF78EFE00200190B1
S3152022BE9000960023002200212846FFF785FE042053
S3152022BEA000F0E7F8FFF78CFE042000F0DAF8FFF71F
S3152022BEB087FE042000F0E5F80120019000234C4F54
S3152022BEC04A48009700220021FFF76EFE0020DFF865
S3152022BED02481494CDFF824A1DFF824B100F0E1F8CF
S3152022BEE000F002F9042000F0B2F8002200213F4897
S3152022BEF0FFF766FE00F0EAF800F0CAF8B9F1000F63
S3152022BF004AD10C2000F0BDF846E0294A904243D17E
S3152022BF100029314D1FD0012939D100200190414ECF
S3152022BF20414F00F0C5F80020DFF80081404CDFF8B1
S3152022BF30A4A000F0B6F800F0D1F800215046FFF771
S3152022BF4033FE00F0BBF800F0C1F8042000F083F89D
S3152022BF505046FFF735FE01200190364E364F00F02F
S3152022BF60A7F80020DFF8D480354C00F09AF800207C
S3152022BF703549019000910023002200213148FFF704
S3152022BF8013FE00F09BF800F0A1F80420E860B9F136
S3152022BF90000F04BF0C202860BDE8F78F00804140A7
S3152022BFA00080134070C9CA4098810E40DC830E401F
S3152022BFB000C04140CC810E4010840E4094810E4018
S3152022BFC0D8830E407C810E40C0830E40B0810E4025
S3152022BFD0F4830E40B4810E40F8830E40A8810E4091
S3152022BFE0EC830E40F0830E40AC810E409C810E40A5
S3152022BFF0E0830E40A0810E40E4830E40A4810E40B1
S3152022C000E8830E40D4810E4018840E40D8810E40FB
S3152022C0101C840E40DC810E4020840E40E0810E409E
S3152022C02024840E40BC810E4000840E40B8810E40EE
S3152022C030FC830E40C8810E400C840E40C4810E40E3
S3152022C04008840E40C0810E4004840E4000200190B8
S3152022C050009700237047019000950023002200219B
S3152022C06070470190CDF800A000230022002120460F
S3152022C07070470190CDF80080002300220021384607
S3152022C080704701900096002300220021284697E53A
S3152022C09004200190CDF800B0002300220021504632
S3152022C0A08EE50190009400230022002140467BE564
S3152022C0B00097002300220021304675E504200190B6
S3152022C0C00097002300220021304679E504200190A2
S3152022C0D00094002300220021404671E50020019091
S3152022C0E0009500230022704700200190CDF800B051
S3152022C0F0002300220021504656E5012070470000E9
S3152022C1000100000001000000826A490022F0060296
S3152022C11001F006011143816270470029D0F8C01030
S3152022C12014BF41F0020121F00201C0F8C01070476D
S3152022C1300029816C0BD021F0400181649201816C0F
S3152022C14002F0400242F008020A438264704721F03C
S3152022C1500801816470470B46826C816A006803F06D
S3152022C16017BA816A006803F067BA0A46816A0068AC
S3152022C17003F07ABAE0B590F8071301290AD14023B1
S3152022C180022101910A2200921522816A006803F077
S3152022C190DBFA0EBD022908BF8023F1D000200EBD76
S3152022C1A02DE9F84307468946154640F2297641F677
S3152022C1B06A183868BA6A49469047044641F6691091
S3152022C1C0844218BF44451AD197F80603022818BF7D
S3152022C1D0032814D1444506D1386842F210724FF012
S3152022C1E0B05103F0D4FC3846FFF7C4FF18B91CB16E
S3152022C1F0B442DED100E034462046BDE8F2830CB1BB
S3152022C20040F20974002D18BF6D1EF0D1F4E700000C
S3152022C21018B5044613A08BB000F086FF0D22029299
S3152022C220A16C0904039101218DF8111002A9019113
S3152022C2300022009200F01AF838B90598DFF8F41592
S3152022C240084206D04FF4E36001E040F209700CB0B8
S3152022C25010BDC105EAD5C0F343200728E6D0002029
S3152022C260F5E7000000000000000000006946204695
S3152022C27096E7000018B504460AA08BB000F054FFBA
S3152022C2800C2202920021032203918DF810200221F2
S3152022C290DFF8A42500F00CF908B140F209700CB0A1
S3152022C2A010BD000000000000000000002DE9F04330
S3152022C2B08BB007460E4600F03BFF00BF23A2039613
S3152022C2C00121D2E9000502910421CDE9000500F0E1
S3152022C2D069F840F6B838F5F708FA04460D46DFF82D
S3152022C2E05C05F5F70CFA14EB00094D413868BA6A59
S3152022C2F069469047C0B90599C7F874120598B6B908
S3152022C300002814D000245FEA080018BF002CA8F1C8
S3152022C310010806D0F5F7E9F9A942E7D301D848451D
S3152022C320E4D3204600F0FDBE40F20970FAE7002849
S3152022C33058BF0524E7D50024C1F341700228E2D153
S3152022C340386D40F480703865DDE70000000000007B
S3152022C35000000000D8B58BB000F00EFC0FA20321FE
S3152022C360D2E9006702914FF400320121CDE900671C
S3152022C370039200F017F82068A26A6946904700289F
S3152022C3801EBF0598DFF8B014084203BF0220A0641E
S3152022C390002040F209700CB0D0BD00000000000041
S3152022C3A0000000008DF8111002AA002101920091AE
S3152022C3B07047000010B504460BA194F8900200F0B5
S3152022C3C0070251F82230DFF8F817C0F3C30051F8DC
S3152022C3D02000616843430A222068B3FBF2F203F06D
S3152022C3E0FCFB606410BD0000A086010040420F00C5
S3152022C3F08096980000E1F50580B5016DCA0507D51E
S3152022C40000F2CD214A78002A1CBF097800290AD1B8
S3152022C41000F29F210A784978521C491C4A43C0F8C7
S3152022C420FC22002002BD9202AF23C0F8FC228DF806
S3152022C4300230012200238DF803208DF801208DF869
S3152022C4400030694600F006F80028EAD040F21E7035
S3152022C45002BD0000F0B58BB004460D4600F068FE02
S3152022C46011A2D2E90067CDE9006729786878AA78EF
S3152022C470EB7841EA002141EA024141EA03610622A0
S3152022C480029203910221DFF8AC2300F011F810B1B9
S3152022C49040F2097005E02046FFF7BAFE08B14FF4B4
S3152022C4A0E3600BB0F0BD0000000000000000000099
S3152022C4B08DF81110099202A9002201910092694653
S3152022C4C0022220466CE600002DE9F84390B000F0C7
S3152022C4D0C9FE00BF83A200F0BDFE0821079104F108
S3152022C4E0740201218DF82510049105924FF40071D2
S3152022C4F00391002707A902AA08970191009269466B
S3152022C5002068A26A9047002802BF0A98CA49084290
S3152022C51040F0E380207B18B102280DD012D31FE0F1
S3152022C52004F1740304F1740151F8202011BA43F85E
S3152022C5302010401C8028F5D3ADB104F17400815D12
S3152022C5402970C8E0002004F1740304F1740151F823
S3152022C550202051BA43F82010401C8028F5D3EBE73F
S3152022C5604FF4E160BBE004F2031504F24313697829
S3152022C570A878090201EB004128780E18997B587C6D
S3152022C58004F532724E434643566228796979EE780B
S3152022C59000F0ACF89662E879297AAE7900F0A6F80E
S3152022C5A0D662A87AE97A6E7A00F0A0F8166304F5A4
S3152022C5B02A70A97F817004F22311EE7FC6700F782C
S3152022C5C007718E784671CF7887710E79C6718F79E9
S3152022C5D007720E7A46728F7A87720E7BC6728F7B8D
S3152022C5E007730E7C46734F7C8773CE7CC6736D7B16
S3152022C5F0057004F262252E7856754E7D0674276DB7
S3152022C6003E4326658E7D46744F7E87748E7EC67403
S3152022C610CF7E07750E7F46755F7F97729E7FD67275
S3152022C62004F26316DF7F177337785773B77B177534
S3152022C6308F7F8775C97FC1751F780776597841768E
S3152022C6409F788776D978C176DF7E1772197F5172C5
S3152022C650D9791F7A090401EB07619F7901EB07211A
S3152022C6605F793944C161206DC70548BFD161987A67
S3152022C6701070197B5170587B9070997BD170D87B22
S3152022C6801071197C5171587C9071997CD171D87C0A
S3152022C69000021062587DC10703D5206D40F4007038
S3152022C6A004E0810704D5206D40F48060206505E0F2
S3152022C6B0400703D5216D41F400612165317B707BD2
S3152022C6C0F37A090441EA0061B07A41EA032101435F
S3152022C6D01161A97A9175002001E040F2097011B00A
S3152022C6E0BDE8F0830000000000000000000200EBFD
S3152022C6F00140997B8619587C4E4346437047000059
S3152022C7002DE9F047FF26012990B0DFF8C8460DD043
S3152022C710022903D0052909D006290CD14AF655210A
S3152022C7204FF6FF7A08252160564609E05A2104252C
S3152022C7302160B24604E08022042522604FF0C00AFE
S3152022C74007462068397B19B1022906D05CD366E0D8
S3152022C75000BA206036BA9AFA8AFA00BF38A0242173
S3152022C760D0E90023CDE9002307A8F6F7C5F800F083
S3152022C770DEFB0021012208918DF825208DF80A2042
S3152022C78004921320079007A902AA039506940191E1
S3152022C790009269463868BA6A9047002802BFDFF8B5
S3152022C7A098800A9810EA080F3CD1D4F8009000BF4E
S3152022C7B025A300222260D3E90001CDE9000100F061
S3152022C7C02FFC00F0B4FB01218DF825108DF80A10DC
S3152022C7D004910E20079007AA02A903950594019297
S3152022C7E000913868BA6A69469047002804BF0A9899
S3152022C7F010EA080F19D1216889EA01000640564518
S3152022C80014BF0120002012E042BA226070BA9AFA9E
S3152022C8109AF112BA226006BA91FA81FA9DE74FF46A
S3152022C820E16004E04FF4E46001E040F2217010B0B0
S3152022C830BDE8F0878800F9FF0800F9FF40420F0083
S3152022C84000000000000000000000000000000000A0
S3152022C85038B5B72200F07AFC00B15FE084F8B152F5
S3152022C86032BD000028680121FFF74EBC286802212C
S3152022C870FFF74ABC38B5044694F82D50012D15D021
S3152022C880022D03D0052D11D0062D20D12068FFF7A9
S3152022C890EEFF29462046FFF733FF20B929462046B8
S3152022C8A0FFF7D6FF88B140F2127032BD2068FFF71B
S3152022C8B0DAFF29462046FFF723FF0028F3D129460F
S3152022C8C02046FFF7C5FF0028EDD184F80753002024
S3152022C8D032BD38B500F2B2250C46E97901239340C0
S3152022C8E0194205D12979072902DB4FF4E16032BDAD
S3152022C8F0B92304F00F048DF8023044EA02140322ED
S3152022C90000238DF803208DF800308DF801406946EA
S3152022C910FFF7A0FD00B101E02C7032BD40F21E705F
S3152022C92032BD000078B5044623A08BB0D0E900237F
S3152022C930CDE9092324216846F5F7DEFF022200925B
S3152022C9400021032201918DF80920CDF828D00991C2
S3152022C9502068A26A09A9904750BB03A890E86C00D8
S3152022C96004F1540104F51E7081E86C000699090E23
S3152022C97001700699090A4180069901710599090EC5
S3152022C98041710599090C81710599090AC171059987
S3152022C99001720499090E817204990902C160039ACF
S3152022C9A041EA1261C1600399090A0174002001E05B
S3152022C9B040F209700CB070BD00000000000000009B
S3152022C9C0F0B58BB000F0D8F869A20921D2E9006728
S3152022C9D0CDE9006702910321A26C8DF81110120471
S3152022C9E00392002102AA019200912068A26A694636
S3152022C9F09047002840F0B78005A890E86C0004F103
S3152022CA00640104F5237081E86C00B30EB20F03F0A3
S3152022CA100F0302704370320C330A8270C370067180
S3152022CA20E16E0B0C0A0D03F00F030904C280037278
S3152022CA3003D5428942F001024281E16E4A0403D59E
S3152022CA40418941F002014181E16E8A0403D541895F
S3152022CA5041F004014181E16ECA0403D5418941F0A6
S3152022CA600801418140F6FC72E16E02EA8102A16E42
S3152022CA7002EB91728281A16ECA0E0B0E02F0070280
S3152022CA8003F007038273C3734A0D8B0CC90B01F083
S3152022CA90070102F0070203F007038174027443742C
S3152022CAA0A16E8A0A4B0901F01F0102F01F0203F030
S3152022CAB01F034175C2740375616E002903D541890E
S3152022CAC041F010014181616E4A0F02F00302827504
S3152022CAD08B0E8A0D03F0070302F00F028902C3751B
S3152022CAE0027603D5428942F020024281616ECA0330
S3152022CAF003D5418941F040014181616E0A0403D563
S3152022CB00418941F080014181616E4A0403D54189E0
S3152022CB1041F480714181616E8A0403D5418941F4B1
S3152022CB2000714181616ECA0403D5418941F4806135
S3152022CB304181616E8A0A090A01F0030102F0030289
S3152022CB4081764276216DCA0508D4837C8189022288
S3152022CB505B1C491C9A405143490A81654FF4007156
S3152022CB604165002001E040F209700BB0F0BD0000C3
S3152022CB7000000000000000000446242102A8F5F748
S3152022CB80BBBE000010B5034603F5397300201C7F77
S3152022CB90072C09D8DFE804F0040A0A080C0E101222
S3152022CBA01B6851188B4200D2042010BD5B68F8E71F
S3152022CBB09B68F6E7DB68F4E71B69F2E75B69F0E737
S3152022CBC0780F222028680121FFF7A7BA2DE9F04104
S3152022CBD0044604F12C05DFF86066287D10B940F260
S3152022CBE02E70F4E069782068FFF785F8287B98B1C3
S3152022CBF02068FEF7ECFF697B2068FFF726F8686835
S3152022CC00F4F786FD687B411E89412068C90FFFF70C
S3152022CC101CF8A868F4F77CFDA87B28B12068FFF7CA
S3152022CC2028F82068FFF7CFFF20680021FFF76CFA4B
S3152022CC3061682068DFF8102602F0CFFFA86142F251
S3152022CC401071206803F01EF8206804F1140102F006
S3152022CC50B1FF2046FFF785FA10B140F21370B6E0F5
S3152022CC6000212046FFF722FBB8B9D4F8740210F02F
S3152022CC70C04F03D0686A40F480706862E069B0F5DC
S3152022CC80007FA87B28BFDFF8C46508B146F080065E
S3152022CC9031462046FFF70AFB10B140F2147096E087
S3152022CCA02046FFF73FFE10B140F20D708FE020465E
S3152022CCB0FFF750FB10B140F21A7088E02046FFF7AA
S3152022CCC07FFE10B140F20F7081E02046FFF772FB03
S3152022CCD001212046FFF73FFA10B14FF4E26076E0B9
S3152022CCE0002200212046FFF7EFFB10B140F21C70F4
S3152022CCF06DE04FF400712046FFF737FA10B140F26B
S3152022CD000A7064E02878401E04F5407603D0401E3F
S3152022CD1001284AD94CE06878052818BF06280AD067
S3152022CD20686A810748BFDFF818850BD4C0074CD51F
S3152022CD30DFF8088506E095F8240010F00C0F44D081
S3152022CD40DFF80085002201212046FFF7C2FD10B11F
S3152022CD5040F21B703BE068786168052818BF0628D8
S3152022CD60206819BF0027424601274FEA580202F0BF
S3152022CD7034FFA8612046FFF77DFD18BB57B9012055
S3152022CD80B0712046FFF738FB002814BF40F21F70EF
S3152022CD9030701CE061682068424602F01EFFA861BE
S3152022CDA00022206800F01AF8E9E74FF4E1600EE04D
S3152022CDB06878052818BF062807D02046FFF75AFD8F
S3152022CDC00028DED040F2127001E040F20C70BDE85D
S3152022CDD0F08100008C302420286800220121FFF7D0
S3152022CDE0A7B910B5044694F8401021B903F06FFA7A
S3152022CDF008B1012010BD012084F84000002010BD7A
S3152022CE00006803F07DBA10B50446FFF7F9FF2046E5
S3152022CE10FFF7E7FF00B103E02046BDE81040D5E644
S3152022CE2040F22E7010BDB0F8960210F4C06018BFE2
S3152022CE300120C0B270477CB50446B32294F8AF6273
S3152022CE408DF802200D46032106F0F8068DF80310F0
S3152022CE5000222E438DF800208DF801606946FFF7C7
S3152022CE60F9FA10B140F21E7076BD84F8AF6284F8CA
S3152022CE70005376BD2DE9F84F8A46914690B000F0B0
S3152022CE80D3F834464FF0000808B1042048E005F1D3
S3152022CE904C0B28E04FF400700AEB482103900591B1
S3152022CEA00496122100F0B5F804BF1121079108EB50
S3152022CEB009000890DBF80410CA055CBF40020890DE
S3152022CEC000F0B8F860BB012E0BD99DF80800002887
S3152022CED004BF9BF80010002903D12846FFF7CAF980
S3152022CEE0F8B90020B844DCB12F6AA74232BFE41B2E
S3152022CEF02746002400F094F800F019F80FF2743E29
S3152022CF00DEE9000100F07EF824BFE869B0F5007F53
S3152022CF100AD32846FFF77CF90028BBD04FF4E360DA
S3152022CF206DE040F21770FBE740F20C70F8E702A89A
S3152022CF301421F5F7E1BC2DE9F84F8A46914690B0A7
S3152022CF4000F072F8002700283446BB462BD0042056
S3152022CF5055E04FF400700AEB4B210390069104967C
S3152022CF60192100F056F804BF182107910BEB09006E
S3152022CF7005F14C0708907968CA055CBF40020890E3
S3152022CF8000F058F8002832D1012E0AD99DF808003F
S3152022CF90002804BF3978002903D12846FFF76AF9E9
S3152022CFA038BB0027C3444CB3D5F82080A04532BFD6
S3152022CFB0A4EB0804A046002400F032F8FFF7B7FFBE
S3152022CFC00FF2B82EDEE9000100F01CF824BFE86932
S3152022CFD0B0F5007F10D32968486AC101FBD52846BF
S3152022CFE0FFF716F90028B4D04FF4E36706E0074688
S3152022CFF004E040F2177701E040F20C77384611B070
S3152022D000BDE8F08FCDE90001D5F8E022B2F5007F08
S3152022D01070470498079101228DF80820012870472D
S3152022D020242107A8F5F768BC054649461E463246FE
S3152022D030FFF7A8BD0121DFF818228DF825100E92C0
S3152022D04007A902AA01910092694601222846FFF7E2
S3152022D050A7B800002DE9F0438BB004460D461746AB
S3152022D06000F066F80FF21C2204F53971D2E9008904
S3152022D070CDE900890A7F072A1BD8DFE802F00E0CA9
S3152022D0800C1A0A080604486908E0086906E0C868F6
S3152022D09004E0886802E0486800E008688969B0FBF5
S3152022D0A0F1F201FB120000B1521CAA4228BFBA4259
S3152022D0B001D2042035E02068406AC001FBD54F43C7
S3152022D0C04D43216DC8055CBF6D027F02232102914B
S3152022D0D0039501218DF81110002202A901910092B7
S3152022D0E069465B4D0995FFF7C2F840F20976B8B931
S3152022D0F024210291002202A9019100920397FFF78F
S3152022D100B5F868B926210291002202218DF8111044
S3152022D110039202A9019100920995FFF7A7F800B17F
S3152022D12030460BB0BDE8F083D0E90023CDE90023B9
S3152022D130242102A8F5F7E0BB38B5B22200F006F882
S3152022D14008B1FFF7EBBB84F8AE5232BD0D468DF8FF
S3152022D150022003218DF8031000228DF80020044698
S3152022D1608DF801506946FFF775B938B5AD22FFF71C
S3152022D170EDFF08B1FFF7D2BB84F8AA5232BDF8B52B
S3152022D180044604F2AA250E46287B032802DC4FF405
S3152022D190E160F2BD6F79307807F0870708B147F052
S3152022D1A04007B32270788DF8022003218DF80310D0
S3152022D1B0002247EAC0078DF8002000F037F810B188
S3152022D1C040F21E70F2BD6F71EF78307907F0E007DA
S3152022D1D008B147F00407F078B178074347EAC10738
S3152022D1E00320B1218DF803008DF8021000F01EF8DD
S3152022D1F0B8B9EF707079B8B1B179F0792B7941EA63
S3152022D2000011CAB29A4204D0C9B22046FFF794FF2F
S3152022D21038B9317A2878884206D02046FFF7A5FFEA
S3152022D22010B140F21D70F2BD0020F2BD8DF80170C2
S3152022D23069462046FFF70EB90080FF0080BA8C018E
S3152022D2400075190300EA3206E09304000080FF40AD
S3152022D2500800F9FF02A8D2E90089CDE90089142124
S3152022D260F5F74ABB04460D461646242107A8F5F7AC
S3152022D27043BB000000000000000000000000000068
S3152022D28000000000000000000000000030B5C900A8
S3152022D2903F24002300228C400228DFF8D85106D0D2
S3152022D2A0032802BF2A682240DFF8CC3103E02A6C09
S3152022D2B0DFF8C8312240CA4004D0B3FBF2F0122153
S3152022D2C0484330BD002030BD2DE9F84304280CBF49
S3152022D2D0022403240021204603F046F90646302163
S3152022D2E0204603F041F9074606F07F0003F040F975
S3152022D2F0804689462021204603F036F903F038F964
S3152022D30004460D46384603F033F900F018F8424613
S3152022D3104B4603F03BF90022DFF8643103F0F4F99F
S3152022D3200446760E012006F007060D46B04003F08D
S3152022D3301FF900F004F8BDE8F44303F0B7BA024619
S3152022D3400B462046294603F0C5BA000080B50021A7
S3152022D350052824D8DFE800F00315181B1D1F1148C5
S3152022D360434902680068C00B00F003000123401CD9
S3152022D37003FA00F04000B1FBF0F102F0FF02514324
S3152022D3800DE0DFF800110AE0DFF8F01007E03A4955
S3152022D39005E0042000E00520FFF796FF0146084617
S3152022D3A002BD00000042C84010B500211E285CD8CC
S3152022D3B0DFE800F01013191619191B1B1D1D1F213A
S3152022D3C024272A2A2C332E30323737393E434345D7
S3152022D3D0454A4A00DFF8B01047E0DFF8B01044E0B3
S3152022D3E0DFF8AC1041E022493FE0002028E002206D
S3152022D3F026E0022012E0012102200FE00221022053
S3152022D4000CE00321022009E0032019E003200BE08F
S3152022D410012102E0022100E003210320FFF736FF4B
S3152022D42010E001200CE00120FFF790FF41081CE0CC
S3152022D4300120FFF78BFF052115E0042000E00520BF
S3152022D440FFF784FF014610E0DFF84840DFF8481056
S3152022D4502068C0F302200844007AFFF7A5FF21683E
S3152022D46001F0FF01491CB0FBF1F1084610BD000076
S3152022D47000366E013042C84000389C1C00A4781F1A
S3152022D48060E3764100CA9A3B0024F400006CDC0259
S3152022D4900084D7178000CC408C0C2220826A490037
S3152022D4A022F0060201F006011143816270470B46E3
S3152022D4B0426D816A006802F06BB80A46816A00686A
S3152022D4C002F08CB8816A006802F0B6B80A46816AF0
S3152022D4D0006802F0C9B8E0B5016C01914023C26B05
S3152022D4E000921322816A006802F02EF90EBD816A0B
S3152022D4F0006802F0E9B82DE9F84306460F4615469C
S3152022D50040F2297841F66A193068B26A394690473C
S3152022D510044641F66910844218BF4C4505D07968E5
S3152022D520DFF8D029C868104214D096F8D0000328F4
S3152022D53018BF02280ED14C4506D1306842F210720D
S3152022D5404FF0B05102F023FB3046FFF7C4FF30B133
S3152022D550444602E00CB140F2097425B16D1E002C1E
S3152022D56018BF4445D0D12046BDE8F28318B50446DB
S3152022D57012A08BB000F070F800F016FA0D2202925B
S3152022D5800121606DDFF86C298DF8111000040390BB
S3152022D590099200F03BF802222046FFF7ACFF40B961
S3152022D5A00598C105F5D5C0F343200728F1D00020E0
S3152022D5B001E040F209700CB010BD0000000000000E
S3152022D5C00000000018B504460EA08BB000F044F8E7
S3152022D5D000F0EAF90C2202920021032203918DF80F
S3152022D5E010200221DFF80C298DF81110099200F063
S3152022D5F00DF801222046FFF77EFF08B140F209707E
S3152022D6000CB010BD000000000000000002A900227C
S3152022D610019100926946704718B504460CA08BB03A
S3152022D62000F01AF800F0C0F9032202920021082203
S3152022D63003918DF8112000F014F820B90598000CDA
S3152022D6406065002001E040F209700CB010BD000098
S3152022D6500000000000000000D0E90023CDE90023CD
S3152022D660704702A900220191009269462068A26A87
S3152022D670104700002DE9F041044600BF1AA090B0C1
S3152022D68090461F46D0E90023169ECDE900230D465B
S3152022D69000F02EF802A81421F5F72EF9062007907D
S3152022D6A0ED074FEA88000F2165F07F4581408D43A3
S3152022D6B087403D430122402108958DF8252003915C
S3152022D6C00492059607A902AAFFF7CDFF002802BFDA
S3152022D6D00A98DFF82018084214BF40F20970002069
S3152022D6E010B0BDE8F081000000000000000000001C
S3152022D6F0242107A8F5F700B938B5044651A0DFF84A
S3152022D700F857D0E9002390B02421CDE90023FFF752
S3152022D710F0FF02A81421F5F7EFF800F00EF9616D5B
S3152022D7202046FFF7CAFE10B140F2157088E0332159
S3152022D7300791012200218DF8252008910822012116
S3152022D7400392049107AA02A905950091019269469E
S3152022D7502068A26A9047002803BF0A98DFF8941708
S3152022D760084240F209706BD1207B48B1022801D0B1
S3152022D77046D34BE0296808BA2860686800BA6860F0
S3152022D780D5E9001204F18000C0E90012296804F1CB
S3152022D790BC00090F01702A68120E02F00F02427095
S3152022D7A029680A0203D5438843F001034380090DE1
S3152022D7B001F0070101712968090C01F00F0141715D
S3152022D7C029680A0403D5438843F002034380890A41
S3152022D7D001F01E0181712978427801F00301C1717D
S3152022D7E069688160AAB1022A03D03CBF0221A165C1
S3152022D7F011E00421A165827891070CD5082209E03F
S3152022D8002868696840BA286048BAB8E74FF4E160C8
S3152022D81016E00122A26541794A0703D5E16D41F03E
S3152022D8200401E165C079C10703D5E26D42F0800289
S3152022D830E265800703D5E16D41F04001E1650020D4
S3152022D84011B030BD00000000000000002DE9FC418F
S3152022D85004460F46DFF8A056904600F06EF8A26DD9
S3152022D860012A98BF40F20C7058D9009543463A4671
S3152022D87000212046FFF7FEFE002830D12868217B92
S3152022D880F9B1022901D00ED346E000BA2860686891
S3152022D89000BA6860A86800BAA860E86800BAE8609A
S3152022D8A0286900BA0CE040BA2860686840BA6860E5
S3152022D8B0A86840BAA860E86840BAE860286940BAF1
S3152022D8C0286100F02DF8BE0000F030F824D1009512
S3152022D8D043463A4601212046FFF7CCFE10B140F2BC
S3152022D8E009701BE0E868217B41B1022901D00ED3C1
S3152022D8F012E000BAE860286900BA286100F010F820
S3152022D90000F014F814BF40F21670002006E040BA48
S3152022D910E860286940BAF0E74FF4E160BDE8F68175
S3152022D920E8682969000200F47F40704740EA1160C6
S3152022D930F04000F00F00404570474FF48071284692
S3152022D940F4F7DABF30B504460FF6FC008BB0FFF7AA
S3152022D95083FE0D4600F028F8616D2046FFF7ADFDC7
S3152022D96010B140F2157019E00621012202918DF89C
S3152022D970112015B1012D0ED00FE00390FFF771FE75
S3152022D980002802BF0598DFF82C18084214BF40F25F
S3152022D9900970002002E00220EFE704200BB030BD00
S3152022D9A0D2E90001CDE90001242102A8F4F7A4BF7F
S3152022D9B078B504460FF698008BB000F02AF9092292
S3152022D9C00092616DCDF828D00904019103218DF8AA
S3152022D9D00910002100F018F9002840F0C78003A87A
S3152022D9E090E86C0004F1700104F1A00081E86C003B
S3152022D9F00699890F01700699090C41700699090A20
S3152022DA0081700699C1700599090D81800599090CA5
S3152022DA1001F00F01817105990A0400F0ABF84A043E
S3152022DA2000F0A8F88A0403D5018941F00401018176
S3152022DA300599CA0403D5018941F0080101814FF4D1
S3152022DA4000710278BAB1012A4BD1C1624FF6FF7317
S3152022DA500599090401F47C11C160049A41EA124114
S3152022DA609942C16003D3E26D42F01002E265491C5D
S3152022DA708902816235E0059B40F6FC7202EA830226
S3152022DA80C2600124049B42EA9372C260049AC3684C
S3152022DA90D20E02F0070202745B1C049A120E02F0C6
S3152022DAA007024274049A120D02F00E028274049A1C
S3152022DAB0920C02F00702C274049AD20B02F00702D9
S3152022DAC00275921C03FA02F28379826204FA03F324
S3152022DAD0B3F5007FC36204D05A438262C162520ADE
S3152022DAE0826204994A0403D5018941F010010181F9
S3152022DAF00499C90901F07F0141759DF8101001F0A2
S3152022DB007F0181750399890E01F00701C175039959
S3152022DB10890D01F00F01017603998A0203D5018925
S3152022DB2041F04001018103990A0403D5018941F07C
S3152022DB308001018103994A0403D5018941F4807128
S3152022DB40018103998A0403D5018941F40071018157
S3152022DB500399CA0403D5018941F48061018103997D
S3152022DB60890A01F003014176002001E040F2097082
S3152022DB700CB070BD03D5018941F0010101810599BF
S3152022DB80704778B504460FF2D0608BB000F041F88A
S3152022DB90022200920021032201918DF80920CDF83C
S3152022DBA028D000F031F858BB03A890E86C0004F185
S3152022DBB0600104F18C0081E86C000699090E01703F
S3152022DBC00699090A4180069901710599090E417122
S3152022DBD00599090C81710599090AC1710599017264
S3152022DBE00499090E417204990902C160039A41EAF5
S3152022DBF01261C16003990903090D0182002001E007
S3152022DC0040F209700CB070BD09912068A26A09A958
S3152022DC101047D0E90023CDE9092324216846F4F7C9
S3152022DC206BBEB0F8A80010F4C06018BF0120C0B2A5
S3152022DC3070472DE9F84F90B0D0F8C840D518AC429D
S3152022DC4038BF042068D34FF000080FF22C650FF25C
S3152022DC50206907468B4692461C4632E04FF40071D5
S3152022DC60039104960BEB48210498059112220792E0
S3152022DC70012804BF1121079108EB0A00089002AB64
S3152022DC8097F85C108A075CBF4002089001218DF824
S3152022DC90251007A9DFF81C250E9201910093012257
S3152022DCA069463846FFF727FC002835D104980128F3
S3152022DCB006D99DF8080018B93846FFF783FC20BB01
S3152022DCC0B04444B3D9E900013E6ACDE90001A64217
S3152022DCD032BFA41B26460024FFF70AFD02A82946A6
S3152022DCE01422F8F749FE07F1C8004168B1F5007FF2
S3152022DCF024BFF869B0F5007F0AD33846FFF736FCF1
S3152022DD000028ABD04FF4E36006E040F2177003E020
S3152022DD1040F20C7000E0002079E02DE9F04F054614
S3152022DD2005F1C80791B09146386809EB0302904263
S3152022DD304FF0000B38BF042069D31C460FF2545AE9
S3152022DD400FF24858079133E04FF40071039104965D
S3152022DD5002AB0799049801EB4B22192108910692CE
S3152022DD60012804BF182108910BEB0900099095F888
S3152022DD705C108A075CBF4002099001218DF8291088
S3152022DD8008A9DFF870210F9201910093012269469A
S3152022DD902846FFF7B0FB002839D10498012806D956
S3152022DDA09DF8080018B92846FFF70CFC40BBB3445F
S3152022DDB064B3D8E900012E6ACDE90001A64232BF1A
S3152022DDC0A41B26460024242108A8F4F795FD02A8A0
S3152022DDD051461422F8F7D0FD7868B0F5007F24BF8B
S3152022DDE0E869B0F5007F0ED32968486AC101FBD5C0
S3152022DDF02846FFF7BBFB0028A6D04FF4E36006E0B7
S3152022DE0040F2177003E040F20C7000E0002011B0BF
S3152022DE10BDE8F08F2DE9F04F80468BB08946D8F8A1
S3152022DE20C80009EB020188424FF0000B38BF0420BC
S3152022DE3058D31446DFF8BC500FF26C4A32E00BEB73
S3152022DE400901771898F85C007F1E82075CBF490279
S3152022DE507F0203912022012102928DF81110099529
S3152022DE6002A9019100230093012200F03EF8002806
S3152022DE7034D121210291039702A9019100220092F5
S3152022DE8000F033F850BB2621029100220221039270
S3152022DE908DF81110099502A9FFF7BAFB00F026F892
S3152022DEA0E0B9B344ECB1DAE9000198F8B560CDE9DE
S3152022DEB00001761CA64232BFA41B26460024FFF769
S3152022DEC073FDD8F80000416AC801FAD54046FFF70B
S3152022DED04DFB0028B3D04FF4E36003E040F20970F3
S3152022DEE000E000200BB0BDE8F08F69464046FFF7E0
S3152022DEF002BB00000800F9FF8C3024202DE9F04FC8
S3152022DF00074607F14C068BB0307810B940F22E70B6
S3152022DF104AE107F12C0041783868FDF79BFF97F8F4
S3152022DF202C0002281CBF0328042801D1012400E04A
S3152022DF30002407F12C01087B204315D03868FDF7F1
S3152022DF4046FE07F12C053868697BFDF77EFE686858
S3152022DF50F3F7DEFB687B411E89413868C90FFDF73E
S3152022DF6074FEA868F3F7D4FB34B107F12C01012003
S3152022DF7048703868FDF77DFE002030610021386820
S3152022DF80FFF78CFA796838688F4A01F026FE70608E
S3152022DF9042F21071386801F075FE386807F11401D3
S3152022DFA001F008FE3846FFF78DFA002877D107F1CF
S3152022DFB0D0010120DFF81492C8700CB1DFF810923C
S3152022DFC00FF2A4224FF00A08FFF7EAFC00F00DF91F
S3152022DFD040F20C753868BA6A6946904710B140F209
S3152022DFE0097006E00598C0F30800B0F5D57F06D063
S3152022DFF02846B8F101084AD0A842EBD168E0306918
S3152022E00040F0080049F08048306140F6B8390FF2D6
S3152022E0105022FFF7C5FC29210291CDF80C8004213C
S3152022E0208DF81110F3F761FB82468B466948F3F788
S3152022E03066FB1AEB000A4BEB010B5FEA0900A9F1FA
S3152022E040010935D0F3F751FB594531D828BF504520
S3152022E0502ED200213846FFF730FA48BBFFF7D6FAF0
S3152022E0603868BA6A904718BB05980028E5D500F08B
S3152022E070B3F817D4F06307F1D009307C810624D572
S3152022E0803846FFF734FAB0B140F225708CE0A84228
S3152022E090C8461DD03846FFF715FA0028B5D040F2DB
S3152022E0A0137081E0306940F0200030610598E1E765
S3152022E0B040F2147078E0032089F803003846FFF7EF
S3152022E0C060FD38B140F20D706EE05FEAC810F5D5DA
S3152022E0D0284669E03846FFF79FFA10B140F20E70C3
S3152022E0E062E03846FFF764FC10B140F20F705BE025
S3152022E0F001213846FFF7DBF910B14FF4E26053E0F5
S3152022E100796838682C4A01F068FD706007F12C0581
S3152022E1106878012800D05CB101213846FFF712FC2D
S3152022E12010B140F212703FE038680121FFF7B6F9AC
S3152022E1303846FFF7E1FA10B140F2117034E04FF47D
S3152022E14000713846FFF7C2F910B140F20A702BE06F
S3152022E15028781B4C401E03282AD8DFE800F0020527
S3152022E160070A0122154C05E0022203E00322154C60
S3152022E17000E0042200213846FFF768FBA8B9287858
S3152022E18089F8000022467968386801F026FD7060F9
S3152022E19099F80000022818BF032809D13846FFF72C
S3152022E1A09AF928B140F229709CE640F21B70FBE7CF
S3152022E1B00020F9E70800F9FF40787D0180F0FA0275
S3152022E1C000E1F50500D4650CE09304000080FF00F1
S3152022E1D00080FF0140420F00400003D5316941F003
S3152022E1E0020131610598C10170474FF4D571092288
S3152022E1F003918DF81120082002A900220290019174
S3152022E2000092704710B500F14404217A29B9216879
S3152022E21002F05DF808B1012010BD012020720020F5
S3152022E22010BD006802F06CB810B50446FFF7F9FF5E
S3152022E2302046FFF7E7FF00B103E02046BDE8104065
S3152022E2405CE640F22E7010BD0000000000000000A7
S3152022E2500000000000000000000000000000000076
S3152022E2600000000000000000000000000000000066
S3152022E2700000000000000000000000000000000056
S3152022E2800000000000000000000000000000000046
S3152022E2900000000000000000000000000000000036
S3152022E2A00000000000000000000000000000000026
S3152022E2B010B54001504A145801F0010304F001041C
S3152022E2C0A34207D001F001011150BFF34F8FBFF3B4
S3152022E2D06F8F105810BD01B408E00098401E8A089E
S3152022E2E00090521C1046421E0028FBD1009800287E
S3152022E2F0F3D101B0704702460120116A0029FCD0D1
S3152022E300116ACB07FCD4116A11F0060F18BF002020
S3152022E31070470521C0F808110D22C0F808210921CD
S3152022E320C0F80811704770B50D460446686833490F
S3152022E330B0FBF1F60D22C4F808210C20C4F80801FE
S3152022E3400821C4F80811F820C4F808014FF47A727B
S3152022E3506B6828682949B3FBF1F15043FFF7BBFFCD
S3152022E3603821C4F8081101203146FFF7B4FF0820CE
S3152022E370C4F8080131460120FFF7ADFF0C20C4F86E
S3152022E38008010D21C4F808110920C4F80801C4F88F
S3152022E39008110520C4F808010121C4F808112046D5
S3152022E3A02946FFF7B6FF002070BD10B504464FF46C
S3152022E3B0C87121601E20FEF7F7FF606010BD38B5B8
S3152022E3C004460D4601212420FFF772FF29462046C6
S3152022E3D0FFF79FFF2046FFF78EFF002804BFA16A82
S3152022E3E011F0030F07D029462046FFF79CFF20462F
S3152022E3F0BDE832407FE732BD0060CC4040420F006C
S3152022E40030B50123B2F5956F02D311F0030401D062
S3152022E410042030BD846AE50702D442F6051030BDB9
S3152022E42002240460056A15F0050FFBD0046AE5076D
S3152022E43009D5046A2506F9D5846C042AF6D341F82F
S3152022E440044B121FF2E7006A810701D502B9002385
S3152022E450184630BD70B501230025B2F5956F02D33B
S3152022E46011F0030401D0042070BD846AA60702D4C9
S3152022E47042F6061070BD04240460066A16F0050FC3
S3152022E480FBD0046AE60709D5046A6606F9D5042A6A
S3152022E49024BF51F8045B121F4564F2E7006A810704
S3152022E4A048BF0023184670BD70B5856A01246E07C1
S3152022E4B001D4012070BD13F0030513D1A2F1080661
S3152022E4C040F2F915AE420DD212F0070F0AD1D6002C
S3152022E4D0FF36360A049D3602A036B5EBD60F01D377
S3152022E4E0102901D3042070BDD20882604160082100
S3152022E4F00160026A12F0050FFBD0016ACA0709D50C
S3152022E500016A0A06F9D5816C042DF6D343F8041B39
S3152022E5102D1FF2E7006A810748BF0024204670BDDE
S3152022E520F0B5856A012400266F0701D40120F0BDAB
S3152022E530059F17F0030518D1A3F1080C40F2F9150F
S3152022E540AC4512D213F0070F0FD14FEAC30C0CF1B0
S3152022E550FF0C4FEA1C2C069D4FEA0C2C0CF1A00C2A
S3152022E560B5EBDC0F01D3102901D30420F0BD4FEAED
S3152022E570D30EC0F808E0416019B94FEA930E02EB98
S3152022E5808E024FF0100CC0F800C0D0F820E01EF00A
S3152022E590050FFAD0D0F820C05FEACC7E1DD5D0F860
S3152022E5A020C05FEACC6E0CD5042B09D30E0004D1F1
S3152022E5B052F8046D36BA5B1E02E052F8046B1B1F1A
S3152022E5C00664D0F820C05FEA0C6EE3D5866C042D53
S3152022E5D0E0D347F8046B2D1FDCE7006A810748BF8A
S3152022E5E000242046F0BD38B5002509280C460BD13B
S3152022E5F0F4F759FC28B1F4F783F900F5006020607E
S3152022E60003E042F2DD7500E00425284632BD0346AA
S3152022E61010B50020022B02D11023102402E0002361
S3152022E620002404200B60146010BD10B504780B78EA
S3152022E6305C4004700A7854400C7001784C40047077
S3152022E64010BDF8B50026022A04460D4618D114E03C
S3152022E6502718391FA019FFF7E8FFA219F91E501C07
S3152022E660FFF7E3FFA019B91E801CFFF7DEFFA019D2
S3152022E670791EC01CFFF7D9FF361DA81B8642E7D379
S3152022E680F1BD0000EFF3108172B60160704780F36E
S3152022E69010887047D3BBD9B1B2F5803F5BD2022A0C
S3152022E6A01ED98C46B1FBF2F102FB11C31B0443EAAD
S3152022E6B01043B3FBF2FC02FB1C3380B240EA034335
S3152022E6C0B3FBF2F002FB103240EA0C4000237047E3
S3152022E6D0022A05D98446B0FBF2F002FB10C270470B
S3152022E6E04AB105D100F0010249085FEA300070479D
S3152022E6F000220023704702F011BA0B0002000021EB
S3152022E70000207047F7D3002200237047904271EBF6
S3152022E710030CF2D370B5B1FA81F4B3FA83F52C1B2C
S3152022E720A340C4F1200532FA05F63343A2405FF016
S3152022E7300046E64002E05B085FEA3202841A71EB69
S3152022E740030524BF204629467641F4D302000B0036
S3152022E7503000002170BD70B5B1FA81F4B2FA82F58B
S3152022E760C4F120046419B4F12006DAD3B2405FF052
S3152022E7700044F440002502E052085FEA3303C61A19
S3152022E78071EB020E24BF3046714664416D41F3D3AC
S3152022E79002000B002000290070BD000038B5144667
S3152022E7A000252CB1042903DA012818BF022801D01A
S3152022E7B0042032BD19B102290AD006D345E01D20F4
S3152022E7C0FEF7F2FD2060284632BDF3F7E1F8F9E79D
S3152022E7D00021012808BFDFF8481403D0022808BFE9
S3152022E7E0DFF840140868096801F0FF01000A491C75
S3152022E7F000F007000728DFF8302424D8DFE800F0CD
S3152022E80004071114171A1D20B2FBF1F0DAE7DFF8FC
S3152022E8101C040368C3F380000028F5D0DFF81024F7
S3152022E820F2E7DFF81024EFE7DFF80C24ECE7DFF835
S3152022E8300C24E9E7DFF80824E6E7DFF80824E3E7F3
S3152022E840DFF80424E0E70325BDE70425BBE72DE90D
S3152022E850F84F012884B014D100220091096CC805F2
S3152022E86048BF521C7820DFF8E41342438C180099C3
S3152022E87001F1500604F144053069002808BF686A70
S3152022E88004E0022840F0E1800222E6E70390D6F84F
S3152022E8901C807069B8F1000F08BFD5F8308000B906
S3152022E8A0A86A0290B06900B9E86A019004F12407A7
S3152022E8B03068DFF89C93DFF89CA3DFF89CB310B96D
S3152022E8C0706820B96BE02078617800F0D2F8706801
S3152022E8D000281CBF2079002802D0617900F0C9F8CF
S3152022E8E0207A10B1617A00F0CAF80023019900F04B
S3152022E8F0B6F892F800E04AF82E1000F0A9F8042B78
S3152022E900F5D30098019190F8451008290ED1387830
S3152022E91060B10199042300F0A2F892F800E04AF8A7
S3152022E9202E1000F095F8082BF5D301910098007B44
S3152022E930032818BF012821D10098016C880509D502
S3152022E940D6F81C800FF24030B8F1000F04D14FF0D8
S3152022E950080801E004F1100000281CBF01780029D4
S3152022E9600CD0427842F010024BF8212001784AF846
S3152022E9702180817811B1C07849F821000098FAF7D0
S3152022E980C0F800281CBF207B002808D0617B00F01D
S3152022E99076F8A07B18B1E07BA17B49F82100B068EC
S3152022E9A010B9F06828B950E0387C10B1797C00F093
S3152022E9B060F8F06800281CBF387D002802D0797DB7
S3152022E9C000F057F8387C002804BF387D00283CD038
S3152022E9D0387E10B1797E00F052F80022019900F09B
S3152022E9E056F8042AFBD3009890F84520082A06D107
S3152022E9F0287D20B1042200F04AF8082AFBD3009869
S3152022EA00007B032818BF01280ED1287860B16978A7
S3152022EA1041F010014BF820104AF82080A87818B12E
S3152022EA20E878A97849F821000098FAF76AF80028A8
S3152022EA301CBF387F002808D0797F00F020F8B87FC5
S3152022EA4018B1F87FB97F49F8210005B0BDE8F08FCB
S3152022EA50907810B1D27849F820205B1C704704EBBD
S3152022EA60830000F1140292F801C010784BF820C0DE
S3152022EA7070474BF82010039A4AF82020704741F01D
S3152022EA8010014BF8201002994AF82010704704EB07
S3152022EA90820000F148035E7818784BF8206093F8BC
S3152022EAA000C04AF82C10987810B1DB7849F820302B
S3152022EAB0521C704738B504460D461D20FEF774FCBD
S3152022EAC06649B0FBF1F122462B46541E63F100051E
S3152022EAD0002B08BF002A08D08A08521C1046421E44
S3152022EAE0002818BF00BFF9D1EDE731BD5C49086087
S3152022EAF0002070475A490A68026000207047042085
S3152022EB0011B1584808600020704700207047000045
S3152022EB10F8B5012A84B004464DD800294BD0012CC1
S3152022EB2008BF3F4D02D0022C45D13E4D2B681B0AF1
S3152022EB300026002003F00703032B03D8DFE803F087
S3152022EB40143F3D41484B1E18012A04BF181800F1D4
S3152022EB5028060A2928BF012116F8110006EB4101B1
S3152022EB604E78761E06F0FF0648A292E8881001A962
S3152022EB70000200F4E06081E888100643204600F077
S3152022EB8042F801AF18B157F8240000F01CF8296882
S3152022EB908E4218BF2E60204600F01BF857F824001C
S3152022EBA0016821F0020101606A4600210091204677
S3152022EBB00221FFF7F3FD05B0F0BD1420C2E70120A4
S3152022EBC0D2E70320D0E7016841F002010160204606
S3152022EBD00CE00128254902D0022806D12031012025
S3152022EBE00860BFF34F8FBFF36F8F704701281F49ED
S3152022EBF002D0022806D1203100200860BFF34F8F91
S3152022EC00BFF36F8F7047014600200129174A02D091
S3152022EC10022903D12032116801B101207047000058
S3152022EC20000ACC40800ACC4000366E01A0C9CA40D8
S3152022EC3000B0710B0084D7170024F400E04B9D27E7
S3152022EC4000A4781F007B9A1700389C1C5C0922207E
S3152022EC5098840E4054820E4010800E4040420F006F
S3152022EC601C40C04080F5E4093C0B22208063CC4026
S3152022EC7041B1C90001F0380141F001020266C166A4
S3152022EC80426682667047000012062E0000000000AF
S3152022EC9000C00C4000000D40DFF80006DFF8001609
S3152022ECA00A68D30709D401684A07F7D5016841F0D3
S3152022ECB00401016045F20A20704700207047014670
S3152022ECC0042901DC020002D145F20C207047DFF82C
S3152022ECD0D42500F0070010600329506820F00E008A
S3152022ECE0506003DC506840F008005060022908DC9E
S3152022ECF0506840F00400506003DA506840F0020069
S3152022ED00506000207047DFF89C05006810F007004D
S3152022ED1001D0052800DB042070470828DFF8841557
S3152022ED2013D1012008604A6822F00E024A60486800
S3152022ED3040F008004860486840F00400486048686F
S3152022ED4040F0020048600020704710280DD1022092
S3152022ED5008604A6822F00E024A60486840F008009D
S3152022ED604860486840F00400ECE745F20E207047E0
S3152022ED70DFF828050168CA07FCD5016841F00101A0
S3152022ED8001600268910706D5026842F002020260FB
S3152022ED9045F2092070470020704710B5DFF8FC3471
S3152022EDA01C6844F001041C605A665865DFF8F80492
S3152022EDB041181966BDE81040DAE770B5DFF8DC6441
S3152022EDC01446326842F00102326070651D4600F018
S3152022EDD008F978B90598716F10B10498102800D0D7
S3152022EDE00820002203E004F8011B521CC140AA423B
S3152022EDF0F9D3002070BD2DE9FE4306460124307A40
S3152022EE000128884615461F4631D10A220021002094
S3152022EE1000F096F88146FFF776FF042804D00420D6
S3152022EE20FFF74DFF040022D1204603E0E1B2E4B2EF
S3152022EE306D1AA044B5B12FB196F82100102808BF2B
S3152022EE40022400D004240197A54296F8210000909E
S3152022EE5038BF2C46B069E3B242464946FFF7ADFF9A
S3152022EE600028E3D0044696F82100FFF756FF2046D5
S3152022EE70BDE8FE832DE9F84F07468A46387A0128CF
S3152022EE8016464FF0010B43D198460B220021002033
S3152022EE9000F056F8B8F1000F814605D097F82100E8
S3152022EEA0102808BF102500D00825FFF72CFF04289C
S3152022EEB008D00420FFF703FF5FEA000B28D101E0E8
S3152022EEC0361BA24406B3B8F1000F05D097F82100CD
S3152022EED0102808BF022400D00424A64238BFF4B248
S3152022EEE00022002006E01AF8001000FB05F39940C4
S3152022EEF00A43401CA042F6D3B86923464946FFF767
S3152022EF004CFF5FEA000BDBD097F82100FFF705FFC5
S3152022EF105846BDE8F28F80B50B4601461846F7F7CC
S3152022EF202BFD002002BD80B5F7F726FDBDE8014066
S3152022EF30B2E6DFF86C030068400800F00100704753
S3152022EF400907090E41EA002102F00F0242EA0100D6
S3152022EF50704710B500F118021068537B4118012B17
S3152022EF600AD1D27A4FF0FF3421FA02F3501C04FA46
S3152022EF7002F2834091431943084610BDF8B5C74E85
S3152022EF800446306840F0010030601D4601F00F0033
S3152022EF90062801D1012718E00A28FBD070B10128C2
S3152022EFA008BF012716D008280AD101270020746518
S3152022EFB000B1726600F015F870B1F2BD012700E0AB
S3152022EFC00027072818BF0B2804D000281CBF012899
S3152022EFD00928EBD10120EAE70FB1706F28600020C3
S3152022EFE0F2BDB14841183166C2E6B04A904208D2F3
S3152022EFF0400B002201E04008521C0028FBD10A7057
S3152022F000704745F20B207047F8B50446A849206878
S3152022F010884201D00420F2BDF2F7B6FC2046F2F750
S3152022F0204BFE207B082860DAF2F786FCF2F7A8FC52
S3152022F030A04D286820F002002860296841F00101AD
S3152022F04029602868C107FCD4BFF34F8FBFF36F8F87
S3152022F050286840F002002860217A012940F00481A4
S3152022F06004F121063778286A00F47C602862286A0F
S3152022F0702169090B40EA0130286269466069FFF757
S3152022F080B4FF00286BD1286A00F01CF92862286A6E
S3152022F09040F001002862286B00F47C602863286BEC
S3152022F0A0A169090B40EA013028636946E069FFF726
S3152022F0B09CFF002853D1286B00F004F92863286B83
S3152022F0C040F001002863686800F07F406860F07B8A
S3152022F0D0042800F2C680DFE800F0130F0B03170086
S3152022F0E0696841F48021696012E045F21220F2BD5E
S3152022F0F0686840F480400AE0686840F4806006E050
S3152022F100686840F0400002E0686840F004006860C9
S3152022F11068686860296821F0800129602868317C26
S3152022F120C90101F0800108432860296D6248014007
S3152022F1302965296D94F82000C00100F08000014342
S3152022F1402965F07848B1412807D2002140080028B5
S3152022F1501CBF4008491CFAD104E045F210200028A1
S3152022F16012D174E00906286D090D01F070010143C0
S3152022F17029653078082808D0102803D1286D40F038
S3152022F180010003E045F20E20F2BD286D2865317973
S3152022F190B078012904BF401CC0B2A0F10901082978
S3152022F1A05CD2C0F110000006296D000C00F4E0604C
S3152022F1B00843286504F14100C27A41780378120671
S3152022F1C002F0706242EA01724179090501F4700166
S3152022F1D00A430179090401F470210A43C1780903FB
S3152022F1E001F470410A438178090201F470611B01FE
S3152022F1F00A43F17F03F0F0031A4301F00F010A4379
S3152022F2006A65817A427A0906920401F07C5102F4D7
S3152022F2107C021143027A120302F47C321143C27910
S3152022F2208079920102F47C62114300F03F0001436F
S3152022F230A9657078810842088900520001F00401EC
S3152022F24002F00202114300F001000843E8651B4840
S3152022F250A8603846FFF761FD48B1F2BD45F211207C
S3152022F260F2BD45F20F20F2BD45F20820F2BD2968F3
S3152022F2701348A27B0140607B000641EA024100F04E
S3152022F280F8500143E07B800000F00400014329600E
S3152022F2900020296821F002012960F2BD3C400D4060
S3152022F2A0C0400D4094400D4000005AA50100008028
S3152022F2B053454D4300400D400EF8FFFF8540400048
S3152022F2C0FBFF00E09DF80010490001F03E010843B3
S3152022F2D0704700210180704770B5048800250EE012
S3152022F2E04B5D84EA032408236600240444BF86F463
S3152022F2F0805686F021065B1E3446F5D16D1C95423A
S3152022F300EED3048070BD00880880704744F64E7183
S3152022F3100180704770B5048800250EE04B5D84EA93
S3152022F320032408236600240444BF86F4004686F07C
S3152022F33005065B1E3446F5D16D1C9542EED304801C
S3152022F34070BD0000F8B504460E46154603216846D0
S3152022F350F3F7D2FA0027DFF814E1234632460021BA
S3152022F3602AE012F8010B1EF8000000F03F06714039
S3152022F370400620D57C408DF80140FE439DF8004072
S3152022F3807440B3F5007F8DF8004014D19DF8020019
S3152022F3903C0A00F0FD0680EA440000F002003043D9
S3152022F3A08DF8020000F0FE06E443604000F00100E2
S3152022F3B030438DF802007F1C9F429DF80140D0D316
S3152022F3C0B3F5807F05D19DF8020040F003008DF829
S3152022F3D002009DF800209DF80200520840EA810092
S3152022F3E09DF800108DF8020001F0FD0141EA44014A
S3152022F3F001F0FB0141EA820101F0F701620800F0E7
S3152022F4003EF8920841EA021101F0DF01A20800F03B
S3152022F4102FF8D20841EA821101F07F01E20841EA5F
S3152022F420C211297022099DF80010C1F3001141EA68
S3152022F43042019DF8002001F0FB01520941EA820196
S3152022F44001F0F701620900F01AF8920941EA021145
S3152022F45001F0DF01A20900F00BF8D20941EA82115C
S3152022F46004F080040C436C70A870F1BD6411222034
S3152022F47041EA42119DF8002001F0BF01704741EA7E
S3152022F480C2019DF8002001F0EF01704710B5034616
S3152022F49000200A46511E4AB113F8012B14001EBF22
S3152022F4A002F0010420185208F8D1F2E710BDFEB569
S3152022F4B004460D461646032101A8F3F71DFA01AA92
S3152022F4C029462046FFF73EFF002001A90A5C335C2D
S3152022F4D05A400DF80020401C0328F7D30321684602
S3152022F4E0FFF7D4FFB4F5807F08BF0B2703D0B4F5EE
S3152022F4F0007F08BF0C2710B945F23430FEBDB84232
S3152022F5003ED19DF802109DF800300A09C1F3C000B1
S3152022F51002F002024909104301F0040108439F0820
S3152022F520C3F3400107F00207DE08394306F004063A
S3152022F5301B099DF80120314303F008031943D30008
S3152022F54003F010039700194307F02007530039438D
S3152022F55003F04003194302F080021143B4F5007FE1
S3152022F56005D19DF80220D20102F4807211436A5CF1
S3152022F570012303FA00F05040685445F23530FEBD8F
S3152022F580012802D145F23730FEBD45F23630FEBD86
S3152022F590F0B504469BA016461F46D0E900238BB021
S3152022F5A000F042F8072202921FB136040396012167
S3152022F5B001E0002103918DF81110002202A9019168
S3152022F5C000F04DF8002802BF05983349084214BF9F
S3152022F5D040F2097000200BB0F0BD000078B5044639
S3152022F5E08AA01646D0E900238BB000F01DF801210F
S3152022F5F037228DF811100292002102AA0091360498
S3152022F6000192039600F02CF8002803BF0598224980
S3152022F610084240F2097004D1800654BF40F20C7091
S3152022F62000200CB070BD00000D46CDE90023242118
S3152022F63002A8F3F761B9000030B5044675A08BB055
S3152022F64000F038F802A9002200E00000019102927F
S3152022F65000F005F808B140F209700BB030BD0092D7
S3152022F660694620462847000078B504466BA01646F0
S3152022F670D0E900238BB0FFF7D7FF0121102200F01B
S3152022F6800DF8002802BF05980349084214BF40F20C
S3152022F690097000200CB070BD0800F9FF8DF81110FA
S3152022F6A00292002102AA00910192039669462046DF
S3152022F6B028470000D0E90023CDE900230D46242146
S3152022F6C002A8F3F719B9000030B5044655A08BB02D
S3152022F6D0FFF7F0FF0B2202920021039101228DF8DF
S3152022F6E0112002A901910022FFF7B9FF10B140F2A1
S3152022F6F0097026E0606A10F0706F40F22A751DD1DB
S3152022F700D4F8C00040F00200C4F8C00041F288308C
S3152022F710F1F7FEFFD4F8C00040F48070C4F8C00090
S3152022F7204FF47A70F1F7F4FFD4F8C00020F48070F9
S3152022F730C4F8C000606A10F0706F01D1284600E03C
S3152022F74000200BB030BD00002DE9F047044600BF53
S3152022F75036A015461E46D0E90023B0B08946CDE90B
S3152022F7600023DDF8E0A0DDF8E480242107A8F3F7C2
S3152022F770C3F802A81421F3F7BFF8802110A8F3F7C3
S3152022F780BBF801270020079508908DF8257003964F
S3152022F790049710AB07AA02A90593019200918DF82E
S3152022F7A00B7000F029F806E000F026F80A21204600
S3152022F7B000F0E3FC002769462046C84700280ED1E0
S3152022F7C0E06B4102F7D4A06E10F0802F18BF002FD5
S3152022F7D0EAD1E06B010205D440F2297009E040F219
S3152022F7E0097006E0206C20F470602064206C20646E
S3152022F7F0002030B0BDE8F0870123424651462046FC
S3152022F80000F0C5BC0000000000000000000000003F
S3152022F81000000000000000000000000000000000A0
S3152022F8200000000000000000000000000000000090
S3152022F8300000000010B54001DFF89C29145801F081
S3152022F840010304F00104A34207D001F00101115063
S3152022F850BFF34F8FBFF36F8F105810BD0029816CD5
S3152022F86003D041F00101816470474908490081642F
S3152022F870816A21F4407181627047826B22EA0101FA
S3152022F8808163704710B501465FF0000005A2C3B21E
S3152022F89052F823308B4203D0401CC4B2032CF6D319
S3152022F8A0C0B210BD000000000080414000C041408F
S3152022F8B038B504460D46626BDFF820190A4062638A
S3152022F8C0DFF81C19FFF7D9FF2046FFF7DBFF00F0F0
S3152022F8D08BFC0ED008000CD4012201F01F00DFF889
S3152022F8E004398240490943F82120BFF34F8FBFF3C1
S3152022F8F06F8F616BDFF820090143616315B1A16B1C
S3152022F9000843A06331BD70B5034600299D6C25F0BE
S3152022F910360556D0C878032808D1986A20F4803034
S3152022F9209862986A40F4003098624BE0586A8407BD
S3152022F93002D541F6641070BD8E68B6F5803F05D299
S3152022F9400C69C868002C08BF002801D1042070BD8C
S3152022F95008B145F01005022E05D3087845F0220578
S3152022F96008B145F00405487850B1D3F8C80040F4D0
S3152022F9708050C3F8C80045F080058868186007E0E3
S3152022F980D3F8C80020F4805025F08005C3F8C8009B
S3152022F990C87802280BD058684C68896800F46040E1
S3152022F9A0C4F30C04204340EA0140586005E0986ADB
S3152022F9B040F4801045F022059862106840F4001029
S3152022F9C010609D64002070BD10B54A7AC2B10269CA
S3152022F9D04B7ACA60032B13D142690A6183694B6130
S3152022F9E0C0698861042001EB800293681B020228E9
S3152022F9F0936003D3546843EA14639360401EF2D182
S3152022FA00C86970B14A7A012A18BF022A03D0082A65
S3152022FA1018BF062A05D1C968084202D041F66610C7
S3152022FA2010BD002010BD70B5034610465C6C9A6C42
S3152022FA30D50704F0FF040AD400F01FF805E01D6A5A
S3152022FA40CE6846F82050401C521CA242F7D370BDE5
S3152022FA5030B5034610465A6C9D6CC2F30744EA071A
S3152022FA600AD400F00AF805E00D6955F820501D62E7
S3152022FA70401C521CA242F7D330BD4A6812F0030F13
S3152022FA8004D0151D02F00302AA1A4A608D684A681C
S3152022FA905543AD08AC4202D22D1AAC4200D92C468F
S3152022FAA00022704730B5C3680C6A426AD5072AD429
S3152022FAB00A7A042A2AD04D7A6D1E082D11D8DFE81B
S3152022FAC005F005080B0E0E050805050044F4D01492
S3152022FAD007E044F4D81404E044F4102401E044F46A
S3152022FAE000340D68032A08BF44F44004DFF82C278B
S3152022FAF02D06134005F07C554A682B4304F47B04DB
S3152022FB0023438260C360097A042903D1816B490881
S3152022FB104900816330BD70B504460D46FFF7B2FE1B
S3152022FB200FF24472105C0121FFF784FE42F210721A
S3152022FB304FF08071204600F02AF8A16A626CE36AAF
S3152022FB402879AE79000121F44C7100F0300001436E
S3152022FB50687902F0E0220243E879000242EA06426C
S3152022FB6000F4F8500243287A000600F0F8500243A7
S3152022FB70286860F31343E3626264A1620021A06CC9
S3152022FB8020F00900A0642046BDE8704090E610B51A
S3152022FB90C46A01F0E0631C43C46201E042B1521EF2
S3152022FBA0C36A0B42FAD1100018BF0120C0B210BD81
S3152022FBB00020FBE710B5026C130C4FF4007003F003
S3152022FBC00703984088604FF6FF74DFF85406CC600E
S3152022FBD0024042F030020A6110BDF0B503461046BB
S3152022FBE09D6C0026002200244FF480772D0744BFE7
S3152022FBF001244FF40077B1FBF0F595B3B1FBF5FC68
S3152022FC00604538BF6D1C102D17D92A0900E0521CD9
S3152022FC10B7FBF2F002FB10700028F8D1012AF6D0A9
S3152022FC20B5FBF2F600E0761C02FB06F0A842FAD3D8
S3152022FC30B1FBF6F0B0FBF2F10BE01020B0FBF5F0B1
S3152022FC406843D0F11000B1FBF5F108BF2A4602D055
S3152022FC502E4606B1761E22B1002C14BF0220012088
S3152022FC60C240D86A36016FF30F1006F0F006120250
S3152022FC70064302F47F421643DE62586A0207FCD507
S3152022FC800846F0BDC26A42F00062C26201E041B17A
S3152022FC90491EC26A1301FAD4080018BF0120C0B235
S3152022FCA070470020FBE72DE9F842814618460025B9
S3152022FCB021F04043110518BF41F668105DD110F09E
S3152022FCC003011CBF061D701A4FF6FC77B0FBF7F70F
S3152022FCD04FF6FC7606FB170101B17F1C07990129F5
S3152022FCE00AD1AC4601E00CF1010C9C4504D219F84C
S3152022FCF02C40E407F7D4654605EB4707BB421CD2C6
S3152022FD0003203AE04FEA043E49F825E000284EF047
S3152022FD10110E49F825E0CCF8042014BF4FF0210E0D
S3152022FD204FF0000E4EEA020ECCF804E04FEA940C75
S3152022FD3018BF001B02EB8C02AD1C00290CBFBE464D
S3152022FD409E46754509EB850C08D2B04288BF3446BB
S3152022FD50D8D800280CBF04240446D3E75CF8040C28
S3152022FD6040F0020001294CF8040C05D159F827004D
S3152022FD7040F0210049F827000020BDE8F2822DE933
S3152022FD80F84F0A9D8900C908022D04BF121D1B1F88
S3152022FD9012F003044FF0000A18BF41F6681078D1FA
S3152022FDA013F003041CBF1E1D331B4FF6FC76B3FB38
S3152022FDB0F6F8344604FB18340CB108F10108022D5A
S3152022FDC011D1002400E0641C8C4204D210F8346045
S3152022FDD0F607F8D4A246D04408F10104A14207D25C
S3152022FDE035B1032055E04145F5D2002DF9D0F2E771
S3152022FDF04FF0704906461C4693461DE0CDF80090EA
S3152022FE003A465946684600F08BFE002843D1009890
S3152022FE10311D41F83A003904002C46F83A1014BF15
S3152022FE2021200020084346F83A00B8080BEB800B25
S3152022FE3004B1E41B0AF1010AC2450AD24FF6FC702C
S3152022FE40844288BF0746D9D8002C0CBF04272746D0
S3152022FE50D4E745B906EBCA0050F8081C41F0020146
S3152022FE6040F8081C14E0CDF800900422DFF8B413E1
S3152022FE70684600F055FE70B90098311D4FF4802255
S3152022FE8041F8380046F83820DFF89C0346F8380037
S3152022FE900020BDE8F28F41F66510FAE738B50D4607
S3152022FEA00446297851B912F0030002D041F668108F
S3152022FEB032BD002B0CBF2260A2650FE000202060FD
S3152022FEC04FF0704100916846AA68696800F028FEC2
S3152022FED010B141F6651032BD0098A065A16ADFF8FF
S3152022FEE04C030140A162A16A28786A780002D206D0
S3152022FEF000F4407002F0605210430143A162A06CCC
S3152022FF0040F00100A064002032BDF8B51646054611
S3152022FF10F4680F4604B93469387850B1022814D0CF
S3152022FF2018D200F01AF8FFF7BEFE397803290BD033
S3152022FF3050B9F178032907D07378224639462846C4
S3152022FF4001B0BDE8F040A9E7F2BD00F006F8FFF7C0
S3152022FF5016FFEAE741F66510F2BD00932246736842
S3152022FF60B068B9684343786870472DE9F84F5768D7
S3152022FF701468012500F0FBF80646306BC30402D52F
S3152022FF8000F0EFF83DE0002C18BF00290ED06AB908
S3152022FF90E078022808BF012303D003280CBF0223BE
S3152022FFA0002322463046FFF7B0FF20B100213046FB
S3152022FFB0FFF754FC002507F1200221463046FFF7A1
S3152022FFC0A2FC08B104201CE039463046FFF76AFD20
S3152022FFD024B1E078411E8941C90F00E00121002089
S3152022FFE0002241F66A1B09B918E0326BDFF840027B
S3152022FFF00242FAD05001DFF83C8204D55846C6F890
S315202300003080BDE8F28F12F4702F18BF0120F6D16D
S3152023001039463046FFF7D8FCC6F83080002CF0D07E
S315202300200028EED14FF000090021ADB9E0686368BE
S31520230030002803F003014FF0B8774FF0806856D09D
S3152023004000200022824611B11B1D5B1A6360A5681E
S3152023005061684D433FE0316BDFF8DC010142FAD082
S31520230060480148BFD94612D4DFF8D021114206D001
S31520230070A07808B1C80202D54FF0010907E0E0783D
S31520230080032804D1DFF89C11E26808681060DFF8A2
S31520230090B0012AE0326BDFF8AC110A42FAD0E178BC
S315202300A0012901D191061ED4530106D5C6F83080E5
S315202300B0DA4602213163D14651E012F0B87F02D0CD
S315202300C0A17861B13763024621463046FFF7ABFC60
S315202300D0202131630022B0EB950FDCD3E9E74FF0E3
S315202300E0010A3763E5E744F22000306337E0002234
S315202300F011B11B1D5B1A6360A368616801FB03F5BD
S3152023010012E0326B0A42FCD0510117D412F0B87F89
S3152023011002D0A17871B13763024621463046FFF7D4
S3152023012097FC102131630022B0EB950F0BD2DFF819
S315202301301811E7E74FF00109376304E0C6F830804A
S31520230140D9460CE0326BDFF804110A42FAD012F0BA
S31520230150B87F03D0A07808B94FF001093163484608
S315202301604FE74FF48050306341F66910704714B13E
S31520230170E278012A00D000227047826E61F30E2294
S315202301808266806E10F0802018BF0120704710B53C
S31520230190B3B1836C43F00073836401F07F01D0F8FD
S315202301A0CC402B4B1C401204214302F4E022114362
S315202301B041F08071C0F8CC10C16B41F4400108E0B6
S315202301C0D0F8CC1021F08071C0F8CC10C16B21F46B
S315202301D04001C16310BD00000060CC40C0AE80EA60
S315202301E03F517F1580E100E01DA131F910106FF0FA
S315202301F07F0291427047000080B5164A16485168FF
S3152023020003E080B5134A15489168D2689047BFF317
S315202302104F8F01BD00000000FF507F15FFFF04C054
S315202302200700F007F4C4242021000400FFFCFFC7A5
S3152023023001000F0001000F04020070150000701149
S315202302400240701520007005100070050200700111
S3152023025080FFF8FF8C3124200080414000C041409C
S3152023026080FF8500860000008A757600FEB50A4643
S315202302700446106878B1694600200023002581E8CA
S315202302802900022301218DF800308DF80110082141
S31520230290194B0193029169462046FFF766FE0546D0
S315202302A0012D12D1666AF00742F2107705D53A4618
S315202302B04FF000712046FFF76AFCB00705D53A4672
S315202302C04FF080612046FFF762FC2846FEBD10B51D
S315202302D004460F20A060022180206073A07321731F
S315202302E00820E073207404F108012068FFF713FC2B
S315202302F00249A162002010BDD4C424206D022320EC
S3152023030010B504460023D4F8C00020F00200C4F818
S31520230310C0000022A06C20F00800A0640021204603
S31520230320FFF735FFA06C20F08060A064206F400883
S3152023033040002067A06C20F01000A06410BD0000B0
S3152023034070B50628654E664C664D11D8DFE800F059
S31520230350041C34547490AE00002920680AD020F45B
S31520230360803000F0EAF82361306880F480303060F2
S31520230370002070BD40F4803000F0DFF8306880F430
S3152023038080303060206A70BD0029206B216B00F4F9
S31520230390007008D021F4803100F0E0F82263236432
S315202303A000F0D2F8E4E741F4803100F0D7F8226355
S315202303B000F0CAF8206D70BD0029206E216E00F44E
S315202303C000700ED021F480312166216E00F0C8F80A
S315202303D02266236700F0A7F8206E20F4803020665B
S315202303E0C6E741F480312166216E00F0B9F82266F2
S315202303F000F099F8286870BD00292869296900F436
S3152023040000700ED021F480312961296900F0A8F8E3
S315202304102A612B6200F07DF8286920F48030286138
S31520230420A6E741F480312961296900F099F82A61E8
S3152023043000F06FF8286B70BD2B4C206800292168AB
S3152023044000F400700AD021F480312160216800F065
S3152023045087F82260236100F052F889E741F480313E
S315202304602160216800F07CF8226000F048F889E7B3
S315202304700029296C1D480CD021F480312964296C4C
S3152023048000F06EF82A642B65016881F4004101602F
S315202304906EE741F480312964296C00F061F82A64DF
S315202304A0016881F400410160286F70BD0029286C02
S315202304B009D020F4803000F01BF82B65306F80F0B4
S315202304C00100306754E740F4803000F011F8306F94
S315202304D080F001003067286E70BD00000045C840BB
S315202304E02048C840A048C8402049C8400044C840A6
S315202304F02864286C000A42EA00222A64704721686D
S3152023050081F480712160216801F400718142FAD03F
S315202305107047296981F480712961296901F4007161
S315202305208142FAD07047216E81F480712166216E33
S3152023053001F400718142FAD0704720602068000AB6
S3152023054042EA002222607047216B81F48071216365
S31520230550216B01F400718142FAD070472163216B0C
S31520230560090A42EA012270470A4600230021E7E6C8
S31520230570014648B1B0FA80F18840C91CC1F584618F
S31520230580090501EBD02140057047000070B44FF0D8
S31520230590004591EA030F40F1F7826B40841A71EBF1
S315202305A0030604D26E40001BB141121973414FF446
S315202305B0001C1CEB410F34BF7CEB430683E00C0D60
S315202305C0A4EB1356362E00F37C80012E45EAC32353
S315202305D041DC43EA525312BFD20292025B0824051E
S315202305E045EAC12141EA5051D2EBC020994125D475
S315202305F007D1B0FA80F610FA06F162D00020203611
S3152023060008E0B1FA81F6B140C6F1200220FA02F2BF
S315202306101143B0404FEAF474B4EB465434F0010648
S315202306204FEA74040AD8D6F50016760D04F0004452
S31520230630F04061FA06F25040F1404840C00A40EAB1
S31520230640415021F0004128BF5FEA500550F10000B8
S3152023065044EBD12135E0DB0A45EAC121C90AB6F1AB
S3152023066020050EDD42EA0242120CC5F1200603FACA
S3152023067006F6EB4042EA06056D42984161F10001F8
S315202306800DE062FA06F5F240554063FA06FC82EA4B
S315202306900C02F3405A406D42904161EB030111F461
S315202306A0801F05D1641E620502D06D004041494159
S315202306B021F48011430875F1004350F1000041EBEA
S315202306C0045170BC70471CEB410F15D223F0004315
S315202306D052EA43060BD04FEA4C0CBCEB410F04D80D
S315202306E00C0D661E342EB7DDEBE7801A994150EAAE
S315202306F0410608BF0021E4E708BF1CEB430F28BFB0
S315202307006FF00001DDE70000B0B581EA030C0CF0A1
S31520230710004C40F2FF7515EA11541DBF15EA1357F5
S31520230720AC42AF4239E0E41923EA455343F480131C
S31520230730C90241F0004141EA505EC7021100A7FBDE
S31520230740020200284FF00000EEFB01204FF00001AB
S31520230750E3FB072118BF42F001024018002149413B
S31520230760E3FB0E01A4F580640F0302D2520040411D
S31520230770494154F101046CDD470872F1004250F1DE
S31520230780000051EB0451A1F580115CBF41EA0C0115
S31520230790B0BD4CEA05510020B0BD05EA1357AC4243
S315202307A014BFAF4241E050EA410E1CBF52EA430E2A
S315202307B002E061460020B0BD24423C441BD15FEABF
S315202307C0070EF6D0090302BF01460020AEF1140E10
S315202307D0B1FA81F7AEEB070401FA07FE0C37C7F10E
S315202307E0200100FA07F7C8404EEA000E23EA4553B4
S315202307F043F48013A2E733F00043B3FA83F704BF0D
S31520230800B2FA82FE77440B3FE41BB7F1200E2FBFAB
S3152023081002FA0EF3BB40C7F1200E22FA0EFE38BF92
S3152023082043EA0E03BA40641C82E750EA410E14BF02
S3152023083052EA430E6FF000014FF4001717EB430FD4
S315202308408ABF194617EB410FB5E74CEA055100201D
S31520230850B0BDD4F10104B4F120070FDAC4F1200787
S31520230860520828BF42F0010210FA07F501FA07F7CA
S31520230870E1BF2A43E0403843E1400FE0352C98DCA2
S31520230880C7F1200452EA400220FA07F218BF42F0A9
S31520230890010231FA07F0A1400A43002172F10042F6
S315202308A050F1000051EB0C01B0BD0000400D49185A
S315202308B040EA81200CD2490DA1F58061491C40F0E4
S315202308C0004005DBD1F11F0154BFC840C017704734
S315202308D000207047F0B540F2FF7581EA030C0CF037
S315202308E0004C15EA11541DBF15EA1357AC42AF42EB
S315202308F0E5E0BC41C1F31301C3F31303801A9941E5
S3152023090043F4801304D2641E400049418018594180
S31520230910C90241EA5051B1FBF3F603FB1611A2FBA0
S315202309200675D7EBC020A94102D2761E80185941DD
S31520230930C90241EA5051B1FBF3FE03FB1E11A2FB70
S315202309400E75D7EBC020A94103D2AEF1010E801834
S315202309505941890241EA9051760546EA8E2EB1FB0A
S31520230960F3F603FB1611A2FB0675D7EB8020A941CC
S3152023097002D2761E80185941C90241EA50514EEAC5
S31520230980060EB1FBF3F603FB1611A2FB0675D7EB76
S31520230990C020A94102D2761E80185941C90241EAB4
S315202309A05051B1FBF3F703FB1711A2FB0735D3EB0A
S315202309B0C020A94167F100070CBF004247F0010779
S315202309C066F3D5274FEA1E31B80814F5806412DD65
S315202309D0BD0775F1004250EB0E5051EB045111F532
